{
	"projects/crypto/web3bets_smartcontract/contracts/BetsFactory.sol": {
		"BetsFactory": {
			"abi": [
				{
					"anonymous": false,
					"inputs": [
						{
							"indexed": false,
							"internalType": "address",
							"name": "better",
							"type": "address"
						},
						{
							"indexed": false,
							"internalType": "address",
							"name": "eventAddress",
							"type": "address"
						},
						{
							"indexed": false,
							"internalType": "address",
							"name": "marketAddress",
							"type": "address"
						},
						{
							"indexed": false,
							"internalType": "address",
							"name": "poolAddress",
							"type": "address"
						},
						{
							"indexed": false,
							"internalType": "uint256",
							"name": "stake",
							"type": "uint256"
						}
					],
					"name": "BetCreated",
					"type": "event"
				},
				{
					"inputs": [
						{
							"internalType": "address",
							"name": "_eventAddress",
							"type": "address"
						},
						{
							"internalType": "address",
							"name": "_marketAddress",
							"type": "address"
						},
						{
							"internalType": "address",
							"name": "_poolAddress",
							"type": "address"
						},
						{
							"internalType": "uint256",
							"name": "_stake",
							"type": "uint256"
						}
					],
					"name": "createBet",
					"outputs": [
						{
							"internalType": "address",
							"name": "",
							"type": "address"
						}
					],
					"stateMutability": "nonpayable",
					"type": "function"
				},
				{
					"inputs": [
						{
							"internalType": "address",
							"name": "_address",
							"type": "address"
						}
					],
					"name": "getAllBetsByAddress",
					"outputs": [
						{
							"internalType": "address[]",
							"name": "",
							"type": "address[]"
						}
					],
					"stateMutability": "view",
					"type": "function"
				}
			],
			"devdoc": {
				"kind": "dev",
				"methods": {},
				"version": 1
			},
			"evm": {
				"assembly": "    /* \"projects/crypto/web3bets_smartcontract/contracts/BetsFactory.sol\":78:790  contract BetsFactory {... */\n  mstore(0x40, 0x80)\n  callvalue\n  dup1\n  iszero\n  tag_1\n  jumpi\n  0x00\n  dup1\n  revert\ntag_1:\n  pop\n  dataSize(sub_0)\n  dup1\n  dataOffset(sub_0)\n  0x00\n  codecopy\n  0x00\n  return\nstop\n\nsub_0: assembly {\n        /* \"projects/crypto/web3bets_smartcontract/contracts/BetsFactory.sol\":78:790  contract BetsFactory {... */\n      mstore(0x40, 0x80)\n      callvalue\n      dup1\n      iszero\n      tag_1\n      jumpi\n      0x00\n      dup1\n      revert\n    tag_1:\n      pop\n      jumpi(tag_2, lt(calldatasize, 0x04))\n      shr(0xe0, calldataload(0x00))\n      dup1\n      0x7700cb83\n      eq\n      tag_3\n      jumpi\n      dup1\n      0xfc6a691b\n      eq\n      tag_4\n      jumpi\n    tag_2:\n      0x00\n      dup1\n      revert\n        /* \"projects/crypto/web3bets_smartcontract/contracts/BetsFactory.sol\":268:650  function createBet(address _eventAddress, address _marketAddress, address _poolAddress, uint _stake) external returns(address) {... */\n    tag_3:\n      tag_5\n      0x04\n      dup1\n      calldatasize\n      sub\n      dup2\n      add\n      swap1\n      tag_6\n      swap2\n      swap1\n      tag_7\n      jump\t// in\n    tag_6:\n      tag_8\n      jump\t// in\n    tag_5:\n      mload(0x40)\n      tag_9\n      swap2\n      swap1\n      tag_10\n      jump\t// in\n    tag_9:\n      mload(0x40)\n      dup1\n      swap2\n      sub\n      swap1\n      return\n        /* \"projects/crypto/web3bets_smartcontract/contracts/BetsFactory.sol\":657:786  function getAllBetsByAddress(address _address) external view returns (address[] memory){... */\n    tag_4:\n      tag_11\n      0x04\n      dup1\n      calldatasize\n      sub\n      dup2\n      add\n      swap1\n      tag_12\n      swap2\n      swap1\n      tag_13\n      jump\t// in\n    tag_12:\n      tag_14\n      jump\t// in\n    tag_11:\n      mload(0x40)\n      tag_15\n      swap2\n      swap1\n      tag_16\n      jump\t// in\n    tag_15:\n      mload(0x40)\n      dup1\n      swap2\n      sub\n      swap1\n      return\n        /* \"projects/crypto/web3bets_smartcontract/contracts/BetsFactory.sol\":268:650  function createBet(address _eventAddress, address _marketAddress, address _poolAddress, uint _stake) external returns(address) {... */\n    tag_8:\n        /* \"projects/crypto/web3bets_smartcontract/contracts/BetsFactory.sol\":386:393  address */\n      0x00\n        /* \"projects/crypto/web3bets_smartcontract/contracts/BetsFactory.sol\":405:413  Bets bet */\n      dup1\n        /* \"projects/crypto/web3bets_smartcontract/contracts/BetsFactory.sol\":424:437  _eventAddress */\n      dup6\n        /* \"projects/crypto/web3bets_smartcontract/contracts/BetsFactory.sol\":439:453  _marketAddress */\n      dup6\n        /* \"projects/crypto/web3bets_smartcontract/contracts/BetsFactory.sol\":454:466  _poolAddress */\n      dup6\n        /* \"projects/crypto/web3bets_smartcontract/contracts/BetsFactory.sol\":468:474  _stake */\n      dup6\n        /* \"projects/crypto/web3bets_smartcontract/contracts/BetsFactory.sol\":415:475  new Bets(_eventAddress, _marketAddress,_poolAddress, _stake) */\n      mload(0x40)\n      tag_18\n      swap1\n      tag_19\n      jump\t// in\n    tag_18:\n      tag_20\n      swap5\n      swap4\n      swap3\n      swap2\n      swap1\n      tag_21\n      jump\t// in\n    tag_20:\n      mload(0x40)\n      dup1\n      swap2\n      sub\n      swap1\n      0x00\n      create\n      dup1\n      iszero\n      dup1\n      iszero\n      tag_22\n      jumpi\n      returndatasize\n      0x00\n      dup1\n      returndatacopy\n      revert(0x00, returndatasize)\n    tag_22:\n      pop\n        /* \"projects/crypto/web3bets_smartcontract/contracts/BetsFactory.sol\":405:475  Bets bet =new Bets(_eventAddress, _marketAddress,_poolAddress, _stake) */\n      swap1\n      pop\n        /* \"projects/crypto/web3bets_smartcontract/contracts/BetsFactory.sol\":485:493  userBets */\n      0x00\n        /* \"projects/crypto/web3bets_smartcontract/contracts/BetsFactory.sol\":485:505  userBets[msg.sender] */\n      dup1\n        /* \"projects/crypto/web3bets_smartcontract/contracts/BetsFactory.sol\":494:504  msg.sender */\n      caller\n        /* \"projects/crypto/web3bets_smartcontract/contracts/BetsFactory.sol\":485:505  userBets[msg.sender] */\n      0xffffffffffffffffffffffffffffffffffffffff\n      and\n      0xffffffffffffffffffffffffffffffffffffffff\n      and\n      dup2\n      mstore\n      0x20\n      add\n      swap1\n      dup2\n      mstore\n      0x20\n      add\n      0x00\n      keccak256\n        /* \"projects/crypto/web3bets_smartcontract/contracts/BetsFactory.sol\":519:522  bet */\n      dup2\n        /* \"projects/crypto/web3bets_smartcontract/contracts/BetsFactory.sol\":485:524  userBets[msg.sender].push(address(bet)) */\n      swap1\n      dup1\n      0x01\n      dup2\n      sload\n      add\n      dup1\n      dup3\n      sstore\n      dup1\n      swap2\n      pop\n      pop\n      0x01\n      swap1\n      sub\n      swap1\n      0x00\n      mstore\n      keccak256(0x00, 0x20)\n      add\n      0x00\n      swap1\n      swap2\n      swap1\n      swap2\n      swap1\n      swap2\n      0x0100\n      exp\n      dup2\n      sload\n      dup2\n      0xffffffffffffffffffffffffffffffffffffffff\n      mul\n      not\n      and\n      swap1\n      dup4\n      0xffffffffffffffffffffffffffffffffffffffff\n      and\n      mul\n      or\n      swap1\n      sstore\n      pop\n        /* \"projects/crypto/web3bets_smartcontract/contracts/BetsFactory.sol\":539:614  BetCreated(msg.sender, _eventAddress, _marketAddress, _poolAddress, _stake) */\n      0x9726291d5c71d688e1f9eeefc86207b2fe84f09e6362dd075e12a7aba0834e31\n        /* \"projects/crypto/web3bets_smartcontract/contracts/BetsFactory.sol\":550:560  msg.sender */\n      caller\n        /* \"projects/crypto/web3bets_smartcontract/contracts/BetsFactory.sol\":562:575  _eventAddress */\n      dup8\n        /* \"projects/crypto/web3bets_smartcontract/contracts/BetsFactory.sol\":577:591  _marketAddress */\n      dup8\n        /* \"projects/crypto/web3bets_smartcontract/contracts/BetsFactory.sol\":593:605  _poolAddress */\n      dup8\n        /* \"projects/crypto/web3bets_smartcontract/contracts/BetsFactory.sol\":607:613  _stake */\n      dup8\n        /* \"projects/crypto/web3bets_smartcontract/contracts/BetsFactory.sol\":539:614  BetCreated(msg.sender, _eventAddress, _marketAddress, _poolAddress, _stake) */\n      mload(0x40)\n      tag_24\n      swap6\n      swap5\n      swap4\n      swap3\n      swap2\n      swap1\n      tag_25\n      jump\t// in\n    tag_24:\n      mload(0x40)\n      dup1\n      swap2\n      sub\n      swap1\n      log1\n        /* \"projects/crypto/web3bets_smartcontract/contracts/BetsFactory.sol\":639:642  bet */\n      dup1\n        /* \"projects/crypto/web3bets_smartcontract/contracts/BetsFactory.sol\":624:643  return address(bet) */\n      swap2\n      pop\n      pop\n        /* \"projects/crypto/web3bets_smartcontract/contracts/BetsFactory.sol\":268:650  function createBet(address _eventAddress, address _marketAddress, address _poolAddress, uint _stake) external returns(address) {... */\n      swap5\n      swap4\n      pop\n      pop\n      pop\n      pop\n      jump\t// out\n        /* \"projects/crypto/web3bets_smartcontract/contracts/BetsFactory.sol\":657:786  function getAllBetsByAddress(address _address) external view returns (address[] memory){... */\n    tag_14:\n        /* \"projects/crypto/web3bets_smartcontract/contracts/BetsFactory.sol\":727:743  address[] memory */\n      0x60\n        /* \"projects/crypto/web3bets_smartcontract/contracts/BetsFactory.sol\":761:769  userBets */\n      0x00\n        /* \"projects/crypto/web3bets_smartcontract/contracts/BetsFactory.sol\":761:779  userBets[_address] */\n      dup1\n        /* \"projects/crypto/web3bets_smartcontract/contracts/BetsFactory.sol\":770:778  _address */\n      dup4\n        /* \"projects/crypto/web3bets_smartcontract/contracts/BetsFactory.sol\":761:779  userBets[_address] */\n      0xffffffffffffffffffffffffffffffffffffffff\n      and\n      0xffffffffffffffffffffffffffffffffffffffff\n      and\n      dup2\n      mstore\n      0x20\n      add\n      swap1\n      dup2\n      mstore\n      0x20\n      add\n      0x00\n      keccak256\n        /* \"projects/crypto/web3bets_smartcontract/contracts/BetsFactory.sol\":754:779  return userBets[_address] */\n      dup1\n      sload\n      dup1\n      0x20\n      mul\n      0x20\n      add\n      mload(0x40)\n      swap1\n      dup2\n      add\n      0x40\n      mstore\n      dup1\n      swap3\n      swap2\n      swap1\n      dup2\n      dup2\n      mstore\n      0x20\n      add\n      dup3\n      dup1\n      sload\n      dup1\n      iszero\n      tag_27\n      jumpi\n      0x20\n      mul\n      dup3\n      add\n      swap2\n      swap1\n      0x00\n      mstore\n      keccak256(0x00, 0x20)\n      swap1\n    tag_28:\n      dup2\n      0x00\n      swap1\n      sload\n      swap1\n      0x0100\n      exp\n      swap1\n      div\n      0xffffffffffffffffffffffffffffffffffffffff\n      and\n      0xffffffffffffffffffffffffffffffffffffffff\n      and\n      dup2\n      mstore\n      0x20\n      add\n      swap1\n      0x01\n      add\n      swap1\n      dup1\n      dup4\n      gt\n      tag_28\n      jumpi\n    tag_27:\n      pop\n      pop\n      pop\n      pop\n      pop\n      swap1\n      pop\n        /* \"projects/crypto/web3bets_smartcontract/contracts/BetsFactory.sol\":657:786  function getAllBetsByAddress(address _address) external view returns (address[] memory){... */\n      swap2\n      swap1\n      pop\n      jump\t// out\n    tag_19:\n      dataSize(sub_0)\n      dup1\n      dataOffset(sub_0)\n      dup4\n      codecopy\n      add\n      swap1\n      jump\t// out\n        /* \"#utility.yul\":7:146   */\n    tag_30:\n        /* \"#utility.yul\":53:58   */\n      0x00\n        /* \"#utility.yul\":91:97   */\n      dup2\n        /* \"#utility.yul\":78:98   */\n      calldataload\n        /* \"#utility.yul\":69:98   */\n      swap1\n      pop\n        /* \"#utility.yul\":107:140   */\n      tag_32\n        /* \"#utility.yul\":134:139   */\n      dup2\n        /* \"#utility.yul\":107:140   */\n      tag_33\n      jump\t// in\n    tag_32:\n        /* \"#utility.yul\":7:146   */\n      swap3\n      swap2\n      pop\n      pop\n      jump\t// out\n        /* \"#utility.yul\":152:291   */\n    tag_34:\n        /* \"#utility.yul\":198:203   */\n      0x00\n        /* \"#utility.yul\":236:242   */\n      dup2\n        /* \"#utility.yul\":223:243   */\n      calldataload\n        /* \"#utility.yul\":214:243   */\n      swap1\n      pop\n        /* \"#utility.yul\":252:285   */\n      tag_36\n        /* \"#utility.yul\":279:284   */\n      dup2\n        /* \"#utility.yul\":252:285   */\n      tag_37\n      jump\t// in\n    tag_36:\n        /* \"#utility.yul\":152:291   */\n      swap3\n      swap2\n      pop\n      pop\n      jump\t// out\n        /* \"#utility.yul\":297:626   */\n    tag_13:\n        /* \"#utility.yul\":356:362   */\n      0x00\n        /* \"#utility.yul\":405:407   */\n      0x20\n        /* \"#utility.yul\":393:402   */\n      dup3\n        /* \"#utility.yul\":384:391   */\n      dup5\n        /* \"#utility.yul\":380:403   */\n      sub\n        /* \"#utility.yul\":376:408   */\n      slt\n        /* \"#utility.yul\":373:492   */\n      iszero\n      tag_39\n      jumpi\n        /* \"#utility.yul\":411:490   */\n      tag_40\n      tag_41\n      jump\t// in\n    tag_40:\n        /* \"#utility.yul\":373:492   */\n    tag_39:\n        /* \"#utility.yul\":531:532   */\n      0x00\n        /* \"#utility.yul\":556:609   */\n      tag_42\n        /* \"#utility.yul\":601:608   */\n      dup5\n        /* \"#utility.yul\":592:598   */\n      dup3\n        /* \"#utility.yul\":581:590   */\n      dup6\n        /* \"#utility.yul\":577:599   */\n      add\n        /* \"#utility.yul\":556:609   */\n      tag_30\n      jump\t// in\n    tag_42:\n        /* \"#utility.yul\":546:609   */\n      swap2\n      pop\n        /* \"#utility.yul\":502:619   */\n      pop\n        /* \"#utility.yul\":297:626   */\n      swap3\n      swap2\n      pop\n      pop\n      jump\t// out\n        /* \"#utility.yul\":632:1397   */\n    tag_7:\n        /* \"#utility.yul\":718:724   */\n      0x00\n        /* \"#utility.yul\":726:732   */\n      dup1\n        /* \"#utility.yul\":734:740   */\n      0x00\n        /* \"#utility.yul\":742:748   */\n      dup1\n        /* \"#utility.yul\":791:794   */\n      0x80\n        /* \"#utility.yul\":779:788   */\n      dup6\n        /* \"#utility.yul\":770:777   */\n      dup8\n        /* \"#utility.yul\":766:789   */\n      sub\n        /* \"#utility.yul\":762:795   */\n      slt\n        /* \"#utility.yul\":759:879   */\n      iszero\n      tag_44\n      jumpi\n        /* \"#utility.yul\":798:877   */\n      tag_45\n      tag_41\n      jump\t// in\n    tag_45:\n        /* \"#utility.yul\":759:879   */\n    tag_44:\n        /* \"#utility.yul\":918:919   */\n      0x00\n        /* \"#utility.yul\":943:996   */\n      tag_46\n        /* \"#utility.yul\":988:995   */\n      dup8\n        /* \"#utility.yul\":979:985   */\n      dup3\n        /* \"#utility.yul\":968:977   */\n      dup9\n        /* \"#utility.yul\":964:986   */\n      add\n        /* \"#utility.yul\":943:996   */\n      tag_30\n      jump\t// in\n    tag_46:\n        /* \"#utility.yul\":933:996   */\n      swap5\n      pop\n        /* \"#utility.yul\":889:1006   */\n      pop\n        /* \"#utility.yul\":1045:1047   */\n      0x20\n        /* \"#utility.yul\":1071:1124   */\n      tag_47\n        /* \"#utility.yul\":1116:1123   */\n      dup8\n        /* \"#utility.yul\":1107:1113   */\n      dup3\n        /* \"#utility.yul\":1096:1105   */\n      dup9\n        /* \"#utility.yul\":1092:1114   */\n      add\n        /* \"#utility.yul\":1071:1124   */\n      tag_30\n      jump\t// in\n    tag_47:\n        /* \"#utility.yul\":1061:1124   */\n      swap4\n      pop\n        /* \"#utility.yul\":1016:1134   */\n      pop\n        /* \"#utility.yul\":1173:1175   */\n      0x40\n        /* \"#utility.yul\":1199:1252   */\n      tag_48\n        /* \"#utility.yul\":1244:1251   */\n      dup8\n        /* \"#utility.yul\":1235:1241   */\n      dup3\n        /* \"#utility.yul\":1224:1233   */\n      dup9\n        /* \"#utility.yul\":1220:1242   */\n      add\n        /* \"#utility.yul\":1199:1252   */\n      tag_30\n      jump\t// in\n    tag_48:\n        /* \"#utility.yul\":1189:1252   */\n      swap3\n      pop\n        /* \"#utility.yul\":1144:1262   */\n      pop\n        /* \"#utility.yul\":1301:1303   */\n      0x60\n        /* \"#utility.yul\":1327:1380   */\n      tag_49\n        /* \"#utility.yul\":1372:1379   */\n      dup8\n        /* \"#utility.yul\":1363:1369   */\n      dup3\n        /* \"#utility.yul\":1352:1361   */\n      dup9\n        /* \"#utility.yul\":1348:1370   */\n      add\n        /* \"#utility.yul\":1327:1380   */\n      tag_34\n      jump\t// in\n    tag_49:\n        /* \"#utility.yul\":1317:1380   */\n      swap2\n      pop\n        /* \"#utility.yul\":1272:1390   */\n      pop\n        /* \"#utility.yul\":632:1397   */\n      swap3\n      swap6\n      swap2\n      swap5\n      pop\n      swap3\n      pop\n      jump\t// out\n        /* \"#utility.yul\":1403:1582   */\n    tag_50:\n        /* \"#utility.yul\":1472:1482   */\n      0x00\n        /* \"#utility.yul\":1493:1539   */\n      tag_52\n        /* \"#utility.yul\":1535:1538   */\n      dup4\n        /* \"#utility.yul\":1527:1533   */\n      dup4\n        /* \"#utility.yul\":1493:1539   */\n      tag_53\n      jump\t// in\n    tag_52:\n        /* \"#utility.yul\":1571:1575   */\n      0x20\n        /* \"#utility.yul\":1566:1569   */\n      dup4\n        /* \"#utility.yul\":1562:1576   */\n      add\n        /* \"#utility.yul\":1548:1576   */\n      swap1\n      pop\n        /* \"#utility.yul\":1403:1582   */\n      swap3\n      swap2\n      pop\n      pop\n      jump\t// out\n        /* \"#utility.yul\":1588:1696   */\n    tag_53:\n        /* \"#utility.yul\":1665:1689   */\n      tag_55\n        /* \"#utility.yul\":1683:1688   */\n      dup2\n        /* \"#utility.yul\":1665:1689   */\n      tag_56\n      jump\t// in\n    tag_55:\n        /* \"#utility.yul\":1660:1663   */\n      dup3\n        /* \"#utility.yul\":1653:1690   */\n      mstore\n        /* \"#utility.yul\":1588:1696   */\n      pop\n      pop\n      jump\t// out\n        /* \"#utility.yul\":1702:1820   */\n    tag_57:\n        /* \"#utility.yul\":1789:1813   */\n      tag_59\n        /* \"#utility.yul\":1807:1812   */\n      dup2\n        /* \"#utility.yul\":1789:1813   */\n      tag_56\n      jump\t// in\n    tag_59:\n        /* \"#utility.yul\":1784:1787   */\n      dup3\n        /* \"#utility.yul\":1777:1814   */\n      mstore\n        /* \"#utility.yul\":1702:1820   */\n      pop\n      pop\n      jump\t// out\n        /* \"#utility.yul\":1856:2588   */\n    tag_60:\n        /* \"#utility.yul\":1975:1978   */\n      0x00\n        /* \"#utility.yul\":2004:2058   */\n      tag_62\n        /* \"#utility.yul\":2052:2057   */\n      dup3\n        /* \"#utility.yul\":2004:2058   */\n      tag_63\n      jump\t// in\n    tag_62:\n        /* \"#utility.yul\":2074:2160   */\n      tag_64\n        /* \"#utility.yul\":2153:2159   */\n      dup2\n        /* \"#utility.yul\":2148:2151   */\n      dup6\n        /* \"#utility.yul\":2074:2160   */\n      tag_65\n      jump\t// in\n    tag_64:\n        /* \"#utility.yul\":2067:2160   */\n      swap4\n      pop\n        /* \"#utility.yul\":2184:2240   */\n      tag_66\n        /* \"#utility.yul\":2234:2239   */\n      dup4\n        /* \"#utility.yul\":2184:2240   */\n      tag_67\n      jump\t// in\n    tag_66:\n        /* \"#utility.yul\":2263:2270   */\n      dup1\n        /* \"#utility.yul\":2294:2295   */\n      0x00\n        /* \"#utility.yul\":2279:2563   */\n    tag_68:\n        /* \"#utility.yul\":2304:2310   */\n      dup4\n        /* \"#utility.yul\":2301:2302   */\n      dup2\n        /* \"#utility.yul\":2298:2311   */\n      lt\n        /* \"#utility.yul\":2279:2563   */\n      iszero\n      tag_70\n      jumpi\n        /* \"#utility.yul\":2380:2386   */\n      dup2\n        /* \"#utility.yul\":2374:2387   */\n      mload\n        /* \"#utility.yul\":2407:2470   */\n      tag_71\n        /* \"#utility.yul\":2466:2469   */\n      dup9\n        /* \"#utility.yul\":2451:2464   */\n      dup3\n        /* \"#utility.yul\":2407:2470   */\n      tag_50\n      jump\t// in\n    tag_71:\n        /* \"#utility.yul\":2400:2470   */\n      swap8\n      pop\n        /* \"#utility.yul\":2493:2553   */\n      tag_72\n        /* \"#utility.yul\":2546:2552   */\n      dup4\n        /* \"#utility.yul\":2493:2553   */\n      tag_73\n      jump\t// in\n    tag_72:\n        /* \"#utility.yul\":2483:2553   */\n      swap3\n      pop\n        /* \"#utility.yul\":2339:2563   */\n      pop\n        /* \"#utility.yul\":2326:2327   */\n      0x01\n        /* \"#utility.yul\":2323:2324   */\n      dup2\n        /* \"#utility.yul\":2319:2328   */\n      add\n        /* \"#utility.yul\":2314:2328   */\n      swap1\n      pop\n        /* \"#utility.yul\":2279:2563   */\n      jump(tag_68)\n    tag_70:\n        /* \"#utility.yul\":2283:2297   */\n      pop\n        /* \"#utility.yul\":2579:2582   */\n      dup6\n        /* \"#utility.yul\":2572:2582   */\n      swap4\n      pop\n        /* \"#utility.yul\":1980:2588   */\n      pop\n      pop\n      pop\n        /* \"#utility.yul\":1856:2588   */\n      swap3\n      swap2\n      pop\n      pop\n      jump\t// out\n        /* \"#utility.yul\":2594:2712   */\n    tag_74:\n        /* \"#utility.yul\":2681:2705   */\n      tag_76\n        /* \"#utility.yul\":2699:2704   */\n      dup2\n        /* \"#utility.yul\":2681:2705   */\n      tag_77\n      jump\t// in\n    tag_76:\n        /* \"#utility.yul\":2676:2679   */\n      dup3\n        /* \"#utility.yul\":2669:2706   */\n      mstore\n        /* \"#utility.yul\":2594:2712   */\n      pop\n      pop\n      jump\t// out\n        /* \"#utility.yul\":2718:2940   */\n    tag_10:\n        /* \"#utility.yul\":2811:2815   */\n      0x00\n        /* \"#utility.yul\":2849:2851   */\n      0x20\n        /* \"#utility.yul\":2838:2847   */\n      dup3\n        /* \"#utility.yul\":2834:2852   */\n      add\n        /* \"#utility.yul\":2826:2852   */\n      swap1\n      pop\n        /* \"#utility.yul\":2862:2933   */\n      tag_79\n        /* \"#utility.yul\":2930:2931   */\n      0x00\n        /* \"#utility.yul\":2919:2928   */\n      dup4\n        /* \"#utility.yul\":2915:2932   */\n      add\n        /* \"#utility.yul\":2906:2912   */\n      dup5\n        /* \"#utility.yul\":2862:2933   */\n      tag_57\n      jump\t// in\n    tag_79:\n        /* \"#utility.yul\":2718:2940   */\n      swap3\n      swap2\n      pop\n      pop\n      jump\t// out\n        /* \"#utility.yul\":2946:3610   */\n    tag_25:\n        /* \"#utility.yul\":3151:3155   */\n      0x00\n        /* \"#utility.yul\":3189:3192   */\n      0xa0\n        /* \"#utility.yul\":3178:3187   */\n      dup3\n        /* \"#utility.yul\":3174:3193   */\n      add\n        /* \"#utility.yul\":3166:3193   */\n      swap1\n      pop\n        /* \"#utility.yul\":3203:3274   */\n      tag_81\n        /* \"#utility.yul\":3271:3272   */\n      0x00\n        /* \"#utility.yul\":3260:3269   */\n      dup4\n        /* \"#utility.yul\":3256:3273   */\n      add\n        /* \"#utility.yul\":3247:3253   */\n      dup9\n        /* \"#utility.yul\":3203:3274   */\n      tag_57\n      jump\t// in\n    tag_81:\n        /* \"#utility.yul\":3284:3356   */\n      tag_82\n        /* \"#utility.yul\":3352:3354   */\n      0x20\n        /* \"#utility.yul\":3341:3350   */\n      dup4\n        /* \"#utility.yul\":3337:3355   */\n      add\n        /* \"#utility.yul\":3328:3334   */\n      dup8\n        /* \"#utility.yul\":3284:3356   */\n      tag_57\n      jump\t// in\n    tag_82:\n        /* \"#utility.yul\":3366:3438   */\n      tag_83\n        /* \"#utility.yul\":3434:3436   */\n      0x40\n        /* \"#utility.yul\":3423:3432   */\n      dup4\n        /* \"#utility.yul\":3419:3437   */\n      add\n        /* \"#utility.yul\":3410:3416   */\n      dup7\n        /* \"#utility.yul\":3366:3438   */\n      tag_57\n      jump\t// in\n    tag_83:\n        /* \"#utility.yul\":3448:3520   */\n      tag_84\n        /* \"#utility.yul\":3516:3518   */\n      0x60\n        /* \"#utility.yul\":3505:3514   */\n      dup4\n        /* \"#utility.yul\":3501:3519   */\n      add\n        /* \"#utility.yul\":3492:3498   */\n      dup6\n        /* \"#utility.yul\":3448:3520   */\n      tag_57\n      jump\t// in\n    tag_84:\n        /* \"#utility.yul\":3530:3603   */\n      tag_85\n        /* \"#utility.yul\":3598:3601   */\n      0x80\n        /* \"#utility.yul\":3587:3596   */\n      dup4\n        /* \"#utility.yul\":3583:3602   */\n      add\n        /* \"#utility.yul\":3574:3580   */\n      dup5\n        /* \"#utility.yul\":3530:3603   */\n      tag_74\n      jump\t// in\n    tag_85:\n        /* \"#utility.yul\":2946:3610   */\n      swap7\n      swap6\n      pop\n      pop\n      pop\n      pop\n      pop\n      pop\n      jump\t// out\n        /* \"#utility.yul\":3616:4169   */\n    tag_21:\n        /* \"#utility.yul\":3793:3797   */\n      0x00\n        /* \"#utility.yul\":3831:3834   */\n      0x80\n        /* \"#utility.yul\":3820:3829   */\n      dup3\n        /* \"#utility.yul\":3816:3835   */\n      add\n        /* \"#utility.yul\":3808:3835   */\n      swap1\n      pop\n        /* \"#utility.yul\":3845:3916   */\n      tag_87\n        /* \"#utility.yul\":3913:3914   */\n      0x00\n        /* \"#utility.yul\":3902:3911   */\n      dup4\n        /* \"#utility.yul\":3898:3915   */\n      add\n        /* \"#utility.yul\":3889:3895   */\n      dup8\n        /* \"#utility.yul\":3845:3916   */\n      tag_57\n      jump\t// in\n    tag_87:\n        /* \"#utility.yul\":3926:3998   */\n      tag_88\n        /* \"#utility.yul\":3994:3996   */\n      0x20\n        /* \"#utility.yul\":3983:3992   */\n      dup4\n        /* \"#utility.yul\":3979:3997   */\n      add\n        /* \"#utility.yul\":3970:3976   */\n      dup7\n        /* \"#utility.yul\":3926:3998   */\n      tag_57\n      jump\t// in\n    tag_88:\n        /* \"#utility.yul\":4008:4080   */\n      tag_89\n        /* \"#utility.yul\":4076:4078   */\n      0x40\n        /* \"#utility.yul\":4065:4074   */\n      dup4\n        /* \"#utility.yul\":4061:4079   */\n      add\n        /* \"#utility.yul\":4052:4058   */\n      dup6\n        /* \"#utility.yul\":4008:4080   */\n      tag_57\n      jump\t// in\n    tag_89:\n        /* \"#utility.yul\":4090:4162   */\n      tag_90\n        /* \"#utility.yul\":4158:4160   */\n      0x60\n        /* \"#utility.yul\":4147:4156   */\n      dup4\n        /* \"#utility.yul\":4143:4161   */\n      add\n        /* \"#utility.yul\":4134:4140   */\n      dup5\n        /* \"#utility.yul\":4090:4162   */\n      tag_74\n      jump\t// in\n    tag_90:\n        /* \"#utility.yul\":3616:4169   */\n      swap6\n      swap5\n      pop\n      pop\n      pop\n      pop\n      pop\n      jump\t// out\n        /* \"#utility.yul\":4175:4548   */\n    tag_16:\n        /* \"#utility.yul\":4318:4322   */\n      0x00\n        /* \"#utility.yul\":4356:4358   */\n      0x20\n        /* \"#utility.yul\":4345:4354   */\n      dup3\n        /* \"#utility.yul\":4341:4359   */\n      add\n        /* \"#utility.yul\":4333:4359   */\n      swap1\n      pop\n        /* \"#utility.yul\":4405:4414   */\n      dup2\n        /* \"#utility.yul\":4399:4403   */\n      dup2\n        /* \"#utility.yul\":4395:4415   */\n      sub\n        /* \"#utility.yul\":4391:4392   */\n      0x00\n        /* \"#utility.yul\":4380:4389   */\n      dup4\n        /* \"#utility.yul\":4376:4393   */\n      add\n        /* \"#utility.yul\":4369:4416   */\n      mstore\n        /* \"#utility.yul\":4433:4541   */\n      tag_92\n        /* \"#utility.yul\":4536:4540   */\n      dup2\n        /* \"#utility.yul\":4527:4533   */\n      dup5\n        /* \"#utility.yul\":4433:4541   */\n      tag_60\n      jump\t// in\n    tag_92:\n        /* \"#utility.yul\":4425:4541   */\n      swap1\n      pop\n        /* \"#utility.yul\":4175:4548   */\n      swap3\n      swap2\n      pop\n      pop\n      jump\t// out\n        /* \"#utility.yul\":4635:4767   */\n    tag_67:\n        /* \"#utility.yul\":4702:4706   */\n      0x00\n        /* \"#utility.yul\":4725:4728   */\n      dup2\n        /* \"#utility.yul\":4717:4728   */\n      swap1\n      pop\n        /* \"#utility.yul\":4755:4759   */\n      0x20\n        /* \"#utility.yul\":4750:4753   */\n      dup3\n        /* \"#utility.yul\":4746:4760   */\n      add\n        /* \"#utility.yul\":4738:4760   */\n      swap1\n      pop\n        /* \"#utility.yul\":4635:4767   */\n      swap2\n      swap1\n      pop\n      jump\t// out\n        /* \"#utility.yul\":4773:4887   */\n    tag_63:\n        /* \"#utility.yul\":4840:4846   */\n      0x00\n        /* \"#utility.yul\":4874:4879   */\n      dup2\n        /* \"#utility.yul\":4868:4880   */\n      mload\n        /* \"#utility.yul\":4858:4880   */\n      swap1\n      pop\n        /* \"#utility.yul\":4773:4887   */\n      swap2\n      swap1\n      pop\n      jump\t// out\n        /* \"#utility.yul\":4893:5006   */\n    tag_73:\n        /* \"#utility.yul\":4963:4967   */\n      0x00\n        /* \"#utility.yul\":4995:4999   */\n      0x20\n        /* \"#utility.yul\":4990:4993   */\n      dup3\n        /* \"#utility.yul\":4986:5000   */\n      add\n        /* \"#utility.yul\":4978:5000   */\n      swap1\n      pop\n        /* \"#utility.yul\":4893:5006   */\n      swap2\n      swap1\n      pop\n      jump\t// out\n        /* \"#utility.yul\":5012:5196   */\n    tag_65:\n        /* \"#utility.yul\":5111:5122   */\n      0x00\n        /* \"#utility.yul\":5145:5151   */\n      dup3\n        /* \"#utility.yul\":5140:5143   */\n      dup3\n        /* \"#utility.yul\":5133:5152   */\n      mstore\n        /* \"#utility.yul\":5185:5189   */\n      0x20\n        /* \"#utility.yul\":5180:5183   */\n      dup3\n        /* \"#utility.yul\":5176:5190   */\n      add\n        /* \"#utility.yul\":5161:5190   */\n      swap1\n      pop\n        /* \"#utility.yul\":5012:5196   */\n      swap3\n      swap2\n      pop\n      pop\n      jump\t// out\n        /* \"#utility.yul\":5202:5298   */\n    tag_56:\n        /* \"#utility.yul\":5239:5246   */\n      0x00\n        /* \"#utility.yul\":5268:5292   */\n      tag_100\n        /* \"#utility.yul\":5286:5291   */\n      dup3\n        /* \"#utility.yul\":5268:5292   */\n      tag_101\n      jump\t// in\n    tag_100:\n        /* \"#utility.yul\":5257:5292   */\n      swap1\n      pop\n        /* \"#utility.yul\":5202:5298   */\n      swap2\n      swap1\n      pop\n      jump\t// out\n        /* \"#utility.yul\":5304:5430   */\n    tag_101:\n        /* \"#utility.yul\":5341:5348   */\n      0x00\n        /* \"#utility.yul\":5381:5423   */\n      0xffffffffffffffffffffffffffffffffffffffff\n        /* \"#utility.yul\":5374:5379   */\n      dup3\n        /* \"#utility.yul\":5370:5424   */\n      and\n        /* \"#utility.yul\":5359:5424   */\n      swap1\n      pop\n        /* \"#utility.yul\":5304:5430   */\n      swap2\n      swap1\n      pop\n      jump\t// out\n        /* \"#utility.yul\":5436:5513   */\n    tag_77:\n        /* \"#utility.yul\":5473:5480   */\n      0x00\n        /* \"#utility.yul\":5502:5507   */\n      dup2\n        /* \"#utility.yul\":5491:5507   */\n      swap1\n      pop\n        /* \"#utility.yul\":5436:5513   */\n      swap2\n      swap1\n      pop\n      jump\t// out\n        /* \"#utility.yul\":5642:5759   */\n    tag_41:\n        /* \"#utility.yul\":5751:5752   */\n      0x00\n        /* \"#utility.yul\":5748:5749   */\n      dup1\n        /* \"#utility.yul\":5741:5753   */\n      revert\n        /* \"#utility.yul\":5765:5887   */\n    tag_33:\n        /* \"#utility.yul\":5838:5862   */\n      tag_108\n        /* \"#utility.yul\":5856:5861   */\n      dup2\n        /* \"#utility.yul\":5838:5862   */\n      tag_56\n      jump\t// in\n    tag_108:\n        /* \"#utility.yul\":5831:5836   */\n      dup2\n        /* \"#utility.yul\":5828:5863   */\n      eq\n        /* \"#utility.yul\":5818:5881   */\n      tag_109\n      jumpi\n        /* \"#utility.yul\":5877:5878   */\n      0x00\n        /* \"#utility.yul\":5874:5875   */\n      dup1\n        /* \"#utility.yul\":5867:5879   */\n      revert\n        /* \"#utility.yul\":5818:5881   */\n    tag_109:\n        /* \"#utility.yul\":5765:5887   */\n      pop\n      jump\t// out\n        /* \"#utility.yul\":5893:6015   */\n    tag_37:\n        /* \"#utility.yul\":5966:5990   */\n      tag_111\n        /* \"#utility.yul\":5984:5989   */\n      dup2\n        /* \"#utility.yul\":5966:5990   */\n      tag_77\n      jump\t// in\n    tag_111:\n        /* \"#utility.yul\":5959:5964   */\n      dup2\n        /* \"#utility.yul\":5956:5991   */\n      eq\n        /* \"#utility.yul\":5946:6009   */\n      tag_112\n      jumpi\n        /* \"#utility.yul\":6005:6006   */\n      0x00\n        /* \"#utility.yul\":6002:6003   */\n      dup1\n        /* \"#utility.yul\":5995:6007   */\n      revert\n        /* \"#utility.yul\":5946:6009   */\n    tag_112:\n        /* \"#utility.yul\":5893:6015   */\n      pop\n      jump\t// out\n    stop\n\n    sub_0: assembly {\n            /* \"projects/crypto/web3bets_smartcontract/contracts/Bets.sol\":369:3686  contract Bets is IWeb3BetsBetsV1 {... */\n          mstore(0x40, 0x80)\n            /* \"projects/crypto/web3bets_smartcontract/contracts/Bets.sol\":535:536  0 */\n          0x00\n            /* \"projects/crypto/web3bets_smartcontract/contracts/Bets.sol\":505:536  uint private statusSetCount = 0 */\n          0x03\n          sstore\n            /* \"projects/crypto/web3bets_smartcontract/contracts/Bets.sol\":598:615  BetStatus.PENDING */\n          0x00\n            /* \"projects/crypto/web3bets_smartcontract/contracts/Bets.sol\":576:615  BetStatus betStatus = BetStatus.PENDING */\n          0x04\n          exp(0x0100, 0x14)\n          dup2\n          sload\n          dup2\n          0xff\n          mul\n          not\n          and\n          swap1\n          dup4\n          0x03\n          dup2\n          gt\n          iszero\n          tag_1\n          jumpi\n          tag_2\n          tag_3\n          jump\t// in\n        tag_2:\n        tag_1:\n          mul\n          or\n          swap1\n          sstore\n          pop\n            /* \"projects/crypto/web3bets_smartcontract/contracts/Bets.sol\":1268:1577  constructor(... */\n          callvalue\n          dup1\n          iszero\n          tag_4\n          jumpi\n          0x00\n          dup1\n          revert\n        tag_4:\n          pop\n          mload(0x40)\n          sub(codesize, bytecodeSize)\n          dup1\n          bytecodeSize\n          dup4\n          codecopy\n          dup2\n          dup2\n          add\n          0x40\n          mstore\n          dup2\n          add\n          swap1\n          tag_5\n          swap2\n          swap1\n          tag_6\n          jump\t// in\n        tag_5:\n            /* \"projects/crypto/web3bets_smartcontract/contracts/Bets.sol\":1428:1441  _eventAddress */\n          dup4\n            /* \"projects/crypto/web3bets_smartcontract/contracts/Bets.sol\":1413:1425  eventAddress */\n          0x01\n          0x00\n            /* \"projects/crypto/web3bets_smartcontract/contracts/Bets.sol\":1413:1441  eventAddress = _eventAddress */\n          0x0100\n          exp\n          dup2\n          sload\n          dup2\n          0xffffffffffffffffffffffffffffffffffffffff\n          mul\n          not\n          and\n          swap1\n          dup4\n          0xffffffffffffffffffffffffffffffffffffffff\n          and\n          mul\n          or\n          swap1\n          sstore\n          pop\n            /* \"projects/crypto/web3bets_smartcontract/contracts/Bets.sol\":1467:1481  _marketAddress */\n          dup3\n            /* \"projects/crypto/web3bets_smartcontract/contracts/Bets.sol\":1451:1464  marketAddress */\n          0x02\n          0x00\n            /* \"projects/crypto/web3bets_smartcontract/contracts/Bets.sol\":1451:1481  marketAddress = _marketAddress */\n          0x0100\n          exp\n          dup2\n          sload\n          dup2\n          0xffffffffffffffffffffffffffffffffffffffff\n          mul\n          not\n          and\n          swap1\n          dup4\n          0xffffffffffffffffffffffffffffffffffffffff\n          and\n          mul\n          or\n          swap1\n          sstore\n          pop\n            /* \"projects/crypto/web3bets_smartcontract/contracts/Bets.sol\":1499:1505  _stake */\n          dup1\n            /* \"projects/crypto/web3bets_smartcontract/contracts/Bets.sol\":1491:1496  stake */\n          0x05\n            /* \"projects/crypto/web3bets_smartcontract/contracts/Bets.sol\":1491:1505  stake = _stake */\n          dup2\n          swap1\n          sstore\n          pop\n            /* \"projects/crypto/web3bets_smartcontract/contracts/Bets.sol\":1524:1534  msg.sender */\n          caller\n            /* \"projects/crypto/web3bets_smartcontract/contracts/Bets.sol\":1515:1521  better */\n          0x00\n          dup1\n            /* \"projects/crypto/web3bets_smartcontract/contracts/Bets.sol\":1515:1534  better = msg.sender */\n          0x0100\n          exp\n          dup2\n          sload\n          dup2\n          0xffffffffffffffffffffffffffffffffffffffff\n          mul\n          not\n          and\n          swap1\n          dup4\n          0xffffffffffffffffffffffffffffffffffffffff\n          and\n          mul\n          or\n          swap1\n          sstore\n          pop\n            /* \"projects/crypto/web3bets_smartcontract/contracts/Bets.sol\":1558:1570  _poolAddress */\n          dup2\n            /* \"projects/crypto/web3bets_smartcontract/contracts/Bets.sol\":1544:1555  poolAddress */\n          0x04\n          0x00\n            /* \"projects/crypto/web3bets_smartcontract/contracts/Bets.sol\":1544:1570  poolAddress = _poolAddress */\n          0x0100\n          exp\n          dup2\n          sload\n          dup2\n          0xffffffffffffffffffffffffffffffffffffffff\n          mul\n          not\n          and\n          swap1\n          dup4\n          0xffffffffffffffffffffffffffffffffffffffff\n          and\n          mul\n          or\n          swap1\n          sstore\n          pop\n            /* \"projects/crypto/web3bets_smartcontract/contracts/Bets.sol\":1268:1577  constructor(... */\n          pop\n          pop\n          pop\n          pop\n            /* \"projects/crypto/web3bets_smartcontract/contracts/Bets.sol\":369:3686  contract Bets is IWeb3BetsBetsV1 {... */\n          jump(tag_9)\n            /* \"#utility.yul\":7:150   */\n        tag_11:\n            /* \"#utility.yul\":64:69   */\n          0x00\n            /* \"#utility.yul\":95:101   */\n          dup2\n            /* \"#utility.yul\":89:102   */\n          mload\n            /* \"#utility.yul\":80:102   */\n          swap1\n          pop\n            /* \"#utility.yul\":111:144   */\n          tag_13\n            /* \"#utility.yul\":138:143   */\n          dup2\n            /* \"#utility.yul\":111:144   */\n          tag_14\n          jump\t// in\n        tag_13:\n            /* \"#utility.yul\":7:150   */\n          swap3\n          swap2\n          pop\n          pop\n          jump\t// out\n            /* \"#utility.yul\":156:299   */\n        tag_15:\n            /* \"#utility.yul\":213:218   */\n          0x00\n            /* \"#utility.yul\":244:250   */\n          dup2\n            /* \"#utility.yul\":238:251   */\n          mload\n            /* \"#utility.yul\":229:251   */\n          swap1\n          pop\n            /* \"#utility.yul\":260:293   */\n          tag_17\n            /* \"#utility.yul\":287:292   */\n          dup2\n            /* \"#utility.yul\":260:293   */\n          tag_18\n          jump\t// in\n        tag_17:\n            /* \"#utility.yul\":156:299   */\n          swap3\n          swap2\n          pop\n          pop\n          jump\t// out\n            /* \"#utility.yul\":305:1125   */\n        tag_6:\n            /* \"#utility.yul\":402:408   */\n          0x00\n            /* \"#utility.yul\":410:416   */\n          dup1\n            /* \"#utility.yul\":418:424   */\n          0x00\n            /* \"#utility.yul\":426:432   */\n          dup1\n            /* \"#utility.yul\":475:478   */\n          0x80\n            /* \"#utility.yul\":463:472   */\n          dup6\n            /* \"#utility.yul\":454:461   */\n          dup8\n            /* \"#utility.yul\":450:473   */\n          sub\n            /* \"#utility.yul\":446:479   */\n          slt\n            /* \"#utility.yul\":443:563   */\n          iszero\n          tag_20\n          jumpi\n            /* \"#utility.yul\":482:561   */\n          tag_21\n          tag_22\n          jump\t// in\n        tag_21:\n            /* \"#utility.yul\":443:563   */\n        tag_20:\n            /* \"#utility.yul\":602:603   */\n          0x00\n            /* \"#utility.yul\":627:691   */\n          tag_23\n            /* \"#utility.yul\":683:690   */\n          dup8\n            /* \"#utility.yul\":674:680   */\n          dup3\n            /* \"#utility.yul\":663:672   */\n          dup9\n            /* \"#utility.yul\":659:681   */\n          add\n            /* \"#utility.yul\":627:691   */\n          tag_11\n          jump\t// in\n        tag_23:\n            /* \"#utility.yul\":617:691   */\n          swap5\n          pop\n            /* \"#utility.yul\":573:701   */\n          pop\n            /* \"#utility.yul\":740:742   */\n          0x20\n            /* \"#utility.yul\":766:830   */\n          tag_24\n            /* \"#utility.yul\":822:829   */\n          dup8\n            /* \"#utility.yul\":813:819   */\n          dup3\n            /* \"#utility.yul\":802:811   */\n          dup9\n            /* \"#utility.yul\":798:820   */\n          add\n            /* \"#utility.yul\":766:830   */\n          tag_11\n          jump\t// in\n        tag_24:\n            /* \"#utility.yul\":756:830   */\n          swap4\n          pop\n            /* \"#utility.yul\":711:840   */\n          pop\n            /* \"#utility.yul\":879:881   */\n          0x40\n            /* \"#utility.yul\":905:969   */\n          tag_25\n            /* \"#utility.yul\":961:968   */\n          dup8\n            /* \"#utility.yul\":952:958   */\n          dup3\n            /* \"#utility.yul\":941:950   */\n          dup9\n            /* \"#utility.yul\":937:959   */\n          add\n            /* \"#utility.yul\":905:969   */\n          tag_11\n          jump\t// in\n        tag_25:\n            /* \"#utility.yul\":895:969   */\n          swap3\n          pop\n            /* \"#utility.yul\":850:979   */\n          pop\n            /* \"#utility.yul\":1018:1020   */\n          0x60\n            /* \"#utility.yul\":1044:1108   */\n          tag_26\n            /* \"#utility.yul\":1100:1107   */\n          dup8\n            /* \"#utility.yul\":1091:1097   */\n          dup3\n            /* \"#utility.yul\":1080:1089   */\n          dup9\n            /* \"#utility.yul\":1076:1098   */\n          add\n            /* \"#utility.yul\":1044:1108   */\n          tag_15\n          jump\t// in\n        tag_26:\n            /* \"#utility.yul\":1034:1108   */\n          swap2\n          pop\n            /* \"#utility.yul\":989:1118   */\n          pop\n            /* \"#utility.yul\":305:1125   */\n          swap3\n          swap6\n          swap2\n          swap5\n          pop\n          swap3\n          pop\n          jump\t// out\n            /* \"#utility.yul\":1212:1308   */\n        tag_29:\n            /* \"#utility.yul\":1249:1256   */\n          0x00\n            /* \"#utility.yul\":1278:1302   */\n          tag_31\n            /* \"#utility.yul\":1296:1301   */\n          dup3\n            /* \"#utility.yul\":1278:1302   */\n          tag_32\n          jump\t// in\n        tag_31:\n            /* \"#utility.yul\":1267:1302   */\n          swap1\n          pop\n            /* \"#utility.yul\":1212:1308   */\n          swap2\n          swap1\n          pop\n          jump\t// out\n            /* \"#utility.yul\":1314:1440   */\n        tag_32:\n            /* \"#utility.yul\":1351:1358   */\n          0x00\n            /* \"#utility.yul\":1391:1433   */\n          0xffffffffffffffffffffffffffffffffffffffff\n            /* \"#utility.yul\":1384:1389   */\n          dup3\n            /* \"#utility.yul\":1380:1434   */\n          and\n            /* \"#utility.yul\":1369:1434   */\n          swap1\n          pop\n            /* \"#utility.yul\":1314:1440   */\n          swap2\n          swap1\n          pop\n          jump\t// out\n            /* \"#utility.yul\":1446:1523   */\n        tag_34:\n            /* \"#utility.yul\":1483:1490   */\n          0x00\n            /* \"#utility.yul\":1512:1517   */\n          dup2\n            /* \"#utility.yul\":1501:1517   */\n          swap1\n          pop\n            /* \"#utility.yul\":1446:1523   */\n          swap2\n          swap1\n          pop\n          jump\t// out\n            /* \"#utility.yul\":1529:1709   */\n        tag_3:\n            /* \"#utility.yul\":1577:1654   */\n          0x4e487b7100000000000000000000000000000000000000000000000000000000\n            /* \"#utility.yul\":1574:1575   */\n          0x00\n            /* \"#utility.yul\":1567:1655   */\n          mstore\n            /* \"#utility.yul\":1674:1678   */\n          0x21\n            /* \"#utility.yul\":1671:1672   */\n          0x04\n            /* \"#utility.yul\":1664:1679   */\n          mstore\n            /* \"#utility.yul\":1698:1702   */\n          0x24\n            /* \"#utility.yul\":1695:1696   */\n          0x00\n            /* \"#utility.yul\":1688:1703   */\n          revert\n            /* \"#utility.yul\":1838:1955   */\n        tag_22:\n            /* \"#utility.yul\":1947:1948   */\n          0x00\n            /* \"#utility.yul\":1944:1945   */\n          dup1\n            /* \"#utility.yul\":1937:1949   */\n          revert\n            /* \"#utility.yul\":1961:2083   */\n        tag_14:\n            /* \"#utility.yul\":2034:2058   */\n          tag_41\n            /* \"#utility.yul\":2052:2057   */\n          dup2\n            /* \"#utility.yul\":2034:2058   */\n          tag_29\n          jump\t// in\n        tag_41:\n            /* \"#utility.yul\":2027:2032   */\n          dup2\n            /* \"#utility.yul\":2024:2059   */\n          eq\n            /* \"#utility.yul\":2014:2077   */\n          tag_42\n          jumpi\n            /* \"#utility.yul\":2073:2074   */\n          0x00\n            /* \"#utility.yul\":2070:2071   */\n          dup1\n            /* \"#utility.yul\":2063:2075   */\n          revert\n            /* \"#utility.yul\":2014:2077   */\n        tag_42:\n            /* \"#utility.yul\":1961:2083   */\n          pop\n          jump\t// out\n            /* \"#utility.yul\":2089:2211   */\n        tag_18:\n            /* \"#utility.yul\":2162:2186   */\n          tag_44\n            /* \"#utility.yul\":2180:2185   */\n          dup2\n            /* \"#utility.yul\":2162:2186   */\n          tag_34\n          jump\t// in\n        tag_44:\n            /* \"#utility.yul\":2155:2160   */\n          dup2\n            /* \"#utility.yul\":2152:2187   */\n          eq\n            /* \"#utility.yul\":2142:2205   */\n          tag_45\n          jumpi\n            /* \"#utility.yul\":2201:2202   */\n          0x00\n            /* \"#utility.yul\":2198:2199   */\n          dup1\n            /* \"#utility.yul\":2191:2203   */\n          revert\n            /* \"#utility.yul\":2142:2205   */\n        tag_45:\n            /* \"#utility.yul\":2089:2211   */\n          pop\n          jump\t// out\n            /* \"projects/crypto/web3bets_smartcontract/contracts/Bets.sol\":369:3686  contract Bets is IWeb3BetsBetsV1 {... */\n        tag_9:\n          dataSize(sub_0)\n          dup1\n          dataOffset(sub_0)\n          0x00\n          codecopy\n          0x00\n          return\n        stop\n\n        sub_0: assembly {\n                /* \"projects/crypto/web3bets_smartcontract/contracts/Bets.sol\":369:3686  contract Bets is IWeb3BetsBetsV1 {... */\n              mstore(0x40, 0x80)\n              jumpi(tag_1, lt(calldatasize, 0x04))\n              shr(0xe0, calldataload(0x00))\n              dup1\n              0x4e69d560\n              gt\n              tag_15\n              jumpi\n              dup1\n              0x95623641\n              gt\n              tag_16\n              jumpi\n              dup1\n              0x95623641\n              eq\n              tag_11\n              jumpi\n              dup1\n              0xb07a2754\n              eq\n              tag_12\n              jumpi\n              dup1\n              0xfad56779\n              eq\n              tag_13\n              jumpi\n              dup1\n              0xfda51b17\n              eq\n              tag_14\n              jumpi\n              jump(tag_1)\n            tag_16:\n              dup1\n              0x4e69d560\n              eq\n              tag_8\n              jumpi\n              dup1\n              0x51696127\n              eq\n              tag_9\n              jumpi\n              dup1\n              0x718c7d44\n              eq\n              tag_10\n              jumpi\n              jump(tag_1)\n            tag_15:\n              dup1\n              0x0ca5ba05\n              eq\n              tag_2\n              jumpi\n              dup1\n              0x1755ff21\n              eq\n              tag_3\n              jumpi\n              dup1\n              0x262007c0\n              eq\n              tag_4\n              jumpi\n              dup1\n              0x3a4b66f1\n              eq\n              tag_5\n              jumpi\n              dup1\n              0x3ccfd60b\n              eq\n              tag_6\n              jumpi\n              dup1\n              0x4d2124d4\n              eq\n              tag_7\n              jumpi\n            tag_1:\n              0x00\n              dup1\n              revert\n                /* \"projects/crypto/web3bets_smartcontract/contracts/Bets.sol\":2788:3014  function setBetStatus(uint status) override external onlyEventOwner{... */\n            tag_2:\n              callvalue\n              dup1\n              iszero\n              tag_17\n              jumpi\n              0x00\n              dup1\n              revert\n            tag_17:\n              pop\n              tag_18\n              0x04\n              dup1\n              calldatasize\n              sub\n              dup2\n              add\n              swap1\n              tag_19\n              swap2\n              swap1\n              tag_20\n              jump\t// in\n            tag_19:\n              tag_21\n              jump\t// in\n            tag_18:\n              stop\n                /* \"projects/crypto/web3bets_smartcontract/contracts/Bets.sol\":543:569  address public poolAddress */\n            tag_3:\n              callvalue\n              dup1\n              iszero\n              tag_22\n              jumpi\n              0x00\n              dup1\n              revert\n            tag_22:\n              pop\n              tag_23\n              tag_24\n              jump\t// in\n            tag_23:\n              mload(0x40)\n              tag_25\n              swap2\n              swap1\n              tag_26\n              jump\t// in\n            tag_25:\n              mload(0x40)\n              dup1\n              swap2\n              sub\n              swap1\n              return\n                /* \"projects/crypto/web3bets_smartcontract/contracts/Bets.sol\":2351:2443  function getBetter() override external view returns (address) {... */\n            tag_4:\n              callvalue\n              dup1\n              iszero\n              tag_27\n              jumpi\n              0x00\n              dup1\n              revert\n            tag_27:\n              pop\n              tag_28\n              tag_29\n              jump\t// in\n            tag_28:\n              mload(0x40)\n              tag_30\n              swap2\n              swap1\n              tag_26\n              jump\t// in\n            tag_30:\n              mload(0x40)\n              dup1\n              swap2\n              sub\n              swap1\n              return\n                /* \"projects/crypto/web3bets_smartcontract/contracts/Bets.sol\":622:642  uint256 public stake */\n            tag_5:\n              callvalue\n              dup1\n              iszero\n              tag_31\n              jumpi\n              0x00\n              dup1\n              revert\n            tag_31:\n              pop\n              tag_32\n              tag_33\n              jump\t// in\n            tag_32:\n              mload(0x40)\n              tag_34\n              swap2\n              swap1\n              tag_35\n              jump\t// in\n            tag_34:\n              mload(0x40)\n              dup1\n              swap2\n              sub\n              swap1\n              return\n                /* \"projects/crypto/web3bets_smartcontract/contracts/Bets.sol\":3469:3677  function withdraw() override external payable onlyBetter withdrawable {... */\n            tag_6:\n              tag_36\n              tag_37\n              jump\t// in\n            tag_36:\n              stop\n                /* \"projects/crypto/web3bets_smartcontract/contracts/Bets.sol\":2252:2345  function getBetStake() override external view returns (uint256) {... */\n            tag_7:\n              callvalue\n              dup1\n              iszero\n              tag_38\n              jumpi\n              0x00\n              dup1\n              revert\n            tag_38:\n              pop\n              tag_39\n              tag_40\n              jump\t// in\n            tag_39:\n              mload(0x40)\n              tag_41\n              swap2\n              swap1\n              tag_35\n              jump\t// in\n            tag_41:\n              mload(0x40)\n              dup1\n              swap2\n              sub\n              swap1\n              return\n                /* \"projects/crypto/web3bets_smartcontract/contracts/Bets.sol\":2142:2246  function getStatus() override external view returns (uint256) {... */\n            tag_8:\n              callvalue\n              dup1\n              iszero\n              tag_42\n              jumpi\n              0x00\n              dup1\n              revert\n            tag_42:\n              pop\n              tag_43\n              tag_44\n              jump\t// in\n            tag_43:\n              mload(0x40)\n              tag_45\n              swap2\n              swap1\n              tag_35\n              jump\t// in\n            tag_45:\n              mload(0x40)\n              dup1\n              swap2\n              sub\n              swap1\n              return\n                /* \"projects/crypto/web3bets_smartcontract/contracts/Bets.sol\":2675:2782  function getBetEventAddress() override external view returns (address) {... */\n            tag_9:\n              callvalue\n              dup1\n              iszero\n              tag_46\n              jumpi\n              0x00\n              dup1\n              revert\n            tag_46:\n              pop\n              tag_47\n              tag_48\n              jump\t// in\n            tag_47:\n              mload(0x40)\n              tag_49\n              swap2\n              swap1\n              tag_26\n              jump\t// in\n            tag_49:\n              mload(0x40)\n              dup1\n              swap2\n              sub\n              swap1\n              return\n                /* \"projects/crypto/web3bets_smartcontract/contracts/Bets.sol\":408:429  address public better */\n            tag_10:\n              callvalue\n              dup1\n              iszero\n              tag_50\n              jumpi\n              0x00\n              dup1\n              revert\n            tag_50:\n              pop\n              tag_51\n              tag_52\n              jump\t// in\n            tag_51:\n              mload(0x40)\n              tag_53\n              swap2\n              swap1\n              tag_26\n              jump\t// in\n            tag_53:\n              mload(0x40)\n              dup1\n              swap2\n              sub\n              swap1\n              return\n                /* \"projects/crypto/web3bets_smartcontract/contracts/Bets.sol\":470:498  address public marketAddress */\n            tag_11:\n              callvalue\n              dup1\n              iszero\n              tag_54\n              jumpi\n              0x00\n              dup1\n              revert\n            tag_54:\n              pop\n              tag_55\n              tag_56\n              jump\t// in\n            tag_55:\n              mload(0x40)\n              tag_57\n              swap2\n              swap1\n              tag_26\n              jump\t// in\n            tag_57:\n              mload(0x40)\n              dup1\n              swap2\n              sub\n              swap1\n              return\n                /* \"projects/crypto/web3bets_smartcontract/contracts/Bets.sol\":2449:2554  function getBetPoolAddress() override external view returns (address) {... */\n            tag_12:\n              callvalue\n              dup1\n              iszero\n              tag_58\n              jumpi\n              0x00\n              dup1\n              revert\n            tag_58:\n              pop\n              tag_59\n              tag_60\n              jump\t// in\n            tag_59:\n              mload(0x40)\n              tag_61\n              swap2\n              swap1\n              tag_26\n              jump\t// in\n            tag_61:\n              mload(0x40)\n              dup1\n              swap2\n              sub\n              swap1\n              return\n                /* \"projects/crypto/web3bets_smartcontract/contracts/Bets.sol\":436:463  address public eventAddress */\n            tag_13:\n              callvalue\n              dup1\n              iszero\n              tag_62\n              jumpi\n              0x00\n              dup1\n              revert\n            tag_62:\n              pop\n              tag_63\n              tag_64\n              jump\t// in\n            tag_63:\n              mload(0x40)\n              tag_65\n              swap2\n              swap1\n              tag_26\n              jump\t// in\n            tag_65:\n              mload(0x40)\n              dup1\n              swap2\n              sub\n              swap1\n              return\n                /* \"projects/crypto/web3bets_smartcontract/contracts/Bets.sol\":2560:2669  function getBetMarketAddress() override external view returns (address) {... */\n            tag_14:\n              callvalue\n              dup1\n              iszero\n              tag_66\n              jumpi\n              0x00\n              dup1\n              revert\n            tag_66:\n              pop\n              tag_67\n              tag_68\n              jump\t// in\n            tag_67:\n              mload(0x40)\n              tag_69\n              swap2\n              swap1\n              tag_26\n              jump\t// in\n            tag_69:\n              mload(0x40)\n              dup1\n              swap2\n              sub\n              swap1\n              return\n                /* \"projects/crypto/web3bets_smartcontract/contracts/Bets.sol\":2788:3014  function setBetStatus(uint status) override external onlyEventOwner{... */\n            tag_21:\n                /* \"projects/crypto/web3bets_smartcontract/contracts/Bets.sol\":683:708  IWeb3BetsEventV1 betEvent */\n              0x00\n                /* \"projects/crypto/web3bets_smartcontract/contracts/Bets.sol\":728:740  eventAddress */\n              0x01\n              0x00\n              swap1\n              sload\n              swap1\n              0x0100\n              exp\n              swap1\n              div\n              0xffffffffffffffffffffffffffffffffffffffff\n              and\n                /* \"projects/crypto/web3bets_smartcontract/contracts/Bets.sol\":683:741  IWeb3BetsEventV1 betEvent = IWeb3BetsEventV1(eventAddress) */\n              swap1\n              pop\n                /* \"projects/crypto/web3bets_smartcontract/contracts/Bets.sol\":773:781  betEvent */\n              dup1\n                /* \"projects/crypto/web3bets_smartcontract/contracts/Bets.sol\":773:795  betEvent.getEventOwner */\n              0xffffffffffffffffffffffffffffffffffffffff\n              and\n              0x179f907d\n                /* \"projects/crypto/web3bets_smartcontract/contracts/Bets.sol\":773:797  betEvent.getEventOwner() */\n              mload(0x40)\n              dup2\n              0xffffffff\n              and\n              0xe0\n              shl\n              dup2\n              mstore\n              0x04\n              add\n              0x20\n              mload(0x40)\n              dup1\n              dup4\n              sub\n              dup2\n              0x00\n              dup8\n              dup1\n              extcodesize\n              iszero\n              dup1\n              iszero\n              tag_71\n              jumpi\n              0x00\n              dup1\n              revert\n            tag_71:\n              pop\n              gas\n              call\n              iszero\n              dup1\n              iszero\n              tag_73\n              jumpi\n              returndatasize\n              0x00\n              dup1\n              returndatacopy\n              revert(0x00, returndatasize)\n            tag_73:\n              pop\n              pop\n              pop\n              pop\n              mload(0x40)\n              returndatasize\n              not(0x1f)\n              0x1f\n              dup3\n              add\n              and\n              dup3\n              add\n              dup1\n              0x40\n              mstore\n              pop\n              dup2\n              add\n              swap1\n              tag_74\n              swap2\n              swap1\n              tag_75\n              jump\t// in\n            tag_74:\n                /* \"projects/crypto/web3bets_smartcontract/contracts/Bets.sol\":759:797  msg.sender == betEvent.getEventOwner() */\n              0xffffffffffffffffffffffffffffffffffffffff\n              and\n                /* \"projects/crypto/web3bets_smartcontract/contracts/Bets.sol\":759:769  msg.sender */\n              caller\n                /* \"projects/crypto/web3bets_smartcontract/contracts/Bets.sol\":759:797  msg.sender == betEvent.getEventOwner() */\n              0xffffffffffffffffffffffffffffffffffffffff\n              and\n              eq\n                /* \"projects/crypto/web3bets_smartcontract/contracts/Bets.sol\":751:841  require(msg.sender == betEvent.getEventOwner(), \"Only bet owners can apply this function\") */\n              tag_76\n              jumpi\n              mload(0x40)\n              0x08c379a000000000000000000000000000000000000000000000000000000000\n              dup2\n              mstore\n              0x04\n              add\n              tag_77\n              swap1\n              tag_78\n              jump\t// in\n            tag_77:\n              mload(0x40)\n              dup1\n              swap2\n              sub\n              swap1\n              revert\n            tag_76:\n                /* \"projects/crypto/web3bets_smartcontract/contracts/Bets.sol\":2891:2892  0 */\n              0x00\n                /* \"projects/crypto/web3bets_smartcontract/contracts/Bets.sol\":2873:2887  statusSetCount */\n              sload(0x03)\n                /* \"projects/crypto/web3bets_smartcontract/contracts/Bets.sol\":2873:2892  statusSetCount == 0 */\n              eq\n                /* \"projects/crypto/web3bets_smartcontract/contracts/Bets.sol\":2865:2941  require(statusSetCount == 0, \"You can not modify bet status more than once\") */\n              tag_80\n              jumpi\n              mload(0x40)\n              0x08c379a000000000000000000000000000000000000000000000000000000000\n              dup2\n              mstore\n              0x04\n              add\n              tag_81\n              swap1\n              tag_82\n              jump\t// in\n            tag_81:\n              mload(0x40)\n              dup1\n              swap2\n              sub\n              swap1\n              revert\n            tag_80:\n                /* \"projects/crypto/web3bets_smartcontract/contracts/Bets.sol\":2963:2980  getStatus(status) */\n              tag_83\n                /* \"projects/crypto/web3bets_smartcontract/contracts/Bets.sol\":2973:2979  status */\n              dup3\n                /* \"projects/crypto/web3bets_smartcontract/contracts/Bets.sol\":2963:2972  getStatus */\n              tag_84\n                /* \"projects/crypto/web3bets_smartcontract/contracts/Bets.sol\":2963:2980  getStatus(status) */\n              jump\t// in\n            tag_83:\n                /* \"projects/crypto/web3bets_smartcontract/contracts/Bets.sol\":2951:2960  betStatus */\n              0x04\n              0x14\n                /* \"projects/crypto/web3bets_smartcontract/contracts/Bets.sol\":2951:2980  betStatus = getStatus(status) */\n              0x0100\n              exp\n              dup2\n              sload\n              dup2\n              0xff\n              mul\n              not\n              and\n              swap1\n              dup4\n              0x03\n              dup2\n              gt\n              iszero\n              tag_85\n              jumpi\n              tag_86\n              tag_87\n              jump\t// in\n            tag_86:\n            tag_85:\n              mul\n              or\n              swap1\n              sstore\n              pop\n                /* \"projects/crypto/web3bets_smartcontract/contracts/Bets.sol\":3006:3007  1 */\n              0x01\n                /* \"projects/crypto/web3bets_smartcontract/contracts/Bets.sol\":2990:3004  statusSetCount */\n              0x03\n                /* \"projects/crypto/web3bets_smartcontract/contracts/Bets.sol\":2990:3007  statusSetCount =1 */\n              dup2\n              swap1\n              sstore\n              pop\n                /* \"projects/crypto/web3bets_smartcontract/contracts/Bets.sol\":673:868  {... */\n              pop\n                /* \"projects/crypto/web3bets_smartcontract/contracts/Bets.sol\":2788:3014  function setBetStatus(uint status) override external onlyEventOwner{... */\n              pop\n              jump\t// out\n                /* \"projects/crypto/web3bets_smartcontract/contracts/Bets.sol\":543:569  address public poolAddress */\n            tag_24:\n              0x04\n              0x00\n              swap1\n              sload\n              swap1\n              0x0100\n              exp\n              swap1\n              div\n              0xffffffffffffffffffffffffffffffffffffffff\n              and\n              dup2\n              jump\t// out\n                /* \"projects/crypto/web3bets_smartcontract/contracts/Bets.sol\":2351:2443  function getBetter() override external view returns (address) {... */\n            tag_29:\n                /* \"projects/crypto/web3bets_smartcontract/contracts/Bets.sol\":2404:2411  address */\n              0x00\n                /* \"projects/crypto/web3bets_smartcontract/contracts/Bets.sol\":2430:2436  better */\n              dup1\n              0x00\n              swap1\n              sload\n              swap1\n              0x0100\n              exp\n              swap1\n              div\n              0xffffffffffffffffffffffffffffffffffffffff\n              and\n                /* \"projects/crypto/web3bets_smartcontract/contracts/Bets.sol\":2423:2436  return better */\n              swap1\n              pop\n                /* \"projects/crypto/web3bets_smartcontract/contracts/Bets.sol\":2351:2443  function getBetter() override external view returns (address) {... */\n              swap1\n              jump\t// out\n                /* \"projects/crypto/web3bets_smartcontract/contracts/Bets.sol\":622:642  uint256 public stake */\n            tag_33:\n              sload(0x05)\n              dup2\n              jump\t// out\n                /* \"projects/crypto/web3bets_smartcontract/contracts/Bets.sol\":3469:3677  function withdraw() override external payable onlyBetter withdrawable {... */\n            tag_37:\n                /* \"projects/crypto/web3bets_smartcontract/contracts/Bets.sol\":926:932  better */\n              0x00\n              dup1\n              sload\n              swap1\n              0x0100\n              exp\n              swap1\n              div\n              0xffffffffffffffffffffffffffffffffffffffff\n              and\n                /* \"projects/crypto/web3bets_smartcontract/contracts/Bets.sol\":912:932  msg.sender == better */\n              0xffffffffffffffffffffffffffffffffffffffff\n              and\n                /* \"projects/crypto/web3bets_smartcontract/contracts/Bets.sol\":912:922  msg.sender */\n              caller\n                /* \"projects/crypto/web3bets_smartcontract/contracts/Bets.sol\":912:932  msg.sender == better */\n              0xffffffffffffffffffffffffffffffffffffffff\n              and\n              eq\n                /* \"projects/crypto/web3bets_smartcontract/contracts/Bets.sol\":904:977  require(msg.sender == better, \"Only event better can call this function\") */\n              tag_90\n              jumpi\n              mload(0x40)\n              0x08c379a000000000000000000000000000000000000000000000000000000000\n              dup2\n              mstore\n              0x04\n              add\n              tag_91\n              swap1\n              tag_92\n              jump\t// in\n            tag_91:\n              mload(0x40)\n              dup1\n              swap2\n              sub\n              swap1\n              revert\n            tag_90:\n                /* \"projects/crypto/web3bets_smartcontract/contracts/Bets.sol\":1054:1067  BetStatus.WON */\n              0x02\n                /* \"projects/crypto/web3bets_smartcontract/contracts/Bets.sol\":1041:1067  betStatus == BetStatus.WON */\n              0x03\n              dup2\n              gt\n              iszero\n              tag_94\n              jumpi\n              tag_95\n              tag_87\n              jump\t// in\n            tag_95:\n            tag_94:\n                /* \"projects/crypto/web3bets_smartcontract/contracts/Bets.sol\":1041:1050  betStatus */\n              0x04\n              0x14\n              swap1\n              sload\n              swap1\n              0x0100\n              exp\n              swap1\n              div\n              0xff\n              and\n                /* \"projects/crypto/web3bets_smartcontract/contracts/Bets.sol\":1041:1067  betStatus == BetStatus.WON */\n              0x03\n              dup2\n              gt\n              iszero\n              tag_96\n              jumpi\n              tag_97\n              tag_87\n              jump\t// in\n            tag_97:\n            tag_96:\n              eq\n                /* \"projects/crypto/web3bets_smartcontract/contracts/Bets.sol\":1041:1103  betStatus == BetStatus.WON || betStatus == BetStatus.CANCELLED */\n              dup1\n              tag_98\n              jumpi\n              pop\n                /* \"projects/crypto/web3bets_smartcontract/contracts/Bets.sol\":1084:1103  BetStatus.CANCELLED */\n              0x01\n                /* \"projects/crypto/web3bets_smartcontract/contracts/Bets.sol\":1071:1103  betStatus == BetStatus.CANCELLED */\n              0x03\n              dup2\n              gt\n              iszero\n              tag_99\n              jumpi\n              tag_100\n              tag_87\n              jump\t// in\n            tag_100:\n            tag_99:\n                /* \"projects/crypto/web3bets_smartcontract/contracts/Bets.sol\":1071:1080  betStatus */\n              0x04\n              0x14\n              swap1\n              sload\n              swap1\n              0x0100\n              exp\n              swap1\n              div\n              0xff\n              and\n                /* \"projects/crypto/web3bets_smartcontract/contracts/Bets.sol\":1071:1103  betStatus == BetStatus.CANCELLED */\n              0x03\n              dup2\n              gt\n              iszero\n              tag_101\n              jumpi\n              tag_102\n              tag_87\n              jump\t// in\n            tag_102:\n            tag_101:\n              eq\n                /* \"projects/crypto/web3bets_smartcontract/contracts/Bets.sol\":1041:1103  betStatus == BetStatus.WON || betStatus == BetStatus.CANCELLED */\n            tag_98:\n                /* \"projects/crypto/web3bets_smartcontract/contracts/Bets.sol\":1033:1148  require(betStatus == BetStatus.WON || betStatus == BetStatus.CANCELLED, \"Bet must be won or cancelled to withdraw\") */\n              tag_103\n              jumpi\n              mload(0x40)\n              0x08c379a000000000000000000000000000000000000000000000000000000000\n              dup2\n              mstore\n              0x04\n              add\n              tag_104\n              swap1\n              tag_105\n              jump\t// in\n            tag_104:\n              mload(0x40)\n              dup1\n              swap2\n              sub\n              swap1\n              revert\n            tag_103:\n                /* \"projects/crypto/web3bets_smartcontract/contracts/Bets.sol\":3581:3582  0 */\n              0x00\n                /* \"projects/crypto/web3bets_smartcontract/contracts/Bets.sol\":3557:3578  address(this).balance */\n              selfbalance\n                /* \"projects/crypto/web3bets_smartcontract/contracts/Bets.sol\":3557:3582  address(this).balance > 0 */\n              gt\n                /* \"projects/crypto/web3bets_smartcontract/contracts/Bets.sol\":3549:3608  require(address(this).balance > 0, \"This bet has no funds\") */\n              tag_107\n              jumpi\n              mload(0x40)\n              0x08c379a000000000000000000000000000000000000000000000000000000000\n              dup2\n              mstore\n              0x04\n              add\n              tag_108\n              swap1\n              tag_109\n              jump\t// in\n            tag_108:\n              mload(0x40)\n              dup1\n              swap2\n              sub\n              swap1\n              revert\n            tag_107:\n                /* \"projects/crypto/web3bets_smartcontract/contracts/Bets.sol\":3627:3637  msg.sender */\n              caller\n                /* \"projects/crypto/web3bets_smartcontract/contracts/Bets.sol\":3619:3647  payable(msg.sender).transfer */\n              0xffffffffffffffffffffffffffffffffffffffff\n              and\n                /* \"projects/crypto/web3bets_smartcontract/contracts/Bets.sol\":3619:3670  payable(msg.sender).transfer(address(this).balance) */\n              0x08fc\n                /* \"projects/crypto/web3bets_smartcontract/contracts/Bets.sol\":3648:3669  address(this).balance */\n              selfbalance\n                /* \"projects/crypto/web3bets_smartcontract/contracts/Bets.sol\":3619:3670  payable(msg.sender).transfer(address(this).balance) */\n              swap1\n              dup2\n              iszero\n              mul\n              swap1\n              mload(0x40)\n              0x00\n              mload(0x40)\n              dup1\n              dup4\n              sub\n              dup2\n              dup6\n              dup9\n              dup9\n              call\n              swap4\n              pop\n              pop\n              pop\n              pop\n              iszero\n              dup1\n              iszero\n              tag_111\n              jumpi\n              returndatasize\n              0x00\n              dup1\n              returndatacopy\n              revert(0x00, returndatasize)\n            tag_111:\n              pop\n                /* \"projects/crypto/web3bets_smartcontract/contracts/Bets.sol\":3469:3677  function withdraw() override external payable onlyBetter withdrawable {... */\n              jump\t// out\n                /* \"projects/crypto/web3bets_smartcontract/contracts/Bets.sol\":2252:2345  function getBetStake() override external view returns (uint256) {... */\n            tag_40:\n                /* \"projects/crypto/web3bets_smartcontract/contracts/Bets.sol\":2307:2314  uint256 */\n              0x00\n                /* \"projects/crypto/web3bets_smartcontract/contracts/Bets.sol\":2333:2338  stake */\n              sload(0x05)\n                /* \"projects/crypto/web3bets_smartcontract/contracts/Bets.sol\":2326:2338  return stake */\n              swap1\n              pop\n                /* \"projects/crypto/web3bets_smartcontract/contracts/Bets.sol\":2252:2345  function getBetStake() override external view returns (uint256) {... */\n              swap1\n              jump\t// out\n                /* \"projects/crypto/web3bets_smartcontract/contracts/Bets.sol\":2142:2246  function getStatus() override external view returns (uint256) {... */\n            tag_44:\n                /* \"projects/crypto/web3bets_smartcontract/contracts/Bets.sol\":2195:2202  uint256 */\n              0x00\n                /* \"projects/crypto/web3bets_smartcontract/contracts/Bets.sol\":2229:2238  betStatus */\n              0x04\n              0x14\n              swap1\n              sload\n              swap1\n              0x0100\n              exp\n              swap1\n              div\n              0xff\n              and\n                /* \"projects/crypto/web3bets_smartcontract/contracts/Bets.sol\":2221:2239  uint256(betStatus) */\n              0x03\n              dup2\n              gt\n              iszero\n              tag_114\n              jumpi\n              tag_115\n              tag_87\n              jump\t// in\n            tag_115:\n            tag_114:\n                /* \"projects/crypto/web3bets_smartcontract/contracts/Bets.sol\":2214:2239  return uint256(betStatus) */\n              swap1\n              pop\n                /* \"projects/crypto/web3bets_smartcontract/contracts/Bets.sol\":2142:2246  function getStatus() override external view returns (uint256) {... */\n              swap1\n              jump\t// out\n                /* \"projects/crypto/web3bets_smartcontract/contracts/Bets.sol\":2675:2782  function getBetEventAddress() override external view returns (address) {... */\n            tag_48:\n                /* \"projects/crypto/web3bets_smartcontract/contracts/Bets.sol\":2737:2744  address */\n              0x00\n                /* \"projects/crypto/web3bets_smartcontract/contracts/Bets.sol\":2763:2775  eventAddress */\n              0x01\n              0x00\n              swap1\n              sload\n              swap1\n              0x0100\n              exp\n              swap1\n              div\n              0xffffffffffffffffffffffffffffffffffffffff\n              and\n                /* \"projects/crypto/web3bets_smartcontract/contracts/Bets.sol\":2756:2775  return eventAddress */\n              swap1\n              pop\n                /* \"projects/crypto/web3bets_smartcontract/contracts/Bets.sol\":2675:2782  function getBetEventAddress() override external view returns (address) {... */\n              swap1\n              jump\t// out\n                /* \"projects/crypto/web3bets_smartcontract/contracts/Bets.sol\":408:429  address public better */\n            tag_52:\n              0x00\n              dup1\n              sload\n              swap1\n              0x0100\n              exp\n              swap1\n              div\n              0xffffffffffffffffffffffffffffffffffffffff\n              and\n              dup2\n              jump\t// out\n                /* \"projects/crypto/web3bets_smartcontract/contracts/Bets.sol\":470:498  address public marketAddress */\n            tag_56:\n              0x02\n              0x00\n              swap1\n              sload\n              swap1\n              0x0100\n              exp\n              swap1\n              div\n              0xffffffffffffffffffffffffffffffffffffffff\n              and\n              dup2\n              jump\t// out\n                /* \"projects/crypto/web3bets_smartcontract/contracts/Bets.sol\":2449:2554  function getBetPoolAddress() override external view returns (address) {... */\n            tag_60:\n                /* \"projects/crypto/web3bets_smartcontract/contracts/Bets.sol\":2510:2517  address */\n              0x00\n                /* \"projects/crypto/web3bets_smartcontract/contracts/Bets.sol\":2536:2547  poolAddress */\n              0x04\n              0x00\n              swap1\n              sload\n              swap1\n              0x0100\n              exp\n              swap1\n              div\n              0xffffffffffffffffffffffffffffffffffffffff\n              and\n                /* \"projects/crypto/web3bets_smartcontract/contracts/Bets.sol\":2529:2547  return poolAddress */\n              swap1\n              pop\n                /* \"projects/crypto/web3bets_smartcontract/contracts/Bets.sol\":2449:2554  function getBetPoolAddress() override external view returns (address) {... */\n              swap1\n              jump\t// out\n                /* \"projects/crypto/web3bets_smartcontract/contracts/Bets.sol\":436:463  address public eventAddress */\n            tag_64:\n              0x01\n              0x00\n              swap1\n              sload\n              swap1\n              0x0100\n              exp\n              swap1\n              div\n              0xffffffffffffffffffffffffffffffffffffffff\n              and\n              dup2\n              jump\t// out\n                /* \"projects/crypto/web3bets_smartcontract/contracts/Bets.sol\":2560:2669  function getBetMarketAddress() override external view returns (address) {... */\n            tag_68:\n                /* \"projects/crypto/web3bets_smartcontract/contracts/Bets.sol\":2623:2630  address */\n              0x00\n                /* \"projects/crypto/web3bets_smartcontract/contracts/Bets.sol\":2649:2662  marketAddress */\n              0x02\n              0x00\n              swap1\n              sload\n              swap1\n              0x0100\n              exp\n              swap1\n              div\n              0xffffffffffffffffffffffffffffffffffffffff\n              and\n                /* \"projects/crypto/web3bets_smartcontract/contracts/Bets.sol\":2642:2662  return marketAddress */\n              swap1\n              pop\n                /* \"projects/crypto/web3bets_smartcontract/contracts/Bets.sol\":2560:2669  function getBetMarketAddress() override external view returns (address) {... */\n              swap1\n              jump\t// out\n                /* \"projects/crypto/web3bets_smartcontract/contracts/Bets.sol\":3020:3463  function getStatus(uint status) private pure returns (BetStatus){... */\n            tag_84:\n                /* \"projects/crypto/web3bets_smartcontract/contracts/Bets.sol\":3074:3083  BetStatus */\n              0x00\n                /* \"projects/crypto/web3bets_smartcontract/contracts/Bets.sol\":3108:3109  0 */\n              dup1\n                /* \"projects/crypto/web3bets_smartcontract/contracts/Bets.sol\":3098:3104  status */\n              dup3\n                /* \"projects/crypto/web3bets_smartcontract/contracts/Bets.sol\":3098:3109  status == 0 */\n              eq\n                /* \"projects/crypto/web3bets_smartcontract/contracts/Bets.sol\":3094:3457  if (status == 0){... */\n              iszero\n              tag_120\n              jumpi\n                /* \"projects/crypto/web3bets_smartcontract/contracts/Bets.sol\":3131:3148  BetStatus.PENDING */\n              0x00\n                /* \"projects/crypto/web3bets_smartcontract/contracts/Bets.sol\":3124:3148  return BetStatus.PENDING */\n              swap1\n              pop\n              jump(tag_119)\n                /* \"projects/crypto/web3bets_smartcontract/contracts/Bets.sol\":3094:3457  if (status == 0){... */\n            tag_120:\n                /* \"projects/crypto/web3bets_smartcontract/contracts/Bets.sol\":3188:3189  1 */\n              0x01\n                /* \"projects/crypto/web3bets_smartcontract/contracts/Bets.sol\":3178:3184  status */\n              dup3\n                /* \"projects/crypto/web3bets_smartcontract/contracts/Bets.sol\":3178:3189  status == 1 */\n              eq\n                /* \"projects/crypto/web3bets_smartcontract/contracts/Bets.sol\":3174:3457  if (status == 1){... */\n              iszero\n              tag_122\n              jumpi\n                /* \"projects/crypto/web3bets_smartcontract/contracts/Bets.sol\":3211:3230  BetStatus.CANCELLED */\n              0x01\n                /* \"projects/crypto/web3bets_smartcontract/contracts/Bets.sol\":3204:3230  return BetStatus.CANCELLED */\n              swap1\n              pop\n              jump(tag_119)\n                /* \"projects/crypto/web3bets_smartcontract/contracts/Bets.sol\":3174:3457  if (status == 1){... */\n            tag_122:\n                /* \"projects/crypto/web3bets_smartcontract/contracts/Bets.sol\":3270:3271  2 */\n              0x02\n                /* \"projects/crypto/web3bets_smartcontract/contracts/Bets.sol\":3260:3266  status */\n              dup3\n                /* \"projects/crypto/web3bets_smartcontract/contracts/Bets.sol\":3260:3271  status == 2 */\n              eq\n                /* \"projects/crypto/web3bets_smartcontract/contracts/Bets.sol\":3256:3457  if (status == 2){... */\n              iszero\n              tag_124\n              jumpi\n                /* \"projects/crypto/web3bets_smartcontract/contracts/Bets.sol\":3293:3306  BetStatus.WON */\n              0x02\n                /* \"projects/crypto/web3bets_smartcontract/contracts/Bets.sol\":3286:3306  return BetStatus.WON */\n              swap1\n              pop\n              jump(tag_119)\n                /* \"projects/crypto/web3bets_smartcontract/contracts/Bets.sol\":3256:3457  if (status == 2){... */\n            tag_124:\n                /* \"projects/crypto/web3bets_smartcontract/contracts/Bets.sol\":3346:3347  3 */\n              0x03\n                /* \"projects/crypto/web3bets_smartcontract/contracts/Bets.sol\":3336:3342  status */\n              dup3\n                /* \"projects/crypto/web3bets_smartcontract/contracts/Bets.sol\":3336:3347  status == 3 */\n              eq\n                /* \"projects/crypto/web3bets_smartcontract/contracts/Bets.sol\":3332:3457  if (status == 3){... */\n              iszero\n              tag_126\n              jumpi\n                /* \"projects/crypto/web3bets_smartcontract/contracts/Bets.sol\":3369:3383  BetStatus.LOST */\n              0x03\n                /* \"projects/crypto/web3bets_smartcontract/contracts/Bets.sol\":3362:3383  return BetStatus.LOST */\n              swap1\n              pop\n              jump(tag_119)\n                /* \"projects/crypto/web3bets_smartcontract/contracts/Bets.sol\":3332:3457  if (status == 3){... */\n            tag_126:\n                /* \"projects/crypto/web3bets_smartcontract/contracts/Bets.sol\":3429:3446  BetStatus.PENDING */\n              0x00\n                /* \"projects/crypto/web3bets_smartcontract/contracts/Bets.sol\":3422:3446  return BetStatus.PENDING */\n              swap1\n              pop\n                /* \"projects/crypto/web3bets_smartcontract/contracts/Bets.sol\":3020:3463  function getStatus(uint status) private pure returns (BetStatus){... */\n            tag_119:\n              swap2\n              swap1\n              pop\n              jump\t// out\n                /* \"#utility.yul\":7:150   */\n            tag_129:\n                /* \"#utility.yul\":64:69   */\n              0x00\n                /* \"#utility.yul\":95:101   */\n              dup2\n                /* \"#utility.yul\":89:102   */\n              mload\n                /* \"#utility.yul\":80:102   */\n              swap1\n              pop\n                /* \"#utility.yul\":111:144   */\n              tag_131\n                /* \"#utility.yul\":138:143   */\n              dup2\n                /* \"#utility.yul\":111:144   */\n              tag_132\n              jump\t// in\n            tag_131:\n                /* \"#utility.yul\":7:150   */\n              swap3\n              swap2\n              pop\n              pop\n              jump\t// out\n                /* \"#utility.yul\":156:295   */\n            tag_133:\n                /* \"#utility.yul\":202:207   */\n              0x00\n                /* \"#utility.yul\":240:246   */\n              dup2\n                /* \"#utility.yul\":227:247   */\n              calldataload\n                /* \"#utility.yul\":218:247   */\n              swap1\n              pop\n                /* \"#utility.yul\":256:289   */\n              tag_135\n                /* \"#utility.yul\":283:288   */\n              dup2\n                /* \"#utility.yul\":256:289   */\n              tag_136\n              jump\t// in\n            tag_135:\n                /* \"#utility.yul\":156:295   */\n              swap3\n              swap2\n              pop\n              pop\n              jump\t// out\n                /* \"#utility.yul\":301:652   */\n            tag_75:\n                /* \"#utility.yul\":371:377   */\n              0x00\n                /* \"#utility.yul\":420:422   */\n              0x20\n                /* \"#utility.yul\":408:417   */\n              dup3\n                /* \"#utility.yul\":399:406   */\n              dup5\n                /* \"#utility.yul\":395:418   */\n              sub\n                /* \"#utility.yul\":391:423   */\n              slt\n                /* \"#utility.yul\":388:507   */\n              iszero\n              tag_138\n              jumpi\n                /* \"#utility.yul\":426:505   */\n              tag_139\n              tag_140\n              jump\t// in\n            tag_139:\n                /* \"#utility.yul\":388:507   */\n            tag_138:\n                /* \"#utility.yul\":546:547   */\n              0x00\n                /* \"#utility.yul\":571:635   */\n              tag_141\n                /* \"#utility.yul\":627:634   */\n              dup5\n                /* \"#utility.yul\":618:624   */\n              dup3\n                /* \"#utility.yul\":607:616   */\n              dup6\n                /* \"#utility.yul\":603:625   */\n              add\n                /* \"#utility.yul\":571:635   */\n              tag_129\n              jump\t// in\n            tag_141:\n                /* \"#utility.yul\":561:635   */\n              swap2\n              pop\n                /* \"#utility.yul\":517:645   */\n              pop\n                /* \"#utility.yul\":301:652   */\n              swap3\n              swap2\n              pop\n              pop\n              jump\t// out\n                /* \"#utility.yul\":658:987   */\n            tag_20:\n                /* \"#utility.yul\":717:723   */\n              0x00\n                /* \"#utility.yul\":766:768   */\n              0x20\n                /* \"#utility.yul\":754:763   */\n              dup3\n                /* \"#utility.yul\":745:752   */\n              dup5\n                /* \"#utility.yul\":741:764   */\n              sub\n                /* \"#utility.yul\":737:769   */\n              slt\n                /* \"#utility.yul\":734:853   */\n              iszero\n              tag_143\n              jumpi\n                /* \"#utility.yul\":772:851   */\n              tag_144\n              tag_140\n              jump\t// in\n            tag_144:\n                /* \"#utility.yul\":734:853   */\n            tag_143:\n                /* \"#utility.yul\":892:893   */\n              0x00\n                /* \"#utility.yul\":917:970   */\n              tag_145\n                /* \"#utility.yul\":962:969   */\n              dup5\n                /* \"#utility.yul\":953:959   */\n              dup3\n                /* \"#utility.yul\":942:951   */\n              dup6\n                /* \"#utility.yul\":938:960   */\n              add\n                /* \"#utility.yul\":917:970   */\n              tag_133\n              jump\t// in\n            tag_145:\n                /* \"#utility.yul\":907:970   */\n              swap2\n              pop\n                /* \"#utility.yul\":863:980   */\n              pop\n                /* \"#utility.yul\":658:987   */\n              swap3\n              swap2\n              pop\n              pop\n              jump\t// out\n                /* \"#utility.yul\":993:1111   */\n            tag_146:\n                /* \"#utility.yul\":1080:1104   */\n              tag_148\n                /* \"#utility.yul\":1098:1103   */\n              dup2\n                /* \"#utility.yul\":1080:1104   */\n              tag_149\n              jump\t// in\n            tag_148:\n                /* \"#utility.yul\":1075:1078   */\n              dup3\n                /* \"#utility.yul\":1068:1105   */\n              mstore\n                /* \"#utility.yul\":993:1111   */\n              pop\n              pop\n              jump\t// out\n                /* \"#utility.yul\":1117:1483   */\n            tag_150:\n                /* \"#utility.yul\":1259:1262   */\n              0x00\n                /* \"#utility.yul\":1280:1347   */\n              tag_152\n                /* \"#utility.yul\":1344:1346   */\n              0x15\n                /* \"#utility.yul\":1339:1342   */\n              dup4\n                /* \"#utility.yul\":1280:1347   */\n              tag_153\n              jump\t// in\n            tag_152:\n                /* \"#utility.yul\":1273:1347   */\n              swap2\n              pop\n                /* \"#utility.yul\":1356:1449   */\n              tag_154\n                /* \"#utility.yul\":1445:1448   */\n              dup3\n                /* \"#utility.yul\":1356:1449   */\n              tag_155\n              jump\t// in\n            tag_154:\n                /* \"#utility.yul\":1474:1476   */\n              0x20\n                /* \"#utility.yul\":1469:1472   */\n              dup3\n                /* \"#utility.yul\":1465:1477   */\n              add\n                /* \"#utility.yul\":1458:1477   */\n              swap1\n              pop\n                /* \"#utility.yul\":1117:1483   */\n              swap2\n              swap1\n              pop\n              jump\t// out\n                /* \"#utility.yul\":1489:1855   */\n            tag_156:\n                /* \"#utility.yul\":1631:1634   */\n              0x00\n                /* \"#utility.yul\":1652:1719   */\n              tag_158\n                /* \"#utility.yul\":1716:1718   */\n              0x27\n                /* \"#utility.yul\":1711:1714   */\n              dup4\n                /* \"#utility.yul\":1652:1719   */\n              tag_153\n              jump\t// in\n            tag_158:\n                /* \"#utility.yul\":1645:1719   */\n              swap2\n              pop\n                /* \"#utility.yul\":1728:1821   */\n              tag_159\n                /* \"#utility.yul\":1817:1820   */\n              dup3\n                /* \"#utility.yul\":1728:1821   */\n              tag_160\n              jump\t// in\n            tag_159:\n                /* \"#utility.yul\":1846:1848   */\n              0x40\n                /* \"#utility.yul\":1841:1844   */\n              dup3\n                /* \"#utility.yul\":1837:1849   */\n              add\n                /* \"#utility.yul\":1830:1849   */\n              swap1\n              pop\n                /* \"#utility.yul\":1489:1855   */\n              swap2\n              swap1\n              pop\n              jump\t// out\n                /* \"#utility.yul\":1861:2227   */\n            tag_161:\n                /* \"#utility.yul\":2003:2006   */\n              0x00\n                /* \"#utility.yul\":2024:2091   */\n              tag_163\n                /* \"#utility.yul\":2088:2090   */\n              0x28\n                /* \"#utility.yul\":2083:2086   */\n              dup4\n                /* \"#utility.yul\":2024:2091   */\n              tag_153\n              jump\t// in\n            tag_163:\n                /* \"#utility.yul\":2017:2091   */\n              swap2\n              pop\n                /* \"#utility.yul\":2100:2193   */\n              tag_164\n                /* \"#utility.yul\":2189:2192   */\n              dup3\n                /* \"#utility.yul\":2100:2193   */\n              tag_165\n              jump\t// in\n            tag_164:\n                /* \"#utility.yul\":2218:2220   */\n              0x40\n                /* \"#utility.yul\":2213:2216   */\n              dup3\n                /* \"#utility.yul\":2209:2221   */\n              add\n                /* \"#utility.yul\":2202:2221   */\n              swap1\n              pop\n                /* \"#utility.yul\":1861:2227   */\n              swap2\n              swap1\n              pop\n              jump\t// out\n                /* \"#utility.yul\":2233:2599   */\n            tag_166:\n                /* \"#utility.yul\":2375:2378   */\n              0x00\n                /* \"#utility.yul\":2396:2463   */\n              tag_168\n                /* \"#utility.yul\":2460:2462   */\n              0x2c\n                /* \"#utility.yul\":2455:2458   */\n              dup4\n                /* \"#utility.yul\":2396:2463   */\n              tag_153\n              jump\t// in\n            tag_168:\n                /* \"#utility.yul\":2389:2463   */\n              swap2\n              pop\n                /* \"#utility.yul\":2472:2565   */\n              tag_169\n                /* \"#utility.yul\":2561:2564   */\n              dup3\n                /* \"#utility.yul\":2472:2565   */\n              tag_170\n              jump\t// in\n            tag_169:\n                /* \"#utility.yul\":2590:2592   */\n              0x40\n                /* \"#utility.yul\":2585:2588   */\n              dup3\n                /* \"#utility.yul\":2581:2593   */\n              add\n                /* \"#utility.yul\":2574:2593   */\n              swap1\n              pop\n                /* \"#utility.yul\":2233:2599   */\n              swap2\n              swap1\n              pop\n              jump\t// out\n                /* \"#utility.yul\":2605:2971   */\n            tag_171:\n                /* \"#utility.yul\":2747:2750   */\n              0x00\n                /* \"#utility.yul\":2768:2835   */\n              tag_173\n                /* \"#utility.yul\":2832:2834   */\n              0x28\n                /* \"#utility.yul\":2827:2830   */\n              dup4\n                /* \"#utility.yul\":2768:2835   */\n              tag_153\n              jump\t// in\n            tag_173:\n                /* \"#utility.yul\":2761:2835   */\n              swap2\n              pop\n                /* \"#utility.yul\":2844:2937   */\n              tag_174\n                /* \"#utility.yul\":2933:2936   */\n              dup3\n                /* \"#utility.yul\":2844:2937   */\n              tag_175\n              jump\t// in\n            tag_174:\n                /* \"#utility.yul\":2962:2964   */\n              0x40\n                /* \"#utility.yul\":2957:2960   */\n              dup3\n                /* \"#utility.yul\":2953:2965   */\n              add\n                /* \"#utility.yul\":2946:2965   */\n              swap1\n              pop\n                /* \"#utility.yul\":2605:2971   */\n              swap2\n              swap1\n              pop\n              jump\t// out\n                /* \"#utility.yul\":2977:3095   */\n            tag_176:\n                /* \"#utility.yul\":3064:3088   */\n              tag_178\n                /* \"#utility.yul\":3082:3087   */\n              dup2\n                /* \"#utility.yul\":3064:3088   */\n              tag_179\n              jump\t// in\n            tag_178:\n                /* \"#utility.yul\":3059:3062   */\n              dup3\n                /* \"#utility.yul\":3052:3089   */\n              mstore\n                /* \"#utility.yul\":2977:3095   */\n              pop\n              pop\n              jump\t// out\n                /* \"#utility.yul\":3101:3323   */\n            tag_26:\n                /* \"#utility.yul\":3194:3198   */\n              0x00\n                /* \"#utility.yul\":3232:3234   */\n              0x20\n                /* \"#utility.yul\":3221:3230   */\n              dup3\n                /* \"#utility.yul\":3217:3235   */\n              add\n                /* \"#utility.yul\":3209:3235   */\n              swap1\n              pop\n                /* \"#utility.yul\":3245:3316   */\n              tag_181\n                /* \"#utility.yul\":3313:3314   */\n              0x00\n                /* \"#utility.yul\":3302:3311   */\n              dup4\n                /* \"#utility.yul\":3298:3315   */\n              add\n                /* \"#utility.yul\":3289:3295   */\n              dup5\n                /* \"#utility.yul\":3245:3316   */\n              tag_146\n              jump\t// in\n            tag_181:\n                /* \"#utility.yul\":3101:3323   */\n              swap3\n              swap2\n              pop\n              pop\n              jump\t// out\n                /* \"#utility.yul\":3329:3748   */\n            tag_109:\n                /* \"#utility.yul\":3495:3499   */\n              0x00\n                /* \"#utility.yul\":3533:3535   */\n              0x20\n                /* \"#utility.yul\":3522:3531   */\n              dup3\n                /* \"#utility.yul\":3518:3536   */\n              add\n                /* \"#utility.yul\":3510:3536   */\n              swap1\n              pop\n                /* \"#utility.yul\":3582:3591   */\n              dup2\n                /* \"#utility.yul\":3576:3580   */\n              dup2\n                /* \"#utility.yul\":3572:3592   */\n              sub\n                /* \"#utility.yul\":3568:3569   */\n              0x00\n                /* \"#utility.yul\":3557:3566   */\n              dup4\n                /* \"#utility.yul\":3553:3570   */\n              add\n                /* \"#utility.yul\":3546:3593   */\n              mstore\n                /* \"#utility.yul\":3610:3741   */\n              tag_183\n                /* \"#utility.yul\":3736:3740   */\n              dup2\n                /* \"#utility.yul\":3610:3741   */\n              tag_150\n              jump\t// in\n            tag_183:\n                /* \"#utility.yul\":3602:3741   */\n              swap1\n              pop\n                /* \"#utility.yul\":3329:3748   */\n              swap2\n              swap1\n              pop\n              jump\t// out\n                /* \"#utility.yul\":3754:4173   */\n            tag_78:\n                /* \"#utility.yul\":3920:3924   */\n              0x00\n                /* \"#utility.yul\":3958:3960   */\n              0x20\n                /* \"#utility.yul\":3947:3956   */\n              dup3\n                /* \"#utility.yul\":3943:3961   */\n              add\n                /* \"#utility.yul\":3935:3961   */\n              swap1\n              pop\n                /* \"#utility.yul\":4007:4016   */\n              dup2\n                /* \"#utility.yul\":4001:4005   */\n              dup2\n                /* \"#utility.yul\":3997:4017   */\n              sub\n                /* \"#utility.yul\":3993:3994   */\n              0x00\n                /* \"#utility.yul\":3982:3991   */\n              dup4\n                /* \"#utility.yul\":3978:3995   */\n              add\n                /* \"#utility.yul\":3971:4018   */\n              mstore\n                /* \"#utility.yul\":4035:4166   */\n              tag_185\n                /* \"#utility.yul\":4161:4165   */\n              dup2\n                /* \"#utility.yul\":4035:4166   */\n              tag_156\n              jump\t// in\n            tag_185:\n                /* \"#utility.yul\":4027:4166   */\n              swap1\n              pop\n                /* \"#utility.yul\":3754:4173   */\n              swap2\n              swap1\n              pop\n              jump\t// out\n                /* \"#utility.yul\":4179:4598   */\n            tag_105:\n                /* \"#utility.yul\":4345:4349   */\n              0x00\n                /* \"#utility.yul\":4383:4385   */\n              0x20\n                /* \"#utility.yul\":4372:4381   */\n              dup3\n                /* \"#utility.yul\":4368:4386   */\n              add\n                /* \"#utility.yul\":4360:4386   */\n              swap1\n              pop\n                /* \"#utility.yul\":4432:4441   */\n              dup2\n                /* \"#utility.yul\":4426:4430   */\n              dup2\n                /* \"#utility.yul\":4422:4442   */\n              sub\n                /* \"#utility.yul\":4418:4419   */\n              0x00\n                /* \"#utility.yul\":4407:4416   */\n              dup4\n                /* \"#utility.yul\":4403:4420   */\n              add\n                /* \"#utility.yul\":4396:4443   */\n              mstore\n                /* \"#utility.yul\":4460:4591   */\n              tag_187\n                /* \"#utility.yul\":4586:4590   */\n              dup2\n                /* \"#utility.yul\":4460:4591   */\n              tag_161\n              jump\t// in\n            tag_187:\n                /* \"#utility.yul\":4452:4591   */\n              swap1\n              pop\n                /* \"#utility.yul\":4179:4598   */\n              swap2\n              swap1\n              pop\n              jump\t// out\n                /* \"#utility.yul\":4604:5023   */\n            tag_82:\n                /* \"#utility.yul\":4770:4774   */\n              0x00\n                /* \"#utility.yul\":4808:4810   */\n              0x20\n                /* \"#utility.yul\":4797:4806   */\n              dup3\n                /* \"#utility.yul\":4793:4811   */\n              add\n                /* \"#utility.yul\":4785:4811   */\n              swap1\n              pop\n                /* \"#utility.yul\":4857:4866   */\n              dup2\n                /* \"#utility.yul\":4851:4855   */\n              dup2\n                /* \"#utility.yul\":4847:4867   */\n              sub\n                /* \"#utility.yul\":4843:4844   */\n              0x00\n                /* \"#utility.yul\":4832:4841   */\n              dup4\n                /* \"#utility.yul\":4828:4845   */\n              add\n                /* \"#utility.yul\":4821:4868   */\n              mstore\n                /* \"#utility.yul\":4885:5016   */\n              tag_189\n                /* \"#utility.yul\":5011:5015   */\n              dup2\n                /* \"#utility.yul\":4885:5016   */\n              tag_166\n              jump\t// in\n            tag_189:\n                /* \"#utility.yul\":4877:5016   */\n              swap1\n              pop\n                /* \"#utility.yul\":4604:5023   */\n              swap2\n              swap1\n              pop\n              jump\t// out\n                /* \"#utility.yul\":5029:5448   */\n            tag_92:\n                /* \"#utility.yul\":5195:5199   */\n              0x00\n                /* \"#utility.yul\":5233:5235   */\n              0x20\n                /* \"#utility.yul\":5222:5231   */\n              dup3\n                /* \"#utility.yul\":5218:5236   */\n              add\n                /* \"#utility.yul\":5210:5236   */\n              swap1\n              pop\n                /* \"#utility.yul\":5282:5291   */\n              dup2\n                /* \"#utility.yul\":5276:5280   */\n              dup2\n                /* \"#utility.yul\":5272:5292   */\n              sub\n                /* \"#utility.yul\":5268:5269   */\n              0x00\n                /* \"#utility.yul\":5257:5266   */\n              dup4\n                /* \"#utility.yul\":5253:5270   */\n              add\n                /* \"#utility.yul\":5246:5293   */\n              mstore\n                /* \"#utility.yul\":5310:5441   */\n              tag_191\n                /* \"#utility.yul\":5436:5440   */\n              dup2\n                /* \"#utility.yul\":5310:5441   */\n              tag_171\n              jump\t// in\n            tag_191:\n                /* \"#utility.yul\":5302:5441   */\n              swap1\n              pop\n                /* \"#utility.yul\":5029:5448   */\n              swap2\n              swap1\n              pop\n              jump\t// out\n                /* \"#utility.yul\":5454:5676   */\n            tag_35:\n                /* \"#utility.yul\":5547:5551   */\n              0x00\n                /* \"#utility.yul\":5585:5587   */\n              0x20\n                /* \"#utility.yul\":5574:5583   */\n              dup3\n                /* \"#utility.yul\":5570:5588   */\n              add\n                /* \"#utility.yul\":5562:5588   */\n              swap1\n              pop\n                /* \"#utility.yul\":5598:5669   */\n              tag_193\n                /* \"#utility.yul\":5666:5667   */\n              0x00\n                /* \"#utility.yul\":5655:5664   */\n              dup4\n                /* \"#utility.yul\":5651:5668   */\n              add\n                /* \"#utility.yul\":5642:5648   */\n              dup5\n                /* \"#utility.yul\":5598:5669   */\n              tag_176\n              jump\t// in\n            tag_193:\n                /* \"#utility.yul\":5454:5676   */\n              swap3\n              swap2\n              pop\n              pop\n              jump\t// out\n                /* \"#utility.yul\":5763:5932   */\n            tag_153:\n                /* \"#utility.yul\":5847:5858   */\n              0x00\n                /* \"#utility.yul\":5881:5887   */\n              dup3\n                /* \"#utility.yul\":5876:5879   */\n              dup3\n                /* \"#utility.yul\":5869:5888   */\n              mstore\n                /* \"#utility.yul\":5921:5925   */\n              0x20\n                /* \"#utility.yul\":5916:5919   */\n              dup3\n                /* \"#utility.yul\":5912:5926   */\n              add\n                /* \"#utility.yul\":5897:5926   */\n              swap1\n              pop\n                /* \"#utility.yul\":5763:5932   */\n              swap3\n              swap2\n              pop\n              pop\n              jump\t// out\n                /* \"#utility.yul\":5938:6034   */\n            tag_149:\n                /* \"#utility.yul\":5975:5982   */\n              0x00\n                /* \"#utility.yul\":6004:6028   */\n              tag_198\n                /* \"#utility.yul\":6022:6027   */\n              dup3\n                /* \"#utility.yul\":6004:6028   */\n              tag_199\n              jump\t// in\n            tag_198:\n                /* \"#utility.yul\":5993:6028   */\n              swap1\n              pop\n                /* \"#utility.yul\":5938:6034   */\n              swap2\n              swap1\n              pop\n              jump\t// out\n                /* \"#utility.yul\":6040:6166   */\n            tag_199:\n                /* \"#utility.yul\":6077:6084   */\n              0x00\n                /* \"#utility.yul\":6117:6159   */\n              0xffffffffffffffffffffffffffffffffffffffff\n                /* \"#utility.yul\":6110:6115   */\n              dup3\n                /* \"#utility.yul\":6106:6160   */\n              and\n                /* \"#utility.yul\":6095:6160   */\n              swap1\n              pop\n                /* \"#utility.yul\":6040:6166   */\n              swap2\n              swap1\n              pop\n              jump\t// out\n                /* \"#utility.yul\":6172:6249   */\n            tag_179:\n                /* \"#utility.yul\":6209:6216   */\n              0x00\n                /* \"#utility.yul\":6238:6243   */\n              dup2\n                /* \"#utility.yul\":6227:6243   */\n              swap1\n              pop\n                /* \"#utility.yul\":6172:6249   */\n              swap2\n              swap1\n              pop\n              jump\t// out\n                /* \"#utility.yul\":6255:6435   */\n            tag_87:\n                /* \"#utility.yul\":6303:6380   */\n              0x4e487b7100000000000000000000000000000000000000000000000000000000\n                /* \"#utility.yul\":6300:6301   */\n              0x00\n                /* \"#utility.yul\":6293:6381   */\n              mstore\n                /* \"#utility.yul\":6400:6404   */\n              0x21\n                /* \"#utility.yul\":6397:6398   */\n              0x04\n                /* \"#utility.yul\":6390:6405   */\n              mstore\n                /* \"#utility.yul\":6424:6428   */\n              0x24\n                /* \"#utility.yul\":6421:6422   */\n              0x00\n                /* \"#utility.yul\":6414:6429   */\n              revert\n                /* \"#utility.yul\":6564:6681   */\n            tag_140:\n                /* \"#utility.yul\":6673:6674   */\n              0x00\n                /* \"#utility.yul\":6670:6671   */\n              dup1\n                /* \"#utility.yul\":6663:6675   */\n              revert\n                /* \"#utility.yul\":6687:6858   */\n            tag_155:\n                /* \"#utility.yul\":6827:6850   */\n              0x546869732062657420686173206e6f2066756e64730000000000000000000000\n                /* \"#utility.yul\":6823:6824   */\n              0x00\n                /* \"#utility.yul\":6815:6821   */\n              dup3\n                /* \"#utility.yul\":6811:6825   */\n              add\n                /* \"#utility.yul\":6804:6851   */\n              mstore\n                /* \"#utility.yul\":6687:6858   */\n              pop\n              jump\t// out\n                /* \"#utility.yul\":6864:7090   */\n            tag_160:\n                /* \"#utility.yul\":7004:7038   */\n              0x4f6e6c7920626574206f776e6572732063616e206170706c7920746869732066\n                /* \"#utility.yul\":7000:7001   */\n              0x00\n                /* \"#utility.yul\":6992:6998   */\n              dup3\n                /* \"#utility.yul\":6988:7002   */\n              add\n                /* \"#utility.yul\":6981:7039   */\n              mstore\n                /* \"#utility.yul\":7073:7082   */\n              0x756e6374696f6e00000000000000000000000000000000000000000000000000\n                /* \"#utility.yul\":7068:7070   */\n              0x20\n                /* \"#utility.yul\":7060:7066   */\n              dup3\n                /* \"#utility.yul\":7056:7071   */\n              add\n                /* \"#utility.yul\":7049:7083   */\n              mstore\n                /* \"#utility.yul\":6864:7090   */\n              pop\n              jump\t// out\n                /* \"#utility.yul\":7096:7323   */\n            tag_165:\n                /* \"#utility.yul\":7236:7270   */\n              0x426574206d75737420626520776f6e206f722063616e63656c6c656420746f20\n                /* \"#utility.yul\":7232:7233   */\n              0x00\n                /* \"#utility.yul\":7224:7230   */\n              dup3\n                /* \"#utility.yul\":7220:7234   */\n              add\n                /* \"#utility.yul\":7213:7271   */\n              mstore\n                /* \"#utility.yul\":7305:7315   */\n              0x7769746864726177000000000000000000000000000000000000000000000000\n                /* \"#utility.yul\":7300:7302   */\n              0x20\n                /* \"#utility.yul\":7292:7298   */\n              dup3\n                /* \"#utility.yul\":7288:7303   */\n              add\n                /* \"#utility.yul\":7281:7316   */\n              mstore\n                /* \"#utility.yul\":7096:7323   */\n              pop\n              jump\t// out\n                /* \"#utility.yul\":7329:7560   */\n            tag_170:\n                /* \"#utility.yul\":7469:7503   */\n              0x596f752063616e206e6f74206d6f646966792062657420737461747573206d6f\n                /* \"#utility.yul\":7465:7466   */\n              0x00\n                /* \"#utility.yul\":7457:7463   */\n              dup3\n                /* \"#utility.yul\":7453:7467   */\n              add\n                /* \"#utility.yul\":7446:7504   */\n              mstore\n                /* \"#utility.yul\":7538:7552   */\n              0x7265207468616e206f6e63650000000000000000000000000000000000000000\n                /* \"#utility.yul\":7533:7535   */\n              0x20\n                /* \"#utility.yul\":7525:7531   */\n              dup3\n                /* \"#utility.yul\":7521:7536   */\n              add\n                /* \"#utility.yul\":7514:7553   */\n              mstore\n                /* \"#utility.yul\":7329:7560   */\n              pop\n              jump\t// out\n                /* \"#utility.yul\":7566:7793   */\n            tag_175:\n                /* \"#utility.yul\":7706:7740   */\n              0x4f6e6c79206576656e74206265747465722063616e2063616c6c207468697320\n                /* \"#utility.yul\":7702:7703   */\n              0x00\n                /* \"#utility.yul\":7694:7700   */\n              dup3\n                /* \"#utility.yul\":7690:7704   */\n              add\n                /* \"#utility.yul\":7683:7741   */\n              mstore\n                /* \"#utility.yul\":7775:7785   */\n              0x66756e6374696f6e000000000000000000000000000000000000000000000000\n                /* \"#utility.yul\":7770:7772   */\n              0x20\n                /* \"#utility.yul\":7762:7768   */\n              dup3\n                /* \"#utility.yul\":7758:7773   */\n              add\n                /* \"#utility.yul\":7751:7786   */\n              mstore\n                /* \"#utility.yul\":7566:7793   */\n              pop\n              jump\t// out\n                /* \"#utility.yul\":7799:7921   */\n            tag_132:\n                /* \"#utility.yul\":7872:7896   */\n              tag_212\n                /* \"#utility.yul\":7890:7895   */\n              dup2\n                /* \"#utility.yul\":7872:7896   */\n              tag_149\n              jump\t// in\n            tag_212:\n                /* \"#utility.yul\":7865:7870   */\n              dup2\n                /* \"#utility.yul\":7862:7897   */\n              eq\n                /* \"#utility.yul\":7852:7915   */\n              tag_213\n              jumpi\n                /* \"#utility.yul\":7911:7912   */\n              0x00\n                /* \"#utility.yul\":7908:7909   */\n              dup1\n                /* \"#utility.yul\":7901:7913   */\n              revert\n                /* \"#utility.yul\":7852:7915   */\n            tag_213:\n                /* \"#utility.yul\":7799:7921   */\n              pop\n              jump\t// out\n                /* \"#utility.yul\":7927:8049   */\n            tag_136:\n                /* \"#utility.yul\":8000:8024   */\n              tag_215\n                /* \"#utility.yul\":8018:8023   */\n              dup2\n                /* \"#utility.yul\":8000:8024   */\n              tag_179\n              jump\t// in\n            tag_215:\n                /* \"#utility.yul\":7993:7998   */\n              dup2\n                /* \"#utility.yul\":7990:8025   */\n              eq\n                /* \"#utility.yul\":7980:8043   */\n              tag_216\n              jumpi\n                /* \"#utility.yul\":8039:8040   */\n              0x00\n                /* \"#utility.yul\":8036:8037   */\n              dup1\n                /* \"#utility.yul\":8029:8041   */\n              revert\n                /* \"#utility.yul\":7980:8043   */\n            tag_216:\n                /* \"#utility.yul\":7927:8049   */\n              pop\n              jump\t// out\n\n            auxdata: 0xa26469706673582212201ca0c5d161669b10187978a283d3eeae9e34d874209696a0d4c81d4fa3509c4964736f6c63430008070033\n        }\n    }\n\n    auxdata: 0xa264697066735822122028c8114b5b00a41748e2004b53cc9bf39f7f4005070bbedbbc3ab87750f3980e64736f6c63430008070033\n}\n",
				"bytecode": {
					"linkReferences": {},
					"object": "608060405234801561001057600080fd5b50611557806100206000396000f3fe60806040523480156200001157600080fd5b50600436106200003a5760003560e01c80637700cb83146200003f578063fc6a691b1462000075575b600080fd5b6200005d600480360381019062000057919062000317565b620000ab565b6040516200006c919062000440565b60405180910390f35b6200009360048036038101906200008d9190620002e5565b620001db565b604051620000a2919062000507565b60405180910390f35b60008085858585604051620000c090620002a9565b620000cf9493929190620004ba565b604051809103906000f080158015620000ec573d6000803e3d6000fd5b5090506000803373ffffffffffffffffffffffffffffffffffffffff1673ffffffffffffffffffffffffffffffffffffffff168152602001908152602001600020819080600181540180825580915050600190039060005260206000200160009091909190916101000a81548173ffffffffffffffffffffffffffffffffffffffff021916908373ffffffffffffffffffffffffffffffffffffffff1602179055507f9726291d5c71d688e1f9eeefc86207b2fe84f09e6362dd075e12a7aba0834e313387878787604051620001c79594939291906200045d565b60405180910390a180915050949350505050565b60606000808373ffffffffffffffffffffffffffffffffffffffff1673ffffffffffffffffffffffffffffffffffffffff1681526020019081526020016000208054806020026020016040519081016040528092919081815260200182805480156200029d57602002820191906000526020600020905b8160009054906101000a900473ffffffffffffffffffffffffffffffffffffffff1673ffffffffffffffffffffffffffffffffffffffff168152602001906001019080831162000252575b50505050509050919050565b610f4680620005dc83390190565b600081359050620002c881620005a7565b92915050565b600081359050620002df81620005c1565b92915050565b600060208284031215620002fe57620002fd620005a2565b5b60006200030e84828501620002b7565b91505092915050565b60008060008060808587031215620003345762000333620005a2565b5b60006200034487828801620002b7565b94505060206200035787828801620002b7565b93505060406200036a87828801620002b7565b92505060606200037d87828801620002ce565b91505092959194509250565b6000620003978383620003a3565b60208301905092915050565b620003ae8162000564565b82525050565b620003bf8162000564565b82525050565b6000620003d2826200053b565b620003de818562000553565b9350620003eb836200052b565b8060005b838110156200042257815162000406888262000389565b9750620004138362000546565b925050600181019050620003ef565b5085935050505092915050565b6200043a8162000598565b82525050565b6000602082019050620004576000830184620003b4565b92915050565b600060a082019050620004746000830188620003b4565b620004836020830187620003b4565b620004926040830186620003b4565b620004a16060830185620003b4565b620004b060808301846200042f565b9695505050505050565b6000608082019050620004d16000830187620003b4565b620004e06020830186620003b4565b620004ef6040830185620003b4565b620004fe60608301846200042f565b95945050505050565b60006020820190508181036000830152620005238184620003c5565b905092915050565b6000819050602082019050919050565b600081519050919050565b6000602082019050919050565b600082825260208201905092915050565b6000620005718262000578565b9050919050565b600073ffffffffffffffffffffffffffffffffffffffff82169050919050565b6000819050919050565b600080fd5b620005b28162000564565b8114620005be57600080fd5b50565b620005cc8162000598565b8114620005d857600080fd5b5056fe608060405260006003556000600460146101000a81548160ff021916908360038111156200003257620000316200025c565b5b02179055503480156200004457600080fd5b5060405162000f4638038062000f4683398181016040528101906200006a9190620001ac565b83600160006101000a81548173ffffffffffffffffffffffffffffffffffffffff021916908373ffffffffffffffffffffffffffffffffffffffff16021790555082600260006101000a81548173ffffffffffffffffffffffffffffffffffffffff021916908373ffffffffffffffffffffffffffffffffffffffff16021790555080600581905550336000806101000a81548173ffffffffffffffffffffffffffffffffffffffff021916908373ffffffffffffffffffffffffffffffffffffffff16021790555081600460006101000a81548173ffffffffffffffffffffffffffffffffffffffff021916908373ffffffffffffffffffffffffffffffffffffffff16021790555050505050620002c4565b6000815190506200018f8162000290565b92915050565b600081519050620001a681620002aa565b92915050565b60008060008060808587031215620001c957620001c86200028b565b5b6000620001d9878288016200017e565b9450506020620001ec878288016200017e565b9350506040620001ff878288016200017e565b9250506060620002128782880162000195565b91505092959194509250565b60006200022b8262000232565b9050919050565b600073ffffffffffffffffffffffffffffffffffffffff82169050919050565b6000819050919050565b7f4e487b7100000000000000000000000000000000000000000000000000000000600052602160045260246000fd5b600080fd5b6200029b816200021e565b8114620002a757600080fd5b50565b620002b58162000252565b8114620002c157600080fd5b50565b610c7280620002d46000396000f3fe6080604052600436106100c25760003560e01c80634e69d5601161007f57806395623641116100595780639562364114610227578063b07a275414610252578063fad567791461027d578063fda51b17146102a8576100c2565b80634e69d560146101a657806351696127146101d1578063718c7d44146101fc576100c2565b80630ca5ba05146100c75780631755ff21146100f0578063262007c01461011b5780633a4b66f1146101465780633ccfd60b146101715780634d2124d41461017b575b600080fd5b3480156100d357600080fd5b506100ee60048036038101906100e99190610858565b6102d3565b005b3480156100fc57600080fd5b5061010561046a565b6040516101129190610952565b60405180910390f35b34801561012757600080fd5b50610130610490565b60405161013d9190610952565b60405180910390f35b34801561015257600080fd5b5061015b6104b9565b6040516101689190610a0d565b60405180910390f35b6101796104bf565b005b34801561018757600080fd5b5061019061068d565b60405161019d9190610a0d565b60405180910390f35b3480156101b257600080fd5b506101bb610697565b6040516101c89190610a0d565b60405180910390f35b3480156101dd57600080fd5b506101e66106c0565b6040516101f39190610952565b60405180910390f35b34801561020857600080fd5b506102116106ea565b60405161021e9190610952565b60405180910390f35b34801561023357600080fd5b5061023c61070e565b6040516102499190610952565b60405180910390f35b34801561025e57600080fd5b50610267610734565b6040516102749190610952565b60405180910390f35b34801561028957600080fd5b5061029261075e565b60405161029f9190610952565b60405180910390f35b3480156102b457600080fd5b506102bd610784565b6040516102ca9190610952565b60405180910390f35b6000600160009054906101000a900473ffffffffffffffffffffffffffffffffffffffff1690508073ffffffffffffffffffffffffffffffffffffffff1663179f907d6040518163ffffffff1660e01b8152600401602060405180830381600087803b15801561034257600080fd5b505af1158015610356573d6000803e3d6000fd5b505050506040513d601f19601f8201168201806040525081019061037a919061082b565b73ffffffffffffffffffffffffffffffffffffffff163373ffffffffffffffffffffffffffffffffffffffff16146103e7576040517f08c379a00000000000000000000000000000000000000000000000000000000081526004016103de9061098d565b60405180910390fd5b60006003541461042c576040517f08c379a0000000000000000000000000000000000000000000000000000000008152600401610423906109cd565b60405180910390fd5b610435826107ae565b600460146101000a81548160ff0219169083600381111561045957610458610a75565b5b021790555060016003819055505050565b600460009054906101000a900473ffffffffffffffffffffffffffffffffffffffff1681565b60008060009054906101000a900473ffffffffffffffffffffffffffffffffffffffff16905090565b60055481565b60008054906101000a900473ffffffffffffffffffffffffffffffffffffffff1673ffffffffffffffffffffffffffffffffffffffff163373ffffffffffffffffffffffffffffffffffffffff161461054d576040517f08c379a0000000000000000000000000000000000000000000000000000000008152600401610544906109ed565b60405180910390fd5b6002600381111561056157610560610a75565b5b600460149054906101000a900460ff16600381111561058357610582610a75565b5b14806105c257506001600381111561059e5761059d610a75565b5b600460149054906101000a900460ff1660038111156105c0576105bf610a75565b5b145b610601576040517f08c379a00000000000000000000000000000000000000000000000000000000081526004016105f8906109ad565b60405180910390fd5b60004711610644576040517f08c379a000000000000000000000000000000000000000000000000000000000815260040161063b9061096d565b60405180910390fd5b3373ffffffffffffffffffffffffffffffffffffffff166108fc479081150290604051600060405180830381858888f1935050505015801561068a573d6000803e3d6000fd5b50565b6000600554905090565b6000600460149054906101000a900460ff1660038111156106bb576106ba610a75565b5b905090565b6000600160009054906101000a900473ffffffffffffffffffffffffffffffffffffffff16905090565b60008054906101000a900473ffffffffffffffffffffffffffffffffffffffff1681565b600260009054906101000a900473ffffffffffffffffffffffffffffffffffffffff1681565b6000600460009054906101000a900473ffffffffffffffffffffffffffffffffffffffff16905090565b600160009054906101000a900473ffffffffffffffffffffffffffffffffffffffff1681565b6000600260009054906101000a900473ffffffffffffffffffffffffffffffffffffffff16905090565b6000808214156107c157600090506107fc565b60018214156107d357600190506107fc565b60028214156107e557600290506107fc565b60038214156107f757600390506107fc565b600090505b919050565b60008151905061081081610c0e565b92915050565b60008135905061082581610c25565b92915050565b60006020828403121561084157610840610aa4565b5b600061084f84828501610801565b91505092915050565b60006020828403121561086e5761086d610aa4565b5b600061087c84828501610816565b91505092915050565b61088e81610a39565b82525050565b60006108a1601583610a28565b91506108ac82610aa9565b602082019050919050565b60006108c4602783610a28565b91506108cf82610ad2565b604082019050919050565b60006108e7602883610a28565b91506108f282610b21565b604082019050919050565b600061090a602c83610a28565b915061091582610b70565b604082019050919050565b600061092d602883610a28565b915061093882610bbf565b604082019050919050565b61094c81610a6b565b82525050565b60006020820190506109676000830184610885565b92915050565b6000602082019050818103600083015261098681610894565b9050919050565b600060208201905081810360008301526109a6816108b7565b9050919050565b600060208201905081810360008301526109c6816108da565b9050919050565b600060208201905081810360008301526109e6816108fd565b9050919050565b60006020820190508181036000830152610a0681610920565b9050919050565b6000602082019050610a226000830184610943565b92915050565b600082825260208201905092915050565b6000610a4482610a4b565b9050919050565b600073ffffffffffffffffffffffffffffffffffffffff82169050919050565b6000819050919050565b7f4e487b7100000000000000000000000000000000000000000000000000000000600052602160045260246000fd5b600080fd5b7f546869732062657420686173206e6f2066756e64730000000000000000000000600082015250565b7f4f6e6c7920626574206f776e6572732063616e206170706c792074686973206660008201527f756e6374696f6e00000000000000000000000000000000000000000000000000602082015250565b7f426574206d75737420626520776f6e206f722063616e63656c6c656420746f2060008201527f7769746864726177000000000000000000000000000000000000000000000000602082015250565b7f596f752063616e206e6f74206d6f646966792062657420737461747573206d6f60008201527f7265207468616e206f6e63650000000000000000000000000000000000000000602082015250565b7f4f6e6c79206576656e74206265747465722063616e2063616c6c20746869732060008201527f66756e6374696f6e000000000000000000000000000000000000000000000000602082015250565b610c1781610a39565b8114610c2257600080fd5b50565b610c2e81610a6b565b8114610c3957600080fd5b5056fea26469706673582212201ca0c5d161669b10187978a283d3eeae9e34d874209696a0d4c81d4fa3509c4964736f6c63430008070033a264697066735822122028c8114b5b00a41748e2004b53cc9bf39f7f4005070bbedbbc3ab87750f3980e64736f6c63430008070033",
					"opcodes": "PUSH1 0x80 PUSH1 0x40 MSTORE CALLVALUE DUP1 ISZERO PUSH2 0x10 JUMPI PUSH1 0x0 DUP1 REVERT JUMPDEST POP PUSH2 0x1557 DUP1 PUSH2 0x20 PUSH1 0x0 CODECOPY PUSH1 0x0 RETURN INVALID PUSH1 0x80 PUSH1 0x40 MSTORE CALLVALUE DUP1 ISZERO PUSH3 0x11 JUMPI PUSH1 0x0 DUP1 REVERT JUMPDEST POP PUSH1 0x4 CALLDATASIZE LT PUSH3 0x3A JUMPI PUSH1 0x0 CALLDATALOAD PUSH1 0xE0 SHR DUP1 PUSH4 0x7700CB83 EQ PUSH3 0x3F JUMPI DUP1 PUSH4 0xFC6A691B EQ PUSH3 0x75 JUMPI JUMPDEST PUSH1 0x0 DUP1 REVERT JUMPDEST PUSH3 0x5D PUSH1 0x4 DUP1 CALLDATASIZE SUB DUP2 ADD SWAP1 PUSH3 0x57 SWAP2 SWAP1 PUSH3 0x317 JUMP JUMPDEST PUSH3 0xAB JUMP JUMPDEST PUSH1 0x40 MLOAD PUSH3 0x6C SWAP2 SWAP1 PUSH3 0x440 JUMP JUMPDEST PUSH1 0x40 MLOAD DUP1 SWAP2 SUB SWAP1 RETURN JUMPDEST PUSH3 0x93 PUSH1 0x4 DUP1 CALLDATASIZE SUB DUP2 ADD SWAP1 PUSH3 0x8D SWAP2 SWAP1 PUSH3 0x2E5 JUMP JUMPDEST PUSH3 0x1DB JUMP JUMPDEST PUSH1 0x40 MLOAD PUSH3 0xA2 SWAP2 SWAP1 PUSH3 0x507 JUMP JUMPDEST PUSH1 0x40 MLOAD DUP1 SWAP2 SUB SWAP1 RETURN JUMPDEST PUSH1 0x0 DUP1 DUP6 DUP6 DUP6 DUP6 PUSH1 0x40 MLOAD PUSH3 0xC0 SWAP1 PUSH3 0x2A9 JUMP JUMPDEST PUSH3 0xCF SWAP5 SWAP4 SWAP3 SWAP2 SWAP1 PUSH3 0x4BA JUMP JUMPDEST PUSH1 0x40 MLOAD DUP1 SWAP2 SUB SWAP1 PUSH1 0x0 CREATE DUP1 ISZERO DUP1 ISZERO PUSH3 0xEC JUMPI RETURNDATASIZE PUSH1 0x0 DUP1 RETURNDATACOPY RETURNDATASIZE PUSH1 0x0 REVERT JUMPDEST POP SWAP1 POP PUSH1 0x0 DUP1 CALLER PUSH20 0xFFFFFFFFFFFFFFFFFFFFFFFFFFFFFFFFFFFFFFFF AND PUSH20 0xFFFFFFFFFFFFFFFFFFFFFFFFFFFFFFFFFFFFFFFF AND DUP2 MSTORE PUSH1 0x20 ADD SWAP1 DUP2 MSTORE PUSH1 0x20 ADD PUSH1 0x0 KECCAK256 DUP2 SWAP1 DUP1 PUSH1 0x1 DUP2 SLOAD ADD DUP1 DUP3 SSTORE DUP1 SWAP2 POP POP PUSH1 0x1 SWAP1 SUB SWAP1 PUSH1 0x0 MSTORE PUSH1 0x20 PUSH1 0x0 KECCAK256 ADD PUSH1 0x0 SWAP1 SWAP2 SWAP1 SWAP2 SWAP1 SWAP2 PUSH2 0x100 EXP DUP2 SLOAD DUP2 PUSH20 0xFFFFFFFFFFFFFFFFFFFFFFFFFFFFFFFFFFFFFFFF MUL NOT AND SWAP1 DUP4 PUSH20 0xFFFFFFFFFFFFFFFFFFFFFFFFFFFFFFFFFFFFFFFF AND MUL OR SWAP1 SSTORE POP PUSH32 0x9726291D5C71D688E1F9EEEFC86207B2FE84F09E6362DD075E12A7ABA0834E31 CALLER DUP8 DUP8 DUP8 DUP8 PUSH1 0x40 MLOAD PUSH3 0x1C7 SWAP6 SWAP5 SWAP4 SWAP3 SWAP2 SWAP1 PUSH3 0x45D JUMP JUMPDEST PUSH1 0x40 MLOAD DUP1 SWAP2 SUB SWAP1 LOG1 DUP1 SWAP2 POP POP SWAP5 SWAP4 POP POP POP POP JUMP JUMPDEST PUSH1 0x60 PUSH1 0x0 DUP1 DUP4 PUSH20 0xFFFFFFFFFFFFFFFFFFFFFFFFFFFFFFFFFFFFFFFF AND PUSH20 0xFFFFFFFFFFFFFFFFFFFFFFFFFFFFFFFFFFFFFFFF AND DUP2 MSTORE PUSH1 0x20 ADD SWAP1 DUP2 MSTORE PUSH1 0x20 ADD PUSH1 0x0 KECCAK256 DUP1 SLOAD DUP1 PUSH1 0x20 MUL PUSH1 0x20 ADD PUSH1 0x40 MLOAD SWAP1 DUP2 ADD PUSH1 0x40 MSTORE DUP1 SWAP3 SWAP2 SWAP1 DUP2 DUP2 MSTORE PUSH1 0x20 ADD DUP3 DUP1 SLOAD DUP1 ISZERO PUSH3 0x29D JUMPI PUSH1 0x20 MUL DUP3 ADD SWAP2 SWAP1 PUSH1 0x0 MSTORE PUSH1 0x20 PUSH1 0x0 KECCAK256 SWAP1 JUMPDEST DUP2 PUSH1 0x0 SWAP1 SLOAD SWAP1 PUSH2 0x100 EXP SWAP1 DIV PUSH20 0xFFFFFFFFFFFFFFFFFFFFFFFFFFFFFFFFFFFFFFFF AND PUSH20 0xFFFFFFFFFFFFFFFFFFFFFFFFFFFFFFFFFFFFFFFF AND DUP2 MSTORE PUSH1 0x20 ADD SWAP1 PUSH1 0x1 ADD SWAP1 DUP1 DUP4 GT PUSH3 0x252 JUMPI JUMPDEST POP POP POP POP POP SWAP1 POP SWAP2 SWAP1 POP JUMP JUMPDEST PUSH2 0xF46 DUP1 PUSH3 0x5DC DUP4 CODECOPY ADD SWAP1 JUMP JUMPDEST PUSH1 0x0 DUP2 CALLDATALOAD SWAP1 POP PUSH3 0x2C8 DUP2 PUSH3 0x5A7 JUMP JUMPDEST SWAP3 SWAP2 POP POP JUMP JUMPDEST PUSH1 0x0 DUP2 CALLDATALOAD SWAP1 POP PUSH3 0x2DF DUP2 PUSH3 0x5C1 JUMP JUMPDEST SWAP3 SWAP2 POP POP JUMP JUMPDEST PUSH1 0x0 PUSH1 0x20 DUP3 DUP5 SUB SLT ISZERO PUSH3 0x2FE JUMPI PUSH3 0x2FD PUSH3 0x5A2 JUMP JUMPDEST JUMPDEST PUSH1 0x0 PUSH3 0x30E DUP5 DUP3 DUP6 ADD PUSH3 0x2B7 JUMP JUMPDEST SWAP2 POP POP SWAP3 SWAP2 POP POP JUMP JUMPDEST PUSH1 0x0 DUP1 PUSH1 0x0 DUP1 PUSH1 0x80 DUP6 DUP8 SUB SLT ISZERO PUSH3 0x334 JUMPI PUSH3 0x333 PUSH3 0x5A2 JUMP JUMPDEST JUMPDEST PUSH1 0x0 PUSH3 0x344 DUP8 DUP3 DUP9 ADD PUSH3 0x2B7 JUMP JUMPDEST SWAP5 POP POP PUSH1 0x20 PUSH3 0x357 DUP8 DUP3 DUP9 ADD PUSH3 0x2B7 JUMP JUMPDEST SWAP4 POP POP PUSH1 0x40 PUSH3 0x36A DUP8 DUP3 DUP9 ADD PUSH3 0x2B7 JUMP JUMPDEST SWAP3 POP POP PUSH1 0x60 PUSH3 0x37D DUP8 DUP3 DUP9 ADD PUSH3 0x2CE JUMP JUMPDEST SWAP2 POP POP SWAP3 SWAP6 SWAP2 SWAP5 POP SWAP3 POP JUMP JUMPDEST PUSH1 0x0 PUSH3 0x397 DUP4 DUP4 PUSH3 0x3A3 JUMP JUMPDEST PUSH1 0x20 DUP4 ADD SWAP1 POP SWAP3 SWAP2 POP POP JUMP JUMPDEST PUSH3 0x3AE DUP2 PUSH3 0x564 JUMP JUMPDEST DUP3 MSTORE POP POP JUMP JUMPDEST PUSH3 0x3BF DUP2 PUSH3 0x564 JUMP JUMPDEST DUP3 MSTORE POP POP JUMP JUMPDEST PUSH1 0x0 PUSH3 0x3D2 DUP3 PUSH3 0x53B JUMP JUMPDEST PUSH3 0x3DE DUP2 DUP6 PUSH3 0x553 JUMP JUMPDEST SWAP4 POP PUSH3 0x3EB DUP4 PUSH3 0x52B JUMP JUMPDEST DUP1 PUSH1 0x0 JUMPDEST DUP4 DUP2 LT ISZERO PUSH3 0x422 JUMPI DUP2 MLOAD PUSH3 0x406 DUP9 DUP3 PUSH3 0x389 JUMP JUMPDEST SWAP8 POP PUSH3 0x413 DUP4 PUSH3 0x546 JUMP JUMPDEST SWAP3 POP POP PUSH1 0x1 DUP2 ADD SWAP1 POP PUSH3 0x3EF JUMP JUMPDEST POP DUP6 SWAP4 POP POP POP POP SWAP3 SWAP2 POP POP JUMP JUMPDEST PUSH3 0x43A DUP2 PUSH3 0x598 JUMP JUMPDEST DUP3 MSTORE POP POP JUMP JUMPDEST PUSH1 0x0 PUSH1 0x20 DUP3 ADD SWAP1 POP PUSH3 0x457 PUSH1 0x0 DUP4 ADD DUP5 PUSH3 0x3B4 JUMP JUMPDEST SWAP3 SWAP2 POP POP JUMP JUMPDEST PUSH1 0x0 PUSH1 0xA0 DUP3 ADD SWAP1 POP PUSH3 0x474 PUSH1 0x0 DUP4 ADD DUP9 PUSH3 0x3B4 JUMP JUMPDEST PUSH3 0x483 PUSH1 0x20 DUP4 ADD DUP8 PUSH3 0x3B4 JUMP JUMPDEST PUSH3 0x492 PUSH1 0x40 DUP4 ADD DUP7 PUSH3 0x3B4 JUMP JUMPDEST PUSH3 0x4A1 PUSH1 0x60 DUP4 ADD DUP6 PUSH3 0x3B4 JUMP JUMPDEST PUSH3 0x4B0 PUSH1 0x80 DUP4 ADD DUP5 PUSH3 0x42F JUMP JUMPDEST SWAP7 SWAP6 POP POP POP POP POP POP JUMP JUMPDEST PUSH1 0x0 PUSH1 0x80 DUP3 ADD SWAP1 POP PUSH3 0x4D1 PUSH1 0x0 DUP4 ADD DUP8 PUSH3 0x3B4 JUMP JUMPDEST PUSH3 0x4E0 PUSH1 0x20 DUP4 ADD DUP7 PUSH3 0x3B4 JUMP JUMPDEST PUSH3 0x4EF PUSH1 0x40 DUP4 ADD DUP6 PUSH3 0x3B4 JUMP JUMPDEST PUSH3 0x4FE PUSH1 0x60 DUP4 ADD DUP5 PUSH3 0x42F JUMP JUMPDEST SWAP6 SWAP5 POP POP POP POP POP JUMP JUMPDEST PUSH1 0x0 PUSH1 0x20 DUP3 ADD SWAP1 POP DUP2 DUP2 SUB PUSH1 0x0 DUP4 ADD MSTORE PUSH3 0x523 DUP2 DUP5 PUSH3 0x3C5 JUMP JUMPDEST SWAP1 POP SWAP3 SWAP2 POP POP JUMP JUMPDEST PUSH1 0x0 DUP2 SWAP1 POP PUSH1 0x20 DUP3 ADD SWAP1 POP SWAP2 SWAP1 POP JUMP JUMPDEST PUSH1 0x0 DUP2 MLOAD SWAP1 POP SWAP2 SWAP1 POP JUMP JUMPDEST PUSH1 0x0 PUSH1 0x20 DUP3 ADD SWAP1 POP SWAP2 SWAP1 POP JUMP JUMPDEST PUSH1 0x0 DUP3 DUP3 MSTORE PUSH1 0x20 DUP3 ADD SWAP1 POP SWAP3 SWAP2 POP POP JUMP JUMPDEST PUSH1 0x0 PUSH3 0x571 DUP3 PUSH3 0x578 JUMP JUMPDEST SWAP1 POP SWAP2 SWAP1 POP JUMP JUMPDEST PUSH1 0x0 PUSH20 0xFFFFFFFFFFFFFFFFFFFFFFFFFFFFFFFFFFFFFFFF DUP3 AND SWAP1 POP SWAP2 SWAP1 POP JUMP JUMPDEST PUSH1 0x0 DUP2 SWAP1 POP SWAP2 SWAP1 POP JUMP JUMPDEST PUSH1 0x0 DUP1 REVERT JUMPDEST PUSH3 0x5B2 DUP2 PUSH3 0x564 JUMP JUMPDEST DUP2 EQ PUSH3 0x5BE JUMPI PUSH1 0x0 DUP1 REVERT JUMPDEST POP JUMP JUMPDEST PUSH3 0x5CC DUP2 PUSH3 0x598 JUMP JUMPDEST DUP2 EQ PUSH3 0x5D8 JUMPI PUSH1 0x0 DUP1 REVERT JUMPDEST POP JUMP INVALID PUSH1 0x80 PUSH1 0x40 MSTORE PUSH1 0x0 PUSH1 0x3 SSTORE PUSH1 0x0 PUSH1 0x4 PUSH1 0x14 PUSH2 0x100 EXP DUP2 SLOAD DUP2 PUSH1 0xFF MUL NOT AND SWAP1 DUP4 PUSH1 0x3 DUP2 GT ISZERO PUSH3 0x32 JUMPI PUSH3 0x31 PUSH3 0x25C JUMP JUMPDEST JUMPDEST MUL OR SWAP1 SSTORE POP CALLVALUE DUP1 ISZERO PUSH3 0x44 JUMPI PUSH1 0x0 DUP1 REVERT JUMPDEST POP PUSH1 0x40 MLOAD PUSH3 0xF46 CODESIZE SUB DUP1 PUSH3 0xF46 DUP4 CODECOPY DUP2 DUP2 ADD PUSH1 0x40 MSTORE DUP2 ADD SWAP1 PUSH3 0x6A SWAP2 SWAP1 PUSH3 0x1AC JUMP JUMPDEST DUP4 PUSH1 0x1 PUSH1 0x0 PUSH2 0x100 EXP DUP2 SLOAD DUP2 PUSH20 0xFFFFFFFFFFFFFFFFFFFFFFFFFFFFFFFFFFFFFFFF MUL NOT AND SWAP1 DUP4 PUSH20 0xFFFFFFFFFFFFFFFFFFFFFFFFFFFFFFFFFFFFFFFF AND MUL OR SWAP1 SSTORE POP DUP3 PUSH1 0x2 PUSH1 0x0 PUSH2 0x100 EXP DUP2 SLOAD DUP2 PUSH20 0xFFFFFFFFFFFFFFFFFFFFFFFFFFFFFFFFFFFFFFFF MUL NOT AND SWAP1 DUP4 PUSH20 0xFFFFFFFFFFFFFFFFFFFFFFFFFFFFFFFFFFFFFFFF AND MUL OR SWAP1 SSTORE POP DUP1 PUSH1 0x5 DUP2 SWAP1 SSTORE POP CALLER PUSH1 0x0 DUP1 PUSH2 0x100 EXP DUP2 SLOAD DUP2 PUSH20 0xFFFFFFFFFFFFFFFFFFFFFFFFFFFFFFFFFFFFFFFF MUL NOT AND SWAP1 DUP4 PUSH20 0xFFFFFFFFFFFFFFFFFFFFFFFFFFFFFFFFFFFFFFFF AND MUL OR SWAP1 SSTORE POP DUP2 PUSH1 0x4 PUSH1 0x0 PUSH2 0x100 EXP DUP2 SLOAD DUP2 PUSH20 0xFFFFFFFFFFFFFFFFFFFFFFFFFFFFFFFFFFFFFFFF MUL NOT AND SWAP1 DUP4 PUSH20 0xFFFFFFFFFFFFFFFFFFFFFFFFFFFFFFFFFFFFFFFF AND MUL OR SWAP1 SSTORE POP POP POP POP POP PUSH3 0x2C4 JUMP JUMPDEST PUSH1 0x0 DUP2 MLOAD SWAP1 POP PUSH3 0x18F DUP2 PUSH3 0x290 JUMP JUMPDEST SWAP3 SWAP2 POP POP JUMP JUMPDEST PUSH1 0x0 DUP2 MLOAD SWAP1 POP PUSH3 0x1A6 DUP2 PUSH3 0x2AA JUMP JUMPDEST SWAP3 SWAP2 POP POP JUMP JUMPDEST PUSH1 0x0 DUP1 PUSH1 0x0 DUP1 PUSH1 0x80 DUP6 DUP8 SUB SLT ISZERO PUSH3 0x1C9 JUMPI PUSH3 0x1C8 PUSH3 0x28B JUMP JUMPDEST JUMPDEST PUSH1 0x0 PUSH3 0x1D9 DUP8 DUP3 DUP9 ADD PUSH3 0x17E JUMP JUMPDEST SWAP5 POP POP PUSH1 0x20 PUSH3 0x1EC DUP8 DUP3 DUP9 ADD PUSH3 0x17E JUMP JUMPDEST SWAP4 POP POP PUSH1 0x40 PUSH3 0x1FF DUP8 DUP3 DUP9 ADD PUSH3 0x17E JUMP JUMPDEST SWAP3 POP POP PUSH1 0x60 PUSH3 0x212 DUP8 DUP3 DUP9 ADD PUSH3 0x195 JUMP JUMPDEST SWAP2 POP POP SWAP3 SWAP6 SWAP2 SWAP5 POP SWAP3 POP JUMP JUMPDEST PUSH1 0x0 PUSH3 0x22B DUP3 PUSH3 0x232 JUMP JUMPDEST SWAP1 POP SWAP2 SWAP1 POP JUMP JUMPDEST PUSH1 0x0 PUSH20 0xFFFFFFFFFFFFFFFFFFFFFFFFFFFFFFFFFFFFFFFF DUP3 AND SWAP1 POP SWAP2 SWAP1 POP JUMP JUMPDEST PUSH1 0x0 DUP2 SWAP1 POP SWAP2 SWAP1 POP JUMP JUMPDEST PUSH32 0x4E487B7100000000000000000000000000000000000000000000000000000000 PUSH1 0x0 MSTORE PUSH1 0x21 PUSH1 0x4 MSTORE PUSH1 0x24 PUSH1 0x0 REVERT JUMPDEST PUSH1 0x0 DUP1 REVERT JUMPDEST PUSH3 0x29B DUP2 PUSH3 0x21E JUMP JUMPDEST DUP2 EQ PUSH3 0x2A7 JUMPI PUSH1 0x0 DUP1 REVERT JUMPDEST POP JUMP JUMPDEST PUSH3 0x2B5 DUP2 PUSH3 0x252 JUMP JUMPDEST DUP2 EQ PUSH3 0x2C1 JUMPI PUSH1 0x0 DUP1 REVERT JUMPDEST POP JUMP JUMPDEST PUSH2 0xC72 DUP1 PUSH3 0x2D4 PUSH1 0x0 CODECOPY PUSH1 0x0 RETURN INVALID PUSH1 0x80 PUSH1 0x40 MSTORE PUSH1 0x4 CALLDATASIZE LT PUSH2 0xC2 JUMPI PUSH1 0x0 CALLDATALOAD PUSH1 0xE0 SHR DUP1 PUSH4 0x4E69D560 GT PUSH2 0x7F JUMPI DUP1 PUSH4 0x95623641 GT PUSH2 0x59 JUMPI DUP1 PUSH4 0x95623641 EQ PUSH2 0x227 JUMPI DUP1 PUSH4 0xB07A2754 EQ PUSH2 0x252 JUMPI DUP1 PUSH4 0xFAD56779 EQ PUSH2 0x27D JUMPI DUP1 PUSH4 0xFDA51B17 EQ PUSH2 0x2A8 JUMPI PUSH2 0xC2 JUMP JUMPDEST DUP1 PUSH4 0x4E69D560 EQ PUSH2 0x1A6 JUMPI DUP1 PUSH4 0x51696127 EQ PUSH2 0x1D1 JUMPI DUP1 PUSH4 0x718C7D44 EQ PUSH2 0x1FC JUMPI PUSH2 0xC2 JUMP JUMPDEST DUP1 PUSH4 0xCA5BA05 EQ PUSH2 0xC7 JUMPI DUP1 PUSH4 0x1755FF21 EQ PUSH2 0xF0 JUMPI DUP1 PUSH4 0x262007C0 EQ PUSH2 0x11B JUMPI DUP1 PUSH4 0x3A4B66F1 EQ PUSH2 0x146 JUMPI DUP1 PUSH4 0x3CCFD60B EQ PUSH2 0x171 JUMPI DUP1 PUSH4 0x4D2124D4 EQ PUSH2 0x17B JUMPI JUMPDEST PUSH1 0x0 DUP1 REVERT JUMPDEST CALLVALUE DUP1 ISZERO PUSH2 0xD3 JUMPI PUSH1 0x0 DUP1 REVERT JUMPDEST POP PUSH2 0xEE PUSH1 0x4 DUP1 CALLDATASIZE SUB DUP2 ADD SWAP1 PUSH2 0xE9 SWAP2 SWAP1 PUSH2 0x858 JUMP JUMPDEST PUSH2 0x2D3 JUMP JUMPDEST STOP JUMPDEST CALLVALUE DUP1 ISZERO PUSH2 0xFC JUMPI PUSH1 0x0 DUP1 REVERT JUMPDEST POP PUSH2 0x105 PUSH2 0x46A JUMP JUMPDEST PUSH1 0x40 MLOAD PUSH2 0x112 SWAP2 SWAP1 PUSH2 0x952 JUMP JUMPDEST PUSH1 0x40 MLOAD DUP1 SWAP2 SUB SWAP1 RETURN JUMPDEST CALLVALUE DUP1 ISZERO PUSH2 0x127 JUMPI PUSH1 0x0 DUP1 REVERT JUMPDEST POP PUSH2 0x130 PUSH2 0x490 JUMP JUMPDEST PUSH1 0x40 MLOAD PUSH2 0x13D SWAP2 SWAP1 PUSH2 0x952 JUMP JUMPDEST PUSH1 0x40 MLOAD DUP1 SWAP2 SUB SWAP1 RETURN JUMPDEST CALLVALUE DUP1 ISZERO PUSH2 0x152 JUMPI PUSH1 0x0 DUP1 REVERT JUMPDEST POP PUSH2 0x15B PUSH2 0x4B9 JUMP JUMPDEST PUSH1 0x40 MLOAD PUSH2 0x168 SWAP2 SWAP1 PUSH2 0xA0D JUMP JUMPDEST PUSH1 0x40 MLOAD DUP1 SWAP2 SUB SWAP1 RETURN JUMPDEST PUSH2 0x179 PUSH2 0x4BF JUMP JUMPDEST STOP JUMPDEST CALLVALUE DUP1 ISZERO PUSH2 0x187 JUMPI PUSH1 0x0 DUP1 REVERT JUMPDEST POP PUSH2 0x190 PUSH2 0x68D JUMP JUMPDEST PUSH1 0x40 MLOAD PUSH2 0x19D SWAP2 SWAP1 PUSH2 0xA0D JUMP JUMPDEST PUSH1 0x40 MLOAD DUP1 SWAP2 SUB SWAP1 RETURN JUMPDEST CALLVALUE DUP1 ISZERO PUSH2 0x1B2 JUMPI PUSH1 0x0 DUP1 REVERT JUMPDEST POP PUSH2 0x1BB PUSH2 0x697 JUMP JUMPDEST PUSH1 0x40 MLOAD PUSH2 0x1C8 SWAP2 SWAP1 PUSH2 0xA0D JUMP JUMPDEST PUSH1 0x40 MLOAD DUP1 SWAP2 SUB SWAP1 RETURN JUMPDEST CALLVALUE DUP1 ISZERO PUSH2 0x1DD JUMPI PUSH1 0x0 DUP1 REVERT JUMPDEST POP PUSH2 0x1E6 PUSH2 0x6C0 JUMP JUMPDEST PUSH1 0x40 MLOAD PUSH2 0x1F3 SWAP2 SWAP1 PUSH2 0x952 JUMP JUMPDEST PUSH1 0x40 MLOAD DUP1 SWAP2 SUB SWAP1 RETURN JUMPDEST CALLVALUE DUP1 ISZERO PUSH2 0x208 JUMPI PUSH1 0x0 DUP1 REVERT JUMPDEST POP PUSH2 0x211 PUSH2 0x6EA JUMP JUMPDEST PUSH1 0x40 MLOAD PUSH2 0x21E SWAP2 SWAP1 PUSH2 0x952 JUMP JUMPDEST PUSH1 0x40 MLOAD DUP1 SWAP2 SUB SWAP1 RETURN JUMPDEST CALLVALUE DUP1 ISZERO PUSH2 0x233 JUMPI PUSH1 0x0 DUP1 REVERT JUMPDEST POP PUSH2 0x23C PUSH2 0x70E JUMP JUMPDEST PUSH1 0x40 MLOAD PUSH2 0x249 SWAP2 SWAP1 PUSH2 0x952 JUMP JUMPDEST PUSH1 0x40 MLOAD DUP1 SWAP2 SUB SWAP1 RETURN JUMPDEST CALLVALUE DUP1 ISZERO PUSH2 0x25E JUMPI PUSH1 0x0 DUP1 REVERT JUMPDEST POP PUSH2 0x267 PUSH2 0x734 JUMP JUMPDEST PUSH1 0x40 MLOAD PUSH2 0x274 SWAP2 SWAP1 PUSH2 0x952 JUMP JUMPDEST PUSH1 0x40 MLOAD DUP1 SWAP2 SUB SWAP1 RETURN JUMPDEST CALLVALUE DUP1 ISZERO PUSH2 0x289 JUMPI PUSH1 0x0 DUP1 REVERT JUMPDEST POP PUSH2 0x292 PUSH2 0x75E JUMP JUMPDEST PUSH1 0x40 MLOAD PUSH2 0x29F SWAP2 SWAP1 PUSH2 0x952 JUMP JUMPDEST PUSH1 0x40 MLOAD DUP1 SWAP2 SUB SWAP1 RETURN JUMPDEST CALLVALUE DUP1 ISZERO PUSH2 0x2B4 JUMPI PUSH1 0x0 DUP1 REVERT JUMPDEST POP PUSH2 0x2BD PUSH2 0x784 JUMP JUMPDEST PUSH1 0x40 MLOAD PUSH2 0x2CA SWAP2 SWAP1 PUSH2 0x952 JUMP JUMPDEST PUSH1 0x40 MLOAD DUP1 SWAP2 SUB SWAP1 RETURN JUMPDEST PUSH1 0x0 PUSH1 0x1 PUSH1 0x0 SWAP1 SLOAD SWAP1 PUSH2 0x100 EXP SWAP1 DIV PUSH20 0xFFFFFFFFFFFFFFFFFFFFFFFFFFFFFFFFFFFFFFFF AND SWAP1 POP DUP1 PUSH20 0xFFFFFFFFFFFFFFFFFFFFFFFFFFFFFFFFFFFFFFFF AND PUSH4 0x179F907D PUSH1 0x40 MLOAD DUP2 PUSH4 0xFFFFFFFF AND PUSH1 0xE0 SHL DUP2 MSTORE PUSH1 0x4 ADD PUSH1 0x20 PUSH1 0x40 MLOAD DUP1 DUP4 SUB DUP2 PUSH1 0x0 DUP8 DUP1 EXTCODESIZE ISZERO DUP1 ISZERO PUSH2 0x342 JUMPI PUSH1 0x0 DUP1 REVERT JUMPDEST POP GAS CALL ISZERO DUP1 ISZERO PUSH2 0x356 JUMPI RETURNDATASIZE PUSH1 0x0 DUP1 RETURNDATACOPY RETURNDATASIZE PUSH1 0x0 REVERT JUMPDEST POP POP POP POP PUSH1 0x40 MLOAD RETURNDATASIZE PUSH1 0x1F NOT PUSH1 0x1F DUP3 ADD AND DUP3 ADD DUP1 PUSH1 0x40 MSTORE POP DUP2 ADD SWAP1 PUSH2 0x37A SWAP2 SWAP1 PUSH2 0x82B JUMP JUMPDEST PUSH20 0xFFFFFFFFFFFFFFFFFFFFFFFFFFFFFFFFFFFFFFFF AND CALLER PUSH20 0xFFFFFFFFFFFFFFFFFFFFFFFFFFFFFFFFFFFFFFFF AND EQ PUSH2 0x3E7 JUMPI PUSH1 0x40 MLOAD PUSH32 0x8C379A000000000000000000000000000000000000000000000000000000000 DUP2 MSTORE PUSH1 0x4 ADD PUSH2 0x3DE SWAP1 PUSH2 0x98D JUMP JUMPDEST PUSH1 0x40 MLOAD DUP1 SWAP2 SUB SWAP1 REVERT JUMPDEST PUSH1 0x0 PUSH1 0x3 SLOAD EQ PUSH2 0x42C JUMPI PUSH1 0x40 MLOAD PUSH32 0x8C379A000000000000000000000000000000000000000000000000000000000 DUP2 MSTORE PUSH1 0x4 ADD PUSH2 0x423 SWAP1 PUSH2 0x9CD JUMP JUMPDEST PUSH1 0x40 MLOAD DUP1 SWAP2 SUB SWAP1 REVERT JUMPDEST PUSH2 0x435 DUP3 PUSH2 0x7AE JUMP JUMPDEST PUSH1 0x4 PUSH1 0x14 PUSH2 0x100 EXP DUP2 SLOAD DUP2 PUSH1 0xFF MUL NOT AND SWAP1 DUP4 PUSH1 0x3 DUP2 GT ISZERO PUSH2 0x459 JUMPI PUSH2 0x458 PUSH2 0xA75 JUMP JUMPDEST JUMPDEST MUL OR SWAP1 SSTORE POP PUSH1 0x1 PUSH1 0x3 DUP2 SWAP1 SSTORE POP POP POP JUMP JUMPDEST PUSH1 0x4 PUSH1 0x0 SWAP1 SLOAD SWAP1 PUSH2 0x100 EXP SWAP1 DIV PUSH20 0xFFFFFFFFFFFFFFFFFFFFFFFFFFFFFFFFFFFFFFFF AND DUP2 JUMP JUMPDEST PUSH1 0x0 DUP1 PUSH1 0x0 SWAP1 SLOAD SWAP1 PUSH2 0x100 EXP SWAP1 DIV PUSH20 0xFFFFFFFFFFFFFFFFFFFFFFFFFFFFFFFFFFFFFFFF AND SWAP1 POP SWAP1 JUMP JUMPDEST PUSH1 0x5 SLOAD DUP2 JUMP JUMPDEST PUSH1 0x0 DUP1 SLOAD SWAP1 PUSH2 0x100 EXP SWAP1 DIV PUSH20 0xFFFFFFFFFFFFFFFFFFFFFFFFFFFFFFFFFFFFFFFF AND PUSH20 0xFFFFFFFFFFFFFFFFFFFFFFFFFFFFFFFFFFFFFFFF AND CALLER PUSH20 0xFFFFFFFFFFFFFFFFFFFFFFFFFFFFFFFFFFFFFFFF AND EQ PUSH2 0x54D JUMPI PUSH1 0x40 MLOAD PUSH32 0x8C379A000000000000000000000000000000000000000000000000000000000 DUP2 MSTORE PUSH1 0x4 ADD PUSH2 0x544 SWAP1 PUSH2 0x9ED JUMP JUMPDEST PUSH1 0x40 MLOAD DUP1 SWAP2 SUB SWAP1 REVERT JUMPDEST PUSH1 0x2 PUSH1 0x3 DUP2 GT ISZERO PUSH2 0x561 JUMPI PUSH2 0x560 PUSH2 0xA75 JUMP JUMPDEST JUMPDEST PUSH1 0x4 PUSH1 0x14 SWAP1 SLOAD SWAP1 PUSH2 0x100 EXP SWAP1 DIV PUSH1 0xFF AND PUSH1 0x3 DUP2 GT ISZERO PUSH2 0x583 JUMPI PUSH2 0x582 PUSH2 0xA75 JUMP JUMPDEST JUMPDEST EQ DUP1 PUSH2 0x5C2 JUMPI POP PUSH1 0x1 PUSH1 0x3 DUP2 GT ISZERO PUSH2 0x59E JUMPI PUSH2 0x59D PUSH2 0xA75 JUMP JUMPDEST JUMPDEST PUSH1 0x4 PUSH1 0x14 SWAP1 SLOAD SWAP1 PUSH2 0x100 EXP SWAP1 DIV PUSH1 0xFF AND PUSH1 0x3 DUP2 GT ISZERO PUSH2 0x5C0 JUMPI PUSH2 0x5BF PUSH2 0xA75 JUMP JUMPDEST JUMPDEST EQ JUMPDEST PUSH2 0x601 JUMPI PUSH1 0x40 MLOAD PUSH32 0x8C379A000000000000000000000000000000000000000000000000000000000 DUP2 MSTORE PUSH1 0x4 ADD PUSH2 0x5F8 SWAP1 PUSH2 0x9AD JUMP JUMPDEST PUSH1 0x40 MLOAD DUP1 SWAP2 SUB SWAP1 REVERT JUMPDEST PUSH1 0x0 SELFBALANCE GT PUSH2 0x644 JUMPI PUSH1 0x40 MLOAD PUSH32 0x8C379A000000000000000000000000000000000000000000000000000000000 DUP2 MSTORE PUSH1 0x4 ADD PUSH2 0x63B SWAP1 PUSH2 0x96D JUMP JUMPDEST PUSH1 0x40 MLOAD DUP1 SWAP2 SUB SWAP1 REVERT JUMPDEST CALLER PUSH20 0xFFFFFFFFFFFFFFFFFFFFFFFFFFFFFFFFFFFFFFFF AND PUSH2 0x8FC SELFBALANCE SWAP1 DUP2 ISZERO MUL SWAP1 PUSH1 0x40 MLOAD PUSH1 0x0 PUSH1 0x40 MLOAD DUP1 DUP4 SUB DUP2 DUP6 DUP9 DUP9 CALL SWAP4 POP POP POP POP ISZERO DUP1 ISZERO PUSH2 0x68A JUMPI RETURNDATASIZE PUSH1 0x0 DUP1 RETURNDATACOPY RETURNDATASIZE PUSH1 0x0 REVERT JUMPDEST POP JUMP JUMPDEST PUSH1 0x0 PUSH1 0x5 SLOAD SWAP1 POP SWAP1 JUMP JUMPDEST PUSH1 0x0 PUSH1 0x4 PUSH1 0x14 SWAP1 SLOAD SWAP1 PUSH2 0x100 EXP SWAP1 DIV PUSH1 0xFF AND PUSH1 0x3 DUP2 GT ISZERO PUSH2 0x6BB JUMPI PUSH2 0x6BA PUSH2 0xA75 JUMP JUMPDEST JUMPDEST SWAP1 POP SWAP1 JUMP JUMPDEST PUSH1 0x0 PUSH1 0x1 PUSH1 0x0 SWAP1 SLOAD SWAP1 PUSH2 0x100 EXP SWAP1 DIV PUSH20 0xFFFFFFFFFFFFFFFFFFFFFFFFFFFFFFFFFFFFFFFF AND SWAP1 POP SWAP1 JUMP JUMPDEST PUSH1 0x0 DUP1 SLOAD SWAP1 PUSH2 0x100 EXP SWAP1 DIV PUSH20 0xFFFFFFFFFFFFFFFFFFFFFFFFFFFFFFFFFFFFFFFF AND DUP2 JUMP JUMPDEST PUSH1 0x2 PUSH1 0x0 SWAP1 SLOAD SWAP1 PUSH2 0x100 EXP SWAP1 DIV PUSH20 0xFFFFFFFFFFFFFFFFFFFFFFFFFFFFFFFFFFFFFFFF AND DUP2 JUMP JUMPDEST PUSH1 0x0 PUSH1 0x4 PUSH1 0x0 SWAP1 SLOAD SWAP1 PUSH2 0x100 EXP SWAP1 DIV PUSH20 0xFFFFFFFFFFFFFFFFFFFFFFFFFFFFFFFFFFFFFFFF AND SWAP1 POP SWAP1 JUMP JUMPDEST PUSH1 0x1 PUSH1 0x0 SWAP1 SLOAD SWAP1 PUSH2 0x100 EXP SWAP1 DIV PUSH20 0xFFFFFFFFFFFFFFFFFFFFFFFFFFFFFFFFFFFFFFFF AND DUP2 JUMP JUMPDEST PUSH1 0x0 PUSH1 0x2 PUSH1 0x0 SWAP1 SLOAD SWAP1 PUSH2 0x100 EXP SWAP1 DIV PUSH20 0xFFFFFFFFFFFFFFFFFFFFFFFFFFFFFFFFFFFFFFFF AND SWAP1 POP SWAP1 JUMP JUMPDEST PUSH1 0x0 DUP1 DUP3 EQ ISZERO PUSH2 0x7C1 JUMPI PUSH1 0x0 SWAP1 POP PUSH2 0x7FC JUMP JUMPDEST PUSH1 0x1 DUP3 EQ ISZERO PUSH2 0x7D3 JUMPI PUSH1 0x1 SWAP1 POP PUSH2 0x7FC JUMP JUMPDEST PUSH1 0x2 DUP3 EQ ISZERO PUSH2 0x7E5 JUMPI PUSH1 0x2 SWAP1 POP PUSH2 0x7FC JUMP JUMPDEST PUSH1 0x3 DUP3 EQ ISZERO PUSH2 0x7F7 JUMPI PUSH1 0x3 SWAP1 POP PUSH2 0x7FC JUMP JUMPDEST PUSH1 0x0 SWAP1 POP JUMPDEST SWAP2 SWAP1 POP JUMP JUMPDEST PUSH1 0x0 DUP2 MLOAD SWAP1 POP PUSH2 0x810 DUP2 PUSH2 0xC0E JUMP JUMPDEST SWAP3 SWAP2 POP POP JUMP JUMPDEST PUSH1 0x0 DUP2 CALLDATALOAD SWAP1 POP PUSH2 0x825 DUP2 PUSH2 0xC25 JUMP JUMPDEST SWAP3 SWAP2 POP POP JUMP JUMPDEST PUSH1 0x0 PUSH1 0x20 DUP3 DUP5 SUB SLT ISZERO PUSH2 0x841 JUMPI PUSH2 0x840 PUSH2 0xAA4 JUMP JUMPDEST JUMPDEST PUSH1 0x0 PUSH2 0x84F DUP5 DUP3 DUP6 ADD PUSH2 0x801 JUMP JUMPDEST SWAP2 POP POP SWAP3 SWAP2 POP POP JUMP JUMPDEST PUSH1 0x0 PUSH1 0x20 DUP3 DUP5 SUB SLT ISZERO PUSH2 0x86E JUMPI PUSH2 0x86D PUSH2 0xAA4 JUMP JUMPDEST JUMPDEST PUSH1 0x0 PUSH2 0x87C DUP5 DUP3 DUP6 ADD PUSH2 0x816 JUMP JUMPDEST SWAP2 POP POP SWAP3 SWAP2 POP POP JUMP JUMPDEST PUSH2 0x88E DUP2 PUSH2 0xA39 JUMP JUMPDEST DUP3 MSTORE POP POP JUMP JUMPDEST PUSH1 0x0 PUSH2 0x8A1 PUSH1 0x15 DUP4 PUSH2 0xA28 JUMP JUMPDEST SWAP2 POP PUSH2 0x8AC DUP3 PUSH2 0xAA9 JUMP JUMPDEST PUSH1 0x20 DUP3 ADD SWAP1 POP SWAP2 SWAP1 POP JUMP JUMPDEST PUSH1 0x0 PUSH2 0x8C4 PUSH1 0x27 DUP4 PUSH2 0xA28 JUMP JUMPDEST SWAP2 POP PUSH2 0x8CF DUP3 PUSH2 0xAD2 JUMP JUMPDEST PUSH1 0x40 DUP3 ADD SWAP1 POP SWAP2 SWAP1 POP JUMP JUMPDEST PUSH1 0x0 PUSH2 0x8E7 PUSH1 0x28 DUP4 PUSH2 0xA28 JUMP JUMPDEST SWAP2 POP PUSH2 0x8F2 DUP3 PUSH2 0xB21 JUMP JUMPDEST PUSH1 0x40 DUP3 ADD SWAP1 POP SWAP2 SWAP1 POP JUMP JUMPDEST PUSH1 0x0 PUSH2 0x90A PUSH1 0x2C DUP4 PUSH2 0xA28 JUMP JUMPDEST SWAP2 POP PUSH2 0x915 DUP3 PUSH2 0xB70 JUMP JUMPDEST PUSH1 0x40 DUP3 ADD SWAP1 POP SWAP2 SWAP1 POP JUMP JUMPDEST PUSH1 0x0 PUSH2 0x92D PUSH1 0x28 DUP4 PUSH2 0xA28 JUMP JUMPDEST SWAP2 POP PUSH2 0x938 DUP3 PUSH2 0xBBF JUMP JUMPDEST PUSH1 0x40 DUP3 ADD SWAP1 POP SWAP2 SWAP1 POP JUMP JUMPDEST PUSH2 0x94C DUP2 PUSH2 0xA6B JUMP JUMPDEST DUP3 MSTORE POP POP JUMP JUMPDEST PUSH1 0x0 PUSH1 0x20 DUP3 ADD SWAP1 POP PUSH2 0x967 PUSH1 0x0 DUP4 ADD DUP5 PUSH2 0x885 JUMP JUMPDEST SWAP3 SWAP2 POP POP JUMP JUMPDEST PUSH1 0x0 PUSH1 0x20 DUP3 ADD SWAP1 POP DUP2 DUP2 SUB PUSH1 0x0 DUP4 ADD MSTORE PUSH2 0x986 DUP2 PUSH2 0x894 JUMP JUMPDEST SWAP1 POP SWAP2 SWAP1 POP JUMP JUMPDEST PUSH1 0x0 PUSH1 0x20 DUP3 ADD SWAP1 POP DUP2 DUP2 SUB PUSH1 0x0 DUP4 ADD MSTORE PUSH2 0x9A6 DUP2 PUSH2 0x8B7 JUMP JUMPDEST SWAP1 POP SWAP2 SWAP1 POP JUMP JUMPDEST PUSH1 0x0 PUSH1 0x20 DUP3 ADD SWAP1 POP DUP2 DUP2 SUB PUSH1 0x0 DUP4 ADD MSTORE PUSH2 0x9C6 DUP2 PUSH2 0x8DA JUMP JUMPDEST SWAP1 POP SWAP2 SWAP1 POP JUMP JUMPDEST PUSH1 0x0 PUSH1 0x20 DUP3 ADD SWAP1 POP DUP2 DUP2 SUB PUSH1 0x0 DUP4 ADD MSTORE PUSH2 0x9E6 DUP2 PUSH2 0x8FD JUMP JUMPDEST SWAP1 POP SWAP2 SWAP1 POP JUMP JUMPDEST PUSH1 0x0 PUSH1 0x20 DUP3 ADD SWAP1 POP DUP2 DUP2 SUB PUSH1 0x0 DUP4 ADD MSTORE PUSH2 0xA06 DUP2 PUSH2 0x920 JUMP JUMPDEST SWAP1 POP SWAP2 SWAP1 POP JUMP JUMPDEST PUSH1 0x0 PUSH1 0x20 DUP3 ADD SWAP1 POP PUSH2 0xA22 PUSH1 0x0 DUP4 ADD DUP5 PUSH2 0x943 JUMP JUMPDEST SWAP3 SWAP2 POP POP JUMP JUMPDEST PUSH1 0x0 DUP3 DUP3 MSTORE PUSH1 0x20 DUP3 ADD SWAP1 POP SWAP3 SWAP2 POP POP JUMP JUMPDEST PUSH1 0x0 PUSH2 0xA44 DUP3 PUSH2 0xA4B JUMP JUMPDEST SWAP1 POP SWAP2 SWAP1 POP JUMP JUMPDEST PUSH1 0x0 PUSH20 0xFFFFFFFFFFFFFFFFFFFFFFFFFFFFFFFFFFFFFFFF DUP3 AND SWAP1 POP SWAP2 SWAP1 POP JUMP JUMPDEST PUSH1 0x0 DUP2 SWAP1 POP SWAP2 SWAP1 POP JUMP JUMPDEST PUSH32 0x4E487B7100000000000000000000000000000000000000000000000000000000 PUSH1 0x0 MSTORE PUSH1 0x21 PUSH1 0x4 MSTORE PUSH1 0x24 PUSH1 0x0 REVERT JUMPDEST PUSH1 0x0 DUP1 REVERT JUMPDEST PUSH32 0x546869732062657420686173206E6F2066756E64730000000000000000000000 PUSH1 0x0 DUP3 ADD MSTORE POP JUMP JUMPDEST PUSH32 0x4F6E6C7920626574206F776E6572732063616E206170706C7920746869732066 PUSH1 0x0 DUP3 ADD MSTORE PUSH32 0x756E6374696F6E00000000000000000000000000000000000000000000000000 PUSH1 0x20 DUP3 ADD MSTORE POP JUMP JUMPDEST PUSH32 0x426574206D75737420626520776F6E206F722063616E63656C6C656420746F20 PUSH1 0x0 DUP3 ADD MSTORE PUSH32 0x7769746864726177000000000000000000000000000000000000000000000000 PUSH1 0x20 DUP3 ADD MSTORE POP JUMP JUMPDEST PUSH32 0x596F752063616E206E6F74206D6F646966792062657420737461747573206D6F PUSH1 0x0 DUP3 ADD MSTORE PUSH32 0x7265207468616E206F6E63650000000000000000000000000000000000000000 PUSH1 0x20 DUP3 ADD MSTORE POP JUMP JUMPDEST PUSH32 0x4F6E6C79206576656E74206265747465722063616E2063616C6C207468697320 PUSH1 0x0 DUP3 ADD MSTORE PUSH32 0x66756E6374696F6E000000000000000000000000000000000000000000000000 PUSH1 0x20 DUP3 ADD MSTORE POP JUMP JUMPDEST PUSH2 0xC17 DUP2 PUSH2 0xA39 JUMP JUMPDEST DUP2 EQ PUSH2 0xC22 JUMPI PUSH1 0x0 DUP1 REVERT JUMPDEST POP JUMP JUMPDEST PUSH2 0xC2E DUP2 PUSH2 0xA6B JUMP JUMPDEST DUP2 EQ PUSH2 0xC39 JUMPI PUSH1 0x0 DUP1 REVERT JUMPDEST POP JUMP INVALID LOG2 PUSH5 0x6970667358 0x22 SLT KECCAK256 SHR LOG0 0xC5 0xD1 PUSH2 0x669B LT XOR PUSH26 0x78A283D3EEAE9E34D874209696A0D4C81D4FA3509C4964736F6C PUSH4 0x43000807 STOP CALLER LOG2 PUSH5 0x6970667358 0x22 SLT KECCAK256 0x28 0xC8 GT 0x4B JUMPDEST STOP LOG4 OR BASEFEE 0xE2 STOP 0x4B MSTORE8 0xCC SWAP12 RETURN SWAP16 PUSH32 0x4005070BBEDBBC3AB87750F3980E64736F6C6343000807003300000000000000 "
				},
				"gasEstimates": {
					"creation": {
						"codeDepositCost": "1092600",
						"executionCost": "1134",
						"totalCost": "1093734"
					},
					"external": {
						"createBet(address,address,address,uint256)": "infinite",
						"getAllBetsByAddress(address)": "infinite"
					}
				},
				"methodIdentifiers": {
					"createBet(address,address,address,uint256)": "7700cb83",
					"getAllBetsByAddress(address)": "fc6a691b"
				}
			},
			"storageLayout": {
				"storage": [
					{
						"astId": 284,
						"contract": "projects/crypto/web3bets_smartcontract/contracts/BetsFactory.sol:BetsFactory",
						"label": "userBets",
						"offset": 0,
						"slot": "0",
						"type": "t_mapping(t_address,t_array(t_address)dyn_storage)"
					}
				],
				"types": {
					"t_address": {
						"encoding": "inplace",
						"label": "address",
						"numberOfBytes": "20"
					},
					"t_array(t_address)dyn_storage": {
						"base": "t_address",
						"encoding": "dynamic_array",
						"label": "address[]",
						"numberOfBytes": "32"
					},
					"t_mapping(t_address,t_array(t_address)dyn_storage)": {
						"encoding": "mapping",
						"key": "t_address",
						"label": "mapping(address => address[])",
						"numberOfBytes": "32",
						"value": "t_array(t_address)dyn_storage"
					}
				}
			},
			"userdoc": {
				"kind": "user",
				"methods": {},
				"version": 1
			}
		}
	}
}