{
	"projects/crypto/web3bets_smartcontract/contracts/PoolsFactory.sol": {
		"PoolsFactory": {
			"abi": [
				{
					"anonymous": false,
					"inputs": [
						{
							"indexed": false,
							"internalType": "string",
							"name": "name",
							"type": "string"
						},
						{
							"indexed": false,
							"internalType": "address",
							"name": "marketAddress",
							"type": "address"
						},
						{
							"indexed": false,
							"internalType": "address",
							"name": "eventAddress",
							"type": "address"
						}
					],
					"name": "PoolCreated",
					"type": "event"
				},
				{
					"inputs": [
						{
							"internalType": "string",
							"name": "_name",
							"type": "string"
						},
						{
							"internalType": "address",
							"name": "_eventAddress",
							"type": "address"
						},
						{
							"internalType": "address",
							"name": "_marketAddress",
							"type": "address"
						}
					],
					"name": "createPool",
					"outputs": [
						{
							"internalType": "address",
							"name": "",
							"type": "address"
						}
					],
					"stateMutability": "nonpayable",
					"type": "function"
				},
				{
					"inputs": [
						{
							"internalType": "address",
							"name": "_marketAddress",
							"type": "address"
						}
					],
					"name": "getPoolsOfMarket",
					"outputs": [
						{
							"internalType": "address[]",
							"name": "",
							"type": "address[]"
						}
					],
					"stateMutability": "view",
					"type": "function"
				}
			],
			"devdoc": {
				"kind": "dev",
				"methods": {},
				"version": 1
			},
			"evm": {
				"assembly": "    /* \"projects/crypto/web3bets_smartcontract/contracts/PoolsFactory.sol\":80:790  contract PoolsFactory {... */\n  mstore(0x40, 0x80)\n  callvalue\n  dup1\n  iszero\n  tag_1\n  jumpi\n  0x00\n  dup1\n  revert\ntag_1:\n  pop\n  dataSize(sub_0)\n  dup1\n  dataOffset(sub_0)\n  0x00\n  codecopy\n  0x00\n  return\nstop\n\nsub_0: assembly {\n        /* \"projects/crypto/web3bets_smartcontract/contracts/PoolsFactory.sol\":80:790  contract PoolsFactory {... */\n      mstore(0x40, 0x80)\n      callvalue\n      dup1\n      iszero\n      tag_1\n      jumpi\n      0x00\n      dup1\n      revert\n    tag_1:\n      pop\n      jumpi(tag_2, lt(calldatasize, 0x04))\n      shr(0xe0, calldataload(0x00))\n      dup1\n      0x56cd61d7\n      eq\n      tag_3\n      jumpi\n      dup1\n      0xe1281e47\n      eq\n      tag_4\n      jumpi\n    tag_2:\n      0x00\n      dup1\n      revert\n        /* \"projects/crypto/web3bets_smartcontract/contracts/PoolsFactory.sol\":294:637  function createPool(string memory _name, address _eventAddress, address _marketAddress) external returns (address) {... */\n    tag_3:\n      tag_5\n      0x04\n      dup1\n      calldatasize\n      sub\n      dup2\n      add\n      swap1\n      tag_6\n      swap2\n      swap1\n      tag_7\n      jump\t// in\n    tag_6:\n      tag_8\n      jump\t// in\n    tag_5:\n      mload(0x40)\n      tag_9\n      swap2\n      swap1\n      tag_10\n      jump\t// in\n    tag_9:\n      mload(0x40)\n      dup1\n      swap2\n      sub\n      swap1\n      return\n        /* \"projects/crypto/web3bets_smartcontract/contracts/PoolsFactory.sol\":643:783  function getPoolsOfMarket(address _marketAddress) external view returns(address[] memory){... */\n    tag_4:\n      tag_11\n      0x04\n      dup1\n      calldatasize\n      sub\n      dup2\n      add\n      swap1\n      tag_12\n      swap2\n      swap1\n      tag_13\n      jump\t// in\n    tag_12:\n      tag_14\n      jump\t// in\n    tag_11:\n      mload(0x40)\n      tag_15\n      swap2\n      swap1\n      tag_16\n      jump\t// in\n    tag_15:\n      mload(0x40)\n      dup1\n      swap2\n      sub\n      swap1\n      return\n        /* \"projects/crypto/web3bets_smartcontract/contracts/PoolsFactory.sol\":294:637  function createPool(string memory _name, address _eventAddress, address _marketAddress) external returns (address) {... */\n    tag_8:\n        /* \"projects/crypto/web3bets_smartcontract/contracts/PoolsFactory.sol\":400:407  address */\n      0x00\n        /* \"projects/crypto/web3bets_smartcontract/contracts/PoolsFactory.sol\":419:428  Pool pool */\n      dup1\n        /* \"projects/crypto/web3bets_smartcontract/contracts/PoolsFactory.sol\":440:445  _name */\n      dup5\n        /* \"projects/crypto/web3bets_smartcontract/contracts/PoolsFactory.sol\":447:460  _eventAddress */\n      dup5\n        /* \"projects/crypto/web3bets_smartcontract/contracts/PoolsFactory.sol\":462:476  _marketAddress */\n      dup5\n        /* \"projects/crypto/web3bets_smartcontract/contracts/PoolsFactory.sol\":431:477  new Pool(_name, _eventAddress, _marketAddress) */\n      mload(0x40)\n      tag_18\n      swap1\n      tag_19\n      jump\t// in\n    tag_18:\n      tag_20\n      swap4\n      swap3\n      swap2\n      swap1\n      tag_21\n      jump\t// in\n    tag_20:\n      mload(0x40)\n      dup1\n      swap2\n      sub\n      swap1\n      0x00\n      create\n      dup1\n      iszero\n      dup1\n      iszero\n      tag_22\n      jumpi\n      returndatasize\n      0x00\n      dup1\n      returndatacopy\n      revert(0x00, returndatasize)\n    tag_22:\n      pop\n        /* \"projects/crypto/web3bets_smartcontract/contracts/PoolsFactory.sol\":419:477  Pool pool = new Pool(_name, _eventAddress, _marketAddress) */\n      swap1\n      pop\n        /* \"projects/crypto/web3bets_smartcontract/contracts/PoolsFactory.sol\":487:498  marketPools */\n      0x00\n        /* \"projects/crypto/web3bets_smartcontract/contracts/PoolsFactory.sol\":487:514  marketPools[_marketAddress] */\n      dup1\n        /* \"projects/crypto/web3bets_smartcontract/contracts/PoolsFactory.sol\":499:513  _marketAddress */\n      dup5\n        /* \"projects/crypto/web3bets_smartcontract/contracts/PoolsFactory.sol\":487:514  marketPools[_marketAddress] */\n      0xffffffffffffffffffffffffffffffffffffffff\n      and\n      0xffffffffffffffffffffffffffffffffffffffff\n      and\n      dup2\n      mstore\n      0x20\n      add\n      swap1\n      dup2\n      mstore\n      0x20\n      add\n      0x00\n      keccak256\n        /* \"projects/crypto/web3bets_smartcontract/contracts/PoolsFactory.sol\":528:532  pool */\n      dup2\n        /* \"projects/crypto/web3bets_smartcontract/contracts/PoolsFactory.sol\":487:534  marketPools[_marketAddress].push(address(pool)) */\n      swap1\n      dup1\n      0x01\n      dup2\n      sload\n      add\n      dup1\n      dup3\n      sstore\n      dup1\n      swap2\n      pop\n      pop\n      0x01\n      swap1\n      sub\n      swap1\n      0x00\n      mstore\n      keccak256(0x00, 0x20)\n      add\n      0x00\n      swap1\n      swap2\n      swap1\n      swap2\n      swap1\n      swap2\n      0x0100\n      exp\n      dup2\n      sload\n      dup2\n      0xffffffffffffffffffffffffffffffffffffffff\n      mul\n      not\n      and\n      swap1\n      dup4\n      0xffffffffffffffffffffffffffffffffffffffff\n      and\n      mul\n      or\n      swap1\n      sstore\n      pop\n        /* \"projects/crypto/web3bets_smartcontract/contracts/PoolsFactory.sol\":550:599  PoolCreated(_name, _marketAddress, _eventAddress) */\n      0xf1bc21ed97ab3f0ef33f31038b179da31c46944bec01f4410240814d0571adea\n        /* \"projects/crypto/web3bets_smartcontract/contracts/PoolsFactory.sol\":562:567  _name */\n      dup6\n        /* \"projects/crypto/web3bets_smartcontract/contracts/PoolsFactory.sol\":569:583  _marketAddress */\n      dup5\n        /* \"projects/crypto/web3bets_smartcontract/contracts/PoolsFactory.sol\":585:598  _eventAddress */\n      dup7\n        /* \"projects/crypto/web3bets_smartcontract/contracts/PoolsFactory.sol\":550:599  PoolCreated(_name, _marketAddress, _eventAddress) */\n      mload(0x40)\n      tag_24\n      swap4\n      swap3\n      swap2\n      swap1\n      tag_21\n      jump\t// in\n    tag_24:\n      mload(0x40)\n      dup1\n      swap2\n      sub\n      swap1\n      log1\n        /* \"projects/crypto/web3bets_smartcontract/contracts/PoolsFactory.sol\":625:629  pool */\n      dup1\n        /* \"projects/crypto/web3bets_smartcontract/contracts/PoolsFactory.sol\":610:630  return address(pool) */\n      swap2\n      pop\n      pop\n        /* \"projects/crypto/web3bets_smartcontract/contracts/PoolsFactory.sol\":294:637  function createPool(string memory _name, address _eventAddress, address _marketAddress) external returns (address) {... */\n      swap4\n      swap3\n      pop\n      pop\n      pop\n      jump\t// out\n        /* \"projects/crypto/web3bets_smartcontract/contracts/PoolsFactory.sol\":643:783  function getPoolsOfMarket(address _marketAddress) external view returns(address[] memory){... */\n    tag_14:\n        /* \"projects/crypto/web3bets_smartcontract/contracts/PoolsFactory.sol\":715:731  address[] memory */\n      0x60\n        /* \"projects/crypto/web3bets_smartcontract/contracts/PoolsFactory.sol\":749:760  marketPools */\n      0x00\n        /* \"projects/crypto/web3bets_smartcontract/contracts/PoolsFactory.sol\":749:776  marketPools[_marketAddress] */\n      dup1\n        /* \"projects/crypto/web3bets_smartcontract/contracts/PoolsFactory.sol\":761:775  _marketAddress */\n      dup4\n        /* \"projects/crypto/web3bets_smartcontract/contracts/PoolsFactory.sol\":749:776  marketPools[_marketAddress] */\n      0xffffffffffffffffffffffffffffffffffffffff\n      and\n      0xffffffffffffffffffffffffffffffffffffffff\n      and\n      dup2\n      mstore\n      0x20\n      add\n      swap1\n      dup2\n      mstore\n      0x20\n      add\n      0x00\n      keccak256\n        /* \"projects/crypto/web3bets_smartcontract/contracts/PoolsFactory.sol\":742:776  return marketPools[_marketAddress] */\n      dup1\n      sload\n      dup1\n      0x20\n      mul\n      0x20\n      add\n      mload(0x40)\n      swap1\n      dup2\n      add\n      0x40\n      mstore\n      dup1\n      swap3\n      swap2\n      swap1\n      dup2\n      dup2\n      mstore\n      0x20\n      add\n      dup3\n      dup1\n      sload\n      dup1\n      iszero\n      tag_26\n      jumpi\n      0x20\n      mul\n      dup3\n      add\n      swap2\n      swap1\n      0x00\n      mstore\n      keccak256(0x00, 0x20)\n      swap1\n    tag_27:\n      dup2\n      0x00\n      swap1\n      sload\n      swap1\n      0x0100\n      exp\n      swap1\n      div\n      0xffffffffffffffffffffffffffffffffffffffff\n      and\n      0xffffffffffffffffffffffffffffffffffffffff\n      and\n      dup2\n      mstore\n      0x20\n      add\n      swap1\n      0x01\n      add\n      swap1\n      dup1\n      dup4\n      gt\n      tag_27\n      jumpi\n    tag_26:\n      pop\n      pop\n      pop\n      pop\n      pop\n      swap1\n      pop\n        /* \"projects/crypto/web3bets_smartcontract/contracts/PoolsFactory.sol\":643:783  function getPoolsOfMarket(address _marketAddress) external view returns(address[] memory){... */\n      swap2\n      swap1\n      pop\n      jump\t// out\n    tag_19:\n      dataSize(sub_0)\n      dup1\n      dataOffset(sub_0)\n      dup4\n      codecopy\n      add\n      swap1\n      jump\t// out\n        /* \"#utility.yul\":7:419   */\n    tag_29:\n        /* \"#utility.yul\":85:90   */\n      0x00\n        /* \"#utility.yul\":110:176   */\n      tag_31\n        /* \"#utility.yul\":126:175   */\n      tag_32\n        /* \"#utility.yul\":168:174   */\n      dup5\n        /* \"#utility.yul\":126:175   */\n      tag_33\n      jump\t// in\n    tag_32:\n        /* \"#utility.yul\":110:176   */\n      tag_34\n      jump\t// in\n    tag_31:\n        /* \"#utility.yul\":101:176   */\n      swap1\n      pop\n        /* \"#utility.yul\":199:205   */\n      dup3\n        /* \"#utility.yul\":192:197   */\n      dup2\n        /* \"#utility.yul\":185:206   */\n      mstore\n        /* \"#utility.yul\":237:241   */\n      0x20\n        /* \"#utility.yul\":230:235   */\n      dup2\n        /* \"#utility.yul\":226:242   */\n      add\n        /* \"#utility.yul\":275:278   */\n      dup5\n        /* \"#utility.yul\":266:272   */\n      dup5\n        /* \"#utility.yul\":261:264   */\n      dup5\n        /* \"#utility.yul\":257:273   */\n      add\n        /* \"#utility.yul\":254:279   */\n      gt\n        /* \"#utility.yul\":251:363   */\n      iszero\n      tag_35\n      jumpi\n        /* \"#utility.yul\":282:361   */\n      tag_36\n      tag_37\n      jump\t// in\n    tag_36:\n        /* \"#utility.yul\":251:363   */\n    tag_35:\n        /* \"#utility.yul\":372:413   */\n      tag_38\n        /* \"#utility.yul\":406:412   */\n      dup5\n        /* \"#utility.yul\":401:404   */\n      dup3\n        /* \"#utility.yul\":396:399   */\n      dup6\n        /* \"#utility.yul\":372:413   */\n      tag_39\n      jump\t// in\n    tag_38:\n        /* \"#utility.yul\":91:419   */\n      pop\n        /* \"#utility.yul\":7:419   */\n      swap4\n      swap3\n      pop\n      pop\n      pop\n      jump\t// out\n        /* \"#utility.yul\":425:564   */\n    tag_40:\n        /* \"#utility.yul\":471:476   */\n      0x00\n        /* \"#utility.yul\":509:515   */\n      dup2\n        /* \"#utility.yul\":496:516   */\n      calldataload\n        /* \"#utility.yul\":487:516   */\n      swap1\n      pop\n        /* \"#utility.yul\":525:558   */\n      tag_42\n        /* \"#utility.yul\":552:557   */\n      dup2\n        /* \"#utility.yul\":525:558   */\n      tag_43\n      jump\t// in\n    tag_42:\n        /* \"#utility.yul\":425:564   */\n      swap3\n      swap2\n      pop\n      pop\n      jump\t// out\n        /* \"#utility.yul\":584:924   */\n    tag_44:\n        /* \"#utility.yul\":640:645   */\n      0x00\n        /* \"#utility.yul\":689:692   */\n      dup3\n        /* \"#utility.yul\":682:686   */\n      0x1f\n        /* \"#utility.yul\":674:680   */\n      dup4\n        /* \"#utility.yul\":670:687   */\n      add\n        /* \"#utility.yul\":666:693   */\n      slt\n        /* \"#utility.yul\":656:778   */\n      tag_46\n      jumpi\n        /* \"#utility.yul\":697:776   */\n      tag_47\n      tag_48\n      jump\t// in\n    tag_47:\n        /* \"#utility.yul\":656:778   */\n    tag_46:\n        /* \"#utility.yul\":814:820   */\n      dup2\n        /* \"#utility.yul\":801:821   */\n      calldataload\n        /* \"#utility.yul\":839:918   */\n      tag_49\n        /* \"#utility.yul\":914:917   */\n      dup5\n        /* \"#utility.yul\":906:912   */\n      dup3\n        /* \"#utility.yul\":899:903   */\n      0x20\n        /* \"#utility.yul\":891:897   */\n      dup7\n        /* \"#utility.yul\":887:904   */\n      add\n        /* \"#utility.yul\":839:918   */\n      tag_29\n      jump\t// in\n    tag_49:\n        /* \"#utility.yul\":830:918   */\n      swap2\n      pop\n        /* \"#utility.yul\":646:924   */\n      pop\n        /* \"#utility.yul\":584:924   */\n      swap3\n      swap2\n      pop\n      pop\n      jump\t// out\n        /* \"#utility.yul\":930:1259   */\n    tag_13:\n        /* \"#utility.yul\":989:995   */\n      0x00\n        /* \"#utility.yul\":1038:1040   */\n      0x20\n        /* \"#utility.yul\":1026:1035   */\n      dup3\n        /* \"#utility.yul\":1017:1024   */\n      dup5\n        /* \"#utility.yul\":1013:1036   */\n      sub\n        /* \"#utility.yul\":1009:1041   */\n      slt\n        /* \"#utility.yul\":1006:1125   */\n      iszero\n      tag_51\n      jumpi\n        /* \"#utility.yul\":1044:1123   */\n      tag_52\n      tag_53\n      jump\t// in\n    tag_52:\n        /* \"#utility.yul\":1006:1125   */\n    tag_51:\n        /* \"#utility.yul\":1164:1165   */\n      0x00\n        /* \"#utility.yul\":1189:1242   */\n      tag_54\n        /* \"#utility.yul\":1234:1241   */\n      dup5\n        /* \"#utility.yul\":1225:1231   */\n      dup3\n        /* \"#utility.yul\":1214:1223   */\n      dup6\n        /* \"#utility.yul\":1210:1232   */\n      add\n        /* \"#utility.yul\":1189:1242   */\n      tag_40\n      jump\t// in\n    tag_54:\n        /* \"#utility.yul\":1179:1242   */\n      swap2\n      pop\n        /* \"#utility.yul\":1135:1252   */\n      pop\n        /* \"#utility.yul\":930:1259   */\n      swap3\n      swap2\n      pop\n      pop\n      jump\t// out\n        /* \"#utility.yul\":1265:2064   */\n    tag_7:\n        /* \"#utility.yul\":1352:1358   */\n      0x00\n        /* \"#utility.yul\":1360:1366   */\n      dup1\n        /* \"#utility.yul\":1368:1374   */\n      0x00\n        /* \"#utility.yul\":1417:1419   */\n      0x60\n        /* \"#utility.yul\":1405:1414   */\n      dup5\n        /* \"#utility.yul\":1396:1403   */\n      dup7\n        /* \"#utility.yul\":1392:1415   */\n      sub\n        /* \"#utility.yul\":1388:1420   */\n      slt\n        /* \"#utility.yul\":1385:1504   */\n      iszero\n      tag_56\n      jumpi\n        /* \"#utility.yul\":1423:1502   */\n      tag_57\n      tag_53\n      jump\t// in\n    tag_57:\n        /* \"#utility.yul\":1385:1504   */\n    tag_56:\n        /* \"#utility.yul\":1571:1572   */\n      0x00\n        /* \"#utility.yul\":1560:1569   */\n      dup5\n        /* \"#utility.yul\":1556:1573   */\n      add\n        /* \"#utility.yul\":1543:1574   */\n      calldataload\n        /* \"#utility.yul\":1601:1619   */\n      0xffffffffffffffff\n        /* \"#utility.yul\":1593:1599   */\n      dup2\n        /* \"#utility.yul\":1590:1620   */\n      gt\n        /* \"#utility.yul\":1587:1704   */\n      iszero\n      tag_58\n      jumpi\n        /* \"#utility.yul\":1623:1702   */\n      tag_59\n      tag_60\n      jump\t// in\n    tag_59:\n        /* \"#utility.yul\":1587:1704   */\n    tag_58:\n        /* \"#utility.yul\":1728:1791   */\n      tag_61\n        /* \"#utility.yul\":1783:1790   */\n      dup7\n        /* \"#utility.yul\":1774:1780   */\n      dup3\n        /* \"#utility.yul\":1763:1772   */\n      dup8\n        /* \"#utility.yul\":1759:1781   */\n      add\n        /* \"#utility.yul\":1728:1791   */\n      tag_44\n      jump\t// in\n    tag_61:\n        /* \"#utility.yul\":1718:1791   */\n      swap4\n      pop\n        /* \"#utility.yul\":1514:1801   */\n      pop\n        /* \"#utility.yul\":1840:1842   */\n      0x20\n        /* \"#utility.yul\":1866:1919   */\n      tag_62\n        /* \"#utility.yul\":1911:1918   */\n      dup7\n        /* \"#utility.yul\":1902:1908   */\n      dup3\n        /* \"#utility.yul\":1891:1900   */\n      dup8\n        /* \"#utility.yul\":1887:1909   */\n      add\n        /* \"#utility.yul\":1866:1919   */\n      tag_40\n      jump\t// in\n    tag_62:\n        /* \"#utility.yul\":1856:1919   */\n      swap3\n      pop\n        /* \"#utility.yul\":1811:1929   */\n      pop\n        /* \"#utility.yul\":1968:1970   */\n      0x40\n        /* \"#utility.yul\":1994:2047   */\n      tag_63\n        /* \"#utility.yul\":2039:2046   */\n      dup7\n        /* \"#utility.yul\":2030:2036   */\n      dup3\n        /* \"#utility.yul\":2019:2028   */\n      dup8\n        /* \"#utility.yul\":2015:2037   */\n      add\n        /* \"#utility.yul\":1994:2047   */\n      tag_40\n      jump\t// in\n    tag_63:\n        /* \"#utility.yul\":1984:2047   */\n      swap2\n      pop\n        /* \"#utility.yul\":1939:2057   */\n      pop\n        /* \"#utility.yul\":1265:2064   */\n      swap3\n      pop\n      swap3\n      pop\n      swap3\n      jump\t// out\n        /* \"#utility.yul\":2070:2249   */\n    tag_64:\n        /* \"#utility.yul\":2139:2149   */\n      0x00\n        /* \"#utility.yul\":2160:2206   */\n      tag_66\n        /* \"#utility.yul\":2202:2205   */\n      dup4\n        /* \"#utility.yul\":2194:2200   */\n      dup4\n        /* \"#utility.yul\":2160:2206   */\n      tag_67\n      jump\t// in\n    tag_66:\n        /* \"#utility.yul\":2238:2242   */\n      0x20\n        /* \"#utility.yul\":2233:2236   */\n      dup4\n        /* \"#utility.yul\":2229:2243   */\n      add\n        /* \"#utility.yul\":2215:2243   */\n      swap1\n      pop\n        /* \"#utility.yul\":2070:2249   */\n      swap3\n      swap2\n      pop\n      pop\n      jump\t// out\n        /* \"#utility.yul\":2255:2363   */\n    tag_67:\n        /* \"#utility.yul\":2332:2356   */\n      tag_69\n        /* \"#utility.yul\":2350:2355   */\n      dup2\n        /* \"#utility.yul\":2332:2356   */\n      tag_70\n      jump\t// in\n    tag_69:\n        /* \"#utility.yul\":2327:2330   */\n      dup3\n        /* \"#utility.yul\":2320:2357   */\n      mstore\n        /* \"#utility.yul\":2255:2363   */\n      pop\n      pop\n      jump\t// out\n        /* \"#utility.yul\":2369:2487   */\n    tag_71:\n        /* \"#utility.yul\":2456:2480   */\n      tag_73\n        /* \"#utility.yul\":2474:2479   */\n      dup2\n        /* \"#utility.yul\":2456:2480   */\n      tag_70\n      jump\t// in\n    tag_73:\n        /* \"#utility.yul\":2451:2454   */\n      dup3\n        /* \"#utility.yul\":2444:2481   */\n      mstore\n        /* \"#utility.yul\":2369:2487   */\n      pop\n      pop\n      jump\t// out\n        /* \"#utility.yul\":2523:3255   */\n    tag_74:\n        /* \"#utility.yul\":2642:2645   */\n      0x00\n        /* \"#utility.yul\":2671:2725   */\n      tag_76\n        /* \"#utility.yul\":2719:2724   */\n      dup3\n        /* \"#utility.yul\":2671:2725   */\n      tag_77\n      jump\t// in\n    tag_76:\n        /* \"#utility.yul\":2741:2827   */\n      tag_78\n        /* \"#utility.yul\":2820:2826   */\n      dup2\n        /* \"#utility.yul\":2815:2818   */\n      dup6\n        /* \"#utility.yul\":2741:2827   */\n      tag_79\n      jump\t// in\n    tag_78:\n        /* \"#utility.yul\":2734:2827   */\n      swap4\n      pop\n        /* \"#utility.yul\":2851:2907   */\n      tag_80\n        /* \"#utility.yul\":2901:2906   */\n      dup4\n        /* \"#utility.yul\":2851:2907   */\n      tag_81\n      jump\t// in\n    tag_80:\n        /* \"#utility.yul\":2930:2937   */\n      dup1\n        /* \"#utility.yul\":2961:2962   */\n      0x00\n        /* \"#utility.yul\":2946:3230   */\n    tag_82:\n        /* \"#utility.yul\":2971:2977   */\n      dup4\n        /* \"#utility.yul\":2968:2969   */\n      dup2\n        /* \"#utility.yul\":2965:2978   */\n      lt\n        /* \"#utility.yul\":2946:3230   */\n      iszero\n      tag_84\n      jumpi\n        /* \"#utility.yul\":3047:3053   */\n      dup2\n        /* \"#utility.yul\":3041:3054   */\n      mload\n        /* \"#utility.yul\":3074:3137   */\n      tag_85\n        /* \"#utility.yul\":3133:3136   */\n      dup9\n        /* \"#utility.yul\":3118:3131   */\n      dup3\n        /* \"#utility.yul\":3074:3137   */\n      tag_64\n      jump\t// in\n    tag_85:\n        /* \"#utility.yul\":3067:3137   */\n      swap8\n      pop\n        /* \"#utility.yul\":3160:3220   */\n      tag_86\n        /* \"#utility.yul\":3213:3219   */\n      dup4\n        /* \"#utility.yul\":3160:3220   */\n      tag_87\n      jump\t// in\n    tag_86:\n        /* \"#utility.yul\":3150:3220   */\n      swap3\n      pop\n        /* \"#utility.yul\":3006:3230   */\n      pop\n        /* \"#utility.yul\":2993:2994   */\n      0x01\n        /* \"#utility.yul\":2990:2991   */\n      dup2\n        /* \"#utility.yul\":2986:2995   */\n      add\n        /* \"#utility.yul\":2981:2995   */\n      swap1\n      pop\n        /* \"#utility.yul\":2946:3230   */\n      jump(tag_82)\n    tag_84:\n        /* \"#utility.yul\":2950:2964   */\n      pop\n        /* \"#utility.yul\":3246:3249   */\n      dup6\n        /* \"#utility.yul\":3239:3249   */\n      swap4\n      pop\n        /* \"#utility.yul\":2647:3255   */\n      pop\n      pop\n      pop\n        /* \"#utility.yul\":2523:3255   */\n      swap3\n      swap2\n      pop\n      pop\n      jump\t// out\n        /* \"#utility.yul\":3261:3625   */\n    tag_88:\n        /* \"#utility.yul\":3349:3352   */\n      0x00\n        /* \"#utility.yul\":3377:3416   */\n      tag_90\n        /* \"#utility.yul\":3410:3415   */\n      dup3\n        /* \"#utility.yul\":3377:3416   */\n      tag_91\n      jump\t// in\n    tag_90:\n        /* \"#utility.yul\":3432:3503   */\n      tag_92\n        /* \"#utility.yul\":3496:3502   */\n      dup2\n        /* \"#utility.yul\":3491:3494   */\n      dup6\n        /* \"#utility.yul\":3432:3503   */\n      tag_93\n      jump\t// in\n    tag_92:\n        /* \"#utility.yul\":3425:3503   */\n      swap4\n      pop\n        /* \"#utility.yul\":3512:3564   */\n      tag_94\n        /* \"#utility.yul\":3557:3563   */\n      dup2\n        /* \"#utility.yul\":3552:3555   */\n      dup6\n        /* \"#utility.yul\":3545:3549   */\n      0x20\n        /* \"#utility.yul\":3538:3543   */\n      dup7\n        /* \"#utility.yul\":3534:3550   */\n      add\n        /* \"#utility.yul\":3512:3564   */\n      tag_95\n      jump\t// in\n    tag_94:\n        /* \"#utility.yul\":3589:3618   */\n      tag_96\n        /* \"#utility.yul\":3611:3617   */\n      dup2\n        /* \"#utility.yul\":3589:3618   */\n      tag_97\n      jump\t// in\n    tag_96:\n        /* \"#utility.yul\":3584:3587   */\n      dup5\n        /* \"#utility.yul\":3580:3619   */\n      add\n        /* \"#utility.yul\":3573:3619   */\n      swap2\n      pop\n        /* \"#utility.yul\":3353:3625   */\n      pop\n        /* \"#utility.yul\":3261:3625   */\n      swap3\n      swap2\n      pop\n      pop\n      jump\t// out\n        /* \"#utility.yul\":3631:3853   */\n    tag_10:\n        /* \"#utility.yul\":3724:3728   */\n      0x00\n        /* \"#utility.yul\":3762:3764   */\n      0x20\n        /* \"#utility.yul\":3751:3760   */\n      dup3\n        /* \"#utility.yul\":3747:3765   */\n      add\n        /* \"#utility.yul\":3739:3765   */\n      swap1\n      pop\n        /* \"#utility.yul\":3775:3846   */\n      tag_99\n        /* \"#utility.yul\":3843:3844   */\n      0x00\n        /* \"#utility.yul\":3832:3841   */\n      dup4\n        /* \"#utility.yul\":3828:3845   */\n      add\n        /* \"#utility.yul\":3819:3825   */\n      dup5\n        /* \"#utility.yul\":3775:3846   */\n      tag_71\n      jump\t// in\n    tag_99:\n        /* \"#utility.yul\":3631:3853   */\n      swap3\n      swap2\n      pop\n      pop\n      jump\t// out\n        /* \"#utility.yul\":3859:4232   */\n    tag_16:\n        /* \"#utility.yul\":4002:4006   */\n      0x00\n        /* \"#utility.yul\":4040:4042   */\n      0x20\n        /* \"#utility.yul\":4029:4038   */\n      dup3\n        /* \"#utility.yul\":4025:4043   */\n      add\n        /* \"#utility.yul\":4017:4043   */\n      swap1\n      pop\n        /* \"#utility.yul\":4089:4098   */\n      dup2\n        /* \"#utility.yul\":4083:4087   */\n      dup2\n        /* \"#utility.yul\":4079:4099   */\n      sub\n        /* \"#utility.yul\":4075:4076   */\n      0x00\n        /* \"#utility.yul\":4064:4073   */\n      dup4\n        /* \"#utility.yul\":4060:4077   */\n      add\n        /* \"#utility.yul\":4053:4100   */\n      mstore\n        /* \"#utility.yul\":4117:4225   */\n      tag_101\n        /* \"#utility.yul\":4220:4224   */\n      dup2\n        /* \"#utility.yul\":4211:4217   */\n      dup5\n        /* \"#utility.yul\":4117:4225   */\n      tag_74\n      jump\t// in\n    tag_101:\n        /* \"#utility.yul\":4109:4225   */\n      swap1\n      pop\n        /* \"#utility.yul\":3859:4232   */\n      swap3\n      swap2\n      pop\n      pop\n      jump\t// out\n        /* \"#utility.yul\":4238:4771   */\n    tag_21:\n        /* \"#utility.yul\":4407:4411   */\n      0x00\n        /* \"#utility.yul\":4445:4447   */\n      0x60\n        /* \"#utility.yul\":4434:4443   */\n      dup3\n        /* \"#utility.yul\":4430:4448   */\n      add\n        /* \"#utility.yul\":4422:4448   */\n      swap1\n      pop\n        /* \"#utility.yul\":4494:4503   */\n      dup2\n        /* \"#utility.yul\":4488:4492   */\n      dup2\n        /* \"#utility.yul\":4484:4504   */\n      sub\n        /* \"#utility.yul\":4480:4481   */\n      0x00\n        /* \"#utility.yul\":4469:4478   */\n      dup4\n        /* \"#utility.yul\":4465:4482   */\n      add\n        /* \"#utility.yul\":4458:4505   */\n      mstore\n        /* \"#utility.yul\":4522:4600   */\n      tag_103\n        /* \"#utility.yul\":4595:4599   */\n      dup2\n        /* \"#utility.yul\":4586:4592   */\n      dup7\n        /* \"#utility.yul\":4522:4600   */\n      tag_88\n      jump\t// in\n    tag_103:\n        /* \"#utility.yul\":4514:4600   */\n      swap1\n      pop\n        /* \"#utility.yul\":4610:4682   */\n      tag_104\n        /* \"#utility.yul\":4678:4680   */\n      0x20\n        /* \"#utility.yul\":4667:4676   */\n      dup4\n        /* \"#utility.yul\":4663:4681   */\n      add\n        /* \"#utility.yul\":4654:4660   */\n      dup6\n        /* \"#utility.yul\":4610:4682   */\n      tag_71\n      jump\t// in\n    tag_104:\n        /* \"#utility.yul\":4692:4764   */\n      tag_105\n        /* \"#utility.yul\":4760:4762   */\n      0x40\n        /* \"#utility.yul\":4749:4758   */\n      dup4\n        /* \"#utility.yul\":4745:4763   */\n      add\n        /* \"#utility.yul\":4736:4742   */\n      dup5\n        /* \"#utility.yul\":4692:4764   */\n      tag_71\n      jump\t// in\n    tag_105:\n        /* \"#utility.yul\":4238:4771   */\n      swap5\n      swap4\n      pop\n      pop\n      pop\n      pop\n      jump\t// out\n        /* \"#utility.yul\":4777:4906   */\n    tag_34:\n        /* \"#utility.yul\":4811:4817   */\n      0x00\n        /* \"#utility.yul\":4838:4858   */\n      tag_107\n      tag_108\n      jump\t// in\n    tag_107:\n        /* \"#utility.yul\":4828:4858   */\n      swap1\n      pop\n        /* \"#utility.yul\":4867:4900   */\n      tag_109\n        /* \"#utility.yul\":4895:4899   */\n      dup3\n        /* \"#utility.yul\":4887:4893   */\n      dup3\n        /* \"#utility.yul\":4867:4900   */\n      tag_110\n      jump\t// in\n    tag_109:\n        /* \"#utility.yul\":4777:4906   */\n      swap2\n      swap1\n      pop\n      jump\t// out\n        /* \"#utility.yul\":4912:4987   */\n    tag_108:\n        /* \"#utility.yul\":4945:4951   */\n      0x00\n        /* \"#utility.yul\":4978:4980   */\n      0x40\n        /* \"#utility.yul\":4972:4981   */\n      mload\n        /* \"#utility.yul\":4962:4981   */\n      swap1\n      pop\n        /* \"#utility.yul\":4912:4987   */\n      swap1\n      jump\t// out\n        /* \"#utility.yul\":4993:5301   */\n    tag_33:\n        /* \"#utility.yul\":5055:5059   */\n      0x00\n        /* \"#utility.yul\":5145:5163   */\n      0xffffffffffffffff\n        /* \"#utility.yul\":5137:5143   */\n      dup3\n        /* \"#utility.yul\":5134:5164   */\n      gt\n        /* \"#utility.yul\":5131:5187   */\n      iszero\n      tag_113\n      jumpi\n        /* \"#utility.yul\":5167:5185   */\n      tag_114\n      tag_115\n      jump\t// in\n    tag_114:\n        /* \"#utility.yul\":5131:5187   */\n    tag_113:\n        /* \"#utility.yul\":5205:5234   */\n      tag_116\n        /* \"#utility.yul\":5227:5233   */\n      dup3\n        /* \"#utility.yul\":5205:5234   */\n      tag_97\n      jump\t// in\n    tag_116:\n        /* \"#utility.yul\":5197:5234   */\n      swap1\n      pop\n        /* \"#utility.yul\":5289:5293   */\n      0x20\n        /* \"#utility.yul\":5283:5287   */\n      dup2\n        /* \"#utility.yul\":5279:5294   */\n      add\n        /* \"#utility.yul\":5271:5294   */\n      swap1\n      pop\n        /* \"#utility.yul\":4993:5301   */\n      swap2\n      swap1\n      pop\n      jump\t// out\n        /* \"#utility.yul\":5307:5439   */\n    tag_81:\n        /* \"#utility.yul\":5374:5378   */\n      0x00\n        /* \"#utility.yul\":5397:5400   */\n      dup2\n        /* \"#utility.yul\":5389:5400   */\n      swap1\n      pop\n        /* \"#utility.yul\":5427:5431   */\n      0x20\n        /* \"#utility.yul\":5422:5425   */\n      dup3\n        /* \"#utility.yul\":5418:5432   */\n      add\n        /* \"#utility.yul\":5410:5432   */\n      swap1\n      pop\n        /* \"#utility.yul\":5307:5439   */\n      swap2\n      swap1\n      pop\n      jump\t// out\n        /* \"#utility.yul\":5445:5559   */\n    tag_77:\n        /* \"#utility.yul\":5512:5518   */\n      0x00\n        /* \"#utility.yul\":5546:5551   */\n      dup2\n        /* \"#utility.yul\":5540:5552   */\n      mload\n        /* \"#utility.yul\":5530:5552   */\n      swap1\n      pop\n        /* \"#utility.yul\":5445:5559   */\n      swap2\n      swap1\n      pop\n      jump\t// out\n        /* \"#utility.yul\":5565:5664   */\n    tag_91:\n        /* \"#utility.yul\":5617:5623   */\n      0x00\n        /* \"#utility.yul\":5651:5656   */\n      dup2\n        /* \"#utility.yul\":5645:5657   */\n      mload\n        /* \"#utility.yul\":5635:5657   */\n      swap1\n      pop\n        /* \"#utility.yul\":5565:5664   */\n      swap2\n      swap1\n      pop\n      jump\t// out\n        /* \"#utility.yul\":5670:5783   */\n    tag_87:\n        /* \"#utility.yul\":5740:5744   */\n      0x00\n        /* \"#utility.yul\":5772:5776   */\n      0x20\n        /* \"#utility.yul\":5767:5770   */\n      dup3\n        /* \"#utility.yul\":5763:5777   */\n      add\n        /* \"#utility.yul\":5755:5777   */\n      swap1\n      pop\n        /* \"#utility.yul\":5670:5783   */\n      swap2\n      swap1\n      pop\n      jump\t// out\n        /* \"#utility.yul\":5789:5973   */\n    tag_79:\n        /* \"#utility.yul\":5888:5899   */\n      0x00\n        /* \"#utility.yul\":5922:5928   */\n      dup3\n        /* \"#utility.yul\":5917:5920   */\n      dup3\n        /* \"#utility.yul\":5910:5929   */\n      mstore\n        /* \"#utility.yul\":5962:5966   */\n      0x20\n        /* \"#utility.yul\":5957:5960   */\n      dup3\n        /* \"#utility.yul\":5953:5967   */\n      add\n        /* \"#utility.yul\":5938:5967   */\n      swap1\n      pop\n        /* \"#utility.yul\":5789:5973   */\n      swap3\n      swap2\n      pop\n      pop\n      jump\t// out\n        /* \"#utility.yul\":5979:6148   */\n    tag_93:\n        /* \"#utility.yul\":6063:6074   */\n      0x00\n        /* \"#utility.yul\":6097:6103   */\n      dup3\n        /* \"#utility.yul\":6092:6095   */\n      dup3\n        /* \"#utility.yul\":6085:6104   */\n      mstore\n        /* \"#utility.yul\":6137:6141   */\n      0x20\n        /* \"#utility.yul\":6132:6135   */\n      dup3\n        /* \"#utility.yul\":6128:6142   */\n      add\n        /* \"#utility.yul\":6113:6142   */\n      swap1\n      pop\n        /* \"#utility.yul\":5979:6148   */\n      swap3\n      swap2\n      pop\n      pop\n      jump\t// out\n        /* \"#utility.yul\":6154:6250   */\n    tag_70:\n        /* \"#utility.yul\":6191:6198   */\n      0x00\n        /* \"#utility.yul\":6220:6244   */\n      tag_124\n        /* \"#utility.yul\":6238:6243   */\n      dup3\n        /* \"#utility.yul\":6220:6244   */\n      tag_125\n      jump\t// in\n    tag_124:\n        /* \"#utility.yul\":6209:6244   */\n      swap1\n      pop\n        /* \"#utility.yul\":6154:6250   */\n      swap2\n      swap1\n      pop\n      jump\t// out\n        /* \"#utility.yul\":6256:6382   */\n    tag_125:\n        /* \"#utility.yul\":6293:6300   */\n      0x00\n        /* \"#utility.yul\":6333:6375   */\n      0xffffffffffffffffffffffffffffffffffffffff\n        /* \"#utility.yul\":6326:6331   */\n      dup3\n        /* \"#utility.yul\":6322:6376   */\n      and\n        /* \"#utility.yul\":6311:6376   */\n      swap1\n      pop\n        /* \"#utility.yul\":6256:6382   */\n      swap2\n      swap1\n      pop\n      jump\t// out\n        /* \"#utility.yul\":6388:6542   */\n    tag_39:\n        /* \"#utility.yul\":6472:6478   */\n      dup3\n        /* \"#utility.yul\":6467:6470   */\n      dup2\n        /* \"#utility.yul\":6462:6465   */\n      dup4\n        /* \"#utility.yul\":6449:6479   */\n      calldatacopy\n        /* \"#utility.yul\":6534:6535   */\n      0x00\n        /* \"#utility.yul\":6525:6531   */\n      dup4\n        /* \"#utility.yul\":6520:6523   */\n      dup4\n        /* \"#utility.yul\":6516:6532   */\n      add\n        /* \"#utility.yul\":6509:6536   */\n      mstore\n        /* \"#utility.yul\":6388:6542   */\n      pop\n      pop\n      pop\n      jump\t// out\n        /* \"#utility.yul\":6548:6855   */\n    tag_95:\n        /* \"#utility.yul\":6616:6617   */\n      0x00\n        /* \"#utility.yul\":6626:6739   */\n    tag_129:\n        /* \"#utility.yul\":6640:6646   */\n      dup4\n        /* \"#utility.yul\":6637:6638   */\n      dup2\n        /* \"#utility.yul\":6634:6647   */\n      lt\n        /* \"#utility.yul\":6626:6739   */\n      iszero\n      tag_131\n      jumpi\n        /* \"#utility.yul\":6725:6726   */\n      dup1\n        /* \"#utility.yul\":6720:6723   */\n      dup3\n        /* \"#utility.yul\":6716:6727   */\n      add\n        /* \"#utility.yul\":6710:6728   */\n      mload\n        /* \"#utility.yul\":6706:6707   */\n      dup2\n        /* \"#utility.yul\":6701:6704   */\n      dup5\n        /* \"#utility.yul\":6697:6708   */\n      add\n        /* \"#utility.yul\":6690:6729   */\n      mstore\n        /* \"#utility.yul\":6662:6664   */\n      0x20\n        /* \"#utility.yul\":6659:6660   */\n      dup2\n        /* \"#utility.yul\":6655:6665   */\n      add\n        /* \"#utility.yul\":6650:6665   */\n      swap1\n      pop\n        /* \"#utility.yul\":6626:6739   */\n      jump(tag_129)\n    tag_131:\n        /* \"#utility.yul\":6757:6763   */\n      dup4\n        /* \"#utility.yul\":6754:6755   */\n      dup2\n        /* \"#utility.yul\":6751:6764   */\n      gt\n        /* \"#utility.yul\":6748:6849   */\n      iszero\n      tag_132\n      jumpi\n        /* \"#utility.yul\":6837:6838   */\n      0x00\n        /* \"#utility.yul\":6828:6834   */\n      dup5\n        /* \"#utility.yul\":6823:6826   */\n      dup5\n        /* \"#utility.yul\":6819:6835   */\n      add\n        /* \"#utility.yul\":6812:6839   */\n      mstore\n        /* \"#utility.yul\":6748:6849   */\n    tag_132:\n        /* \"#utility.yul\":6597:6855   */\n      pop\n        /* \"#utility.yul\":6548:6855   */\n      pop\n      pop\n      pop\n      jump\t// out\n        /* \"#utility.yul\":6861:7142   */\n    tag_110:\n        /* \"#utility.yul\":6944:6971   */\n      tag_134\n        /* \"#utility.yul\":6966:6970   */\n      dup3\n        /* \"#utility.yul\":6944:6971   */\n      tag_97\n      jump\t// in\n    tag_134:\n        /* \"#utility.yul\":6936:6942   */\n      dup2\n        /* \"#utility.yul\":6932:6972   */\n      add\n        /* \"#utility.yul\":7074:7080   */\n      dup2\n        /* \"#utility.yul\":7062:7072   */\n      dup2\n        /* \"#utility.yul\":7059:7081   */\n      lt\n        /* \"#utility.yul\":7038:7056   */\n      0xffffffffffffffff\n        /* \"#utility.yul\":7026:7036   */\n      dup3\n        /* \"#utility.yul\":7023:7057   */\n      gt\n        /* \"#utility.yul\":7020:7082   */\n      or\n        /* \"#utility.yul\":7017:7105   */\n      iszero\n      tag_135\n      jumpi\n        /* \"#utility.yul\":7085:7103   */\n      tag_136\n      tag_115\n      jump\t// in\n    tag_136:\n        /* \"#utility.yul\":7017:7105   */\n    tag_135:\n        /* \"#utility.yul\":7125:7135   */\n      dup1\n        /* \"#utility.yul\":7121:7123   */\n      0x40\n        /* \"#utility.yul\":7114:7136   */\n      mstore\n        /* \"#utility.yul\":6904:7142   */\n      pop\n        /* \"#utility.yul\":6861:7142   */\n      pop\n      pop\n      jump\t// out\n        /* \"#utility.yul\":7148:7328   */\n    tag_115:\n        /* \"#utility.yul\":7196:7273   */\n      0x4e487b7100000000000000000000000000000000000000000000000000000000\n        /* \"#utility.yul\":7193:7194   */\n      0x00\n        /* \"#utility.yul\":7186:7274   */\n      mstore\n        /* \"#utility.yul\":7293:7297   */\n      0x41\n        /* \"#utility.yul\":7290:7291   */\n      0x04\n        /* \"#utility.yul\":7283:7298   */\n      mstore\n        /* \"#utility.yul\":7317:7321   */\n      0x24\n        /* \"#utility.yul\":7314:7315   */\n      0x00\n        /* \"#utility.yul\":7307:7322   */\n      revert\n        /* \"#utility.yul\":7334:7451   */\n    tag_48:\n        /* \"#utility.yul\":7443:7444   */\n      0x00\n        /* \"#utility.yul\":7440:7441   */\n      dup1\n        /* \"#utility.yul\":7433:7445   */\n      revert\n        /* \"#utility.yul\":7457:7574   */\n    tag_37:\n        /* \"#utility.yul\":7566:7567   */\n      0x00\n        /* \"#utility.yul\":7563:7564   */\n      dup1\n        /* \"#utility.yul\":7556:7568   */\n      revert\n        /* \"#utility.yul\":7580:7697   */\n    tag_60:\n        /* \"#utility.yul\":7689:7690   */\n      0x00\n        /* \"#utility.yul\":7686:7687   */\n      dup1\n        /* \"#utility.yul\":7679:7691   */\n      revert\n        /* \"#utility.yul\":7703:7820   */\n    tag_53:\n        /* \"#utility.yul\":7812:7813   */\n      0x00\n        /* \"#utility.yul\":7809:7810   */\n      dup1\n        /* \"#utility.yul\":7802:7814   */\n      revert\n        /* \"#utility.yul\":7826:7928   */\n    tag_97:\n        /* \"#utility.yul\":7867:7873   */\n      0x00\n        /* \"#utility.yul\":7918:7920   */\n      0x1f\n        /* \"#utility.yul\":7914:7921   */\n      not\n        /* \"#utility.yul\":7909:7911   */\n      0x1f\n        /* \"#utility.yul\":7902:7907   */\n      dup4\n        /* \"#utility.yul\":7898:7912   */\n      add\n        /* \"#utility.yul\":7894:7922   */\n      and\n        /* \"#utility.yul\":7884:7922   */\n      swap1\n      pop\n        /* \"#utility.yul\":7826:7928   */\n      swap2\n      swap1\n      pop\n      jump\t// out\n        /* \"#utility.yul\":7934:8056   */\n    tag_43:\n        /* \"#utility.yul\":8007:8031   */\n      tag_144\n        /* \"#utility.yul\":8025:8030   */\n      dup2\n        /* \"#utility.yul\":8007:8031   */\n      tag_70\n      jump\t// in\n    tag_144:\n        /* \"#utility.yul\":8000:8005   */\n      dup2\n        /* \"#utility.yul\":7997:8032   */\n      eq\n        /* \"#utility.yul\":7987:8050   */\n      tag_145\n      jumpi\n        /* \"#utility.yul\":8046:8047   */\n      0x00\n        /* \"#utility.yul\":8043:8044   */\n      dup1\n        /* \"#utility.yul\":8036:8048   */\n      revert\n        /* \"#utility.yul\":7987:8050   */\n    tag_145:\n        /* \"#utility.yul\":7934:8056   */\n      pop\n      jump\t// out\n    stop\n\n    sub_0: assembly {\n            /* \"projects/crypto/web3bets_smartcontract/contracts/Pools.sol\":336:1794  contract Pool is IWeb3BetsPoolsV1 {... */\n          mstore(0x40, 0x80)\n            /* \"projects/crypto/web3bets_smartcontract/contracts/Pools.sol\":886:1103  constructor(... */\n          callvalue\n          dup1\n          iszero\n          tag_1\n          jumpi\n          0x00\n          dup1\n          revert\n        tag_1:\n          pop\n          mload(0x40)\n          sub(codesize, bytecodeSize)\n          dup1\n          bytecodeSize\n          dup4\n          codecopy\n          dup2\n          dup2\n          add\n          0x40\n          mstore\n          dup2\n          add\n          swap1\n          tag_2\n          swap2\n          swap1\n          tag_3\n          jump\t// in\n        tag_2:\n            /* \"projects/crypto/web3bets_smartcontract/contracts/Pools.sol\":1013:1018  _name */\n          dup3\n            /* \"projects/crypto/web3bets_smartcontract/contracts/Pools.sol\":1006:1010  name */\n          0x00\n            /* \"projects/crypto/web3bets_smartcontract/contracts/Pools.sol\":1006:1018  name = _name */\n          swap1\n          dup1\n          mload\n          swap1\n          0x20\n          add\n          swap1\n          tag_6\n          swap3\n          swap2\n          swap1\n          tag_7\n          jump\t// in\n        tag_6:\n          pop\n            /* \"projects/crypto/web3bets_smartcontract/contracts/Pools.sol\":1043:1056  _eventAddress */\n          dup2\n            /* \"projects/crypto/web3bets_smartcontract/contracts/Pools.sol\":1028:1040  eventAddress */\n          0x05\n          0x00\n            /* \"projects/crypto/web3bets_smartcontract/contracts/Pools.sol\":1028:1056  eventAddress = _eventAddress */\n          0x0100\n          exp\n          dup2\n          sload\n          dup2\n          0xffffffffffffffffffffffffffffffffffffffff\n          mul\n          not\n          and\n          swap1\n          dup4\n          0xffffffffffffffffffffffffffffffffffffffff\n          and\n          mul\n          or\n          swap1\n          sstore\n          pop\n            /* \"projects/crypto/web3bets_smartcontract/contracts/Pools.sol\":1082:1096  _marketAddress */\n          dup1\n            /* \"projects/crypto/web3bets_smartcontract/contracts/Pools.sol\":1066:1079  marketAddress */\n          0x06\n          0x00\n            /* \"projects/crypto/web3bets_smartcontract/contracts/Pools.sol\":1066:1096  marketAddress = _marketAddress */\n          0x0100\n          exp\n          dup2\n          sload\n          dup2\n          0xffffffffffffffffffffffffffffffffffffffff\n          mul\n          not\n          and\n          swap1\n          dup4\n          0xffffffffffffffffffffffffffffffffffffffff\n          and\n          mul\n          or\n          swap1\n          sstore\n          pop\n            /* \"projects/crypto/web3bets_smartcontract/contracts/Pools.sol\":886:1103  constructor(... */\n          pop\n          pop\n          pop\n            /* \"projects/crypto/web3bets_smartcontract/contracts/Pools.sol\":336:1794  contract Pool is IWeb3BetsPoolsV1 {... */\n          jump(tag_8)\n        tag_7:\n          dup3\n          dup1\n          sload\n          tag_9\n          swap1\n          tag_10\n          jump\t// in\n        tag_9:\n          swap1\n          0x00\n          mstore\n          keccak256(0x00, 0x20)\n          swap1\n          0x1f\n          add\n          0x20\n          swap1\n          div\n          dup2\n          add\n          swap3\n          dup3\n          tag_12\n          jumpi\n          0x00\n          dup6\n          sstore\n          jump(tag_11)\n        tag_12:\n          dup3\n          0x1f\n          lt\n          tag_13\n          jumpi\n          dup1\n          mload\n          not(0xff)\n          and\n          dup4\n          dup1\n          add\n          or\n          dup6\n          sstore\n          jump(tag_11)\n        tag_13:\n          dup3\n          dup1\n          add\n          0x01\n          add\n          dup6\n          sstore\n          dup3\n          iszero\n          tag_11\n          jumpi\n          swap2\n          dup3\n          add\n        tag_14:\n          dup3\n          dup2\n          gt\n          iszero\n          tag_15\n          jumpi\n          dup3\n          mload\n          dup3\n          sstore\n          swap2\n          0x20\n          add\n          swap2\n          swap1\n          0x01\n          add\n          swap1\n          jump(tag_14)\n        tag_15:\n        tag_11:\n          pop\n          swap1\n          pop\n          tag_16\n          swap2\n          swap1\n          tag_17\n          jump\t// in\n        tag_16:\n          pop\n          swap1\n          jump\t// out\n        tag_17:\n        tag_18:\n          dup1\n          dup3\n          gt\n          iszero\n          tag_19\n          jumpi\n          0x00\n          dup2\n          0x00\n          swap1\n          sstore\n          pop\n          0x01\n          add\n          jump(tag_18)\n        tag_19:\n          pop\n          swap1\n          jump\t// out\n            /* \"#utility.yul\":7:428   */\n        tag_21:\n            /* \"#utility.yul\":96:101   */\n          0x00\n            /* \"#utility.yul\":121:187   */\n          tag_23\n            /* \"#utility.yul\":137:186   */\n          tag_24\n            /* \"#utility.yul\":179:185   */\n          dup5\n            /* \"#utility.yul\":137:186   */\n          tag_25\n          jump\t// in\n        tag_24:\n            /* \"#utility.yul\":121:187   */\n          tag_26\n          jump\t// in\n        tag_23:\n            /* \"#utility.yul\":112:187   */\n          swap1\n          pop\n            /* \"#utility.yul\":210:216   */\n          dup3\n            /* \"#utility.yul\":203:208   */\n          dup2\n            /* \"#utility.yul\":196:217   */\n          mstore\n            /* \"#utility.yul\":248:252   */\n          0x20\n            /* \"#utility.yul\":241:246   */\n          dup2\n            /* \"#utility.yul\":237:253   */\n          add\n            /* \"#utility.yul\":286:289   */\n          dup5\n            /* \"#utility.yul\":277:283   */\n          dup5\n            /* \"#utility.yul\":272:275   */\n          dup5\n            /* \"#utility.yul\":268:284   */\n          add\n            /* \"#utility.yul\":265:290   */\n          gt\n            /* \"#utility.yul\":262:374   */\n          iszero\n          tag_27\n          jumpi\n            /* \"#utility.yul\":293:372   */\n          tag_28\n          tag_29\n          jump\t// in\n        tag_28:\n            /* \"#utility.yul\":262:374   */\n        tag_27:\n            /* \"#utility.yul\":383:422   */\n          tag_30\n            /* \"#utility.yul\":415:421   */\n          dup5\n            /* \"#utility.yul\":410:413   */\n          dup3\n            /* \"#utility.yul\":405:408   */\n          dup6\n            /* \"#utility.yul\":383:422   */\n          tag_31\n          jump\t// in\n        tag_30:\n            /* \"#utility.yul\":102:428   */\n          pop\n            /* \"#utility.yul\":7:428   */\n          swap4\n          swap3\n          pop\n          pop\n          pop\n          jump\t// out\n            /* \"#utility.yul\":434:577   */\n        tag_32:\n            /* \"#utility.yul\":491:496   */\n          0x00\n            /* \"#utility.yul\":522:528   */\n          dup2\n            /* \"#utility.yul\":516:529   */\n          mload\n            /* \"#utility.yul\":507:529   */\n          swap1\n          pop\n            /* \"#utility.yul\":538:571   */\n          tag_34\n            /* \"#utility.yul\":565:570   */\n          dup2\n            /* \"#utility.yul\":538:571   */\n          tag_35\n          jump\t// in\n        tag_34:\n            /* \"#utility.yul\":434:577   */\n          swap3\n          swap2\n          pop\n          pop\n          jump\t// out\n            /* \"#utility.yul\":597:952   */\n        tag_36:\n            /* \"#utility.yul\":664:669   */\n          0x00\n            /* \"#utility.yul\":713:716   */\n          dup3\n            /* \"#utility.yul\":706:710   */\n          0x1f\n            /* \"#utility.yul\":698:704   */\n          dup4\n            /* \"#utility.yul\":694:711   */\n          add\n            /* \"#utility.yul\":690:717   */\n          slt\n            /* \"#utility.yul\":680:802   */\n          tag_38\n          jumpi\n            /* \"#utility.yul\":721:800   */\n          tag_39\n          tag_40\n          jump\t// in\n        tag_39:\n            /* \"#utility.yul\":680:802   */\n        tag_38:\n            /* \"#utility.yul\":831:837   */\n          dup2\n            /* \"#utility.yul\":825:838   */\n          mload\n            /* \"#utility.yul\":856:946   */\n          tag_41\n            /* \"#utility.yul\":942:945   */\n          dup5\n            /* \"#utility.yul\":934:940   */\n          dup3\n            /* \"#utility.yul\":927:931   */\n          0x20\n            /* \"#utility.yul\":919:925   */\n          dup7\n            /* \"#utility.yul\":915:932   */\n          add\n            /* \"#utility.yul\":856:946   */\n          tag_21\n          jump\t// in\n        tag_41:\n            /* \"#utility.yul\":847:946   */\n          swap2\n          pop\n            /* \"#utility.yul\":670:952   */\n          pop\n            /* \"#utility.yul\":597:952   */\n          swap3\n          swap2\n          pop\n          pop\n          jump\t// out\n            /* \"#utility.yul\":958:1794   */\n        tag_3:\n            /* \"#utility.yul\":1056:1062   */\n          0x00\n            /* \"#utility.yul\":1064:1070   */\n          dup1\n            /* \"#utility.yul\":1072:1078   */\n          0x00\n            /* \"#utility.yul\":1121:1123   */\n          0x60\n            /* \"#utility.yul\":1109:1118   */\n          dup5\n            /* \"#utility.yul\":1100:1107   */\n          dup7\n            /* \"#utility.yul\":1096:1119   */\n          sub\n            /* \"#utility.yul\":1092:1124   */\n          slt\n            /* \"#utility.yul\":1089:1208   */\n          iszero\n          tag_43\n          jumpi\n            /* \"#utility.yul\":1127:1206   */\n          tag_44\n          tag_45\n          jump\t// in\n        tag_44:\n            /* \"#utility.yul\":1089:1208   */\n        tag_43:\n            /* \"#utility.yul\":1268:1269   */\n          0x00\n            /* \"#utility.yul\":1257:1266   */\n          dup5\n            /* \"#utility.yul\":1253:1270   */\n          add\n            /* \"#utility.yul\":1247:1271   */\n          mload\n            /* \"#utility.yul\":1298:1316   */\n          0xffffffffffffffff\n            /* \"#utility.yul\":1290:1296   */\n          dup2\n            /* \"#utility.yul\":1287:1317   */\n          gt\n            /* \"#utility.yul\":1284:1401   */\n          iszero\n          tag_46\n          jumpi\n            /* \"#utility.yul\":1320:1399   */\n          tag_47\n          tag_48\n          jump\t// in\n        tag_47:\n            /* \"#utility.yul\":1284:1401   */\n        tag_46:\n            /* \"#utility.yul\":1425:1499   */\n          tag_49\n            /* \"#utility.yul\":1491:1498   */\n          dup7\n            /* \"#utility.yul\":1482:1488   */\n          dup3\n            /* \"#utility.yul\":1471:1480   */\n          dup8\n            /* \"#utility.yul\":1467:1489   */\n          add\n            /* \"#utility.yul\":1425:1499   */\n          tag_36\n          jump\t// in\n        tag_49:\n            /* \"#utility.yul\":1415:1499   */\n          swap4\n          pop\n            /* \"#utility.yul\":1218:1509   */\n          pop\n            /* \"#utility.yul\":1548:1550   */\n          0x20\n            /* \"#utility.yul\":1574:1638   */\n          tag_50\n            /* \"#utility.yul\":1630:1637   */\n          dup7\n            /* \"#utility.yul\":1621:1627   */\n          dup3\n            /* \"#utility.yul\":1610:1619   */\n          dup8\n            /* \"#utility.yul\":1606:1628   */\n          add\n            /* \"#utility.yul\":1574:1638   */\n          tag_32\n          jump\t// in\n        tag_50:\n            /* \"#utility.yul\":1564:1638   */\n          swap3\n          pop\n            /* \"#utility.yul\":1519:1648   */\n          pop\n            /* \"#utility.yul\":1687:1689   */\n          0x40\n            /* \"#utility.yul\":1713:1777   */\n          tag_51\n            /* \"#utility.yul\":1769:1776   */\n          dup7\n            /* \"#utility.yul\":1760:1766   */\n          dup3\n            /* \"#utility.yul\":1749:1758   */\n          dup8\n            /* \"#utility.yul\":1745:1767   */\n          add\n            /* \"#utility.yul\":1713:1777   */\n          tag_32\n          jump\t// in\n        tag_51:\n            /* \"#utility.yul\":1703:1777   */\n          swap2\n          pop\n            /* \"#utility.yul\":1658:1787   */\n          pop\n            /* \"#utility.yul\":958:1794   */\n          swap3\n          pop\n          swap3\n          pop\n          swap3\n          jump\t// out\n            /* \"#utility.yul\":1800:1929   */\n        tag_26:\n            /* \"#utility.yul\":1834:1840   */\n          0x00\n            /* \"#utility.yul\":1861:1881   */\n          tag_53\n          tag_54\n          jump\t// in\n        tag_53:\n            /* \"#utility.yul\":1851:1881   */\n          swap1\n          pop\n            /* \"#utility.yul\":1890:1923   */\n          tag_55\n            /* \"#utility.yul\":1918:1922   */\n          dup3\n            /* \"#utility.yul\":1910:1916   */\n          dup3\n            /* \"#utility.yul\":1890:1923   */\n          tag_56\n          jump\t// in\n        tag_55:\n            /* \"#utility.yul\":1800:1929   */\n          swap2\n          swap1\n          pop\n          jump\t// out\n            /* \"#utility.yul\":1935:2010   */\n        tag_54:\n            /* \"#utility.yul\":1968:1974   */\n          0x00\n            /* \"#utility.yul\":2001:2003   */\n          0x40\n            /* \"#utility.yul\":1995:2004   */\n          mload\n            /* \"#utility.yul\":1985:2004   */\n          swap1\n          pop\n            /* \"#utility.yul\":1935:2010   */\n          swap1\n          jump\t// out\n            /* \"#utility.yul\":2016:2324   */\n        tag_25:\n            /* \"#utility.yul\":2078:2082   */\n          0x00\n            /* \"#utility.yul\":2168:2186   */\n          0xffffffffffffffff\n            /* \"#utility.yul\":2160:2166   */\n          dup3\n            /* \"#utility.yul\":2157:2187   */\n          gt\n            /* \"#utility.yul\":2154:2210   */\n          iszero\n          tag_59\n          jumpi\n            /* \"#utility.yul\":2190:2208   */\n          tag_60\n          tag_61\n          jump\t// in\n        tag_60:\n            /* \"#utility.yul\":2154:2210   */\n        tag_59:\n            /* \"#utility.yul\":2228:2257   */\n          tag_62\n            /* \"#utility.yul\":2250:2256   */\n          dup3\n            /* \"#utility.yul\":2228:2257   */\n          tag_63\n          jump\t// in\n        tag_62:\n            /* \"#utility.yul\":2220:2257   */\n          swap1\n          pop\n            /* \"#utility.yul\":2312:2316   */\n          0x20\n            /* \"#utility.yul\":2306:2310   */\n          dup2\n            /* \"#utility.yul\":2302:2317   */\n          add\n            /* \"#utility.yul\":2294:2317   */\n          swap1\n          pop\n            /* \"#utility.yul\":2016:2324   */\n          swap2\n          swap1\n          pop\n          jump\t// out\n            /* \"#utility.yul\":2330:2426   */\n        tag_64:\n            /* \"#utility.yul\":2367:2374   */\n          0x00\n            /* \"#utility.yul\":2396:2420   */\n          tag_66\n            /* \"#utility.yul\":2414:2419   */\n          dup3\n            /* \"#utility.yul\":2396:2420   */\n          tag_67\n          jump\t// in\n        tag_66:\n            /* \"#utility.yul\":2385:2420   */\n          swap1\n          pop\n            /* \"#utility.yul\":2330:2426   */\n          swap2\n          swap1\n          pop\n          jump\t// out\n            /* \"#utility.yul\":2432:2558   */\n        tag_67:\n            /* \"#utility.yul\":2469:2476   */\n          0x00\n            /* \"#utility.yul\":2509:2551   */\n          0xffffffffffffffffffffffffffffffffffffffff\n            /* \"#utility.yul\":2502:2507   */\n          dup3\n            /* \"#utility.yul\":2498:2552   */\n          and\n            /* \"#utility.yul\":2487:2552   */\n          swap1\n          pop\n            /* \"#utility.yul\":2432:2558   */\n          swap2\n          swap1\n          pop\n          jump\t// out\n            /* \"#utility.yul\":2564:2871   */\n        tag_31:\n            /* \"#utility.yul\":2632:2633   */\n          0x00\n            /* \"#utility.yul\":2642:2755   */\n        tag_70:\n            /* \"#utility.yul\":2656:2662   */\n          dup4\n            /* \"#utility.yul\":2653:2654   */\n          dup2\n            /* \"#utility.yul\":2650:2663   */\n          lt\n            /* \"#utility.yul\":2642:2755   */\n          iszero\n          tag_72\n          jumpi\n            /* \"#utility.yul\":2741:2742   */\n          dup1\n            /* \"#utility.yul\":2736:2739   */\n          dup3\n            /* \"#utility.yul\":2732:2743   */\n          add\n            /* \"#utility.yul\":2726:2744   */\n          mload\n            /* \"#utility.yul\":2722:2723   */\n          dup2\n            /* \"#utility.yul\":2717:2720   */\n          dup5\n            /* \"#utility.yul\":2713:2724   */\n          add\n            /* \"#utility.yul\":2706:2745   */\n          mstore\n            /* \"#utility.yul\":2678:2680   */\n          0x20\n            /* \"#utility.yul\":2675:2676   */\n          dup2\n            /* \"#utility.yul\":2671:2681   */\n          add\n            /* \"#utility.yul\":2666:2681   */\n          swap1\n          pop\n            /* \"#utility.yul\":2642:2755   */\n          jump(tag_70)\n        tag_72:\n            /* \"#utility.yul\":2773:2779   */\n          dup4\n            /* \"#utility.yul\":2770:2771   */\n          dup2\n            /* \"#utility.yul\":2767:2780   */\n          gt\n            /* \"#utility.yul\":2764:2865   */\n          iszero\n          tag_73\n          jumpi\n            /* \"#utility.yul\":2853:2854   */\n          0x00\n            /* \"#utility.yul\":2844:2850   */\n          dup5\n            /* \"#utility.yul\":2839:2842   */\n          dup5\n            /* \"#utility.yul\":2835:2851   */\n          add\n            /* \"#utility.yul\":2828:2855   */\n          mstore\n            /* \"#utility.yul\":2764:2865   */\n        tag_73:\n            /* \"#utility.yul\":2613:2871   */\n          pop\n            /* \"#utility.yul\":2564:2871   */\n          pop\n          pop\n          pop\n          jump\t// out\n            /* \"#utility.yul\":2877:3197   */\n        tag_10:\n            /* \"#utility.yul\":2921:2927   */\n          0x00\n            /* \"#utility.yul\":2958:2959   */\n          0x02\n            /* \"#utility.yul\":2952:2956   */\n          dup3\n            /* \"#utility.yul\":2948:2960   */\n          div\n            /* \"#utility.yul\":2938:2960   */\n          swap1\n          pop\n            /* \"#utility.yul\":3005:3006   */\n          0x01\n            /* \"#utility.yul\":2999:3003   */\n          dup3\n            /* \"#utility.yul\":2995:3007   */\n          and\n            /* \"#utility.yul\":3026:3044   */\n          dup1\n            /* \"#utility.yul\":3016:3097   */\n          tag_75\n          jumpi\n            /* \"#utility.yul\":3082:3086   */\n          0x7f\n            /* \"#utility.yul\":3074:3080   */\n          dup3\n            /* \"#utility.yul\":3070:3087   */\n          and\n            /* \"#utility.yul\":3060:3087   */\n          swap2\n          pop\n            /* \"#utility.yul\":3016:3097   */\n        tag_75:\n            /* \"#utility.yul\":3144:3146   */\n          0x20\n            /* \"#utility.yul\":3136:3142   */\n          dup3\n            /* \"#utility.yul\":3133:3147   */\n          lt\n            /* \"#utility.yul\":3113:3131   */\n          dup2\n            /* \"#utility.yul\":3110:3148   */\n          eq\n            /* \"#utility.yul\":3107:3191   */\n          iszero\n          tag_76\n          jumpi\n            /* \"#utility.yul\":3163:3181   */\n          tag_77\n          tag_78\n          jump\t// in\n        tag_77:\n            /* \"#utility.yul\":3107:3191   */\n        tag_76:\n            /* \"#utility.yul\":2928:3197   */\n          pop\n            /* \"#utility.yul\":2877:3197   */\n          swap2\n          swap1\n          pop\n          jump\t// out\n            /* \"#utility.yul\":3203:3484   */\n        tag_56:\n            /* \"#utility.yul\":3286:3313   */\n          tag_80\n            /* \"#utility.yul\":3308:3312   */\n          dup3\n            /* \"#utility.yul\":3286:3313   */\n          tag_63\n          jump\t// in\n        tag_80:\n            /* \"#utility.yul\":3278:3284   */\n          dup2\n            /* \"#utility.yul\":3274:3314   */\n          add\n            /* \"#utility.yul\":3416:3422   */\n          dup2\n            /* \"#utility.yul\":3404:3414   */\n          dup2\n            /* \"#utility.yul\":3401:3423   */\n          lt\n            /* \"#utility.yul\":3380:3398   */\n          0xffffffffffffffff\n            /* \"#utility.yul\":3368:3378   */\n          dup3\n            /* \"#utility.yul\":3365:3399   */\n          gt\n            /* \"#utility.yul\":3362:3424   */\n          or\n            /* \"#utility.yul\":3359:3447   */\n          iszero\n          tag_81\n          jumpi\n            /* \"#utility.yul\":3427:3445   */\n          tag_82\n          tag_61\n          jump\t// in\n        tag_82:\n            /* \"#utility.yul\":3359:3447   */\n        tag_81:\n            /* \"#utility.yul\":3467:3477   */\n          dup1\n            /* \"#utility.yul\":3463:3465   */\n          0x40\n            /* \"#utility.yul\":3456:3478   */\n          mstore\n            /* \"#utility.yul\":3246:3484   */\n          pop\n            /* \"#utility.yul\":3203:3484   */\n          pop\n          pop\n          jump\t// out\n            /* \"#utility.yul\":3490:3670   */\n        tag_78:\n            /* \"#utility.yul\":3538:3615   */\n          0x4e487b7100000000000000000000000000000000000000000000000000000000\n            /* \"#utility.yul\":3535:3536   */\n          0x00\n            /* \"#utility.yul\":3528:3616   */\n          mstore\n            /* \"#utility.yul\":3635:3639   */\n          0x22\n            /* \"#utility.yul\":3632:3633   */\n          0x04\n            /* \"#utility.yul\":3625:3640   */\n          mstore\n            /* \"#utility.yul\":3659:3663   */\n          0x24\n            /* \"#utility.yul\":3656:3657   */\n          0x00\n            /* \"#utility.yul\":3649:3664   */\n          revert\n            /* \"#utility.yul\":3676:3856   */\n        tag_61:\n            /* \"#utility.yul\":3724:3801   */\n          0x4e487b7100000000000000000000000000000000000000000000000000000000\n            /* \"#utility.yul\":3721:3722   */\n          0x00\n            /* \"#utility.yul\":3714:3802   */\n          mstore\n            /* \"#utility.yul\":3821:3825   */\n          0x41\n            /* \"#utility.yul\":3818:3819   */\n          0x04\n            /* \"#utility.yul\":3811:3826   */\n          mstore\n            /* \"#utility.yul\":3845:3849   */\n          0x24\n            /* \"#utility.yul\":3842:3843   */\n          0x00\n            /* \"#utility.yul\":3835:3850   */\n          revert\n            /* \"#utility.yul\":3862:3979   */\n        tag_40:\n            /* \"#utility.yul\":3971:3972   */\n          0x00\n            /* \"#utility.yul\":3968:3969   */\n          dup1\n            /* \"#utility.yul\":3961:3973   */\n          revert\n            /* \"#utility.yul\":3985:4102   */\n        tag_29:\n            /* \"#utility.yul\":4094:4095   */\n          0x00\n            /* \"#utility.yul\":4091:4092   */\n          dup1\n            /* \"#utility.yul\":4084:4096   */\n          revert\n            /* \"#utility.yul\":4108:4225   */\n        tag_48:\n            /* \"#utility.yul\":4217:4218   */\n          0x00\n            /* \"#utility.yul\":4214:4215   */\n          dup1\n            /* \"#utility.yul\":4207:4219   */\n          revert\n            /* \"#utility.yul\":4231:4348   */\n        tag_45:\n            /* \"#utility.yul\":4340:4341   */\n          0x00\n            /* \"#utility.yul\":4337:4338   */\n          dup1\n            /* \"#utility.yul\":4330:4342   */\n          revert\n            /* \"#utility.yul\":4354:4456   */\n        tag_63:\n            /* \"#utility.yul\":4395:4401   */\n          0x00\n            /* \"#utility.yul\":4446:4448   */\n          0x1f\n            /* \"#utility.yul\":4442:4449   */\n          not\n            /* \"#utility.yul\":4437:4439   */\n          0x1f\n            /* \"#utility.yul\":4430:4435   */\n          dup4\n            /* \"#utility.yul\":4426:4440   */\n          add\n            /* \"#utility.yul\":4422:4450   */\n          and\n            /* \"#utility.yul\":4412:4450   */\n          swap1\n          pop\n            /* \"#utility.yul\":4354:4456   */\n          swap2\n          swap1\n          pop\n          jump\t// out\n            /* \"#utility.yul\":4462:4584   */\n        tag_35:\n            /* \"#utility.yul\":4535:4559   */\n          tag_91\n            /* \"#utility.yul\":4553:4558   */\n          dup2\n            /* \"#utility.yul\":4535:4559   */\n          tag_64\n          jump\t// in\n        tag_91:\n            /* \"#utility.yul\":4528:4533   */\n          dup2\n            /* \"#utility.yul\":4525:4560   */\n          eq\n            /* \"#utility.yul\":4515:4578   */\n          tag_92\n          jumpi\n            /* \"#utility.yul\":4574:4575   */\n          0x00\n            /* \"#utility.yul\":4571:4572   */\n          dup1\n            /* \"#utility.yul\":4564:4576   */\n          revert\n            /* \"#utility.yul\":4515:4578   */\n        tag_92:\n            /* \"#utility.yul\":4462:4584   */\n          pop\n          jump\t// out\n            /* \"projects/crypto/web3bets_smartcontract/contracts/Pools.sol\":336:1794  contract Pool is IWeb3BetsPoolsV1 {... */\n        tag_8:\n          dataSize(sub_0)\n          dup1\n          dataOffset(sub_0)\n          0x00\n          codecopy\n          0x00\n          return\n        stop\n\n        sub_0: assembly {\n                /* \"projects/crypto/web3bets_smartcontract/contracts/Pools.sol\":336:1794  contract Pool is IWeb3BetsPoolsV1 {... */\n              mstore(0x40, 0x80)\n              jumpi(tag_1, lt(calldatasize, 0x04))\n              shr(0xe0, calldataload(0x00))\n              dup1\n              0x06fdde03\n              eq\n              tag_2\n              jumpi\n              dup1\n              0x11610c25\n              eq\n              tag_3\n              jumpi\n              dup1\n              0x17d7de7c\n              eq\n              tag_4\n              jumpi\n              dup1\n              0x448e9117\n              eq\n              tag_5\n              jumpi\n              dup1\n              0x8b0e9f3f\n              eq\n              tag_6\n              jumpi\n            tag_1:\n              0x00\n              dup1\n              revert\n                /* \"projects/crypto/web3bets_smartcontract/contracts/Pools.sol\":376:394  string public name */\n            tag_2:\n              callvalue\n              dup1\n              iszero\n              tag_7\n              jumpi\n              0x00\n              dup1\n              revert\n            tag_7:\n              pop\n              tag_8\n              tag_9\n              jump\t// in\n            tag_8:\n              mload(0x40)\n              tag_10\n              swap2\n              swap1\n              tag_11\n              jump\t// in\n            tag_10:\n              mload(0x40)\n              dup1\n              swap2\n              sub\n              swap1\n              return\n                /* \"projects/crypto/web3bets_smartcontract/contracts/Pools.sol\":1109:1692  function bet() public payable override aboveMinimumStake {... */\n            tag_3:\n              tag_12\n              tag_13\n              jump\t// in\n            tag_12:\n              stop\n                /* \"projects/crypto/web3bets_smartcontract/contracts/Pools.sol\":1698:1792  function getName() external view override returns (string memory) {... */\n            tag_4:\n              callvalue\n              dup1\n              iszero\n              tag_14\n              jumpi\n              0x00\n              dup1\n              revert\n            tag_14:\n              pop\n              tag_15\n              tag_16\n              jump\t// in\n            tag_15:\n              mload(0x40)\n              tag_17\n              swap2\n              swap1\n              tag_11\n              jump\t// in\n            tag_17:\n              mload(0x40)\n              dup1\n              swap2\n              sub\n              swap1\n              return\n                /* \"projects/crypto/web3bets_smartcontract/contracts/Pools.sol\":433:466  address public betsFactoryAddress */\n            tag_5:\n              callvalue\n              dup1\n              iszero\n              tag_18\n              jumpi\n              0x00\n              dup1\n              revert\n            tag_18:\n              pop\n              tag_19\n              tag_20\n              jump\t// in\n            tag_19:\n              mload(0x40)\n              tag_21\n              swap2\n              swap1\n              tag_22\n              jump\t// in\n            tag_21:\n              mload(0x40)\n              dup1\n              swap2\n              sub\n              swap1\n              return\n                /* \"projects/crypto/web3bets_smartcontract/contracts/Pools.sol\":401:426  uint256 public totalStake */\n            tag_6:\n              callvalue\n              dup1\n              iszero\n              tag_23\n              jumpi\n              0x00\n              dup1\n              revert\n            tag_23:\n              pop\n              tag_24\n              tag_25\n              jump\t// in\n            tag_24:\n              mload(0x40)\n              tag_26\n              swap2\n              swap1\n              tag_27\n              jump\t// in\n            tag_26:\n              mload(0x40)\n              dup1\n              swap2\n              sub\n              swap1\n              return\n                /* \"projects/crypto/web3bets_smartcontract/contracts/Pools.sol\":376:394  string public name */\n            tag_9:\n              0x00\n              dup1\n              sload\n              tag_28\n              swap1\n              tag_29\n              jump\t// in\n            tag_28:\n              dup1\n              0x1f\n              add\n              0x20\n              dup1\n              swap2\n              div\n              mul\n              0x20\n              add\n              mload(0x40)\n              swap1\n              dup2\n              add\n              0x40\n              mstore\n              dup1\n              swap3\n              swap2\n              swap1\n              dup2\n              dup2\n              mstore\n              0x20\n              add\n              dup3\n              dup1\n              sload\n              tag_30\n              swap1\n              tag_29\n              jump\t// in\n            tag_30:\n              dup1\n              iszero\n              tag_31\n              jumpi\n              dup1\n              0x1f\n              lt\n              tag_32\n              jumpi\n              0x0100\n              dup1\n              dup4\n              sload\n              div\n              mul\n              dup4\n              mstore\n              swap2\n              0x20\n              add\n              swap2\n              jump(tag_31)\n            tag_32:\n              dup3\n              add\n              swap2\n              swap1\n              0x00\n              mstore\n              keccak256(0x00, 0x20)\n              swap1\n            tag_33:\n              dup2\n              sload\n              dup2\n              mstore\n              swap1\n              0x01\n              add\n              swap1\n              0x20\n              add\n              dup1\n              dup4\n              gt\n              tag_33\n              jumpi\n              dup3\n              swap1\n              sub\n              0x1f\n              and\n              dup3\n              add\n              swap2\n            tag_31:\n              pop\n              pop\n              pop\n              pop\n              pop\n              dup2\n              jump\t// out\n                /* \"projects/crypto/web3bets_smartcontract/contracts/Pools.sol\":1109:1692  function bet() public payable override aboveMinimumStake {... */\n            tag_13:\n                /* \"projects/crypto/web3bets_smartcontract/contracts/Pools.sol\":658:684  IWeb3BetsEventV1 poolEvent */\n              0x00\n                /* \"projects/crypto/web3bets_smartcontract/contracts/Pools.sol\":704:716  eventAddress */\n              0x05\n              0x00\n              swap1\n              sload\n              swap1\n              0x0100\n              exp\n              swap1\n              div\n              0xffffffffffffffffffffffffffffffffffffffff\n              and\n                /* \"projects/crypto/web3bets_smartcontract/contracts/Pools.sol\":658:717  IWeb3BetsEventV1 poolEvent = IWeb3BetsEventV1(eventAddress) */\n              swap1\n              pop\n                /* \"projects/crypto/web3bets_smartcontract/contracts/Pools.sol\":761:770  poolEvent */\n              dup1\n                /* \"projects/crypto/web3bets_smartcontract/contracts/Pools.sol\":761:786  poolEvent.getMinimumStake */\n              0xffffffffffffffffffffffffffffffffffffffff\n              and\n              0xd9bbd278\n                /* \"projects/crypto/web3bets_smartcontract/contracts/Pools.sol\":761:788  poolEvent.getMinimumStake() */\n              mload(0x40)\n              dup2\n              0xffffffff\n              and\n              0xe0\n              shl\n              dup2\n              mstore\n              0x04\n              add\n              0x20\n              mload(0x40)\n              dup1\n              dup4\n              sub\n              dup2\n              0x00\n              dup8\n              dup1\n              extcodesize\n              iszero\n              dup1\n              iszero\n              tag_35\n              jumpi\n              0x00\n              dup1\n              revert\n            tag_35:\n              pop\n              gas\n              call\n              iszero\n              dup1\n              iszero\n              tag_37\n              jumpi\n              returndatasize\n              0x00\n              dup1\n              returndatacopy\n              revert(0x00, returndatasize)\n            tag_37:\n              pop\n              pop\n              pop\n              pop\n              mload(0x40)\n              returndatasize\n              not(0x1f)\n              0x1f\n              dup3\n              add\n              and\n              dup3\n              add\n              dup1\n              0x40\n              mstore\n              pop\n              dup2\n              add\n              swap1\n              tag_38\n              swap2\n              swap1\n              tag_39\n              jump\t// in\n            tag_38:\n                /* \"projects/crypto/web3bets_smartcontract/contracts/Pools.sol\":748:757  msg.value */\n              callvalue\n                /* \"projects/crypto/web3bets_smartcontract/contracts/Pools.sol\":748:788  msg.value >= poolEvent.getMinimumStake() */\n              lt\n              iszero\n                /* \"projects/crypto/web3bets_smartcontract/contracts/Pools.sol\":727:862  require(... */\n              tag_40\n              jumpi\n              mload(0x40)\n              0x08c379a000000000000000000000000000000000000000000000000000000000\n              dup2\n              mstore\n              0x04\n              add\n              tag_41\n              swap1\n              tag_42\n              jump\t// in\n            tag_41:\n              mload(0x40)\n              dup1\n              swap2\n              sub\n              swap1\n              revert\n            tag_40:\n                /* \"projects/crypto/web3bets_smartcontract/contracts/Pools.sol\":1176:1199  BetsFactory betsFactory */\n              0x00\n                /* \"projects/crypto/web3bets_smartcontract/contracts/Pools.sol\":1214:1232  betsFactoryAddress */\n              0x02\n              0x00\n              swap1\n              sload\n              swap1\n              0x0100\n              exp\n              swap1\n              div\n              0xffffffffffffffffffffffffffffffffffffffff\n              and\n                /* \"projects/crypto/web3bets_smartcontract/contracts/Pools.sol\":1176:1233  BetsFactory betsFactory = BetsFactory(betsFactoryAddress) */\n              swap1\n              pop\n                /* \"projects/crypto/web3bets_smartcontract/contracts/Pools.sol\":1243:1261  address betAddress */\n              0x00\n                /* \"projects/crypto/web3bets_smartcontract/contracts/Pools.sol\":1264:1275  betsFactory */\n              dup2\n                /* \"projects/crypto/web3bets_smartcontract/contracts/Pools.sol\":1264:1285  betsFactory.createBet */\n              0xffffffffffffffffffffffffffffffffffffffff\n              and\n              0x7700cb83\n                /* \"projects/crypto/web3bets_smartcontract/contracts/Pools.sol\":1299:1312  marketAddress */\n              0x06\n              0x00\n              swap1\n              sload\n              swap1\n              0x0100\n              exp\n              swap1\n              div\n              0xffffffffffffffffffffffffffffffffffffffff\n              and\n                /* \"projects/crypto/web3bets_smartcontract/contracts/Pools.sol\":1326:1338  eventAddress */\n              0x05\n              0x00\n              swap1\n              sload\n              swap1\n              0x0100\n              exp\n              swap1\n              div\n              0xffffffffffffffffffffffffffffffffffffffff\n              and\n                /* \"projects/crypto/web3bets_smartcontract/contracts/Pools.sol\":1360:1364  this */\n              address\n                /* \"projects/crypto/web3bets_smartcontract/contracts/Pools.sol\":1379:1388  msg.value */\n              callvalue\n                /* \"projects/crypto/web3bets_smartcontract/contracts/Pools.sol\":1264:1398  betsFactory.createBet(... */\n              mload(0x40)\n              dup6\n              0xffffffff\n              and\n              0xe0\n              shl\n              dup2\n              mstore\n              0x04\n              add\n              tag_44\n              swap5\n              swap4\n              swap3\n              swap2\n              swap1\n              tag_45\n              jump\t// in\n            tag_44:\n              0x20\n              mload(0x40)\n              dup1\n              dup4\n              sub\n              dup2\n              0x00\n              dup8\n              dup1\n              extcodesize\n              iszero\n              dup1\n              iszero\n              tag_46\n              jumpi\n              0x00\n              dup1\n              revert\n            tag_46:\n              pop\n              gas\n              call\n              iszero\n              dup1\n              iszero\n              tag_48\n              jumpi\n              returndatasize\n              0x00\n              dup1\n              returndatacopy\n              revert(0x00, returndatasize)\n            tag_48:\n              pop\n              pop\n              pop\n              pop\n              mload(0x40)\n              returndatasize\n              not(0x1f)\n              0x1f\n              dup3\n              add\n              and\n              dup3\n              add\n              dup1\n              0x40\n              mstore\n              pop\n              dup2\n              add\n              swap1\n              tag_49\n              swap2\n              swap1\n              tag_50\n              jump\t// in\n            tag_49:\n                /* \"projects/crypto/web3bets_smartcontract/contracts/Pools.sol\":1243:1398  address betAddress = betsFactory.createBet(... */\n              swap1\n              pop\n                /* \"projects/crypto/web3bets_smartcontract/contracts/Pools.sol\":1422:1431  msg.value */\n              callvalue\n                /* \"projects/crypto/web3bets_smartcontract/contracts/Pools.sol\":1408:1418  totalStake */\n              0x01\n              0x00\n                /* \"projects/crypto/web3bets_smartcontract/contracts/Pools.sol\":1408:1431  totalStake += msg.value */\n              dup3\n              dup3\n              sload\n              tag_51\n              swap2\n              swap1\n              tag_52\n              jump\t// in\n            tag_51:\n              swap3\n              pop\n              pop\n              dup2\n              swap1\n              sstore\n              pop\n                /* \"projects/crypto/web3bets_smartcontract/contracts/Pools.sol\":1466:1475  msg.value */\n              callvalue\n                /* \"projects/crypto/web3bets_smartcontract/contracts/Pools.sol\":1441:1451  userStakes */\n              0x03\n                /* \"projects/crypto/web3bets_smartcontract/contracts/Pools.sol\":1441:1463  userStakes[msg.sender] */\n              0x00\n                /* \"projects/crypto/web3bets_smartcontract/contracts/Pools.sol\":1452:1462  msg.sender */\n              caller\n                /* \"projects/crypto/web3bets_smartcontract/contracts/Pools.sol\":1441:1463  userStakes[msg.sender] */\n              0xffffffffffffffffffffffffffffffffffffffff\n              and\n              0xffffffffffffffffffffffffffffffffffffffff\n              and\n              dup2\n              mstore\n              0x20\n              add\n              swap1\n              dup2\n              mstore\n              0x20\n              add\n              0x00\n              keccak256\n                /* \"projects/crypto/web3bets_smartcontract/contracts/Pools.sol\":1441:1475  userStakes[msg.sender] = msg.value */\n              dup2\n              swap1\n              sstore\n              pop\n                /* \"projects/crypto/web3bets_smartcontract/contracts/Pools.sol\":1485:1497  betAddresses */\n              0x04\n                /* \"projects/crypto/web3bets_smartcontract/contracts/Pools.sol\":1503:1513  betAddress */\n              dup2\n                /* \"projects/crypto/web3bets_smartcontract/contracts/Pools.sol\":1485:1514  betAddresses.push(betAddress) */\n              swap1\n              dup1\n              0x01\n              dup2\n              sload\n              add\n              dup1\n              dup3\n              sstore\n              dup1\n              swap2\n              pop\n              pop\n              0x01\n              swap1\n              sub\n              swap1\n              0x00\n              mstore\n              keccak256(0x00, 0x20)\n              add\n              0x00\n              swap1\n              swap2\n              swap1\n              swap2\n              swap1\n              swap2\n              0x0100\n              exp\n              dup2\n              sload\n              dup2\n              0xffffffffffffffffffffffffffffffffffffffff\n              mul\n              not\n              and\n              swap1\n              dup4\n              0xffffffffffffffffffffffffffffffffffffffff\n              and\n              mul\n              or\n              swap1\n              sstore\n              pop\n                /* \"projects/crypto/web3bets_smartcontract/contracts/Pools.sol\":1525:1549  bool sentBetFundToMarket */\n              0x00\n                /* \"projects/crypto/web3bets_smartcontract/contracts/Pools.sol\":1555:1568  marketAddress */\n              0x06\n              0x00\n              swap1\n              sload\n              swap1\n              0x0100\n              exp\n              swap1\n              div\n              0xffffffffffffffffffffffffffffffffffffffff\n              and\n                /* \"projects/crypto/web3bets_smartcontract/contracts/Pools.sol\":1555:1573  marketAddress.call */\n              0xffffffffffffffffffffffffffffffffffffffff\n              and\n                /* \"projects/crypto/web3bets_smartcontract/contracts/Pools.sol\":1581:1590  msg.value */\n              callvalue\n                /* \"projects/crypto/web3bets_smartcontract/contracts/Pools.sol\":1555:1617  marketAddress.call{value: msg.value}(... */\n              mload(0x40)\n              tag_54\n              swap1\n              tag_55\n              jump\t// in\n            tag_54:\n              0x00\n              mload(0x40)\n              dup1\n              dup4\n              sub\n              dup2\n              dup6\n              dup8\n              gas\n              call\n              swap3\n              pop\n              pop\n              pop\n              returndatasize\n              dup1\n              0x00\n              dup2\n              eq\n              tag_58\n              jumpi\n              mload(0x40)\n              swap2\n              pop\n              and(add(returndatasize, 0x3f), not(0x1f))\n              dup3\n              add\n              0x40\n              mstore\n              returndatasize\n              dup3\n              mstore\n              returndatasize\n              0x00\n              0x20\n              dup5\n              add\n              returndatacopy\n              jump(tag_57)\n            tag_58:\n              0x60\n              swap2\n              pop\n            tag_57:\n              pop\n                /* \"projects/crypto/web3bets_smartcontract/contracts/Pools.sol\":1524:1617  (bool sentBetFundToMarket, ) = marketAddress.call{value: msg.value}(... */\n              pop\n              swap1\n              pop\n                /* \"projects/crypto/web3bets_smartcontract/contracts/Pools.sol\":1633:1652  sentBetFundToMarket */\n              dup1\n                /* \"projects/crypto/web3bets_smartcontract/contracts/Pools.sol\":1628:1686  if (!sentBetFundToMarket){... */\n              tag_59\n              jumpi\n                /* \"projects/crypto/web3bets_smartcontract/contracts/Pools.sol\":1667:1675  revert() */\n              0x00\n              dup1\n              revert\n                /* \"projects/crypto/web3bets_smartcontract/contracts/Pools.sol\":1628:1686  if (!sentBetFundToMarket){... */\n            tag_59:\n                /* \"projects/crypto/web3bets_smartcontract/contracts/Pools.sol\":1166:1692  {... */\n              pop\n              pop\n              pop\n                /* \"projects/crypto/web3bets_smartcontract/contracts/Pools.sol\":648:880  {... */\n              pop\n                /* \"projects/crypto/web3bets_smartcontract/contracts/Pools.sol\":1109:1692  function bet() public payable override aboveMinimumStake {... */\n              jump\t// out\n                /* \"projects/crypto/web3bets_smartcontract/contracts/Pools.sol\":1698:1792  function getName() external view override returns (string memory) {... */\n            tag_16:\n                /* \"projects/crypto/web3bets_smartcontract/contracts/Pools.sol\":1749:1762  string memory */\n              0x60\n                /* \"projects/crypto/web3bets_smartcontract/contracts/Pools.sol\":1781:1785  name */\n              0x00\n                /* \"projects/crypto/web3bets_smartcontract/contracts/Pools.sol\":1774:1785  return name */\n              dup1\n              sload\n              tag_61\n              swap1\n              tag_29\n              jump\t// in\n            tag_61:\n              dup1\n              0x1f\n              add\n              0x20\n              dup1\n              swap2\n              div\n              mul\n              0x20\n              add\n              mload(0x40)\n              swap1\n              dup2\n              add\n              0x40\n              mstore\n              dup1\n              swap3\n              swap2\n              swap1\n              dup2\n              dup2\n              mstore\n              0x20\n              add\n              dup3\n              dup1\n              sload\n              tag_62\n              swap1\n              tag_29\n              jump\t// in\n            tag_62:\n              dup1\n              iszero\n              tag_63\n              jumpi\n              dup1\n              0x1f\n              lt\n              tag_64\n              jumpi\n              0x0100\n              dup1\n              dup4\n              sload\n              div\n              mul\n              dup4\n              mstore\n              swap2\n              0x20\n              add\n              swap2\n              jump(tag_63)\n            tag_64:\n              dup3\n              add\n              swap2\n              swap1\n              0x00\n              mstore\n              keccak256(0x00, 0x20)\n              swap1\n            tag_65:\n              dup2\n              sload\n              dup2\n              mstore\n              swap1\n              0x01\n              add\n              swap1\n              0x20\n              add\n              dup1\n              dup4\n              gt\n              tag_65\n              jumpi\n              dup3\n              swap1\n              sub\n              0x1f\n              and\n              dup3\n              add\n              swap2\n            tag_63:\n              pop\n              pop\n              pop\n              pop\n              pop\n              swap1\n              pop\n                /* \"projects/crypto/web3bets_smartcontract/contracts/Pools.sol\":1698:1792  function getName() external view override returns (string memory) {... */\n              swap1\n              jump\t// out\n                /* \"projects/crypto/web3bets_smartcontract/contracts/Pools.sol\":433:466  address public betsFactoryAddress */\n            tag_20:\n              0x02\n              0x00\n              swap1\n              sload\n              swap1\n              0x0100\n              exp\n              swap1\n              div\n              0xffffffffffffffffffffffffffffffffffffffff\n              and\n              dup2\n              jump\t// out\n                /* \"projects/crypto/web3bets_smartcontract/contracts/Pools.sol\":401:426  uint256 public totalStake */\n            tag_25:\n              sload(0x01)\n              dup2\n              jump\t// out\n                /* \"#utility.yul\":7:150   */\n            tag_67:\n                /* \"#utility.yul\":64:69   */\n              0x00\n                /* \"#utility.yul\":95:101   */\n              dup2\n                /* \"#utility.yul\":89:102   */\n              mload\n                /* \"#utility.yul\":80:102   */\n              swap1\n              pop\n                /* \"#utility.yul\":111:144   */\n              tag_69\n                /* \"#utility.yul\":138:143   */\n              dup2\n                /* \"#utility.yul\":111:144   */\n              tag_70\n              jump\t// in\n            tag_69:\n                /* \"#utility.yul\":7:150   */\n              swap3\n              swap2\n              pop\n              pop\n              jump\t// out\n                /* \"#utility.yul\":156:299   */\n            tag_71:\n                /* \"#utility.yul\":213:218   */\n              0x00\n                /* \"#utility.yul\":244:250   */\n              dup2\n                /* \"#utility.yul\":238:251   */\n              mload\n                /* \"#utility.yul\":229:251   */\n              swap1\n              pop\n                /* \"#utility.yul\":260:293   */\n              tag_73\n                /* \"#utility.yul\":287:292   */\n              dup2\n                /* \"#utility.yul\":260:293   */\n              tag_74\n              jump\t// in\n            tag_73:\n                /* \"#utility.yul\":156:299   */\n              swap3\n              swap2\n              pop\n              pop\n              jump\t// out\n                /* \"#utility.yul\":305:656   */\n            tag_50:\n                /* \"#utility.yul\":375:381   */\n              0x00\n                /* \"#utility.yul\":424:426   */\n              0x20\n                /* \"#utility.yul\":412:421   */\n              dup3\n                /* \"#utility.yul\":403:410   */\n              dup5\n                /* \"#utility.yul\":399:422   */\n              sub\n                /* \"#utility.yul\":395:427   */\n              slt\n                /* \"#utility.yul\":392:511   */\n              iszero\n              tag_76\n              jumpi\n                /* \"#utility.yul\":430:509   */\n              tag_77\n              tag_78\n              jump\t// in\n            tag_77:\n                /* \"#utility.yul\":392:511   */\n            tag_76:\n                /* \"#utility.yul\":550:551   */\n              0x00\n                /* \"#utility.yul\":575:639   */\n              tag_79\n                /* \"#utility.yul\":631:638   */\n              dup5\n                /* \"#utility.yul\":622:628   */\n              dup3\n                /* \"#utility.yul\":611:620   */\n              dup6\n                /* \"#utility.yul\":607:629   */\n              add\n                /* \"#utility.yul\":575:639   */\n              tag_67\n              jump\t// in\n            tag_79:\n                /* \"#utility.yul\":565:639   */\n              swap2\n              pop\n                /* \"#utility.yul\":521:649   */\n              pop\n                /* \"#utility.yul\":305:656   */\n              swap3\n              swap2\n              pop\n              pop\n              jump\t// out\n                /* \"#utility.yul\":662:1013   */\n            tag_39:\n                /* \"#utility.yul\":732:738   */\n              0x00\n                /* \"#utility.yul\":781:783   */\n              0x20\n                /* \"#utility.yul\":769:778   */\n              dup3\n                /* \"#utility.yul\":760:767   */\n              dup5\n                /* \"#utility.yul\":756:779   */\n              sub\n                /* \"#utility.yul\":752:784   */\n              slt\n                /* \"#utility.yul\":749:868   */\n              iszero\n              tag_81\n              jumpi\n                /* \"#utility.yul\":787:866   */\n              tag_82\n              tag_78\n              jump\t// in\n            tag_82:\n                /* \"#utility.yul\":749:868   */\n            tag_81:\n                /* \"#utility.yul\":907:908   */\n              0x00\n                /* \"#utility.yul\":932:996   */\n              tag_83\n                /* \"#utility.yul\":988:995   */\n              dup5\n                /* \"#utility.yul\":979:985   */\n              dup3\n                /* \"#utility.yul\":968:977   */\n              dup6\n                /* \"#utility.yul\":964:986   */\n              add\n                /* \"#utility.yul\":932:996   */\n              tag_71\n              jump\t// in\n            tag_83:\n                /* \"#utility.yul\":922:996   */\n              swap2\n              pop\n                /* \"#utility.yul\":878:1006   */\n              pop\n                /* \"#utility.yul\":662:1013   */\n              swap3\n              swap2\n              pop\n              pop\n              jump\t// out\n                /* \"#utility.yul\":1019:1137   */\n            tag_84:\n                /* \"#utility.yul\":1106:1130   */\n              tag_86\n                /* \"#utility.yul\":1124:1129   */\n              dup2\n                /* \"#utility.yul\":1106:1130   */\n              tag_87\n              jump\t// in\n            tag_86:\n                /* \"#utility.yul\":1101:1104   */\n              dup3\n                /* \"#utility.yul\":1094:1131   */\n              mstore\n                /* \"#utility.yul\":1019:1137   */\n              pop\n              pop\n              jump\t// out\n                /* \"#utility.yul\":1143:1507   */\n            tag_88:\n                /* \"#utility.yul\":1231:1234   */\n              0x00\n                /* \"#utility.yul\":1259:1298   */\n              tag_90\n                /* \"#utility.yul\":1292:1297   */\n              dup3\n                /* \"#utility.yul\":1259:1298   */\n              tag_91\n              jump\t// in\n            tag_90:\n                /* \"#utility.yul\":1314:1385   */\n              tag_92\n                /* \"#utility.yul\":1378:1384   */\n              dup2\n                /* \"#utility.yul\":1373:1376   */\n              dup6\n                /* \"#utility.yul\":1314:1385   */\n              tag_93\n              jump\t// in\n            tag_92:\n                /* \"#utility.yul\":1307:1385   */\n              swap4\n              pop\n                /* \"#utility.yul\":1394:1446   */\n              tag_94\n                /* \"#utility.yul\":1439:1445   */\n              dup2\n                /* \"#utility.yul\":1434:1437   */\n              dup6\n                /* \"#utility.yul\":1427:1431   */\n              0x20\n                /* \"#utility.yul\":1420:1425   */\n              dup7\n                /* \"#utility.yul\":1416:1432   */\n              add\n                /* \"#utility.yul\":1394:1446   */\n              tag_95\n              jump\t// in\n            tag_94:\n                /* \"#utility.yul\":1471:1500   */\n              tag_96\n                /* \"#utility.yul\":1493:1499   */\n              dup2\n                /* \"#utility.yul\":1471:1500   */\n              tag_97\n              jump\t// in\n            tag_96:\n                /* \"#utility.yul\":1466:1469   */\n              dup5\n                /* \"#utility.yul\":1462:1501   */\n              add\n                /* \"#utility.yul\":1455:1501   */\n              swap2\n              pop\n                /* \"#utility.yul\":1235:1507   */\n              pop\n                /* \"#utility.yul\":1143:1507   */\n              swap3\n              swap2\n              pop\n              pop\n              jump\t// out\n                /* \"#utility.yul\":1513:1879   */\n            tag_98:\n                /* \"#utility.yul\":1655:1658   */\n              0x00\n                /* \"#utility.yul\":1676:1743   */\n              tag_100\n                /* \"#utility.yul\":1740:1742   */\n              0x30\n                /* \"#utility.yul\":1735:1738   */\n              dup4\n                /* \"#utility.yul\":1676:1743   */\n              tag_93\n              jump\t// in\n            tag_100:\n                /* \"#utility.yul\":1669:1743   */\n              swap2\n              pop\n                /* \"#utility.yul\":1752:1845   */\n              tag_101\n                /* \"#utility.yul\":1841:1844   */\n              dup3\n                /* \"#utility.yul\":1752:1845   */\n              tag_102\n              jump\t// in\n            tag_101:\n                /* \"#utility.yul\":1870:1872   */\n              0x40\n                /* \"#utility.yul\":1865:1868   */\n              dup3\n                /* \"#utility.yul\":1861:1873   */\n              add\n                /* \"#utility.yul\":1854:1873   */\n              swap1\n              pop\n                /* \"#utility.yul\":1513:1879   */\n              swap2\n              swap1\n              pop\n              jump\t// out\n                /* \"#utility.yul\":1885:2283   */\n            tag_103:\n                /* \"#utility.yul\":2044:2047   */\n              0x00\n                /* \"#utility.yul\":2065:2148   */\n              tag_105\n                /* \"#utility.yul\":2146:2147   */\n              0x00\n                /* \"#utility.yul\":2141:2144   */\n              dup4\n                /* \"#utility.yul\":2065:2148   */\n              tag_106\n              jump\t// in\n            tag_105:\n                /* \"#utility.yul\":2058:2148   */\n              swap2\n              pop\n                /* \"#utility.yul\":2157:2250   */\n              tag_107\n                /* \"#utility.yul\":2246:2249   */\n              dup3\n                /* \"#utility.yul\":2157:2250   */\n              tag_108\n              jump\t// in\n            tag_107:\n                /* \"#utility.yul\":2275:2276   */\n              0x00\n                /* \"#utility.yul\":2270:2273   */\n              dup3\n                /* \"#utility.yul\":2266:2277   */\n              add\n                /* \"#utility.yul\":2259:2277   */\n              swap1\n              pop\n                /* \"#utility.yul\":1885:2283   */\n              swap2\n              swap1\n              pop\n              jump\t// out\n                /* \"#utility.yul\":2289:2407   */\n            tag_109:\n                /* \"#utility.yul\":2376:2400   */\n              tag_111\n                /* \"#utility.yul\":2394:2399   */\n              dup2\n                /* \"#utility.yul\":2376:2400   */\n              tag_112\n              jump\t// in\n            tag_111:\n                /* \"#utility.yul\":2371:2374   */\n              dup3\n                /* \"#utility.yul\":2364:2401   */\n              mstore\n                /* \"#utility.yul\":2289:2407   */\n              pop\n              pop\n              jump\t// out\n                /* \"#utility.yul\":2413:2792   */\n            tag_55:\n                /* \"#utility.yul\":2597:2600   */\n              0x00\n                /* \"#utility.yul\":2619:2766   */\n              tag_114\n                /* \"#utility.yul\":2762:2765   */\n              dup3\n                /* \"#utility.yul\":2619:2766   */\n              tag_103\n              jump\t// in\n            tag_114:\n                /* \"#utility.yul\":2612:2766   */\n              swap2\n              pop\n                /* \"#utility.yul\":2783:2786   */\n              dup2\n                /* \"#utility.yul\":2776:2786   */\n              swap1\n              pop\n                /* \"#utility.yul\":2413:2792   */\n              swap2\n              swap1\n              pop\n              jump\t// out\n                /* \"#utility.yul\":2798:3020   */\n            tag_22:\n                /* \"#utility.yul\":2891:2895   */\n              0x00\n                /* \"#utility.yul\":2929:2931   */\n              0x20\n                /* \"#utility.yul\":2918:2927   */\n              dup3\n                /* \"#utility.yul\":2914:2932   */\n              add\n                /* \"#utility.yul\":2906:2932   */\n              swap1\n              pop\n                /* \"#utility.yul\":2942:3013   */\n              tag_116\n                /* \"#utility.yul\":3010:3011   */\n              0x00\n                /* \"#utility.yul\":2999:3008   */\n              dup4\n                /* \"#utility.yul\":2995:3012   */\n              add\n                /* \"#utility.yul\":2986:2992   */\n              dup5\n                /* \"#utility.yul\":2942:3013   */\n              tag_84\n              jump\t// in\n            tag_116:\n                /* \"#utility.yul\":2798:3020   */\n              swap3\n              swap2\n              pop\n              pop\n              jump\t// out\n                /* \"#utility.yul\":3026:3579   */\n            tag_45:\n                /* \"#utility.yul\":3203:3207   */\n              0x00\n                /* \"#utility.yul\":3241:3244   */\n              0x80\n                /* \"#utility.yul\":3230:3239   */\n              dup3\n                /* \"#utility.yul\":3226:3245   */\n              add\n                /* \"#utility.yul\":3218:3245   */\n              swap1\n              pop\n                /* \"#utility.yul\":3255:3326   */\n              tag_118\n                /* \"#utility.yul\":3323:3324   */\n              0x00\n                /* \"#utility.yul\":3312:3321   */\n              dup4\n                /* \"#utility.yul\":3308:3325   */\n              add\n                /* \"#utility.yul\":3299:3305   */\n              dup8\n                /* \"#utility.yul\":3255:3326   */\n              tag_84\n              jump\t// in\n            tag_118:\n                /* \"#utility.yul\":3336:3408   */\n              tag_119\n                /* \"#utility.yul\":3404:3406   */\n              0x20\n                /* \"#utility.yul\":3393:3402   */\n              dup4\n                /* \"#utility.yul\":3389:3407   */\n              add\n                /* \"#utility.yul\":3380:3386   */\n              dup7\n                /* \"#utility.yul\":3336:3408   */\n              tag_84\n              jump\t// in\n            tag_119:\n                /* \"#utility.yul\":3418:3490   */\n              tag_120\n                /* \"#utility.yul\":3486:3488   */\n              0x40\n                /* \"#utility.yul\":3475:3484   */\n              dup4\n                /* \"#utility.yul\":3471:3489   */\n              add\n                /* \"#utility.yul\":3462:3468   */\n              dup6\n                /* \"#utility.yul\":3418:3490   */\n              tag_84\n              jump\t// in\n            tag_120:\n                /* \"#utility.yul\":3500:3572   */\n              tag_121\n                /* \"#utility.yul\":3568:3570   */\n              0x60\n                /* \"#utility.yul\":3557:3566   */\n              dup4\n                /* \"#utility.yul\":3553:3571   */\n              add\n                /* \"#utility.yul\":3544:3550   */\n              dup5\n                /* \"#utility.yul\":3500:3572   */\n              tag_109\n              jump\t// in\n            tag_121:\n                /* \"#utility.yul\":3026:3579   */\n              swap6\n              swap5\n              pop\n              pop\n              pop\n              pop\n              pop\n              jump\t// out\n                /* \"#utility.yul\":3585:3898   */\n            tag_11:\n                /* \"#utility.yul\":3698:3702   */\n              0x00\n                /* \"#utility.yul\":3736:3738   */\n              0x20\n                /* \"#utility.yul\":3725:3734   */\n              dup3\n                /* \"#utility.yul\":3721:3739   */\n              add\n                /* \"#utility.yul\":3713:3739   */\n              swap1\n              pop\n                /* \"#utility.yul\":3785:3794   */\n              dup2\n                /* \"#utility.yul\":3779:3783   */\n              dup2\n                /* \"#utility.yul\":3775:3795   */\n              sub\n                /* \"#utility.yul\":3771:3772   */\n              0x00\n                /* \"#utility.yul\":3760:3769   */\n              dup4\n                /* \"#utility.yul\":3756:3773   */\n              add\n                /* \"#utility.yul\":3749:3796   */\n              mstore\n                /* \"#utility.yul\":3813:3891   */\n              tag_123\n                /* \"#utility.yul\":3886:3890   */\n              dup2\n                /* \"#utility.yul\":3877:3883   */\n              dup5\n                /* \"#utility.yul\":3813:3891   */\n              tag_88\n              jump\t// in\n            tag_123:\n                /* \"#utility.yul\":3805:3891   */\n              swap1\n              pop\n                /* \"#utility.yul\":3585:3898   */\n              swap3\n              swap2\n              pop\n              pop\n              jump\t// out\n                /* \"#utility.yul\":3904:4323   */\n            tag_42:\n                /* \"#utility.yul\":4070:4074   */\n              0x00\n                /* \"#utility.yul\":4108:4110   */\n              0x20\n                /* \"#utility.yul\":4097:4106   */\n              dup3\n                /* \"#utility.yul\":4093:4111   */\n              add\n                /* \"#utility.yul\":4085:4111   */\n              swap1\n              pop\n                /* \"#utility.yul\":4157:4166   */\n              dup2\n                /* \"#utility.yul\":4151:4155   */\n              dup2\n                /* \"#utility.yul\":4147:4167   */\n              sub\n                /* \"#utility.yul\":4143:4144   */\n              0x00\n                /* \"#utility.yul\":4132:4141   */\n              dup4\n                /* \"#utility.yul\":4128:4145   */\n              add\n                /* \"#utility.yul\":4121:4168   */\n              mstore\n                /* \"#utility.yul\":4185:4316   */\n              tag_125\n                /* \"#utility.yul\":4311:4315   */\n              dup2\n                /* \"#utility.yul\":4185:4316   */\n              tag_98\n              jump\t// in\n            tag_125:\n                /* \"#utility.yul\":4177:4316   */\n              swap1\n              pop\n                /* \"#utility.yul\":3904:4323   */\n              swap2\n              swap1\n              pop\n              jump\t// out\n                /* \"#utility.yul\":4329:4551   */\n            tag_27:\n                /* \"#utility.yul\":4422:4426   */\n              0x00\n                /* \"#utility.yul\":4460:4462   */\n              0x20\n                /* \"#utility.yul\":4449:4458   */\n              dup3\n                /* \"#utility.yul\":4445:4463   */\n              add\n                /* \"#utility.yul\":4437:4463   */\n              swap1\n              pop\n                /* \"#utility.yul\":4473:4544   */\n              tag_127\n                /* \"#utility.yul\":4541:4542   */\n              0x00\n                /* \"#utility.yul\":4530:4539   */\n              dup4\n                /* \"#utility.yul\":4526:4543   */\n              add\n                /* \"#utility.yul\":4517:4523   */\n              dup5\n                /* \"#utility.yul\":4473:4544   */\n              tag_109\n              jump\t// in\n            tag_127:\n                /* \"#utility.yul\":4329:4551   */\n              swap3\n              swap2\n              pop\n              pop\n              jump\t// out\n                /* \"#utility.yul\":4638:4737   */\n            tag_91:\n                /* \"#utility.yul\":4690:4696   */\n              0x00\n                /* \"#utility.yul\":4724:4729   */\n              dup2\n                /* \"#utility.yul\":4718:4730   */\n              mload\n                /* \"#utility.yul\":4708:4730   */\n              swap1\n              pop\n                /* \"#utility.yul\":4638:4737   */\n              swap2\n              swap1\n              pop\n              jump\t// out\n                /* \"#utility.yul\":4743:4890   */\n            tag_106:\n                /* \"#utility.yul\":4844:4855   */\n              0x00\n                /* \"#utility.yul\":4881:4884   */\n              dup2\n                /* \"#utility.yul\":4866:4884   */\n              swap1\n              pop\n                /* \"#utility.yul\":4743:4890   */\n              swap3\n              swap2\n              pop\n              pop\n              jump\t// out\n                /* \"#utility.yul\":4896:5065   */\n            tag_93:\n                /* \"#utility.yul\":4980:4991   */\n              0x00\n                /* \"#utility.yul\":5014:5020   */\n              dup3\n                /* \"#utility.yul\":5009:5012   */\n              dup3\n                /* \"#utility.yul\":5002:5021   */\n              mstore\n                /* \"#utility.yul\":5054:5058   */\n              0x20\n                /* \"#utility.yul\":5049:5052   */\n              dup3\n                /* \"#utility.yul\":5045:5059   */\n              add\n                /* \"#utility.yul\":5030:5059   */\n              swap1\n              pop\n                /* \"#utility.yul\":4896:5065   */\n              swap3\n              swap2\n              pop\n              pop\n              jump\t// out\n                /* \"#utility.yul\":5071:5376   */\n            tag_52:\n                /* \"#utility.yul\":5111:5114   */\n              0x00\n                /* \"#utility.yul\":5130:5150   */\n              tag_134\n                /* \"#utility.yul\":5148:5149   */\n              dup3\n                /* \"#utility.yul\":5130:5150   */\n              tag_112\n              jump\t// in\n            tag_134:\n                /* \"#utility.yul\":5125:5150   */\n              swap2\n              pop\n                /* \"#utility.yul\":5164:5184   */\n              tag_135\n                /* \"#utility.yul\":5182:5183   */\n              dup4\n                /* \"#utility.yul\":5164:5184   */\n              tag_112\n              jump\t// in\n            tag_135:\n                /* \"#utility.yul\":5159:5184   */\n              swap3\n              pop\n                /* \"#utility.yul\":5318:5319   */\n              dup3\n                /* \"#utility.yul\":5250:5316   */\n              0xffffffffffffffffffffffffffffffffffffffffffffffffffffffffffffffff\n                /* \"#utility.yul\":5246:5320   */\n              sub\n                /* \"#utility.yul\":5243:5244   */\n              dup3\n                /* \"#utility.yul\":5240:5321   */\n              gt\n                /* \"#utility.yul\":5237:5344   */\n              iszero\n              tag_136\n              jumpi\n                /* \"#utility.yul\":5324:5342   */\n              tag_137\n              tag_138\n              jump\t// in\n            tag_137:\n                /* \"#utility.yul\":5237:5344   */\n            tag_136:\n                /* \"#utility.yul\":5368:5369   */\n              dup3\n                /* \"#utility.yul\":5365:5366   */\n              dup3\n                /* \"#utility.yul\":5361:5370   */\n              add\n                /* \"#utility.yul\":5354:5370   */\n              swap1\n              pop\n                /* \"#utility.yul\":5071:5376   */\n              swap3\n              swap2\n              pop\n              pop\n              jump\t// out\n                /* \"#utility.yul\":5382:5478   */\n            tag_87:\n                /* \"#utility.yul\":5419:5426   */\n              0x00\n                /* \"#utility.yul\":5448:5472   */\n              tag_140\n                /* \"#utility.yul\":5466:5471   */\n              dup3\n                /* \"#utility.yul\":5448:5472   */\n              tag_141\n              jump\t// in\n            tag_140:\n                /* \"#utility.yul\":5437:5472   */\n              swap1\n              pop\n                /* \"#utility.yul\":5382:5478   */\n              swap2\n              swap1\n              pop\n              jump\t// out\n                /* \"#utility.yul\":5484:5610   */\n            tag_141:\n                /* \"#utility.yul\":5521:5528   */\n              0x00\n                /* \"#utility.yul\":5561:5603   */\n              0xffffffffffffffffffffffffffffffffffffffff\n                /* \"#utility.yul\":5554:5559   */\n              dup3\n                /* \"#utility.yul\":5550:5604   */\n              and\n                /* \"#utility.yul\":5539:5604   */\n              swap1\n              pop\n                /* \"#utility.yul\":5484:5610   */\n              swap2\n              swap1\n              pop\n              jump\t// out\n                /* \"#utility.yul\":5616:5693   */\n            tag_112:\n                /* \"#utility.yul\":5653:5660   */\n              0x00\n                /* \"#utility.yul\":5682:5687   */\n              dup2\n                /* \"#utility.yul\":5671:5687   */\n              swap1\n              pop\n                /* \"#utility.yul\":5616:5693   */\n              swap2\n              swap1\n              pop\n              jump\t// out\n                /* \"#utility.yul\":5699:6006   */\n            tag_95:\n                /* \"#utility.yul\":5767:5768   */\n              0x00\n                /* \"#utility.yul\":5777:5890   */\n            tag_145:\n                /* \"#utility.yul\":5791:5797   */\n              dup4\n                /* \"#utility.yul\":5788:5789   */\n              dup2\n                /* \"#utility.yul\":5785:5798   */\n              lt\n                /* \"#utility.yul\":5777:5890   */\n              iszero\n              tag_147\n              jumpi\n                /* \"#utility.yul\":5876:5877   */\n              dup1\n                /* \"#utility.yul\":5871:5874   */\n              dup3\n                /* \"#utility.yul\":5867:5878   */\n              add\n                /* \"#utility.yul\":5861:5879   */\n              mload\n                /* \"#utility.yul\":5857:5858   */\n              dup2\n                /* \"#utility.yul\":5852:5855   */\n              dup5\n                /* \"#utility.yul\":5848:5859   */\n              add\n                /* \"#utility.yul\":5841:5880   */\n              mstore\n                /* \"#utility.yul\":5813:5815   */\n              0x20\n                /* \"#utility.yul\":5810:5811   */\n              dup2\n                /* \"#utility.yul\":5806:5816   */\n              add\n                /* \"#utility.yul\":5801:5816   */\n              swap1\n              pop\n                /* \"#utility.yul\":5777:5890   */\n              jump(tag_145)\n            tag_147:\n                /* \"#utility.yul\":5908:5914   */\n              dup4\n                /* \"#utility.yul\":5905:5906   */\n              dup2\n                /* \"#utility.yul\":5902:5915   */\n              gt\n                /* \"#utility.yul\":5899:6000   */\n              iszero\n              tag_148\n              jumpi\n                /* \"#utility.yul\":5988:5989   */\n              0x00\n                /* \"#utility.yul\":5979:5985   */\n              dup5\n                /* \"#utility.yul\":5974:5977   */\n              dup5\n                /* \"#utility.yul\":5970:5986   */\n              add\n                /* \"#utility.yul\":5963:5990   */\n              mstore\n                /* \"#utility.yul\":5899:6000   */\n            tag_148:\n                /* \"#utility.yul\":5748:6006   */\n              pop\n                /* \"#utility.yul\":5699:6006   */\n              pop\n              pop\n              pop\n              jump\t// out\n                /* \"#utility.yul\":6012:6332   */\n            tag_29:\n                /* \"#utility.yul\":6056:6062   */\n              0x00\n                /* \"#utility.yul\":6093:6094   */\n              0x02\n                /* \"#utility.yul\":6087:6091   */\n              dup3\n                /* \"#utility.yul\":6083:6095   */\n              div\n                /* \"#utility.yul\":6073:6095   */\n              swap1\n              pop\n                /* \"#utility.yul\":6140:6141   */\n              0x01\n                /* \"#utility.yul\":6134:6138   */\n              dup3\n                /* \"#utility.yul\":6130:6142   */\n              and\n                /* \"#utility.yul\":6161:6179   */\n              dup1\n                /* \"#utility.yul\":6151:6232   */\n              tag_150\n              jumpi\n                /* \"#utility.yul\":6217:6221   */\n              0x7f\n                /* \"#utility.yul\":6209:6215   */\n              dup3\n                /* \"#utility.yul\":6205:6222   */\n              and\n                /* \"#utility.yul\":6195:6222   */\n              swap2\n              pop\n                /* \"#utility.yul\":6151:6232   */\n            tag_150:\n                /* \"#utility.yul\":6279:6281   */\n              0x20\n                /* \"#utility.yul\":6271:6277   */\n              dup3\n                /* \"#utility.yul\":6268:6282   */\n              lt\n                /* \"#utility.yul\":6248:6266   */\n              dup2\n                /* \"#utility.yul\":6245:6283   */\n              eq\n                /* \"#utility.yul\":6242:6326   */\n              iszero\n              tag_151\n              jumpi\n                /* \"#utility.yul\":6298:6316   */\n              tag_152\n              tag_153\n              jump\t// in\n            tag_152:\n                /* \"#utility.yul\":6242:6326   */\n            tag_151:\n                /* \"#utility.yul\":6063:6332   */\n              pop\n                /* \"#utility.yul\":6012:6332   */\n              swap2\n              swap1\n              pop\n              jump\t// out\n                /* \"#utility.yul\":6338:6518   */\n            tag_138:\n                /* \"#utility.yul\":6386:6463   */\n              0x4e487b7100000000000000000000000000000000000000000000000000000000\n                /* \"#utility.yul\":6383:6384   */\n              0x00\n                /* \"#utility.yul\":6376:6464   */\n              mstore\n                /* \"#utility.yul\":6483:6487   */\n              0x11\n                /* \"#utility.yul\":6480:6481   */\n              0x04\n                /* \"#utility.yul\":6473:6488   */\n              mstore\n                /* \"#utility.yul\":6507:6511   */\n              0x24\n                /* \"#utility.yul\":6504:6505   */\n              0x00\n                /* \"#utility.yul\":6497:6512   */\n              revert\n                /* \"#utility.yul\":6524:6704   */\n            tag_153:\n                /* \"#utility.yul\":6572:6649   */\n              0x4e487b7100000000000000000000000000000000000000000000000000000000\n                /* \"#utility.yul\":6569:6570   */\n              0x00\n                /* \"#utility.yul\":6562:6650   */\n              mstore\n                /* \"#utility.yul\":6669:6673   */\n              0x22\n                /* \"#utility.yul\":6666:6667   */\n              0x04\n                /* \"#utility.yul\":6659:6674   */\n              mstore\n                /* \"#utility.yul\":6693:6697   */\n              0x24\n                /* \"#utility.yul\":6690:6691   */\n              0x00\n                /* \"#utility.yul\":6683:6698   */\n              revert\n                /* \"#utility.yul\":6833:6950   */\n            tag_78:\n                /* \"#utility.yul\":6942:6943   */\n              0x00\n                /* \"#utility.yul\":6939:6940   */\n              dup1\n                /* \"#utility.yul\":6932:6944   */\n              revert\n                /* \"#utility.yul\":6956:7058   */\n            tag_97:\n                /* \"#utility.yul\":6997:7003   */\n              0x00\n                /* \"#utility.yul\":7048:7050   */\n              0x1f\n                /* \"#utility.yul\":7044:7051   */\n              not\n                /* \"#utility.yul\":7039:7041   */\n              0x1f\n                /* \"#utility.yul\":7032:7037   */\n              dup4\n                /* \"#utility.yul\":7028:7042   */\n              add\n                /* \"#utility.yul\":7024:7052   */\n              and\n                /* \"#utility.yul\":7014:7052   */\n              swap1\n              pop\n                /* \"#utility.yul\":6956:7058   */\n              swap2\n              swap1\n              pop\n              jump\t// out\n                /* \"#utility.yul\":7064:7299   */\n            tag_102:\n                /* \"#utility.yul\":7204:7238   */\n              0x596f752063616e206e6f74206265742062656c6f7720746865206d696e696d75\n                /* \"#utility.yul\":7200:7201   */\n              0x00\n                /* \"#utility.yul\":7192:7198   */\n              dup3\n                /* \"#utility.yul\":7188:7202   */\n              add\n                /* \"#utility.yul\":7181:7239   */\n              mstore\n                /* \"#utility.yul\":7273:7291   */\n              0x6d207374616b65206f66206576656e7400000000000000000000000000000000\n                /* \"#utility.yul\":7268:7270   */\n              0x20\n                /* \"#utility.yul\":7260:7266   */\n              dup3\n                /* \"#utility.yul\":7256:7271   */\n              add\n                /* \"#utility.yul\":7249:7292   */\n              mstore\n                /* \"#utility.yul\":7064:7299   */\n              pop\n              jump\t// out\n                /* \"#utility.yul\":7305:7419   */\n            tag_108:\n              pop\n              jump\t// out\n                /* \"#utility.yul\":7425:7547   */\n            tag_70:\n                /* \"#utility.yul\":7498:7522   */\n              tag_163\n                /* \"#utility.yul\":7516:7521   */\n              dup2\n                /* \"#utility.yul\":7498:7522   */\n              tag_87\n              jump\t// in\n            tag_163:\n                /* \"#utility.yul\":7491:7496   */\n              dup2\n                /* \"#utility.yul\":7488:7523   */\n              eq\n                /* \"#utility.yul\":7478:7541   */\n              tag_164\n              jumpi\n                /* \"#utility.yul\":7537:7538   */\n              0x00\n                /* \"#utility.yul\":7534:7535   */\n              dup1\n                /* \"#utility.yul\":7527:7539   */\n              revert\n                /* \"#utility.yul\":7478:7541   */\n            tag_164:\n                /* \"#utility.yul\":7425:7547   */\n              pop\n              jump\t// out\n                /* \"#utility.yul\":7553:7675   */\n            tag_74:\n                /* \"#utility.yul\":7626:7650   */\n              tag_166\n                /* \"#utility.yul\":7644:7649   */\n              dup2\n                /* \"#utility.yul\":7626:7650   */\n              tag_112\n              jump\t// in\n            tag_166:\n                /* \"#utility.yul\":7619:7624   */\n              dup2\n                /* \"#utility.yul\":7616:7651   */\n              eq\n                /* \"#utility.yul\":7606:7669   */\n              tag_167\n              jumpi\n                /* \"#utility.yul\":7665:7666   */\n              0x00\n                /* \"#utility.yul\":7662:7663   */\n              dup1\n                /* \"#utility.yul\":7655:7667   */\n              revert\n                /* \"#utility.yul\":7606:7669   */\n            tag_167:\n                /* \"#utility.yul\":7553:7675   */\n              pop\n              jump\t// out\n\n            auxdata: 0xa264697066735822122045804bc514207fc4c09a5f27de86fbf6f2f5846c0206b7dc3af32643083e3fbb64736f6c63430008070033\n        }\n    }\n\n    auxdata: 0xa264697066735822122051cb3e0dd508e9e8051b89dda4ed30d483ba95dfa2b505924d13353140c2e5d964736f6c63430008070033\n}\n",
				"bytecode": {
					"linkReferences": {},
					"object": "608060405234801561001057600080fd5b506115b5806100206000396000f3fe60806040523480156200001157600080fd5b50600436106200003a5760003560e01c806356cd61d7146200003f578063e1281e471462000075575b600080fd5b6200005d600480360381019062000057919062000377565b620000ab565b6040516200006c9190620004d9565b60405180910390f35b6200009360048036038101906200008d919062000345565b620001d4565b604051620000a29190620004f6565b60405180910390f35b600080848484604051620000bf90620002a2565b620000cd939291906200051a565b604051809103906000f080158015620000ea573d6000803e3d6000fd5b5090506000808473ffffffffffffffffffffffffffffffffffffffff1673ffffffffffffffffffffffffffffffffffffffff168152602001908152602001600020819080600181540180825580915050600190039060005260206000200160009091909190916101000a81548173ffffffffffffffffffffffffffffffffffffffff021916908373ffffffffffffffffffffffffffffffffffffffff1602179055507ff1bc21ed97ab3f0ef33f31038b179da31c46944bec01f4410240814d0571adea858486604051620001c1939291906200051a565b60405180910390a1809150509392505050565b60606000808373ffffffffffffffffffffffffffffffffffffffff1673ffffffffffffffffffffffffffffffffffffffff1681526020019081526020016000208054806020026020016040519081016040528092919081815260200182805480156200029657602002820191906000526020600020905b8160009054906101000a900473ffffffffffffffffffffffffffffffffffffffff1673ffffffffffffffffffffffffffffffffffffffff16815260200190600101908083116200024b575b50505050509050919050565b610e50806200073083390190565b6000620002c7620002c18462000587565b6200055e565b905082815260208101848484011115620002e657620002e5620006f5565b5b620002f384828562000646565b509392505050565b6000813590506200030c8162000715565b92915050565b600082601f8301126200032a5762000329620006f0565b5b81356200033c848260208601620002b0565b91505092915050565b6000602082840312156200035e576200035d620006ff565b5b60006200036e84828501620002fb565b91505092915050565b600080600060608486031215620003935762000392620006ff565b5b600084013567ffffffffffffffff811115620003b457620003b3620006fa565b5b620003c28682870162000312565b9350506020620003d586828701620002fb565b9250506040620003e886828701620002fb565b9150509250925092565b60006200040083836200040c565b60208301905092915050565b620004178162000612565b82525050565b620004288162000612565b82525050565b60006200043b82620005cd565b620004478185620005f0565b93506200045483620005bd565b8060005b838110156200048b5781516200046f8882620003f2565b97506200047c83620005e3565b92505060018101905062000458565b5085935050505092915050565b6000620004a582620005d8565b620004b1818562000601565b9350620004c381856020860162000655565b620004ce8162000704565b840191505092915050565b6000602082019050620004f060008301846200041d565b92915050565b600060208201905081810360008301526200051281846200042e565b905092915050565b6000606082019050818103600083015262000536818662000498565b90506200054760208301856200041d565b6200055660408301846200041d565b949350505050565b60006200056a6200057d565b90506200057882826200068b565b919050565b6000604051905090565b600067ffffffffffffffff821115620005a557620005a4620006c1565b5b620005b08262000704565b9050602081019050919050565b6000819050602082019050919050565b600081519050919050565b600081519050919050565b6000602082019050919050565b600082825260208201905092915050565b600082825260208201905092915050565b60006200061f8262000626565b9050919050565b600073ffffffffffffffffffffffffffffffffffffffff82169050919050565b82818337600083830152505050565b60005b838110156200067557808201518184015260208101905062000658565b8381111562000685576000848401525b50505050565b620006968262000704565b810181811067ffffffffffffffff82111715620006b857620006b7620006c1565b5b80604052505050565b7f4e487b7100000000000000000000000000000000000000000000000000000000600052604160045260246000fd5b600080fd5b600080fd5b600080fd5b600080fd5b6000601f19601f8301169050919050565b620007208162000612565b81146200072c57600080fd5b5056fe60806040523480156200001157600080fd5b5060405162000e5038038062000e50833981810160405281019062000037919062000220565b82600090805190602001906200004f929190620000db565b5081600560006101000a81548173ffffffffffffffffffffffffffffffffffffffff021916908373ffffffffffffffffffffffffffffffffffffffff16021790555080600660006101000a81548173ffffffffffffffffffffffffffffffffffffffff021916908373ffffffffffffffffffffffffffffffffffffffff1602179055505050506200046d565b828054620000e99062000364565b90600052602060002090601f0160209004810192826200010d576000855562000159565b82601f106200012857805160ff191683800117855562000159565b8280016001018555821562000159579182015b82811115620001585782518255916020019190600101906200013b565b5b5090506200016891906200016c565b5090565b5b80821115620001875760008160009055506001016200016d565b5090565b6000620001a26200019c84620002c4565b6200029b565b905082815260208101848484011115620001c157620001c062000433565b5b620001ce8482856200032e565b509392505050565b600081519050620001e78162000453565b92915050565b600082601f8301126200020557620002046200042e565b5b8151620002178482602086016200018b565b91505092915050565b6000806000606084860312156200023c576200023b6200043d565b5b600084015167ffffffffffffffff8111156200025d576200025c62000438565b5b6200026b86828701620001ed565b93505060206200027e86828701620001d6565b92505060406200029186828701620001d6565b9150509250925092565b6000620002a7620002ba565b9050620002b582826200039a565b919050565b6000604051905090565b600067ffffffffffffffff821115620002e257620002e1620003ff565b5b620002ed8262000442565b9050602081019050919050565b600062000307826200030e565b9050919050565b600073ffffffffffffffffffffffffffffffffffffffff82169050919050565b60005b838110156200034e57808201518184015260208101905062000331565b838111156200035e576000848401525b50505050565b600060028204905060018216806200037d57607f821691505b60208210811415620003945762000393620003d0565b5b50919050565b620003a58262000442565b810181811067ffffffffffffffff82111715620003c757620003c6620003ff565b5b80604052505050565b7f4e487b7100000000000000000000000000000000000000000000000000000000600052602260045260246000fd5b7f4e487b7100000000000000000000000000000000000000000000000000000000600052604160045260246000fd5b600080fd5b600080fd5b600080fd5b600080fd5b6000601f19601f8301169050919050565b6200045e81620002fa565b81146200046a57600080fd5b50565b6109d3806200047d6000396000f3fe60806040526004361061004a5760003560e01c806306fdde031461004f57806311610c251461007a57806317d7de7c14610084578063448e9117146100af5780638b0e9f3f146100da575b600080fd5b34801561005b57600080fd5b50610064610105565b604051610071919061072e565b60405180910390f35b610082610193565b005b34801561009057600080fd5b506100996104da565b6040516100a6919061072e565b60405180910390f35b3480156100bb57600080fd5b506100c461056c565b6040516100d191906106ce565b60405180910390f35b3480156100e657600080fd5b506100ef610592565b6040516100fc9190610770565b60405180910390f35b6000805461011290610877565b80601f016020809104026020016040519081016040528092919081815260200182805461013e90610877565b801561018b5780601f106101605761010080835404028352916020019161018b565b820191906000526020600020905b81548152906001019060200180831161016e57829003601f168201915b505050505081565b6000600560009054906101000a900473ffffffffffffffffffffffffffffffffffffffff1690508073ffffffffffffffffffffffffffffffffffffffff1663d9bbd2786040518163ffffffff1660e01b8152600401602060405180830381600087803b15801561020257600080fd5b505af1158015610216573d6000803e3d6000fd5b505050506040513d601f19601f8201168201806040525081019061023a91906105ef565b34101561027c576040517f08c379a000000000000000000000000000000000000000000000000000000000815260040161027390610750565b60405180910390fd5b6000600260009054906101000a900473ffffffffffffffffffffffffffffffffffffffff16905060008173ffffffffffffffffffffffffffffffffffffffff16637700cb83600660009054906101000a900473ffffffffffffffffffffffffffffffffffffffff16600560009054906101000a900473ffffffffffffffffffffffffffffffffffffffff1630346040518563ffffffff1660e01b815260040161032894939291906106e9565b602060405180830381600087803b15801561034257600080fd5b505af1158015610356573d6000803e3d6000fd5b505050506040513d601f19601f8201168201806040525081019061037a91906105c2565b9050346001600082825461038e91906107b2565b9250508190555034600360003373ffffffffffffffffffffffffffffffffffffffff1673ffffffffffffffffffffffffffffffffffffffff168152602001908152602001600020819055506004819080600181540180825580915050600190039060005260206000200160009091909190916101000a81548173ffffffffffffffffffffffffffffffffffffffff021916908373ffffffffffffffffffffffffffffffffffffffff1602179055506000600660009054906101000a900473ffffffffffffffffffffffffffffffffffffffff1673ffffffffffffffffffffffffffffffffffffffff1634604051610484906106b9565b60006040518083038185875af1925050503d80600081146104c1576040519150601f19603f3d011682016040523d82523d6000602084013e6104c6565b606091505b50509050806104d457600080fd5b50505050565b6060600080546104e990610877565b80601f016020809104026020016040519081016040528092919081815260200182805461051590610877565b80156105625780601f1061053757610100808354040283529160200191610562565b820191906000526020600020905b81548152906001019060200180831161054557829003601f168201915b5050505050905090565b600260009054906101000a900473ffffffffffffffffffffffffffffffffffffffff1681565b60015481565b6000815190506105a78161096f565b92915050565b6000815190506105bc81610986565b92915050565b6000602082840312156105d8576105d7610907565b5b60006105e684828501610598565b91505092915050565b60006020828403121561060557610604610907565b5b6000610613848285016105ad565b91505092915050565b61062581610808565b82525050565b60006106368261078b565b61064081856107a1565b9350610650818560208601610844565b6106598161090c565b840191505092915050565b60006106716030836107a1565b915061067c8261091d565b604082019050919050565b6000610694600083610796565b915061069f8261096c565b600082019050919050565b6106b38161083a565b82525050565b60006106c482610687565b9150819050919050565b60006020820190506106e3600083018461061c565b92915050565b60006080820190506106fe600083018761061c565b61070b602083018661061c565b610718604083018561061c565b61072560608301846106aa565b95945050505050565b60006020820190508181036000830152610748818461062b565b905092915050565b6000602082019050818103600083015261076981610664565b9050919050565b600060208201905061078560008301846106aa565b92915050565b600081519050919050565b600081905092915050565b600082825260208201905092915050565b60006107bd8261083a565b91506107c88361083a565b9250827fffffffffffffffffffffffffffffffffffffffffffffffffffffffffffffffff038211156107fd576107fc6108a9565b5b828201905092915050565b60006108138261081a565b9050919050565b600073ffffffffffffffffffffffffffffffffffffffff82169050919050565b6000819050919050565b60005b83811015610862578082015181840152602081019050610847565b83811115610871576000848401525b50505050565b6000600282049050600182168061088f57607f821691505b602082108114156108a3576108a26108d8565b5b50919050565b7f4e487b7100000000000000000000000000000000000000000000000000000000600052601160045260246000fd5b7f4e487b7100000000000000000000000000000000000000000000000000000000600052602260045260246000fd5b600080fd5b6000601f19601f8301169050919050565b7f596f752063616e206e6f74206265742062656c6f7720746865206d696e696d7560008201527f6d207374616b65206f66206576656e7400000000000000000000000000000000602082015250565b50565b61097881610808565b811461098357600080fd5b50565b61098f8161083a565b811461099a57600080fd5b5056fea264697066735822122045804bc514207fc4c09a5f27de86fbf6f2f5846c0206b7dc3af32643083e3fbb64736f6c63430008070033a264697066735822122051cb3e0dd508e9e8051b89dda4ed30d483ba95dfa2b505924d13353140c2e5d964736f6c63430008070033",
					"opcodes": "PUSH1 0x80 PUSH1 0x40 MSTORE CALLVALUE DUP1 ISZERO PUSH2 0x10 JUMPI PUSH1 0x0 DUP1 REVERT JUMPDEST POP PUSH2 0x15B5 DUP1 PUSH2 0x20 PUSH1 0x0 CODECOPY PUSH1 0x0 RETURN INVALID PUSH1 0x80 PUSH1 0x40 MSTORE CALLVALUE DUP1 ISZERO PUSH3 0x11 JUMPI PUSH1 0x0 DUP1 REVERT JUMPDEST POP PUSH1 0x4 CALLDATASIZE LT PUSH3 0x3A JUMPI PUSH1 0x0 CALLDATALOAD PUSH1 0xE0 SHR DUP1 PUSH4 0x56CD61D7 EQ PUSH3 0x3F JUMPI DUP1 PUSH4 0xE1281E47 EQ PUSH3 0x75 JUMPI JUMPDEST PUSH1 0x0 DUP1 REVERT JUMPDEST PUSH3 0x5D PUSH1 0x4 DUP1 CALLDATASIZE SUB DUP2 ADD SWAP1 PUSH3 0x57 SWAP2 SWAP1 PUSH3 0x377 JUMP JUMPDEST PUSH3 0xAB JUMP JUMPDEST PUSH1 0x40 MLOAD PUSH3 0x6C SWAP2 SWAP1 PUSH3 0x4D9 JUMP JUMPDEST PUSH1 0x40 MLOAD DUP1 SWAP2 SUB SWAP1 RETURN JUMPDEST PUSH3 0x93 PUSH1 0x4 DUP1 CALLDATASIZE SUB DUP2 ADD SWAP1 PUSH3 0x8D SWAP2 SWAP1 PUSH3 0x345 JUMP JUMPDEST PUSH3 0x1D4 JUMP JUMPDEST PUSH1 0x40 MLOAD PUSH3 0xA2 SWAP2 SWAP1 PUSH3 0x4F6 JUMP JUMPDEST PUSH1 0x40 MLOAD DUP1 SWAP2 SUB SWAP1 RETURN JUMPDEST PUSH1 0x0 DUP1 DUP5 DUP5 DUP5 PUSH1 0x40 MLOAD PUSH3 0xBF SWAP1 PUSH3 0x2A2 JUMP JUMPDEST PUSH3 0xCD SWAP4 SWAP3 SWAP2 SWAP1 PUSH3 0x51A JUMP JUMPDEST PUSH1 0x40 MLOAD DUP1 SWAP2 SUB SWAP1 PUSH1 0x0 CREATE DUP1 ISZERO DUP1 ISZERO PUSH3 0xEA JUMPI RETURNDATASIZE PUSH1 0x0 DUP1 RETURNDATACOPY RETURNDATASIZE PUSH1 0x0 REVERT JUMPDEST POP SWAP1 POP PUSH1 0x0 DUP1 DUP5 PUSH20 0xFFFFFFFFFFFFFFFFFFFFFFFFFFFFFFFFFFFFFFFF AND PUSH20 0xFFFFFFFFFFFFFFFFFFFFFFFFFFFFFFFFFFFFFFFF AND DUP2 MSTORE PUSH1 0x20 ADD SWAP1 DUP2 MSTORE PUSH1 0x20 ADD PUSH1 0x0 KECCAK256 DUP2 SWAP1 DUP1 PUSH1 0x1 DUP2 SLOAD ADD DUP1 DUP3 SSTORE DUP1 SWAP2 POP POP PUSH1 0x1 SWAP1 SUB SWAP1 PUSH1 0x0 MSTORE PUSH1 0x20 PUSH1 0x0 KECCAK256 ADD PUSH1 0x0 SWAP1 SWAP2 SWAP1 SWAP2 SWAP1 SWAP2 PUSH2 0x100 EXP DUP2 SLOAD DUP2 PUSH20 0xFFFFFFFFFFFFFFFFFFFFFFFFFFFFFFFFFFFFFFFF MUL NOT AND SWAP1 DUP4 PUSH20 0xFFFFFFFFFFFFFFFFFFFFFFFFFFFFFFFFFFFFFFFF AND MUL OR SWAP1 SSTORE POP PUSH32 0xF1BC21ED97AB3F0EF33F31038B179DA31C46944BEC01F4410240814D0571ADEA DUP6 DUP5 DUP7 PUSH1 0x40 MLOAD PUSH3 0x1C1 SWAP4 SWAP3 SWAP2 SWAP1 PUSH3 0x51A JUMP JUMPDEST PUSH1 0x40 MLOAD DUP1 SWAP2 SUB SWAP1 LOG1 DUP1 SWAP2 POP POP SWAP4 SWAP3 POP POP POP JUMP JUMPDEST PUSH1 0x60 PUSH1 0x0 DUP1 DUP4 PUSH20 0xFFFFFFFFFFFFFFFFFFFFFFFFFFFFFFFFFFFFFFFF AND PUSH20 0xFFFFFFFFFFFFFFFFFFFFFFFFFFFFFFFFFFFFFFFF AND DUP2 MSTORE PUSH1 0x20 ADD SWAP1 DUP2 MSTORE PUSH1 0x20 ADD PUSH1 0x0 KECCAK256 DUP1 SLOAD DUP1 PUSH1 0x20 MUL PUSH1 0x20 ADD PUSH1 0x40 MLOAD SWAP1 DUP2 ADD PUSH1 0x40 MSTORE DUP1 SWAP3 SWAP2 SWAP1 DUP2 DUP2 MSTORE PUSH1 0x20 ADD DUP3 DUP1 SLOAD DUP1 ISZERO PUSH3 0x296 JUMPI PUSH1 0x20 MUL DUP3 ADD SWAP2 SWAP1 PUSH1 0x0 MSTORE PUSH1 0x20 PUSH1 0x0 KECCAK256 SWAP1 JUMPDEST DUP2 PUSH1 0x0 SWAP1 SLOAD SWAP1 PUSH2 0x100 EXP SWAP1 DIV PUSH20 0xFFFFFFFFFFFFFFFFFFFFFFFFFFFFFFFFFFFFFFFF AND PUSH20 0xFFFFFFFFFFFFFFFFFFFFFFFFFFFFFFFFFFFFFFFF AND DUP2 MSTORE PUSH1 0x20 ADD SWAP1 PUSH1 0x1 ADD SWAP1 DUP1 DUP4 GT PUSH3 0x24B JUMPI JUMPDEST POP POP POP POP POP SWAP1 POP SWAP2 SWAP1 POP JUMP JUMPDEST PUSH2 0xE50 DUP1 PUSH3 0x730 DUP4 CODECOPY ADD SWAP1 JUMP JUMPDEST PUSH1 0x0 PUSH3 0x2C7 PUSH3 0x2C1 DUP5 PUSH3 0x587 JUMP JUMPDEST PUSH3 0x55E JUMP JUMPDEST SWAP1 POP DUP3 DUP2 MSTORE PUSH1 0x20 DUP2 ADD DUP5 DUP5 DUP5 ADD GT ISZERO PUSH3 0x2E6 JUMPI PUSH3 0x2E5 PUSH3 0x6F5 JUMP JUMPDEST JUMPDEST PUSH3 0x2F3 DUP5 DUP3 DUP6 PUSH3 0x646 JUMP JUMPDEST POP SWAP4 SWAP3 POP POP POP JUMP JUMPDEST PUSH1 0x0 DUP2 CALLDATALOAD SWAP1 POP PUSH3 0x30C DUP2 PUSH3 0x715 JUMP JUMPDEST SWAP3 SWAP2 POP POP JUMP JUMPDEST PUSH1 0x0 DUP3 PUSH1 0x1F DUP4 ADD SLT PUSH3 0x32A JUMPI PUSH3 0x329 PUSH3 0x6F0 JUMP JUMPDEST JUMPDEST DUP2 CALLDATALOAD PUSH3 0x33C DUP5 DUP3 PUSH1 0x20 DUP7 ADD PUSH3 0x2B0 JUMP JUMPDEST SWAP2 POP POP SWAP3 SWAP2 POP POP JUMP JUMPDEST PUSH1 0x0 PUSH1 0x20 DUP3 DUP5 SUB SLT ISZERO PUSH3 0x35E JUMPI PUSH3 0x35D PUSH3 0x6FF JUMP JUMPDEST JUMPDEST PUSH1 0x0 PUSH3 0x36E DUP5 DUP3 DUP6 ADD PUSH3 0x2FB JUMP JUMPDEST SWAP2 POP POP SWAP3 SWAP2 POP POP JUMP JUMPDEST PUSH1 0x0 DUP1 PUSH1 0x0 PUSH1 0x60 DUP5 DUP7 SUB SLT ISZERO PUSH3 0x393 JUMPI PUSH3 0x392 PUSH3 0x6FF JUMP JUMPDEST JUMPDEST PUSH1 0x0 DUP5 ADD CALLDATALOAD PUSH8 0xFFFFFFFFFFFFFFFF DUP2 GT ISZERO PUSH3 0x3B4 JUMPI PUSH3 0x3B3 PUSH3 0x6FA JUMP JUMPDEST JUMPDEST PUSH3 0x3C2 DUP7 DUP3 DUP8 ADD PUSH3 0x312 JUMP JUMPDEST SWAP4 POP POP PUSH1 0x20 PUSH3 0x3D5 DUP7 DUP3 DUP8 ADD PUSH3 0x2FB JUMP JUMPDEST SWAP3 POP POP PUSH1 0x40 PUSH3 0x3E8 DUP7 DUP3 DUP8 ADD PUSH3 0x2FB JUMP JUMPDEST SWAP2 POP POP SWAP3 POP SWAP3 POP SWAP3 JUMP JUMPDEST PUSH1 0x0 PUSH3 0x400 DUP4 DUP4 PUSH3 0x40C JUMP JUMPDEST PUSH1 0x20 DUP4 ADD SWAP1 POP SWAP3 SWAP2 POP POP JUMP JUMPDEST PUSH3 0x417 DUP2 PUSH3 0x612 JUMP JUMPDEST DUP3 MSTORE POP POP JUMP JUMPDEST PUSH3 0x428 DUP2 PUSH3 0x612 JUMP JUMPDEST DUP3 MSTORE POP POP JUMP JUMPDEST PUSH1 0x0 PUSH3 0x43B DUP3 PUSH3 0x5CD JUMP JUMPDEST PUSH3 0x447 DUP2 DUP6 PUSH3 0x5F0 JUMP JUMPDEST SWAP4 POP PUSH3 0x454 DUP4 PUSH3 0x5BD JUMP JUMPDEST DUP1 PUSH1 0x0 JUMPDEST DUP4 DUP2 LT ISZERO PUSH3 0x48B JUMPI DUP2 MLOAD PUSH3 0x46F DUP9 DUP3 PUSH3 0x3F2 JUMP JUMPDEST SWAP8 POP PUSH3 0x47C DUP4 PUSH3 0x5E3 JUMP JUMPDEST SWAP3 POP POP PUSH1 0x1 DUP2 ADD SWAP1 POP PUSH3 0x458 JUMP JUMPDEST POP DUP6 SWAP4 POP POP POP POP SWAP3 SWAP2 POP POP JUMP JUMPDEST PUSH1 0x0 PUSH3 0x4A5 DUP3 PUSH3 0x5D8 JUMP JUMPDEST PUSH3 0x4B1 DUP2 DUP6 PUSH3 0x601 JUMP JUMPDEST SWAP4 POP PUSH3 0x4C3 DUP2 DUP6 PUSH1 0x20 DUP7 ADD PUSH3 0x655 JUMP JUMPDEST PUSH3 0x4CE DUP2 PUSH3 0x704 JUMP JUMPDEST DUP5 ADD SWAP2 POP POP SWAP3 SWAP2 POP POP JUMP JUMPDEST PUSH1 0x0 PUSH1 0x20 DUP3 ADD SWAP1 POP PUSH3 0x4F0 PUSH1 0x0 DUP4 ADD DUP5 PUSH3 0x41D JUMP JUMPDEST SWAP3 SWAP2 POP POP JUMP JUMPDEST PUSH1 0x0 PUSH1 0x20 DUP3 ADD SWAP1 POP DUP2 DUP2 SUB PUSH1 0x0 DUP4 ADD MSTORE PUSH3 0x512 DUP2 DUP5 PUSH3 0x42E JUMP JUMPDEST SWAP1 POP SWAP3 SWAP2 POP POP JUMP JUMPDEST PUSH1 0x0 PUSH1 0x60 DUP3 ADD SWAP1 POP DUP2 DUP2 SUB PUSH1 0x0 DUP4 ADD MSTORE PUSH3 0x536 DUP2 DUP7 PUSH3 0x498 JUMP JUMPDEST SWAP1 POP PUSH3 0x547 PUSH1 0x20 DUP4 ADD DUP6 PUSH3 0x41D JUMP JUMPDEST PUSH3 0x556 PUSH1 0x40 DUP4 ADD DUP5 PUSH3 0x41D JUMP JUMPDEST SWAP5 SWAP4 POP POP POP POP JUMP JUMPDEST PUSH1 0x0 PUSH3 0x56A PUSH3 0x57D JUMP JUMPDEST SWAP1 POP PUSH3 0x578 DUP3 DUP3 PUSH3 0x68B JUMP JUMPDEST SWAP2 SWAP1 POP JUMP JUMPDEST PUSH1 0x0 PUSH1 0x40 MLOAD SWAP1 POP SWAP1 JUMP JUMPDEST PUSH1 0x0 PUSH8 0xFFFFFFFFFFFFFFFF DUP3 GT ISZERO PUSH3 0x5A5 JUMPI PUSH3 0x5A4 PUSH3 0x6C1 JUMP JUMPDEST JUMPDEST PUSH3 0x5B0 DUP3 PUSH3 0x704 JUMP JUMPDEST SWAP1 POP PUSH1 0x20 DUP2 ADD SWAP1 POP SWAP2 SWAP1 POP JUMP JUMPDEST PUSH1 0x0 DUP2 SWAP1 POP PUSH1 0x20 DUP3 ADD SWAP1 POP SWAP2 SWAP1 POP JUMP JUMPDEST PUSH1 0x0 DUP2 MLOAD SWAP1 POP SWAP2 SWAP1 POP JUMP JUMPDEST PUSH1 0x0 DUP2 MLOAD SWAP1 POP SWAP2 SWAP1 POP JUMP JUMPDEST PUSH1 0x0 PUSH1 0x20 DUP3 ADD SWAP1 POP SWAP2 SWAP1 POP JUMP JUMPDEST PUSH1 0x0 DUP3 DUP3 MSTORE PUSH1 0x20 DUP3 ADD SWAP1 POP SWAP3 SWAP2 POP POP JUMP JUMPDEST PUSH1 0x0 DUP3 DUP3 MSTORE PUSH1 0x20 DUP3 ADD SWAP1 POP SWAP3 SWAP2 POP POP JUMP JUMPDEST PUSH1 0x0 PUSH3 0x61F DUP3 PUSH3 0x626 JUMP JUMPDEST SWAP1 POP SWAP2 SWAP1 POP JUMP JUMPDEST PUSH1 0x0 PUSH20 0xFFFFFFFFFFFFFFFFFFFFFFFFFFFFFFFFFFFFFFFF DUP3 AND SWAP1 POP SWAP2 SWAP1 POP JUMP JUMPDEST DUP3 DUP2 DUP4 CALLDATACOPY PUSH1 0x0 DUP4 DUP4 ADD MSTORE POP POP POP JUMP JUMPDEST PUSH1 0x0 JUMPDEST DUP4 DUP2 LT ISZERO PUSH3 0x675 JUMPI DUP1 DUP3 ADD MLOAD DUP2 DUP5 ADD MSTORE PUSH1 0x20 DUP2 ADD SWAP1 POP PUSH3 0x658 JUMP JUMPDEST DUP4 DUP2 GT ISZERO PUSH3 0x685 JUMPI PUSH1 0x0 DUP5 DUP5 ADD MSTORE JUMPDEST POP POP POP POP JUMP JUMPDEST PUSH3 0x696 DUP3 PUSH3 0x704 JUMP JUMPDEST DUP2 ADD DUP2 DUP2 LT PUSH8 0xFFFFFFFFFFFFFFFF DUP3 GT OR ISZERO PUSH3 0x6B8 JUMPI PUSH3 0x6B7 PUSH3 0x6C1 JUMP JUMPDEST JUMPDEST DUP1 PUSH1 0x40 MSTORE POP POP POP JUMP JUMPDEST PUSH32 0x4E487B7100000000000000000000000000000000000000000000000000000000 PUSH1 0x0 MSTORE PUSH1 0x41 PUSH1 0x4 MSTORE PUSH1 0x24 PUSH1 0x0 REVERT JUMPDEST PUSH1 0x0 DUP1 REVERT JUMPDEST PUSH1 0x0 DUP1 REVERT JUMPDEST PUSH1 0x0 DUP1 REVERT JUMPDEST PUSH1 0x0 DUP1 REVERT JUMPDEST PUSH1 0x0 PUSH1 0x1F NOT PUSH1 0x1F DUP4 ADD AND SWAP1 POP SWAP2 SWAP1 POP JUMP JUMPDEST PUSH3 0x720 DUP2 PUSH3 0x612 JUMP JUMPDEST DUP2 EQ PUSH3 0x72C JUMPI PUSH1 0x0 DUP1 REVERT JUMPDEST POP JUMP INVALID PUSH1 0x80 PUSH1 0x40 MSTORE CALLVALUE DUP1 ISZERO PUSH3 0x11 JUMPI PUSH1 0x0 DUP1 REVERT JUMPDEST POP PUSH1 0x40 MLOAD PUSH3 0xE50 CODESIZE SUB DUP1 PUSH3 0xE50 DUP4 CODECOPY DUP2 DUP2 ADD PUSH1 0x40 MSTORE DUP2 ADD SWAP1 PUSH3 0x37 SWAP2 SWAP1 PUSH3 0x220 JUMP JUMPDEST DUP3 PUSH1 0x0 SWAP1 DUP1 MLOAD SWAP1 PUSH1 0x20 ADD SWAP1 PUSH3 0x4F SWAP3 SWAP2 SWAP1 PUSH3 0xDB JUMP JUMPDEST POP DUP2 PUSH1 0x5 PUSH1 0x0 PUSH2 0x100 EXP DUP2 SLOAD DUP2 PUSH20 0xFFFFFFFFFFFFFFFFFFFFFFFFFFFFFFFFFFFFFFFF MUL NOT AND SWAP1 DUP4 PUSH20 0xFFFFFFFFFFFFFFFFFFFFFFFFFFFFFFFFFFFFFFFF AND MUL OR SWAP1 SSTORE POP DUP1 PUSH1 0x6 PUSH1 0x0 PUSH2 0x100 EXP DUP2 SLOAD DUP2 PUSH20 0xFFFFFFFFFFFFFFFFFFFFFFFFFFFFFFFFFFFFFFFF MUL NOT AND SWAP1 DUP4 PUSH20 0xFFFFFFFFFFFFFFFFFFFFFFFFFFFFFFFFFFFFFFFF AND MUL OR SWAP1 SSTORE POP POP POP POP PUSH3 0x46D JUMP JUMPDEST DUP3 DUP1 SLOAD PUSH3 0xE9 SWAP1 PUSH3 0x364 JUMP JUMPDEST SWAP1 PUSH1 0x0 MSTORE PUSH1 0x20 PUSH1 0x0 KECCAK256 SWAP1 PUSH1 0x1F ADD PUSH1 0x20 SWAP1 DIV DUP2 ADD SWAP3 DUP3 PUSH3 0x10D JUMPI PUSH1 0x0 DUP6 SSTORE PUSH3 0x159 JUMP JUMPDEST DUP3 PUSH1 0x1F LT PUSH3 0x128 JUMPI DUP1 MLOAD PUSH1 0xFF NOT AND DUP4 DUP1 ADD OR DUP6 SSTORE PUSH3 0x159 JUMP JUMPDEST DUP3 DUP1 ADD PUSH1 0x1 ADD DUP6 SSTORE DUP3 ISZERO PUSH3 0x159 JUMPI SWAP2 DUP3 ADD JUMPDEST DUP3 DUP2 GT ISZERO PUSH3 0x158 JUMPI DUP3 MLOAD DUP3 SSTORE SWAP2 PUSH1 0x20 ADD SWAP2 SWAP1 PUSH1 0x1 ADD SWAP1 PUSH3 0x13B JUMP JUMPDEST JUMPDEST POP SWAP1 POP PUSH3 0x168 SWAP2 SWAP1 PUSH3 0x16C JUMP JUMPDEST POP SWAP1 JUMP JUMPDEST JUMPDEST DUP1 DUP3 GT ISZERO PUSH3 0x187 JUMPI PUSH1 0x0 DUP2 PUSH1 0x0 SWAP1 SSTORE POP PUSH1 0x1 ADD PUSH3 0x16D JUMP JUMPDEST POP SWAP1 JUMP JUMPDEST PUSH1 0x0 PUSH3 0x1A2 PUSH3 0x19C DUP5 PUSH3 0x2C4 JUMP JUMPDEST PUSH3 0x29B JUMP JUMPDEST SWAP1 POP DUP3 DUP2 MSTORE PUSH1 0x20 DUP2 ADD DUP5 DUP5 DUP5 ADD GT ISZERO PUSH3 0x1C1 JUMPI PUSH3 0x1C0 PUSH3 0x433 JUMP JUMPDEST JUMPDEST PUSH3 0x1CE DUP5 DUP3 DUP6 PUSH3 0x32E JUMP JUMPDEST POP SWAP4 SWAP3 POP POP POP JUMP JUMPDEST PUSH1 0x0 DUP2 MLOAD SWAP1 POP PUSH3 0x1E7 DUP2 PUSH3 0x453 JUMP JUMPDEST SWAP3 SWAP2 POP POP JUMP JUMPDEST PUSH1 0x0 DUP3 PUSH1 0x1F DUP4 ADD SLT PUSH3 0x205 JUMPI PUSH3 0x204 PUSH3 0x42E JUMP JUMPDEST JUMPDEST DUP2 MLOAD PUSH3 0x217 DUP5 DUP3 PUSH1 0x20 DUP7 ADD PUSH3 0x18B JUMP JUMPDEST SWAP2 POP POP SWAP3 SWAP2 POP POP JUMP JUMPDEST PUSH1 0x0 DUP1 PUSH1 0x0 PUSH1 0x60 DUP5 DUP7 SUB SLT ISZERO PUSH3 0x23C JUMPI PUSH3 0x23B PUSH3 0x43D JUMP JUMPDEST JUMPDEST PUSH1 0x0 DUP5 ADD MLOAD PUSH8 0xFFFFFFFFFFFFFFFF DUP2 GT ISZERO PUSH3 0x25D JUMPI PUSH3 0x25C PUSH3 0x438 JUMP JUMPDEST JUMPDEST PUSH3 0x26B DUP7 DUP3 DUP8 ADD PUSH3 0x1ED JUMP JUMPDEST SWAP4 POP POP PUSH1 0x20 PUSH3 0x27E DUP7 DUP3 DUP8 ADD PUSH3 0x1D6 JUMP JUMPDEST SWAP3 POP POP PUSH1 0x40 PUSH3 0x291 DUP7 DUP3 DUP8 ADD PUSH3 0x1D6 JUMP JUMPDEST SWAP2 POP POP SWAP3 POP SWAP3 POP SWAP3 JUMP JUMPDEST PUSH1 0x0 PUSH3 0x2A7 PUSH3 0x2BA JUMP JUMPDEST SWAP1 POP PUSH3 0x2B5 DUP3 DUP3 PUSH3 0x39A JUMP JUMPDEST SWAP2 SWAP1 POP JUMP JUMPDEST PUSH1 0x0 PUSH1 0x40 MLOAD SWAP1 POP SWAP1 JUMP JUMPDEST PUSH1 0x0 PUSH8 0xFFFFFFFFFFFFFFFF DUP3 GT ISZERO PUSH3 0x2E2 JUMPI PUSH3 0x2E1 PUSH3 0x3FF JUMP JUMPDEST JUMPDEST PUSH3 0x2ED DUP3 PUSH3 0x442 JUMP JUMPDEST SWAP1 POP PUSH1 0x20 DUP2 ADD SWAP1 POP SWAP2 SWAP1 POP JUMP JUMPDEST PUSH1 0x0 PUSH3 0x307 DUP3 PUSH3 0x30E JUMP JUMPDEST SWAP1 POP SWAP2 SWAP1 POP JUMP JUMPDEST PUSH1 0x0 PUSH20 0xFFFFFFFFFFFFFFFFFFFFFFFFFFFFFFFFFFFFFFFF DUP3 AND SWAP1 POP SWAP2 SWAP1 POP JUMP JUMPDEST PUSH1 0x0 JUMPDEST DUP4 DUP2 LT ISZERO PUSH3 0x34E JUMPI DUP1 DUP3 ADD MLOAD DUP2 DUP5 ADD MSTORE PUSH1 0x20 DUP2 ADD SWAP1 POP PUSH3 0x331 JUMP JUMPDEST DUP4 DUP2 GT ISZERO PUSH3 0x35E JUMPI PUSH1 0x0 DUP5 DUP5 ADD MSTORE JUMPDEST POP POP POP POP JUMP JUMPDEST PUSH1 0x0 PUSH1 0x2 DUP3 DIV SWAP1 POP PUSH1 0x1 DUP3 AND DUP1 PUSH3 0x37D JUMPI PUSH1 0x7F DUP3 AND SWAP2 POP JUMPDEST PUSH1 0x20 DUP3 LT DUP2 EQ ISZERO PUSH3 0x394 JUMPI PUSH3 0x393 PUSH3 0x3D0 JUMP JUMPDEST JUMPDEST POP SWAP2 SWAP1 POP JUMP JUMPDEST PUSH3 0x3A5 DUP3 PUSH3 0x442 JUMP JUMPDEST DUP2 ADD DUP2 DUP2 LT PUSH8 0xFFFFFFFFFFFFFFFF DUP3 GT OR ISZERO PUSH3 0x3C7 JUMPI PUSH3 0x3C6 PUSH3 0x3FF JUMP JUMPDEST JUMPDEST DUP1 PUSH1 0x40 MSTORE POP POP POP JUMP JUMPDEST PUSH32 0x4E487B7100000000000000000000000000000000000000000000000000000000 PUSH1 0x0 MSTORE PUSH1 0x22 PUSH1 0x4 MSTORE PUSH1 0x24 PUSH1 0x0 REVERT JUMPDEST PUSH32 0x4E487B7100000000000000000000000000000000000000000000000000000000 PUSH1 0x0 MSTORE PUSH1 0x41 PUSH1 0x4 MSTORE PUSH1 0x24 PUSH1 0x0 REVERT JUMPDEST PUSH1 0x0 DUP1 REVERT JUMPDEST PUSH1 0x0 DUP1 REVERT JUMPDEST PUSH1 0x0 DUP1 REVERT JUMPDEST PUSH1 0x0 DUP1 REVERT JUMPDEST PUSH1 0x0 PUSH1 0x1F NOT PUSH1 0x1F DUP4 ADD AND SWAP1 POP SWAP2 SWAP1 POP JUMP JUMPDEST PUSH3 0x45E DUP2 PUSH3 0x2FA JUMP JUMPDEST DUP2 EQ PUSH3 0x46A JUMPI PUSH1 0x0 DUP1 REVERT JUMPDEST POP JUMP JUMPDEST PUSH2 0x9D3 DUP1 PUSH3 0x47D PUSH1 0x0 CODECOPY PUSH1 0x0 RETURN INVALID PUSH1 0x80 PUSH1 0x40 MSTORE PUSH1 0x4 CALLDATASIZE LT PUSH2 0x4A JUMPI PUSH1 0x0 CALLDATALOAD PUSH1 0xE0 SHR DUP1 PUSH4 0x6FDDE03 EQ PUSH2 0x4F JUMPI DUP1 PUSH4 0x11610C25 EQ PUSH2 0x7A JUMPI DUP1 PUSH4 0x17D7DE7C EQ PUSH2 0x84 JUMPI DUP1 PUSH4 0x448E9117 EQ PUSH2 0xAF JUMPI DUP1 PUSH4 0x8B0E9F3F EQ PUSH2 0xDA JUMPI JUMPDEST PUSH1 0x0 DUP1 REVERT JUMPDEST CALLVALUE DUP1 ISZERO PUSH2 0x5B JUMPI PUSH1 0x0 DUP1 REVERT JUMPDEST POP PUSH2 0x64 PUSH2 0x105 JUMP JUMPDEST PUSH1 0x40 MLOAD PUSH2 0x71 SWAP2 SWAP1 PUSH2 0x72E JUMP JUMPDEST PUSH1 0x40 MLOAD DUP1 SWAP2 SUB SWAP1 RETURN JUMPDEST PUSH2 0x82 PUSH2 0x193 JUMP JUMPDEST STOP JUMPDEST CALLVALUE DUP1 ISZERO PUSH2 0x90 JUMPI PUSH1 0x0 DUP1 REVERT JUMPDEST POP PUSH2 0x99 PUSH2 0x4DA JUMP JUMPDEST PUSH1 0x40 MLOAD PUSH2 0xA6 SWAP2 SWAP1 PUSH2 0x72E JUMP JUMPDEST PUSH1 0x40 MLOAD DUP1 SWAP2 SUB SWAP1 RETURN JUMPDEST CALLVALUE DUP1 ISZERO PUSH2 0xBB JUMPI PUSH1 0x0 DUP1 REVERT JUMPDEST POP PUSH2 0xC4 PUSH2 0x56C JUMP JUMPDEST PUSH1 0x40 MLOAD PUSH2 0xD1 SWAP2 SWAP1 PUSH2 0x6CE JUMP JUMPDEST PUSH1 0x40 MLOAD DUP1 SWAP2 SUB SWAP1 RETURN JUMPDEST CALLVALUE DUP1 ISZERO PUSH2 0xE6 JUMPI PUSH1 0x0 DUP1 REVERT JUMPDEST POP PUSH2 0xEF PUSH2 0x592 JUMP JUMPDEST PUSH1 0x40 MLOAD PUSH2 0xFC SWAP2 SWAP1 PUSH2 0x770 JUMP JUMPDEST PUSH1 0x40 MLOAD DUP1 SWAP2 SUB SWAP1 RETURN JUMPDEST PUSH1 0x0 DUP1 SLOAD PUSH2 0x112 SWAP1 PUSH2 0x877 JUMP JUMPDEST DUP1 PUSH1 0x1F ADD PUSH1 0x20 DUP1 SWAP2 DIV MUL PUSH1 0x20 ADD PUSH1 0x40 MLOAD SWAP1 DUP2 ADD PUSH1 0x40 MSTORE DUP1 SWAP3 SWAP2 SWAP1 DUP2 DUP2 MSTORE PUSH1 0x20 ADD DUP3 DUP1 SLOAD PUSH2 0x13E SWAP1 PUSH2 0x877 JUMP JUMPDEST DUP1 ISZERO PUSH2 0x18B JUMPI DUP1 PUSH1 0x1F LT PUSH2 0x160 JUMPI PUSH2 0x100 DUP1 DUP4 SLOAD DIV MUL DUP4 MSTORE SWAP2 PUSH1 0x20 ADD SWAP2 PUSH2 0x18B JUMP JUMPDEST DUP3 ADD SWAP2 SWAP1 PUSH1 0x0 MSTORE PUSH1 0x20 PUSH1 0x0 KECCAK256 SWAP1 JUMPDEST DUP2 SLOAD DUP2 MSTORE SWAP1 PUSH1 0x1 ADD SWAP1 PUSH1 0x20 ADD DUP1 DUP4 GT PUSH2 0x16E JUMPI DUP3 SWAP1 SUB PUSH1 0x1F AND DUP3 ADD SWAP2 JUMPDEST POP POP POP POP POP DUP2 JUMP JUMPDEST PUSH1 0x0 PUSH1 0x5 PUSH1 0x0 SWAP1 SLOAD SWAP1 PUSH2 0x100 EXP SWAP1 DIV PUSH20 0xFFFFFFFFFFFFFFFFFFFFFFFFFFFFFFFFFFFFFFFF AND SWAP1 POP DUP1 PUSH20 0xFFFFFFFFFFFFFFFFFFFFFFFFFFFFFFFFFFFFFFFF AND PUSH4 0xD9BBD278 PUSH1 0x40 MLOAD DUP2 PUSH4 0xFFFFFFFF AND PUSH1 0xE0 SHL DUP2 MSTORE PUSH1 0x4 ADD PUSH1 0x20 PUSH1 0x40 MLOAD DUP1 DUP4 SUB DUP2 PUSH1 0x0 DUP8 DUP1 EXTCODESIZE ISZERO DUP1 ISZERO PUSH2 0x202 JUMPI PUSH1 0x0 DUP1 REVERT JUMPDEST POP GAS CALL ISZERO DUP1 ISZERO PUSH2 0x216 JUMPI RETURNDATASIZE PUSH1 0x0 DUP1 RETURNDATACOPY RETURNDATASIZE PUSH1 0x0 REVERT JUMPDEST POP POP POP POP PUSH1 0x40 MLOAD RETURNDATASIZE PUSH1 0x1F NOT PUSH1 0x1F DUP3 ADD AND DUP3 ADD DUP1 PUSH1 0x40 MSTORE POP DUP2 ADD SWAP1 PUSH2 0x23A SWAP2 SWAP1 PUSH2 0x5EF JUMP JUMPDEST CALLVALUE LT ISZERO PUSH2 0x27C JUMPI PUSH1 0x40 MLOAD PUSH32 0x8C379A000000000000000000000000000000000000000000000000000000000 DUP2 MSTORE PUSH1 0x4 ADD PUSH2 0x273 SWAP1 PUSH2 0x750 JUMP JUMPDEST PUSH1 0x40 MLOAD DUP1 SWAP2 SUB SWAP1 REVERT JUMPDEST PUSH1 0x0 PUSH1 0x2 PUSH1 0x0 SWAP1 SLOAD SWAP1 PUSH2 0x100 EXP SWAP1 DIV PUSH20 0xFFFFFFFFFFFFFFFFFFFFFFFFFFFFFFFFFFFFFFFF AND SWAP1 POP PUSH1 0x0 DUP2 PUSH20 0xFFFFFFFFFFFFFFFFFFFFFFFFFFFFFFFFFFFFFFFF AND PUSH4 0x7700CB83 PUSH1 0x6 PUSH1 0x0 SWAP1 SLOAD SWAP1 PUSH2 0x100 EXP SWAP1 DIV PUSH20 0xFFFFFFFFFFFFFFFFFFFFFFFFFFFFFFFFFFFFFFFF AND PUSH1 0x5 PUSH1 0x0 SWAP1 SLOAD SWAP1 PUSH2 0x100 EXP SWAP1 DIV PUSH20 0xFFFFFFFFFFFFFFFFFFFFFFFFFFFFFFFFFFFFFFFF AND ADDRESS CALLVALUE PUSH1 0x40 MLOAD DUP6 PUSH4 0xFFFFFFFF AND PUSH1 0xE0 SHL DUP2 MSTORE PUSH1 0x4 ADD PUSH2 0x328 SWAP5 SWAP4 SWAP3 SWAP2 SWAP1 PUSH2 0x6E9 JUMP JUMPDEST PUSH1 0x20 PUSH1 0x40 MLOAD DUP1 DUP4 SUB DUP2 PUSH1 0x0 DUP8 DUP1 EXTCODESIZE ISZERO DUP1 ISZERO PUSH2 0x342 JUMPI PUSH1 0x0 DUP1 REVERT JUMPDEST POP GAS CALL ISZERO DUP1 ISZERO PUSH2 0x356 JUMPI RETURNDATASIZE PUSH1 0x0 DUP1 RETURNDATACOPY RETURNDATASIZE PUSH1 0x0 REVERT JUMPDEST POP POP POP POP PUSH1 0x40 MLOAD RETURNDATASIZE PUSH1 0x1F NOT PUSH1 0x1F DUP3 ADD AND DUP3 ADD DUP1 PUSH1 0x40 MSTORE POP DUP2 ADD SWAP1 PUSH2 0x37A SWAP2 SWAP1 PUSH2 0x5C2 JUMP JUMPDEST SWAP1 POP CALLVALUE PUSH1 0x1 PUSH1 0x0 DUP3 DUP3 SLOAD PUSH2 0x38E SWAP2 SWAP1 PUSH2 0x7B2 JUMP JUMPDEST SWAP3 POP POP DUP2 SWAP1 SSTORE POP CALLVALUE PUSH1 0x3 PUSH1 0x0 CALLER PUSH20 0xFFFFFFFFFFFFFFFFFFFFFFFFFFFFFFFFFFFFFFFF AND PUSH20 0xFFFFFFFFFFFFFFFFFFFFFFFFFFFFFFFFFFFFFFFF AND DUP2 MSTORE PUSH1 0x20 ADD SWAP1 DUP2 MSTORE PUSH1 0x20 ADD PUSH1 0x0 KECCAK256 DUP2 SWAP1 SSTORE POP PUSH1 0x4 DUP2 SWAP1 DUP1 PUSH1 0x1 DUP2 SLOAD ADD DUP1 DUP3 SSTORE DUP1 SWAP2 POP POP PUSH1 0x1 SWAP1 SUB SWAP1 PUSH1 0x0 MSTORE PUSH1 0x20 PUSH1 0x0 KECCAK256 ADD PUSH1 0x0 SWAP1 SWAP2 SWAP1 SWAP2 SWAP1 SWAP2 PUSH2 0x100 EXP DUP2 SLOAD DUP2 PUSH20 0xFFFFFFFFFFFFFFFFFFFFFFFFFFFFFFFFFFFFFFFF MUL NOT AND SWAP1 DUP4 PUSH20 0xFFFFFFFFFFFFFFFFFFFFFFFFFFFFFFFFFFFFFFFF AND MUL OR SWAP1 SSTORE POP PUSH1 0x0 PUSH1 0x6 PUSH1 0x0 SWAP1 SLOAD SWAP1 PUSH2 0x100 EXP SWAP1 DIV PUSH20 0xFFFFFFFFFFFFFFFFFFFFFFFFFFFFFFFFFFFFFFFF AND PUSH20 0xFFFFFFFFFFFFFFFFFFFFFFFFFFFFFFFFFFFFFFFF AND CALLVALUE PUSH1 0x40 MLOAD PUSH2 0x484 SWAP1 PUSH2 0x6B9 JUMP JUMPDEST PUSH1 0x0 PUSH1 0x40 MLOAD DUP1 DUP4 SUB DUP2 DUP6 DUP8 GAS CALL SWAP3 POP POP POP RETURNDATASIZE DUP1 PUSH1 0x0 DUP2 EQ PUSH2 0x4C1 JUMPI PUSH1 0x40 MLOAD SWAP2 POP PUSH1 0x1F NOT PUSH1 0x3F RETURNDATASIZE ADD AND DUP3 ADD PUSH1 0x40 MSTORE RETURNDATASIZE DUP3 MSTORE RETURNDATASIZE PUSH1 0x0 PUSH1 0x20 DUP5 ADD RETURNDATACOPY PUSH2 0x4C6 JUMP JUMPDEST PUSH1 0x60 SWAP2 POP JUMPDEST POP POP SWAP1 POP DUP1 PUSH2 0x4D4 JUMPI PUSH1 0x0 DUP1 REVERT JUMPDEST POP POP POP POP JUMP JUMPDEST PUSH1 0x60 PUSH1 0x0 DUP1 SLOAD PUSH2 0x4E9 SWAP1 PUSH2 0x877 JUMP JUMPDEST DUP1 PUSH1 0x1F ADD PUSH1 0x20 DUP1 SWAP2 DIV MUL PUSH1 0x20 ADD PUSH1 0x40 MLOAD SWAP1 DUP2 ADD PUSH1 0x40 MSTORE DUP1 SWAP3 SWAP2 SWAP1 DUP2 DUP2 MSTORE PUSH1 0x20 ADD DUP3 DUP1 SLOAD PUSH2 0x515 SWAP1 PUSH2 0x877 JUMP JUMPDEST DUP1 ISZERO PUSH2 0x562 JUMPI DUP1 PUSH1 0x1F LT PUSH2 0x537 JUMPI PUSH2 0x100 DUP1 DUP4 SLOAD DIV MUL DUP4 MSTORE SWAP2 PUSH1 0x20 ADD SWAP2 PUSH2 0x562 JUMP JUMPDEST DUP3 ADD SWAP2 SWAP1 PUSH1 0x0 MSTORE PUSH1 0x20 PUSH1 0x0 KECCAK256 SWAP1 JUMPDEST DUP2 SLOAD DUP2 MSTORE SWAP1 PUSH1 0x1 ADD SWAP1 PUSH1 0x20 ADD DUP1 DUP4 GT PUSH2 0x545 JUMPI DUP3 SWAP1 SUB PUSH1 0x1F AND DUP3 ADD SWAP2 JUMPDEST POP POP POP POP POP SWAP1 POP SWAP1 JUMP JUMPDEST PUSH1 0x2 PUSH1 0x0 SWAP1 SLOAD SWAP1 PUSH2 0x100 EXP SWAP1 DIV PUSH20 0xFFFFFFFFFFFFFFFFFFFFFFFFFFFFFFFFFFFFFFFF AND DUP2 JUMP JUMPDEST PUSH1 0x1 SLOAD DUP2 JUMP JUMPDEST PUSH1 0x0 DUP2 MLOAD SWAP1 POP PUSH2 0x5A7 DUP2 PUSH2 0x96F JUMP JUMPDEST SWAP3 SWAP2 POP POP JUMP JUMPDEST PUSH1 0x0 DUP2 MLOAD SWAP1 POP PUSH2 0x5BC DUP2 PUSH2 0x986 JUMP JUMPDEST SWAP3 SWAP2 POP POP JUMP JUMPDEST PUSH1 0x0 PUSH1 0x20 DUP3 DUP5 SUB SLT ISZERO PUSH2 0x5D8 JUMPI PUSH2 0x5D7 PUSH2 0x907 JUMP JUMPDEST JUMPDEST PUSH1 0x0 PUSH2 0x5E6 DUP5 DUP3 DUP6 ADD PUSH2 0x598 JUMP JUMPDEST SWAP2 POP POP SWAP3 SWAP2 POP POP JUMP JUMPDEST PUSH1 0x0 PUSH1 0x20 DUP3 DUP5 SUB SLT ISZERO PUSH2 0x605 JUMPI PUSH2 0x604 PUSH2 0x907 JUMP JUMPDEST JUMPDEST PUSH1 0x0 PUSH2 0x613 DUP5 DUP3 DUP6 ADD PUSH2 0x5AD JUMP JUMPDEST SWAP2 POP POP SWAP3 SWAP2 POP POP JUMP JUMPDEST PUSH2 0x625 DUP2 PUSH2 0x808 JUMP JUMPDEST DUP3 MSTORE POP POP JUMP JUMPDEST PUSH1 0x0 PUSH2 0x636 DUP3 PUSH2 0x78B JUMP JUMPDEST PUSH2 0x640 DUP2 DUP6 PUSH2 0x7A1 JUMP JUMPDEST SWAP4 POP PUSH2 0x650 DUP2 DUP6 PUSH1 0x20 DUP7 ADD PUSH2 0x844 JUMP JUMPDEST PUSH2 0x659 DUP2 PUSH2 0x90C JUMP JUMPDEST DUP5 ADD SWAP2 POP POP SWAP3 SWAP2 POP POP JUMP JUMPDEST PUSH1 0x0 PUSH2 0x671 PUSH1 0x30 DUP4 PUSH2 0x7A1 JUMP JUMPDEST SWAP2 POP PUSH2 0x67C DUP3 PUSH2 0x91D JUMP JUMPDEST PUSH1 0x40 DUP3 ADD SWAP1 POP SWAP2 SWAP1 POP JUMP JUMPDEST PUSH1 0x0 PUSH2 0x694 PUSH1 0x0 DUP4 PUSH2 0x796 JUMP JUMPDEST SWAP2 POP PUSH2 0x69F DUP3 PUSH2 0x96C JUMP JUMPDEST PUSH1 0x0 DUP3 ADD SWAP1 POP SWAP2 SWAP1 POP JUMP JUMPDEST PUSH2 0x6B3 DUP2 PUSH2 0x83A JUMP JUMPDEST DUP3 MSTORE POP POP JUMP JUMPDEST PUSH1 0x0 PUSH2 0x6C4 DUP3 PUSH2 0x687 JUMP JUMPDEST SWAP2 POP DUP2 SWAP1 POP SWAP2 SWAP1 POP JUMP JUMPDEST PUSH1 0x0 PUSH1 0x20 DUP3 ADD SWAP1 POP PUSH2 0x6E3 PUSH1 0x0 DUP4 ADD DUP5 PUSH2 0x61C JUMP JUMPDEST SWAP3 SWAP2 POP POP JUMP JUMPDEST PUSH1 0x0 PUSH1 0x80 DUP3 ADD SWAP1 POP PUSH2 0x6FE PUSH1 0x0 DUP4 ADD DUP8 PUSH2 0x61C JUMP JUMPDEST PUSH2 0x70B PUSH1 0x20 DUP4 ADD DUP7 PUSH2 0x61C JUMP JUMPDEST PUSH2 0x718 PUSH1 0x40 DUP4 ADD DUP6 PUSH2 0x61C JUMP JUMPDEST PUSH2 0x725 PUSH1 0x60 DUP4 ADD DUP5 PUSH2 0x6AA JUMP JUMPDEST SWAP6 SWAP5 POP POP POP POP POP JUMP JUMPDEST PUSH1 0x0 PUSH1 0x20 DUP3 ADD SWAP1 POP DUP2 DUP2 SUB PUSH1 0x0 DUP4 ADD MSTORE PUSH2 0x748 DUP2 DUP5 PUSH2 0x62B JUMP JUMPDEST SWAP1 POP SWAP3 SWAP2 POP POP JUMP JUMPDEST PUSH1 0x0 PUSH1 0x20 DUP3 ADD SWAP1 POP DUP2 DUP2 SUB PUSH1 0x0 DUP4 ADD MSTORE PUSH2 0x769 DUP2 PUSH2 0x664 JUMP JUMPDEST SWAP1 POP SWAP2 SWAP1 POP JUMP JUMPDEST PUSH1 0x0 PUSH1 0x20 DUP3 ADD SWAP1 POP PUSH2 0x785 PUSH1 0x0 DUP4 ADD DUP5 PUSH2 0x6AA JUMP JUMPDEST SWAP3 SWAP2 POP POP JUMP JUMPDEST PUSH1 0x0 DUP2 MLOAD SWAP1 POP SWAP2 SWAP1 POP JUMP JUMPDEST PUSH1 0x0 DUP2 SWAP1 POP SWAP3 SWAP2 POP POP JUMP JUMPDEST PUSH1 0x0 DUP3 DUP3 MSTORE PUSH1 0x20 DUP3 ADD SWAP1 POP SWAP3 SWAP2 POP POP JUMP JUMPDEST PUSH1 0x0 PUSH2 0x7BD DUP3 PUSH2 0x83A JUMP JUMPDEST SWAP2 POP PUSH2 0x7C8 DUP4 PUSH2 0x83A JUMP JUMPDEST SWAP3 POP DUP3 PUSH32 0xFFFFFFFFFFFFFFFFFFFFFFFFFFFFFFFFFFFFFFFFFFFFFFFFFFFFFFFFFFFFFFFF SUB DUP3 GT ISZERO PUSH2 0x7FD JUMPI PUSH2 0x7FC PUSH2 0x8A9 JUMP JUMPDEST JUMPDEST DUP3 DUP3 ADD SWAP1 POP SWAP3 SWAP2 POP POP JUMP JUMPDEST PUSH1 0x0 PUSH2 0x813 DUP3 PUSH2 0x81A JUMP JUMPDEST SWAP1 POP SWAP2 SWAP1 POP JUMP JUMPDEST PUSH1 0x0 PUSH20 0xFFFFFFFFFFFFFFFFFFFFFFFFFFFFFFFFFFFFFFFF DUP3 AND SWAP1 POP SWAP2 SWAP1 POP JUMP JUMPDEST PUSH1 0x0 DUP2 SWAP1 POP SWAP2 SWAP1 POP JUMP JUMPDEST PUSH1 0x0 JUMPDEST DUP4 DUP2 LT ISZERO PUSH2 0x862 JUMPI DUP1 DUP3 ADD MLOAD DUP2 DUP5 ADD MSTORE PUSH1 0x20 DUP2 ADD SWAP1 POP PUSH2 0x847 JUMP JUMPDEST DUP4 DUP2 GT ISZERO PUSH2 0x871 JUMPI PUSH1 0x0 DUP5 DUP5 ADD MSTORE JUMPDEST POP POP POP POP JUMP JUMPDEST PUSH1 0x0 PUSH1 0x2 DUP3 DIV SWAP1 POP PUSH1 0x1 DUP3 AND DUP1 PUSH2 0x88F JUMPI PUSH1 0x7F DUP3 AND SWAP2 POP JUMPDEST PUSH1 0x20 DUP3 LT DUP2 EQ ISZERO PUSH2 0x8A3 JUMPI PUSH2 0x8A2 PUSH2 0x8D8 JUMP JUMPDEST JUMPDEST POP SWAP2 SWAP1 POP JUMP JUMPDEST PUSH32 0x4E487B7100000000000000000000000000000000000000000000000000000000 PUSH1 0x0 MSTORE PUSH1 0x11 PUSH1 0x4 MSTORE PUSH1 0x24 PUSH1 0x0 REVERT JUMPDEST PUSH32 0x4E487B7100000000000000000000000000000000000000000000000000000000 PUSH1 0x0 MSTORE PUSH1 0x22 PUSH1 0x4 MSTORE PUSH1 0x24 PUSH1 0x0 REVERT JUMPDEST PUSH1 0x0 DUP1 REVERT JUMPDEST PUSH1 0x0 PUSH1 0x1F NOT PUSH1 0x1F DUP4 ADD AND SWAP1 POP SWAP2 SWAP1 POP JUMP JUMPDEST PUSH32 0x596F752063616E206E6F74206265742062656C6F7720746865206D696E696D75 PUSH1 0x0 DUP3 ADD MSTORE PUSH32 0x6D207374616B65206F66206576656E7400000000000000000000000000000000 PUSH1 0x20 DUP3 ADD MSTORE POP JUMP JUMPDEST POP JUMP JUMPDEST PUSH2 0x978 DUP2 PUSH2 0x808 JUMP JUMPDEST DUP2 EQ PUSH2 0x983 JUMPI PUSH1 0x0 DUP1 REVERT JUMPDEST POP JUMP JUMPDEST PUSH2 0x98F DUP2 PUSH2 0x83A JUMP JUMPDEST DUP2 EQ PUSH2 0x99A JUMPI PUSH1 0x0 DUP1 REVERT JUMPDEST POP JUMP INVALID LOG2 PUSH5 0x6970667358 0x22 SLT KECCAK256 GASLIMIT DUP1 0x4B 0xC5 EQ KECCAK256 PUSH32 0xC4C09A5F27DE86FBF6F2F5846C0206B7DC3AF32643083E3FBB64736F6C634300 ADDMOD SMOD STOP CALLER LOG2 PUSH5 0x6970667358 0x22 SLT KECCAK256 MLOAD 0xCB RETURNDATACOPY 0xD 0xD5 ADDMOD 0xE9 0xE8 SDIV SHL DUP10 0xDD LOG4 0xED ADDRESS 0xD4 DUP4 0xBA SWAP6 0xDF LOG2 0xB5 SDIV SWAP3 0x4D SGT CALLDATALOAD BALANCE BLOCKHASH 0xC2 0xE5 0xD9 PUSH5 0x736F6C6343 STOP ADDMOD SMOD STOP CALLER "
				},
				"gasEstimates": {
					"creation": {
						"codeDepositCost": "1111400",
						"executionCost": "1154",
						"totalCost": "1112554"
					},
					"external": {
						"createPool(string,address,address)": "infinite",
						"getPoolsOfMarket(address)": "infinite"
					}
				},
				"methodIdentifiers": {
					"createPool(string,address,address)": "56cd61d7",
					"getPoolsOfMarket(address)": "e1281e47"
				}
			},
			"storageLayout": {
				"storage": [
					{
						"astId": 512,
						"contract": "projects/crypto/web3bets_smartcontract/contracts/PoolsFactory.sol:PoolsFactory",
						"label": "marketPools",
						"offset": 0,
						"slot": "0",
						"type": "t_mapping(t_address,t_array(t_address)dyn_storage)"
					}
				],
				"types": {
					"t_address": {
						"encoding": "inplace",
						"label": "address",
						"numberOfBytes": "20"
					},
					"t_array(t_address)dyn_storage": {
						"base": "t_address",
						"encoding": "dynamic_array",
						"label": "address[]",
						"numberOfBytes": "32"
					},
					"t_mapping(t_address,t_array(t_address)dyn_storage)": {
						"encoding": "mapping",
						"key": "t_address",
						"label": "mapping(address => address[])",
						"numberOfBytes": "32",
						"value": "t_array(t_address)dyn_storage"
					}
				}
			},
			"userdoc": {
				"kind": "user",
				"methods": {},
				"version": 1
			}
		}
	}
}