{
  "contractName": "BetsFactory",
  "abi": [
    {
      "anonymous": false,
      "inputs": [
        {
          "indexed": false,
          "internalType": "address",
          "name": "better",
          "type": "address"
        },
        {
          "indexed": false,
          "internalType": "address",
          "name": "eventAddress",
          "type": "address"
        },
        {
          "indexed": false,
          "internalType": "address",
          "name": "marketAddress",
          "type": "address"
        },
        {
          "indexed": false,
          "internalType": "address",
          "name": "poolAddress",
          "type": "address"
        },
        {
          "indexed": false,
          "internalType": "uint256",
          "name": "stake",
          "type": "uint256"
        }
      ],
      "name": "BetCreated",
      "type": "event"
    },
    {
      "inputs": [
        {
          "internalType": "address",
          "name": "_eventAddress",
          "type": "address"
        },
        {
          "internalType": "address",
          "name": "_marketAddress",
          "type": "address"
        },
        {
          "internalType": "address",
          "name": "_poolAddress",
          "type": "address"
        },
        {
          "internalType": "uint256",
          "name": "_stake",
          "type": "uint256"
        }
      ],
      "name": "createBet",
      "outputs": [
        {
          "internalType": "address",
          "name": "",
          "type": "address"
        }
      ],
      "stateMutability": "nonpayable",
      "type": "function"
    },
    {
      "inputs": [
        {
          "internalType": "address",
          "name": "_address",
          "type": "address"
        }
      ],
      "name": "getAllBetsByAddress",
      "outputs": [
        {
          "internalType": "address[]",
          "name": "",
          "type": "address[]"
        }
      ],
      "stateMutability": "view",
      "type": "function"
    }
  ],
  "bytecode": "0x608060405234801561001057600080fd5b50611544806100206000396000f3fe60806040523480156200001157600080fd5b50600436106200003a5760003560e01c80637700cb83146200003f578063fc6a691b1462000075575b600080fd5b6200005d60048036038101906200005791906200035c565b620000ab565b6040516200006c9190620003df565b60405180910390f35b6200009360048036038101906200008d9190620003fc565b620001db565b604051620000a29190620004fc565b60405180910390f35b60008085858585604051620000c090620002a9565b620000cf949392919062000531565b604051809103906000f080158015620000ec573d6000803e3d6000fd5b5090506000803373ffffffffffffffffffffffffffffffffffffffff1673ffffffffffffffffffffffffffffffffffffffff168152602001908152602001600020819080600181540180825580915050600190039060005260206000200160009091909190916101000a81548173ffffffffffffffffffffffffffffffffffffffff021916908373ffffffffffffffffffffffffffffffffffffffff1602179055507f9726291d5c71d688e1f9eeefc86207b2fe84f09e6362dd075e12a7aba0834e313387878787604051620001c79594939291906200057e565b60405180910390a180915050949350505050565b60606000808373ffffffffffffffffffffffffffffffffffffffff1673ffffffffffffffffffffffffffffffffffffffff1681526020019081526020016000208054806020026020016040519081016040528092919081815260200182805480156200029d57602002820191906000526020600020905b8160009054906101000a900473ffffffffffffffffffffffffffffffffffffffff1673ffffffffffffffffffffffffffffffffffffffff168152602001906001019080831162000252575b50505050509050919050565b610f3380620005dc83390190565b600080fd5b600073ffffffffffffffffffffffffffffffffffffffff82169050919050565b6000620002e982620002bc565b9050919050565b620002fb81620002dc565b81146200030757600080fd5b50565b6000813590506200031b81620002f0565b92915050565b6000819050919050565b620003368162000321565b81146200034257600080fd5b50565b60008135905062000356816200032b565b92915050565b60008060008060808587031215620003795762000378620002b7565b5b600062000389878288016200030a565b94505060206200039c878288016200030a565b9350506040620003af878288016200030a565b9250506060620003c28782880162000345565b91505092959194509250565b620003d981620002dc565b82525050565b6000602082019050620003f66000830184620003ce565b92915050565b600060208284031215620004155762000414620002b7565b5b600062000425848285016200030a565b91505092915050565b600081519050919050565b600082825260208201905092915050565b6000819050602082019050919050565b6200046581620002dc565b82525050565b60006200047983836200045a565b60208301905092915050565b6000602082019050919050565b60006200049f826200042e565b620004ab818562000439565b9350620004b8836200044a565b8060005b83811015620004ef578151620004d388826200046b565b9750620004e08362000485565b925050600181019050620004bc565b5085935050505092915050565b6000602082019050818103600083015262000518818462000492565b905092915050565b6200052b8162000321565b82525050565b6000608082019050620005486000830187620003ce565b620005576020830186620003ce565b620005666040830185620003ce565b62000575606083018462000520565b95945050505050565b600060a082019050620005956000830188620003ce565b620005a46020830187620003ce565b620005b36040830186620003ce565b620005c26060830185620003ce565b620005d1608083018462000520565b969550505050505056fe608060405260006003556000600460146101000a81548160ff021916908360038111156200003257620000316200017e565b5b02179055503480156200004457600080fd5b5060405162000f3338038062000f3383398181016040528101906200006a919062000252565b83600160006101000a81548173ffffffffffffffffffffffffffffffffffffffff021916908373ffffffffffffffffffffffffffffffffffffffff16021790555082600260006101000a81548173ffffffffffffffffffffffffffffffffffffffff021916908373ffffffffffffffffffffffffffffffffffffffff16021790555080600581905550336000806101000a81548173ffffffffffffffffffffffffffffffffffffffff021916908373ffffffffffffffffffffffffffffffffffffffff16021790555081600460006101000a81548173ffffffffffffffffffffffffffffffffffffffff021916908373ffffffffffffffffffffffffffffffffffffffff16021790555050505050620002c4565b7f4e487b7100000000000000000000000000000000000000000000000000000000600052602160045260246000fd5b600080fd5b600073ffffffffffffffffffffffffffffffffffffffff82169050919050565b6000620001df82620001b2565b9050919050565b620001f181620001d2565b8114620001fd57600080fd5b50565b6000815190506200021181620001e6565b92915050565b6000819050919050565b6200022c8162000217565b81146200023857600080fd5b50565b6000815190506200024c8162000221565b92915050565b600080600080608085870312156200026f576200026e620001ad565b5b60006200027f8782880162000200565b9450506020620002928782880162000200565b9350506040620002a58782880162000200565b9250506060620002b8878288016200023b565b91505092959194509250565b610c5f80620002d46000396000f3fe6080604052600436106100c25760003560e01c80634e69d5601161007f57806395623641116100595780639562364114610227578063b07a275414610252578063fad567791461027d578063fda51b17146102a8576100c2565b80634e69d560146101a657806351696127146101d1578063718c7d44146101fc576100c2565b80630ca5ba05146100c75780631755ff21146100f0578063262007c01461011b5780633a4b66f1146101465780633ccfd60b146101715780634d2124d41461017b575b600080fd5b3480156100d357600080fd5b506100ee60048036038101906100e99190610829565b6102d3565b005b3480156100fc57600080fd5b5061010561045b565b6040516101129190610897565b60405180910390f35b34801561012757600080fd5b50610130610481565b60405161013d9190610897565b60405180910390f35b34801561015257600080fd5b5061015b6104aa565b60405161016891906108c1565b60405180910390f35b6101796104b0565b005b34801561018757600080fd5b5061019061067e565b60405161019d91906108c1565b60405180910390f35b3480156101b257600080fd5b506101bb610688565b6040516101c891906108c1565b60405180910390f35b3480156101dd57600080fd5b506101e66106b1565b6040516101f39190610897565b60405180910390f35b34801561020857600080fd5b506102116106db565b60405161021e9190610897565b60405180910390f35b34801561023357600080fd5b5061023c6106ff565b6040516102499190610897565b60405180910390f35b34801561025e57600080fd5b50610267610725565b6040516102749190610897565b60405180910390f35b34801561028957600080fd5b5061029261074f565b60405161029f9190610897565b60405180910390f35b3480156102b457600080fd5b506102bd610775565b6040516102ca9190610897565b60405180910390f35b6000600160009054906101000a900473ffffffffffffffffffffffffffffffffffffffff1690508073ffffffffffffffffffffffffffffffffffffffff1663179f907d6040518163ffffffff1660e01b81526004016020604051808303816000875af1158015610347573d6000803e3d6000fd5b505050506040513d601f19601f8201168201806040525081019061036b9190610908565b73ffffffffffffffffffffffffffffffffffffffff163373ffffffffffffffffffffffffffffffffffffffff16146103d8576040517f08c379a00000000000000000000000000000000000000000000000000000000081526004016103cf906109b8565b60405180910390fd5b60006003541461041d576040517f08c379a000000000000000000000000000000000000000000000000000000000815260040161041490610a4a565b60405180910390fd5b6104268261079f565b600460146101000a81548160ff0219169083600381111561044a57610449610a6a565b5b021790555060016003819055505050565b600460009054906101000a900473ffffffffffffffffffffffffffffffffffffffff1681565b60008060009054906101000a900473ffffffffffffffffffffffffffffffffffffffff16905090565b60055481565b60008054906101000a900473ffffffffffffffffffffffffffffffffffffffff1673ffffffffffffffffffffffffffffffffffffffff163373ffffffffffffffffffffffffffffffffffffffff161461053e576040517f08c379a000000000000000000000000000000000000000000000000000000000815260040161053590610b0b565b60405180910390fd5b6002600381111561055257610551610a6a565b5b600460149054906101000a900460ff16600381111561057457610573610a6a565b5b14806105b357506001600381111561058f5761058e610a6a565b5b600460149054906101000a900460ff1660038111156105b1576105b0610a6a565b5b145b6105f2576040517f08c379a00000000000000000000000000000000000000000000000000000000081526004016105e990610b9d565b60405180910390fd5b60004711610635576040517f08c379a000000000000000000000000000000000000000000000000000000000815260040161062c90610c09565b60405180910390fd5b3373ffffffffffffffffffffffffffffffffffffffff166108fc479081150290604051600060405180830381858888f1935050505015801561067b573d6000803e3d6000fd5b50565b6000600554905090565b6000600460149054906101000a900460ff1660038111156106ac576106ab610a6a565b5b905090565b6000600160009054906101000a900473ffffffffffffffffffffffffffffffffffffffff16905090565b60008054906101000a900473ffffffffffffffffffffffffffffffffffffffff1681565b600260009054906101000a900473ffffffffffffffffffffffffffffffffffffffff1681565b6000600460009054906101000a900473ffffffffffffffffffffffffffffffffffffffff16905090565b600160009054906101000a900473ffffffffffffffffffffffffffffffffffffffff1681565b6000600260009054906101000a900473ffffffffffffffffffffffffffffffffffffffff16905090565b60008082036107b157600090506107e9565b600182036107c257600190506107e9565b600282036107d357600290506107e9565b600382036107e457600390506107e9565b600090505b919050565b600080fd5b6000819050919050565b610806816107f3565b811461081157600080fd5b50565b600081359050610823816107fd565b92915050565b60006020828403121561083f5761083e6107ee565b5b600061084d84828501610814565b91505092915050565b600073ffffffffffffffffffffffffffffffffffffffff82169050919050565b600061088182610856565b9050919050565b61089181610876565b82525050565b60006020820190506108ac6000830184610888565b92915050565b6108bb816107f3565b82525050565b60006020820190506108d660008301846108b2565b92915050565b6108e581610876565b81146108f057600080fd5b50565b600081519050610902816108dc565b92915050565b60006020828403121561091e5761091d6107ee565b5b600061092c848285016108f3565b91505092915050565b600082825260208201905092915050565b7f4f6e6c7920626574206f776e6572732063616e206170706c792074686973206660008201527f756e6374696f6e00000000000000000000000000000000000000000000000000602082015250565b60006109a2602783610935565b91506109ad82610946565b604082019050919050565b600060208201905081810360008301526109d181610995565b9050919050565b7f596f752063616e206e6f74206d6f646966792062657420737461747573206d6f60008201527f7265207468616e206f6e63650000000000000000000000000000000000000000602082015250565b6000610a34602c83610935565b9150610a3f826109d8565b604082019050919050565b60006020820190508181036000830152610a6381610a27565b9050919050565b7f4e487b7100000000000000000000000000000000000000000000000000000000600052602160045260246000fd5b7f4f6e6c79206576656e74206265747465722063616e2063616c6c20746869732060008201527f66756e6374696f6e000000000000000000000000000000000000000000000000602082015250565b6000610af5602883610935565b9150610b0082610a99565b604082019050919050565b60006020820190508181036000830152610b2481610ae8565b9050919050565b7f426574206d75737420626520776f6e206f722063616e63656c6c656420746f2060008201527f7769746864726177000000000000000000000000000000000000000000000000602082015250565b6000610b87602883610935565b9150610b9282610b2b565b604082019050919050565b60006020820190508181036000830152610bb681610b7a565b9050919050565b7f546869732062657420686173206e6f2066756e64730000000000000000000000600082015250565b6000610bf3601583610935565b9150610bfe82610bbd565b602082019050919050565b60006020820190508181036000830152610c2281610be6565b905091905056fea264697066735822122008810021b0b7da1165d3d84e2ab156068052723a150091716018bb67d4b39c1b64736f6c634300080d0033a2646970667358221220ef0acbc7459d230fc6331914b77e1d2558828f5eecd872436c61c4e4e6df77b664736f6c634300080d0033",
  "immutableReferences": {},
  "source": "// SPDX-License-Identifier: MIT\npragma solidity ^0.8.4;\n\nimport \"./Bets.sol\";\ncontract BetsFactory {\n    mapping (address => address[]) userBets;\n\n    event BetCreated(address better, address eventAddress, address marketAddress, address poolAddress, uint stake);\n\n    function createBet(address _eventAddress, address _marketAddress, address _poolAddress, uint _stake) external returns(address) {\n        Bets bet =new Bets(_eventAddress, _marketAddress,_poolAddress, _stake);\n        userBets[msg.sender].push(address(bet));\n        emit BetCreated(msg.sender, _eventAddress, _marketAddress, _poolAddress, _stake);\n        return address(bet);\n    }\n\n\n    function getAllBetsByAddress(address _address) external view returns (address[] memory){\n        return userBets[_address];\n    } \n\n}",
  "sourcePath": "/Users/wizardom/projects/crypto/web3bets_smartcontract/contracts/BetsFactory.sol",
  "compiler": {
    "name": "solc",
    "version": "0.8.13+commit.abaa5c0e.Emscripten.clang"
  },
  "schemaVersion": "3.4.7",
  "updatedAt": "2022-07-23T13:01:44.962Z",
  "devdoc": {
    "kind": "dev",
    "methods": {},
    "version": 1
  },
  "userdoc": {
    "kind": "user",
    "methods": {},
    "version": 1
  }
}