{
  "contractName": "Bets",
  "abi": [
    {
      "inputs": [
        {
          "internalType": "address",
          "name": "_eventAddress",
          "type": "address"
        },
        {
          "internalType": "address",
          "name": "_marketAddress",
          "type": "address"
        },
        {
          "internalType": "address",
          "name": "_poolAddress",
          "type": "address"
        },
        {
          "internalType": "uint256",
          "name": "_stake",
          "type": "uint256"
        },
        {
          "internalType": "address",
          "name": "_better",
          "type": "address"
        }
      ],
      "stateMutability": "nonpayable",
      "type": "constructor"
    },
    {
      "stateMutability": "payable",
      "type": "fallback",
      "payable": true
    },
    {
      "inputs": [],
      "name": "better",
      "outputs": [
        {
          "internalType": "address",
          "name": "",
          "type": "address"
        }
      ],
      "stateMutability": "view",
      "type": "function",
      "constant": true
    },
    {
      "inputs": [],
      "name": "eventAddress",
      "outputs": [
        {
          "internalType": "address",
          "name": "",
          "type": "address"
        }
      ],
      "stateMutability": "view",
      "type": "function",
      "constant": true
    },
    {
      "inputs": [],
      "name": "marketAddress",
      "outputs": [
        {
          "internalType": "address",
          "name": "",
          "type": "address"
        }
      ],
      "stateMutability": "view",
      "type": "function",
      "constant": true
    },
    {
      "inputs": [],
      "name": "poolAddress",
      "outputs": [
        {
          "internalType": "address",
          "name": "",
          "type": "address"
        }
      ],
      "stateMutability": "view",
      "type": "function",
      "constant": true
    },
    {
      "inputs": [],
      "name": "stake",
      "outputs": [
        {
          "internalType": "uint256",
          "name": "",
          "type": "uint256"
        }
      ],
      "stateMutability": "view",
      "type": "function",
      "constant": true
    },
    {
      "stateMutability": "payable",
      "type": "receive",
      "payable": true
    },
    {
      "inputs": [],
      "name": "getBetStake",
      "outputs": [
        {
          "internalType": "uint256",
          "name": "",
          "type": "uint256"
        }
      ],
      "stateMutability": "view",
      "type": "function",
      "constant": true
    },
    {
      "inputs": [],
      "name": "getBetter",
      "outputs": [
        {
          "internalType": "address",
          "name": "",
          "type": "address"
        }
      ],
      "stateMutability": "view",
      "type": "function",
      "constant": true
    },
    {
      "inputs": [],
      "name": "getBetPoolAddress",
      "outputs": [
        {
          "internalType": "address",
          "name": "",
          "type": "address"
        }
      ],
      "stateMutability": "view",
      "type": "function",
      "constant": true
    },
    {
      "inputs": [],
      "name": "getBetMarketAddress",
      "outputs": [
        {
          "internalType": "address",
          "name": "",
          "type": "address"
        }
      ],
      "stateMutability": "view",
      "type": "function",
      "constant": true
    },
    {
      "inputs": [],
      "name": "getBetEventAddress",
      "outputs": [
        {
          "internalType": "address",
          "name": "",
          "type": "address"
        }
      ],
      "stateMutability": "view",
      "type": "function",
      "constant": true
    },
    {
      "inputs": [],
      "name": "withdraw",
      "outputs": [],
      "stateMutability": "nonpayable",
      "type": "function"
    }
  ],
  "bytecode": "0x608060405234801561001057600080fd5b50604051610913380380610913833981810160405281019061003291906101df565b84600160006101000a81548173ffffffffffffffffffffffffffffffffffffffff021916908373ffffffffffffffffffffffffffffffffffffffff16021790555083600260006101000a81548173ffffffffffffffffffffffffffffffffffffffff021916908373ffffffffffffffffffffffffffffffffffffffff16021790555081600481905550806000806101000a81548173ffffffffffffffffffffffffffffffffffffffff021916908373ffffffffffffffffffffffffffffffffffffffff16021790555082600360006101000a81548173ffffffffffffffffffffffffffffffffffffffff021916908373ffffffffffffffffffffffffffffffffffffffff160217905550505050505061025a565b600080fd5b600073ffffffffffffffffffffffffffffffffffffffff82169050919050565b60006101768261014b565b9050919050565b6101868161016b565b811461019157600080fd5b50565b6000815190506101a38161017d565b92915050565b6000819050919050565b6101bc816101a9565b81146101c757600080fd5b50565b6000815190506101d9816101b3565b92915050565b600080600080600060a086880312156101fb576101fa610146565b5b600061020988828901610194565b955050602061021a88828901610194565b945050604061022b88828901610194565b935050606061023c888289016101ca565b925050608061024d88828901610194565b9150509295509295909350565b6106aa806102696000396000f3fe6080604052600436106100a05760003560e01c80635169612711610064578063516961271461016c578063718c7d441461019757806395623641146101c2578063b07a2754146101ed578063fad5677914610218578063fda51b1714610243576100a7565b80631755ff21146100a9578063262007c0146100d45780633a4b66f1146100ff5780633ccfd60b1461012a5780634d2124d414610141576100a7565b366100a757005b005b3480156100b557600080fd5b506100be61026e565b6040516100cb9190610516565b60405180910390f35b3480156100e057600080fd5b506100e9610294565b6040516100f69190610516565b60405180910390f35b34801561010b57600080fd5b506101146102bd565b604051610121919061054a565b60405180910390f35b34801561013657600080fd5b5061013f6102c3565b005b34801561014d57600080fd5b506101566103dd565b604051610163919061054a565b60405180910390f35b34801561017857600080fd5b506101816103e7565b60405161018e9190610516565b60405180910390f35b3480156101a357600080fd5b506101ac610411565b6040516101b99190610516565b60405180910390f35b3480156101ce57600080fd5b506101d7610435565b6040516101e49190610516565b60405180910390f35b3480156101f957600080fd5b5061020261045b565b60405161020f9190610516565b60405180910390f35b34801561022457600080fd5b5061022d610485565b60405161023a9190610516565b60405180910390f35b34801561024f57600080fd5b506102586104ab565b6040516102659190610516565b60405180910390f35b600360009054906101000a900473ffffffffffffffffffffffffffffffffffffffff1681565b60008060009054906101000a900473ffffffffffffffffffffffffffffffffffffffff16905090565b60045481565b60008054906101000a900473ffffffffffffffffffffffffffffffffffffffff1673ffffffffffffffffffffffffffffffffffffffff163273ffffffffffffffffffffffffffffffffffffffff1614610351576040517f08c379a0000000000000000000000000000000000000000000000000000000008152600401610348906105e8565b60405180910390fd5b60004711610394576040517f08c379a000000000000000000000000000000000000000000000000000000000815260040161038b90610654565b60405180910390fd5b3373ffffffffffffffffffffffffffffffffffffffff166108fc479081150290604051600060405180830381858888f193505050501580156103da573d6000803e3d6000fd5b50565b6000600454905090565b6000600160009054906101000a900473ffffffffffffffffffffffffffffffffffffffff16905090565b60008054906101000a900473ffffffffffffffffffffffffffffffffffffffff1681565b600260009054906101000a900473ffffffffffffffffffffffffffffffffffffffff1681565b6000600360009054906101000a900473ffffffffffffffffffffffffffffffffffffffff16905090565b600160009054906101000a900473ffffffffffffffffffffffffffffffffffffffff1681565b6000600260009054906101000a900473ffffffffffffffffffffffffffffffffffffffff16905090565b600073ffffffffffffffffffffffffffffffffffffffff82169050919050565b6000610500826104d5565b9050919050565b610510816104f5565b82525050565b600060208201905061052b6000830184610507565b92915050565b6000819050919050565b61054481610531565b82525050565b600060208201905061055f600083018461053b565b92915050565b600082825260208201905092915050565b7f4f6e6c79206576656e74206265747465722063616e2063616c6c20746869732060008201527f66756e6374696f6e000000000000000000000000000000000000000000000000602082015250565b60006105d2602883610565565b91506105dd82610576565b604082019050919050565b60006020820190508181036000830152610601816105c5565b9050919050565b7f546869732062657420686173206e6f2066756e64730000000000000000000000600082015250565b600061063e601583610565565b915061064982610608565b602082019050919050565b6000602082019050818103600083015261066d81610631565b905091905056fea26469706673582212204baad63d66adf85965948c3879674f634386cacd92f111142a9310c9ff105e0f64736f6c63430008110033",
  "immutableReferences": {},
  "source": "// SPDX-License-Identifier: MIT\npragma solidity ^0.8.4;\n\nimport \"./interface/IWeb3BetsBetsV1.sol\";\nimport \"./interface/IWeb3BetsMarketV1.sol\";\nimport \"./interface/IWeb3BetsEventsV1.sol\";\nimport \"./interface/IWeb3BetsPoolsV1.sol\";\n\n/// @author Ibekason Alexander Onyebuchi\n/// @title Bet Contract\n/// @notice Contain function signatures for creating bets in a\n/// pool\n\ncontract Bets is IWeb3BetsBetsV1 {\n    address public better;\n\n    address public eventAddress;\n\n    address public marketAddress;\n\n    address public poolAddress;\n\n    uint256 public stake;\n\n    modifier onlyEventOwner() {\n        IWeb3BetsEventV1 betEvent = IWeb3BetsEventV1(eventAddress);\n        require(\n            tx.origin == betEvent.getEventOwner(),\n            \"Only bet owners can apply this function\"\n        );\n\n        _;\n    }\n\n    modifier onlyBetter() {\n        require(\n            tx.origin == better,\n            \"Only event better can call this function\"\n        );\n        _;\n    }\n\n    constructor(\n        address _eventAddress,\n        address _marketAddress,\n        address _poolAddress,\n        uint256 _stake,\n        address _better\n    ) {\n        eventAddress = _eventAddress;\n        marketAddress = _marketAddress;\n        stake = _stake;\n        better = _better;\n        poolAddress = _poolAddress;\n    }\n\n    function getBetStake() external view override returns (uint256) {\n        return stake;\n    }\n\n    function getBetter() external view override returns (address) {\n        return better;\n    }\n\n    function getBetPoolAddress() external view override returns (address) {\n        return poolAddress;\n    }\n\n    function getBetMarketAddress() external view override returns (address) {\n        return marketAddress;\n    }\n\n    function getBetEventAddress() external view override returns (address) {\n        return eventAddress;\n    }\n \n    function withdraw() external override onlyBetter {\n        require(address(this).balance > 0, \"This bet has no funds\");\n\n        // IWeb3BetsEventV1 eventV1 = IWeb3BetsEventV1(eventAddress);\n        // uint256 status = eventV1.getEventStatus();\n\n        // // its not equal to pending or started\n        // if (status == 0 && status == 1) {\n        //     revert(\n        //         \"An event must be cancelled or ended to withdraw funds and earnings\"\n        //     );\n        // }\n\n        // IWeb3BetsMarketV1 marketV1 = IWeb3BetsMarketV1(marketAddress);\n        // bool isWinningPool = marketV1.isWinningPool(poolAddress);\n        // if (!isWinningPool) {\n        //     revert(\"You lost this bet\");\n        // }\n\n        payable(msg.sender).transfer(address(this).balance);\n    }\n\n    fallback() external payable {}\n\n    receive() external payable {}\n}\n",
  "sourcePath": "/Users/wizardom/projects/crypto/web3bets_smartcontract/contracts/Bets.sol",
  "compiler": {
    "name": "solc",
    "version": "0.8.17+commit.8df45f5f.Emscripten.clang"
  },
  "schemaVersion": "3.4.7",
  "updatedAt": "2022-09-11T14:58:02.230Z",
  "networkType": "ethereum",
  "devdoc": {
    "author": "Ibekason Alexander Onyebuchi",
    "kind": "dev",
    "methods": {},
    "title": "Bet Contract",
    "version": 1
  },
  "userdoc": {
    "kind": "user",
    "methods": {},
    "notice": "Contain function signatures for creating bets in a pool",
    "version": 1
  }
}