{
  "contractName": "BetsFactory",
  "abi": [
    {
      "anonymous": false,
      "inputs": [
        {
          "indexed": false,
          "internalType": "address",
          "name": "better",
          "type": "address"
        },
        {
          "indexed": false,
          "internalType": "address",
          "name": "eventAddress",
          "type": "address"
        },
        {
          "indexed": false,
          "internalType": "address",
          "name": "marketAddress",
          "type": "address"
        },
        {
          "indexed": false,
          "internalType": "address",
          "name": "poolAddress",
          "type": "address"
        },
        {
          "indexed": false,
          "internalType": "uint256",
          "name": "stake",
          "type": "uint256"
        }
      ],
      "name": "BetCreated",
      "type": "event"
    },
    {
      "inputs": [
        {
          "internalType": "address",
          "name": "",
          "type": "address"
        },
        {
          "internalType": "uint256",
          "name": "",
          "type": "uint256"
        }
      ],
      "name": "userBets",
      "outputs": [
        {
          "internalType": "address",
          "name": "",
          "type": "address"
        }
      ],
      "stateMutability": "view",
      "type": "function",
      "constant": true
    },
    {
      "inputs": [
        {
          "internalType": "address",
          "name": "_eventAddress",
          "type": "address"
        },
        {
          "internalType": "address",
          "name": "_marketAddress",
          "type": "address"
        },
        {
          "internalType": "address",
          "name": "_poolAddress",
          "type": "address"
        },
        {
          "internalType": "uint256",
          "name": "_stake",
          "type": "uint256"
        },
        {
          "internalType": "address",
          "name": "_better",
          "type": "address"
        }
      ],
      "name": "createBet",
      "outputs": [
        {
          "internalType": "address",
          "name": "",
          "type": "address"
        }
      ],
      "stateMutability": "nonpayable",
      "type": "function"
    },
    {
      "inputs": [
        {
          "internalType": "address",
          "name": "_address",
          "type": "address"
        }
      ],
      "name": "getAllBetsByAddress",
      "outputs": [
        {
          "internalType": "address[]",
          "name": "",
          "type": "address[]"
        }
      ],
      "stateMutability": "view",
      "type": "function",
      "constant": true
    },
    {
      "inputs": [],
      "name": "getTotalBets",
      "outputs": [
        {
          "internalType": "uint256",
          "name": "",
          "type": "uint256"
        }
      ],
      "stateMutability": "view",
      "type": "function",
      "constant": true
    },
    {
      "inputs": [],
      "name": "getAllBets",
      "outputs": [
        {
          "internalType": "address[]",
          "name": "",
          "type": "address[]"
        }
      ],
      "stateMutability": "view",
      "type": "function",
      "constant": true
    }
  ],
  "bytecode": "0x608060405234801561001057600080fd5b5061119e806100206000396000f3fe60806040523480156200001157600080fd5b50600436106200005e5760003560e01c8063700eae7314620000635780638068aa681462000085578063934995b414620000bb578063a3cb679d14620000f1578063fc6a691b1462000113575b600080fd5b6200006d62000149565b6040516200007c9190620005a9565b60405180910390f35b620000a360048036038101906200009d91906200063e565b620001d9565b604051620000b2919062000696565b60405180910390f35b620000d96004803603810190620000d39190620006b3565b62000228565b604051620000e8919062000696565b60405180910390f35b620000fb620003be565b6040516200010a91906200074c565b60405180910390f35b6200013160048036038101906200012b919062000769565b620003cb565b604051620001409190620005a9565b60405180910390f35b60606001805480602002602001604051908101604052809291908181526020018280548015620001cf57602002820191906000526020600020905b8160009054906101000a900473ffffffffffffffffffffffffffffffffffffffff1673ffffffffffffffffffffffffffffffffffffffff168152602001906001019080831162000184575b5050505050905090565b60006020528160005260406000208181548110620001f657600080fd5b906000526020600020016000915091509054906101000a900473ffffffffffffffffffffffffffffffffffffffff1681565b60008086868686866040516200023e9062000499565b6200024e9594939291906200079b565b604051809103906000f0801580156200026b573d6000803e3d6000fd5b5090506001819080600181540180825580915050600190039060005260206000200160009091909190916101000a81548173ffffffffffffffffffffffffffffffffffffffff021916908373ffffffffffffffffffffffffffffffffffffffff1602179055506000808473ffffffffffffffffffffffffffffffffffffffff1673ffffffffffffffffffffffffffffffffffffffff168152602001908152602001600020819080600181540180825580915050600190039060005260206000200160009091909190916101000a81548173ffffffffffffffffffffffffffffffffffffffff021916908373ffffffffffffffffffffffffffffffffffffffff1602179055507f9726291d5c71d688e1f9eeefc86207b2fe84f09e6362dd075e12a7aba0834e318388888888604051620003a9959493929190620007f8565b60405180910390a18091505095945050505050565b6000600180549050905090565b60606000808373ffffffffffffffffffffffffffffffffffffffff1673ffffffffffffffffffffffffffffffffffffffff1681526020019081526020016000208054806020026020016040519081016040528092919081815260200182805480156200048d57602002820191906000526020600020905b8160009054906101000a900473ffffffffffffffffffffffffffffffffffffffff1673ffffffffffffffffffffffffffffffffffffffff168152602001906001019080831162000442575b50505050509050919050565b610913806200085683390190565b600081519050919050565b600082825260208201905092915050565b6000819050602082019050919050565b600073ffffffffffffffffffffffffffffffffffffffff82169050919050565b60006200050082620004d3565b9050919050565b6200051281620004f3565b82525050565b600062000526838362000507565b60208301905092915050565b6000602082019050919050565b60006200054c82620004a7565b620005588185620004b2565b93506200056583620004c3565b8060005b838110156200059c57815162000580888262000518565b97506200058d8362000532565b92505060018101905062000569565b5085935050505092915050565b60006020820190508181036000830152620005c581846200053f565b905092915050565b600080fd5b620005dd81620004f3565b8114620005e957600080fd5b50565b600081359050620005fd81620005d2565b92915050565b6000819050919050565b620006188162000603565b81146200062457600080fd5b50565b60008135905062000638816200060d565b92915050565b60008060408385031215620006585762000657620005cd565b5b60006200066885828601620005ec565b92505060206200067b8582860162000627565b9150509250929050565b6200069081620004f3565b82525050565b6000602082019050620006ad600083018462000685565b92915050565b600080600080600060a08688031215620006d257620006d1620005cd565b5b6000620006e288828901620005ec565b9550506020620006f588828901620005ec565b94505060406200070888828901620005ec565b93505060606200071b8882890162000627565b92505060806200072e88828901620005ec565b9150509295509295909350565b620007468162000603565b82525050565b60006020820190506200076360008301846200073b565b92915050565b600060208284031215620007825762000781620005cd565b5b60006200079284828501620005ec565b91505092915050565b600060a082019050620007b2600083018862000685565b620007c1602083018762000685565b620007d0604083018662000685565b620007df60608301856200073b565b620007ee608083018462000685565b9695505050505050565b600060a0820190506200080f600083018862000685565b6200081e602083018762000685565b6200082d604083018662000685565b6200083c606083018562000685565b6200084b60808301846200073b565b969550505050505056fe608060405234801561001057600080fd5b50604051610913380380610913833981810160405281019061003291906101df565b84600160006101000a81548173ffffffffffffffffffffffffffffffffffffffff021916908373ffffffffffffffffffffffffffffffffffffffff16021790555083600260006101000a81548173ffffffffffffffffffffffffffffffffffffffff021916908373ffffffffffffffffffffffffffffffffffffffff16021790555081600481905550806000806101000a81548173ffffffffffffffffffffffffffffffffffffffff021916908373ffffffffffffffffffffffffffffffffffffffff16021790555082600360006101000a81548173ffffffffffffffffffffffffffffffffffffffff021916908373ffffffffffffffffffffffffffffffffffffffff160217905550505050505061025a565b600080fd5b600073ffffffffffffffffffffffffffffffffffffffff82169050919050565b60006101768261014b565b9050919050565b6101868161016b565b811461019157600080fd5b50565b6000815190506101a38161017d565b92915050565b6000819050919050565b6101bc816101a9565b81146101c757600080fd5b50565b6000815190506101d9816101b3565b92915050565b600080600080600060a086880312156101fb576101fa610146565b5b600061020988828901610194565b955050602061021a88828901610194565b945050604061022b88828901610194565b935050606061023c888289016101ca565b925050608061024d88828901610194565b9150509295509295909350565b6106aa806102696000396000f3fe6080604052600436106100a05760003560e01c80635169612711610064578063516961271461016c578063718c7d441461019757806395623641146101c2578063b07a2754146101ed578063fad5677914610218578063fda51b1714610243576100a7565b80631755ff21146100a9578063262007c0146100d45780633a4b66f1146100ff5780633ccfd60b1461012a5780634d2124d414610141576100a7565b366100a757005b005b3480156100b557600080fd5b506100be61026e565b6040516100cb9190610516565b60405180910390f35b3480156100e057600080fd5b506100e9610294565b6040516100f69190610516565b60405180910390f35b34801561010b57600080fd5b506101146102bd565b604051610121919061054a565b60405180910390f35b34801561013657600080fd5b5061013f6102c3565b005b34801561014d57600080fd5b506101566103dd565b604051610163919061054a565b60405180910390f35b34801561017857600080fd5b506101816103e7565b60405161018e9190610516565b60405180910390f35b3480156101a357600080fd5b506101ac610411565b6040516101b99190610516565b60405180910390f35b3480156101ce57600080fd5b506101d7610435565b6040516101e49190610516565b60405180910390f35b3480156101f957600080fd5b5061020261045b565b60405161020f9190610516565b60405180910390f35b34801561022457600080fd5b5061022d610485565b60405161023a9190610516565b60405180910390f35b34801561024f57600080fd5b506102586104ab565b6040516102659190610516565b60405180910390f35b600360009054906101000a900473ffffffffffffffffffffffffffffffffffffffff1681565b60008060009054906101000a900473ffffffffffffffffffffffffffffffffffffffff16905090565b60045481565b60008054906101000a900473ffffffffffffffffffffffffffffffffffffffff1673ffffffffffffffffffffffffffffffffffffffff163273ffffffffffffffffffffffffffffffffffffffff1614610351576040517f08c379a0000000000000000000000000000000000000000000000000000000008152600401610348906105e8565b60405180910390fd5b60004711610394576040517f08c379a000000000000000000000000000000000000000000000000000000000815260040161038b90610654565b60405180910390fd5b3373ffffffffffffffffffffffffffffffffffffffff166108fc479081150290604051600060405180830381858888f193505050501580156103da573d6000803e3d6000fd5b50565b6000600454905090565b6000600160009054906101000a900473ffffffffffffffffffffffffffffffffffffffff16905090565b60008054906101000a900473ffffffffffffffffffffffffffffffffffffffff1681565b600260009054906101000a900473ffffffffffffffffffffffffffffffffffffffff1681565b6000600360009054906101000a900473ffffffffffffffffffffffffffffffffffffffff16905090565b600160009054906101000a900473ffffffffffffffffffffffffffffffffffffffff1681565b6000600260009054906101000a900473ffffffffffffffffffffffffffffffffffffffff16905090565b600073ffffffffffffffffffffffffffffffffffffffff82169050919050565b6000610500826104d5565b9050919050565b610510816104f5565b82525050565b600060208201905061052b6000830184610507565b92915050565b6000819050919050565b61054481610531565b82525050565b600060208201905061055f600083018461053b565b92915050565b600082825260208201905092915050565b7f4f6e6c79206576656e74206265747465722063616e2063616c6c20746869732060008201527f66756e6374696f6e000000000000000000000000000000000000000000000000602082015250565b60006105d2602883610565565b91506105dd82610576565b604082019050919050565b60006020820190508181036000830152610601816105c5565b9050919050565b7f546869732062657420686173206e6f2066756e64730000000000000000000000600082015250565b600061063e601583610565565b915061064982610608565b602082019050919050565b6000602082019050818103600083015261066d81610631565b905091905056fea2646970667358221220f833ca5406d401d62e128e4a4549a334fe92467081c480ab5124938a5d9cda5164736f6c634300080d0033a2646970667358221220920f839e5a99045d2a205ccda477474f1e8278dc1273c08a8ca40e226ab628a564736f6c634300080d0033",
  "immutableReferences": {},
  "source": "// SPDX-License-Identifier: MIT\npragma solidity ^0.8.4;\n\nimport \"./Bets.sol\";\ncontract BetsFactory {\n    mapping (address => address[]) public userBets;\n\n    address[] private _bets;\n\n    event BetCreated(address better, address eventAddress, address marketAddress, address poolAddress, uint stake);\n\n    function createBet(address _eventAddress, address _marketAddress, address _poolAddress, uint _stake,address _better) external returns(address) {\n        Bets bet =new Bets(_eventAddress, _marketAddress,_poolAddress, _stake,_better);\n        _bets.push(address(bet));\n        userBets[_better].push(address(bet));\n        emit BetCreated(_better, _eventAddress, _marketAddress, _poolAddress, _stake);\n        return address(bet);\n    }\n\n\n    function getAllBetsByAddress(address _address) external view returns (address[] memory){\n        return userBets[_address];\n    } \n\n\n    function getTotalBets() external view returns(uint){\n        return _bets.length;\n    }\n\n      function getAllBets() external view returns (address[] memory){\n        return _bets;\n    }\n\n}",
  "sourcePath": "/Users/wizardom/projects/crypto/web3bets_smartcontract/contracts/BetsFactory.sol",
  "compiler": {
    "name": "solc",
    "version": "0.8.13+commit.abaa5c0e.Emscripten.clang"
  },
  "schemaVersion": "3.4.7",
  "updatedAt": "2022-08-02T04:22:07.841Z",
  "networkType": "ethereum",
  "devdoc": {
    "kind": "dev",
    "methods": {},
    "version": 1
  },
  "userdoc": {
    "kind": "user",
    "methods": {},
    "version": 1
  }
}