{
  "contractName": "BetsFactory",
  "abi": [
    {
      "anonymous": false,
      "inputs": [
        {
          "indexed": false,
          "internalType": "address",
          "name": "better",
          "type": "address"
        },
        {
          "indexed": false,
          "internalType": "address",
          "name": "eventAddress",
          "type": "address"
        },
        {
          "indexed": false,
          "internalType": "address",
          "name": "marketAddress",
          "type": "address"
        },
        {
          "indexed": false,
          "internalType": "address",
          "name": "poolAddress",
          "type": "address"
        },
        {
          "indexed": false,
          "internalType": "uint256",
          "name": "stake",
          "type": "uint256"
        }
      ],
      "name": "BetCreated",
      "type": "event"
    },
    {
      "inputs": [
        {
          "internalType": "address",
          "name": "",
          "type": "address"
        },
        {
          "internalType": "uint256",
          "name": "",
          "type": "uint256"
        }
      ],
      "name": "userBets",
      "outputs": [
        {
          "internalType": "address",
          "name": "",
          "type": "address"
        }
      ],
      "stateMutability": "view",
      "type": "function",
      "constant": true
    },
    {
      "inputs": [
        {
          "internalType": "address",
          "name": "_eventAddress",
          "type": "address"
        },
        {
          "internalType": "address",
          "name": "_marketAddress",
          "type": "address"
        },
        {
          "internalType": "address",
          "name": "_poolAddress",
          "type": "address"
        },
        {
          "internalType": "uint256",
          "name": "_stake",
          "type": "uint256"
        }
      ],
      "name": "createBet",
      "outputs": [
        {
          "internalType": "address",
          "name": "",
          "type": "address"
        }
      ],
      "stateMutability": "nonpayable",
      "type": "function"
    },
    {
      "inputs": [
        {
          "internalType": "address",
          "name": "_address",
          "type": "address"
        }
      ],
      "name": "getAllBetsByAddress",
      "outputs": [
        {
          "internalType": "address[]",
          "name": "",
          "type": "address[]"
        }
      ],
      "stateMutability": "view",
      "type": "function",
      "constant": true
    },
    {
      "inputs": [],
      "name": "getTotalBets",
      "outputs": [
        {
          "internalType": "uint256",
          "name": "",
          "type": "uint256"
        }
      ],
      "stateMutability": "view",
      "type": "function",
      "constant": true
    },
    {
      "inputs": [],
      "name": "getAllBets",
      "outputs": [
        {
          "internalType": "address[]",
          "name": "",
          "type": "address[]"
        }
      ],
      "stateMutability": "view",
      "type": "function",
      "constant": true
    }
  ],
  "bytecode": "0x608060405234801561001057600080fd5b50611795806100206000396000f3fe60806040523480156200001157600080fd5b50600436106200005e5760003560e01c8063700eae7314620000635780637700cb8314620000855780638068aa6814620000bb578063a3cb679d14620000f1578063fc6a691b1462000113575b600080fd5b6200006d62000149565b6040516200007c9190620005a6565b60405180910390f35b620000a360048036038101906200009d91906200063b565b620001d9565b604051620000b29190620006be565b60405180910390f35b620000d96004803603810190620000d39190620006db565b6200036c565b604051620000e89190620006be565b60405180910390f35b620000fb620003bb565b6040516200010a919062000733565b60405180910390f35b6200013160048036038101906200012b919062000750565b620003c8565b604051620001409190620005a6565b60405180910390f35b60606001805480602002602001604051908101604052809291908181526020018280548015620001cf57602002820191906000526020600020905b8160009054906101000a900473ffffffffffffffffffffffffffffffffffffffff1673ffffffffffffffffffffffffffffffffffffffff168152602001906001019080831162000184575b5050505050905090565b60008085858585604051620001ee9062000496565b620001fd949392919062000782565b604051809103906000f0801580156200021a573d6000803e3d6000fd5b5090506001339080600181540180825580915050600190039060005260206000200160009091909190916101000a81548173ffffffffffffffffffffffffffffffffffffffff021916908373ffffffffffffffffffffffffffffffffffffffff1602179055506000803373ffffffffffffffffffffffffffffffffffffffff1673ffffffffffffffffffffffffffffffffffffffff168152602001908152602001600020819080600181540180825580915050600190039060005260206000200160009091909190916101000a81548173ffffffffffffffffffffffffffffffffffffffff021916908373ffffffffffffffffffffffffffffffffffffffff1602179055507f9726291d5c71d688e1f9eeefc86207b2fe84f09e6362dd075e12a7aba0834e31338787878760405162000358959493929190620007cf565b60405180910390a180915050949350505050565b600060205281600052604060002081815481106200038957600080fd5b906000526020600020016000915091509054906101000a900473ffffffffffffffffffffffffffffffffffffffff1681565b6000600180549050905090565b60606000808373ffffffffffffffffffffffffffffffffffffffff1673ffffffffffffffffffffffffffffffffffffffff1681526020019081526020016000208054806020026020016040519081016040528092919081815260200182805480156200048a57602002820191906000526020600020905b8160009054906101000a900473ffffffffffffffffffffffffffffffffffffffff1673ffffffffffffffffffffffffffffffffffffffff16815260200190600101908083116200043f575b50505050509050919050565b610f33806200082d83390190565b600081519050919050565b600082825260208201905092915050565b6000819050602082019050919050565b600073ffffffffffffffffffffffffffffffffffffffff82169050919050565b6000620004fd82620004d0565b9050919050565b6200050f81620004f0565b82525050565b600062000523838362000504565b60208301905092915050565b6000602082019050919050565b60006200054982620004a4565b620005558185620004af565b93506200056283620004c0565b8060005b83811015620005995781516200057d888262000515565b97506200058a836200052f565b92505060018101905062000566565b5085935050505092915050565b60006020820190508181036000830152620005c281846200053c565b905092915050565b600080fd5b620005da81620004f0565b8114620005e657600080fd5b50565b600081359050620005fa81620005cf565b92915050565b6000819050919050565b620006158162000600565b81146200062157600080fd5b50565b60008135905062000635816200060a565b92915050565b60008060008060808587031215620006585762000657620005ca565b5b60006200066887828801620005e9565b94505060206200067b87828801620005e9565b93505060406200068e87828801620005e9565b9250506060620006a18782880162000624565b91505092959194509250565b620006b881620004f0565b82525050565b6000602082019050620006d56000830184620006ad565b92915050565b60008060408385031215620006f557620006f4620005ca565b5b60006200070585828601620005e9565b9250506020620007188582860162000624565b9150509250929050565b6200072d8162000600565b82525050565b60006020820190506200074a600083018462000722565b92915050565b600060208284031215620007695762000768620005ca565b5b60006200077984828501620005e9565b91505092915050565b6000608082019050620007996000830187620006ad565b620007a86020830186620006ad565b620007b76040830185620006ad565b620007c6606083018462000722565b95945050505050565b600060a082019050620007e66000830188620006ad565b620007f56020830187620006ad565b620008046040830186620006ad565b620008136060830185620006ad565b62000822608083018462000722565b969550505050505056fe608060405260006003556000600460146101000a81548160ff021916908360038111156200003257620000316200017e565b5b02179055503480156200004457600080fd5b5060405162000f3338038062000f3383398181016040528101906200006a919062000252565b83600160006101000a81548173ffffffffffffffffffffffffffffffffffffffff021916908373ffffffffffffffffffffffffffffffffffffffff16021790555082600260006101000a81548173ffffffffffffffffffffffffffffffffffffffff021916908373ffffffffffffffffffffffffffffffffffffffff16021790555080600581905550336000806101000a81548173ffffffffffffffffffffffffffffffffffffffff021916908373ffffffffffffffffffffffffffffffffffffffff16021790555081600460006101000a81548173ffffffffffffffffffffffffffffffffffffffff021916908373ffffffffffffffffffffffffffffffffffffffff16021790555050505050620002c4565b7f4e487b7100000000000000000000000000000000000000000000000000000000600052602160045260246000fd5b600080fd5b600073ffffffffffffffffffffffffffffffffffffffff82169050919050565b6000620001df82620001b2565b9050919050565b620001f181620001d2565b8114620001fd57600080fd5b50565b6000815190506200021181620001e6565b92915050565b6000819050919050565b6200022c8162000217565b81146200023857600080fd5b50565b6000815190506200024c8162000221565b92915050565b600080600080608085870312156200026f576200026e620001ad565b5b60006200027f8782880162000200565b9450506020620002928782880162000200565b9350506040620002a58782880162000200565b9250506060620002b8878288016200023b565b91505092959194509250565b610c5f80620002d46000396000f3fe6080604052600436106100c25760003560e01c80634e69d5601161007f57806395623641116100595780639562364114610227578063b07a275414610252578063fad567791461027d578063fda51b17146102a8576100c2565b80634e69d560146101a657806351696127146101d1578063718c7d44146101fc576100c2565b80630ca5ba05146100c75780631755ff21146100f0578063262007c01461011b5780633a4b66f1146101465780633ccfd60b146101715780634d2124d41461017b575b600080fd5b3480156100d357600080fd5b506100ee60048036038101906100e99190610829565b6102d3565b005b3480156100fc57600080fd5b5061010561045b565b6040516101129190610897565b60405180910390f35b34801561012757600080fd5b50610130610481565b60405161013d9190610897565b60405180910390f35b34801561015257600080fd5b5061015b6104aa565b60405161016891906108c1565b60405180910390f35b6101796104b0565b005b34801561018757600080fd5b5061019061067e565b60405161019d91906108c1565b60405180910390f35b3480156101b257600080fd5b506101bb610688565b6040516101c891906108c1565b60405180910390f35b3480156101dd57600080fd5b506101e66106b1565b6040516101f39190610897565b60405180910390f35b34801561020857600080fd5b506102116106db565b60405161021e9190610897565b60405180910390f35b34801561023357600080fd5b5061023c6106ff565b6040516102499190610897565b60405180910390f35b34801561025e57600080fd5b50610267610725565b6040516102749190610897565b60405180910390f35b34801561028957600080fd5b5061029261074f565b60405161029f9190610897565b60405180910390f35b3480156102b457600080fd5b506102bd610775565b6040516102ca9190610897565b60405180910390f35b6000600160009054906101000a900473ffffffffffffffffffffffffffffffffffffffff1690508073ffffffffffffffffffffffffffffffffffffffff1663179f907d6040518163ffffffff1660e01b81526004016020604051808303816000875af1158015610347573d6000803e3d6000fd5b505050506040513d601f19601f8201168201806040525081019061036b9190610908565b73ffffffffffffffffffffffffffffffffffffffff163273ffffffffffffffffffffffffffffffffffffffff16146103d8576040517f08c379a00000000000000000000000000000000000000000000000000000000081526004016103cf906109b8565b60405180910390fd5b60006003541461041d576040517f08c379a000000000000000000000000000000000000000000000000000000000815260040161041490610a4a565b60405180910390fd5b6104268261079f565b600460146101000a81548160ff0219169083600381111561044a57610449610a6a565b5b021790555060016003819055505050565b600460009054906101000a900473ffffffffffffffffffffffffffffffffffffffff1681565b60008060009054906101000a900473ffffffffffffffffffffffffffffffffffffffff16905090565b60055481565b60008054906101000a900473ffffffffffffffffffffffffffffffffffffffff1673ffffffffffffffffffffffffffffffffffffffff163273ffffffffffffffffffffffffffffffffffffffff161461053e576040517f08c379a000000000000000000000000000000000000000000000000000000000815260040161053590610b0b565b60405180910390fd5b6002600381111561055257610551610a6a565b5b600460149054906101000a900460ff16600381111561057457610573610a6a565b5b14806105b357506001600381111561058f5761058e610a6a565b5b600460149054906101000a900460ff1660038111156105b1576105b0610a6a565b5b145b6105f2576040517f08c379a00000000000000000000000000000000000000000000000000000000081526004016105e990610b9d565b60405180910390fd5b60004711610635576040517f08c379a000000000000000000000000000000000000000000000000000000000815260040161062c90610c09565b60405180910390fd5b3373ffffffffffffffffffffffffffffffffffffffff166108fc479081150290604051600060405180830381858888f1935050505015801561067b573d6000803e3d6000fd5b50565b6000600554905090565b6000600460149054906101000a900460ff1660038111156106ac576106ab610a6a565b5b905090565b6000600160009054906101000a900473ffffffffffffffffffffffffffffffffffffffff16905090565b60008054906101000a900473ffffffffffffffffffffffffffffffffffffffff1681565b600260009054906101000a900473ffffffffffffffffffffffffffffffffffffffff1681565b6000600460009054906101000a900473ffffffffffffffffffffffffffffffffffffffff16905090565b600160009054906101000a900473ffffffffffffffffffffffffffffffffffffffff1681565b6000600260009054906101000a900473ffffffffffffffffffffffffffffffffffffffff16905090565b60008082036107b157600090506107e9565b600182036107c257600190506107e9565b600282036107d357600290506107e9565b600382036107e457600390506107e9565b600090505b919050565b600080fd5b6000819050919050565b610806816107f3565b811461081157600080fd5b50565b600081359050610823816107fd565b92915050565b60006020828403121561083f5761083e6107ee565b5b600061084d84828501610814565b91505092915050565b600073ffffffffffffffffffffffffffffffffffffffff82169050919050565b600061088182610856565b9050919050565b61089181610876565b82525050565b60006020820190506108ac6000830184610888565b92915050565b6108bb816107f3565b82525050565b60006020820190506108d660008301846108b2565b92915050565b6108e581610876565b81146108f057600080fd5b50565b600081519050610902816108dc565b92915050565b60006020828403121561091e5761091d6107ee565b5b600061092c848285016108f3565b91505092915050565b600082825260208201905092915050565b7f4f6e6c7920626574206f776e6572732063616e206170706c792074686973206660008201527f756e6374696f6e00000000000000000000000000000000000000000000000000602082015250565b60006109a2602783610935565b91506109ad82610946565b604082019050919050565b600060208201905081810360008301526109d181610995565b9050919050565b7f596f752063616e206e6f74206d6f646966792062657420737461747573206d6f60008201527f7265207468616e206f6e63650000000000000000000000000000000000000000602082015250565b6000610a34602c83610935565b9150610a3f826109d8565b604082019050919050565b60006020820190508181036000830152610a6381610a27565b9050919050565b7f4e487b7100000000000000000000000000000000000000000000000000000000600052602160045260246000fd5b7f4f6e6c79206576656e74206265747465722063616e2063616c6c20746869732060008201527f66756e6374696f6e000000000000000000000000000000000000000000000000602082015250565b6000610af5602883610935565b9150610b0082610a99565b604082019050919050565b60006020820190508181036000830152610b2481610ae8565b9050919050565b7f426574206d75737420626520776f6e206f722063616e63656c6c656420746f2060008201527f7769746864726177000000000000000000000000000000000000000000000000602082015250565b6000610b87602883610935565b9150610b9282610b2b565b604082019050919050565b60006020820190508181036000830152610bb681610b7a565b9050919050565b7f546869732062657420686173206e6f2066756e64730000000000000000000000600082015250565b6000610bf3601583610935565b9150610bfe82610bbd565b602082019050919050565b60006020820190508181036000830152610c2281610be6565b905091905056fea2646970667358221220839fa22c4e312308c1a422011eaf8aa3aa73cecd0a79e8400ec77787d34cbeee64736f6c634300080d0033a2646970667358221220a76713ca15669f3421ffe974fa840b64e782275c4e58efb5e66a4802ec27200d64736f6c634300080d0033",
  "immutableReferences": {},
  "source": "// SPDX-License-Identifier: MIT\npragma solidity ^0.8.4;\n\nimport \"./Bets.sol\";\ncontract BetsFactory {\n    mapping (address => address[]) public userBets;\n\n    address[] private _bets;\n\n    event BetCreated(address better, address eventAddress, address marketAddress, address poolAddress, uint stake);\n\n    function createBet(address _eventAddress, address _marketAddress, address _poolAddress, uint _stake) external returns(address) {\n        Bets bet =new Bets(_eventAddress, _marketAddress,_poolAddress, _stake);\n        _bets.push(msg.sender);\n        userBets[msg.sender].push(address(bet));\n        emit BetCreated(msg.sender, _eventAddress, _marketAddress, _poolAddress, _stake);\n        return address(bet);\n    }\n\n\n    function getAllBetsByAddress(address _address) external view returns (address[] memory){\n        return userBets[_address];\n    } \n\n\n    function getTotalBets() external view returns(uint){\n        return _bets.length;\n    }\n\n      function getAllBets() external view returns (address[] memory){\n        return _bets;\n    }\n\n}",
  "sourcePath": "/Users/wizardom/projects/crypto/web3bets_smartcontract/contracts/BetsFactory.sol",
  "compiler": {
    "name": "solc",
    "version": "0.8.13+commit.abaa5c0e.Emscripten.clang"
  },
  "schemaVersion": "3.4.7",
  "updatedAt": "2022-07-25T11:22:14.915Z",
  "networkType": "ethereum",
  "devdoc": {
    "kind": "dev",
    "methods": {},
    "version": 1
  },
  "userdoc": {
    "kind": "user",
    "methods": {},
    "version": 1
  }
}