{
  "contractName": "EventFactory",
  "abi": [
    {
      "inputs": [
        {
          "internalType": "address",
          "name": "_marketFactoryAddress",
          "type": "address"
        }
      ],
      "stateMutability": "nonpayable",
      "type": "constructor"
    },
    {
      "anonymous": false,
      "inputs": [
        {
          "indexed": false,
          "internalType": "address",
          "name": "eventOwner",
          "type": "address"
        },
        {
          "indexed": false,
          "internalType": "string",
          "name": "name",
          "type": "string"
        },
        {
          "indexed": false,
          "internalType": "address",
          "name": "eventAddress",
          "type": "address"
        }
      ],
      "name": "EventCreated",
      "type": "event"
    },
    {
      "inputs": [
        {
          "internalType": "uint256",
          "name": "",
          "type": "uint256"
        }
      ],
      "name": "events",
      "outputs": [
        {
          "internalType": "address",
          "name": "",
          "type": "address"
        }
      ],
      "stateMutability": "view",
      "type": "function",
      "constant": true
    },
    {
      "inputs": [],
      "name": "marketFactoryAddress",
      "outputs": [
        {
          "internalType": "address",
          "name": "",
          "type": "address"
        }
      ],
      "stateMutability": "view",
      "type": "function",
      "constant": true
    },
    {
      "inputs": [
        {
          "internalType": "address",
          "name": "",
          "type": "address"
        },
        {
          "internalType": "uint256",
          "name": "",
          "type": "uint256"
        }
      ],
      "name": "userEvents",
      "outputs": [
        {
          "internalType": "address",
          "name": "",
          "type": "address"
        }
      ],
      "stateMutability": "view",
      "type": "function",
      "constant": true
    },
    {
      "inputs": [
        {
          "internalType": "string",
          "name": "_name",
          "type": "string"
        },
        {
          "internalType": "uint256",
          "name": "_minimumStake",
          "type": "uint256"
        }
      ],
      "name": "createEvent",
      "outputs": [
        {
          "internalType": "address",
          "name": "",
          "type": "address"
        }
      ],
      "stateMutability": "nonpayable",
      "type": "function"
    },
    {
      "inputs": [
        {
          "internalType": "address",
          "name": "userAddress",
          "type": "address"
        }
      ],
      "name": "getEventsByAddress",
      "outputs": [
        {
          "internalType": "address[]",
          "name": "",
          "type": "address[]"
        }
      ],
      "stateMutability": "view",
      "type": "function",
      "constant": true
    },
    {
      "inputs": [],
      "name": "getAllEvents",
      "outputs": [
        {
          "internalType": "address[]",
          "name": "",
          "type": "address[]"
        }
      ],
      "stateMutability": "view",
      "type": "function",
      "constant": true
    }
  ],
  "bytecode": "0x608060405234801561001057600080fd5b50604051612e29380380612e29833981810160405281019061003291906100dc565b80600260006101000a81548173ffffffffffffffffffffffffffffffffffffffff021916908373ffffffffffffffffffffffffffffffffffffffff16021790555050610109565b600080fd5b600073ffffffffffffffffffffffffffffffffffffffff82169050919050565b60006100a98261007e565b9050919050565b6100b98161009e565b81146100c457600080fd5b50565b6000815190506100d6816100b0565b92915050565b6000602082840312156100f2576100f1610079565b5b6000610100848285016100c7565b91505092915050565b612d11806101186000396000f3fe60806040523480156200001157600080fd5b50600436106200006a5760003560e01c80630b791430146200006f578063948e7f6114620000a55780639a4d438514620000c7578063bdfc989314620000fd578063c27a500d1462000133578063f2ba8b271462000155575b600080fd5b6200008d6004803603810190620000879190620005a8565b6200018b565b6040516200009c91906200061f565b60405180910390f35b620000af620001cb565b604051620000be91906200061f565b60405180910390f35b620000e56004803603810190620000df91906200079e565b620001f1565b604051620000f491906200061f565b60405180910390f35b6200011b600480360381019062000115919062000835565b6200039e565b6040516200012a91906200061f565b60405180910390f35b6200013d620003ed565b6040516200014c91906200094a565b60405180910390f35b6200017360048036038101906200016d91906200096e565b6200047d565b6040516200018291906200094a565b60405180910390f35b600181815481106200019c57600080fd5b906000526020600020016000915054906101000a900473ffffffffffffffffffffffffffffffffffffffff1681565b600260009054906101000a900473ffffffffffffffffffffffffffffffffffffffff1681565b60008083600260009054906101000a900473ffffffffffffffffffffffffffffffffffffffff168460405162000227906200054b565b620002359392919062000a44565b604051809103906000f08015801562000252573d6000803e3d6000fd5b5090506000803373ffffffffffffffffffffffffffffffffffffffff1673ffffffffffffffffffffffffffffffffffffffff168152602001908152602001600020819080600181540180825580915050600190039060005260206000200160009091909190916101000a81548173ffffffffffffffffffffffffffffffffffffffff021916908373ffffffffffffffffffffffffffffffffffffffff1602179055506001819080600181540180825580915050600190039060005260206000200160009091909190916101000a81548173ffffffffffffffffffffffffffffffffffffffff021916908373ffffffffffffffffffffffffffffffffffffffff1602179055507f712a0fd8a85203aa2a7d53a268ac4914a8878d30191e800597dab93cd2b9200c3385836040516200038c9392919062000a88565b60405180910390a18091505092915050565b60006020528160005260406000208181548110620003bb57600080fd5b906000526020600020016000915091509054906101000a900473ffffffffffffffffffffffffffffffffffffffff1681565b606060018054806020026020016040519081016040528092919081815260200182805480156200047357602002820191906000526020600020905b8160009054906101000a900473ffffffffffffffffffffffffffffffffffffffff1673ffffffffffffffffffffffffffffffffffffffff168152602001906001019080831162000428575b5050505050905090565b60606000808373ffffffffffffffffffffffffffffffffffffffff1673ffffffffffffffffffffffffffffffffffffffff1681526020019081526020016000208054806020026020016040519081016040528092919081815260200182805480156200053f57602002820191906000526020600020905b8160009054906101000a900473ffffffffffffffffffffffffffffffffffffffff1673ffffffffffffffffffffffffffffffffffffffff1681526020019060010190808311620004f4575b50505050509050919050565b61220f8062000acd83390190565b6000604051905090565b600080fd5b600080fd5b6000819050919050565b62000582816200056d565b81146200058e57600080fd5b50565b600081359050620005a28162000577565b92915050565b600060208284031215620005c157620005c062000563565b5b6000620005d18482850162000591565b91505092915050565b600073ffffffffffffffffffffffffffffffffffffffff82169050919050565b60006200060782620005da565b9050919050565b6200061981620005fa565b82525050565b60006020820190506200063660008301846200060e565b92915050565b600080fd5b600080fd5b6000601f19601f8301169050919050565b7f4e487b7100000000000000000000000000000000000000000000000000000000600052604160045260246000fd5b620006918262000646565b810181811067ffffffffffffffff82111715620006b357620006b262000657565b5b80604052505050565b6000620006c862000559565b9050620006d6828262000686565b919050565b600067ffffffffffffffff821115620006f957620006f862000657565b5b620007048262000646565b9050602081019050919050565b82818337600083830152505050565b6000620007376200073184620006db565b620006bc565b90508281526020810184848401111562000756576200075562000641565b5b6200076384828562000711565b509392505050565b600082601f8301126200078357620007826200063c565b5b81356200079584826020860162000720565b91505092915050565b60008060408385031215620007b857620007b762000563565b5b600083013567ffffffffffffffff811115620007d957620007d862000568565b5b620007e7858286016200076b565b9250506020620007fa8582860162000591565b9150509250929050565b6200080f81620005fa565b81146200081b57600080fd5b50565b6000813590506200082f8162000804565b92915050565b600080604083850312156200084f576200084e62000563565b5b60006200085f858286016200081e565b9250506020620008728582860162000591565b9150509250929050565b600081519050919050565b600082825260208201905092915050565b6000819050602082019050919050565b620008b381620005fa565b82525050565b6000620008c78383620008a8565b60208301905092915050565b6000602082019050919050565b6000620008ed826200087c565b620008f9818562000887565b9350620009068362000898565b8060005b838110156200093d578151620009218882620008b9565b97506200092e83620008d3565b9250506001810190506200090a565b5085935050505092915050565b60006020820190508181036000830152620009668184620008e0565b905092915050565b60006020828403121562000987576200098662000563565b5b600062000997848285016200081e565b91505092915050565b600081519050919050565b600082825260208201905092915050565b60005b83811015620009dc578082015181840152602081019050620009bf565b83811115620009ec576000848401525b50505050565b6000620009ff82620009a0565b62000a0b8185620009ab565b935062000a1d818560208601620009bc565b62000a288162000646565b840191505092915050565b62000a3e816200056d565b82525050565b6000606082019050818103600083015262000a608186620009f2565b905062000a7160208301856200060e565b62000a80604083018462000a33565b949350505050565b600060608201905062000a9f60008301866200060e565b818103602083015262000ab38185620009f2565b905062000ac460408301846200060e565b94935050505056fe60806040526000600760006101000a81548160ff021916908360038111156200002d576200002c620001bf565b5b02179055503480156200003f57600080fd5b506040516200220f3803806200220f83398181016040528101906200006591906200042b565b82600690805190602001906200007d9291906200010f565b5081600160006101000a81548173ffffffffffffffffffffffffffffffffffffffff021916908373ffffffffffffffffffffffffffffffffffffffff160217905550326000806101000a81548173ffffffffffffffffffffffffffffffffffffffff021916908373ffffffffffffffffffffffffffffffffffffffff160217905550806002819055505050506200050a565b8280546200011d90620004d5565b90600052602060002090601f0160209004810192826200014157600085556200018d565b82601f106200015c57805160ff19168380011785556200018d565b828001600101855582156200018d579182015b828111156200018c5782518255916020019190600101906200016f565b5b5090506200019c9190620001a0565b5090565b5b80821115620001bb576000816000905550600101620001a1565b5090565b7f4e487b7100000000000000000000000000000000000000000000000000000000600052602160045260246000fd5b6000604051905090565b600080fd5b600080fd5b600080fd5b600080fd5b6000601f19601f8301169050919050565b7f4e487b7100000000000000000000000000000000000000000000000000000000600052604160045260246000fd5b62000257826200020c565b810181811067ffffffffffffffff821117156200027957620002786200021d565b5b80604052505050565b60006200028e620001ee565b90506200029c82826200024c565b919050565b600067ffffffffffffffff821115620002bf57620002be6200021d565b5b620002ca826200020c565b9050602081019050919050565b60005b83811015620002f7578082015181840152602081019050620002da565b8381111562000307576000848401525b50505050565b6000620003246200031e84620002a1565b62000282565b90508281526020810184848401111562000343576200034262000207565b5b62000350848285620002d7565b509392505050565b600082601f83011262000370576200036f62000202565b5b8151620003828482602086016200030d565b91505092915050565b600073ffffffffffffffffffffffffffffffffffffffff82169050919050565b6000620003b8826200038b565b9050919050565b620003ca81620003ab565b8114620003d657600080fd5b50565b600081519050620003ea81620003bf565b92915050565b6000819050919050565b6200040581620003f0565b81146200041157600080fd5b50565b6000815190506200042581620003fa565b92915050565b600080600060608486031215620004475762000446620001f8565b5b600084015167ffffffffffffffff811115620004685762000467620001fd565b5b620004768682870162000358565b93505060206200048986828701620003d9565b92505060406200049c8682870162000414565b9150509250925092565b7f4e487b7100000000000000000000000000000000000000000000000000000000600052602260045260246000fd5b60006002820490506001821680620004ee57607f821691505b602082108103620005045762000503620004a6565b5b50919050565b611cf5806200051a6000396000f3fe608060405234801561001057600080fd5b50600436106101165760003560e01c80638c6bc08b116100a2578063d9bbd27811610071578063d9bbd278146102c1578063e2fd38e9146102df578063ec2c9016146102e9578063ec5ffac214610307578063fb6c95371461032557610116565b80638c6bc08b14610225578063948e7f6114610255578063b1283e7714610273578063b75b25ec146102a357610116565b806320214134116100e957806320214134146101935780633c48794f146101b15780637bc74225146101e157806386ec6177146101ff578063883c84c11461020957610116565b806306fdde031461011b578063179f907d1461013957806317d7de7c14610157578063200d2ed214610175575b600080fd5b61012361032f565b6040516101309190611120565b60405180910390f35b6101416103bd565b60405161014e9190611183565b60405180910390f35b61015f6103e6565b60405161016c9190611120565b60405180910390f35b61017d610478565b60405161018a9190611215565b60405180910390f35b61019b61048b565b6040516101a89190611183565b60405180910390f35b6101cb60048036038101906101c69190611270565b6104af565b6040516101d891906112e5565b60405180910390f35b6101e96104cf565b6040516101f69190611319565b60405180910390f35b610207610623565b005b610223600480360381019061021e9190611495565b610710565b005b61023f600480360381019061023a9190611270565b610973565b60405161024c9190611120565b60405180910390f35b61025d610a13565b60405161026a9190611183565b60405180910390f35b61028d600480360381019061028891906114f1565b610a39565b60405161029a9190611183565b60405180910390f35b6102ab610a78565b6040516102b89190611319565b60405180910390f35b6102c9610aa1565b6040516102d69190611319565b60405180910390f35b6102e7610aab565b005b6102f1610cb4565b6040516102fe91906115dc565b60405180910390f35b61030f610d42565b60405161031c9190611319565b60405180910390f35b61032d610d48565b005b6006805461033c9061162d565b80601f01602080910402602001604051908101604052809291908181526020018280546103689061162d565b80156103b55780601f1061038a576101008083540402835291602001916103b5565b820191906000526020600020905b81548152906001019060200180831161039857829003601f168201915b505050505081565b60008060009054906101000a900473ffffffffffffffffffffffffffffffffffffffff16905090565b6060600680546103f59061162d565b80601f01602080910402602001604051908101604052809291908181526020018280546104219061162d565b801561046e5780601f106104435761010080835404028352916020019161046e565b820191906000526020600020905b81548152906001019060200180831161045157829003601f168201915b5050505050905090565b600760009054906101000a900460ff1681565b60008054906101000a900473ffffffffffffffffffffffffffffffffffffffff1681565b60046020528060005260406000206000915054906101000a900460ff1681565b6000806000600580548060200260200160405190810160405280929190818152602001828054801561055657602002820191906000526020600020905b8160009054906101000a900473ffffffffffffffffffffffffffffffffffffffff1673ffffffffffffffffffffffffffffffffffffffff168152602001906001019080831161050c575b5050505050905060005b815181101561061a57600082828151811061057e5761057d61165e565b5b602002602001015190508073ffffffffffffffffffffffffffffffffffffffff16637bc742256040518163ffffffff1660e01b81526004016020604051808303816000875af11580156105d5573d6000803e3d6000fd5b505050506040513d601f19601f820116820180604052508101906105f991906116a2565b8461060491906116fe565b935050808061061290611754565b915050610560565b50819250505090565b6003808111156106365761063561119e565b5b600760009054906101000a900460ff1660038111156106585761065761119e565b5b03610698576040517f08c379a000000000000000000000000000000000000000000000000000000000815260040161068f906117e8565b60405180910390fd5b600260038111156106ac576106ab61119e565b5b600760009054906101000a900460ff1660038111156106ce576106cd61119e565b5b0361070e576040517f08c379a000000000000000000000000000000000000000000000000000000000815260040161070590611854565b60405180910390fd5b565b60008054906101000a900473ffffffffffffffffffffffffffffffffffffffff1673ffffffffffffffffffffffffffffffffffffffff163373ffffffffffffffffffffffffffffffffffffffff161461079e576040517f08c379a0000000000000000000000000000000000000000000000000000000008152600401610795906118e6565b60405180910390fd5b6000600160009054906101000a900473ffffffffffffffffffffffffffffffffffffffff16905060008173ffffffffffffffffffffffffffffffffffffffff1663d3caedfb8530866040518463ffffffff1660e01b815260040161080493929190611906565b6020604051808303816000875af1158015610823573d6000803e3d6000fd5b505050506040513d601f19601f820116820180604052508101906108479190611959565b90506005819080600181540180825580915050600190039060005260206000200160009091909190916101000a81548173ffffffffffffffffffffffffffffffffffffffff021916908373ffffffffffffffffffffffffffffffffffffffff1602179055506006600360008373ffffffffffffffffffffffffffffffffffffffff1673ffffffffffffffffffffffffffffffffffffffff1681526020019081526020016000209080546108f99061162d565b610904929190610fdd565b506000600460008373ffffffffffffffffffffffffffffffffffffffff1673ffffffffffffffffffffffffffffffffffffffff16815260200190815260200160002060006101000a81548160ff021916908360018111156109685761096761119e565b5b021790555050505050565b600360205280600052604060002060009150905080546109929061162d565b80601f01602080910402602001604051908101604052809291908181526020018280546109be9061162d565b8015610a0b5780601f106109e057610100808354040283529160200191610a0b565b820191906000526020600020905b8154815290600101906020018083116109ee57829003601f168201915b505050505081565b600160009054906101000a900473ffffffffffffffffffffffffffffffffffffffff1681565b60058181548110610a4957600080fd5b906000526020600020016000915054906101000a900473ffffffffffffffffffffffffffffffffffffffff1681565b6000600760009054906101000a900460ff166003811115610a9c57610a9b61119e565b5b905090565b6000600254905090565b600380811115610abe57610abd61119e565b5b600760009054906101000a900460ff166003811115610ae057610adf61119e565b5b03610b20576040517f08c379a0000000000000000000000000000000000000000000000000000000008152600401610b17906119f8565b60405180910390fd5b60026003811115610b3457610b3361119e565b5b600760009054906101000a900460ff166003811115610b5657610b5561119e565b5b03610b96576040517f08c379a0000000000000000000000000000000000000000000000000000000008152600401610b8d90611a64565b60405180910390fd5b60016003811115610baa57610ba961119e565b5b600760009054906101000a900460ff166003811115610bcc57610bcb61119e565b5b03610c0c576040517f08c379a0000000000000000000000000000000000000000000000000000000008152600401610c0390611ad0565b60405180910390fd5b60006003811115610c2057610c1f61119e565b5b600760009054906101000a900460ff166003811115610c4257610c4161119e565b5b03610c77576001600760006101000a81548160ff02191690836003811115610c6d57610c6c61119e565b5b0217905550610cb2565b6040517f08c379a0000000000000000000000000000000000000000000000000000000008152600401610ca990611b3c565b60405180910390fd5b565b60606005805480602002602001604051908101604052809291908181526020018280548015610d3857602002820191906000526020600020905b8160009054906101000a900473ffffffffffffffffffffffffffffffffffffffff1673ffffffffffffffffffffffffffffffffffffffff1681526020019060010190808311610cee575b5050505050905090565b60025481565b60008054906101000a900473ffffffffffffffffffffffffffffffffffffffff1673ffffffffffffffffffffffffffffffffffffffff163373ffffffffffffffffffffffffffffffffffffffff1614610dd6576040517f08c379a0000000000000000000000000000000000000000000000000000000008152600401610dcd906118e6565b60405180910390fd5b600380811115610de957610de861119e565b5b600760009054906101000a900460ff166003811115610e0b57610e0a61119e565b5b03610e4b576040517f08c379a0000000000000000000000000000000000000000000000000000000008152600401610e4290611854565b60405180910390fd5b60026003811115610e5f57610e5e61119e565b5b600760009054906101000a900460ff166003811115610e8157610e8061119e565b5b03610ec1576040517f08c379a0000000000000000000000000000000000000000000000000000000008152600401610eb890611ba8565b60405180910390fd5b600080600580549050811015610f9957600060058281548110610ee757610ee661165e565b5b9060005260206000200160009054906101000a900473ffffffffffffffffffffffffffffffffffffffff1690508073ffffffffffffffffffffffffffffffffffffffff166309dd8f876040518163ffffffff1660e01b81526004016020604051808303816000875af1158015610f61573d6000803e3d6000fd5b505050506040513d601f19601f82011682018060405250810190610f859190611c00565b610f93576000925050610f99565b60019250505b5080610fda576040517f08c379a0000000000000000000000000000000000000000000000000000000008152600401610fd190611c9f565b60405180910390fd5b50565b828054610fe99061162d565b90600052602060002090601f01602090048101928261100b5760008555611059565b82601f1061101c5780548555611059565b8280016001018555821561105957600052602060002091601f016020900482015b8281111561105857825482559160010191906001019061103d565b5b509050611066919061106a565b5090565b5b8082111561108357600081600090555060010161106b565b5090565b600081519050919050565b600082825260208201905092915050565b60005b838110156110c15780820151818401526020810190506110a6565b838111156110d0576000848401525b50505050565b6000601f19601f8301169050919050565b60006110f282611087565b6110fc8185611092565b935061110c8185602086016110a3565b611115816110d6565b840191505092915050565b6000602082019050818103600083015261113a81846110e7565b905092915050565b600073ffffffffffffffffffffffffffffffffffffffff82169050919050565b600061116d82611142565b9050919050565b61117d81611162565b82525050565b60006020820190506111986000830184611174565b92915050565b7f4e487b7100000000000000000000000000000000000000000000000000000000600052602160045260246000fd5b600481106111de576111dd61119e565b5b50565b60008190506111ef826111cd565b919050565b60006111ff826111e1565b9050919050565b61120f816111f4565b82525050565b600060208201905061122a6000830184611206565b92915050565b6000604051905090565b600080fd5b600080fd5b61124d81611162565b811461125857600080fd5b50565b60008135905061126a81611244565b92915050565b6000602082840312156112865761128561123a565b5b60006112948482850161125b565b91505092915050565b600281106112ae576112ad61119e565b5b50565b60008190506112bf8261129d565b919050565b60006112cf826112b1565b9050919050565b6112df816112c4565b82525050565b60006020820190506112fa60008301846112d6565b92915050565b6000819050919050565b61131381611300565b82525050565b600060208201905061132e600083018461130a565b92915050565b600080fd5b600080fd5b7f4e487b7100000000000000000000000000000000000000000000000000000000600052604160045260246000fd5b611376826110d6565b810181811067ffffffffffffffff821117156113955761139461133e565b5b80604052505050565b60006113a8611230565b90506113b4828261136d565b919050565b600067ffffffffffffffff8211156113d4576113d361133e565b5b6113dd826110d6565b9050602081019050919050565b82818337600083830152505050565b600061140c611407846113b9565b61139e565b90508281526020810184848401111561142857611427611339565b5b6114338482856113ea565b509392505050565b600082601f8301126114505761144f611334565b5b81356114608482602086016113f9565b91505092915050565b61147281611300565b811461147d57600080fd5b50565b60008135905061148f81611469565b92915050565b600080604083850312156114ac576114ab61123a565b5b600083013567ffffffffffffffff8111156114ca576114c961123f565b5b6114d68582860161143b565b92505060206114e785828601611480565b9150509250929050565b6000602082840312156115075761150661123a565b5b600061151584828501611480565b91505092915050565b600081519050919050565b600082825260208201905092915050565b6000819050602082019050919050565b61155381611162565b82525050565b6000611565838361154a565b60208301905092915050565b6000602082019050919050565b60006115898261151e565b6115938185611529565b935061159e8361153a565b8060005b838110156115cf5781516115b68882611559565b97506115c183611571565b9250506001810190506115a2565b5085935050505092915050565b600060208201905081810360008301526115f6818461157e565b905092915050565b7f4e487b7100000000000000000000000000000000000000000000000000000000600052602260045260246000fd5b6000600282049050600182168061164557607f821691505b602082108103611658576116576115fe565b5b50919050565b7f4e487b7100000000000000000000000000000000000000000000000000000000600052603260045260246000fd5b60008151905061169c81611469565b92915050565b6000602082840312156116b8576116b761123a565b5b60006116c68482850161168d565b91505092915050565b7f4e487b7100000000000000000000000000000000000000000000000000000000600052601160045260246000fd5b600061170982611300565b915061171483611300565b9250827fffffffffffffffffffffffffffffffffffffffffffffffffffffffffffffffff03821115611749576117486116cf565b5b828201905092915050565b600061175f82611300565b91507fffffffffffffffffffffffffffffffffffffffffffffffffffffffffffffffff8203611791576117906116cf565b5b600182019050919050565b7f43616e63656c6564206576656e742063616e206e6f7420626520656e64656400600082015250565b60006117d2601f83611092565b91506117dd8261179c565b602082019050919050565b60006020820190508181036000830152611801816117c5565b9050919050565b7f4576656e7420616c72656164792063616e63656c656400000000000000000000600082015250565b600061183e601683611092565b915061184982611808565b602082019050919050565b6000602082019050818103600083015261186d81611831565b9050919050565b7f4576656e74206f7065726174696f6e73206f6e6c79206170706c696361626c6560008201527f20746f206f776e65720000000000000000000000000000000000000000000000602082015250565b60006118d0602983611092565b91506118db82611874565b604082019050919050565b600060208201905081810360008301526118ff816118c3565b9050919050565b6000606082019050818103600083015261192081866110e7565b905061192f6020830185611174565b61193c604083018461130a565b949350505050565b60008151905061195381611244565b92915050565b60006020828403121561196f5761196e61123a565b5b600061197d84828501611944565b91505092915050565b7f43616e63656c6564206576656e742063616e206e6f742062652073746172746560008201527f6400000000000000000000000000000000000000000000000000000000000000602082015250565b60006119e2602183611092565b91506119ed82611986565b604082019050919050565b60006020820190508181036000830152611a11816119d5565b9050919050565b7f456e646564206576656e742063616e206e6f7420626520737461727465640000600082015250565b6000611a4e601e83611092565b9150611a5982611a18565b602082019050919050565b60006020820190508181036000830152611a7d81611a41565b9050919050565b7f4576656e7420616c726561647920737461727465640000000000000000000000600082015250565b6000611aba601583611092565b9150611ac582611a84565b602082019050919050565b60006020820190508181036000830152611ae981611aad565b9050919050565b7f416e206572726f72206f63637572726564207374617274696e67206576656e74600082015250565b6000611b26602083611092565b9150611b3182611af0565b602082019050919050565b60006020820190508181036000830152611b5581611b19565b9050919050565b7f4576656e7420616c726561647920656e64656400000000000000000000000000600082015250565b6000611b92601383611092565b9150611b9d82611b5c565b602082019050919050565b60006020820190508181036000830152611bc181611b85565b9050919050565b60008115159050919050565b611bdd81611bc8565b8114611be857600080fd5b50565b600081519050611bfa81611bd4565b92915050565b600060208284031215611c1657611c1561123a565b5b6000611c2484828501611beb565b91505092915050565b7f596f75206d75737420736574746c6520616c6c206d61726b657473206265666f60008201527f72652063616e63656c696e67206576656e740000000000000000000000000000602082015250565b6000611c89603283611092565b9150611c9482611c2d565b604082019050919050565b60006020820190508181036000830152611cb881611c7c565b905091905056fea2646970667358221220128c25628f30091fba7928b3ea80c380e761ffe3e4b42f14e8c7c8ca5b5fc22064736f6c634300080d0033a2646970667358221220ca17291a93e1002c859fae1de32fe3c939c47db74f1b84453fbb42b246e1e5c764736f6c634300080d0033",
  "immutableReferences": {},
  "source": "// SPDX-License-Identifier: MIT\npragma solidity >0.4.23 <0.9.0;\nimport \"./Events.sol\";\n\n\ncontract EventFactory {\n    mapping (address => address[]) public userEvents;\n\n    event EventCreated(address eventOwner, string name, address eventAddress);\n\n    address[] public events;\n\n    address public marketFactoryAddress;\n\n    constructor(address _marketFactoryAddress){\n        marketFactoryAddress = _marketFactoryAddress;\n    }\n\n    function createEvent(\n        string memory _name,\n        uint _minimumStake\n    ) public returns(address) {\n        Events wEvent = new Events(_name, marketFactoryAddress, _minimumStake);\n        \n        userEvents[msg.sender].push(address(wEvent));\n        events.push(address(wEvent));\n        \n        emit EventCreated(msg.sender, _name, address(wEvent));\n        return address(wEvent);\n    }\n\n    function getEventsByAddress(address userAddress) public view returns(address[] memory){\n        return userEvents[userAddress];\n    }\n\n    function getAllEvents() public view returns(address[] memory){\n        return events;\n    }\n}",
  "sourcePath": "/Users/wizardom/projects/crypto/web3bets_smartcontract/contracts/EventFactory.sol",
  "compiler": {
    "name": "solc",
    "version": "0.8.13+commit.abaa5c0e.Emscripten.clang"
  },
  "schemaVersion": "3.4.7",
  "updatedAt": "2022-07-29T20:35:48.839Z",
  "networkType": "ethereum",
  "devdoc": {
    "kind": "dev",
    "methods": {},
    "version": 1
  },
  "userdoc": {
    "kind": "user",
    "methods": {},
    "version": 1
  }
}