{
  "contractName": "EventFactory",
  "abi": [
    {
      "inputs": [
        {
          "internalType": "address",
          "name": "_marketFactoryAddress",
          "type": "address"
        }
      ],
      "stateMutability": "nonpayable",
      "type": "constructor"
    },
    {
      "anonymous": false,
      "inputs": [
        {
          "indexed": false,
          "internalType": "address",
          "name": "eventOwner",
          "type": "address"
        },
        {
          "indexed": false,
          "internalType": "string",
          "name": "name",
          "type": "string"
        },
        {
          "indexed": false,
          "internalType": "address",
          "name": "eventAddress",
          "type": "address"
        }
      ],
      "name": "EventCreated",
      "type": "event"
    },
    {
      "inputs": [
        {
          "internalType": "uint256",
          "name": "",
          "type": "uint256"
        }
      ],
      "name": "events",
      "outputs": [
        {
          "internalType": "address",
          "name": "",
          "type": "address"
        }
      ],
      "stateMutability": "view",
      "type": "function",
      "constant": true
    },
    {
      "inputs": [],
      "name": "marketFactoryAddress",
      "outputs": [
        {
          "internalType": "address",
          "name": "",
          "type": "address"
        }
      ],
      "stateMutability": "view",
      "type": "function",
      "constant": true
    },
    {
      "inputs": [
        {
          "internalType": "address",
          "name": "",
          "type": "address"
        },
        {
          "internalType": "uint256",
          "name": "",
          "type": "uint256"
        }
      ],
      "name": "userEvents",
      "outputs": [
        {
          "internalType": "address",
          "name": "",
          "type": "address"
        }
      ],
      "stateMutability": "view",
      "type": "function",
      "constant": true
    },
    {
      "inputs": [
        {
          "internalType": "string",
          "name": "_name",
          "type": "string"
        },
        {
          "internalType": "uint256",
          "name": "_minimumStake",
          "type": "uint256"
        }
      ],
      "name": "createEvent",
      "outputs": [
        {
          "internalType": "address",
          "name": "",
          "type": "address"
        }
      ],
      "stateMutability": "nonpayable",
      "type": "function"
    },
    {
      "inputs": [
        {
          "internalType": "address",
          "name": "userAddress",
          "type": "address"
        }
      ],
      "name": "getEventsByAddress",
      "outputs": [
        {
          "internalType": "address[]",
          "name": "",
          "type": "address[]"
        }
      ],
      "stateMutability": "view",
      "type": "function",
      "constant": true
    },
    {
      "inputs": [],
      "name": "getAllEvents",
      "outputs": [
        {
          "internalType": "address[]",
          "name": "",
          "type": "address[]"
        }
      ],
      "stateMutability": "view",
      "type": "function",
      "constant": true
    }
  ],
  "bytecode": "0x608060405234801561001057600080fd5b50604051612552380380612552833981810160405281019061003291906100dc565b80600260006101000a81548173ffffffffffffffffffffffffffffffffffffffff021916908373ffffffffffffffffffffffffffffffffffffffff16021790555050610109565b600080fd5b600073ffffffffffffffffffffffffffffffffffffffff82169050919050565b60006100a98261007e565b9050919050565b6100b98161009e565b81146100c457600080fd5b50565b6000815190506100d6816100b0565b92915050565b6000602082840312156100f2576100f1610079565b5b6000610100848285016100c7565b91505092915050565b61243a806101186000396000f3fe60806040523480156200001157600080fd5b50600436106200006a5760003560e01c80630b791430146200006f578063948e7f6114620000a55780639a4d438514620000c7578063bdfc989314620000fd578063c27a500d1462000133578063f2ba8b271462000155575b600080fd5b6200008d6004803603810190620000879190620005a8565b6200018b565b6040516200009c91906200061f565b60405180910390f35b620000af620001cb565b604051620000be91906200061f565b60405180910390f35b620000e56004803603810190620000df91906200079e565b620001f1565b604051620000f491906200061f565b60405180910390f35b6200011b600480360381019062000115919062000835565b6200039e565b6040516200012a91906200061f565b60405180910390f35b6200013d620003ed565b6040516200014c91906200094a565b60405180910390f35b6200017360048036038101906200016d91906200096e565b6200047d565b6040516200018291906200094a565b60405180910390f35b600181815481106200019c57600080fd5b906000526020600020016000915054906101000a900473ffffffffffffffffffffffffffffffffffffffff1681565b600260009054906101000a900473ffffffffffffffffffffffffffffffffffffffff1681565b60008083600260009054906101000a900473ffffffffffffffffffffffffffffffffffffffff168460405162000227906200054b565b620002359392919062000a44565b604051809103906000f08015801562000252573d6000803e3d6000fd5b5090506000803373ffffffffffffffffffffffffffffffffffffffff1673ffffffffffffffffffffffffffffffffffffffff168152602001908152602001600020819080600181540180825580915050600190039060005260206000200160009091909190916101000a81548173ffffffffffffffffffffffffffffffffffffffff021916908373ffffffffffffffffffffffffffffffffffffffff1602179055506001819080600181540180825580915050600190039060005260206000200160009091909190916101000a81548173ffffffffffffffffffffffffffffffffffffffff021916908373ffffffffffffffffffffffffffffffffffffffff1602179055507f712a0fd8a85203aa2a7d53a268ac4914a8878d30191e800597dab93cd2b9200c3385836040516200038c9392919062000a88565b60405180910390a18091505092915050565b60006020528160005260406000208181548110620003bb57600080fd5b906000526020600020016000915091509054906101000a900473ffffffffffffffffffffffffffffffffffffffff1681565b606060018054806020026020016040519081016040528092919081815260200182805480156200047357602002820191906000526020600020905b8160009054906101000a900473ffffffffffffffffffffffffffffffffffffffff1673ffffffffffffffffffffffffffffffffffffffff168152602001906001019080831162000428575b5050505050905090565b60606000808373ffffffffffffffffffffffffffffffffffffffff1673ffffffffffffffffffffffffffffffffffffffff1681526020019081526020016000208054806020026020016040519081016040528092919081815260200182805480156200053f57602002820191906000526020600020905b8160009054906101000a900473ffffffffffffffffffffffffffffffffffffffff1673ffffffffffffffffffffffffffffffffffffffff1681526020019060010190808311620004f4575b50505050509050919050565b6119388062000acd83390190565b6000604051905090565b600080fd5b600080fd5b6000819050919050565b62000582816200056d565b81146200058e57600080fd5b50565b600081359050620005a28162000577565b92915050565b600060208284031215620005c157620005c062000563565b5b6000620005d18482850162000591565b91505092915050565b600073ffffffffffffffffffffffffffffffffffffffff82169050919050565b60006200060782620005da565b9050919050565b6200061981620005fa565b82525050565b60006020820190506200063660008301846200060e565b92915050565b600080fd5b600080fd5b6000601f19601f8301169050919050565b7f4e487b7100000000000000000000000000000000000000000000000000000000600052604160045260246000fd5b620006918262000646565b810181811067ffffffffffffffff82111715620006b357620006b262000657565b5b80604052505050565b6000620006c862000559565b9050620006d6828262000686565b919050565b600067ffffffffffffffff821115620006f957620006f862000657565b5b620007048262000646565b9050602081019050919050565b82818337600083830152505050565b6000620007376200073184620006db565b620006bc565b90508281526020810184848401111562000756576200075562000641565b5b6200076384828562000711565b509392505050565b600082601f8301126200078357620007826200063c565b5b81356200079584826020860162000720565b91505092915050565b60008060408385031215620007b857620007b762000563565b5b600083013567ffffffffffffffff811115620007d957620007d862000568565b5b620007e7858286016200076b565b9250506020620007fa8582860162000591565b9150509250929050565b6200080f81620005fa565b81146200081b57600080fd5b50565b6000813590506200082f8162000804565b92915050565b600080604083850312156200084f576200084e62000563565b5b60006200085f858286016200081e565b9250506020620008728582860162000591565b9150509250929050565b600081519050919050565b600082825260208201905092915050565b6000819050602082019050919050565b620008b381620005fa565b82525050565b6000620008c78383620008a8565b60208301905092915050565b6000602082019050919050565b6000620008ed826200087c565b620008f9818562000887565b9350620009068362000898565b8060005b838110156200093d578151620009218882620008b9565b97506200092e83620008d3565b9250506001810190506200090a565b5085935050505092915050565b60006020820190508181036000830152620009668184620008e0565b905092915050565b60006020828403121562000987576200098662000563565b5b600062000997848285016200081e565b91505092915050565b600081519050919050565b600082825260208201905092915050565b60005b83811015620009dc578082015181840152602081019050620009bf565b83811115620009ec576000848401525b50505050565b6000620009ff82620009a0565b62000a0b8185620009ab565b935062000a1d818560208601620009bc565b62000a288162000646565b840191505092915050565b62000a3e816200056d565b82525050565b6000606082019050818103600083015262000a608186620009f2565b905062000a7160208301856200060e565b62000a80604083018462000a33565b949350505050565b600060608201905062000a9f60008301866200060e565b818103602083015262000ab38185620009f2565b905062000ac460408301846200060e565b94935050505056fe60806040523480156200001157600080fd5b5060405162001938380380620019388339818101604052810190620000379190620003ce565b82600690805190602001906200004f929190620000e1565b5081600160006101000a81548173ffffffffffffffffffffffffffffffffffffffff021916908373ffffffffffffffffffffffffffffffffffffffff160217905550326000806101000a81548173ffffffffffffffffffffffffffffffffffffffff021916908373ffffffffffffffffffffffffffffffffffffffff16021790555080600281905550505050620004ad565b828054620000ef9062000478565b90600052602060002090601f0160209004810192826200011357600085556200015f565b82601f106200012e57805160ff19168380011785556200015f565b828001600101855582156200015f579182015b828111156200015e57825182559160200191906001019062000141565b5b5090506200016e919062000172565b5090565b5b808211156200018d57600081600090555060010162000173565b5090565b6000604051905090565b600080fd5b600080fd5b600080fd5b600080fd5b6000601f19601f8301169050919050565b7f4e487b7100000000000000000000000000000000000000000000000000000000600052604160045260246000fd5b620001fa82620001af565b810181811067ffffffffffffffff821117156200021c576200021b620001c0565b5b80604052505050565b60006200023162000191565b90506200023f8282620001ef565b919050565b600067ffffffffffffffff821115620002625762000261620001c0565b5b6200026d82620001af565b9050602081019050919050565b60005b838110156200029a5780820151818401526020810190506200027d565b83811115620002aa576000848401525b50505050565b6000620002c7620002c18462000244565b62000225565b905082815260208101848484011115620002e657620002e5620001aa565b5b620002f38482856200027a565b509392505050565b600082601f830112620003135762000312620001a5565b5b815162000325848260208601620002b0565b91505092915050565b600073ffffffffffffffffffffffffffffffffffffffff82169050919050565b60006200035b826200032e565b9050919050565b6200036d816200034e565b81146200037957600080fd5b50565b6000815190506200038d8162000362565b92915050565b6000819050919050565b620003a88162000393565b8114620003b457600080fd5b50565b600081519050620003c8816200039d565b92915050565b600080600060608486031215620003ea57620003e96200019b565b5b600084015167ffffffffffffffff8111156200040b576200040a620001a0565b5b6200041986828701620002fb565b93505060206200042c868287016200037c565b92505060406200043f86828701620003b7565b9150509250925092565b7f4e487b7100000000000000000000000000000000000000000000000000000000600052602260045260246000fd5b600060028204905060018216806200049157607f821691505b602082108103620004a757620004a662000449565b5b50919050565b61147b80620004bd6000396000f3fe608060405234801561001057600080fd5b50600436106100ea5760003560e01c80638c6bc08b1161008c578063d9bbd27811610066578063d9bbd2781461024f578063ec2c90161461026d578063ec5ffac21461028b578063fb6c9537146102a9576100ea565b80638c6bc08b146101d1578063948e7f6114610201578063b1283e771461021f576100ea565b806320214134116100c857806320214134146101495780633c48794f146101675780637bc7422514610197578063883c84c1146101b5576100ea565b806306fdde03146100ef578063179f907d1461010d57806317d7de7c1461012b575b600080fd5b6100f76102b3565b6040516101049190610c23565b60405180910390f35b610115610341565b6040516101229190610c86565b60405180910390f35b61013361036a565b6040516101409190610c23565b60405180910390f35b6101516103fc565b60405161015e9190610c86565b60405180910390f35b610181600480360381019061017c9190610ce1565b610420565b60405161018e9190610d85565b60405180910390f35b61019f610440565b6040516101ac9190610db9565b60405180910390f35b6101cf60048036038101906101ca9190610f35565b610530565b005b6101eb60048036038101906101e69190610ce1565b610793565b6040516101f89190610c23565b60405180910390f35b610209610833565b6040516102169190610c86565b60405180910390f35b61023960048036038101906102349190610f91565b610859565b6040516102469190610c86565b60405180910390f35b610257610898565b6040516102649190610db9565b60405180910390f35b6102756108a2565b604051610282919061107c565b60405180910390f35b610293610930565b6040516102a09190610db9565b60405180910390f35b6102b1610936565b005b600680546102c0906110cd565b80601f01602080910402602001604051908101604052809291908181526020018280546102ec906110cd565b80156103395780601f1061030e57610100808354040283529160200191610339565b820191906000526020600020905b81548152906001019060200180831161031c57829003601f168201915b505050505081565b60008060009054906101000a900473ffffffffffffffffffffffffffffffffffffffff16905090565b606060068054610379906110cd565b80601f01602080910402602001604051908101604052809291908181526020018280546103a5906110cd565b80156103f25780601f106103c7576101008083540402835291602001916103f2565b820191906000526020600020905b8154815290600101906020018083116103d557829003601f168201915b5050505050905090565b60008054906101000a900473ffffffffffffffffffffffffffffffffffffffff1681565b60046020528060005260406000206000915054906101000a900460ff1681565b60008060005b60058054905081101561052857600060058281548110610469576104686110fe565b5b9060005260206000200160009054906101000a900473ffffffffffffffffffffffffffffffffffffffff1690508073ffffffffffffffffffffffffffffffffffffffff16637bc742256040518163ffffffff1660e01b81526004016020604051808303816000875af11580156104e3573d6000803e3d6000fd5b505050506040513d601f19601f820116820180604052508101906105079190611142565b83610512919061119e565b9250508080610520906111f4565b915050610446565b508091505090565b60008054906101000a900473ffffffffffffffffffffffffffffffffffffffff1673ffffffffffffffffffffffffffffffffffffffff163373ffffffffffffffffffffffffffffffffffffffff16146105be576040517f08c379a00000000000000000000000000000000000000000000000000000000081526004016105b5906112ae565b60405180910390fd5b6000600160009054906101000a900473ffffffffffffffffffffffffffffffffffffffff16905060008173ffffffffffffffffffffffffffffffffffffffff1663d3caedfb8530866040518463ffffffff1660e01b8152600401610624939291906112ce565b6020604051808303816000875af1158015610643573d6000803e3d6000fd5b505050506040513d601f19601f820116820180604052508101906106679190611321565b90506005819080600181540180825580915050600190039060005260206000200160009091909190916101000a81548173ffffffffffffffffffffffffffffffffffffffff021916908373ffffffffffffffffffffffffffffffffffffffff1602179055506006600360008373ffffffffffffffffffffffffffffffffffffffff1673ffffffffffffffffffffffffffffffffffffffff168152602001908152602001600020908054610719906110cd565b610724929190610ae0565b506000600460008373ffffffffffffffffffffffffffffffffffffffff1673ffffffffffffffffffffffffffffffffffffffff16815260200190815260200160002060006101000a81548160ff0219169083600181111561078857610787610d0e565b5b021790555050505050565b600360205280600052604060002060009150905080546107b2906110cd565b80601f01602080910402602001604051908101604052809291908181526020018280546107de906110cd565b801561082b5780601f106108005761010080835404028352916020019161082b565b820191906000526020600020905b81548152906001019060200180831161080e57829003601f168201915b505050505081565b600160009054906101000a900473ffffffffffffffffffffffffffffffffffffffff1681565b6005818154811061086957600080fd5b906000526020600020016000915054906101000a900473ffffffffffffffffffffffffffffffffffffffff1681565b6000600254905090565b6060600580548060200260200160405190810160405280929190818152602001828054801561092657602002820191906000526020600020905b8160009054906101000a900473ffffffffffffffffffffffffffffffffffffffff1673ffffffffffffffffffffffffffffffffffffffff16815260200190600101908083116108dc575b5050505050905090565b60025481565b60008054906101000a900473ffffffffffffffffffffffffffffffffffffffff1673ffffffffffffffffffffffffffffffffffffffff163373ffffffffffffffffffffffffffffffffffffffff16146109c4576040517f08c379a00000000000000000000000000000000000000000000000000000000081526004016109bb906112ae565b60405180910390fd5b600080600580549050811015610a9c576000600582815481106109ea576109e96110fe565b5b9060005260206000200160009054906101000a900473ffffffffffffffffffffffffffffffffffffffff1690508073ffffffffffffffffffffffffffffffffffffffff166309dd8f876040518163ffffffff1660e01b81526004016020604051808303816000875af1158015610a64573d6000803e3d6000fd5b505050506040513d601f19601f82011682018060405250810190610a889190611386565b610a96576000925050610a9c565b60019250505b5080610add576040517f08c379a0000000000000000000000000000000000000000000000000000000008152600401610ad490611425565b60405180910390fd5b50565b828054610aec906110cd565b90600052602060002090601f016020900481019282610b0e5760008555610b5c565b82601f10610b1f5780548555610b5c565b82800160010185558215610b5c57600052602060002091601f016020900482015b82811115610b5b578254825591600101919060010190610b40565b5b509050610b699190610b6d565b5090565b5b80821115610b86576000816000905550600101610b6e565b5090565b600081519050919050565b600082825260208201905092915050565b60005b83811015610bc4578082015181840152602081019050610ba9565b83811115610bd3576000848401525b50505050565b6000601f19601f8301169050919050565b6000610bf582610b8a565b610bff8185610b95565b9350610c0f818560208601610ba6565b610c1881610bd9565b840191505092915050565b60006020820190508181036000830152610c3d8184610bea565b905092915050565b600073ffffffffffffffffffffffffffffffffffffffff82169050919050565b6000610c7082610c45565b9050919050565b610c8081610c65565b82525050565b6000602082019050610c9b6000830184610c77565b92915050565b6000604051905090565b600080fd5b600080fd5b610cbe81610c65565b8114610cc957600080fd5b50565b600081359050610cdb81610cb5565b92915050565b600060208284031215610cf757610cf6610cab565b5b6000610d0584828501610ccc565b91505092915050565b7f4e487b7100000000000000000000000000000000000000000000000000000000600052602160045260246000fd5b60028110610d4e57610d4d610d0e565b5b50565b6000819050610d5f82610d3d565b919050565b6000610d6f82610d51565b9050919050565b610d7f81610d64565b82525050565b6000602082019050610d9a6000830184610d76565b92915050565b6000819050919050565b610db381610da0565b82525050565b6000602082019050610dce6000830184610daa565b92915050565b600080fd5b600080fd5b7f4e487b7100000000000000000000000000000000000000000000000000000000600052604160045260246000fd5b610e1682610bd9565b810181811067ffffffffffffffff82111715610e3557610e34610dde565b5b80604052505050565b6000610e48610ca1565b9050610e548282610e0d565b919050565b600067ffffffffffffffff821115610e7457610e73610dde565b5b610e7d82610bd9565b9050602081019050919050565b82818337600083830152505050565b6000610eac610ea784610e59565b610e3e565b905082815260208101848484011115610ec857610ec7610dd9565b5b610ed3848285610e8a565b509392505050565b600082601f830112610ef057610eef610dd4565b5b8135610f00848260208601610e99565b91505092915050565b610f1281610da0565b8114610f1d57600080fd5b50565b600081359050610f2f81610f09565b92915050565b60008060408385031215610f4c57610f4b610cab565b5b600083013567ffffffffffffffff811115610f6a57610f69610cb0565b5b610f7685828601610edb565b9250506020610f8785828601610f20565b9150509250929050565b600060208284031215610fa757610fa6610cab565b5b6000610fb584828501610f20565b91505092915050565b600081519050919050565b600082825260208201905092915050565b6000819050602082019050919050565b610ff381610c65565b82525050565b60006110058383610fea565b60208301905092915050565b6000602082019050919050565b600061102982610fbe565b6110338185610fc9565b935061103e83610fda565b8060005b8381101561106f5781516110568882610ff9565b975061106183611011565b925050600181019050611042565b5085935050505092915050565b60006020820190508181036000830152611096818461101e565b905092915050565b7f4e487b7100000000000000000000000000000000000000000000000000000000600052602260045260246000fd5b600060028204905060018216806110e557607f821691505b6020821081036110f8576110f761109e565b5b50919050565b7f4e487b7100000000000000000000000000000000000000000000000000000000600052603260045260246000fd5b60008151905061113c81610f09565b92915050565b60006020828403121561115857611157610cab565b5b60006111668482850161112d565b91505092915050565b7f4e487b7100000000000000000000000000000000000000000000000000000000600052601160045260246000fd5b60006111a982610da0565b91506111b483610da0565b9250827fffffffffffffffffffffffffffffffffffffffffffffffffffffffffffffffff038211156111e9576111e861116f565b5b828201905092915050565b60006111ff82610da0565b91507fffffffffffffffffffffffffffffffffffffffffffffffffffffffffffffffff82036112315761123061116f565b5b600182019050919050565b7f4576656e74206f7065726174696f6e73206f6e6c79206170706c696361626c6560008201527f20746f206f776e65720000000000000000000000000000000000000000000000602082015250565b6000611298602983610b95565b91506112a38261123c565b604082019050919050565b600060208201905081810360008301526112c78161128b565b9050919050565b600060608201905081810360008301526112e88186610bea565b90506112f76020830185610c77565b6113046040830184610daa565b949350505050565b60008151905061131b81610cb5565b92915050565b60006020828403121561133757611336610cab565b5b60006113458482850161130c565b91505092915050565b60008115159050919050565b6113638161134e565b811461136e57600080fd5b50565b6000815190506113808161135a565b92915050565b60006020828403121561139c5761139b610cab565b5b60006113aa84828501611371565b91505092915050565b7f596f75206d75737420736574746c6520616c6c206d61726b657473206265666f60008201527f72652063616e63656c696e67206576656e740000000000000000000000000000602082015250565b600061140f603283610b95565b915061141a826113b3565b604082019050919050565b6000602082019050818103600083015261143e81611402565b905091905056fea264697066735822122033e498b826528587f102bac56522d2c7f3174de7cd6a00aa87c4265a0147fff964736f6c634300080d0033a2646970667358221220beff9b1bcf790563fa0ef9af10879453bf48257f93306947a3186849cf04c8ac64736f6c634300080d0033",
  "immutableReferences": {},
  "source": "// SPDX-License-Identifier: MIT\npragma solidity >0.4.23 <0.9.0;\nimport \"./Events.sol\";\n\n\ncontract EventFactory {\n    mapping (address => address[]) public userEvents;\n\n    event EventCreated(address eventOwner, string name, address eventAddress);\n\n    address[] public events;\n\n    address public marketFactoryAddress;\n\n    constructor(address _marketFactoryAddress){\n        marketFactoryAddress = _marketFactoryAddress;\n    }\n\n    function createEvent(\n        string memory _name,\n        uint _minimumStake\n    ) public returns(address) {\n        Events wEvent = new Events(_name, marketFactoryAddress, _minimumStake);\n        \n        userEvents[msg.sender].push(address(wEvent));\n        events.push(address(wEvent));\n        \n        emit EventCreated(msg.sender, _name, address(wEvent));\n        return address(wEvent);\n    }\n\n    function getEventsByAddress(address userAddress) public view returns(address[] memory){\n        return userEvents[userAddress];\n    }\n\n    function getAllEvents() public view returns(address[] memory){\n        return events;\n    }\n}",
  "sourcePath": "/Users/wizardom/projects/crypto/web3bets_smartcontract/contracts/EventFactory.sol",
  "compiler": {
    "name": "solc",
    "version": "0.8.13+commit.abaa5c0e.Emscripten.clang"
  },
  "schemaVersion": "3.4.7",
  "updatedAt": "2022-07-28T11:45:38.463Z",
  "networkType": "ethereum",
  "devdoc": {
    "kind": "dev",
    "methods": {},
    "version": 1
  },
  "userdoc": {
    "kind": "user",
    "methods": {},
    "version": 1
  }
}