{
  "contractName": "Events",
  "abi": [
    {
      "inputs": [
        {
          "internalType": "string",
          "name": "eventName",
          "type": "string"
        },
        {
          "internalType": "address",
          "name": "_marketFactoryAddress",
          "type": "address"
        },
        {
          "internalType": "uint256",
          "name": "_minimumStake",
          "type": "uint256"
        }
      ],
      "stateMutability": "nonpayable",
      "type": "constructor"
    },
    {
      "inputs": [],
      "name": "eventOwner",
      "outputs": [
        {
          "internalType": "address",
          "name": "",
          "type": "address"
        }
      ],
      "stateMutability": "view",
      "type": "function",
      "constant": true
    },
    {
      "inputs": [],
      "name": "marketFactoryAddress",
      "outputs": [
        {
          "internalType": "address",
          "name": "",
          "type": "address"
        }
      ],
      "stateMutability": "view",
      "type": "function",
      "constant": true
    },
    {
      "inputs": [
        {
          "internalType": "uint256",
          "name": "",
          "type": "uint256"
        }
      ],
      "name": "markets",
      "outputs": [
        {
          "internalType": "address",
          "name": "",
          "type": "address"
        }
      ],
      "stateMutability": "view",
      "type": "function",
      "constant": true
    },
    {
      "inputs": [
        {
          "internalType": "address",
          "name": "",
          "type": "address"
        }
      ],
      "name": "marketsNames",
      "outputs": [
        {
          "internalType": "string",
          "name": "",
          "type": "string"
        }
      ],
      "stateMutability": "view",
      "type": "function",
      "constant": true
    },
    {
      "inputs": [],
      "name": "minimumStake",
      "outputs": [
        {
          "internalType": "uint256",
          "name": "",
          "type": "uint256"
        }
      ],
      "stateMutability": "view",
      "type": "function",
      "constant": true
    },
    {
      "inputs": [],
      "name": "name",
      "outputs": [
        {
          "internalType": "string",
          "name": "",
          "type": "string"
        }
      ],
      "stateMutability": "view",
      "type": "function",
      "constant": true
    },
    {
      "inputs": [],
      "name": "status",
      "outputs": [
        {
          "internalType": "enum Events.EventStatus",
          "name": "",
          "type": "uint8"
        }
      ],
      "stateMutability": "view",
      "type": "function",
      "constant": true
    },
    {
      "inputs": [],
      "name": "getName",
      "outputs": [
        {
          "internalType": "string",
          "name": "",
          "type": "string"
        }
      ],
      "stateMutability": "view",
      "type": "function",
      "constant": true
    },
    {
      "inputs": [
        {
          "internalType": "string",
          "name": "_name",
          "type": "string"
        }
      ],
      "name": "createMarket",
      "outputs": [],
      "stateMutability": "nonpayable",
      "type": "function"
    },
    {
      "inputs": [],
      "name": "cancelEvent",
      "outputs": [],
      "stateMutability": "nonpayable",
      "type": "function"
    },
    {
      "inputs": [],
      "name": "getMarkets",
      "outputs": [
        {
          "internalType": "address[]",
          "name": "",
          "type": "address[]"
        }
      ],
      "stateMutability": "view",
      "type": "function",
      "constant": true
    },
    {
      "inputs": [],
      "name": "getMinimumStake",
      "outputs": [
        {
          "internalType": "uint256",
          "name": "",
          "type": "uint256"
        }
      ],
      "stateMutability": "view",
      "type": "function",
      "constant": true
    },
    {
      "inputs": [],
      "name": "getEventOwner",
      "outputs": [
        {
          "internalType": "address",
          "name": "",
          "type": "address"
        }
      ],
      "stateMutability": "view",
      "type": "function",
      "constant": true
    },
    {
      "inputs": [],
      "name": "endEvent",
      "outputs": [],
      "stateMutability": "nonpayable",
      "type": "function"
    },
    {
      "inputs": [],
      "name": "startEvent",
      "outputs": [],
      "stateMutability": "nonpayable",
      "type": "function"
    },
    {
      "inputs": [],
      "name": "getEventStatus",
      "outputs": [
        {
          "internalType": "uint256",
          "name": "",
          "type": "uint256"
        }
      ],
      "stateMutability": "view",
      "type": "function",
      "constant": true
    }
  ],
  "bytecode": "0x60806040526000600660006101000a81548160ff021916908360038111156200002d576200002c6200020a565b5b02179055503480156200003f57600080fd5b506040516200220438038062002204833981810160405281019062000065919062000476565b6402540be400811015620000b0576040517f08c379a0000000000000000000000000000000000000000000000000000000008152600401620000a7906200059e565b60405180910390fd5b8260059080519060200190620000c89291906200015a565b5081600160006101000a81548173ffffffffffffffffffffffffffffffffffffffff021916908373ffffffffffffffffffffffffffffffffffffffff160217905550326000806101000a81548173ffffffffffffffffffffffffffffffffffffffff021916908373ffffffffffffffffffffffffffffffffffffffff1602179055508060028190555050505062000624565b8280546200016890620005ef565b90600052602060002090601f0160209004810192826200018c5760008555620001d8565b82601f10620001a757805160ff1916838001178555620001d8565b82800160010185558215620001d8579182015b82811115620001d7578251825591602001919060010190620001ba565b5b509050620001e79190620001eb565b5090565b5b8082111562000206576000816000905550600101620001ec565b5090565b7f4e487b7100000000000000000000000000000000000000000000000000000000600052602160045260246000fd5b6000604051905090565b600080fd5b600080fd5b600080fd5b600080fd5b6000601f19601f8301169050919050565b7f4e487b7100000000000000000000000000000000000000000000000000000000600052604160045260246000fd5b620002a28262000257565b810181811067ffffffffffffffff82111715620002c457620002c362000268565b5b80604052505050565b6000620002d962000239565b9050620002e7828262000297565b919050565b600067ffffffffffffffff8211156200030a576200030962000268565b5b620003158262000257565b9050602081019050919050565b60005b838110156200034257808201518184015260208101905062000325565b8381111562000352576000848401525b50505050565b60006200036f6200036984620002ec565b620002cd565b9050828152602081018484840111156200038e576200038d62000252565b5b6200039b84828562000322565b509392505050565b600082601f830112620003bb57620003ba6200024d565b5b8151620003cd84826020860162000358565b91505092915050565b600073ffffffffffffffffffffffffffffffffffffffff82169050919050565b60006200040382620003d6565b9050919050565b6200041581620003f6565b81146200042157600080fd5b50565b60008151905062000435816200040a565b92915050565b6000819050919050565b62000450816200043b565b81146200045c57600080fd5b50565b600081519050620004708162000445565b92915050565b60008060006060848603121562000492576200049162000243565b5b600084015167ffffffffffffffff811115620004b357620004b262000248565b5b620004c186828701620003a3565b9350506020620004d48682870162000424565b9250506040620004e7868287016200045f565b9150509250925092565b600082825260208201905092915050565b7f4d696e696d756d207374616b6520666f72206372656174696e6720616e20657660008201527f656e74206d7573742062652067726561746572207468616e203130303030303060208201527f3030303020776569000000000000000000000000000000000000000000000000604082015250565b600062000586604883620004f1565b9150620005938262000502565b606082019050919050565b60006020820190508181036000830152620005b98162000577565b9050919050565b7f4e487b7100000000000000000000000000000000000000000000000000000000600052602260045260246000fd5b600060028204905060018216806200060857607f821691505b6020821081036200061e576200061d620005c0565b5b50919050565b611bd080620006346000396000f3fe608060405234801561001057600080fd5b50600436106101005760003560e01c8063948e7f6111610097578063e2fd38e911610066578063e2fd38e91461027b578063ec2c901614610285578063ec5ffac2146102a3578063fb6c9537146102c157610100565b8063948e7f61146101f1578063b1283e771461020f578063b75b25ec1461023f578063d9bbd2781461025d57610100565b806320214134116100d3578063202141341461017d57806354888f551461019b57806386ec6177146101b75780638c6bc08b146101c157610100565b806306fdde0314610105578063179f907d1461012357806317d7de7c14610141578063200d2ed21461015f575b600080fd5b61010d6102cb565b60405161011a9190611117565b60405180910390f35b61012b610359565b604051610138919061117a565b60405180910390f35b610149610382565b6040516101569190611117565b60405180910390f35b610167610414565b604051610174919061120c565b60405180910390f35b610185610427565b604051610192919061117a565b60405180910390f35b6101b560048036038101906101b09190611370565b61044b565b005b6101bf610643565b005b6101db60048036038101906101d691906113e5565b610903565b6040516101e89190611117565b60405180910390f35b6101f96109a3565b604051610206919061117a565b60405180910390f35b61022960048036038101906102249190611448565b6109c9565b604051610236919061117a565b60405180910390f35b610247610a08565b6040516102549190611484565b60405180910390f35b610265610a31565b6040516102729190611484565b60405180910390f35b610283610a3b565b005b61028d610cd2565b60405161029a919061155d565b60405180910390f35b6102ab610d60565b6040516102b89190611484565b60405180910390f35b6102c9610d66565b005b600580546102d8906115ae565b80601f0160208091040260200160405190810160405280929190818152602001828054610304906115ae565b80156103515780601f1061032657610100808354040283529160200191610351565b820191906000526020600020905b81548152906001019060200180831161033457829003601f168201915b505050505081565b60008060009054906101000a900473ffffffffffffffffffffffffffffffffffffffff16905090565b606060058054610391906115ae565b80601f01602080910402602001604051908101604052809291908181526020018280546103bd906115ae565b801561040a5780601f106103df5761010080835404028352916020019161040a565b820191906000526020600020905b8154815290600101906020018083116103ed57829003601f168201915b5050505050905090565b600660009054906101000a900460ff1681565b60008054906101000a900473ffffffffffffffffffffffffffffffffffffffff1681565b60008054906101000a900473ffffffffffffffffffffffffffffffffffffffff1673ffffffffffffffffffffffffffffffffffffffff163373ffffffffffffffffffffffffffffffffffffffff16146104d9576040517f08c379a00000000000000000000000000000000000000000000000000000000081526004016104d090611651565b60405180910390fd5b6000600160009054906101000a900473ffffffffffffffffffffffffffffffffffffffff16905060008173ffffffffffffffffffffffffffffffffffffffff1663bf1f167d84306040518363ffffffff1660e01b815260040161053d929190611671565b6020604051808303816000875af115801561055c573d6000803e3d6000fd5b505050506040513d601f19601f8201168201806040525081019061058091906116b6565b90506004819080600181540180825580915050600190039060005260206000200160009091909190916101000a81548173ffffffffffffffffffffffffffffffffffffffff021916908373ffffffffffffffffffffffffffffffffffffffff1602179055506005600360008373ffffffffffffffffffffffffffffffffffffffff1673ffffffffffffffffffffffffffffffffffffffff168152602001908152602001600020908054610632906115ae565b61063d929190610fd4565b50505050565b60008054906101000a900473ffffffffffffffffffffffffffffffffffffffff1673ffffffffffffffffffffffffffffffffffffffff163373ffffffffffffffffffffffffffffffffffffffff16146106d1576040517f08c379a00000000000000000000000000000000000000000000000000000000081526004016106c890611651565b60405180910390fd5b6003808111156106e4576106e3611195565b5b600660009054906101000a900460ff16600381111561070657610705611195565b5b03610746576040517f08c379a000000000000000000000000000000000000000000000000000000000815260040161073d9061172f565b60405180910390fd5b6002600381111561075a57610759611195565b5b600660009054906101000a900460ff16600381111561077c5761077b611195565b5b036107bc576040517f08c379a00000000000000000000000000000000000000000000000000000000081526004016107b39061179b565b60405180910390fd5b600080600480549050811015610894576000600482815481106107e2576107e16117bb565b5b9060005260206000200160009054906101000a900473ffffffffffffffffffffffffffffffffffffffff1690508073ffffffffffffffffffffffffffffffffffffffff166309dd8f876040518163ffffffff1660e01b81526004016020604051808303816000875af115801561085c573d6000803e3d6000fd5b505050506040513d601f19601f820116820180604052508101906108809190611822565b61088e576000925050610894565b60019250505b50806108d5576040517f08c379a00000000000000000000000000000000000000000000000000000000081526004016108cc90611938565b60405180910390fd5b6002600660006101000a81548160ff021916908360038111156108fb576108fa611195565b5b021790555050565b60036020528060005260406000206000915090508054610922906115ae565b80601f016020809104026020016040519081016040528092919081815260200182805461094e906115ae565b801561099b5780601f106109705761010080835404028352916020019161099b565b820191906000526020600020905b81548152906001019060200180831161097e57829003601f168201915b505050505081565b600160009054906101000a900473ffffffffffffffffffffffffffffffffffffffff1681565b600481815481106109d957600080fd5b906000526020600020016000915054906101000a900473ffffffffffffffffffffffffffffffffffffffff1681565b6000600660009054906101000a900460ff166003811115610a2c57610a2b611195565b5b905090565b6000600254905090565b60008054906101000a900473ffffffffffffffffffffffffffffffffffffffff1673ffffffffffffffffffffffffffffffffffffffff163373ffffffffffffffffffffffffffffffffffffffff1614610ac9576040517f08c379a0000000000000000000000000000000000000000000000000000000008152600401610ac090611651565b60405180910390fd5b600380811115610adc57610adb611195565b5b600660009054906101000a900460ff166003811115610afe57610afd611195565b5b03610b3e576040517f08c379a0000000000000000000000000000000000000000000000000000000008152600401610b35906119ca565b60405180910390fd5b60026003811115610b5257610b51611195565b5b600660009054906101000a900460ff166003811115610b7457610b73611195565b5b03610bb4576040517f08c379a0000000000000000000000000000000000000000000000000000000008152600401610bab90611a36565b60405180910390fd5b60016003811115610bc857610bc7611195565b5b600660009054906101000a900460ff166003811115610bea57610be9611195565b5b03610c2a576040517f08c379a0000000000000000000000000000000000000000000000000000000008152600401610c2190611aa2565b60405180910390fd5b60006003811115610c3e57610c3d611195565b5b600660009054906101000a900460ff166003811115610c6057610c5f611195565b5b03610c95576001600660006101000a81548160ff02191690836003811115610c8b57610c8a611195565b5b0217905550610cd0565b6040517f08c379a0000000000000000000000000000000000000000000000000000000008152600401610cc790611b0e565b60405180910390fd5b565b60606004805480602002602001604051908101604052809291908181526020018280548015610d5657602002820191906000526020600020905b8160009054906101000a900473ffffffffffffffffffffffffffffffffffffffff1673ffffffffffffffffffffffffffffffffffffffff1681526020019060010190808311610d0c575b5050505050905090565b60025481565b60008054906101000a900473ffffffffffffffffffffffffffffffffffffffff1673ffffffffffffffffffffffffffffffffffffffff163373ffffffffffffffffffffffffffffffffffffffff1614610df4576040517f08c379a0000000000000000000000000000000000000000000000000000000008152600401610deb90611651565b60405180910390fd5b600380811115610e0757610e06611195565b5b600660009054906101000a900460ff166003811115610e2957610e28611195565b5b03610e69576040517f08c379a0000000000000000000000000000000000000000000000000000000008152600401610e6090611b7a565b60405180910390fd5b60026003811115610e7d57610e7c611195565b5b600660009054906101000a900460ff166003811115610e9f57610e9e611195565b5b03610edf576040517f08c379a0000000000000000000000000000000000000000000000000000000008152600401610ed69061179b565b60405180910390fd5b60005b600480549050811015610fa657600060048281548110610f0557610f046117bb565b5b9060005260206000200160009054906101000a900473ffffffffffffffffffffffffffffffffffffffff1690508073ffffffffffffffffffffffffffffffffffffffff16636bfefd6b6040518163ffffffff1660e01b8152600401600060405180830381600087803b158015610f7a57600080fd5b505af1158015610f8e573d6000803e3d6000fd5b50505050508080610f9e9061187e565b915050610ee2565b506003600660006101000a81548160ff02191690836003811115610fcd57610fcc611195565b5b0217905550565b828054610fe0906115ae565b90600052602060002090601f0160209004810192826110025760008555611050565b82601f106110135780548555611050565b8280016001018555821561105057600052602060002091601f016020900482015b8281111561104f578254825591600101919060010190611034565b5b50905061105d9190611061565b5090565b5b8082111561107a576000816000905550600101611062565b5090565b600081519050919050565b600082825260208201905092915050565b60005b838110156110b857808201518184015260208101905061109d565b838111156110c7576000848401525b50505050565b6000601f19601f8301169050919050565b60006110e98261107e565b6110f38185611089565b935061110381856020860161109a565b61110c816110cd565b840191505092915050565b6000602082019050818103600083015261113181846110de565b905092915050565b600073ffffffffffffffffffffffffffffffffffffffff82169050919050565b600061116482611139565b9050919050565b61117481611159565b82525050565b600060208201905061118f600083018461116b565b92915050565b7f4e487b7100000000000000000000000000000000000000000000000000000000600052602160045260246000fd5b600481106111d5576111d4611195565b5b50565b60008190506111e6826111c4565b919050565b60006111f6826111d8565b9050919050565b611206816111eb565b82525050565b600060208201905061122160008301846111fd565b92915050565b6000604051905090565b600080fd5b600080fd5b600080fd5b600080fd5b7f4e487b7100000000000000000000000000000000000000000000000000000000600052604160045260246000fd5b61127d826110cd565b810181811067ffffffffffffffff8211171561129c5761129b611245565b5b80604052505050565b60006112af611227565b90506112bb8282611274565b919050565b600067ffffffffffffffff8211156112db576112da611245565b5b6112e4826110cd565b9050602081019050919050565b82818337600083830152505050565b600061131361130e846112c0565b6112a5565b90508281526020810184848401111561132f5761132e611240565b5b61133a8482856112f1565b509392505050565b600082601f8301126113575761135661123b565b5b8135611367848260208601611300565b91505092915050565b60006020828403121561138657611385611231565b5b600082013567ffffffffffffffff8111156113a4576113a3611236565b5b6113b084828501611342565b91505092915050565b6113c281611159565b81146113cd57600080fd5b50565b6000813590506113df816113b9565b92915050565b6000602082840312156113fb576113fa611231565b5b6000611409848285016113d0565b91505092915050565b6000819050919050565b61142581611412565b811461143057600080fd5b50565b6000813590506114428161141c565b92915050565b60006020828403121561145e5761145d611231565b5b600061146c84828501611433565b91505092915050565b61147e81611412565b82525050565b60006020820190506114996000830184611475565b92915050565b600081519050919050565b600082825260208201905092915050565b6000819050602082019050919050565b6114d481611159565b82525050565b60006114e683836114cb565b60208301905092915050565b6000602082019050919050565b600061150a8261149f565b61151481856114aa565b935061151f836114bb565b8060005b8381101561155057815161153788826114da565b9750611542836114f2565b925050600181019050611523565b5085935050505092915050565b6000602082019050818103600083015261157781846114ff565b905092915050565b7f4e487b7100000000000000000000000000000000000000000000000000000000600052602260045260246000fd5b600060028204905060018216806115c657607f821691505b6020821081036115d9576115d861157f565b5b50919050565b7f4576656e74206f7065726174696f6e73206f6e6c79206170706c696361626c6560008201527f20746f206f776e65720000000000000000000000000000000000000000000000602082015250565b600061163b602983611089565b9150611646826115df565b604082019050919050565b6000602082019050818103600083015261166a8161162e565b9050919050565b6000604082019050818103600083015261168b81856110de565b905061169a602083018461116b565b9392505050565b6000815190506116b0816113b9565b92915050565b6000602082840312156116cc576116cb611231565b5b60006116da848285016116a1565b91505092915050565b7f43616e63656c6564206576656e742063616e206e6f7420626520656e64656400600082015250565b6000611719601f83611089565b9150611724826116e3565b602082019050919050565b600060208201905081810360008301526117488161170c565b9050919050565b7f4576656e7420616c726561647920656e64656400000000000000000000000000600082015250565b6000611785601383611089565b91506117908261174f565b602082019050919050565b600060208201905081810360008301526117b481611778565b9050919050565b7f4e487b7100000000000000000000000000000000000000000000000000000000600052603260045260246000fd5b60008115159050919050565b6117ff816117ea565b811461180a57600080fd5b50565b60008151905061181c816117f6565b92915050565b60006020828403121561183857611837611231565b5b60006118468482850161180d565b91505092915050565b7f4e487b7100000000000000000000000000000000000000000000000000000000600052601160045260246000fd5b600061188982611412565b91507fffffffffffffffffffffffffffffffffffffffffffffffffffffffffffffffff82036118bb576118ba61184f565b5b600182019050919050565b7f596f75206d757374207365742077696e6e696e6720706f6f6c7320696e20616c60008201527f6c206d61726b657473206265666f726520656e64696e67206576656e74000000602082015250565b6000611922603d83611089565b915061192d826118c6565b604082019050919050565b6000602082019050818103600083015261195181611915565b9050919050565b7f43616e63656c6564206576656e742063616e206e6f742062652073746172746560008201527f6400000000000000000000000000000000000000000000000000000000000000602082015250565b60006119b4602183611089565b91506119bf82611958565b604082019050919050565b600060208201905081810360008301526119e3816119a7565b9050919050565b7f456e646564206576656e742063616e206e6f7420626520737461727465640000600082015250565b6000611a20601e83611089565b9150611a2b826119ea565b602082019050919050565b60006020820190508181036000830152611a4f81611a13565b9050919050565b7f4576656e7420616c726561647920737461727465640000000000000000000000600082015250565b6000611a8c601583611089565b9150611a9782611a56565b602082019050919050565b60006020820190508181036000830152611abb81611a7f565b9050919050565b7f416e206572726f72206f63637572726564207374617274696e67206576656e74600082015250565b6000611af8602083611089565b9150611b0382611ac2565b602082019050919050565b60006020820190508181036000830152611b2781611aeb565b9050919050565b7f4576656e7420616c72656164792063616e63656c656400000000000000000000600082015250565b6000611b64601683611089565b9150611b6f82611b2e565b602082019050919050565b60006020820190508181036000830152611b9381611b57565b905091905056fea2646970667358221220a2a7c49a8f2b5ac87cc70a47a4edeecc34d294e85c28602006f33c8a01b0238564736f6c634300080d0033",
  "immutableReferences": {},
  "source": "// SPDX-License-Identifier: MIT\n\npragma solidity ^0.8.4;\n\nimport \"./interface/IWeb3BetsEventsV1.sol\";\nimport \"./MarketFactory.sol\";\n\nimport \"@openzeppelin/contracts/utils/Strings.sol\";\n\ncontract Events is IWeb3BetsEventV1 {\n    address public eventOwner;\n\n    address public marketFactoryAddress;\n\n    uint256 public minimumStake;\n\n    mapping(address => string) public marketsNames;\n\n    address[] public markets;\n\n    string public name;\n\n    uint constant MINIMUM_STAKE = 10000000000;\n\n    EventStatus public status = EventStatus.PENDING;\n\n    struct EventMarket {\n        string marketName;\n        address marketAddress;\n    }\n\n    function getName() public view override returns (string memory) {\n        return name;\n    }\n\n    constructor(\n        string memory eventName,\n        address _marketFactoryAddress,\n        uint256 _minimumStake\n    ) {\n        require(_minimumStake >= MINIMUM_STAKE, \"Minimum stake for creating an event must be greater than 10000000000 wei\");\n        name = eventName;\n        marketFactoryAddress = _marketFactoryAddress;\n        eventOwner = tx.origin;\n        minimumStake = _minimumStake;\n    }\n\n    enum EventStatus {\n        PENDING,\n        STARTED,\n        ENDED,\n        CANCELED\n    }\n\n    modifier onlyOwner() {\n        require(\n            msg.sender == eventOwner,\n            \"Event operations only applicable to owner\"\n        );\n        _;\n    }\n\n    function createMarket(string memory _name)\n        external\n        override\n        onlyOwner\n    {\n        // bytes32 marketId = keccak256(abi.encodePacked(eName,Strings.toString(block.timestamp)));\n\n        MarketFactory factory = MarketFactory(marketFactoryAddress);\n        address marketAddress = factory.createMarket(\n            _name,\n            address(this)\n        );\n        markets.push(marketAddress);\n        marketsNames[marketAddress] = name;\n    }\n\n    function cancelEvent() external override onlyOwner {\n        if (status == EventStatus.CANCELED) {\n            revert(\"Event already canceled\");\n        } else if (status == EventStatus.ENDED) {\n            revert(\"Event already ended\");\n        }\n\n        for (uint256 i = 0; i < markets.length; i++) {\n            IWeb3BetsMarketV1 marketv1 = IWeb3BetsMarketV1(markets[i]);\n            marketv1.cancelMarket();\n        }\n\n        status = EventStatus.CANCELED;\n    }\n\n    function getMarkets() external view override returns (address[] memory) {\n        return markets;\n    }\n\n    function getMinimumStake() external view returns (uint256) {\n        return minimumStake;\n    }\n\n    function getCount() internal view returns (uint256 count) {\n        return markets.length;\n    }\n\n    function getEventOwner() external view override returns (address) {\n        return eventOwner;\n    }\n\n    function endEvent() external onlyOwner{\n        if (status == EventStatus.CANCELED) {\n            revert(\"Canceled event can not be ended\");\n        } else if (status == EventStatus.ENDED) {\n            revert(\"Event already ended\");\n        }\n\n        bool allMarketsAreSettled = false;\n        for (uint256 i = 0; i < markets.length; i++) {\n            IWeb3BetsMarketV1 marketv1 = IWeb3BetsMarketV1(markets[i]);\n            if (!marketv1.isWinningPoolSet()) {\n                allMarketsAreSettled = false;\n                break;\n            } else {\n                allMarketsAreSettled = true;\n                break;\n            }\n        }\n\n        if (!allMarketsAreSettled) {\n            revert(\n                \"You must set winning pools in all markets before ending event\"\n            );\n        } else {\n            status = EventStatus.ENDED;\n        }\n    }\n\n    function startEvent() external onlyOwner{\n        if (status == EventStatus.CANCELED) {\n            revert(\"Canceled event can not be started\");\n        } else if (status == EventStatus.ENDED) {\n            revert(\"Ended event can not be started\");\n        } else if (status == EventStatus.STARTED) {\n            revert(\"Event already started\");\n        } else if (status == EventStatus.PENDING) {\n            status = EventStatus.STARTED;\n        } else {\n            revert(\"An error occurred starting event\");\n        }\n    }\n\n    function getEventStatus() external view override returns (uint256) {\n        return uint256(status);\n    }\n}\n",
  "sourcePath": "/Users/wizardom/projects/crypto/web3bets_smartcontract/contracts/Events.sol",
  "compiler": {
    "name": "solc",
    "version": "0.8.13+commit.abaa5c0e.Emscripten.clang"
  },
  "schemaVersion": "3.4.7",
  "updatedAt": "2022-08-02T05:11:13.324Z",
  "networkType": "ethereum",
  "devdoc": {
    "kind": "dev",
    "methods": {},
    "version": 1
  },
  "userdoc": {
    "kind": "user",
    "methods": {},
    "version": 1
  }
}