{
  "contractName": "EventFactory",
  "abi": [
    {
      "inputs": [
        {
          "internalType": "address",
          "name": "_marketFactoryAddress",
          "type": "address"
        },
        {
          "internalType": "address",
          "name": "_web3betsAddress",
          "type": "address"
        }
      ],
      "stateMutability": "nonpayable",
      "type": "constructor"
    },
    {
      "anonymous": false,
      "inputs": [
        {
          "indexed": false,
          "internalType": "address",
          "name": "eventOwner",
          "type": "address"
        },
        {
          "indexed": false,
          "internalType": "string",
          "name": "name",
          "type": "string"
        },
        {
          "indexed": false,
          "internalType": "address",
          "name": "eventAddress",
          "type": "address"
        }
      ],
      "name": "EventCreated",
      "type": "event"
    },
    {
      "inputs": [
        {
          "internalType": "uint256",
          "name": "",
          "type": "uint256"
        }
      ],
      "name": "events",
      "outputs": [
        {
          "internalType": "address",
          "name": "",
          "type": "address"
        }
      ],
      "stateMutability": "view",
      "type": "function",
      "constant": true
    },
    {
      "inputs": [],
      "name": "marketFactoryAddress",
      "outputs": [
        {
          "internalType": "address",
          "name": "",
          "type": "address"
        }
      ],
      "stateMutability": "view",
      "type": "function",
      "constant": true
    },
    {
      "inputs": [
        {
          "internalType": "address",
          "name": "",
          "type": "address"
        },
        {
          "internalType": "uint256",
          "name": "",
          "type": "uint256"
        }
      ],
      "name": "userEvents",
      "outputs": [
        {
          "internalType": "address",
          "name": "",
          "type": "address"
        }
      ],
      "stateMutability": "view",
      "type": "function",
      "constant": true
    },
    {
      "inputs": [],
      "name": "web3betsAddress",
      "outputs": [
        {
          "internalType": "address",
          "name": "",
          "type": "address"
        }
      ],
      "stateMutability": "view",
      "type": "function",
      "constant": true
    },
    {
      "inputs": [
        {
          "internalType": "string",
          "name": "_name",
          "type": "string"
        },
        {
          "internalType": "uint256",
          "name": "_minimumStake",
          "type": "uint256"
        }
      ],
      "name": "createEvent",
      "outputs": [
        {
          "internalType": "address",
          "name": "",
          "type": "address"
        }
      ],
      "stateMutability": "nonpayable",
      "type": "function"
    },
    {
      "inputs": [
        {
          "internalType": "address",
          "name": "userAddress",
          "type": "address"
        }
      ],
      "name": "getEventsByAddress",
      "outputs": [
        {
          "internalType": "address[]",
          "name": "",
          "type": "address[]"
        }
      ],
      "stateMutability": "view",
      "type": "function",
      "constant": true
    },
    {
      "inputs": [],
      "name": "getAllEvents",
      "outputs": [
        {
          "internalType": "address[]",
          "name": "",
          "type": "address[]"
        }
      ],
      "stateMutability": "view",
      "type": "function",
      "constant": true
    }
  ],
  "bytecode": "0x608060405234801561001057600080fd5b50604051620030d4380380620030d483398181016040528101906100349190610120565b81600260006101000a81548173ffffffffffffffffffffffffffffffffffffffff021916908373ffffffffffffffffffffffffffffffffffffffff16021790555080600360006101000a81548173ffffffffffffffffffffffffffffffffffffffff021916908373ffffffffffffffffffffffffffffffffffffffff1602179055505050610160565b600080fd5b600073ffffffffffffffffffffffffffffffffffffffff82169050919050565b60006100ed826100c2565b9050919050565b6100fd816100e2565b811461010857600080fd5b50565b60008151905061011a816100f4565b92915050565b60008060408385031215610137576101366100bd565b5b60006101458582860161010b565b92505060206101568582860161010b565b9150509250929050565b612f6480620001706000396000f3fe60806040523480156200001157600080fd5b5060043610620000885760003560e01c8063bdfc98931162000063578063bdfc9893146200011b578063c27a500d1462000151578063e56afe831462000173578063f2ba8b2714620001955762000088565b80630b791430146200008d578063948e7f6114620000c35780639a4d438514620000e5575b600080fd5b620000ab6004803603810190620000a59190620006ff565b620001cb565b604051620000ba919062000776565b60405180910390f35b620000cd6200020b565b604051620000dc919062000776565b60405180910390f35b620001036004803603810190620000fd9190620008f5565b62000231565b60405162000112919062000776565b60405180910390f35b6200013960048036038101906200013391906200098c565b620004cf565b60405162000148919062000776565b60405180910390f35b6200015b6200051e565b6040516200016a919062000aa1565b60405180910390f35b6200017d620005ae565b6040516200018c919062000776565b60405180910390f35b620001b36004803603810190620001ad919062000ac5565b620005d4565b604051620001c2919062000aa1565b60405180910390f35b60018181548110620001dc57600080fd5b906000526020600020016000915054906101000a900473ffffffffffffffffffffffffffffffffffffffff1681565b600260009054906101000a900473ffffffffffffffffffffffffffffffffffffffff1681565b600080600360009054906101000a900473ffffffffffffffffffffffffffffffffffffffff16905060008173ffffffffffffffffffffffffffffffffffffffff1663eb803584336040518263ffffffff1660e01b815260040162000296919062000776565b6020604051808303816000875af1158015620002b6573d6000803e3d6000fd5b505050506040513d601f19601f82011682018060405250810190620002dc919062000b34565b90508062000321576040517f08c379a0000000000000000000000000000000000000000000000000000000008152600401620003189062000bed565b60405180910390fd5b600085600260009054906101000a900473ffffffffffffffffffffffffffffffffffffffff16866040516200035690620006a2565b620003649392919062000ca2565b604051809103906000f08015801562000381573d6000803e3d6000fd5b5090506000803373ffffffffffffffffffffffffffffffffffffffff1673ffffffffffffffffffffffffffffffffffffffff168152602001908152602001600020819080600181540180825580915050600190039060005260206000200160009091909190916101000a81548173ffffffffffffffffffffffffffffffffffffffff021916908373ffffffffffffffffffffffffffffffffffffffff1602179055506001819080600181540180825580915050600190039060005260206000200160009091909190916101000a81548173ffffffffffffffffffffffffffffffffffffffff021916908373ffffffffffffffffffffffffffffffffffffffff1602179055507f712a0fd8a85203aa2a7d53a268ac4914a8878d30191e800597dab93cd2b9200c338783604051620004bb9392919062000ce6565b60405180910390a180935050505092915050565b60006020528160005260406000208181548110620004ec57600080fd5b906000526020600020016000915091509054906101000a900473ffffffffffffffffffffffffffffffffffffffff1681565b60606001805480602002602001604051908101604052809291908181526020018280548015620005a457602002820191906000526020600020905b8160009054906101000a900473ffffffffffffffffffffffffffffffffffffffff1673ffffffffffffffffffffffffffffffffffffffff168152602001906001019080831162000559575b5050505050905090565b600360009054906101000a900473ffffffffffffffffffffffffffffffffffffffff1681565b60606000808373ffffffffffffffffffffffffffffffffffffffff1673ffffffffffffffffffffffffffffffffffffffff1681526020019081526020016000208054806020026020016040519081016040528092919081815260200182805480156200069657602002820191906000526020600020905b8160009054906101000a900473ffffffffffffffffffffffffffffffffffffffff1673ffffffffffffffffffffffffffffffffffffffff16815260200190600101908083116200064b575b50505050509050919050565b6122048062000d2b83390190565b6000604051905090565b600080fd5b600080fd5b6000819050919050565b620006d981620006c4565b8114620006e557600080fd5b50565b600081359050620006f981620006ce565b92915050565b600060208284031215620007185762000717620006ba565b5b60006200072884828501620006e8565b91505092915050565b600073ffffffffffffffffffffffffffffffffffffffff82169050919050565b60006200075e8262000731565b9050919050565b620007708162000751565b82525050565b60006020820190506200078d600083018462000765565b92915050565b600080fd5b600080fd5b6000601f19601f8301169050919050565b7f4e487b7100000000000000000000000000000000000000000000000000000000600052604160045260246000fd5b620007e8826200079d565b810181811067ffffffffffffffff821117156200080a5762000809620007ae565b5b80604052505050565b60006200081f620006b0565b90506200082d8282620007dd565b919050565b600067ffffffffffffffff82111562000850576200084f620007ae565b5b6200085b826200079d565b9050602081019050919050565b82818337600083830152505050565b60006200088e620008888462000832565b62000813565b905082815260208101848484011115620008ad57620008ac62000798565b5b620008ba84828562000868565b509392505050565b600082601f830112620008da57620008d962000793565b5b8135620008ec84826020860162000877565b91505092915050565b600080604083850312156200090f576200090e620006ba565b5b600083013567ffffffffffffffff81111562000930576200092f620006bf565b5b6200093e85828601620008c2565b92505060206200095185828601620006e8565b9150509250929050565b620009668162000751565b81146200097257600080fd5b50565b60008135905062000986816200095b565b92915050565b60008060408385031215620009a657620009a5620006ba565b5b6000620009b68582860162000975565b9250506020620009c985828601620006e8565b9150509250929050565b600081519050919050565b600082825260208201905092915050565b6000819050602082019050919050565b62000a0a8162000751565b82525050565b600062000a1e8383620009ff565b60208301905092915050565b6000602082019050919050565b600062000a4482620009d3565b62000a508185620009de565b935062000a5d83620009ef565b8060005b8381101562000a9457815162000a78888262000a10565b975062000a858362000a2a565b92505060018101905062000a61565b5085935050505092915050565b6000602082019050818103600083015262000abd818462000a37565b905092915050565b60006020828403121562000ade5762000add620006ba565b5b600062000aee8482850162000975565b91505092915050565b60008115159050919050565b62000b0e8162000af7565b811462000b1a57600080fd5b50565b60008151905062000b2e8162000b03565b92915050565b60006020828403121562000b4d5762000b4c620006ba565b5b600062000b5d8482850162000b1d565b91505092915050565b600082825260208201905092915050565b7f4f6e6c79206576656e74206f776e6572732063616e206365656174652065766560008201527f6e74730000000000000000000000000000000000000000000000000000000000602082015250565b600062000bd560238362000b66565b915062000be28262000b77565b604082019050919050565b6000602082019050818103600083015262000c088162000bc6565b9050919050565b600081519050919050565b60005b8381101562000c3a57808201518184015260208101905062000c1d565b8381111562000c4a576000848401525b50505050565b600062000c5d8262000c0f565b62000c69818562000b66565b935062000c7b81856020860162000c1a565b62000c86816200079d565b840191505092915050565b62000c9c81620006c4565b82525050565b6000606082019050818103600083015262000cbe818662000c50565b905062000ccf602083018562000765565b62000cde604083018462000c91565b949350505050565b600060608201905062000cfd600083018662000765565b818103602083015262000d11818562000c50565b905062000d22604083018462000765565b94935050505056fe60806040526000600660006101000a81548160ff021916908360038111156200002d576200002c6200020a565b5b02179055503480156200003f57600080fd5b506040516200220438038062002204833981810160405281019062000065919062000476565b6402540be400811015620000b0576040517f08c379a0000000000000000000000000000000000000000000000000000000008152600401620000a7906200059e565b60405180910390fd5b8260059080519060200190620000c89291906200015a565b5081600160006101000a81548173ffffffffffffffffffffffffffffffffffffffff021916908373ffffffffffffffffffffffffffffffffffffffff160217905550326000806101000a81548173ffffffffffffffffffffffffffffffffffffffff021916908373ffffffffffffffffffffffffffffffffffffffff1602179055508060028190555050505062000624565b8280546200016890620005ef565b90600052602060002090601f0160209004810192826200018c5760008555620001d8565b82601f10620001a757805160ff1916838001178555620001d8565b82800160010185558215620001d8579182015b82811115620001d7578251825591602001919060010190620001ba565b5b509050620001e79190620001eb565b5090565b5b8082111562000206576000816000905550600101620001ec565b5090565b7f4e487b7100000000000000000000000000000000000000000000000000000000600052602160045260246000fd5b6000604051905090565b600080fd5b600080fd5b600080fd5b600080fd5b6000601f19601f8301169050919050565b7f4e487b7100000000000000000000000000000000000000000000000000000000600052604160045260246000fd5b620002a28262000257565b810181811067ffffffffffffffff82111715620002c457620002c362000268565b5b80604052505050565b6000620002d962000239565b9050620002e7828262000297565b919050565b600067ffffffffffffffff8211156200030a576200030962000268565b5b620003158262000257565b9050602081019050919050565b60005b838110156200034257808201518184015260208101905062000325565b8381111562000352576000848401525b50505050565b60006200036f6200036984620002ec565b620002cd565b9050828152602081018484840111156200038e576200038d62000252565b5b6200039b84828562000322565b509392505050565b600082601f830112620003bb57620003ba6200024d565b5b8151620003cd84826020860162000358565b91505092915050565b600073ffffffffffffffffffffffffffffffffffffffff82169050919050565b60006200040382620003d6565b9050919050565b6200041581620003f6565b81146200042157600080fd5b50565b60008151905062000435816200040a565b92915050565b6000819050919050565b62000450816200043b565b81146200045c57600080fd5b50565b600081519050620004708162000445565b92915050565b60008060006060848603121562000492576200049162000243565b5b600084015167ffffffffffffffff811115620004b357620004b262000248565b5b620004c186828701620003a3565b9350506020620004d48682870162000424565b9250506040620004e7868287016200045f565b9150509250925092565b600082825260208201905092915050565b7f4d696e696d756d207374616b6520666f72206372656174696e6720616e20657660008201527f656e74206d7573742062652067726561746572207468616e203130303030303060208201527f3030303020776569000000000000000000000000000000000000000000000000604082015250565b600062000586604883620004f1565b9150620005938262000502565b606082019050919050565b60006020820190508181036000830152620005b98162000577565b9050919050565b7f4e487b7100000000000000000000000000000000000000000000000000000000600052602260045260246000fd5b600060028204905060018216806200060857607f821691505b6020821081036200061e576200061d620005c0565b5b50919050565b611bd080620006346000396000f3fe608060405234801561001057600080fd5b50600436106101005760003560e01c8063948e7f6111610097578063e2fd38e911610066578063e2fd38e91461027b578063ec2c901614610285578063ec5ffac2146102a3578063fb6c9537146102c157610100565b8063948e7f61146101f1578063b1283e771461020f578063b75b25ec1461023f578063d9bbd2781461025d57610100565b806320214134116100d3578063202141341461017d57806354888f551461019b57806386ec6177146101b75780638c6bc08b146101c157610100565b806306fdde0314610105578063179f907d1461012357806317d7de7c14610141578063200d2ed21461015f575b600080fd5b61010d6102cb565b60405161011a9190611117565b60405180910390f35b61012b610359565b604051610138919061117a565b60405180910390f35b610149610382565b6040516101569190611117565b60405180910390f35b610167610414565b604051610174919061120c565b60405180910390f35b610185610427565b604051610192919061117a565b60405180910390f35b6101b560048036038101906101b09190611370565b61044b565b005b6101bf610643565b005b6101db60048036038101906101d691906113e5565b610903565b6040516101e89190611117565b60405180910390f35b6101f96109a3565b604051610206919061117a565b60405180910390f35b61022960048036038101906102249190611448565b6109c9565b604051610236919061117a565b60405180910390f35b610247610a08565b6040516102549190611484565b60405180910390f35b610265610a31565b6040516102729190611484565b60405180910390f35b610283610a3b565b005b61028d610cd2565b60405161029a919061155d565b60405180910390f35b6102ab610d60565b6040516102b89190611484565b60405180910390f35b6102c9610d66565b005b600580546102d8906115ae565b80601f0160208091040260200160405190810160405280929190818152602001828054610304906115ae565b80156103515780601f1061032657610100808354040283529160200191610351565b820191906000526020600020905b81548152906001019060200180831161033457829003601f168201915b505050505081565b60008060009054906101000a900473ffffffffffffffffffffffffffffffffffffffff16905090565b606060058054610391906115ae565b80601f01602080910402602001604051908101604052809291908181526020018280546103bd906115ae565b801561040a5780601f106103df5761010080835404028352916020019161040a565b820191906000526020600020905b8154815290600101906020018083116103ed57829003601f168201915b5050505050905090565b600660009054906101000a900460ff1681565b60008054906101000a900473ffffffffffffffffffffffffffffffffffffffff1681565b60008054906101000a900473ffffffffffffffffffffffffffffffffffffffff1673ffffffffffffffffffffffffffffffffffffffff163373ffffffffffffffffffffffffffffffffffffffff16146104d9576040517f08c379a00000000000000000000000000000000000000000000000000000000081526004016104d090611651565b60405180910390fd5b6000600160009054906101000a900473ffffffffffffffffffffffffffffffffffffffff16905060008173ffffffffffffffffffffffffffffffffffffffff1663bf1f167d84306040518363ffffffff1660e01b815260040161053d929190611671565b6020604051808303816000875af115801561055c573d6000803e3d6000fd5b505050506040513d601f19601f8201168201806040525081019061058091906116b6565b90506004819080600181540180825580915050600190039060005260206000200160009091909190916101000a81548173ffffffffffffffffffffffffffffffffffffffff021916908373ffffffffffffffffffffffffffffffffffffffff1602179055506005600360008373ffffffffffffffffffffffffffffffffffffffff1673ffffffffffffffffffffffffffffffffffffffff168152602001908152602001600020908054610632906115ae565b61063d929190610fd4565b50505050565b60008054906101000a900473ffffffffffffffffffffffffffffffffffffffff1673ffffffffffffffffffffffffffffffffffffffff163373ffffffffffffffffffffffffffffffffffffffff16146106d1576040517f08c379a00000000000000000000000000000000000000000000000000000000081526004016106c890611651565b60405180910390fd5b6003808111156106e4576106e3611195565b5b600660009054906101000a900460ff16600381111561070657610705611195565b5b03610746576040517f08c379a000000000000000000000000000000000000000000000000000000000815260040161073d9061172f565b60405180910390fd5b6002600381111561075a57610759611195565b5b600660009054906101000a900460ff16600381111561077c5761077b611195565b5b036107bc576040517f08c379a00000000000000000000000000000000000000000000000000000000081526004016107b39061179b565b60405180910390fd5b600080600480549050811015610894576000600482815481106107e2576107e16117bb565b5b9060005260206000200160009054906101000a900473ffffffffffffffffffffffffffffffffffffffff1690508073ffffffffffffffffffffffffffffffffffffffff166309dd8f876040518163ffffffff1660e01b81526004016020604051808303816000875af115801561085c573d6000803e3d6000fd5b505050506040513d601f19601f820116820180604052508101906108809190611822565b61088e576000925050610894565b60019250505b50806108d5576040517f08c379a00000000000000000000000000000000000000000000000000000000081526004016108cc90611938565b60405180910390fd5b6002600660006101000a81548160ff021916908360038111156108fb576108fa611195565b5b021790555050565b60036020528060005260406000206000915090508054610922906115ae565b80601f016020809104026020016040519081016040528092919081815260200182805461094e906115ae565b801561099b5780601f106109705761010080835404028352916020019161099b565b820191906000526020600020905b81548152906001019060200180831161097e57829003601f168201915b505050505081565b600160009054906101000a900473ffffffffffffffffffffffffffffffffffffffff1681565b600481815481106109d957600080fd5b906000526020600020016000915054906101000a900473ffffffffffffffffffffffffffffffffffffffff1681565b6000600660009054906101000a900460ff166003811115610a2c57610a2b611195565b5b905090565b6000600254905090565b60008054906101000a900473ffffffffffffffffffffffffffffffffffffffff1673ffffffffffffffffffffffffffffffffffffffff163373ffffffffffffffffffffffffffffffffffffffff1614610ac9576040517f08c379a0000000000000000000000000000000000000000000000000000000008152600401610ac090611651565b60405180910390fd5b600380811115610adc57610adb611195565b5b600660009054906101000a900460ff166003811115610afe57610afd611195565b5b03610b3e576040517f08c379a0000000000000000000000000000000000000000000000000000000008152600401610b35906119ca565b60405180910390fd5b60026003811115610b5257610b51611195565b5b600660009054906101000a900460ff166003811115610b7457610b73611195565b5b03610bb4576040517f08c379a0000000000000000000000000000000000000000000000000000000008152600401610bab90611a36565b60405180910390fd5b60016003811115610bc857610bc7611195565b5b600660009054906101000a900460ff166003811115610bea57610be9611195565b5b03610c2a576040517f08c379a0000000000000000000000000000000000000000000000000000000008152600401610c2190611aa2565b60405180910390fd5b60006003811115610c3e57610c3d611195565b5b600660009054906101000a900460ff166003811115610c6057610c5f611195565b5b03610c95576001600660006101000a81548160ff02191690836003811115610c8b57610c8a611195565b5b0217905550610cd0565b6040517f08c379a0000000000000000000000000000000000000000000000000000000008152600401610cc790611b0e565b60405180910390fd5b565b60606004805480602002602001604051908101604052809291908181526020018280548015610d5657602002820191906000526020600020905b8160009054906101000a900473ffffffffffffffffffffffffffffffffffffffff1673ffffffffffffffffffffffffffffffffffffffff1681526020019060010190808311610d0c575b5050505050905090565b60025481565b60008054906101000a900473ffffffffffffffffffffffffffffffffffffffff1673ffffffffffffffffffffffffffffffffffffffff163373ffffffffffffffffffffffffffffffffffffffff1614610df4576040517f08c379a0000000000000000000000000000000000000000000000000000000008152600401610deb90611651565b60405180910390fd5b600380811115610e0757610e06611195565b5b600660009054906101000a900460ff166003811115610e2957610e28611195565b5b03610e69576040517f08c379a0000000000000000000000000000000000000000000000000000000008152600401610e6090611b7a565b60405180910390fd5b60026003811115610e7d57610e7c611195565b5b600660009054906101000a900460ff166003811115610e9f57610e9e611195565b5b03610edf576040517f08c379a0000000000000000000000000000000000000000000000000000000008152600401610ed69061179b565b60405180910390fd5b60005b600480549050811015610fa657600060048281548110610f0557610f046117bb565b5b9060005260206000200160009054906101000a900473ffffffffffffffffffffffffffffffffffffffff1690508073ffffffffffffffffffffffffffffffffffffffff16636bfefd6b6040518163ffffffff1660e01b8152600401600060405180830381600087803b158015610f7a57600080fd5b505af1158015610f8e573d6000803e3d6000fd5b50505050508080610f9e9061187e565b915050610ee2565b506003600660006101000a81548160ff02191690836003811115610fcd57610fcc611195565b5b0217905550565b828054610fe0906115ae565b90600052602060002090601f0160209004810192826110025760008555611050565b82601f106110135780548555611050565b8280016001018555821561105057600052602060002091601f016020900482015b8281111561104f578254825591600101919060010190611034565b5b50905061105d9190611061565b5090565b5b8082111561107a576000816000905550600101611062565b5090565b600081519050919050565b600082825260208201905092915050565b60005b838110156110b857808201518184015260208101905061109d565b838111156110c7576000848401525b50505050565b6000601f19601f8301169050919050565b60006110e98261107e565b6110f38185611089565b935061110381856020860161109a565b61110c816110cd565b840191505092915050565b6000602082019050818103600083015261113181846110de565b905092915050565b600073ffffffffffffffffffffffffffffffffffffffff82169050919050565b600061116482611139565b9050919050565b61117481611159565b82525050565b600060208201905061118f600083018461116b565b92915050565b7f4e487b7100000000000000000000000000000000000000000000000000000000600052602160045260246000fd5b600481106111d5576111d4611195565b5b50565b60008190506111e6826111c4565b919050565b60006111f6826111d8565b9050919050565b611206816111eb565b82525050565b600060208201905061122160008301846111fd565b92915050565b6000604051905090565b600080fd5b600080fd5b600080fd5b600080fd5b7f4e487b7100000000000000000000000000000000000000000000000000000000600052604160045260246000fd5b61127d826110cd565b810181811067ffffffffffffffff8211171561129c5761129b611245565b5b80604052505050565b60006112af611227565b90506112bb8282611274565b919050565b600067ffffffffffffffff8211156112db576112da611245565b5b6112e4826110cd565b9050602081019050919050565b82818337600083830152505050565b600061131361130e846112c0565b6112a5565b90508281526020810184848401111561132f5761132e611240565b5b61133a8482856112f1565b509392505050565b600082601f8301126113575761135661123b565b5b8135611367848260208601611300565b91505092915050565b60006020828403121561138657611385611231565b5b600082013567ffffffffffffffff8111156113a4576113a3611236565b5b6113b084828501611342565b91505092915050565b6113c281611159565b81146113cd57600080fd5b50565b6000813590506113df816113b9565b92915050565b6000602082840312156113fb576113fa611231565b5b6000611409848285016113d0565b91505092915050565b6000819050919050565b61142581611412565b811461143057600080fd5b50565b6000813590506114428161141c565b92915050565b60006020828403121561145e5761145d611231565b5b600061146c84828501611433565b91505092915050565b61147e81611412565b82525050565b60006020820190506114996000830184611475565b92915050565b600081519050919050565b600082825260208201905092915050565b6000819050602082019050919050565b6114d481611159565b82525050565b60006114e683836114cb565b60208301905092915050565b6000602082019050919050565b600061150a8261149f565b61151481856114aa565b935061151f836114bb565b8060005b8381101561155057815161153788826114da565b9750611542836114f2565b925050600181019050611523565b5085935050505092915050565b6000602082019050818103600083015261157781846114ff565b905092915050565b7f4e487b7100000000000000000000000000000000000000000000000000000000600052602260045260246000fd5b600060028204905060018216806115c657607f821691505b6020821081036115d9576115d861157f565b5b50919050565b7f4576656e74206f7065726174696f6e73206f6e6c79206170706c696361626c6560008201527f20746f206f776e65720000000000000000000000000000000000000000000000602082015250565b600061163b602983611089565b9150611646826115df565b604082019050919050565b6000602082019050818103600083015261166a8161162e565b9050919050565b6000604082019050818103600083015261168b81856110de565b905061169a602083018461116b565b9392505050565b6000815190506116b0816113b9565b92915050565b6000602082840312156116cc576116cb611231565b5b60006116da848285016116a1565b91505092915050565b7f43616e63656c6564206576656e742063616e206e6f7420626520656e64656400600082015250565b6000611719601f83611089565b9150611724826116e3565b602082019050919050565b600060208201905081810360008301526117488161170c565b9050919050565b7f4576656e7420616c726561647920656e64656400000000000000000000000000600082015250565b6000611785601383611089565b91506117908261174f565b602082019050919050565b600060208201905081810360008301526117b481611778565b9050919050565b7f4e487b7100000000000000000000000000000000000000000000000000000000600052603260045260246000fd5b60008115159050919050565b6117ff816117ea565b811461180a57600080fd5b50565b60008151905061181c816117f6565b92915050565b60006020828403121561183857611837611231565b5b60006118468482850161180d565b91505092915050565b7f4e487b7100000000000000000000000000000000000000000000000000000000600052601160045260246000fd5b600061188982611412565b91507fffffffffffffffffffffffffffffffffffffffffffffffffffffffffffffffff82036118bb576118ba61184f565b5b600182019050919050565b7f596f75206d757374207365742077696e6e696e6720706f6f6c7320696e20616c60008201527f6c206d61726b657473206265666f726520656e64696e67206576656e74000000602082015250565b6000611922603d83611089565b915061192d826118c6565b604082019050919050565b6000602082019050818103600083015261195181611915565b9050919050565b7f43616e63656c6564206576656e742063616e206e6f742062652073746172746560008201527f6400000000000000000000000000000000000000000000000000000000000000602082015250565b60006119b4602183611089565b91506119bf82611958565b604082019050919050565b600060208201905081810360008301526119e3816119a7565b9050919050565b7f456e646564206576656e742063616e206e6f7420626520737461727465640000600082015250565b6000611a20601e83611089565b9150611a2b826119ea565b602082019050919050565b60006020820190508181036000830152611a4f81611a13565b9050919050565b7f4576656e7420616c726561647920737461727465640000000000000000000000600082015250565b6000611a8c601583611089565b9150611a9782611a56565b602082019050919050565b60006020820190508181036000830152611abb81611a7f565b9050919050565b7f416e206572726f72206f63637572726564207374617274696e67206576656e74600082015250565b6000611af8602083611089565b9150611b0382611ac2565b602082019050919050565b60006020820190508181036000830152611b2781611aeb565b9050919050565b7f4576656e7420616c72656164792063616e63656c656400000000000000000000600082015250565b6000611b64601683611089565b9150611b6f82611b2e565b602082019050919050565b60006020820190508181036000830152611b9381611b57565b905091905056fea26469706673582212209c2153176182709344e29be32e2b073c1e3553f923fce9da57a60faf2b579a5864736f6c634300080d0033a2646970667358221220da765f23e3b5e2bb539a549172272958544454aa345e2537b20eae08fa273dad64736f6c634300080d0033",
  "immutableReferences": {},
  "source": "// SPDX-License-Identifier: MIT\npragma solidity >0.4.23 <0.9.0;\nimport \"./Events.sol\";\n\n\ncontract EventFactory {\n    mapping (address => address[]) public userEvents;\n\n    event EventCreated(address eventOwner, string name, address eventAddress);\n\n    address[] public events;\n\n    address public marketFactoryAddress;\n\n    address public web3betsAddress;\n\n    constructor(address _marketFactoryAddress, address _web3betsAddress){\n        marketFactoryAddress = _marketFactoryAddress;\n        web3betsAddress = _web3betsAddress;\n\n    }\n\n    function createEvent(\n        string memory _name,\n        uint _minimumStake\n    ) public returns(address) {\n        IWeb3Bets web3bets = IWeb3Bets(web3betsAddress);\n        bool isEventOwner = web3bets.isEventOwner(msg.sender);\n        require(isEventOwner, \"Only event owners can ceeate events\");\n        Events wEvent = new Events(_name, marketFactoryAddress, _minimumStake);\n        \n        userEvents[msg.sender].push(address(wEvent));\n        events.push(address(wEvent));\n        \n        emit EventCreated(msg.sender, _name, address(wEvent));\n        return address(wEvent);\n    }\n\n    function getEventsByAddress(address userAddress) public view returns(address[] memory){\n        return userEvents[userAddress];\n    }\n\n    function getAllEvents() public view returns(address[] memory){\n        return events;\n    }\n}",
  "sourcePath": "/Users/wizardom/projects/crypto/web3bets_smartcontract/contracts/EventFactory.sol",
  "compiler": {
    "name": "solc",
    "version": "0.8.13+commit.abaa5c0e.Emscripten.clang"
  },
  "schemaVersion": "3.4.7",
  "updatedAt": "2022-08-02T04:22:07.846Z",
  "networkType": "ethereum",
  "devdoc": {
    "kind": "dev",
    "methods": {},
    "version": 1
  },
  "userdoc": {
    "kind": "user",
    "methods": {},
    "version": 1
  }
}