{
  "contractName": "EventFactory",
  "abi": [
    {
      "inputs": [
        {
          "internalType": "address",
          "name": "_marketFactoryAddress",
          "type": "address"
        }
      ],
      "stateMutability": "nonpayable",
      "type": "constructor"
    },
    {
      "anonymous": false,
      "inputs": [
        {
          "indexed": false,
          "internalType": "address",
          "name": "eventOwner",
          "type": "address"
        },
        {
          "indexed": false,
          "internalType": "string",
          "name": "name",
          "type": "string"
        },
        {
          "indexed": false,
          "internalType": "address",
          "name": "eventAddress",
          "type": "address"
        }
      ],
      "name": "EventCreated",
      "type": "event"
    },
    {
      "inputs": [],
      "name": "marketFactoryAddress",
      "outputs": [
        {
          "internalType": "address",
          "name": "",
          "type": "address"
        }
      ],
      "stateMutability": "view",
      "type": "function",
      "constant": true
    },
    {
      "inputs": [
        {
          "internalType": "address",
          "name": "",
          "type": "address"
        },
        {
          "internalType": "uint256",
          "name": "",
          "type": "uint256"
        }
      ],
      "name": "userEvents",
      "outputs": [
        {
          "internalType": "address",
          "name": "",
          "type": "address"
        }
      ],
      "stateMutability": "view",
      "type": "function",
      "constant": true
    },
    {
      "inputs": [
        {
          "internalType": "string",
          "name": "_name",
          "type": "string"
        },
        {
          "internalType": "uint256",
          "name": "_minimumStake",
          "type": "uint256"
        }
      ],
      "name": "createEvent",
      "outputs": [
        {
          "internalType": "address",
          "name": "",
          "type": "address"
        }
      ],
      "stateMutability": "nonpayable",
      "type": "function"
    },
    {
      "inputs": [
        {
          "internalType": "address",
          "name": "eventAddress",
          "type": "address"
        }
      ],
      "name": "getEventDetails",
      "outputs": [
        {
          "internalType": "string",
          "name": "",
          "type": "string"
        },
        {
          "internalType": "string",
          "name": "",
          "type": "string"
        },
        {
          "internalType": "address",
          "name": "",
          "type": "address"
        }
      ],
      "stateMutability": "nonpayable",
      "type": "function"
    },
    {
      "inputs": [
        {
          "internalType": "address",
          "name": "userAddress",
          "type": "address"
        }
      ],
      "name": "getEventsByAddress",
      "outputs": [
        {
          "internalType": "address[]",
          "name": "",
          "type": "address[]"
        }
      ],
      "stateMutability": "view",
      "type": "function",
      "constant": true
    },
    {
      "inputs": [],
      "name": "getAllEvents",
      "outputs": [
        {
          "internalType": "address[]",
          "name": "",
          "type": "address[]"
        }
      ],
      "stateMutability": "view",
      "type": "function",
      "constant": true
    }
  ],
  "bytecode": "0x608060405234801561001057600080fd5b5060405161260f38038061260f833981810160405281019061003291906100dc565b80600260006101000a81548173ffffffffffffffffffffffffffffffffffffffff021916908373ffffffffffffffffffffffffffffffffffffffff16021790555050610109565b600080fd5b600073ffffffffffffffffffffffffffffffffffffffff82169050919050565b60006100a98261007e565b9050919050565b6100b98161009e565b81146100c457600080fd5b50565b6000815190506100d6816100b0565b92915050565b6000602082840312156100f2576100f1610079565b5b6000610100848285016100c7565b91505092915050565b6124f7806101186000396000f3fe60806040523480156200001157600080fd5b50600436106200006a5760003560e01c8063948e7f61146200006f5780639a4d43851462000091578063bdfc989314620000c7578063c27a500d14620000fd578063d43f036b146200011f578063f2ba8b271462000157575b600080fd5b620000796200018d565b6040516200008891906200059a565b60405180910390f35b620000af6004803603810190620000a9919062000768565b620001b3565b604051620000be91906200059a565b60405180910390f35b620000e56004803603810190620000df9190620007ff565b62000360565b604051620000f491906200059a565b60405180910390f35b62000107620003af565b60405162000116919062000914565b60405180910390f35b6200013d600480360381019062000137919062000938565b6200043f565b6040516200014e93929190620009fd565b60405180910390f35b6200017560048036038101906200016f919062000938565b62000479565b60405162000184919062000914565b60405180910390f35b600260009054906101000a900473ffffffffffffffffffffffffffffffffffffffff1681565b60008083600260009054906101000a900473ffffffffffffffffffffffffffffffffffffffff1684604051620001e99062000547565b620001f79392919062000a59565b604051809103906000f08015801562000214573d6000803e3d6000fd5b5090506000803373ffffffffffffffffffffffffffffffffffffffff1673ffffffffffffffffffffffffffffffffffffffff168152602001908152602001600020819080600181540180825580915050600190039060005260206000200160009091909190916101000a81548173ffffffffffffffffffffffffffffffffffffffff021916908373ffffffffffffffffffffffffffffffffffffffff1602179055506001819080600181540180825580915050600190039060005260206000200160009091909190916101000a81548173ffffffffffffffffffffffffffffffffffffffff021916908373ffffffffffffffffffffffffffffffffffffffff1602179055507f712a0fd8a85203aa2a7d53a268ac4914a8878d30191e800597dab93cd2b9200c3385836040516200034e9392919062000a9d565b60405180910390a18091505092915050565b600060205281600052604060002081815481106200037d57600080fd5b906000526020600020016000915091509054906101000a900473ffffffffffffffffffffffffffffffffffffffff1681565b606060018054806020026020016040519081016040528092919081815260200182805480156200043557602002820191906000526020600020905b8160009054906101000a900473ffffffffffffffffffffffffffffffffffffffff1673ffffffffffffffffffffffffffffffffffffffff1681526020019060010190808311620003ea575b5050505050905090565b6060806000808490503360405180602001604052806000815250906040518060200160405280600081525090935093509350509193909250565b60606000808373ffffffffffffffffffffffffffffffffffffffff1673ffffffffffffffffffffffffffffffffffffffff1681526020019081526020016000208054806020026020016040519081016040528092919081815260200182805480156200053b57602002820191906000526020600020905b8160009054906101000a900473ffffffffffffffffffffffffffffffffffffffff1673ffffffffffffffffffffffffffffffffffffffff1681526020019060010190808311620004f0575b50505050509050919050565b6119e08062000ae283390190565b600073ffffffffffffffffffffffffffffffffffffffff82169050919050565b6000620005828262000555565b9050919050565b620005948162000575565b82525050565b6000602082019050620005b1600083018462000589565b92915050565b6000604051905090565b600080fd5b600080fd5b600080fd5b600080fd5b6000601f19601f8301169050919050565b7f4e487b7100000000000000000000000000000000000000000000000000000000600052604160045260246000fd5b6200062082620005d5565b810181811067ffffffffffffffff82111715620006425762000641620005e6565b5b80604052505050565b600062000657620005b7565b905062000665828262000615565b919050565b600067ffffffffffffffff821115620006885762000687620005e6565b5b6200069382620005d5565b9050602081019050919050565b82818337600083830152505050565b6000620006c6620006c0846200066a565b6200064b565b905082815260208101848484011115620006e557620006e4620005d0565b5b620006f2848285620006a0565b509392505050565b600082601f830112620007125762000711620005cb565b5b813562000724848260208601620006af565b91505092915050565b6000819050919050565b62000742816200072d565b81146200074e57600080fd5b50565b600081359050620007628162000737565b92915050565b60008060408385031215620007825762000781620005c1565b5b600083013567ffffffffffffffff811115620007a357620007a2620005c6565b5b620007b185828601620006fa565b9250506020620007c48582860162000751565b9150509250929050565b620007d98162000575565b8114620007e557600080fd5b50565b600081359050620007f981620007ce565b92915050565b60008060408385031215620008195762000818620005c1565b5b60006200082985828601620007e8565b92505060206200083c8582860162000751565b9150509250929050565b600081519050919050565b600082825260208201905092915050565b6000819050602082019050919050565b6200087d8162000575565b82525050565b600062000891838362000872565b60208301905092915050565b6000602082019050919050565b6000620008b78262000846565b620008c3818562000851565b9350620008d08362000862565b8060005b8381101562000907578151620008eb888262000883565b9750620008f8836200089d565b925050600181019050620008d4565b5085935050505092915050565b60006020820190508181036000830152620009308184620008aa565b905092915050565b600060208284031215620009515762000950620005c1565b5b60006200096184828501620007e8565b91505092915050565b600081519050919050565b600082825260208201905092915050565b60005b83811015620009a657808201518184015260208101905062000989565b83811115620009b6576000848401525b50505050565b6000620009c9826200096a565b620009d5818562000975565b9350620009e781856020860162000986565b620009f281620005d5565b840191505092915050565b6000606082019050818103600083015262000a198186620009bc565b9050818103602083015262000a2f8185620009bc565b905062000a40604083018462000589565b949350505050565b62000a53816200072d565b82525050565b6000606082019050818103600083015262000a758186620009bc565b905062000a86602083018562000589565b62000a95604083018462000a48565b949350505050565b600060608201905062000ab4600083018662000589565b818103602083015262000ac88185620009bc565b905062000ad9604083018462000589565b94935050505056fe60806040523480156200001157600080fd5b50604051620019e0380380620019e08339818101604052810190620000379190620003ce565b82600690805190602001906200004f929190620000e1565b5081600160006101000a81548173ffffffffffffffffffffffffffffffffffffffff021916908373ffffffffffffffffffffffffffffffffffffffff160217905550326000806101000a81548173ffffffffffffffffffffffffffffffffffffffff021916908373ffffffffffffffffffffffffffffffffffffffff16021790555080600281905550505050620004ad565b828054620000ef9062000478565b90600052602060002090601f0160209004810192826200011357600085556200015f565b82601f106200012e57805160ff19168380011785556200015f565b828001600101855582156200015f579182015b828111156200015e57825182559160200191906001019062000141565b5b5090506200016e919062000172565b5090565b5b808211156200018d57600081600090555060010162000173565b5090565b6000604051905090565b600080fd5b600080fd5b600080fd5b600080fd5b6000601f19601f8301169050919050565b7f4e487b7100000000000000000000000000000000000000000000000000000000600052604160045260246000fd5b620001fa82620001af565b810181811067ffffffffffffffff821117156200021c576200021b620001c0565b5b80604052505050565b60006200023162000191565b90506200023f8282620001ef565b919050565b600067ffffffffffffffff821115620002625762000261620001c0565b5b6200026d82620001af565b9050602081019050919050565b60005b838110156200029a5780820151818401526020810190506200027d565b83811115620002aa576000848401525b50505050565b6000620002c7620002c18462000244565b62000225565b905082815260208101848484011115620002e657620002e5620001aa565b5b620002f38482856200027a565b509392505050565b600082601f830112620003135762000312620001a5565b5b815162000325848260208601620002b0565b91505092915050565b600073ffffffffffffffffffffffffffffffffffffffff82169050919050565b60006200035b826200032e565b9050919050565b6200036d816200034e565b81146200037957600080fd5b50565b6000815190506200038d8162000362565b92915050565b6000819050919050565b620003a88162000393565b8114620003b457600080fd5b50565b600081519050620003c8816200039d565b92915050565b600080600060608486031215620003ea57620003e96200019b565b5b600084015167ffffffffffffffff8111156200040b576200040a620001a0565b5b6200041986828701620002fb565b93505060206200042c868287016200037c565b92505060406200043f86828701620003b7565b9150509250925092565b7f4e487b7100000000000000000000000000000000000000000000000000000000600052602260045260246000fd5b600060028204905060018216806200049157607f821691505b602082108103620004a757620004a662000449565b5b50919050565b61152380620004bd6000396000f3fe608060405234801561001057600080fd5b50600436106100f55760003560e01c80638c6bc08b11610097578063d9bbd27811610066578063d9bbd27814610264578063ec2c901614610282578063ec5ffac2146102a0578063fb6c9537146102be576100f5565b80638c6bc08b146101dc578063948e7f611461020c5780639ad5c7d41461022a578063b1283e7714610234576100f5565b806320214134116100d357806320214134146101545780633c48794f146101725780637bc74225146101a2578063883c84c1146101c0576100f5565b806306fdde03146100fa578063179f907d1461011857806317d7de7c14610136575b600080fd5b6101026102c8565b60405161010f9190610ccb565b60405180910390f35b610120610356565b60405161012d9190610d2e565b60405180910390f35b61013e61037f565b60405161014b9190610ccb565b60405180910390f35b61015c610411565b6040516101699190610d2e565b60405180910390f35b61018c60048036038101906101879190610d89565b610435565b6040516101999190610e2d565b60405180910390f35b6101aa610455565b6040516101b79190610e61565b60405180910390f35b6101da60048036038101906101d59190610fdd565b610545565b005b6101f660048036038101906101f19190610d89565b6107a8565b6040516102039190610ccb565b60405180910390f35b610214610848565b6040516102219190610d2e565b60405180910390f35b61023261086e565b005b61024e60048036038101906102499190611039565b6108fe565b60405161025b9190610d2e565b60405180910390f35b61026c61093d565b6040516102799190610e61565b60405180910390f35b61028a610947565b6040516102979190611124565b60405180910390f35b6102a86109d5565b6040516102b59190610e61565b60405180910390f35b6102c66109db565b005b600680546102d590611175565b80601f016020809104026020016040519081016040528092919081815260200182805461030190611175565b801561034e5780601f106103235761010080835404028352916020019161034e565b820191906000526020600020905b81548152906001019060200180831161033157829003601f168201915b505050505081565b60008060009054906101000a900473ffffffffffffffffffffffffffffffffffffffff16905090565b60606006805461038e90611175565b80601f01602080910402602001604051908101604052809291908181526020018280546103ba90611175565b80156104075780601f106103dc57610100808354040283529160200191610407565b820191906000526020600020905b8154815290600101906020018083116103ea57829003601f168201915b5050505050905090565b60008054906101000a900473ffffffffffffffffffffffffffffffffffffffff1681565b60046020528060005260406000206000915054906101000a900460ff1681565b60008060005b60058054905081101561053d5760006005828154811061047e5761047d6111a6565b5b9060005260206000200160009054906101000a900473ffffffffffffffffffffffffffffffffffffffff1690508073ffffffffffffffffffffffffffffffffffffffff16637bc742256040518163ffffffff1660e01b81526004016020604051808303816000875af11580156104f8573d6000803e3d6000fd5b505050506040513d601f19601f8201168201806040525081019061051c91906111ea565b836105279190611246565b92505080806105359061129c565b91505061045b565b508091505090565b60008054906101000a900473ffffffffffffffffffffffffffffffffffffffff1673ffffffffffffffffffffffffffffffffffffffff163273ffffffffffffffffffffffffffffffffffffffff16146105d3576040517f08c379a00000000000000000000000000000000000000000000000000000000081526004016105ca90611356565b60405180910390fd5b6000600160009054906101000a900473ffffffffffffffffffffffffffffffffffffffff16905060008173ffffffffffffffffffffffffffffffffffffffff1663d3caedfb8530866040518463ffffffff1660e01b815260040161063993929190611376565b6020604051808303816000875af1158015610658573d6000803e3d6000fd5b505050506040513d601f19601f8201168201806040525081019061067c91906113c9565b90506005819080600181540180825580915050600190039060005260206000200160009091909190916101000a81548173ffffffffffffffffffffffffffffffffffffffff021916908373ffffffffffffffffffffffffffffffffffffffff1602179055506006600360008373ffffffffffffffffffffffffffffffffffffffff1673ffffffffffffffffffffffffffffffffffffffff16815260200190815260200160002090805461072e90611175565b610739929190610b88565b506000600460008373ffffffffffffffffffffffffffffffffffffffff1673ffffffffffffffffffffffffffffffffffffffff16815260200190815260200160002060006101000a81548160ff0219169083600181111561079d5761079c610db6565b5b021790555050505050565b600360205280600052604060002060009150905080546107c790611175565b80601f01602080910402602001604051908101604052809291908181526020018280546107f390611175565b80156108405780601f1061081557610100808354040283529160200191610840565b820191906000526020600020905b81548152906001019060200180831161082357829003601f168201915b505050505081565b600160009054906101000a900473ffffffffffffffffffffffffffffffffffffffff1681565b60008054906101000a900473ffffffffffffffffffffffffffffffffffffffff1673ffffffffffffffffffffffffffffffffffffffff163273ffffffffffffffffffffffffffffffffffffffff16146108fc576040517f08c379a00000000000000000000000000000000000000000000000000000000081526004016108f390611356565b60405180910390fd5b565b6005818154811061090e57600080fd5b906000526020600020016000915054906101000a900473ffffffffffffffffffffffffffffffffffffffff1681565b6000600254905090565b606060058054806020026020016040519081016040528092919081815260200182805480156109cb57602002820191906000526020600020905b8160009054906101000a900473ffffffffffffffffffffffffffffffffffffffff1673ffffffffffffffffffffffffffffffffffffffff1681526020019060010190808311610981575b5050505050905090565b60025481565b60008054906101000a900473ffffffffffffffffffffffffffffffffffffffff1673ffffffffffffffffffffffffffffffffffffffff163273ffffffffffffffffffffffffffffffffffffffff1614610a69576040517f08c379a0000000000000000000000000000000000000000000000000000000008152600401610a6090611356565b60405180910390fd5b6000805b600580549050811015610b4457600060058281548110610a9057610a8f6111a6565b5b9060005260206000200160009054906101000a900473ffffffffffffffffffffffffffffffffffffffff1690508073ffffffffffffffffffffffffffffffffffffffff166309dd8f876040518163ffffffff1660e01b81526004016020604051808303816000875af1158015610b0a573d6000803e3d6000fd5b505050506040513d601f19601f82011682018060405250810190610b2e919061142e565b9250508080610b3c9061129c565b915050610a6d565b5080610b85576040517f08c379a0000000000000000000000000000000000000000000000000000000008152600401610b7c906114cd565b60405180910390fd5b50565b828054610b9490611175565b90600052602060002090601f016020900481019282610bb65760008555610c04565b82601f10610bc75780548555610c04565b82800160010185558215610c0457600052602060002091601f016020900482015b82811115610c03578254825591600101919060010190610be8565b5b509050610c119190610c15565b5090565b5b80821115610c2e576000816000905550600101610c16565b5090565b600081519050919050565b600082825260208201905092915050565b60005b83811015610c6c578082015181840152602081019050610c51565b83811115610c7b576000848401525b50505050565b6000601f19601f8301169050919050565b6000610c9d82610c32565b610ca78185610c3d565b9350610cb7818560208601610c4e565b610cc081610c81565b840191505092915050565b60006020820190508181036000830152610ce58184610c92565b905092915050565b600073ffffffffffffffffffffffffffffffffffffffff82169050919050565b6000610d1882610ced565b9050919050565b610d2881610d0d565b82525050565b6000602082019050610d436000830184610d1f565b92915050565b6000604051905090565b600080fd5b600080fd5b610d6681610d0d565b8114610d7157600080fd5b50565b600081359050610d8381610d5d565b92915050565b600060208284031215610d9f57610d9e610d53565b5b6000610dad84828501610d74565b91505092915050565b7f4e487b7100000000000000000000000000000000000000000000000000000000600052602160045260246000fd5b60028110610df657610df5610db6565b5b50565b6000819050610e0782610de5565b919050565b6000610e1782610df9565b9050919050565b610e2781610e0c565b82525050565b6000602082019050610e426000830184610e1e565b92915050565b6000819050919050565b610e5b81610e48565b82525050565b6000602082019050610e766000830184610e52565b92915050565b600080fd5b600080fd5b7f4e487b7100000000000000000000000000000000000000000000000000000000600052604160045260246000fd5b610ebe82610c81565b810181811067ffffffffffffffff82111715610edd57610edc610e86565b5b80604052505050565b6000610ef0610d49565b9050610efc8282610eb5565b919050565b600067ffffffffffffffff821115610f1c57610f1b610e86565b5b610f2582610c81565b9050602081019050919050565b82818337600083830152505050565b6000610f54610f4f84610f01565b610ee6565b905082815260208101848484011115610f7057610f6f610e81565b5b610f7b848285610f32565b509392505050565b600082601f830112610f9857610f97610e7c565b5b8135610fa8848260208601610f41565b91505092915050565b610fba81610e48565b8114610fc557600080fd5b50565b600081359050610fd781610fb1565b92915050565b60008060408385031215610ff457610ff3610d53565b5b600083013567ffffffffffffffff81111561101257611011610d58565b5b61101e85828601610f83565b925050602061102f85828601610fc8565b9150509250929050565b60006020828403121561104f5761104e610d53565b5b600061105d84828501610fc8565b91505092915050565b600081519050919050565b600082825260208201905092915050565b6000819050602082019050919050565b61109b81610d0d565b82525050565b60006110ad8383611092565b60208301905092915050565b6000602082019050919050565b60006110d182611066565b6110db8185611071565b93506110e683611082565b8060005b838110156111175781516110fe88826110a1565b9750611109836110b9565b9250506001810190506110ea565b5085935050505092915050565b6000602082019050818103600083015261113e81846110c6565b905092915050565b7f4e487b7100000000000000000000000000000000000000000000000000000000600052602260045260246000fd5b6000600282049050600182168061118d57607f821691505b6020821081036111a05761119f611146565b5b50919050565b7f4e487b7100000000000000000000000000000000000000000000000000000000600052603260045260246000fd5b6000815190506111e481610fb1565b92915050565b600060208284031215611200576111ff610d53565b5b600061120e848285016111d5565b91505092915050565b7f4e487b7100000000000000000000000000000000000000000000000000000000600052601160045260246000fd5b600061125182610e48565b915061125c83610e48565b9250827fffffffffffffffffffffffffffffffffffffffffffffffffffffffffffffffff0382111561129157611290611217565b5b828201905092915050565b60006112a782610e48565b91507fffffffffffffffffffffffffffffffffffffffffffffffffffffffffffffffff82036112d9576112d8611217565b5b600182019050919050565b7f4576656e74206f7065726174696f6e73206f6e6c79206170706c696361626c6560008201527f20746f206f776e65720000000000000000000000000000000000000000000000602082015250565b6000611340602983610c3d565b915061134b826112e4565b604082019050919050565b6000602082019050818103600083015261136f81611333565b9050919050565b600060608201905081810360008301526113908186610c92565b905061139f6020830185610d1f565b6113ac6040830184610e52565b949350505050565b6000815190506113c381610d5d565b92915050565b6000602082840312156113df576113de610d53565b5b60006113ed848285016113b4565b91505092915050565b60008115159050919050565b61140b816113f6565b811461141657600080fd5b50565b60008151905061142881611402565b92915050565b60006020828403121561144457611443610d53565b5b600061145284828501611419565b91505092915050565b7f596f75206d75737420736574746c6520616c6c206d61726b657473206265666f60008201527f72652063616e63656c696e67206576656e740000000000000000000000000000602082015250565b60006114b7603283610c3d565b91506114c28261145b565b604082019050919050565b600060208201905081810360008301526114e6816114aa565b905091905056fea26469706673582212200b3f012c5f8ebfa0593734f2a6aed4d5acc0f57b0488afb44f0986562c063e4264736f6c634300080d0033a2646970667358221220e485d5792e22eba9db2c8ad4b078ae7c6923f889ab829d56d0ff8a54b81eb73964736f6c634300080d0033",
  "immutableReferences": {},
  "source": "// SPDX-License-Identifier: MIT\npragma solidity >0.4.23 <0.9.0;\nimport \"./Events.sol\";\n\n\ncontract EventFactory {\n    mapping (address => address[]) public userEvents;\n\n    event EventCreated(address eventOwner, string name, address eventAddress);\n\n    struct EventDetail {\n        string name;\n        mapping(string => MarketDetail[]) markets;\n    }\n\n    struct MarketDetail {\n        string name;\n        mapping(string => PoolDetail[]) pool;\n    }\n\n    struct PoolDetail {\n        string name;\n        uint noOfStakes;\n        uint totalStake;\n    }\n\n    address[] private _events;\n\n    address public marketFactoryAddress;\n\n    constructor(address _marketFactoryAddress){\n        marketFactoryAddress = _marketFactoryAddress;\n    }\n\n    function createEvent(\n        string memory _name,\n        uint _minimumStake\n    ) public returns(address) {\n        Events wEvent = new Events(_name, marketFactoryAddress, _minimumStake);\n        \n        userEvents[msg.sender].push(address(wEvent));\n        _events.push(address(wEvent));\n        \n        emit EventCreated(msg.sender, _name, address(wEvent));\n        return address(wEvent);\n    }\n\n    function getEventDetails(address eventAddress) public returns(string memory, string memory, address) {\n\n        Events singleEvent = Events(eventAddress);\n\n        // TODO: Add fetching single event\n        return (\"\",\"\",msg.sender);\n    }\n\n\n    function getEventsByAddress(address userAddress) public view returns(address[] memory){\n        return userEvents[userAddress];\n    }\n\n    function getAllEvents() public view returns(address[] memory){\n        return _events;\n    }\n}",
  "sourcePath": "/Users/wizardom/projects/crypto/web3bets_smartcontract/contracts/EventFactory.sol",
  "compiler": {
    "name": "solc",
    "version": "0.8.13+commit.abaa5c0e.Emscripten.clang"
  },
  "schemaVersion": "3.4.7",
  "updatedAt": "2022-07-25T11:22:14.918Z",
  "networkType": "ethereum",
  "devdoc": {
    "kind": "dev",
    "methods": {},
    "version": 1
  },
  "userdoc": {
    "kind": "user",
    "methods": {},
    "version": 1
  }
}