{
  "contractName": "EventFactory",
  "abi": [
    {
      "inputs": [
        {
          "internalType": "address",
          "name": "_marketFactoryAddress",
          "type": "address"
        },
        {
          "internalType": "address",
          "name": "_web3betsAddress",
          "type": "address"
        }
      ],
      "stateMutability": "nonpayable",
      "type": "constructor"
    },
    {
      "anonymous": false,
      "inputs": [
        {
          "indexed": false,
          "internalType": "address",
          "name": "eventOwner",
          "type": "address"
        },
        {
          "indexed": false,
          "internalType": "string",
          "name": "name",
          "type": "string"
        },
        {
          "indexed": false,
          "internalType": "address",
          "name": "eventAddress",
          "type": "address"
        }
      ],
      "name": "EventCreated",
      "type": "event"
    },
    {
      "inputs": [
        {
          "internalType": "uint256",
          "name": "",
          "type": "uint256"
        }
      ],
      "name": "events",
      "outputs": [
        {
          "internalType": "address",
          "name": "",
          "type": "address"
        }
      ],
      "stateMutability": "view",
      "type": "function",
      "constant": true
    },
    {
      "inputs": [],
      "name": "marketFactoryAddress",
      "outputs": [
        {
          "internalType": "address",
          "name": "",
          "type": "address"
        }
      ],
      "stateMutability": "view",
      "type": "function",
      "constant": true
    },
    {
      "inputs": [
        {
          "internalType": "address",
          "name": "",
          "type": "address"
        },
        {
          "internalType": "uint256",
          "name": "",
          "type": "uint256"
        }
      ],
      "name": "userEvents",
      "outputs": [
        {
          "internalType": "address",
          "name": "",
          "type": "address"
        }
      ],
      "stateMutability": "view",
      "type": "function",
      "constant": true
    },
    {
      "inputs": [],
      "name": "web3betsAddress",
      "outputs": [
        {
          "internalType": "address",
          "name": "",
          "type": "address"
        }
      ],
      "stateMutability": "view",
      "type": "function",
      "constant": true
    },
    {
      "inputs": [
        {
          "internalType": "string",
          "name": "_name",
          "type": "string"
        },
        {
          "internalType": "uint256",
          "name": "_minimumStake",
          "type": "uint256"
        }
      ],
      "name": "createEvent",
      "outputs": [
        {
          "internalType": "address",
          "name": "",
          "type": "address"
        }
      ],
      "stateMutability": "nonpayable",
      "type": "function"
    },
    {
      "inputs": [
        {
          "internalType": "address",
          "name": "userAddress",
          "type": "address"
        }
      ],
      "name": "getEventsByAddress",
      "outputs": [
        {
          "internalType": "address[]",
          "name": "",
          "type": "address[]"
        }
      ],
      "stateMutability": "view",
      "type": "function",
      "constant": true
    },
    {
      "inputs": [],
      "name": "getAllEvents",
      "outputs": [
        {
          "internalType": "address[]",
          "name": "",
          "type": "address[]"
        }
      ],
      "stateMutability": "view",
      "type": "function",
      "constant": true
    }
  ],
  "bytecode": "0x608060405234801561001057600080fd5b50604051620034ce380380620034ce83398181016040528101906100349190610120565b81600260006101000a81548173ffffffffffffffffffffffffffffffffffffffff021916908373ffffffffffffffffffffffffffffffffffffffff16021790555080600360006101000a81548173ffffffffffffffffffffffffffffffffffffffff021916908373ffffffffffffffffffffffffffffffffffffffff1602179055505050610160565b600080fd5b600073ffffffffffffffffffffffffffffffffffffffff82169050919050565b60006100ed826100c2565b9050919050565b6100fd816100e2565b811461010857600080fd5b50565b60008151905061011a816100f4565b92915050565b60008060408385031215610137576101366100bd565b5b60006101458582860161010b565b92505060206101568582860161010b565b9150509250929050565b61335e80620001706000396000f3fe60806040523480156200001157600080fd5b5060043610620000885760003560e01c8063bdfc98931162000063578063bdfc9893146200011b578063c27a500d1462000151578063e56afe831462000173578063f2ba8b2714620001955762000088565b80630b791430146200008d578063948e7f6114620000c35780639a4d438514620000e5575b600080fd5b620000ab6004803603810190620000a59190620006ff565b620001cb565b604051620000ba919062000776565b60405180910390f35b620000cd6200020b565b604051620000dc919062000776565b60405180910390f35b620001036004803603810190620000fd9190620008f5565b62000231565b60405162000112919062000776565b60405180910390f35b6200013960048036038101906200013391906200098c565b620004cf565b60405162000148919062000776565b60405180910390f35b6200015b6200051e565b6040516200016a919062000aa1565b60405180910390f35b6200017d620005ae565b6040516200018c919062000776565b60405180910390f35b620001b36004803603810190620001ad919062000ac5565b620005d4565b604051620001c2919062000aa1565b60405180910390f35b60018181548110620001dc57600080fd5b906000526020600020016000915054906101000a900473ffffffffffffffffffffffffffffffffffffffff1681565b600260009054906101000a900473ffffffffffffffffffffffffffffffffffffffff1681565b600080600360009054906101000a900473ffffffffffffffffffffffffffffffffffffffff16905060008173ffffffffffffffffffffffffffffffffffffffff1663eb803584336040518263ffffffff1660e01b815260040162000296919062000776565b6020604051808303816000875af1158015620002b6573d6000803e3d6000fd5b505050506040513d601f19601f82011682018060405250810190620002dc919062000b34565b90508062000321576040517f08c379a0000000000000000000000000000000000000000000000000000000008152600401620003189062000bed565b60405180910390fd5b600085600260009054906101000a900473ffffffffffffffffffffffffffffffffffffffff16866040516200035690620006a2565b620003649392919062000c98565b604051809103906000f08015801562000381573d6000803e3d6000fd5b5090506000803373ffffffffffffffffffffffffffffffffffffffff1673ffffffffffffffffffffffffffffffffffffffff168152602001908152602001600020819080600181540180825580915050600190039060005260206000200160009091909190916101000a81548173ffffffffffffffffffffffffffffffffffffffff021916908373ffffffffffffffffffffffffffffffffffffffff1602179055506001819080600181540180825580915050600190039060005260206000200160009091909190916101000a81548173ffffffffffffffffffffffffffffffffffffffff021916908373ffffffffffffffffffffffffffffffffffffffff1602179055507f712a0fd8a85203aa2a7d53a268ac4914a8878d30191e800597dab93cd2b9200c338783604051620004bb9392919062000cdc565b60405180910390a180935050505092915050565b60006020528160005260406000208181548110620004ec57600080fd5b906000526020600020016000915091509054906101000a900473ffffffffffffffffffffffffffffffffffffffff1681565b60606001805480602002602001604051908101604052809291908181526020018280548015620005a457602002820191906000526020600020905b8160009054906101000a900473ffffffffffffffffffffffffffffffffffffffff1673ffffffffffffffffffffffffffffffffffffffff168152602001906001019080831162000559575b5050505050905090565b600360009054906101000a900473ffffffffffffffffffffffffffffffffffffffff1681565b60606000808373ffffffffffffffffffffffffffffffffffffffff1673ffffffffffffffffffffffffffffffffffffffff1681526020019081526020016000208054806020026020016040519081016040528092919081815260200182805480156200069657602002820191906000526020600020905b8160009054906101000a900473ffffffffffffffffffffffffffffffffffffffff1673ffffffffffffffffffffffffffffffffffffffff16815260200190600101908083116200064b575b50505050509050919050565b6126088062000d2183390190565b6000604051905090565b600080fd5b600080fd5b6000819050919050565b620006d981620006c4565b8114620006e557600080fd5b50565b600081359050620006f981620006ce565b92915050565b600060208284031215620007185762000717620006ba565b5b60006200072884828501620006e8565b91505092915050565b600073ffffffffffffffffffffffffffffffffffffffff82169050919050565b60006200075e8262000731565b9050919050565b620007708162000751565b82525050565b60006020820190506200078d600083018462000765565b92915050565b600080fd5b600080fd5b6000601f19601f8301169050919050565b7f4e487b7100000000000000000000000000000000000000000000000000000000600052604160045260246000fd5b620007e8826200079d565b810181811067ffffffffffffffff821117156200080a5762000809620007ae565b5b80604052505050565b60006200081f620006b0565b90506200082d8282620007dd565b919050565b600067ffffffffffffffff82111562000850576200084f620007ae565b5b6200085b826200079d565b9050602081019050919050565b82818337600083830152505050565b60006200088e620008888462000832565b62000813565b905082815260208101848484011115620008ad57620008ac62000798565b5b620008ba84828562000868565b509392505050565b600082601f830112620008da57620008d962000793565b5b8135620008ec84826020860162000877565b91505092915050565b600080604083850312156200090f576200090e620006ba565b5b600083013567ffffffffffffffff81111562000930576200092f620006bf565b5b6200093e85828601620008c2565b92505060206200095185828601620006e8565b9150509250929050565b620009668162000751565b81146200097257600080fd5b50565b60008135905062000986816200095b565b92915050565b60008060408385031215620009a657620009a5620006ba565b5b6000620009b68582860162000975565b9250506020620009c985828601620006e8565b9150509250929050565b600081519050919050565b600082825260208201905092915050565b6000819050602082019050919050565b62000a0a8162000751565b82525050565b600062000a1e8383620009ff565b60208301905092915050565b6000602082019050919050565b600062000a4482620009d3565b62000a508185620009de565b935062000a5d83620009ef565b8060005b8381101562000a9457815162000a78888262000a10565b975062000a858362000a2a565b92505060018101905062000a61565b5085935050505092915050565b6000602082019050818103600083015262000abd818462000a37565b905092915050565b60006020828403121562000ade5762000add620006ba565b5b600062000aee8482850162000975565b91505092915050565b60008115159050919050565b62000b0e8162000af7565b811462000b1a57600080fd5b50565b60008151905062000b2e8162000b03565b92915050565b60006020828403121562000b4d5762000b4c620006ba565b5b600062000b5d8482850162000b1d565b91505092915050565b600082825260208201905092915050565b7f4f6e6c79206576656e74206f776e6572732063616e206365656174652065766560008201527f6e74730000000000000000000000000000000000000000000000000000000000602082015250565b600062000bd560238362000b66565b915062000be28262000b77565b604082019050919050565b6000602082019050818103600083015262000c088162000bc6565b9050919050565b600081519050919050565b60005b8381101562000c3a57808201518184015260208101905062000c1d565b60008484015250505050565b600062000c538262000c0f565b62000c5f818562000b66565b935062000c7181856020860162000c1a565b62000c7c816200079d565b840191505092915050565b62000c9281620006c4565b82525050565b6000606082019050818103600083015262000cb4818662000c46565b905062000cc5602083018562000765565b62000cd4604083018462000c87565b949350505050565b600060608201905062000cf3600083018662000765565b818103602083015262000d07818562000c46565b905062000d18604083018462000765565b94935050505056fe60806040526000600660006101000a81548160ff021916908360038111156200002d576200002c62000153565b5b02179055503480156200003f57600080fd5b5060405162002608380380620026088339818101604052810190620000659190620003b5565b6402540be400811015620000b0576040517f08c379a0000000000000000000000000000000000000000000000000000000008152600401620000a790620004dd565b60405180910390fd5b8260059081620000c1919062000740565b5081600160006101000a81548173ffffffffffffffffffffffffffffffffffffffff021916908373ffffffffffffffffffffffffffffffffffffffff160217905550326000806101000a81548173ffffffffffffffffffffffffffffffffffffffff021916908373ffffffffffffffffffffffffffffffffffffffff1602179055508060028190555050505062000827565b7f4e487b7100000000000000000000000000000000000000000000000000000000600052602160045260246000fd5b6000604051905090565b600080fd5b600080fd5b600080fd5b600080fd5b6000601f19601f8301169050919050565b7f4e487b7100000000000000000000000000000000000000000000000000000000600052604160045260246000fd5b620001eb82620001a0565b810181811067ffffffffffffffff821117156200020d576200020c620001b1565b5b80604052505050565b60006200022262000182565b9050620002308282620001e0565b919050565b600067ffffffffffffffff821115620002535762000252620001b1565b5b6200025e82620001a0565b9050602081019050919050565b60005b838110156200028b5780820151818401526020810190506200026e565b60008484015250505050565b6000620002ae620002a88462000235565b62000216565b905082815260208101848484011115620002cd57620002cc6200019b565b5b620002da8482856200026b565b509392505050565b600082601f830112620002fa57620002f962000196565b5b81516200030c84826020860162000297565b91505092915050565b600073ffffffffffffffffffffffffffffffffffffffff82169050919050565b6000620003428262000315565b9050919050565b620003548162000335565b81146200036057600080fd5b50565b600081519050620003748162000349565b92915050565b6000819050919050565b6200038f816200037a565b81146200039b57600080fd5b50565b600081519050620003af8162000384565b92915050565b600080600060608486031215620003d157620003d06200018c565b5b600084015167ffffffffffffffff811115620003f257620003f162000191565b5b6200040086828701620002e2565b9350506020620004138682870162000363565b925050604062000426868287016200039e565b9150509250925092565b600082825260208201905092915050565b7f4d696e696d756d207374616b6520666f72206372656174696e6720616e20657660008201527f656e74206d7573742062652067726561746572207468616e203130303030303060208201527f3030303020776569000000000000000000000000000000000000000000000000604082015250565b6000620004c560488362000430565b9150620004d28262000441565b606082019050919050565b60006020820190508181036000830152620004f881620004b6565b9050919050565b600081519050919050565b7f4e487b7100000000000000000000000000000000000000000000000000000000600052602260045260246000fd5b600060028204905060018216806200055257607f821691505b6020821081036200056857620005676200050a565b5b50919050565b60008190508160005260206000209050919050565b60006020601f8301049050919050565b600082821b905092915050565b600060088302620005d27fffffffffffffffffffffffffffffffffffffffffffffffffffffffffffffffff8262000593565b620005de868362000593565b95508019841693508086168417925050509392505050565b6000819050919050565b6000620006216200061b62000615846200037a565b620005f6565b6200037a565b9050919050565b6000819050919050565b6200063d8362000600565b620006556200064c8262000628565b848454620005a0565b825550505050565b600090565b6200066c6200065d565b6200067981848462000632565b505050565b5b81811015620006a1576200069560008262000662565b6001810190506200067f565b5050565b601f821115620006f057620006ba816200056e565b620006c58462000583565b81016020851015620006d5578190505b620006ed620006e48562000583565b8301826200067e565b50505b505050565b600082821c905092915050565b60006200071560001984600802620006f5565b1980831691505092915050565b600062000730838362000702565b9150826002028217905092915050565b6200074b82620004ff565b67ffffffffffffffff811115620007675762000766620001b1565b5b62000773825462000539565b62000780828285620006a5565b600060209050601f831160018114620007b85760008415620007a3578287015190505b620007af858262000722565b8655506200081f565b601f198416620007c8866200056e565b60005b82811015620007f257848901518255600182019150602085019450602081019050620007cb565b868310156200081257848901516200080e601f89168262000702565b8355505b6001600288020188555050505b505050505050565b611dd180620008376000396000f3fe608060405234801561001057600080fd5b50600436106101005760003560e01c8063948e7f6111610097578063e2fd38e911610066578063e2fd38e91461027b578063ec2c901614610285578063ec5ffac2146102a3578063fb6c9537146102c157610100565b8063948e7f61146101f1578063b1283e771461020f578063b75b25ec1461023f578063d9bbd2781461025d57610100565b806320214134116100d3578063202141341461017d57806354888f551461019b57806386ec6177146101b75780638c6bc08b146101c157610100565b806306fdde0314610105578063179f907d1461012357806317d7de7c14610141578063200d2ed21461015f575b600080fd5b61010d6102cb565b60405161011a9190611059565b60405180910390f35b61012b610359565b60405161013891906110bc565b60405180910390f35b610149610382565b6040516101569190611059565b60405180910390f35b610167610414565b604051610174919061114e565b60405180910390f35b610185610427565b60405161019291906110bc565b60405180910390f35b6101b560048036038101906101b091906112b2565b61044b565b005b6101bf610638565b005b6101db60048036038101906101d69190611327565b6108f8565b6040516101e89190611059565b60405180910390f35b6101f9610998565b60405161020691906110bc565b60405180910390f35b6102296004803603810190610224919061138a565b6109be565b60405161023691906110bc565b60405180910390f35b6102476109fd565b60405161025491906113c6565b60405180910390f35b610265610a26565b60405161027291906113c6565b60405180910390f35b610283610a30565b005b61028d610cc7565b60405161029a919061149f565b60405180910390f35b6102ab610d55565b6040516102b891906113c6565b60405180910390f35b6102c9610d5b565b005b600580546102d8906114f0565b80601f0160208091040260200160405190810160405280929190818152602001828054610304906114f0565b80156103515780601f1061032657610100808354040283529160200191610351565b820191906000526020600020905b81548152906001019060200180831161033457829003601f168201915b505050505081565b60008060009054906101000a900473ffffffffffffffffffffffffffffffffffffffff16905090565b606060058054610391906114f0565b80601f01602080910402602001604051908101604052809291908181526020018280546103bd906114f0565b801561040a5780601f106103df5761010080835404028352916020019161040a565b820191906000526020600020905b8154815290600101906020018083116103ed57829003601f168201915b5050505050905090565b600660009054906101000a900460ff1681565b60008054906101000a900473ffffffffffffffffffffffffffffffffffffffff1681565b60008054906101000a900473ffffffffffffffffffffffffffffffffffffffff1673ffffffffffffffffffffffffffffffffffffffff163373ffffffffffffffffffffffffffffffffffffffff16146104d9576040517f08c379a00000000000000000000000000000000000000000000000000000000081526004016104d090611593565b60405180910390fd5b6000600160009054906101000a900473ffffffffffffffffffffffffffffffffffffffff16905060008173ffffffffffffffffffffffffffffffffffffffff1663bf1f167d84306040518363ffffffff1660e01b815260040161053d9291906115b3565b6020604051808303816000875af115801561055c573d6000803e3d6000fd5b505050506040513d601f19601f8201168201806040525081019061058091906115f8565b90506004819080600181540180825580915050600190039060005260206000200160009091909190916101000a81548173ffffffffffffffffffffffffffffffffffffffff021916908373ffffffffffffffffffffffffffffffffffffffff1602179055506005600360008373ffffffffffffffffffffffffffffffffffffffff1673ffffffffffffffffffffffffffffffffffffffff168152602001908152602001600020908161063291906117fc565b50505050565b60008054906101000a900473ffffffffffffffffffffffffffffffffffffffff1673ffffffffffffffffffffffffffffffffffffffff163373ffffffffffffffffffffffffffffffffffffffff16146106c6576040517f08c379a00000000000000000000000000000000000000000000000000000000081526004016106bd90611593565b60405180910390fd5b6003808111156106d9576106d86110d7565b5b600660009054906101000a900460ff1660038111156106fb576106fa6110d7565b5b0361073b576040517f08c379a000000000000000000000000000000000000000000000000000000000815260040161073290611930565b60405180910390fd5b6002600381111561074f5761074e6110d7565b5b600660009054906101000a900460ff166003811115610771576107706110d7565b5b036107b1576040517f08c379a00000000000000000000000000000000000000000000000000000000081526004016107a89061199c565b60405180910390fd5b600080600480549050811015610889576000600482815481106107d7576107d66119bc565b5b9060005260206000200160009054906101000a900473ffffffffffffffffffffffffffffffffffffffff1690508073ffffffffffffffffffffffffffffffffffffffff166309dd8f876040518163ffffffff1660e01b81526004016020604051808303816000875af1158015610851573d6000803e3d6000fd5b505050506040513d601f19601f820116820180604052508101906108759190611a23565b610883576000925050610889565b60019250505b50806108ca576040517f08c379a00000000000000000000000000000000000000000000000000000000081526004016108c190611b39565b60405180910390fd5b6002600660006101000a81548160ff021916908360038111156108f0576108ef6110d7565b5b021790555050565b60036020528060005260406000206000915090508054610917906114f0565b80601f0160208091040260200160405190810160405280929190818152602001828054610943906114f0565b80156109905780601f1061096557610100808354040283529160200191610990565b820191906000526020600020905b81548152906001019060200180831161097357829003601f168201915b505050505081565b600160009054906101000a900473ffffffffffffffffffffffffffffffffffffffff1681565b600481815481106109ce57600080fd5b906000526020600020016000915054906101000a900473ffffffffffffffffffffffffffffffffffffffff1681565b6000600660009054906101000a900460ff166003811115610a2157610a206110d7565b5b905090565b6000600254905090565b60008054906101000a900473ffffffffffffffffffffffffffffffffffffffff1673ffffffffffffffffffffffffffffffffffffffff163373ffffffffffffffffffffffffffffffffffffffff1614610abe576040517f08c379a0000000000000000000000000000000000000000000000000000000008152600401610ab590611593565b60405180910390fd5b600380811115610ad157610ad06110d7565b5b600660009054906101000a900460ff166003811115610af357610af26110d7565b5b03610b33576040517f08c379a0000000000000000000000000000000000000000000000000000000008152600401610b2a90611bcb565b60405180910390fd5b60026003811115610b4757610b466110d7565b5b600660009054906101000a900460ff166003811115610b6957610b686110d7565b5b03610ba9576040517f08c379a0000000000000000000000000000000000000000000000000000000008152600401610ba090611c37565b60405180910390fd5b60016003811115610bbd57610bbc6110d7565b5b600660009054906101000a900460ff166003811115610bdf57610bde6110d7565b5b03610c1f576040517f08c379a0000000000000000000000000000000000000000000000000000000008152600401610c1690611ca3565b60405180910390fd5b60006003811115610c3357610c326110d7565b5b600660009054906101000a900460ff166003811115610c5557610c546110d7565b5b03610c8a576001600660006101000a81548160ff02191690836003811115610c8057610c7f6110d7565b5b0217905550610cc5565b6040517f08c379a0000000000000000000000000000000000000000000000000000000008152600401610cbc90611d0f565b60405180910390fd5b565b60606004805480602002602001604051908101604052809291908181526020018280548015610d4b57602002820191906000526020600020905b8160009054906101000a900473ffffffffffffffffffffffffffffffffffffffff1673ffffffffffffffffffffffffffffffffffffffff1681526020019060010190808311610d01575b5050505050905090565b60025481565b60008054906101000a900473ffffffffffffffffffffffffffffffffffffffff1673ffffffffffffffffffffffffffffffffffffffff163373ffffffffffffffffffffffffffffffffffffffff1614610de9576040517f08c379a0000000000000000000000000000000000000000000000000000000008152600401610de090611593565b60405180910390fd5b600380811115610dfc57610dfb6110d7565b5b600660009054906101000a900460ff166003811115610e1e57610e1d6110d7565b5b03610e5e576040517f08c379a0000000000000000000000000000000000000000000000000000000008152600401610e5590611d7b565b60405180910390fd5b60026003811115610e7257610e716110d7565b5b600660009054906101000a900460ff166003811115610e9457610e936110d7565b5b03610ed4576040517f08c379a0000000000000000000000000000000000000000000000000000000008152600401610ecb9061199c565b60405180910390fd5b60005b600480549050811015610f9b57600060048281548110610efa57610ef96119bc565b5b9060005260206000200160009054906101000a900473ffffffffffffffffffffffffffffffffffffffff1690508073ffffffffffffffffffffffffffffffffffffffff16636bfefd6b6040518163ffffffff1660e01b8152600401600060405180830381600087803b158015610f6f57600080fd5b505af1158015610f83573d6000803e3d6000fd5b50505050508080610f9390611a7f565b915050610ed7565b506003600660006101000a81548160ff02191690836003811115610fc257610fc16110d7565b5b0217905550565b600081519050919050565b600082825260208201905092915050565b60005b83811015611003578082015181840152602081019050610fe8565b60008484015250505050565b6000601f19601f8301169050919050565b600061102b82610fc9565b6110358185610fd4565b9350611045818560208601610fe5565b61104e8161100f565b840191505092915050565b600060208201905081810360008301526110738184611020565b905092915050565b600073ffffffffffffffffffffffffffffffffffffffff82169050919050565b60006110a68261107b565b9050919050565b6110b68161109b565b82525050565b60006020820190506110d160008301846110ad565b92915050565b7f4e487b7100000000000000000000000000000000000000000000000000000000600052602160045260246000fd5b60048110611117576111166110d7565b5b50565b600081905061112882611106565b919050565b60006111388261111a565b9050919050565b6111488161112d565b82525050565b6000602082019050611163600083018461113f565b92915050565b6000604051905090565b600080fd5b600080fd5b600080fd5b600080fd5b7f4e487b7100000000000000000000000000000000000000000000000000000000600052604160045260246000fd5b6111bf8261100f565b810181811067ffffffffffffffff821117156111de576111dd611187565b5b80604052505050565b60006111f1611169565b90506111fd82826111b6565b919050565b600067ffffffffffffffff82111561121d5761121c611187565b5b6112268261100f565b9050602081019050919050565b82818337600083830152505050565b600061125561125084611202565b6111e7565b90508281526020810184848401111561127157611270611182565b5b61127c848285611233565b509392505050565b600082601f8301126112995761129861117d565b5b81356112a9848260208601611242565b91505092915050565b6000602082840312156112c8576112c7611173565b5b600082013567ffffffffffffffff8111156112e6576112e5611178565b5b6112f284828501611284565b91505092915050565b6113048161109b565b811461130f57600080fd5b50565b600081359050611321816112fb565b92915050565b60006020828403121561133d5761133c611173565b5b600061134b84828501611312565b91505092915050565b6000819050919050565b61136781611354565b811461137257600080fd5b50565b6000813590506113848161135e565b92915050565b6000602082840312156113a05761139f611173565b5b60006113ae84828501611375565b91505092915050565b6113c081611354565b82525050565b60006020820190506113db60008301846113b7565b92915050565b600081519050919050565b600082825260208201905092915050565b6000819050602082019050919050565b6114168161109b565b82525050565b6000611428838361140d565b60208301905092915050565b6000602082019050919050565b600061144c826113e1565b61145681856113ec565b9350611461836113fd565b8060005b83811015611492578151611479888261141c565b975061148483611434565b925050600181019050611465565b5085935050505092915050565b600060208201905081810360008301526114b98184611441565b905092915050565b7f4e487b7100000000000000000000000000000000000000000000000000000000600052602260045260246000fd5b6000600282049050600182168061150857607f821691505b60208210810361151b5761151a6114c1565b5b50919050565b7f4576656e74206f7065726174696f6e73206f6e6c79206170706c696361626c6560008201527f20746f206f776e65720000000000000000000000000000000000000000000000602082015250565b600061157d602983610fd4565b915061158882611521565b604082019050919050565b600060208201905081810360008301526115ac81611570565b9050919050565b600060408201905081810360008301526115cd8185611020565b90506115dc60208301846110ad565b9392505050565b6000815190506115f2816112fb565b92915050565b60006020828403121561160e5761160d611173565b5b600061161c848285016115e3565b91505092915050565b600081549050611634816114f0565b9050919050565b60008190508160005260206000209050919050565b60008190508160005260206000209050919050565b60006020601f8301049050919050565b600082821b905092915050565b6000600883026116b27fffffffffffffffffffffffffffffffffffffffffffffffffffffffffffffffff82611675565b6116bc8683611675565b95508019841693508086168417925050509392505050565b6000819050919050565b60006116f96116f46116ef84611354565b6116d4565b611354565b9050919050565b6000819050919050565b611713836116de565b61172761171f82611700565b848454611682565b825550505050565b600090565b61173c61172f565b61174781848461170a565b505050565b5b8181101561176b57611760600082611734565b60018101905061174d565b5050565b601f8211156117b0576117818161163b565b61178a84611665565b81016020851015611799578190505b6117ad6117a585611665565b83018261174c565b50505b505050565b600082821c905092915050565b60006117d3600019846008026117b5565b1980831691505092915050565b60006117ec83836117c2565b9150826002028217905092915050565b81810361180a5750506118e2565b61181382611625565b67ffffffffffffffff81111561182c5761182b611187565b5b61183682546114f0565b61184182828561176f565b6000601f831160018114611870576000841561185e578287015490505b61186885826117e0565b8655506118db565b601f19841661187e87611650565b96506118898661163b565b60005b828110156118b15784890154825560018201915060018501945060208101905061188c565b868310156118ce57848901546118ca601f8916826117c2565b8355505b6001600288020188555050505b5050505050505b565b7f43616e63656c6564206576656e742063616e206e6f7420626520656e64656400600082015250565b600061191a601f83610fd4565b9150611925826118e4565b602082019050919050565b600060208201905081810360008301526119498161190d565b9050919050565b7f4576656e7420616c726561647920656e64656400000000000000000000000000600082015250565b6000611986601383610fd4565b915061199182611950565b602082019050919050565b600060208201905081810360008301526119b581611979565b9050919050565b7f4e487b7100000000000000000000000000000000000000000000000000000000600052603260045260246000fd5b60008115159050919050565b611a00816119eb565b8114611a0b57600080fd5b50565b600081519050611a1d816119f7565b92915050565b600060208284031215611a3957611a38611173565b5b6000611a4784828501611a0e565b91505092915050565b7f4e487b7100000000000000000000000000000000000000000000000000000000600052601160045260246000fd5b6000611a8a82611354565b91507fffffffffffffffffffffffffffffffffffffffffffffffffffffffffffffffff8203611abc57611abb611a50565b5b600182019050919050565b7f596f75206d757374207365742077696e6e696e6720706f6f6c7320696e20616c60008201527f6c206d61726b657473206265666f726520656e64696e67206576656e74000000602082015250565b6000611b23603d83610fd4565b9150611b2e82611ac7565b604082019050919050565b60006020820190508181036000830152611b5281611b16565b9050919050565b7f43616e63656c6564206576656e742063616e206e6f742062652073746172746560008201527f6400000000000000000000000000000000000000000000000000000000000000602082015250565b6000611bb5602183610fd4565b9150611bc082611b59565b604082019050919050565b60006020820190508181036000830152611be481611ba8565b9050919050565b7f456e646564206576656e742063616e206e6f7420626520737461727465640000600082015250565b6000611c21601e83610fd4565b9150611c2c82611beb565b602082019050919050565b60006020820190508181036000830152611c5081611c14565b9050919050565b7f4576656e7420616c726561647920737461727465640000000000000000000000600082015250565b6000611c8d601583610fd4565b9150611c9882611c57565b602082019050919050565b60006020820190508181036000830152611cbc81611c80565b9050919050565b7f416e206572726f72206f63637572726564207374617274696e67206576656e74600082015250565b6000611cf9602083610fd4565b9150611d0482611cc3565b602082019050919050565b60006020820190508181036000830152611d2881611cec565b9050919050565b7f4576656e7420616c72656164792063616e63656c656400000000000000000000600082015250565b6000611d65601683610fd4565b9150611d7082611d2f565b602082019050919050565b60006020820190508181036000830152611d9481611d58565b905091905056fea264697066735822122020f74ff03573bc556923021d9eac6160371328e463389b53003a84633afd8e2264736f6c63430008110033a264697066735822122004c008ae1ddd3f5156dab45bc3515c0f45e6aea6f61ddaac88e778ef37c0513264736f6c63430008110033",
  "immutableReferences": {},
  "source": "// SPDX-License-Identifier: MIT\npragma solidity >0.4.23 <0.9.0;\nimport \"./Events.sol\";\n\n\ncontract EventFactory {\n    mapping (address => address[]) public userEvents;\n\n    event EventCreated(address eventOwner, string name, address eventAddress);\n\n    address[] public events;\n\n    address public marketFactoryAddress;\n\n    address public web3betsAddress;\n\n    constructor(address _marketFactoryAddress, address _web3betsAddress){\n        marketFactoryAddress = _marketFactoryAddress;\n        web3betsAddress = _web3betsAddress;\n\n    }\n\n    function createEvent(\n        string memory _name,\n        uint _minimumStake\n    ) public returns(address) {\n        IWeb3Bets web3bets = IWeb3Bets(web3betsAddress);\n        bool isEventOwner = web3bets.isEventOwner(msg.sender);\n        require(isEventOwner, \"Only event owners can ceeate events\");\n        Events wEvent = new Events(_name, marketFactoryAddress, _minimumStake);\n        \n        userEvents[msg.sender].push(address(wEvent));\n        events.push(address(wEvent));\n        \n        emit EventCreated(msg.sender, _name, address(wEvent));\n        return address(wEvent);\n    }\n\n    function getEventsByAddress(address userAddress) public view returns(address[] memory){\n        return userEvents[userAddress];\n    }\n\n    function getAllEvents() public view returns(address[] memory){\n        return events;\n    }\n}",
  "sourcePath": "/Users/wizardom/projects/crypto/web3bets_smartcontract/contracts/EventFactory.sol",
  "compiler": {
    "name": "solc",
    "version": "0.8.17+commit.8df45f5f.Emscripten.clang"
  },
  "schemaVersion": "3.4.7",
  "updatedAt": "2022-09-11T14:58:02.220Z",
  "networkType": "ethereum",
  "devdoc": {
    "kind": "dev",
    "methods": {},
    "version": 1
  },
  "userdoc": {
    "kind": "user",
    "methods": {},
    "version": 1
  }
}