{
  "contractName": "EventFactory",
  "abi": [
    {
      "anonymous": false,
      "inputs": [
        {
          "indexed": false,
          "internalType": "address",
          "name": "eventOwner",
          "type": "address"
        },
        {
          "indexed": false,
          "internalType": "string",
          "name": "name",
          "type": "string"
        },
        {
          "indexed": false,
          "internalType": "address",
          "name": "eventAddress",
          "type": "address"
        }
      ],
      "name": "EventCreated",
      "type": "event"
    },
    {
      "inputs": [],
      "name": "marketFactoryAddress",
      "outputs": [
        {
          "internalType": "address",
          "name": "",
          "type": "address"
        }
      ],
      "stateMutability": "view",
      "type": "function"
    },
    {
      "inputs": [
        {
          "internalType": "string",
          "name": "_name",
          "type": "string"
        }
      ],
      "name": "createEvent",
      "outputs": [
        {
          "internalType": "address",
          "name": "",
          "type": "address"
        }
      ],
      "stateMutability": "nonpayable",
      "type": "function"
    },
    {
      "inputs": [
        {
          "internalType": "address",
          "name": "eventAddress",
          "type": "address"
        }
      ],
      "name": "getEventDetails",
      "outputs": [
        {
          "internalType": "string",
          "name": "",
          "type": "string"
        },
        {
          "internalType": "string",
          "name": "",
          "type": "string"
        },
        {
          "internalType": "address",
          "name": "",
          "type": "address"
        }
      ],
      "stateMutability": "nonpayable",
      "type": "function"
    },
    {
      "inputs": [
        {
          "internalType": "address",
          "name": "eventAddress",
          "type": "address"
        }
      ],
      "name": "getMarketsByEvent",
      "outputs": [
        {
          "internalType": "address[]",
          "name": "markets",
          "type": "address[]"
        }
      ],
      "stateMutability": "view",
      "type": "function"
    },
    {
      "inputs": [
        {
          "internalType": "address",
          "name": "userAddress",
          "type": "address"
        }
      ],
      "name": "getEventsByAddress",
      "outputs": [
        {
          "internalType": "address[]",
          "name": "",
          "type": "address[]"
        }
      ],
      "stateMutability": "view",
      "type": "function"
    },
    {
      "inputs": [],
      "name": "getAllEvents",
      "outputs": [
        {
          "internalType": "address[]",
          "name": "",
          "type": "address[]"
        }
      ],
      "stateMutability": "view",
      "type": "function"
    }
  ],
  "bytecode": "0x608060405234801561001057600080fd5b5061202f806100206000396000f3fe60806040523480156200001157600080fd5b50600436106200006a5760003560e01c806309009fe4146200006f578063948e7f6114620000a55780639bc2bc7114620000c7578063c27a500d14620000fd578063d43f036b146200011f578063f2ba8b271462000157575b600080fd5b6200008d60048036038101906200008791906200064a565b6200018d565b6040516200009c91906200074a565b60405180910390f35b620000af6200025b565b604051620000be91906200077f565b60405180910390f35b620000e56004803603810190620000df9190620008fe565b62000281565b604051620000f491906200077f565b60405180910390f35b620001076200042b565b6040516200011691906200074a565b60405180910390f35b6200013d60048036038101906200013791906200064a565b620004bb565b6040516200014e93929190620009e2565b60405180910390f35b6200017560048036038101906200016f91906200064a565b620004f5565b6040516200018491906200074a565b60405180910390f35b60606000808373ffffffffffffffffffffffffffffffffffffffff1673ffffffffffffffffffffffffffffffffffffffff1681526020019081526020016000208054806020026020016040519081016040528092919081815260200182805480156200024f57602002820191906000526020600020905b8160009054906101000a900473ffffffffffffffffffffffffffffffffffffffff1673ffffffffffffffffffffffffffffffffffffffff168152602001906001019080831162000204575b50505050509050919050565b600260009054906101000a900473ffffffffffffffffffffffffffffffffffffffff1681565b60008082600260009054906101000a900473ffffffffffffffffffffffffffffffffffffffff16604051620002b690620005c3565b620002c392919062000a2d565b604051809103906000f080158015620002e0573d6000803e3d6000fd5b5090506000803373ffffffffffffffffffffffffffffffffffffffff1673ffffffffffffffffffffffffffffffffffffffff168152602001908152602001600020819080600181540180825580915050600190039060005260206000200160009091909190916101000a81548173ffffffffffffffffffffffffffffffffffffffff021916908373ffffffffffffffffffffffffffffffffffffffff1602179055506001819080600181540180825580915050600190039060005260206000200160009091909190916101000a81548173ffffffffffffffffffffffffffffffffffffffff021916908373ffffffffffffffffffffffffffffffffffffffff1602179055507f712a0fd8a85203aa2a7d53a268ac4914a8878d30191e800597dab93cd2b9200c3384836040516200041a9392919062000a61565b60405180910390a180915050919050565b60606001805480602002602001604051908101604052809291908181526020018280548015620004b157602002820191906000526020600020905b8160009054906101000a900473ffffffffffffffffffffffffffffffffffffffff1673ffffffffffffffffffffffffffffffffffffffff168152602001906001019080831162000466575b5050505050905090565b6060806000808490503360405180602001604052806000815250906040518060200160405280600081525090935093509350509193909250565b60606000808373ffffffffffffffffffffffffffffffffffffffff1673ffffffffffffffffffffffffffffffffffffffff168152602001908152602001600020805480602002602001604051908101604052809291908181526020018280548015620005b757602002820191906000526020600020905b8160009054906101000a900473ffffffffffffffffffffffffffffffffffffffff1673ffffffffffffffffffffffffffffffffffffffff16815260200190600101908083116200056c575b50505050509050919050565b6115548062000aa683390190565b6000604051905090565b600080fd5b600080fd5b600073ffffffffffffffffffffffffffffffffffffffff82169050919050565b60006200061282620005e5565b9050919050565b620006248162000605565b81146200063057600080fd5b50565b600081359050620006448162000619565b92915050565b600060208284031215620006635762000662620005db565b5b6000620006738482850162000633565b91505092915050565b600081519050919050565b600082825260208201905092915050565b6000819050602082019050919050565b620006b38162000605565b82525050565b6000620006c78383620006a8565b60208301905092915050565b6000602082019050919050565b6000620006ed826200067c565b620006f9818562000687565b9350620007068362000698565b8060005b838110156200073d578151620007218882620006b9565b97506200072e83620006d3565b9250506001810190506200070a565b5085935050505092915050565b60006020820190508181036000830152620007668184620006e0565b905092915050565b620007798162000605565b82525050565b60006020820190506200079660008301846200076e565b92915050565b600080fd5b600080fd5b6000601f19601f8301169050919050565b7f4e487b7100000000000000000000000000000000000000000000000000000000600052604160045260246000fd5b620007f182620007a6565b810181811067ffffffffffffffff82111715620008135762000812620007b7565b5b80604052505050565b600062000828620005d1565b9050620008368282620007e6565b919050565b600067ffffffffffffffff821115620008595762000858620007b7565b5b6200086482620007a6565b9050602081019050919050565b82818337600083830152505050565b60006200089762000891846200083b565b6200081c565b905082815260208101848484011115620008b657620008b5620007a1565b5b620008c384828562000871565b509392505050565b600082601f830112620008e357620008e26200079c565b5b8135620008f584826020860162000880565b91505092915050565b600060208284031215620009175762000916620005db565b5b600082013567ffffffffffffffff811115620009385762000937620005e0565b5b6200094684828501620008cb565b91505092915050565b600081519050919050565b600082825260208201905092915050565b60005b838110156200098b5780820151818401526020810190506200096e565b838111156200099b576000848401525b50505050565b6000620009ae826200094f565b620009ba81856200095a565b9350620009cc8185602086016200096b565b620009d781620007a6565b840191505092915050565b60006060820190508181036000830152620009fe8186620009a1565b9050818103602083015262000a148185620009a1565b905062000a2560408301846200076e565b949350505050565b6000604082019050818103600083015262000a498185620009a1565b905062000a5a60208301846200076e565b9392505050565b600060608201905062000a7860008301866200076e565b818103602083015262000a8c8185620009a1565b905062000a9d60408301846200076e565b94935050505056fe60806040523480156200001157600080fd5b50604051620015543803806200155483398181016040528101906200003791906200034b565b81600490805190602001906200004f92919062000099565b5080600160006101000a81548173ffffffffffffffffffffffffffffffffffffffff021916908373ffffffffffffffffffffffffffffffffffffffff160217905550505062000415565b828054620000a790620003e0565b90600052602060002090601f016020900481019282620000cb576000855562000117565b82601f10620000e657805160ff191683800117855562000117565b8280016001018555821562000117579182015b8281111562000116578251825591602001919060010190620000f9565b5b5090506200012691906200012a565b5090565b5b80821115620001455760008160009055506001016200012b565b5090565b6000604051905090565b600080fd5b600080fd5b600080fd5b600080fd5b6000601f19601f8301169050919050565b7f4e487b7100000000000000000000000000000000000000000000000000000000600052604160045260246000fd5b620001b28262000167565b810181811067ffffffffffffffff82111715620001d457620001d362000178565b5b80604052505050565b6000620001e962000149565b9050620001f78282620001a7565b919050565b600067ffffffffffffffff8211156200021a576200021962000178565b5b620002258262000167565b9050602081019050919050565b60005b838110156200025257808201518184015260208101905062000235565b8381111562000262576000848401525b50505050565b60006200027f6200027984620001fc565b620001dd565b9050828152602081018484840111156200029e576200029d62000162565b5b620002ab84828562000232565b509392505050565b600082601f830112620002cb57620002ca6200015d565b5b8151620002dd84826020860162000268565b91505092915050565b600073ffffffffffffffffffffffffffffffffffffffff82169050919050565b60006200031382620002e6565b9050919050565b620003258162000306565b81146200033157600080fd5b50565b60008151905062000345816200031a565b92915050565b6000806040838503121562000365576200036462000153565b5b600083015167ffffffffffffffff81111562000386576200038562000158565b5b6200039485828601620002b3565b9250506020620003a78582860162000334565b9150509250929050565b7f4e487b7100000000000000000000000000000000000000000000000000000000600052602260045260246000fd5b60006002820490506001821680620003f957607f821691505b6020821081036200040f576200040e620003b1565b5b50919050565b61112f80620004256000396000f3fe608060405234801561001057600080fd5b50600436106100a95760003560e01c80637bc74225116100715780637bc7422514610142578063948e7f61146101605780639ad5c7d41461017e578063d9bbd27814610188578063ec2c9016146101a6578063fb6c9537146101c4576100a9565b806306fdde03146100ae578063179f907d146100cc57806317d7de7c146100ea578063202141341461010857806354888f5514610126575b600080fd5b6100b66101ce565b6040516100c39190610ad6565b60405180910390f35b6100d461025c565b6040516100e19190610b39565b60405180910390f35b6100f2610285565b6040516100ff9190610ad6565b60405180910390f35b610110610317565b60405161011d9190610b39565b60405180910390f35b610140600480360381019061013b9190610c9d565b61033b565b005b61014a61060c565b6040516101579190610cff565b60405180910390f35b610168610703565b6040516101759190610b39565b60405180910390f35b610186610729565b005b6101906107b9565b60405161019d9190610cff565b60405180910390f35b6101ae6107c3565b6040516101bb9190610dd8565b60405180910390f35b6101cc61088c565b005b600480546101db90610e29565b80601f016020809104026020016040519081016040528092919081815260200182805461020790610e29565b80156102545780601f1061022957610100808354040283529160200191610254565b820191906000526020600020905b81548152906001019060200180831161023757829003601f168201915b505050505081565b60008060009054906101000a900473ffffffffffffffffffffffffffffffffffffffff16905090565b60606004805461029490610e29565b80601f01602080910402602001604051908101604052809291908181526020018280546102c090610e29565b801561030d5780601f106102e25761010080835404028352916020019161030d565b820191906000526020600020905b8154815290600101906020018083116102f057829003601f168201915b5050505050905090565b60008054906101000a900473ffffffffffffffffffffffffffffffffffffffff1681565b60008054906101000a900473ffffffffffffffffffffffffffffffffffffffff1673ffffffffffffffffffffffffffffffffffffffff163373ffffffffffffffffffffffffffffffffffffffff16146103c9576040517f08c379a00000000000000000000000000000000000000000000000000000000081526004016103c090610ecc565b60405180910390fd5b6000600160009054906101000a900473ffffffffffffffffffffffffffffffffffffffff16905060008173ffffffffffffffffffffffffffffffffffffffff1663bf1f167d84306040518363ffffffff1660e01b815260040161042d929190610eec565b6020604051808303816000875af115801561044c573d6000803e3d6000fd5b505050506040513d601f19601f820116820180604052508101906104709190610f48565b9050600060405180606001604052806004805461048c90610e29565b80601f01602080910402602001604051908101604052809291908181526020018280546104b890610e29565b80156105055780601f106104da57610100808354040283529160200191610505565b820191906000526020600020905b8154815290600101906020018083116104e857829003601f168201915b505050505081526020018373ffffffffffffffffffffffffffffffffffffffff1681526020016000600181111561053f5761053e610f75565b5b81525090506003819080600181540180825580915050600190039060005260206000209060020201600090919091909150600082015181600001908051906020019061058c92919061099a565b5060208201518160010160006101000a81548173ffffffffffffffffffffffffffffffffffffffff021916908373ffffffffffffffffffffffffffffffffffffffff16021790555060408201518160010160146101000a81548160ff021916908360018111156105ff576105fe610f75565b5b0217905550505050505050565b60008060005b6003805490508110156106fb5760006003828154811061063557610634610fa4565b5b906000526020600020906002020160010160009054906101000a900473ffffffffffffffffffffffffffffffffffffffff1690508073ffffffffffffffffffffffffffffffffffffffff16637bc742256040518163ffffffff1660e01b81526004016020604051808303816000875af11580156106b6573d6000803e3d6000fd5b505050506040513d601f19601f820116820180604052508101906106da9190610fff565b836106e5919061105b565b92505080806106f3906110b1565b915050610612565b508091505090565b600160009054906101000a900473ffffffffffffffffffffffffffffffffffffffff1681565b60008054906101000a900473ffffffffffffffffffffffffffffffffffffffff1673ffffffffffffffffffffffffffffffffffffffff163373ffffffffffffffffffffffffffffffffffffffff16146107b7576040517f08c379a00000000000000000000000000000000000000000000000000000000081526004016107ae90610ecc565b60405180910390fd5b565b6000600254905090565b60608060005b6107d161098d565b811015610884576000600382815481106107ee576107ed610fa4565b5b906000526020600020906002020160010160009054906101000a900473ffffffffffffffffffffffffffffffffffffffff1690508083838151811061083657610835610fa4565b5b602002602001019073ffffffffffffffffffffffffffffffffffffffff16908173ffffffffffffffffffffffffffffffffffffffff168152505050808061087c906110b1565b9150506107c9565b508091505090565b60008054906101000a900473ffffffffffffffffffffffffffffffffffffffff1673ffffffffffffffffffffffffffffffffffffffff163373ffffffffffffffffffffffffffffffffffffffff161461091a576040517f08c379a000000000000000000000000000000000000000000000000000000000815260040161091190610ecc565b60405180910390fd5b6000805b6003805490508110156109895760006003828154811061094157610940610fa4565b5b906000526020600020906002020160010160009054906101000a900473ffffffffffffffffffffffffffffffffffffffff169050508080610981906110b1565b91505061091e565b5050565b6000600380549050905090565b8280546109a690610e29565b90600052602060002090601f0160209004810192826109c85760008555610a0f565b82601f106109e157805160ff1916838001178555610a0f565b82800160010185558215610a0f579182015b82811115610a0e5782518255916020019190600101906109f3565b5b509050610a1c9190610a20565b5090565b5b80821115610a39576000816000905550600101610a21565b5090565b600081519050919050565b600082825260208201905092915050565b60005b83811015610a77578082015181840152602081019050610a5c565b83811115610a86576000848401525b50505050565b6000601f19601f8301169050919050565b6000610aa882610a3d565b610ab28185610a48565b9350610ac2818560208601610a59565b610acb81610a8c565b840191505092915050565b60006020820190508181036000830152610af08184610a9d565b905092915050565b600073ffffffffffffffffffffffffffffffffffffffff82169050919050565b6000610b2382610af8565b9050919050565b610b3381610b18565b82525050565b6000602082019050610b4e6000830184610b2a565b92915050565b6000604051905090565b600080fd5b600080fd5b600080fd5b600080fd5b7f4e487b7100000000000000000000000000000000000000000000000000000000600052604160045260246000fd5b610baa82610a8c565b810181811067ffffffffffffffff82111715610bc957610bc8610b72565b5b80604052505050565b6000610bdc610b54565b9050610be88282610ba1565b919050565b600067ffffffffffffffff821115610c0857610c07610b72565b5b610c1182610a8c565b9050602081019050919050565b82818337600083830152505050565b6000610c40610c3b84610bed565b610bd2565b905082815260208101848484011115610c5c57610c5b610b6d565b5b610c67848285610c1e565b509392505050565b600082601f830112610c8457610c83610b68565b5b8135610c94848260208601610c2d565b91505092915050565b600060208284031215610cb357610cb2610b5e565b5b600082013567ffffffffffffffff811115610cd157610cd0610b63565b5b610cdd84828501610c6f565b91505092915050565b6000819050919050565b610cf981610ce6565b82525050565b6000602082019050610d146000830184610cf0565b92915050565b600081519050919050565b600082825260208201905092915050565b6000819050602082019050919050565b610d4f81610b18565b82525050565b6000610d618383610d46565b60208301905092915050565b6000602082019050919050565b6000610d8582610d1a565b610d8f8185610d25565b9350610d9a83610d36565b8060005b83811015610dcb578151610db28882610d55565b9750610dbd83610d6d565b925050600181019050610d9e565b5085935050505092915050565b60006020820190508181036000830152610df28184610d7a565b905092915050565b7f4e487b7100000000000000000000000000000000000000000000000000000000600052602260045260246000fd5b60006002820490506001821680610e4157607f821691505b602082108103610e5457610e53610dfa565b5b50919050565b7f4576656e74206f7065726174696f6e73206f6e6c79206170706c696361626c6560008201527f20746f206f776e65720000000000000000000000000000000000000000000000602082015250565b6000610eb6602983610a48565b9150610ec182610e5a565b604082019050919050565b60006020820190508181036000830152610ee581610ea9565b9050919050565b60006040820190508181036000830152610f068185610a9d565b9050610f156020830184610b2a565b9392505050565b610f2581610b18565b8114610f3057600080fd5b50565b600081519050610f4281610f1c565b92915050565b600060208284031215610f5e57610f5d610b5e565b5b6000610f6c84828501610f33565b91505092915050565b7f4e487b7100000000000000000000000000000000000000000000000000000000600052602160045260246000fd5b7f4e487b7100000000000000000000000000000000000000000000000000000000600052603260045260246000fd5b610fdc81610ce6565b8114610fe757600080fd5b50565b600081519050610ff981610fd3565b92915050565b60006020828403121561101557611014610b5e565b5b600061102384828501610fea565b91505092915050565b7f4e487b7100000000000000000000000000000000000000000000000000000000600052601160045260246000fd5b600061106682610ce6565b915061107183610ce6565b9250827fffffffffffffffffffffffffffffffffffffffffffffffffffffffffffffffff038211156110a6576110a561102c565b5b828201905092915050565b60006110bc82610ce6565b91507fffffffffffffffffffffffffffffffffffffffffffffffffffffffffffffffff82036110ee576110ed61102c565b5b60018201905091905056fea2646970667358221220e6faf1635b9738cd741552e385c611794797c43c1f7cf675d8c170e78393dce964736f6c634300080d0033a26469706673582212208c540151eb6911c57766b87a9cc33c230b9387d32bd255b3f8b68e191535c7b164736f6c634300080d0033",
  "immutableReferences": {},
  "source": "// SPDX-License-Identifier: MIT\npragma solidity >0.4.23 <0.9.0;\nimport \"./Events.sol\";\n\n\ncontract EventFactory {\n    mapping (address => address[]) userEvents;\n\n\n    event EventCreated(address eventOwner, string name, address eventAddress);\n\n    struct EventDetail {\n        string name;\n        mapping(string => MarketDetail[]) markets;\n    }\n\n    struct MarketDetail {\n        string name;\n        mapping(string => PoolDetail[]) pool;\n    }\n\n    struct PoolDetail {\n        string name;\n        uint noOfStakes;\n        uint totalStake;\n    }\n\n    address[] private _events;\n\n    address public marketFactoryAddress;\n\n    function createEvent(\n        string memory _name\n    ) public returns(address) {\n        Events wEvent = new Events(_name, marketFactoryAddress);\n        \n        userEvents[msg.sender].push(address(wEvent));\n        _events.push(address(wEvent));\n        \n        emit EventCreated(msg.sender, _name, address(wEvent));\n        return address(wEvent);\n    }\n\n    function getEventDetails(address eventAddress) public returns(string memory, string memory, address) {\n\n        Events singleEvent = Events(eventAddress);\n\n        // TODO: Add fetching single event\n        return (\"\",\"\",msg.sender);\n    }\n\n\n    function getMarketsByEvent(address eventAddress)\n        public\n        view\n        returns (address[] memory markets)\n    {\n        return userEvents[eventAddress];\n\n    }\n\n\n    function getEventsByAddress(address userAddress) public view returns(address[] memory){\n        return userEvents[userAddress];\n    }\n\n    function getAllEvents() public view returns(address[] memory){\n        return _events;\n    }\n}",
  "sourcePath": "/Users/wizardom/projects/crypto/web3bets_smartcontract/contracts/EventFactory.sol",
  "compiler": {
    "name": "solc",
    "version": "0.8.13+commit.abaa5c0e.Emscripten.clang"
  },
  "schemaVersion": "3.4.7",
  "updatedAt": "2022-07-23T13:01:44.964Z",
  "devdoc": {
    "kind": "dev",
    "methods": {},
    "version": 1
  },
  "userdoc": {
    "kind": "user",
    "methods": {},
    "version": 1
  }
}