{
  "contractName": "MarketFactory",
  "abi": [
    {
      "anonymous": false,
      "inputs": [
        {
          "indexed": false,
          "internalType": "address",
          "name": "marketAddress",
          "type": "address"
        },
        {
          "indexed": false,
          "internalType": "address",
          "name": "eventAddress",
          "type": "address"
        },
        {
          "indexed": false,
          "internalType": "string",
          "name": "marketName",
          "type": "string"
        }
      ],
      "name": "MarketCreated",
      "type": "event"
    },
    {
      "inputs": [
        {
          "internalType": "address",
          "name": "",
          "type": "address"
        },
        {
          "internalType": "uint256",
          "name": "",
          "type": "uint256"
        }
      ],
      "name": "eventMarkets",
      "outputs": [
        {
          "internalType": "address",
          "name": "",
          "type": "address"
        }
      ],
      "stateMutability": "view",
      "type": "function",
      "constant": true
    },
    {
      "inputs": [
        {
          "internalType": "string",
          "name": "_name",
          "type": "string"
        },
        {
          "internalType": "address",
          "name": "_eventAddress",
          "type": "address"
        }
      ],
      "name": "createMarket",
      "outputs": [
        {
          "internalType": "address",
          "name": "",
          "type": "address"
        }
      ],
      "stateMutability": "nonpayable",
      "type": "function"
    },
    {
      "inputs": [
        {
          "internalType": "address",
          "name": "eventAddress",
          "type": "address"
        }
      ],
      "name": "getMarketsByEvent",
      "outputs": [
        {
          "internalType": "address[]",
          "name": "markets",
          "type": "address[]"
        }
      ],
      "stateMutability": "view",
      "type": "function",
      "constant": true
    },
    {
      "inputs": [],
      "name": "getTotalMarkets",
      "outputs": [
        {
          "internalType": "uint256",
          "name": "",
          "type": "uint256"
        }
      ],
      "stateMutability": "view",
      "type": "function",
      "constant": true
    },
    {
      "inputs": [],
      "name": "getAllMarkets",
      "outputs": [
        {
          "internalType": "address[]",
          "name": "",
          "type": "address[]"
        }
      ],
      "stateMutability": "view",
      "type": "function",
      "constant": true
    }
  ],
  "bytecode": "0x608060405234801561001057600080fd5b506124f7806100206000396000f3fe60806040523480156200001157600080fd5b50600436106200005e5760003560e01c806308d680d0146200006357806309009fe4146200009957806381ebf20914620000cf578063b0772d0b14620000f1578063bf1f167d1462000113575b600080fd5b6200008160048036038101906200007b91906200054e565b62000149565b604051620000909190620005a6565b60405180910390f35b620000b76004803603810190620000b19190620005c3565b62000198565b604051620000c69190620006c3565b60405180910390f35b620000d962000266565b604051620000e89190620006f8565b60405180910390f35b620000fb62000273565b6040516200010a9190620006c3565b60405180910390f35b6200013160048036038101906200012b919062000877565b62000303565b604051620001409190620005a6565b60405180910390f35b600060205281600052604060002081815481106200016657600080fd5b906000526020600020016000915091509054906101000a900473ffffffffffffffffffffffffffffffffffffffff1681565b60606000808373ffffffffffffffffffffffffffffffffffffffff1673ffffffffffffffffffffffffffffffffffffffff1681526020019081526020016000208054806020026020016040519081016040528092919081815260200182805480156200025a57602002820191906000526020600020905b8160009054906101000a900473ffffffffffffffffffffffffffffffffffffffff1673ffffffffffffffffffffffffffffffffffffffff16815260200190600101908083116200020f575b50505050509050919050565b6000600180549050905090565b60606001805480602002602001604051908101604052809291908181526020018280548015620002f957602002820191906000526020600020905b8160009054906101000a900473ffffffffffffffffffffffffffffffffffffffff1673ffffffffffffffffffffffffffffffffffffffff1681526020019060010190808311620002ae575b5050505050905090565b600080838360405162000316906200048c565b6200032392919062000970565b604051809103906000f08015801562000340573d6000803e3d6000fd5b5090506000808473ffffffffffffffffffffffffffffffffffffffff1673ffffffffffffffffffffffffffffffffffffffff168152602001908152602001600020819080600181540180825580915050600190039060005260206000200160009091909190916101000a81548173ffffffffffffffffffffffffffffffffffffffff021916908373ffffffffffffffffffffffffffffffffffffffff1602179055506001819080600181540180825580915050600190039060005260206000200160009091909190916101000a81548173ffffffffffffffffffffffffffffffffffffffff021916908373ffffffffffffffffffffffffffffffffffffffff1602179055507f399415246711dab8a1b129dbd52f5a8f33ccd156f8bbcb481b900f33cfb367798184866040516200047a93929190620009a4565b60405180910390a18091505092915050565b611ad980620009e983390190565b6000604051905090565b600080fd5b600080fd5b600073ffffffffffffffffffffffffffffffffffffffff82169050919050565b6000620004db82620004ae565b9050919050565b620004ed81620004ce565b8114620004f957600080fd5b50565b6000813590506200050d81620004e2565b92915050565b6000819050919050565b620005288162000513565b81146200053457600080fd5b50565b60008135905062000548816200051d565b92915050565b60008060408385031215620005685762000567620004a4565b5b60006200057885828601620004fc565b92505060206200058b8582860162000537565b9150509250929050565b620005a081620004ce565b82525050565b6000602082019050620005bd600083018462000595565b92915050565b600060208284031215620005dc57620005db620004a4565b5b6000620005ec84828501620004fc565b91505092915050565b600081519050919050565b600082825260208201905092915050565b6000819050602082019050919050565b6200062c81620004ce565b82525050565b600062000640838362000621565b60208301905092915050565b6000602082019050919050565b60006200066682620005f5565b62000672818562000600565b93506200067f8362000611565b8060005b83811015620006b65781516200069a888262000632565b9750620006a7836200064c565b92505060018101905062000683565b5085935050505092915050565b60006020820190508181036000830152620006df818462000659565b905092915050565b620006f28162000513565b82525050565b60006020820190506200070f6000830184620006e7565b92915050565b600080fd5b600080fd5b6000601f19601f8301169050919050565b7f4e487b7100000000000000000000000000000000000000000000000000000000600052604160045260246000fd5b6200076a826200071f565b810181811067ffffffffffffffff821117156200078c576200078b62000730565b5b80604052505050565b6000620007a16200049a565b9050620007af82826200075f565b919050565b600067ffffffffffffffff821115620007d257620007d162000730565b5b620007dd826200071f565b9050602081019050919050565b82818337600083830152505050565b6000620008106200080a84620007b4565b62000795565b9050828152602081018484840111156200082f576200082e6200071a565b5b6200083c848285620007ea565b509392505050565b600082601f8301126200085c576200085b62000715565b5b81356200086e848260208601620007f9565b91505092915050565b60008060408385031215620008915762000890620004a4565b5b600083013567ffffffffffffffff811115620008b257620008b1620004a9565b5b620008c08582860162000844565b9250506020620008d385828601620004fc565b9150509250929050565b600081519050919050565b600082825260208201905092915050565b60005b8381101562000919578082015181840152602081019050620008fc565b8381111562000929576000848401525b50505050565b60006200093c82620008dd565b620009488185620008e8565b93506200095a818560208601620008f9565b62000965816200071f565b840191505092915050565b600060408201905081810360008301526200098c81856200092f565b90506200099d602083018462000595565b9392505050565b6000606082019050620009bb600083018662000595565b620009ca602083018562000595565b8181036040830152620009de81846200092f565b905094935050505056fe60806040523480156200001157600080fd5b5060405162001ad938038062001ad983398181016040528101906200003791906200038b565b336000806101000a81548173ffffffffffffffffffffffffffffffffffffffff021916908373ffffffffffffffffffffffffffffffffffffffff16021790555081600190805190602001906200008f929190620000d9565b5080600260006101000a81548173ffffffffffffffffffffffffffffffffffffffff021916908373ffffffffffffffffffffffffffffffffffffffff160217905550505062000455565b828054620000e79062000420565b90600052602060002090601f0160209004810192826200010b576000855562000157565b82601f106200012657805160ff191683800117855562000157565b8280016001018555821562000157579182015b828111156200015657825182559160200191906001019062000139565b5b5090506200016691906200016a565b5090565b5b80821115620001855760008160009055506001016200016b565b5090565b6000604051905090565b600080fd5b600080fd5b600080fd5b600080fd5b6000601f19601f8301169050919050565b7f4e487b7100000000000000000000000000000000000000000000000000000000600052604160045260246000fd5b620001f282620001a7565b810181811067ffffffffffffffff82111715620002145762000213620001b8565b5b80604052505050565b60006200022962000189565b9050620002378282620001e7565b919050565b600067ffffffffffffffff8211156200025a5762000259620001b8565b5b6200026582620001a7565b9050602081019050919050565b60005b838110156200029257808201518184015260208101905062000275565b83811115620002a2576000848401525b50505050565b6000620002bf620002b9846200023c565b6200021d565b905082815260208101848484011115620002de57620002dd620001a2565b5b620002eb84828562000272565b509392505050565b600082601f8301126200030b576200030a6200019d565b5b81516200031d848260208601620002a8565b91505092915050565b600073ffffffffffffffffffffffffffffffffffffffff82169050919050565b6000620003538262000326565b9050919050565b620003658162000346565b81146200037157600080fd5b50565b60008151905062000385816200035a565b92915050565b60008060408385031215620003a557620003a462000193565b5b600083015167ffffffffffffffff811115620003c657620003c562000198565b5b620003d485828601620002f3565b9250506020620003e78582860162000374565b9150509250929050565b7f4e487b7100000000000000000000000000000000000000000000000000000000600052602260045260246000fd5b600060028204905060018216806200043957607f821691505b6020821081036200044f576200044e620003f1565b5b50919050565b61167480620004656000396000f3fe608060405234801561001057600080fd5b50600436106100cf5760003560e01c80637dbaf26b1161008c578063b81e43fc11610066578063b81e43fc146101de578063d427ccbf146101fc578063f92c16201461021a578063fad5677914610238576100cf565b80637dbaf26b146101865780638da5cb5b146101a2578063a32cf536146101c0576100cf565b806306fdde03146100d457806309dd8f87146100f257806317d7de7c14610110578063352ae5961461012e5780635d155b0c1461014a5780637bc7422514610168575b600080fd5b6100dc610256565b6040516100e99190610def565b60405180910390f35b6100fa6102e4565b6040516101079190610e2c565b60405180910390f35b6101186102fb565b6040516101259190610def565b60405180910390f35b61014860048036038101906101439190610eb9565b61038d565b005b610152610707565b60405161015f9190610ef5565b60405180910390f35b61017061072d565b60405161017d9190610f29565b60405180910390f35b6101a0600480360381019061019b9190611079565b61083a565b005b6101aa610b61565b6040516101b79190610ef5565b60405180910390f35b6101c8610b85565b6040516101d59190610ef5565b60405180910390f35b6101e6610bab565b6040516101f39190610def565b60405180910390f35b610204610c50565b6040516102119190610ef5565b60405180910390f35b610222610c7a565b60405161022f9190610e2c565b60405180910390f35b610240610c8d565b60405161024d9190610ef5565b60405180910390f35b60018054610263906110f1565b80601f016020809104026020016040519081016040528092919081815260200182805461028f906110f1565b80156102dc5780601f106102b1576101008083540402835291602001916102dc565b820191906000526020600020905b8154815290600101906020018083116102bf57829003601f168201915b505050505081565b6000600760009054906101000a900460ff16905090565b60606001805461030a906110f1565b80601f0160208091040260200160405190810160405280929190818152602001828054610336906110f1565b80156103835780601f1061035857610100808354040283529160200191610383565b820191906000526020600020905b81548152906001019060200180831161036657829003601f168201915b5050505050905090565b6000600260009054906101000a900473ffffffffffffffffffffffffffffffffffffffff1690508073ffffffffffffffffffffffffffffffffffffffff1663179f907d6040518163ffffffff1660e01b81526004016020604051808303816000875af1158015610401573d6000803e3d6000fd5b505050506040513d601f19601f820116820180604052508101906104259190611137565b73ffffffffffffffffffffffffffffffffffffffff163373ffffffffffffffffffffffffffffffffffffffff1614610492576040517f08c379a0000000000000000000000000000000000000000000000000000000008152600401610489906111d6565b60405180910390fd5b816000806006805490509050600081116104e1576040517f08c379a00000000000000000000000000000000000000000000000000000000081526004016104d890611268565b60405180910390fd5b60005b81811015610596578373ffffffffffffffffffffffffffffffffffffffff1660056006838154811061051957610518611288565b5b906000526020600020016040516105309190611356565b908152602001604051809103902060009054906101000a900473ffffffffffffffffffffffffffffffffffffffff1673ffffffffffffffffffffffffffffffffffffffff16036105835760019250610596565b808061058e9061139c565b9150506104e4565b50816105d7576040517f08c379a00000000000000000000000000000000000000000000000000000000081526004016105ce90611430565b60405180910390fd5b6000600460009054906101000a900473ffffffffffffffffffffffffffffffffffffffff16905060008173ffffffffffffffffffffffffffffffffffffffff16632004b3e56040518163ffffffff1660e01b81526004016020604051808303816000875af115801561064d573d6000803e3d6000fd5b505050506040513d601f19601f82011682018060405250810190610671919061147c565b90506000600680549050905060005b818110156106fc5760006005600683815481106106a05761069f611288565b5b906000526020600020016040516106b79190611356565b908152602001604051809103902060009054906101000a900473ffffffffffffffffffffffffffffffffffffffff1690505080806106f49061139c565b915050610680565b505050505050505050565b600460009054906101000a900473ffffffffffffffffffffffffffffffffffffffff1681565b60008060005b60068054905081101561083257600060056006838154811061075857610757611288565b5b9060005260206000200160405161076f9190611356565b908152602001604051809103902060009054906101000a900473ffffffffffffffffffffffffffffffffffffffff1690508073ffffffffffffffffffffffffffffffffffffffff16637bc742256040518163ffffffff1660e01b81526004016020604051808303816000875af11580156107ed573d6000803e3d6000fd5b505050506040513d601f19601f82011682018060405250810190610811919061147c565b8361081c91906114a9565b925050808061082a9061139c565b915050610733565b508091505090565b6000600260009054906101000a900473ffffffffffffffffffffffffffffffffffffffff1690508073ffffffffffffffffffffffffffffffffffffffff1663179f907d6040518163ffffffff1660e01b81526004016020604051808303816000875af11580156108ae573d6000803e3d6000fd5b505050506040513d601f19601f820116820180604052508101906108d29190611137565b73ffffffffffffffffffffffffffffffffffffffff163373ffffffffffffffffffffffffffffffffffffffff161461093f576040517f08c379a0000000000000000000000000000000000000000000000000000000008152600401610936906111d6565b60405180910390fd5b816000600190506000600680549050905060005b818110156109e7576006818154811061096f5761096e611288565b5b906000526020600020016040516020016109899190611356565b60405160208183030381529060405280519060200120846040516020016109b09190611530565b60405160208183030381529060405280519060200120036109d457600092506109e7565b80806109df9061139c565b915050610953565b50816109f257600080fd5b6000600360009054906101000a900473ffffffffffffffffffffffffffffffffffffffff16905060008173ffffffffffffffffffffffffffffffffffffffff166356cd61d788600260009054906101000a900473ffffffffffffffffffffffffffffffffffffffff16306040518463ffffffff1660e01b8152600401610a7a93929190611547565b6020604051808303816000875af1158015610a99573d6000803e3d6000fd5b505050506040513d601f19601f82011682018060405250810190610abd9190611137565b905080600588604051610ad09190611530565b908152602001604051809103902060006101000a81548173ffffffffffffffffffffffffffffffffffffffff021916908373ffffffffffffffffffffffffffffffffffffffff160217905550600687908060018154018082558091505060019003906000526020600020016000909190919091509080519060200190610b57929190610cb3565b5050505050505050565b60008054906101000a900473ffffffffffffffffffffffffffffffffffffffff1681565b600360009054906101000a900473ffffffffffffffffffffffffffffffffffffffff1681565b60606000600260009054906101000a900473ffffffffffffffffffffffffffffffffffffffff1690508073ffffffffffffffffffffffffffffffffffffffff166317d7de7c6040518163ffffffff1660e01b81526004016000604051808303816000875af1158015610c21573d6000803e3d6000fd5b505050506040513d6000823e3d601f19601f82011682018060405250810190610c4a91906115f5565b91505090565b6000600260009054906101000a900473ffffffffffffffffffffffffffffffffffffffff16905090565b600760009054906101000a900460ff1681565b600260009054906101000a900473ffffffffffffffffffffffffffffffffffffffff1681565b828054610cbf906110f1565b90600052602060002090601f016020900481019282610ce15760008555610d28565b82601f10610cfa57805160ff1916838001178555610d28565b82800160010185558215610d28579182015b82811115610d27578251825591602001919060010190610d0c565b5b509050610d359190610d39565b5090565b5b80821115610d52576000816000905550600101610d3a565b5090565b600081519050919050565b600082825260208201905092915050565b60005b83811015610d90578082015181840152602081019050610d75565b83811115610d9f576000848401525b50505050565b6000601f19601f8301169050919050565b6000610dc182610d56565b610dcb8185610d61565b9350610ddb818560208601610d72565b610de481610da5565b840191505092915050565b60006020820190508181036000830152610e098184610db6565b905092915050565b60008115159050919050565b610e2681610e11565b82525050565b6000602082019050610e416000830184610e1d565b92915050565b6000604051905090565b600080fd5b600080fd5b600073ffffffffffffffffffffffffffffffffffffffff82169050919050565b6000610e8682610e5b565b9050919050565b610e9681610e7b565b8114610ea157600080fd5b50565b600081359050610eb381610e8d565b92915050565b600060208284031215610ecf57610ece610e51565b5b6000610edd84828501610ea4565b91505092915050565b610eef81610e7b565b82525050565b6000602082019050610f0a6000830184610ee6565b92915050565b6000819050919050565b610f2381610f10565b82525050565b6000602082019050610f3e6000830184610f1a565b92915050565b600080fd5b600080fd5b7f4e487b7100000000000000000000000000000000000000000000000000000000600052604160045260246000fd5b610f8682610da5565b810181811067ffffffffffffffff82111715610fa557610fa4610f4e565b5b80604052505050565b6000610fb8610e47565b9050610fc48282610f7d565b919050565b600067ffffffffffffffff821115610fe457610fe3610f4e565b5b610fed82610da5565b9050602081019050919050565b82818337600083830152505050565b600061101c61101784610fc9565b610fae565b90508281526020810184848401111561103857611037610f49565b5b611043848285610ffa565b509392505050565b600082601f8301126110605761105f610f44565b5b8135611070848260208601611009565b91505092915050565b60006020828403121561108f5761108e610e51565b5b600082013567ffffffffffffffff8111156110ad576110ac610e56565b5b6110b98482850161104b565b91505092915050565b7f4e487b7100000000000000000000000000000000000000000000000000000000600052602260045260246000fd5b6000600282049050600182168061110957607f821691505b60208210810361111c5761111b6110c2565b5b50919050565b60008151905061113181610e8d565b92915050565b60006020828403121561114d5761114c610e51565b5b600061115b84828501611122565b91505092915050565b7f4f6e6c79206576656e74206f776e657273207365742077696e6e696e6720706f60008201527f6f6c000000000000000000000000000000000000000000000000000000000000602082015250565b60006111c0602283610d61565b91506111cb82611164565b604082019050919050565b600060208201905081810360008301526111ef816111b3565b9050919050565b7f43616e6e6f74207365742077696e6e696e6720706f6f6c206f6e206d61726b6560008201527f742077697468206e6f20706f6f6c000000000000000000000000000000000000602082015250565b6000611252602e83610d61565b915061125d826111f6565b604082019050919050565b6000602082019050818103600083015261128181611245565b9050919050565b7f4e487b7100000000000000000000000000000000000000000000000000000000600052603260045260246000fd5b600081905092915050565b60008190508160005260206000209050919050565b600081546112e4816110f1565b6112ee81866112b7565b94506001821660008114611309576001811461131a5761134d565b60ff1983168652818601935061134d565b611323856112c2565b60005b8381101561134557815481890152600182019150602081019050611326565b838801955050505b50505092915050565b600061136282846112d7565b915081905092915050565b7f4e487b7100000000000000000000000000000000000000000000000000000000600052601160045260246000fd5b60006113a782610f10565b91507fffffffffffffffffffffffffffffffffffffffffffffffffffffffffffffffff82036113d9576113d861136d565b5b600182019050919050565b7f496e76616c696420706f6f6c2061646472657373000000000000000000000000600082015250565b600061141a601483610d61565b9150611425826113e4565b602082019050919050565b600060208201905081810360008301526114498161140d565b9050919050565b61145981610f10565b811461146457600080fd5b50565b60008151905061147681611450565b92915050565b60006020828403121561149257611491610e51565b5b60006114a084828501611467565b91505092915050565b60006114b482610f10565b91506114bf83610f10565b9250827fffffffffffffffffffffffffffffffffffffffffffffffffffffffffffffffff038211156114f4576114f361136d565b5b828201905092915050565b600061150a82610d56565b61151481856112b7565b9350611524818560208601610d72565b80840191505092915050565b600061153c82846114ff565b915081905092915050565b600060608201905081810360008301526115618186610db6565b90506115706020830185610ee6565b61157d6040830184610ee6565b949350505050565b600061159861159384610fc9565b610fae565b9050828152602081018484840111156115b4576115b3610f49565b5b6115bf848285610d72565b509392505050565b600082601f8301126115dc576115db610f44565b5b81516115ec848260208601611585565b91505092915050565b60006020828403121561160b5761160a610e51565b5b600082015167ffffffffffffffff81111561162957611628610e56565b5b611635848285016115c7565b9150509291505056fea2646970667358221220863ee9a50ae8b1b2044ba976651285ddf77fae341792a89a830bc45767208a0c64736f6c634300080d0033a2646970667358221220d1d54a5f13d325e4f3fc19c006c92bd7f87d98dfb6fcb29a19ba4ccf867f2b9164736f6c634300080d0033",
  "immutableReferences": {},
  "source": "// SPDX-License-Identifier: MIT\npragma solidity >0.4.23 <0.9.0;\nimport \"./Markets.sol\";\n\ncontract MarketFactory {\n\n    mapping (address => address[]) public eventMarkets;\n\n    event MarketCreated(address marketAddress, address eventAddress, string marketName);\n\n    address[] private _markets;\n\n    function createMarket(\n        string memory _name, address _eventAddress) public returns(address) {\n        \n        Market _market = new Market(_name, _eventAddress);\n\n        eventMarkets[_eventAddress].push(address(_market));\n\n        _markets.push(address(_market));\n\n        emit MarketCreated(address(_market), _eventAddress, _name);\n        return address(_market);\n    }\n\n    function getMarketsByEvent(address eventAddress)\n        public\n        view\n        returns (address[] memory markets)\n    {\n        return eventMarkets[eventAddress];\n\n    }\n\n    function getTotalMarkets() external view returns (uint) {\n        return _markets.length;\n    }\n\n    function getAllMarkets() external view returns (address[] memory){\n        return _markets;\n    }\n\n}\n",
  "sourcePath": "/Users/wizardom/projects/crypto/web3bets_smartcontract/contracts/MarketFactory.sol",
  "compiler": {
    "name": "solc",
    "version": "0.8.13+commit.abaa5c0e.Emscripten.clang"
  },
  "schemaVersion": "3.4.7",
  "updatedAt": "2022-07-23T15:41:18.888Z",
  "networkType": "ethereum",
  "devdoc": {
    "kind": "dev",
    "methods": {},
    "version": 1
  },
  "userdoc": {
    "kind": "user",
    "methods": {},
    "version": 1
  }
}