{
  "contractName": "MarketFactory",
  "abi": [
    {
      "inputs": [
        {
          "internalType": "address",
          "name": "_poolsFactoryAddress",
          "type": "address"
        },
        {
          "internalType": "address",
          "name": "_web3betsAddress",
          "type": "address"
        }
      ],
      "stateMutability": "nonpayable",
      "type": "constructor"
    },
    {
      "anonymous": false,
      "inputs": [
        {
          "indexed": false,
          "internalType": "address",
          "name": "marketAddress",
          "type": "address"
        },
        {
          "indexed": false,
          "internalType": "address",
          "name": "eventAddress",
          "type": "address"
        },
        {
          "indexed": false,
          "internalType": "string",
          "name": "marketName",
          "type": "string"
        }
      ],
      "name": "MarketCreated",
      "type": "event"
    },
    {
      "inputs": [
        {
          "internalType": "address",
          "name": "",
          "type": "address"
        },
        {
          "internalType": "uint256",
          "name": "",
          "type": "uint256"
        }
      ],
      "name": "eventMarkets",
      "outputs": [
        {
          "internalType": "address",
          "name": "",
          "type": "address"
        }
      ],
      "stateMutability": "view",
      "type": "function",
      "constant": true
    },
    {
      "inputs": [],
      "name": "poolsFactoryAddress",
      "outputs": [
        {
          "internalType": "address",
          "name": "",
          "type": "address"
        }
      ],
      "stateMutability": "view",
      "type": "function",
      "constant": true
    },
    {
      "inputs": [],
      "name": "web3betsAddress",
      "outputs": [
        {
          "internalType": "address",
          "name": "",
          "type": "address"
        }
      ],
      "stateMutability": "view",
      "type": "function",
      "constant": true
    },
    {
      "inputs": [
        {
          "internalType": "string",
          "name": "_name",
          "type": "string"
        },
        {
          "internalType": "address",
          "name": "_eventAddress",
          "type": "address"
        }
      ],
      "name": "createMarket",
      "outputs": [
        {
          "internalType": "address",
          "name": "",
          "type": "address"
        }
      ],
      "stateMutability": "nonpayable",
      "type": "function"
    },
    {
      "inputs": [
        {
          "internalType": "address",
          "name": "eventAddress",
          "type": "address"
        }
      ],
      "name": "getMarketsByEvent",
      "outputs": [
        {
          "internalType": "address[]",
          "name": "markets",
          "type": "address[]"
        }
      ],
      "stateMutability": "view",
      "type": "function",
      "constant": true
    },
    {
      "inputs": [],
      "name": "getTotalMarkets",
      "outputs": [
        {
          "internalType": "uint256",
          "name": "",
          "type": "uint256"
        }
      ],
      "stateMutability": "view",
      "type": "function",
      "constant": true
    },
    {
      "inputs": [],
      "name": "getAllMarkets",
      "outputs": [
        {
          "internalType": "address[]",
          "name": "",
          "type": "address[]"
        }
      ],
      "stateMutability": "view",
      "type": "function",
      "constant": true
    }
  ],
  "bytecode": "0x608060405234801561001057600080fd5b50604051620043303803806200433083398181016040528101906100349190610120565b80600260006101000a81548173ffffffffffffffffffffffffffffffffffffffff021916908373ffffffffffffffffffffffffffffffffffffffff16021790555081600360006101000a81548173ffffffffffffffffffffffffffffffffffffffff021916908373ffffffffffffffffffffffffffffffffffffffff1602179055505050610160565b600080fd5b600073ffffffffffffffffffffffffffffffffffffffff82169050919050565b60006100ed826100c2565b9050919050565b6100fd816100e2565b811461010857600080fd5b50565b60008151905061011a816100f4565b92915050565b60008060408385031215610137576101366100bd565b5b60006101458582860161010b565b92505060206101568582860161010b565b9150509250929050565b6141c080620001706000396000f3fe60806040523480156200001157600080fd5b5060043610620000885760003560e01c80638d5c55e611620000635780638d5c55e6146200011b578063b0772d0b146200013d578063bf1f167d146200015f578063e56afe8314620001955762000088565b806308d680d0146200008d57806309009fe414620000c357806381ebf20914620000f9575b600080fd5b620000ab6004803603810190620000a5919062000650565b620001b7565b604051620000ba9190620006a8565b60405180910390f35b620000e16004803603810190620000db9190620006c5565b62000206565b604051620000f09190620007c5565b60405180910390f35b62000103620002d4565b604051620001129190620007fa565b60405180910390f35b62000125620002e1565b604051620001349190620006a8565b60405180910390f35b6200014762000307565b604051620001569190620007c5565b60405180910390f35b6200017d600480360381019062000177919062000979565b62000397565b6040516200018c9190620006a8565b60405180910390f35b6200019f62000568565b604051620001ae9190620006a8565b60405180910390f35b60006020528160005260406000208181548110620001d457600080fd5b906000526020600020016000915091509054906101000a900473ffffffffffffffffffffffffffffffffffffffff1681565b60606000808373ffffffffffffffffffffffffffffffffffffffff1673ffffffffffffffffffffffffffffffffffffffff168152602001908152602001600020805480602002602001604051908101604052809291908181526020018280548015620002c857602002820191906000526020600020905b8160009054906101000a900473ffffffffffffffffffffffffffffffffffffffff1673ffffffffffffffffffffffffffffffffffffffff16815260200190600101908083116200027d575b50505050509050919050565b6000600180549050905090565b600360009054906101000a900473ffffffffffffffffffffffffffffffffffffffff1681565b606060018054806020026020016040519081016040528092919081815260200182805480156200038d57602002820191906000526020600020905b8160009054906101000a900473ffffffffffffffffffffffffffffffffffffffff1673ffffffffffffffffffffffffffffffffffffffff168152602001906001019080831162000342575b5050505050905090565b6000808383600360009054906101000a900473ffffffffffffffffffffffffffffffffffffffff16600260009054906101000a900473ffffffffffffffffffffffffffffffffffffffff16604051620003f0906200058e565b620003ff949392919062000a72565b604051809103906000f0801580156200041c573d6000803e3d6000fd5b5090506000808473ffffffffffffffffffffffffffffffffffffffff1673ffffffffffffffffffffffffffffffffffffffff168152602001908152602001600020819080600181540180825580915050600190039060005260206000200160009091909190916101000a81548173ffffffffffffffffffffffffffffffffffffffff021916908373ffffffffffffffffffffffffffffffffffffffff1602179055506001819080600181540180825580915050600190039060005260206000200160009091909190916101000a81548173ffffffffffffffffffffffffffffffffffffffff021916908373ffffffffffffffffffffffffffffffffffffffff1602179055507f399415246711dab8a1b129dbd52f5a8f33ccd156f8bbcb481b900f33cfb36779818486604051620005569392919062000ac6565b60405180910390a18091505092915050565b600260009054906101000a900473ffffffffffffffffffffffffffffffffffffffff1681565b6136808062000b0b83390190565b6000604051905090565b600080fd5b600080fd5b600073ffffffffffffffffffffffffffffffffffffffff82169050919050565b6000620005dd82620005b0565b9050919050565b620005ef81620005d0565b8114620005fb57600080fd5b50565b6000813590506200060f81620005e4565b92915050565b6000819050919050565b6200062a8162000615565b81146200063657600080fd5b50565b6000813590506200064a816200061f565b92915050565b600080604083850312156200066a5762000669620005a6565b5b60006200067a85828601620005fe565b92505060206200068d8582860162000639565b9150509250929050565b620006a281620005d0565b82525050565b6000602082019050620006bf600083018462000697565b92915050565b600060208284031215620006de57620006dd620005a6565b5b6000620006ee84828501620005fe565b91505092915050565b600081519050919050565b600082825260208201905092915050565b6000819050602082019050919050565b6200072e81620005d0565b82525050565b600062000742838362000723565b60208301905092915050565b6000602082019050919050565b60006200076882620006f7565b62000774818562000702565b9350620007818362000713565b8060005b83811015620007b85781516200079c888262000734565b9750620007a9836200074e565b92505060018101905062000785565b5085935050505092915050565b60006020820190508181036000830152620007e181846200075b565b905092915050565b620007f48162000615565b82525050565b6000602082019050620008116000830184620007e9565b92915050565b600080fd5b600080fd5b6000601f19601f8301169050919050565b7f4e487b7100000000000000000000000000000000000000000000000000000000600052604160045260246000fd5b6200086c8262000821565b810181811067ffffffffffffffff821117156200088e576200088d62000832565b5b80604052505050565b6000620008a36200059c565b9050620008b1828262000861565b919050565b600067ffffffffffffffff821115620008d457620008d362000832565b5b620008df8262000821565b9050602081019050919050565b82818337600083830152505050565b6000620009126200090c84620008b6565b62000897565b9050828152602081018484840111156200093157620009306200081c565b5b6200093e848285620008ec565b509392505050565b600082601f8301126200095e576200095d62000817565b5b813562000970848260208601620008fb565b91505092915050565b60008060408385031215620009935762000992620005a6565b5b600083013567ffffffffffffffff811115620009b457620009b3620005ab565b5b620009c28582860162000946565b9250506020620009d585828601620005fe565b9150509250929050565b600081519050919050565b600082825260208201905092915050565b60005b8381101562000a1b578082015181840152602081019050620009fe565b8381111562000a2b576000848401525b50505050565b600062000a3e82620009df565b62000a4a8185620009ea565b935062000a5c818560208601620009fb565b62000a678162000821565b840191505092915050565b6000608082019050818103600083015262000a8e818762000a31565b905062000a9f602083018662000697565b62000aae604083018562000697565b62000abd606083018462000697565b95945050505050565b600060608201905062000add600083018662000697565b62000aec602083018562000697565b818103604083015262000b00818462000a31565b905094935050505056fe60806040526000600860156101000a81548160ff021916908315150217905550604051806020016040528060008152506009908051906020019062000046929190620001a0565b503480156200005457600080fd5b50604051620036803803806200368083398181016040528101906200007a919062000452565b326000806101000a81548173ffffffffffffffffffffffffffffffffffffffff021916908373ffffffffffffffffffffffffffffffffffffffff1602179055508360019080519060200190620000d2929190620001a0565b5082600260006101000a81548173ffffffffffffffffffffffffffffffffffffffff021916908373ffffffffffffffffffffffffffffffffffffffff16021790555081600360006101000a81548173ffffffffffffffffffffffffffffffffffffffff021916908373ffffffffffffffffffffffffffffffffffffffff16021790555080600460006101000a81548173ffffffffffffffffffffffffffffffffffffffff021916908373ffffffffffffffffffffffffffffffffffffffff1602179055505050505062000547565b828054620001ae9062000512565b90600052602060002090601f016020900481019282620001d257600085556200021e565b82601f10620001ed57805160ff19168380011785556200021e565b828001600101855582156200021e579182015b828111156200021d57825182559160200191906001019062000200565b5b5090506200022d919062000231565b5090565b5b808211156200024c57600081600090555060010162000232565b5090565b6000604051905090565b600080fd5b600080fd5b600080fd5b600080fd5b6000601f19601f8301169050919050565b7f4e487b7100000000000000000000000000000000000000000000000000000000600052604160045260246000fd5b620002b9826200026e565b810181811067ffffffffffffffff82111715620002db57620002da6200027f565b5b80604052505050565b6000620002f062000250565b9050620002fe8282620002ae565b919050565b600067ffffffffffffffff8211156200032157620003206200027f565b5b6200032c826200026e565b9050602081019050919050565b60005b83811015620003595780820151818401526020810190506200033c565b8381111562000369576000848401525b50505050565b600062000386620003808462000303565b620002e4565b905082815260208101848484011115620003a557620003a462000269565b5b620003b284828562000339565b509392505050565b600082601f830112620003d257620003d162000264565b5b8151620003e48482602086016200036f565b91505092915050565b600073ffffffffffffffffffffffffffffffffffffffff82169050919050565b60006200041a82620003ed565b9050919050565b6200042c816200040d565b81146200043857600080fd5b50565b6000815190506200044c8162000421565b92915050565b600080600080608085870312156200046f576200046e6200025a565b5b600085015167ffffffffffffffff81111562000490576200048f6200025f565b5b6200049e87828801620003ba565b9450506020620004b1878288016200043b565b9350506040620004c4878288016200043b565b9250506060620004d7878288016200043b565b91505092959194509250565b7f4e487b7100000000000000000000000000000000000000000000000000000000600052602260045260246000fd5b600060028204905060018216806200052b57607f821691505b602082108103620005415762000540620004e3565b5b50919050565b61312980620005576000396000f3fe6080604052600436106101855760003560e01c8063b81e43fc116100d1578063d9bbd2781161008a578063ec5ffac211610064578063ec5ffac21461055e578063f92c162014610589578063fad56779146105b4578063feb21b9c146105df5761018c565b8063d9bbd278146104dd578063e3fad35714610508578063e4b6db4c146105335761018c565b8063b81e43fc146103cb578063c084e325146103f6578063c1aad9d814610433578063d0d130361461045e578063d427ccbf14610487578063d5e298bb146104b25761018c565b80635d155b0c1161013e5780638a007e35116101185780638a007e351461030d5780638da5cb5b14610338578063a32cf53614610363578063aa362b321461038e5761018c565b80635d155b0c1461028e5780636bfefd6b146102b9578063733b05e2146102d05761018c565b806306fdde031461018e57806309dd8f87146101b957806312065fe0146101e457806317d7de7c1461020f5780633270bb5b1461023a578063352ae596146102655761018c565b3661018c57005b005b34801561019a57600080fd5b506101a361061c565b6040516101b09190612137565b60405180910390f35b3480156101c557600080fd5b506101ce6106aa565b6040516101db9190612174565b60405180910390f35b3480156101f057600080fd5b506101f96106d7565b60405161020691906121a8565b60405180910390f35b34801561021b57600080fd5b506102246106df565b6040516102319190612137565b60405180910390f35b34801561024657600080fd5b5061024f610771565b60405161025c9190612174565b60405180910390f35b34801561027157600080fd5b5061028c60048036038101906102879190612235565b610784565b005b34801561029a57600080fd5b506102a3611336565b6040516102b09190612271565b60405180910390f35b3480156102c557600080fd5b506102ce61135c565b005b3480156102dc57600080fd5b506102f760048036038101906102f291906122b8565b6115b7565b6040516103049190612137565b60405180910390f35b34801561031957600080fd5b50610322611663565b60405161032f9190612271565b60405180910390f35b34801561034457600080fd5b5061034d611689565b60405161035a9190612271565b60405180910390f35b34801561036f57600080fd5b506103786116ad565b6040516103859190612271565b60405180910390f35b34801561039a57600080fd5b506103b560048036038101906103b09190612235565b6116d3565b6040516103c291906121a8565b60405180910390f35b3480156103d757600080fd5b506103e06116eb565b6040516103ed9190612137565b60405180910390f35b34801561040257600080fd5b5061041d60048036038101906104189190612235565b611790565b60405161042a9190612174565b60405180910390f35b34801561043f57600080fd5b50610448611806565b6040516104559190612137565b60405180910390f35b34801561046a57600080fd5b506104856004803603810190610480919061241a565b611894565b005b34801561049357600080fd5b5061049c611bc7565b6040516104a99190612271565b60405180910390f35b3480156104be57600080fd5b506104c7611bf1565b6040516104d4919061256f565b60405180910390f35b3480156104e957600080fd5b506104f2611cca565b6040516104ff91906121a8565b60405180910390f35b34801561051457600080fd5b5061051d611d69565b60405161052a91906121a8565b60405180910390f35b34801561053f57600080fd5b50610548611d89565b604051610555919061264f565b60405180910390f35b34801561056a57600080fd5b50610573611e17565b60405161058091906121a8565b60405180910390f35b34801561059557600080fd5b5061059e611e1d565b6040516105ab9190612174565b60405180910390f35b3480156105c057600080fd5b506105c9611e30565b6040516105d69190612271565b60405180910390f35b3480156105eb57600080fd5b50610606600480360381019061060191906122b8565b611e56565b6040516106139190612271565b60405180910390f35b60018054610629906126a0565b80601f0160208091040260200160405190810160405280929190818152602001828054610655906126a0565b80156106a25780601f10610677576101008083540402835291602001916106a2565b820191906000526020600020905b81548152906001019060200180831161068557829003601f168201915b505050505081565b600080600780549050036106c157600190506106d4565b600860009054906101000a900460ff1690505b90565b600047905090565b6060600180546106ee906126a0565b80601f016020809104026020016040519081016040528092919081815260200182805461071a906126a0565b80156107675780601f1061073c57610100808354040283529160200191610767565b820191906000526020600020905b81548152906001019060200180831161074a57829003601f168201915b5050505050905090565b600860159054906101000a900460ff1681565b6000600260009054906101000a900473ffffffffffffffffffffffffffffffffffffffff16905060008173ffffffffffffffffffffffffffffffffffffffff1663179f907d6040518163ffffffff1660e01b81526004016020604051808303816000875af11580156107fa573d6000803e3d6000fd5b505050506040513d601f19601f8201168201806040525081019061081e91906126e6565b90508073ffffffffffffffffffffffffffffffffffffffff163373ffffffffffffffffffffffffffffffffffffffff161461088e576040517f08c379a000000000000000000000000000000000000000000000000000000000815260040161088590612785565b60405180910390fd5b826000806006805490509050600081116108dd576040517f08c379a00000000000000000000000000000000000000000000000000000000081526004016108d490612817565b60405180910390fd5b6000600780548060200260200160405190810160405280929190818152602001828054801561096157602002820191906000526020600020905b8160009054906101000a900473ffffffffffffffffffffffffffffffffffffffff1673ffffffffffffffffffffffffffffffffffffffff1681526020019060010190808311610917575b5050505050905060005b81518110156109dd578473ffffffffffffffffffffffffffffffffffffffff1682828151811061099e5761099d612837565b5b602002602001015173ffffffffffffffffffffffffffffffffffffffff16036109ca57600193506109dd565b80806109d590612895565b91505061096b565b5082610a1e576040517f08c379a0000000000000000000000000000000000000000000000000000000008152600401610a1590612929565b60405180910390fd5b60011515600860009054906101000a900460ff161515148015610a905750600073ffffffffffffffffffffffffffffffffffffffff16600860019054906101000a900473ffffffffffffffffffffffffffffffffffffffff1673ffffffffffffffffffffffffffffffffffffffff1614155b15610ad0576040517f08c379a0000000000000000000000000000000000000000000000000000000008152600401610ac790612995565b60405180910390fd5b60006007805480602002602001604051908101604052809291908181526020018280548015610b5457602002820191906000526020600020905b8160009054906101000a900473ffffffffffffffffffffffffffffffffffffffff1673ffffffffffffffffffffffffffffffffffffffff1681526020019060010190808311610b0a575b5050505050905060004703610c865760005b8151811015610c30578873ffffffffffffffffffffffffffffffffffffffff16828281518110610b9957610b98612837565b5b602002602001015173ffffffffffffffffffffffffffffffffffffffff1603610c1d5788600860016101000a81548173ffffffffffffffffffffffffffffffffffffffff021916908373ffffffffffffffffffffffffffffffffffffffff1602179055506001600860006101000a81548160ff021916908315150217905550610c30565b8080610c2890612895565b915050610b66565b50600860009054906101000a900460ff16610c80576040517f08c379a0000000000000000000000000000000000000000000000000000000008152600401610c7790612a01565b60405180910390fd5b5061132d565b6000600460009054906101000a900473ffffffffffffffffffffffffffffffffffffffff16905060008173ffffffffffffffffffffffffffffffffffffffff16632004b3e56040518163ffffffff1660e01b81526004016020604051808303816000875af1158015610cfc573d6000803e3d6000fd5b505050506040513d601f19601f82011682018060405250810190610d209190612a36565b90506000479050600060648383610d379190612a63565b610d419190612aec565b905060008c905060008173ffffffffffffffffffffffffffffffffffffffff16637bc742256040518163ffffffff1660e01b81526004016020604051808303816000875af1158015610d97573d6000803e3d6000fd5b505050506040513d601f19601f82011682018060405250810190610dbb9190612a36565b90508284610dc99190612b1d565b93508573ffffffffffffffffffffffffffffffffffffffff16634d161324846040518263ffffffff1660e01b81526004016000604051808303818588803b158015610e1357600080fd5b505af1158015610e27573d6000803e3d6000fd5b50505050506009604051602001610e3e9190612c16565b60405160208183030381529060405260099080519060200190610e62929190611ffb565b506009610e6e84611e95565b604051602001610e7f929190612c6d565b60405160208183030381529060405260099080519060200190610ea3929190611ffb565b508d600860016101000a81548173ffffffffffffffffffffffffffffffffffffffff021916908373ffffffffffffffffffffffffffffffffffffffff1602179055506001600860006101000a81548160ff02191690831515021790555060008273ffffffffffffffffffffffffffffffffffffffff1663a6afd5fd6040518163ffffffff1660e01b81526004016000604051808303816000875af1158015610f4f573d6000803e3d6000fd5b505050506040513d6000823e3d601f19601f82011682018060405250810190610f789190612d59565b905060005b81518110156112ab576000828281518110610f9b57610f9a612837565b5b6020026020010151905060008173ffffffffffffffffffffffffffffffffffffffff16634d2124d46040518163ffffffff1660e01b81526004016020604051808303816000875af1158015610ff4573d6000803e3d6000fd5b505050506040513d601f19601f820116820180604052508101906110189190612a36565b9050600960405160200161102c9190612dc8565b60405160208183030381529060405260099080519060200190611050929190611ffb565b50600961105c82611e95565b60405160200161106d929190612c6d565b60405160208183030381529060405260099080519060200190611091929190611ffb565b506000620f424090506000818a8884866110ab9190612a63565b6110b59190612aec565b6110bf9190612a63565b6110c99190612aec565b905060096040516020016110dd9190612e14565b60405160208183030381529060405260099080519060200190611101929190611ffb565b50600961110d88611e95565b60405160200161111e929190612c6d565b60405160208183030381529060405260099080519060200190611142929190611ffb565b5060096040516020016111559190612e60565b60405160208183030381529060405260099080519060200190611179929190611ffb565b50600961118547611e95565b604051602001611196929190612c6d565b604051602081830303815290604052600990805190602001906111ba929190611ffb565b5060096040516020016111cd9190612eac565b604051602081830303815290604052600990805190602001906111f1929190611ffb565b5060096111fd82611e95565b60405160200161120e929190612c6d565b60405160208183030381529060405260099080519060200190611232929190611ffb565b5085858151811061124657611245612837565b5b602002602001015173ffffffffffffffffffffffffffffffffffffffff166108fc829081150290604051600060405180830381858888f19350505050158015611293573d6000803e3d6000fd5b505050505080806112a390612895565b915050610f7d565b5060096040516020016112be9190612ef8565b604051602081830303815290604052600990805190602001906112e2929190611ffb565b5060096112ee47611e95565b6040516020016112ff929190612c6d565b60405160208183030381529060405260099080519060200190611323929190611ffb565b5050505050505050505b50505050505050565b600460009054906101000a900473ffffffffffffffffffffffffffffffffffffffff1681565b600860159054906101000a900460ff166115b557600860009054906101000a900460ff166115985760005b600780549050811015611577576000600782815481106113aa576113a9612837565b5b9060005260206000200160009054906101000a900473ffffffffffffffffffffffffffffffffffffffff16905060008173ffffffffffffffffffffffffffffffffffffffff1663a6afd5fd6040518163ffffffff1660e01b81526004016000604051808303816000875af1158015611426573d6000803e3d6000fd5b505050506040513d6000823e3d601f19601f8201168201806040525081019061144f9190612d59565b905060005b815181101561156157600082828151811061147257611471612837565b5b6020026020010151905082828151811061148f5761148e612837565b5b602002602001015173ffffffffffffffffffffffffffffffffffffffff166108fc8273ffffffffffffffffffffffffffffffffffffffff16634d2124d46040518163ffffffff1660e01b81526004016020604051808303816000875af11580156114fd573d6000803e3d6000fd5b505050506040513d601f19601f820116820180604052508101906115219190612a36565b9081150290604051600060405180830381858888f1935050505015801561154c573d6000803e3d6000fd5b5050808061155990612895565b915050611454565b505050808061156f90612895565b915050611387565b506001600860156101000a81548160ff0219169083151502179055506115b4565b6001600860156101000a81548160ff0219169083151502179055505b5b565b600681815481106115c757600080fd5b9060005260206000200160009150905080546115e2906126a0565b80601f016020809104026020016040519081016040528092919081815260200182805461160e906126a0565b801561165b5780601f106116305761010080835404028352916020019161165b565b820191906000526020600020905b81548152906001019060200180831161163e57829003601f168201915b505050505081565b600860019054906101000a900473ffffffffffffffffffffffffffffffffffffffff1681565b60008054906101000a900473ffffffffffffffffffffffffffffffffffffffff1681565b600360009054906101000a900473ffffffffffffffffffffffffffffffffffffffff1681565b600a6020528060005260406000206000915090505481565b60606000600260009054906101000a900473ffffffffffffffffffffffffffffffffffffffff1690508073ffffffffffffffffffffffffffffffffffffffff166317d7de7c6040518163ffffffff1660e01b81526004016000604051808303816000875af1158015611761573d6000803e3d6000fd5b505050506040513d6000823e3d601f19601f8201168201806040525081019061178a9190612f8e565b91505090565b6000600860009054906101000a900460ff166117ad5760006117ff565b8173ffffffffffffffffffffffffffffffffffffffff16600860019054906101000a900473ffffffffffffffffffffffffffffffffffffffff1673ffffffffffffffffffffffffffffffffffffffff16145b9050919050565b60098054611813906126a0565b80601f016020809104026020016040519081016040528092919081815260200182805461183f906126a0565b801561188c5780601f106118615761010080835404028352916020019161188c565b820191906000526020600020905b81548152906001019060200180831161186f57829003601f168201915b505050505081565b6000600260009054906101000a900473ffffffffffffffffffffffffffffffffffffffff16905060008173ffffffffffffffffffffffffffffffffffffffff1663179f907d6040518163ffffffff1660e01b81526004016020604051808303816000875af115801561190a573d6000803e3d6000fd5b505050506040513d601f19601f8201168201806040525081019061192e91906126e6565b90508073ffffffffffffffffffffffffffffffffffffffff163373ffffffffffffffffffffffffffffffffffffffff161461199e576040517f08c379a000000000000000000000000000000000000000000000000000000000815260040161199590612785565b60405180910390fd5b826000600190506000600680549050905060005b81811015611a4657600681815481106119ce576119cd612837565b5b906000526020600020016040516020016119e89190612fd7565b6040516020818303038152906040528051906020012084604051602001611a0f9190612fee565b6040516020818303038152906040528051906020012003611a335760009250611a46565b8080611a3e90612895565b9150506119b2565b5081611a5157600080fd5b6000600360009054906101000a900473ffffffffffffffffffffffffffffffffffffffff16905060008173ffffffffffffffffffffffffffffffffffffffff166356cd61d789600260009054906101000a900473ffffffffffffffffffffffffffffffffffffffff16306040518463ffffffff1660e01b8152600401611ad993929190613005565b6020604051808303816000875af1158015611af8573d6000803e3d6000fd5b505050506040513d601f19601f82011682018060405250810190611b1c91906126e6565b9050600688908060018154018082558091505060019003906000526020600020016000909190919091509080519060200190611b59929190611ffb565b506007819080600181540180825580915050600190039060005260206000200160009091909190916101000a81548173ffffffffffffffffffffffffffffffffffffffff021916908373ffffffffffffffffffffffffffffffffffffffff1602179055505050505050505050565b6000600260009054906101000a900473ffffffffffffffffffffffffffffffffffffffff16905090565b60606006805480602002602001604051908101604052809291908181526020016000905b82821015611cc1578382906000526020600020018054611c34906126a0565b80601f0160208091040260200160405190810160405280929190818152602001828054611c60906126a0565b8015611cad5780601f10611c8257610100808354040283529160200191611cad565b820191906000526020600020905b815481529060010190602001808311611c9057829003601f168201915b505050505081526020019060010190611c15565b50505050905090565b600080600260009054906101000a900473ffffffffffffffffffffffffffffffffffffffff1690508073ffffffffffffffffffffffffffffffffffffffff1663d9bbd2786040518163ffffffff1660e01b81526004016020604051808303816000875af1158015611d3f573d6000803e3d6000fd5b505050506040513d601f19601f82011682018060405250810190611d639190612a36565b91505090565b60006064600a47611d7a9190612a63565b611d849190612aec565b905090565b60606007805480602002602001604051908101604052809291908181526020018280548015611e0d57602002820191906000526020600020905b8160009054906101000a900473ffffffffffffffffffffffffffffffffffffffff1673ffffffffffffffffffffffffffffffffffffffff1681526020019060010190808311611dc3575b5050505050905090565b60055481565b600860009054906101000a900460ff1681565b600260009054906101000a900473ffffffffffffffffffffffffffffffffffffffff1681565b60078181548110611e6657600080fd5b906000526020600020016000915054906101000a900473ffffffffffffffffffffffffffffffffffffffff1681565b606060008203611edc576040518060400160405280600181526020017f30000000000000000000000000000000000000000000000000000000000000008152509050611ff6565b600082905060005b60008214611f0e578080611ef790612895565b915050600a82611f079190612aec565b9150611ee4565b60008167ffffffffffffffff811115611f2a57611f296122ef565b5b6040519080825280601f01601f191660200182016040528015611f5c5781602001600182028036833780820191505090505b50905060008290508593505b60008414611fee57600a84611f7d9190613043565b6030611f899190613074565b60f81b8282611f97906130ca565b92508281518110611fab57611faa612837565b5b60200101907effffffffffffffffffffffffffffffffffffffffffffffffffffffffffffff1916908160001a905350600a84611fe79190612aec565b9350611f68565b819450505050505b919050565b828054612007906126a0565b90600052602060002090601f0160209004810192826120295760008555612070565b82601f1061204257805160ff1916838001178555612070565b82800160010185558215612070579182015b8281111561206f578251825591602001919060010190612054565b5b50905061207d9190612081565b5090565b5b8082111561209a576000816000905550600101612082565b5090565b600081519050919050565b600082825260208201905092915050565b60005b838110156120d85780820151818401526020810190506120bd565b838111156120e7576000848401525b50505050565b6000601f19601f8301169050919050565b60006121098261209e565b61211381856120a9565b93506121238185602086016120ba565b61212c816120ed565b840191505092915050565b6000602082019050818103600083015261215181846120fe565b905092915050565b60008115159050919050565b61216e81612159565b82525050565b60006020820190506121896000830184612165565b92915050565b6000819050919050565b6121a28161218f565b82525050565b60006020820190506121bd6000830184612199565b92915050565b6000604051905090565b600080fd5b600080fd5b600073ffffffffffffffffffffffffffffffffffffffff82169050919050565b6000612202826121d7565b9050919050565b612212816121f7565b811461221d57600080fd5b50565b60008135905061222f81612209565b92915050565b60006020828403121561224b5761224a6121cd565b5b600061225984828501612220565b91505092915050565b61226b816121f7565b82525050565b60006020820190506122866000830184612262565b92915050565b6122958161218f565b81146122a057600080fd5b50565b6000813590506122b28161228c565b92915050565b6000602082840312156122ce576122cd6121cd565b5b60006122dc848285016122a3565b91505092915050565b600080fd5b600080fd5b7f4e487b7100000000000000000000000000000000000000000000000000000000600052604160045260246000fd5b612327826120ed565b810181811067ffffffffffffffff82111715612346576123456122ef565b5b80604052505050565b60006123596121c3565b9050612365828261231e565b919050565b600067ffffffffffffffff821115612385576123846122ef565b5b61238e826120ed565b9050602081019050919050565b82818337600083830152505050565b60006123bd6123b88461236a565b61234f565b9050828152602081018484840111156123d9576123d86122ea565b5b6123e484828561239b565b509392505050565b600082601f830112612401576124006122e5565b5b81356124118482602086016123aa565b91505092915050565b6000602082840312156124305761242f6121cd565b5b600082013567ffffffffffffffff81111561244e5761244d6121d2565b5b61245a848285016123ec565b91505092915050565b600081519050919050565b600082825260208201905092915050565b6000819050602082019050919050565b600082825260208201905092915050565b60006124ab8261209e565b6124b5818561248f565b93506124c58185602086016120ba565b6124ce816120ed565b840191505092915050565b60006124e583836124a0565b905092915050565b6000602082019050919050565b600061250582612463565b61250f818561246e565b9350836020820285016125218561247f565b8060005b8581101561255d578484038952815161253e85826124d9565b9450612549836124ed565b925060208a01995050600181019050612525565b50829750879550505050505092915050565b6000602082019050818103600083015261258981846124fa565b905092915050565b600081519050919050565b600082825260208201905092915050565b6000819050602082019050919050565b6125c6816121f7565b82525050565b60006125d883836125bd565b60208301905092915050565b6000602082019050919050565b60006125fc82612591565b612606818561259c565b9350612611836125ad565b8060005b8381101561264257815161262988826125cc565b9750612634836125e4565b925050600181019050612615565b5085935050505092915050565b6000602082019050818103600083015261266981846125f1565b905092915050565b7f4e487b7100000000000000000000000000000000000000000000000000000000600052602260045260246000fd5b600060028204905060018216806126b857607f821691505b6020821081036126cb576126ca612671565b5b50919050565b6000815190506126e081612209565b92915050565b6000602082840312156126fc576126fb6121cd565b5b600061270a848285016126d1565b91505092915050565b7f4f6e6c79206576656e74206f776e657273207365742077696e6e696e6720706f60008201527f6f6c000000000000000000000000000000000000000000000000000000000000602082015250565b600061276f6022836120a9565b915061277a82612713565b604082019050919050565b6000602082019050818103600083015261279e81612762565b9050919050565b7f43616e6e6f74207365742077696e6e696e6720706f6f6c206f6e206d61726b6560008201527f742077697468206e6f20706f6f6c000000000000000000000000000000000000602082015250565b6000612801602e836120a9565b915061280c826127a5565b604082019050919050565b60006020820190508181036000830152612830816127f4565b9050919050565b7f4e487b7100000000000000000000000000000000000000000000000000000000600052603260045260246000fd5b7f4e487b7100000000000000000000000000000000000000000000000000000000600052601160045260246000fd5b60006128a08261218f565b91507fffffffffffffffffffffffffffffffffffffffffffffffffffffffffffffffff82036128d2576128d1612866565b5b600182019050919050565b7f496e76616c696420706f6f6c2061646472657373000000000000000000000000600082015250565b60006129136014836120a9565b915061291e826128dd565b602082019050919050565b6000602082019050818103600083015261294281612906565b9050919050565b7f57696e6e696e6720506f6f6c20616c7265616479207365740000000000000000600082015250565b600061297f6018836120a9565b915061298a82612949565b602082019050919050565b600060208201905081810360008301526129ae81612972565b9050919050565b7f4e6f20506f6f6c20416464726573732077617320666f756e6400000000000000600082015250565b60006129eb6019836120a9565b91506129f6826129b5565b602082019050919050565b60006020820190508181036000830152612a1a816129de565b9050919050565b600081519050612a308161228c565b92915050565b600060208284031215612a4c57612a4b6121cd565b5b6000612a5a84828501612a21565b91505092915050565b6000612a6e8261218f565b9150612a798361218f565b9250817fffffffffffffffffffffffffffffffffffffffffffffffffffffffffffffffff0483118215151615612ab257612ab1612866565b5b828202905092915050565b7f4e487b7100000000000000000000000000000000000000000000000000000000600052601260045260246000fd5b6000612af78261218f565b9150612b028361218f565b925082612b1257612b11612abd565b5b828204905092915050565b6000612b288261218f565b9150612b338361218f565b925082821015612b4657612b45612866565b5b828203905092915050565b600081905092915050565b60008190508160005260206000209050919050565b60008154612b7e816126a0565b612b888186612b51565b94506001821660008114612ba35760018114612bb457612be7565b60ff19831686528186019350612be7565b612bbd85612b5c565b60005b83811015612bdf57815481890152600182019150602081019050612bc0565b838801955050505b50505092915050565b7f5669672073686172650000000000000000000000000000000000000000000000815250565b6000612c228284612b71565b9150612c2d82612bf0565b60098201915081905092915050565b6000612c478261209e565b612c518185612b51565b9350612c618185602086016120ba565b80840191505092915050565b6000612c798285612b71565b9150612c858284612c3c565b91508190509392505050565b600067ffffffffffffffff821115612cac57612cab6122ef565b5b602082029050602081019050919050565b600080fd5b6000612cd5612cd084612c91565b61234f565b90508083825260208201905060208402830185811115612cf857612cf7612cbd565b5b835b81811015612d215780612d0d88826126d1565b845260208401935050602081019050612cfa565b5050509392505050565b600082601f830112612d4057612d3f6122e5565b5b8151612d50848260208601612cc2565b91505092915050565b600060208284031215612d6f57612d6e6121cd565b5b600082015167ffffffffffffffff811115612d8d57612d8c6121d2565b5b612d9984828501612d2b565b91505092915050565b7f4265747374616b653a0000000000000000000000000000000000000000000000815250565b6000612dd48284612b71565b9150612ddf82612da2565b60098201915081905092915050565b7f546f74616c205374616b65000000000000000000000000000000000000000000815250565b6000612e208284612b71565b9150612e2b82612dee565b600b8201915081905092915050565b7f42616c616e636500000000000000000000000000000000000000000000000000815250565b6000612e6c8284612b71565b9150612e7782612e3a565b60078201915081905092915050565b7f416d6f756e7420746f2073656e643a0000000000000000000000000000000000815250565b6000612eb88284612b71565b9150612ec382612e86565b600f8201915081905092915050565b7f46696e616c204d61726b65742042616c616e63653a2000000000000000000000815250565b6000612f048284612b71565b9150612f0f82612ed2565b60168201915081905092915050565b6000612f31612f2c8461236a565b61234f565b905082815260208101848484011115612f4d57612f4c6122ea565b5b612f588482856120ba565b509392505050565b600082601f830112612f7557612f746122e5565b5b8151612f85848260208601612f1e565b91505092915050565b600060208284031215612fa457612fa36121cd565b5b600082015167ffffffffffffffff811115612fc257612fc16121d2565b5b612fce84828501612f60565b91505092915050565b6000612fe38284612b71565b915081905092915050565b6000612ffa8284612c3c565b915081905092915050565b6000606082019050818103600083015261301f81866120fe565b905061302e6020830185612262565b61303b6040830184612262565b949350505050565b600061304e8261218f565b91506130598361218f565b92508261306957613068612abd565b5b828206905092915050565b600061307f8261218f565b915061308a8361218f565b9250827fffffffffffffffffffffffffffffffffffffffffffffffffffffffffffffffff038211156130bf576130be612866565b5b828201905092915050565b60006130d58261218f565b9150600082036130e8576130e7612866565b5b60018203905091905056fea2646970667358221220747c470317b7b292f9434507c451638ae57cde2cde5f806c01b5859742238cd264736f6c634300080d0033a2646970667358221220f4cb4c2a52fd219263f6f27f1b599f18a1c60eaa77686be6e2e5d5bdfc218a0764736f6c634300080d0033",
  "immutableReferences": {},
  "source": "// SPDX-License-Identifier: MIT\npragma solidity >0.4.23 <0.9.0;\nimport \"./Markets.sol\";\n\ncontract MarketFactory {\n    mapping (address => address[]) public eventMarkets;\n\n    event MarketCreated(address marketAddress, address eventAddress, string marketName);\n\n    address[] private _markets;\n\n    address public web3betsAddress;\n\n    address public poolsFactoryAddress;\n\n    constructor(\n        address _poolsFactoryAddress, address _web3betsAddress\n    ){\n        web3betsAddress = _web3betsAddress;\n        poolsFactoryAddress = _poolsFactoryAddress;\n    }\n\n    function createMarket(\n        string memory _name, address _eventAddress) public returns(address) {\n        \n        Market _market = new Market(_name, _eventAddress, poolsFactoryAddress, web3betsAddress);\n\n        eventMarkets[_eventAddress].push(address(_market));\n\n        _markets.push(address(_market));\n\n        emit MarketCreated(address(_market), _eventAddress, _name);\n        return address(_market);\n    }\n\n    function getMarketsByEvent(address eventAddress)\n        public\n        view\n        returns (address[] memory markets)\n    {\n        return eventMarkets[eventAddress];\n\n    }\n\n    function getTotalMarkets() external view returns (uint) {\n        return _markets.length;\n    }\n\n    function getAllMarkets() external view returns (address[] memory){\n        return _markets;\n    }\n\n}\n",
  "sourcePath": "/Users/wizardom/projects/crypto/web3bets_smartcontract/contracts/MarketFactory.sol",
  "compiler": {
    "name": "solc",
    "version": "0.8.13+commit.abaa5c0e.Emscripten.clang"
  },
  "schemaVersion": "3.4.7",
  "updatedAt": "2022-08-02T04:22:07.858Z",
  "networkType": "ethereum",
  "devdoc": {
    "kind": "dev",
    "methods": {},
    "version": 1
  },
  "userdoc": {
    "kind": "user",
    "methods": {},
    "version": 1
  }
}