{
  "contractName": "Market",
  "abi": [
    {
      "inputs": [
        {
          "internalType": "string",
          "name": "_name",
          "type": "string"
        },
        {
          "internalType": "address",
          "name": "_eventAddress",
          "type": "address"
        },
        {
          "internalType": "address",
          "name": "_poolFactoryAddress",
          "type": "address"
        },
        {
          "internalType": "address",
          "name": "_web3betsAddress",
          "type": "address"
        }
      ],
      "stateMutability": "nonpayable",
      "type": "constructor"
    },
    {
      "inputs": [],
      "name": "eventAddress",
      "outputs": [
        {
          "internalType": "address",
          "name": "",
          "type": "address"
        }
      ],
      "stateMutability": "view",
      "type": "function"
    },
    {
      "inputs": [],
      "name": "hasSetWinningPool",
      "outputs": [
        {
          "internalType": "bool",
          "name": "",
          "type": "bool"
        }
      ],
      "stateMutability": "view",
      "type": "function"
    },
    {
      "inputs": [],
      "name": "name",
      "outputs": [
        {
          "internalType": "string",
          "name": "",
          "type": "string"
        }
      ],
      "stateMutability": "view",
      "type": "function"
    },
    {
      "inputs": [],
      "name": "owner",
      "outputs": [
        {
          "internalType": "address",
          "name": "",
          "type": "address"
        }
      ],
      "stateMutability": "view",
      "type": "function"
    },
    {
      "inputs": [],
      "name": "poolFactoryAddress",
      "outputs": [
        {
          "internalType": "address",
          "name": "",
          "type": "address"
        }
      ],
      "stateMutability": "view",
      "type": "function"
    },
    {
      "inputs": [],
      "name": "web3BetsAddress",
      "outputs": [
        {
          "internalType": "address",
          "name": "",
          "type": "address"
        }
      ],
      "stateMutability": "view",
      "type": "function"
    },
    {
      "inputs": [
        {
          "internalType": "string",
          "name": "_name",
          "type": "string"
        }
      ],
      "name": "createMarketPool",
      "outputs": [],
      "stateMutability": "nonpayable",
      "type": "function"
    },
    {
      "inputs": [
        {
          "internalType": "address",
          "name": "_poolAddress",
          "type": "address"
        }
      ],
      "name": "setWinningPool",
      "outputs": [],
      "stateMutability": "nonpayable",
      "type": "function"
    },
    {
      "inputs": [],
      "name": "getEventName",
      "outputs": [
        {
          "internalType": "string",
          "name": "",
          "type": "string"
        }
      ],
      "stateMutability": "nonpayable",
      "type": "function"
    },
    {
      "inputs": [],
      "name": "getEventAddress",
      "outputs": [
        {
          "internalType": "address",
          "name": "",
          "type": "address"
        }
      ],
      "stateMutability": "view",
      "type": "function"
    },
    {
      "inputs": [],
      "name": "getName",
      "outputs": [
        {
          "internalType": "string",
          "name": "",
          "type": "string"
        }
      ],
      "stateMutability": "view",
      "type": "function"
    },
    {
      "inputs": [],
      "name": "getTotalStake",
      "outputs": [
        {
          "internalType": "uint256",
          "name": "",
          "type": "uint256"
        }
      ],
      "stateMutability": "nonpayable",
      "type": "function"
    },
    {
      "inputs": [],
      "name": "isWinningPoolSet",
      "outputs": [
        {
          "internalType": "bool",
          "name": "",
          "type": "bool"
        }
      ],
      "stateMutability": "view",
      "type": "function"
    }
  ],
  "bytecode": "0x60806040523480156200001157600080fd5b5060405162001b8838038062001b8883398181016040528101906200003791906200040f565b336000806101000a81548173ffffffffffffffffffffffffffffffffffffffff021916908373ffffffffffffffffffffffffffffffffffffffff16021790555083600190805190602001906200008f9291906200015d565b5082600260006101000a81548173ffffffffffffffffffffffffffffffffffffffff021916908373ffffffffffffffffffffffffffffffffffffffff16021790555081600360006101000a81548173ffffffffffffffffffffffffffffffffffffffff021916908373ffffffffffffffffffffffffffffffffffffffff16021790555080600460006101000a81548173ffffffffffffffffffffffffffffffffffffffff021916908373ffffffffffffffffffffffffffffffffffffffff1602179055505050505062000504565b8280546200016b90620004cf565b90600052602060002090601f0160209004810192826200018f5760008555620001db565b82601f10620001aa57805160ff1916838001178555620001db565b82800160010185558215620001db579182015b82811115620001da578251825591602001919060010190620001bd565b5b509050620001ea9190620001ee565b5090565b5b8082111562000209576000816000905550600101620001ef565b5090565b6000604051905090565b600080fd5b600080fd5b600080fd5b600080fd5b6000601f19601f8301169050919050565b7f4e487b7100000000000000000000000000000000000000000000000000000000600052604160045260246000fd5b62000276826200022b565b810181811067ffffffffffffffff821117156200029857620002976200023c565b5b80604052505050565b6000620002ad6200020d565b9050620002bb82826200026b565b919050565b600067ffffffffffffffff821115620002de57620002dd6200023c565b5b620002e9826200022b565b9050602081019050919050565b60005b8381101562000316578082015181840152602081019050620002f9565b8381111562000326576000848401525b50505050565b6000620003436200033d84620002c0565b620002a1565b90508281526020810184848401111562000362576200036162000226565b5b6200036f848285620002f6565b509392505050565b600082601f8301126200038f576200038e62000221565b5b8151620003a18482602086016200032c565b91505092915050565b600073ffffffffffffffffffffffffffffffffffffffff82169050919050565b6000620003d782620003aa565b9050919050565b620003e981620003ca565b8114620003f557600080fd5b50565b6000815190506200040981620003de565b92915050565b600080600080608085870312156200042c576200042b62000217565b5b600085015167ffffffffffffffff8111156200044d576200044c6200021c565b5b6200045b8782880162000377565b94505060206200046e87828801620003f8565b93505060406200048187828801620003f8565b92505060606200049487828801620003f8565b91505092959194509250565b7f4e487b7100000000000000000000000000000000000000000000000000000000600052602260045260246000fd5b60006002820490506001821680620004e857607f821691505b602082108103620004fe57620004fd620004a0565b5b50919050565b61167480620005146000396000f3fe608060405234801561001057600080fd5b50600436106100cf5760003560e01c80637dbaf26b1161008c578063b81e43fc11610066578063b81e43fc146101de578063d427ccbf146101fc578063f92c16201461021a578063fad5677914610238576100cf565b80637dbaf26b146101865780638da5cb5b146101a2578063a32cf536146101c0576100cf565b806306fdde03146100d457806309dd8f87146100f257806317d7de7c14610110578063352ae5961461012e5780635d155b0c1461014a5780637bc7422514610168575b600080fd5b6100dc610256565b6040516100e99190610def565b60405180910390f35b6100fa6102e4565b6040516101079190610e2c565b60405180910390f35b6101186102fb565b6040516101259190610def565b60405180910390f35b61014860048036038101906101439190610eb9565b61038d565b005b610152610707565b60405161015f9190610ef5565b60405180910390f35b61017061072d565b60405161017d9190610f29565b60405180910390f35b6101a0600480360381019061019b9190611079565b61083a565b005b6101aa610b61565b6040516101b79190610ef5565b60405180910390f35b6101c8610b85565b6040516101d59190610ef5565b60405180910390f35b6101e6610bab565b6040516101f39190610def565b60405180910390f35b610204610c50565b6040516102119190610ef5565b60405180910390f35b610222610c7a565b60405161022f9190610e2c565b60405180910390f35b610240610c8d565b60405161024d9190610ef5565b60405180910390f35b60018054610263906110f1565b80601f016020809104026020016040519081016040528092919081815260200182805461028f906110f1565b80156102dc5780601f106102b1576101008083540402835291602001916102dc565b820191906000526020600020905b8154815290600101906020018083116102bf57829003601f168201915b505050505081565b6000600760009054906101000a900460ff16905090565b60606001805461030a906110f1565b80601f0160208091040260200160405190810160405280929190818152602001828054610336906110f1565b80156103835780601f1061035857610100808354040283529160200191610383565b820191906000526020600020905b81548152906001019060200180831161036657829003601f168201915b5050505050905090565b6000600260009054906101000a900473ffffffffffffffffffffffffffffffffffffffff1690508073ffffffffffffffffffffffffffffffffffffffff1663179f907d6040518163ffffffff1660e01b81526004016020604051808303816000875af1158015610401573d6000803e3d6000fd5b505050506040513d601f19601f820116820180604052508101906104259190611137565b73ffffffffffffffffffffffffffffffffffffffff163373ffffffffffffffffffffffffffffffffffffffff1614610492576040517f08c379a0000000000000000000000000000000000000000000000000000000008152600401610489906111d6565b60405180910390fd5b816000806006805490509050600081116104e1576040517f08c379a00000000000000000000000000000000000000000000000000000000081526004016104d890611268565b60405180910390fd5b60005b81811015610596578373ffffffffffffffffffffffffffffffffffffffff1660056006838154811061051957610518611288565b5b906000526020600020016040516105309190611356565b908152602001604051809103902060009054906101000a900473ffffffffffffffffffffffffffffffffffffffff1673ffffffffffffffffffffffffffffffffffffffff16036105835760019250610596565b808061058e9061139c565b9150506104e4565b50816105d7576040517f08c379a00000000000000000000000000000000000000000000000000000000081526004016105ce90611430565b60405180910390fd5b6000600460009054906101000a900473ffffffffffffffffffffffffffffffffffffffff16905060008173ffffffffffffffffffffffffffffffffffffffff16632004b3e56040518163ffffffff1660e01b81526004016020604051808303816000875af115801561064d573d6000803e3d6000fd5b505050506040513d601f19601f82011682018060405250810190610671919061147c565b90506000600680549050905060005b818110156106fc5760006005600683815481106106a05761069f611288565b5b906000526020600020016040516106b79190611356565b908152602001604051809103902060009054906101000a900473ffffffffffffffffffffffffffffffffffffffff1690505080806106f49061139c565b915050610680565b505050505050505050565b600460009054906101000a900473ffffffffffffffffffffffffffffffffffffffff1681565b60008060005b60068054905081101561083257600060056006838154811061075857610757611288565b5b9060005260206000200160405161076f9190611356565b908152602001604051809103902060009054906101000a900473ffffffffffffffffffffffffffffffffffffffff1690508073ffffffffffffffffffffffffffffffffffffffff16637bc742256040518163ffffffff1660e01b81526004016020604051808303816000875af11580156107ed573d6000803e3d6000fd5b505050506040513d601f19601f82011682018060405250810190610811919061147c565b8361081c91906114a9565b925050808061082a9061139c565b915050610733565b508091505090565b6000600260009054906101000a900473ffffffffffffffffffffffffffffffffffffffff1690508073ffffffffffffffffffffffffffffffffffffffff1663179f907d6040518163ffffffff1660e01b81526004016020604051808303816000875af11580156108ae573d6000803e3d6000fd5b505050506040513d601f19601f820116820180604052508101906108d29190611137565b73ffffffffffffffffffffffffffffffffffffffff163373ffffffffffffffffffffffffffffffffffffffff161461093f576040517f08c379a0000000000000000000000000000000000000000000000000000000008152600401610936906111d6565b60405180910390fd5b816000600190506000600680549050905060005b818110156109e7576006818154811061096f5761096e611288565b5b906000526020600020016040516020016109899190611356565b60405160208183030381529060405280519060200120846040516020016109b09190611530565b60405160208183030381529060405280519060200120036109d457600092506109e7565b80806109df9061139c565b915050610953565b50816109f257600080fd5b6000600360009054906101000a900473ffffffffffffffffffffffffffffffffffffffff16905060008173ffffffffffffffffffffffffffffffffffffffff166356cd61d788600260009054906101000a900473ffffffffffffffffffffffffffffffffffffffff16306040518463ffffffff1660e01b8152600401610a7a93929190611547565b6020604051808303816000875af1158015610a99573d6000803e3d6000fd5b505050506040513d601f19601f82011682018060405250810190610abd9190611137565b905080600588604051610ad09190611530565b908152602001604051809103902060006101000a81548173ffffffffffffffffffffffffffffffffffffffff021916908373ffffffffffffffffffffffffffffffffffffffff160217905550600687908060018154018082558091505060019003906000526020600020016000909190919091509080519060200190610b57929190610cb3565b5050505050505050565b60008054906101000a900473ffffffffffffffffffffffffffffffffffffffff1681565b600360009054906101000a900473ffffffffffffffffffffffffffffffffffffffff1681565b60606000600260009054906101000a900473ffffffffffffffffffffffffffffffffffffffff1690508073ffffffffffffffffffffffffffffffffffffffff166317d7de7c6040518163ffffffff1660e01b81526004016000604051808303816000875af1158015610c21573d6000803e3d6000fd5b505050506040513d6000823e3d601f19601f82011682018060405250810190610c4a91906115f5565b91505090565b6000600260009054906101000a900473ffffffffffffffffffffffffffffffffffffffff16905090565b600760009054906101000a900460ff1681565b600260009054906101000a900473ffffffffffffffffffffffffffffffffffffffff1681565b828054610cbf906110f1565b90600052602060002090601f016020900481019282610ce15760008555610d28565b82601f10610cfa57805160ff1916838001178555610d28565b82800160010185558215610d28579182015b82811115610d27578251825591602001919060010190610d0c565b5b509050610d359190610d39565b5090565b5b80821115610d52576000816000905550600101610d3a565b5090565b600081519050919050565b600082825260208201905092915050565b60005b83811015610d90578082015181840152602081019050610d75565b83811115610d9f576000848401525b50505050565b6000601f19601f8301169050919050565b6000610dc182610d56565b610dcb8185610d61565b9350610ddb818560208601610d72565b610de481610da5565b840191505092915050565b60006020820190508181036000830152610e098184610db6565b905092915050565b60008115159050919050565b610e2681610e11565b82525050565b6000602082019050610e416000830184610e1d565b92915050565b6000604051905090565b600080fd5b600080fd5b600073ffffffffffffffffffffffffffffffffffffffff82169050919050565b6000610e8682610e5b565b9050919050565b610e9681610e7b565b8114610ea157600080fd5b50565b600081359050610eb381610e8d565b92915050565b600060208284031215610ecf57610ece610e51565b5b6000610edd84828501610ea4565b91505092915050565b610eef81610e7b565b82525050565b6000602082019050610f0a6000830184610ee6565b92915050565b6000819050919050565b610f2381610f10565b82525050565b6000602082019050610f3e6000830184610f1a565b92915050565b600080fd5b600080fd5b7f4e487b7100000000000000000000000000000000000000000000000000000000600052604160045260246000fd5b610f8682610da5565b810181811067ffffffffffffffff82111715610fa557610fa4610f4e565b5b80604052505050565b6000610fb8610e47565b9050610fc48282610f7d565b919050565b600067ffffffffffffffff821115610fe457610fe3610f4e565b5b610fed82610da5565b9050602081019050919050565b82818337600083830152505050565b600061101c61101784610fc9565b610fae565b90508281526020810184848401111561103857611037610f49565b5b611043848285610ffa565b509392505050565b600082601f8301126110605761105f610f44565b5b8135611070848260208601611009565b91505092915050565b60006020828403121561108f5761108e610e51565b5b600082013567ffffffffffffffff8111156110ad576110ac610e56565b5b6110b98482850161104b565b91505092915050565b7f4e487b7100000000000000000000000000000000000000000000000000000000600052602260045260246000fd5b6000600282049050600182168061110957607f821691505b60208210810361111c5761111b6110c2565b5b50919050565b60008151905061113181610e8d565b92915050565b60006020828403121561114d5761114c610e51565b5b600061115b84828501611122565b91505092915050565b7f4f6e6c79206576656e74206f776e657273207365742077696e6e696e6720706f60008201527f6f6c000000000000000000000000000000000000000000000000000000000000602082015250565b60006111c0602283610d61565b91506111cb82611164565b604082019050919050565b600060208201905081810360008301526111ef816111b3565b9050919050565b7f43616e6e6f74207365742077696e6e696e6720706f6f6c206f6e206d61726b6560008201527f742077697468206e6f20706f6f6c000000000000000000000000000000000000602082015250565b6000611252602e83610d61565b915061125d826111f6565b604082019050919050565b6000602082019050818103600083015261128181611245565b9050919050565b7f4e487b7100000000000000000000000000000000000000000000000000000000600052603260045260246000fd5b600081905092915050565b60008190508160005260206000209050919050565b600081546112e4816110f1565b6112ee81866112b7565b94506001821660008114611309576001811461131a5761134d565b60ff1983168652818601935061134d565b611323856112c2565b60005b8381101561134557815481890152600182019150602081019050611326565b838801955050505b50505092915050565b600061136282846112d7565b915081905092915050565b7f4e487b7100000000000000000000000000000000000000000000000000000000600052601160045260246000fd5b60006113a782610f10565b91507fffffffffffffffffffffffffffffffffffffffffffffffffffffffffffffffff82036113d9576113d861136d565b5b600182019050919050565b7f496e76616c696420706f6f6c2061646472657373000000000000000000000000600082015250565b600061141a601483610d61565b9150611425826113e4565b602082019050919050565b600060208201905081810360008301526114498161140d565b9050919050565b61145981610f10565b811461146457600080fd5b50565b60008151905061147681611450565b92915050565b60006020828403121561149257611491610e51565b5b60006114a084828501611467565b91505092915050565b60006114b482610f10565b91506114bf83610f10565b9250827fffffffffffffffffffffffffffffffffffffffffffffffffffffffffffffffff038211156114f4576114f361136d565b5b828201905092915050565b600061150a82610d56565b61151481856112b7565b9350611524818560208601610d72565b80840191505092915050565b600061153c82846114ff565b915081905092915050565b600060608201905081810360008301526115618186610db6565b90506115706020830185610ee6565b61157d6040830184610ee6565b949350505050565b600061159861159384610fc9565b610fae565b9050828152602081018484840111156115b4576115b3610f49565b5b6115bf848285610d72565b509392505050565b600082601f8301126115dc576115db610f44565b5b81516115ec848260208601611585565b91505092915050565b60006020828403121561160b5761160a610e51565b5b600082015167ffffffffffffffff81111561162957611628610e56565b5b611635848285016115c7565b9150509291505056fea264697066735822122068d25d4974247ea0de6a0f4d71fc0920a311ef0fcd86ca08d25d72af3c0d6d9864736f6c634300080d0033",
  "immutableReferences": {},
  "source": "// SPDX-License-Identifier: MIT\n\npragma solidity ^0.8.4;\n\nimport \"./interface/IWeb3BetsMarketV1.sol\";\nimport \"./interface/IWeb3BetsEventsV1.sol\";\nimport \"./interface/IWeb3BetsPoolsV1.sol\";\nimport \"./interface/IWeb3Bets.sol\";\nimport \"./PoolsFactory.sol\";\n\ncontract Market is IWeb3BetsMarketV1 {\n    address public owner;\n    string public name;\n    address public eventAddress;\n    address public poolFactoryAddress;\n    address public web3BetsAddress;\n    mapping(string => address) pools;\n    string[] poolNames;\n    bool public hasSetWinningPool;\n    mapping(address => uint) winningPoolAddresses;\n\n    modifier onlyEventOwner() {\n        IWeb3BetsEventV1 poolEvent = IWeb3BetsEventV1(eventAddress);\n        require(\n            msg.sender == poolEvent.getEventOwner(),\n            \"Only event owners set winning pool\"\n        );\n        _;\n    }\n\n    modifier uniqueName(string memory value) {\n        bool isNotEqual = true;\n        uint poolNamesLength = poolNames.length;\n        for (uint i = 0; i < poolNamesLength; i++) {\n            if (keccak256(abi.encodePacked(value)) == keccak256(abi.encodePacked(poolNames[i]))) {\n                isNotEqual = false;\n                break;\n            }\n        }\n        require(isNotEqual);\n\n        _;\n    }\n\n    //  verify if winning pool is valid in current market\n    modifier validWinningPool(address _poolAddress) {\n        bool found = false;\n        uint256 poolLength = poolNames.length;\n        require(\n            poolLength > 0,\n            \"Cannot set winning pool on market with no pool\"\n        );\n        for (uint256 i = 0; i < poolLength; i++) {\n            if (pools[poolNames[i]] == _poolAddress) {\n                found = true;\n                break;\n            }\n        }\n        require(found, \"Invalid pool address\");\n\n        _;\n    }\n\n    constructor(string memory _name, address _eventAddress,address _poolFactoryAddress, address _web3betsAddress) {\n        owner = msg.sender;\n        name = _name;\n        eventAddress = _eventAddress;\n        poolFactoryAddress = _poolFactoryAddress;\n        web3BetsAddress = _web3betsAddress;\n    }\n\n    function createMarketPool(string memory _name)\n    override\n        external\n        onlyEventOwner\n        uniqueName(_name)\n    {\n        PoolsFactory poolsFactory = PoolsFactory(poolFactoryAddress);\n        address poolAddress = poolsFactory.createPool(\n            _name,\n            eventAddress,\n            address(this)\n        );\n        pools[_name] = poolAddress;\n        poolNames.push(_name);\n    }\n\n    function setWinningPool(address _poolAddress)\n    override\n        external\n        onlyEventOwner\n        validWinningPool(_poolAddress)\n    {\n        // Initialize the Web3Bets address\n        IWeb3Bets web3Bets = IWeb3Bets(web3BetsAddress);\n        uint vigPercentage = web3Bets.getVigPercentage();\n\n        // Get total stake and transfer to market\n        // TODO: discuss with client: formulate pragmatic algorithm for bet winnings\n        uint poolLength = poolNames.length;\n        for (uint i = 0; i < poolLength; i++){\n            IWeb3BetsPoolsV1 pool = IWeb3BetsPoolsV1(pools[poolNames[i]]);\n            \n        }\n    }\n\n    function getEventName() external override returns (string memory) {\n        IWeb3BetsEventV1 marketEvent = IWeb3BetsEventV1(eventAddress);\n        return marketEvent.getName();\n    }\n\n    function getEventAddress() external view override returns (address) {\n        return eventAddress;\n    }\n\n    function getName() external view override returns (string memory) {\n        return name;\n    }\n\n    function getTotalStake() external override returns (uint) {\n\n        uint totalStake;\n\n        for (uint i = 0; i < poolNames.length; i++){\n            IWeb3BetsPoolsV1 betsPool = IWeb3BetsPoolsV1(pools[poolNames[i]]);\n            totalStake += betsPool.getTotalStake();\n        }\n\n        return totalStake;\n    }\n\n    function isWinningPoolSet() override external view returns(bool){\n        return hasSetWinningPool;\n    }\n\n    // function _toLower(string memory str) internal returns (string memory) {\n    //     bytes memory bStr = bytes(str);\n    //     bytes memory bLower = new bytes(bStr.length);\n    //     for (uint256 i = 0; i < bStr.length; i++) {\n    //         // Uppercase character...\n    //         if ((bStr[i] >= 0x65) && (bStr[i] <= 0x90)) {\n    //             // So we add 32 to make it lowercase\n    //             bLower[i] = bytes1(int256(bStr[i]) + 32);\n    //         } else {\n    //             bLower[i] = bStr[i];\n    //         }\n    //     }\n    //     return string(bLower);\n    // }\n}\n",
  "sourcePath": "/Users/wizardom/projects/crypto/web3bets_smartcontract/contracts/Markets.sol",
  "compiler": {
    "name": "solc",
    "version": "0.8.13+commit.abaa5c0e.Emscripten.clang"
  },
  "schemaVersion": "3.4.7",
  "updatedAt": "2022-07-23T16:02:35.369Z",
  "devdoc": {
    "kind": "dev",
    "methods": {},
    "version": 1
  },
  "userdoc": {
    "kind": "user",
    "methods": {},
    "version": 1
  }
}