{
  "contractName": "Market",
  "abi": [
    {
      "inputs": [
        {
          "internalType": "string",
          "name": "_name",
          "type": "string"
        },
        {
          "internalType": "address",
          "name": "_eventAddress",
          "type": "address"
        },
        {
          "internalType": "address",
          "name": "_poolFactoryAddress",
          "type": "address"
        },
        {
          "internalType": "address",
          "name": "_web3betsAddress",
          "type": "address"
        }
      ],
      "stateMutability": "nonpayable",
      "type": "constructor"
    },
    {
      "stateMutability": "payable",
      "type": "fallback"
    },
    {
      "inputs": [],
      "name": "allAmounts",
      "outputs": [
        {
          "internalType": "string",
          "name": "",
          "type": "string"
        }
      ],
      "stateMutability": "view",
      "type": "function"
    },
    {
      "inputs": [],
      "name": "eventAddress",
      "outputs": [
        {
          "internalType": "address",
          "name": "",
          "type": "address"
        }
      ],
      "stateMutability": "view",
      "type": "function"
    },
    {
      "inputs": [],
      "name": "hasSetWinningPool",
      "outputs": [
        {
          "internalType": "bool",
          "name": "",
          "type": "bool"
        }
      ],
      "stateMutability": "view",
      "type": "function"
    },
    {
      "inputs": [],
      "name": "isSettled",
      "outputs": [
        {
          "internalType": "bool",
          "name": "",
          "type": "bool"
        }
      ],
      "stateMutability": "view",
      "type": "function"
    },
    {
      "inputs": [],
      "name": "minimumStake",
      "outputs": [
        {
          "internalType": "uint256",
          "name": "",
          "type": "uint256"
        }
      ],
      "stateMutability": "view",
      "type": "function"
    },
    {
      "inputs": [],
      "name": "name",
      "outputs": [
        {
          "internalType": "string",
          "name": "",
          "type": "string"
        }
      ],
      "stateMutability": "view",
      "type": "function"
    },
    {
      "inputs": [],
      "name": "owner",
      "outputs": [
        {
          "internalType": "address",
          "name": "",
          "type": "address"
        }
      ],
      "stateMutability": "view",
      "type": "function"
    },
    {
      "inputs": [
        {
          "internalType": "uint256",
          "name": "",
          "type": "uint256"
        }
      ],
      "name": "poolAddresses",
      "outputs": [
        {
          "internalType": "address",
          "name": "",
          "type": "address"
        }
      ],
      "stateMutability": "view",
      "type": "function"
    },
    {
      "inputs": [],
      "name": "poolFactoryAddress",
      "outputs": [
        {
          "internalType": "address",
          "name": "",
          "type": "address"
        }
      ],
      "stateMutability": "view",
      "type": "function"
    },
    {
      "inputs": [
        {
          "internalType": "uint256",
          "name": "",
          "type": "uint256"
        }
      ],
      "name": "poolNames",
      "outputs": [
        {
          "internalType": "string",
          "name": "",
          "type": "string"
        }
      ],
      "stateMutability": "view",
      "type": "function"
    },
    {
      "inputs": [],
      "name": "web3BetsAddress",
      "outputs": [
        {
          "internalType": "address",
          "name": "",
          "type": "address"
        }
      ],
      "stateMutability": "view",
      "type": "function"
    },
    {
      "inputs": [],
      "name": "winningPoolAddress",
      "outputs": [
        {
          "internalType": "address",
          "name": "",
          "type": "address"
        }
      ],
      "stateMutability": "view",
      "type": "function"
    },
    {
      "inputs": [
        {
          "internalType": "address",
          "name": "",
          "type": "address"
        }
      ],
      "name": "winningPoolAddresses",
      "outputs": [
        {
          "internalType": "uint256",
          "name": "",
          "type": "uint256"
        }
      ],
      "stateMutability": "view",
      "type": "function"
    },
    {
      "stateMutability": "payable",
      "type": "receive"
    },
    {
      "inputs": [
        {
          "internalType": "string",
          "name": "_name",
          "type": "string"
        }
      ],
      "name": "createPool",
      "outputs": [],
      "stateMutability": "nonpayable",
      "type": "function"
    },
    {
      "inputs": [
        {
          "internalType": "address",
          "name": "_poolAddress",
          "type": "address"
        }
      ],
      "name": "setWinningPool",
      "outputs": [],
      "stateMutability": "nonpayable",
      "type": "function"
    },
    {
      "inputs": [],
      "name": "getEventName",
      "outputs": [
        {
          "internalType": "string",
          "name": "",
          "type": "string"
        }
      ],
      "stateMutability": "nonpayable",
      "type": "function"
    },
    {
      "inputs": [],
      "name": "getEventAddress",
      "outputs": [
        {
          "internalType": "address",
          "name": "",
          "type": "address"
        }
      ],
      "stateMutability": "view",
      "type": "function"
    },
    {
      "inputs": [],
      "name": "getVigShare",
      "outputs": [
        {
          "internalType": "uint256",
          "name": "",
          "type": "uint256"
        }
      ],
      "stateMutability": "view",
      "type": "function"
    },
    {
      "inputs": [],
      "name": "getName",
      "outputs": [
        {
          "internalType": "string",
          "name": "",
          "type": "string"
        }
      ],
      "stateMutability": "view",
      "type": "function"
    },
    {
      "inputs": [],
      "name": "isWinningPoolSet",
      "outputs": [
        {
          "internalType": "bool",
          "name": "",
          "type": "bool"
        }
      ],
      "stateMutability": "view",
      "type": "function"
    },
    {
      "inputs": [],
      "name": "getPoolNames",
      "outputs": [
        {
          "internalType": "string[]",
          "name": "",
          "type": "string[]"
        }
      ],
      "stateMutability": "view",
      "type": "function"
    },
    {
      "inputs": [],
      "name": "getPoolAddresses",
      "outputs": [
        {
          "internalType": "address[]",
          "name": "",
          "type": "address[]"
        }
      ],
      "stateMutability": "view",
      "type": "function"
    },
    {
      "inputs": [],
      "name": "getBalance",
      "outputs": [
        {
          "internalType": "uint256",
          "name": "",
          "type": "uint256"
        }
      ],
      "stateMutability": "view",
      "type": "function"
    },
    {
      "inputs": [
        {
          "internalType": "address",
          "name": "pool",
          "type": "address"
        }
      ],
      "name": "isWinningPool",
      "outputs": [
        {
          "internalType": "bool",
          "name": "",
          "type": "bool"
        }
      ],
      "stateMutability": "view",
      "type": "function"
    },
    {
      "inputs": [],
      "name": "cancelMarket",
      "outputs": [],
      "stateMutability": "nonpayable",
      "type": "function"
    },
    {
      "inputs": [],
      "name": "getMinimumStake",
      "outputs": [
        {
          "internalType": "uint256",
          "name": "",
          "type": "uint256"
        }
      ],
      "stateMutability": "nonpayable",
      "type": "function"
    }
  ],
  "bytecode": "0x60806040526000600860156101000a81548160ff02191690831515021790555060405180602001604052806000815250600990816200003f91906200040c565b503480156200004d57600080fd5b50604051620039dd380380620039dd8339818101604052810190620000739190620006bc565b326000806101000a81548173ffffffffffffffffffffffffffffffffffffffff021916908373ffffffffffffffffffffffffffffffffffffffff1602179055508360019081620000c491906200040c565b5082600260006101000a81548173ffffffffffffffffffffffffffffffffffffffff021916908373ffffffffffffffffffffffffffffffffffffffff16021790555081600360006101000a81548173ffffffffffffffffffffffffffffffffffffffff021916908373ffffffffffffffffffffffffffffffffffffffff16021790555080600460006101000a81548173ffffffffffffffffffffffffffffffffffffffff021916908373ffffffffffffffffffffffffffffffffffffffff160217905550505050506200074d565b600081519050919050565b7f4e487b7100000000000000000000000000000000000000000000000000000000600052604160045260246000fd5b7f4e487b7100000000000000000000000000000000000000000000000000000000600052602260045260246000fd5b600060028204905060018216806200021457607f821691505b6020821081036200022a5762000229620001cc565b5b50919050565b60008190508160005260206000209050919050565b60006020601f8301049050919050565b600082821b905092915050565b600060088302620002947fffffffffffffffffffffffffffffffffffffffffffffffffffffffffffffffff8262000255565b620002a0868362000255565b95508019841693508086168417925050509392505050565b6000819050919050565b6000819050919050565b6000620002ed620002e7620002e184620002b8565b620002c2565b620002b8565b9050919050565b6000819050919050565b6200030983620002cc565b620003216200031882620002f4565b84845462000262565b825550505050565b600090565b6200033862000329565b62000345818484620002fe565b505050565b5b818110156200036d57620003616000826200032e565b6001810190506200034b565b5050565b601f821115620003bc57620003868162000230565b620003918462000245565b81016020851015620003a1578190505b620003b9620003b08562000245565b8301826200034a565b50505b505050565b600082821c905092915050565b6000620003e160001984600802620003c1565b1980831691505092915050565b6000620003fc8383620003ce565b9150826002028217905092915050565b620004178262000192565b67ffffffffffffffff8111156200043357620004326200019d565b5b6200043f8254620001fb565b6200044c82828562000371565b600060209050601f8311600181146200048457600084156200046f578287015190505b6200047b8582620003ee565b865550620004eb565b601f198416620004948662000230565b60005b82811015620004be5784890151825560018201915060208501945060208101905062000497565b86831015620004de5784890151620004da601f891682620003ce565b8355505b6001600288020188555050505b505050505050565b6000604051905090565b600080fd5b600080fd5b600080fd5b600080fd5b6000601f19601f8301169050919050565b6200052d8262000511565b810181811067ffffffffffffffff821117156200054f576200054e6200019d565b5b80604052505050565b600062000564620004f3565b905062000572828262000522565b919050565b600067ffffffffffffffff8211156200059557620005946200019d565b5b620005a08262000511565b9050602081019050919050565b60005b83811015620005cd578082015181840152602081019050620005b0565b60008484015250505050565b6000620005f0620005ea8462000577565b62000558565b9050828152602081018484840111156200060f576200060e6200050c565b5b6200061c848285620005ad565b509392505050565b600082601f8301126200063c576200063b62000507565b5b81516200064e848260208601620005d9565b91505092915050565b600073ffffffffffffffffffffffffffffffffffffffff82169050919050565b6000620006848262000657565b9050919050565b620006968162000677565b8114620006a257600080fd5b50565b600081519050620006b6816200068b565b92915050565b60008060008060808587031215620006d957620006d8620004fd565b5b600085015167ffffffffffffffff811115620006fa57620006f962000502565b5b620007088782880162000624565b94505060206200071b87828801620006a5565b93505060406200072e87828801620006a5565b92505060606200074187828801620006a5565b91505092959194509250565b613280806200075d6000396000f3fe6080604052600436106101855760003560e01c8063b81e43fc116100d1578063d9bbd2781161008a578063ec5ffac211610064578063ec5ffac21461055e578063f92c162014610589578063fad56779146105b4578063feb21b9c146105df5761018c565b8063d9bbd278146104dd578063e3fad35714610508578063e4b6db4c146105335761018c565b8063b81e43fc146103cb578063c084e325146103f6578063c1aad9d814610433578063d0d130361461045e578063d427ccbf14610487578063d5e298bb146104b25761018c565b80635d155b0c1161013e5780638a007e35116101185780638a007e351461030d5780638da5cb5b14610338578063a32cf53614610363578063aa362b321461038e5761018c565b80635d155b0c1461028e5780636bfefd6b146102b9578063733b05e2146102d05761018c565b806306fdde031461018e57806309dd8f87146101b957806312065fe0146101e457806317d7de7c1461020f5780633270bb5b1461023a578063352ae596146102655761018c565b3661018c57005b005b34801561019a57600080fd5b506101a361061c565b6040516101b0919061205b565b60405180910390f35b3480156101c557600080fd5b506101ce6106aa565b6040516101db9190612098565b60405180910390f35b3480156101f057600080fd5b506101f96106d7565b60405161020691906120cc565b60405180910390f35b34801561021b57600080fd5b506102246106df565b604051610231919061205b565b60405180910390f35b34801561024657600080fd5b5061024f610771565b60405161025c9190612098565b60405180910390f35b34801561027157600080fd5b5061028c60048036038101906102879190612159565b610784565b005b34801561029a57600080fd5b506102a361130d565b6040516102b09190612195565b60405180910390f35b3480156102c557600080fd5b506102ce611333565b005b3480156102dc57600080fd5b506102f760048036038101906102f291906121dc565b61158e565b604051610304919061205b565b60405180910390f35b34801561031957600080fd5b5061032261163a565b60405161032f9190612195565b60405180910390f35b34801561034457600080fd5b5061034d611660565b60405161035a9190612195565b60405180910390f35b34801561036f57600080fd5b50610378611684565b6040516103859190612195565b60405180910390f35b34801561039a57600080fd5b506103b560048036038101906103b09190612159565b6116aa565b6040516103c291906120cc565b60405180910390f35b3480156103d757600080fd5b506103e06116c2565b6040516103ed919061205b565b60405180910390f35b34801561040257600080fd5b5061041d60048036038101906104189190612159565b611767565b60405161042a9190612098565b60405180910390f35b34801561043f57600080fd5b506104486117dd565b604051610455919061205b565b60405180910390f35b34801561046a57600080fd5b506104856004803603810190610480919061233e565b61186b565b005b34801561049357600080fd5b5061049c611b97565b6040516104a99190612195565b60405180910390f35b3480156104be57600080fd5b506104c7611bc1565b6040516104d49190612493565b60405180910390f35b3480156104e957600080fd5b506104f2611c9a565b6040516104ff91906120cc565b60405180910390f35b34801561051457600080fd5b5061051d611d39565b60405161052a91906120cc565b60405180910390f35b34801561053f57600080fd5b50610548611d59565b6040516105559190612573565b60405180910390f35b34801561056a57600080fd5b50610573611de7565b60405161058091906120cc565b60405180910390f35b34801561059557600080fd5b5061059e611ded565b6040516105ab9190612098565b60405180910390f35b3480156105c057600080fd5b506105c9611e00565b6040516105d69190612195565b60405180910390f35b3480156105eb57600080fd5b50610606600480360381019061060191906121dc565b611e26565b6040516106139190612195565b60405180910390f35b60018054610629906125c4565b80601f0160208091040260200160405190810160405280929190818152602001828054610655906125c4565b80156106a25780601f10610677576101008083540402835291602001916106a2565b820191906000526020600020905b81548152906001019060200180831161068557829003601f168201915b505050505081565b600080600780549050036106c157600190506106d4565b600860009054906101000a900460ff1690505b90565b600047905090565b6060600180546106ee906125c4565b80601f016020809104026020016040519081016040528092919081815260200182805461071a906125c4565b80156107675780601f1061073c57610100808354040283529160200191610767565b820191906000526020600020905b81548152906001019060200180831161074a57829003601f168201915b5050505050905090565b600860159054906101000a900460ff1681565b6000600260009054906101000a900473ffffffffffffffffffffffffffffffffffffffff16905060008173ffffffffffffffffffffffffffffffffffffffff1663179f907d6040518163ffffffff1660e01b81526004016020604051808303816000875af11580156107fa573d6000803e3d6000fd5b505050506040513d601f19601f8201168201806040525081019061081e919061260a565b90508073ffffffffffffffffffffffffffffffffffffffff163373ffffffffffffffffffffffffffffffffffffffff161461088e576040517f08c379a0000000000000000000000000000000000000000000000000000000008152600401610885906126a9565b60405180910390fd5b826000806006805490509050600081116108dd576040517f08c379a00000000000000000000000000000000000000000000000000000000081526004016108d49061273b565b60405180910390fd5b6000600780548060200260200160405190810160405280929190818152602001828054801561096157602002820191906000526020600020905b8160009054906101000a900473ffffffffffffffffffffffffffffffffffffffff1673ffffffffffffffffffffffffffffffffffffffff1681526020019060010190808311610917575b5050505050905060005b81518110156109dd578473ffffffffffffffffffffffffffffffffffffffff1682828151811061099e5761099d61275b565b5b602002602001015173ffffffffffffffffffffffffffffffffffffffff16036109ca57600193506109dd565b80806109d5906127b9565b91505061096b565b5082610a1e576040517f08c379a0000000000000000000000000000000000000000000000000000000008152600401610a159061284d565b60405180910390fd5b60011515600860009054906101000a900460ff161515148015610a905750600073ffffffffffffffffffffffffffffffffffffffff16600860019054906101000a900473ffffffffffffffffffffffffffffffffffffffff1673ffffffffffffffffffffffffffffffffffffffff1614155b15610ad0576040517f08c379a0000000000000000000000000000000000000000000000000000000008152600401610ac7906128b9565b60405180910390fd5b60006007805480602002602001604051908101604052809291908181526020018280548015610b5457602002820191906000526020600020905b8160009054906101000a900473ffffffffffffffffffffffffffffffffffffffff1673ffffffffffffffffffffffffffffffffffffffff1681526020019060010190808311610b0a575b5050505050905060004703610c865760005b8151811015610c30578873ffffffffffffffffffffffffffffffffffffffff16828281518110610b9957610b9861275b565b5b602002602001015173ffffffffffffffffffffffffffffffffffffffff1603610c1d5788600860016101000a81548173ffffffffffffffffffffffffffffffffffffffff021916908373ffffffffffffffffffffffffffffffffffffffff1602179055506001600860006101000a81548160ff021916908315150217905550610c30565b8080610c28906127b9565b915050610b66565b50600860009054906101000a900460ff16610c80576040517f08c379a0000000000000000000000000000000000000000000000000000000008152600401610c7790612925565b60405180910390fd5b50611304565b6000600460009054906101000a900473ffffffffffffffffffffffffffffffffffffffff16905060008173ffffffffffffffffffffffffffffffffffffffff16632004b3e56040518163ffffffff1660e01b81526004016020604051808303816000875af1158015610cfc573d6000803e3d6000fd5b505050506040513d601f19601f82011682018060405250810190610d20919061295a565b90506000479050600060648383610d379190612987565b610d4191906129f8565b905060008c905060008173ffffffffffffffffffffffffffffffffffffffff16637bc742256040518163ffffffff1660e01b81526004016020604051808303816000875af1158015610d97573d6000803e3d6000fd5b505050506040513d601f19601f82011682018060405250810190610dbb919061295a565b90508284610dc99190612a29565b93508573ffffffffffffffffffffffffffffffffffffffff16631b7e427a8460008054906101000a900473ffffffffffffffffffffffffffffffffffffffff166040518363ffffffff1660e01b8152600401610e259190612195565b6000604051808303818588803b158015610e3e57600080fd5b505af1158015610e52573d6000803e3d6000fd5b50505050506009604051602001610e699190612b26565b60405160208183030381529060405260099081610e869190612ce3565b506009610e9284611e65565b604051602001610ea3929190612de6565b60405160208183030381529060405260099081610ec09190612ce3565b508d600860016101000a81548173ffffffffffffffffffffffffffffffffffffffff021916908373ffffffffffffffffffffffffffffffffffffffff1602179055506001600860006101000a81548160ff02191690831515021790555060008273ffffffffffffffffffffffffffffffffffffffff1663a6afd5fd6040518163ffffffff1660e01b81526004016000604051808303816000875af1158015610f6c573d6000803e3d6000fd5b505050506040513d6000823e3d601f19601f82011682018060405250810190610f959190612ed2565b905060005b8151811015611290576000828281518110610fb857610fb761275b565b5b6020026020010151905060008173ffffffffffffffffffffffffffffffffffffffff16634d2124d46040518163ffffffff1660e01b81526004016020604051808303816000875af1158015611011573d6000803e3d6000fd5b505050506040513d601f19601f82011682018060405250810190611035919061295a565b905060096040516020016110499190612f41565b604051602081830303815290604052600990816110669190612ce3565b50600961107282611e65565b604051602001611083929190612de6565b604051602081830303815290604052600990816110a09190612ce3565b506000620f424090506000818a8884866110ba9190612987565b6110c491906129f8565b6110ce9190612987565b6110d891906129f8565b905060096040516020016110ec9190612f8d565b604051602081830303815290604052600990816111099190612ce3565b50600961111588611e65565b604051602001611126929190612de6565b604051602081830303815290604052600990816111439190612ce3565b5060096040516020016111569190612fd9565b604051602081830303815290604052600990816111739190612ce3565b50600961117f47611e65565b604051602001611190929190612de6565b604051602081830303815290604052600990816111ad9190612ce3565b5060096040516020016111c09190613025565b604051602081830303815290604052600990816111dd9190612ce3565b5060096111e982611e65565b6040516020016111fa929190612de6565b604051602081830303815290604052600990816112179190612ce3565b5085858151811061122b5761122a61275b565b5b602002602001015173ffffffffffffffffffffffffffffffffffffffff166108fc829081150290604051600060405180830381858888f19350505050158015611278573d6000803e3d6000fd5b50505050508080611288906127b9565b915050610f9a565b5060096040516020016112a39190613071565b604051602081830303815290604052600990816112c09190612ce3565b5060096112cc47611e65565b6040516020016112dd929190612de6565b604051602081830303815290604052600990816112fa9190612ce3565b5050505050505050505b50505050505050565b600460009054906101000a900473ffffffffffffffffffffffffffffffffffffffff1681565b600860159054906101000a900460ff1661158c57600860009054906101000a900460ff1661156f5760005b60078054905081101561154e576000600782815481106113815761138061275b565b5b9060005260206000200160009054906101000a900473ffffffffffffffffffffffffffffffffffffffff16905060008173ffffffffffffffffffffffffffffffffffffffff1663a6afd5fd6040518163ffffffff1660e01b81526004016000604051808303816000875af11580156113fd573d6000803e3d6000fd5b505050506040513d6000823e3d601f19601f820116820180604052508101906114269190612ed2565b905060005b81518110156115385760008282815181106114495761144861275b565b5b602002602001015190508282815181106114665761146561275b565b5b602002602001015173ffffffffffffffffffffffffffffffffffffffff166108fc8273ffffffffffffffffffffffffffffffffffffffff16634d2124d46040518163ffffffff1660e01b81526004016020604051808303816000875af11580156114d4573d6000803e3d6000fd5b505050506040513d601f19601f820116820180604052508101906114f8919061295a565b9081150290604051600060405180830381858888f19350505050158015611523573d6000803e3d6000fd5b50508080611530906127b9565b91505061142b565b5050508080611546906127b9565b91505061135e565b506001600860156101000a81548160ff02191690831515021790555061158b565b6001600860156101000a81548160ff0219169083151502179055505b5b565b6006818154811061159e57600080fd5b9060005260206000200160009150905080546115b9906125c4565b80601f01602080910402602001604051908101604052809291908181526020018280546115e5906125c4565b80156116325780601f1061160757610100808354040283529160200191611632565b820191906000526020600020905b81548152906001019060200180831161161557829003601f168201915b505050505081565b600860019054906101000a900473ffffffffffffffffffffffffffffffffffffffff1681565b60008054906101000a900473ffffffffffffffffffffffffffffffffffffffff1681565b600360009054906101000a900473ffffffffffffffffffffffffffffffffffffffff1681565b600a6020528060005260406000206000915090505481565b60606000600260009054906101000a900473ffffffffffffffffffffffffffffffffffffffff1690508073ffffffffffffffffffffffffffffffffffffffff166317d7de7c6040518163ffffffff1660e01b81526004016000604051808303816000875af1158015611738573d6000803e3d6000fd5b505050506040513d6000823e3d601f19601f820116820180604052508101906117619190613107565b91505090565b6000600860009054906101000a900460ff166117845760006117d6565b8173ffffffffffffffffffffffffffffffffffffffff16600860019054906101000a900473ffffffffffffffffffffffffffffffffffffffff1673ffffffffffffffffffffffffffffffffffffffff16145b9050919050565b600980546117ea906125c4565b80601f0160208091040260200160405190810160405280929190818152602001828054611816906125c4565b80156118635780601f1061183857610100808354040283529160200191611863565b820191906000526020600020905b81548152906001019060200180831161184657829003601f168201915b505050505081565b6000600260009054906101000a900473ffffffffffffffffffffffffffffffffffffffff16905060008173ffffffffffffffffffffffffffffffffffffffff1663179f907d6040518163ffffffff1660e01b81526004016020604051808303816000875af11580156118e1573d6000803e3d6000fd5b505050506040513d601f19601f82011682018060405250810190611905919061260a565b90508073ffffffffffffffffffffffffffffffffffffffff163373ffffffffffffffffffffffffffffffffffffffff1614611975576040517f08c379a000000000000000000000000000000000000000000000000000000000815260040161196c906126a9565b60405180910390fd5b826000600190506000600680549050905060005b81811015611a1d57600681815481106119a5576119a461275b565b5b906000526020600020016040516020016119bf9190613150565b60405160208183030381529060405280519060200120846040516020016119e69190613167565b6040516020818303038152906040528051906020012003611a0a5760009250611a1d565b8080611a15906127b9565b915050611989565b5081611a2857600080fd5b6000600360009054906101000a900473ffffffffffffffffffffffffffffffffffffffff16905060008173ffffffffffffffffffffffffffffffffffffffff166356cd61d789600260009054906101000a900473ffffffffffffffffffffffffffffffffffffffff16306040518463ffffffff1660e01b8152600401611ab09392919061317e565b6020604051808303816000875af1158015611acf573d6000803e3d6000fd5b505050506040513d601f19601f82011682018060405250810190611af3919061260a565b9050600688908060018154018082558091505060019003906000526020600020016000909190919091509081611b299190612ce3565b506007819080600181540180825580915050600190039060005260206000200160009091909190916101000a81548173ffffffffffffffffffffffffffffffffffffffff021916908373ffffffffffffffffffffffffffffffffffffffff1602179055505050505050505050565b6000600260009054906101000a900473ffffffffffffffffffffffffffffffffffffffff16905090565b60606006805480602002602001604051908101604052809291908181526020016000905b82821015611c91578382906000526020600020018054611c04906125c4565b80601f0160208091040260200160405190810160405280929190818152602001828054611c30906125c4565b8015611c7d5780601f10611c5257610100808354040283529160200191611c7d565b820191906000526020600020905b815481529060010190602001808311611c6057829003601f168201915b505050505081526020019060010190611be5565b50505050905090565b600080600260009054906101000a900473ffffffffffffffffffffffffffffffffffffffff1690508073ffffffffffffffffffffffffffffffffffffffff1663d9bbd2786040518163ffffffff1660e01b81526004016020604051808303816000875af1158015611d0f573d6000803e3d6000fd5b505050506040513d601f19601f82011682018060405250810190611d33919061295a565b91505090565b60006064600a47611d4a9190612987565b611d5491906129f8565b905090565b60606007805480602002602001604051908101604052809291908181526020018280548015611ddd57602002820191906000526020600020905b8160009054906101000a900473ffffffffffffffffffffffffffffffffffffffff1673ffffffffffffffffffffffffffffffffffffffff1681526020019060010190808311611d93575b5050505050905090565b60055481565b600860009054906101000a900460ff1681565b600260009054906101000a900473ffffffffffffffffffffffffffffffffffffffff1681565b60078181548110611e3657600080fd5b906000526020600020016000915054906101000a900473ffffffffffffffffffffffffffffffffffffffff1681565b606060008203611eac576040518060400160405280600181526020017f30000000000000000000000000000000000000000000000000000000000000008152509050611fc6565b600082905060005b60008214611ede578080611ec7906127b9565b915050600a82611ed791906129f8565b9150611eb4565b60008167ffffffffffffffff811115611efa57611ef9612213565b5b6040519080825280601f01601f191660200182016040528015611f2c5781602001600182028036833780820191505090505b50905060008290508593505b60008414611fbe57600a84611f4d91906131bc565b6030611f5991906131ed565b60f81b8282611f6790613221565b92508281518110611f7b57611f7a61275b565b5b60200101907effffffffffffffffffffffffffffffffffffffffffffffffffffffffffffff1916908160001a905350600a84611fb791906129f8565b9350611f38565b819450505050505b919050565b600081519050919050565b600082825260208201905092915050565b60005b83811015612005578082015181840152602081019050611fea565b60008484015250505050565b6000601f19601f8301169050919050565b600061202d82611fcb565b6120378185611fd6565b9350612047818560208601611fe7565b61205081612011565b840191505092915050565b600060208201905081810360008301526120758184612022565b905092915050565b60008115159050919050565b6120928161207d565b82525050565b60006020820190506120ad6000830184612089565b92915050565b6000819050919050565b6120c6816120b3565b82525050565b60006020820190506120e160008301846120bd565b92915050565b6000604051905090565b600080fd5b600080fd5b600073ffffffffffffffffffffffffffffffffffffffff82169050919050565b6000612126826120fb565b9050919050565b6121368161211b565b811461214157600080fd5b50565b6000813590506121538161212d565b92915050565b60006020828403121561216f5761216e6120f1565b5b600061217d84828501612144565b91505092915050565b61218f8161211b565b82525050565b60006020820190506121aa6000830184612186565b92915050565b6121b9816120b3565b81146121c457600080fd5b50565b6000813590506121d6816121b0565b92915050565b6000602082840312156121f2576121f16120f1565b5b6000612200848285016121c7565b91505092915050565b600080fd5b600080fd5b7f4e487b7100000000000000000000000000000000000000000000000000000000600052604160045260246000fd5b61224b82612011565b810181811067ffffffffffffffff8211171561226a57612269612213565b5b80604052505050565b600061227d6120e7565b90506122898282612242565b919050565b600067ffffffffffffffff8211156122a9576122a8612213565b5b6122b282612011565b9050602081019050919050565b82818337600083830152505050565b60006122e16122dc8461228e565b612273565b9050828152602081018484840111156122fd576122fc61220e565b5b6123088482856122bf565b509392505050565b600082601f83011261232557612324612209565b5b81356123358482602086016122ce565b91505092915050565b600060208284031215612354576123536120f1565b5b600082013567ffffffffffffffff811115612372576123716120f6565b5b61237e84828501612310565b91505092915050565b600081519050919050565b600082825260208201905092915050565b6000819050602082019050919050565b600082825260208201905092915050565b60006123cf82611fcb565b6123d981856123b3565b93506123e9818560208601611fe7565b6123f281612011565b840191505092915050565b600061240983836123c4565b905092915050565b6000602082019050919050565b600061242982612387565b6124338185612392565b935083602082028501612445856123a3565b8060005b85811015612481578484038952815161246285826123fd565b945061246d83612411565b925060208a01995050600181019050612449565b50829750879550505050505092915050565b600060208201905081810360008301526124ad818461241e565b905092915050565b600081519050919050565b600082825260208201905092915050565b6000819050602082019050919050565b6124ea8161211b565b82525050565b60006124fc83836124e1565b60208301905092915050565b6000602082019050919050565b6000612520826124b5565b61252a81856124c0565b9350612535836124d1565b8060005b8381101561256657815161254d88826124f0565b975061255883612508565b925050600181019050612539565b5085935050505092915050565b6000602082019050818103600083015261258d8184612515565b905092915050565b7f4e487b7100000000000000000000000000000000000000000000000000000000600052602260045260246000fd5b600060028204905060018216806125dc57607f821691505b6020821081036125ef576125ee612595565b5b50919050565b6000815190506126048161212d565b92915050565b6000602082840312156126205761261f6120f1565b5b600061262e848285016125f5565b91505092915050565b7f4f6e6c79206576656e74206f776e657273207365742077696e6e696e6720706f60008201527f6f6c000000000000000000000000000000000000000000000000000000000000602082015250565b6000612693602283611fd6565b915061269e82612637565b604082019050919050565b600060208201905081810360008301526126c281612686565b9050919050565b7f43616e6e6f74207365742077696e6e696e6720706f6f6c206f6e206d61726b6560008201527f742077697468206e6f20706f6f6c000000000000000000000000000000000000602082015250565b6000612725602e83611fd6565b9150612730826126c9565b604082019050919050565b6000602082019050818103600083015261275481612718565b9050919050565b7f4e487b7100000000000000000000000000000000000000000000000000000000600052603260045260246000fd5b7f4e487b7100000000000000000000000000000000000000000000000000000000600052601160045260246000fd5b60006127c4826120b3565b91507fffffffffffffffffffffffffffffffffffffffffffffffffffffffffffffffff82036127f6576127f561278a565b5b600182019050919050565b7f496e76616c696420706f6f6c2061646472657373000000000000000000000000600082015250565b6000612837601483611fd6565b915061284282612801565b602082019050919050565b600060208201905081810360008301526128668161282a565b9050919050565b7f57696e6e696e6720506f6f6c20616c7265616479207365740000000000000000600082015250565b60006128a3601883611fd6565b91506128ae8261286d565b602082019050919050565b600060208201905081810360008301526128d281612896565b9050919050565b7f4e6f20506f6f6c20416464726573732077617320666f756e6400000000000000600082015250565b600061290f601983611fd6565b915061291a826128d9565b602082019050919050565b6000602082019050818103600083015261293e81612902565b9050919050565b600081519050612954816121b0565b92915050565b6000602082840312156129705761296f6120f1565b5b600061297e84828501612945565b91505092915050565b6000612992826120b3565b915061299d836120b3565b92508282026129ab816120b3565b915082820484148315176129c2576129c161278a565b5b5092915050565b7f4e487b7100000000000000000000000000000000000000000000000000000000600052601260045260246000fd5b6000612a03826120b3565b9150612a0e836120b3565b925082612a1e57612a1d6129c9565b5b828204905092915050565b6000612a34826120b3565b9150612a3f836120b3565b9250828203905081811115612a5757612a5661278a565b5b92915050565b600081905092915050565b60008190508160005260206000209050919050565b60008154612a8a816125c4565b612a948186612a5d565b94506001821660008114612aaf5760018114612ac457612af7565b60ff1983168652811515820286019350612af7565b612acd85612a68565b60005b83811015612aef57815481890152600182019150602081019050612ad0565b838801955050505b50505092915050565b7f5669672073686172650000000000000000000000000000000000000000000000815250565b6000612b328284612a7d565b9150612b3d82612b00565b60098201915081905092915050565b60006020601f8301049050919050565b600082821b905092915050565b600060088302612b997fffffffffffffffffffffffffffffffffffffffffffffffffffffffffffffffff82612b5c565b612ba38683612b5c565b95508019841693508086168417925050509392505050565b6000819050919050565b6000612be0612bdb612bd6846120b3565b612bbb565b6120b3565b9050919050565b6000819050919050565b612bfa83612bc5565b612c0e612c0682612be7565b848454612b69565b825550505050565b600090565b612c23612c16565b612c2e818484612bf1565b505050565b5b81811015612c5257612c47600082612c1b565b600181019050612c34565b5050565b601f821115612c9757612c6881612a68565b612c7184612b4c565b81016020851015612c80578190505b612c94612c8c85612b4c565b830182612c33565b50505b505050565b600082821c905092915050565b6000612cba60001984600802612c9c565b1980831691505092915050565b6000612cd38383612ca9565b9150826002028217905092915050565b612cec82611fcb565b67ffffffffffffffff811115612d0557612d04612213565b5b612d0f82546125c4565b612d1a828285612c56565b600060209050601f831160018114612d4d5760008415612d3b578287015190505b612d458582612cc7565b865550612dad565b601f198416612d5b86612a68565b60005b82811015612d8357848901518255600182019150602085019450602081019050612d5e565b86831015612da05784890151612d9c601f891682612ca9565b8355505b6001600288020188555050505b505050505050565b6000612dc082611fcb565b612dca8185612a5d565b9350612dda818560208601611fe7565b80840191505092915050565b6000612df28285612a7d565b9150612dfe8284612db5565b91508190509392505050565b600067ffffffffffffffff821115612e2557612e24612213565b5b602082029050602081019050919050565b600080fd5b6000612e4e612e4984612e0a565b612273565b90508083825260208201905060208402830185811115612e7157612e70612e36565b5b835b81811015612e9a5780612e8688826125f5565b845260208401935050602081019050612e73565b5050509392505050565b600082601f830112612eb957612eb8612209565b5b8151612ec9848260208601612e3b565b91505092915050565b600060208284031215612ee857612ee76120f1565b5b600082015167ffffffffffffffff811115612f0657612f056120f6565b5b612f1284828501612ea4565b91505092915050565b7f4265747374616b653a0000000000000000000000000000000000000000000000815250565b6000612f4d8284612a7d565b9150612f5882612f1b565b60098201915081905092915050565b7f546f74616c205374616b65000000000000000000000000000000000000000000815250565b6000612f998284612a7d565b9150612fa482612f67565b600b8201915081905092915050565b7f42616c616e636500000000000000000000000000000000000000000000000000815250565b6000612fe58284612a7d565b9150612ff082612fb3565b60078201915081905092915050565b7f416d6f756e7420746f2073656e643a0000000000000000000000000000000000815250565b60006130318284612a7d565b915061303c82612fff565b600f8201915081905092915050565b7f46696e616c204d61726b65742042616c616e63653a2000000000000000000000815250565b600061307d8284612a7d565b91506130888261304b565b60168201915081905092915050565b60006130aa6130a58461228e565b612273565b9050828152602081018484840111156130c6576130c561220e565b5b6130d1848285611fe7565b509392505050565b600082601f8301126130ee576130ed612209565b5b81516130fe848260208601613097565b91505092915050565b60006020828403121561311d5761311c6120f1565b5b600082015167ffffffffffffffff81111561313b5761313a6120f6565b5b613147848285016130d9565b91505092915050565b600061315c8284612a7d565b915081905092915050565b60006131738284612db5565b915081905092915050565b600060608201905081810360008301526131988186612022565b90506131a76020830185612186565b6131b46040830184612186565b949350505050565b60006131c7826120b3565b91506131d2836120b3565b9250826131e2576131e16129c9565b5b828206905092915050565b60006131f8826120b3565b9150613203836120b3565b925082820190508082111561321b5761321a61278a565b5b92915050565b600061322c826120b3565b91506000820361323f5761323e61278a565b5b60018203905091905056fea2646970667358221220da67ff653926ee4e991196331caf46c20dd0a68b0705f13b27fc88825fdfb99f64736f6c63430008110033",
  "immutableReferences": {},
  "source": "// SPDX-License-Identifier: MIT\n\npragma solidity ^0.8.4;\n\nimport \"./interface/IWeb3BetsMarketV1.sol\";\nimport \"./interface/IWeb3BetsEventsV1.sol\";\nimport \"./interface/IWeb3BetsPoolsV1.sol\";\nimport \"./interface/IWeb3Bets.sol\";\nimport \"./PoolsFactory.sol\";\n\n// import \"@openzeppelin/contracts/utils/Strings.sol\";\n\ncontract Market is IWeb3BetsMarketV1 {\n    address public owner;\n    string public name;\n    address public eventAddress;\n    address public poolFactoryAddress;\n    address public web3BetsAddress;\n    uint256 public minimumStake;\n    string[] public poolNames;\n    address[] public poolAddresses;\n    bool public hasSetWinningPool;\n    address public winningPoolAddress;\n    bool public isSettled = false;\n    string public allAmounts = \"\";\n\n    mapping(address => uint256) public winningPoolAddresses;\n\n    modifier onlyEventOwner() {\n        IWeb3BetsEventV1 poolEvent = IWeb3BetsEventV1(eventAddress);\n        address eventOwner = poolEvent.getEventOwner();\n        require(msg.sender == eventOwner, \"Only event owners set winning pool\");\n        _;\n    }\n\n    modifier uniqueName(string memory value) {\n        bool isNotEqual = true;\n        uint256 poolNamesLength = poolNames.length;\n        for (uint256 i = 0; i < poolNamesLength; i++) {\n            if (\n                keccak256(abi.encodePacked(value)) ==\n                keccak256(abi.encodePacked(poolNames[i]))\n            ) {\n                isNotEqual = false;\n                break;\n            }\n        }\n        require(isNotEqual);\n\n        _;\n    }\n\n    //  verify if winning pool is valid in current market\n    modifier validWinningPool(address _poolAddress) {\n        bool found = false;\n        uint256 poolLength = poolNames.length;\n        require(\n            poolLength > 0,\n            \"Cannot set winning pool on market with no pool\"\n        );\n\n        address[] memory _poolAddresses = poolAddresses;\n        for (uint256 i = 0; i < _poolAddresses.length; i++) {\n            if (_poolAddresses[i] == _poolAddress) {\n                found = true;\n                break;\n            }\n        }\n        require(found, \"Invalid pool address\");\n\n        _;\n    }\n\n    constructor(\n        string memory _name,\n        address _eventAddress,\n        address _poolFactoryAddress,\n        address _web3betsAddress\n    ) {\n        owner = tx.origin;\n        name = _name;\n        eventAddress = _eventAddress;\n        poolFactoryAddress = _poolFactoryAddress;\n        web3BetsAddress = _web3betsAddress;\n    }\n\n    function createPool(string memory _name)\n        external\n        override\n        onlyEventOwner\n        uniqueName(_name)\n    {\n        PoolsFactory poolsFactory = PoolsFactory(poolFactoryAddress);\n        address poolAddress = poolsFactory.createPool(\n            _name,\n            eventAddress,\n            address(this)\n        );\n\n        poolNames.push(_name);\n        poolAddresses.push(poolAddress);\n    }\n\n    function setWinningPool(address _poolAddress)\n        external\n        override\n        onlyEventOwner\n        validWinningPool(_poolAddress)\n    {\n        if (hasSetWinningPool == true && winningPoolAddress != address(0)) {\n            revert(\"Winning Pool already set\");\n        }\n\n        address[] memory _poolAddresses = poolAddresses;\n        if (address(this).balance == 0) {\n            for (uint256 i = 0; i < _poolAddresses.length; i++) {\n                if (_poolAddresses[i] == _poolAddress) {\n                    winningPoolAddress = _poolAddress;\n                    hasSetWinningPool = true;\n                    break;\n                }\n            }\n            if (!hasSetWinningPool) {\n                revert(\"No Pool Address was found\");\n            } else {\n                return;\n            }\n        }\n               // Initialize the Web3Bets address\n        IWeb3Bets web3Bets = IWeb3Bets(web3BetsAddress);\n        uint256 vigPercentage = web3Bets.getVigPercentage();\n        uint marketBalance = address(this).balance;\n        // Get total stake and transfer to market\n        uint256 vigShare = (marketBalance * vigPercentage) / 100;\n\n        IWeb3BetsPoolsV1 pool = IWeb3BetsPoolsV1(_poolAddress);\n        uint256 poolTotalStake = pool.getTotalStake();\n         marketBalance = marketBalance - vigShare;\n\n \n        web3Bets.shareBetEarnings{value: vigShare}(owner);\n\n        allAmounts = string.concat(allAmounts, \"Vig share\");\n\n        allAmounts = string.concat(allAmounts, toString(vigShare));\n\n        // // send money to vig holders\n        // payable(web3BetsAddress).transfer(vigShare);\n        // // web3Bets.shareBetEarnings{value: vigShare}();\n\n        winningPoolAddress = _poolAddress;\n        hasSetWinningPool = true;\n\n        address[] memory winners = pool.getBets();\n\n        for (uint256 j = 0; j < winners.length; j++) {\n            IWeb3BetsBetsV1 betV1 = IWeb3BetsBetsV1(winners[j]);\n            uint256 betStake = betV1.getBetStake();\n            allAmounts = string.concat(allAmounts, \"Betstake:\");\n\n            allAmounts = string.concat(allAmounts, toString(betStake));\n            uint256 multiplier = 1000000;\n\n            uint256 amount = ((((betStake * multiplier) / poolTotalStake) *\n               marketBalance) / multiplier);\n\n            allAmounts = string.concat(allAmounts, \"Total Stake\");\n\n            allAmounts = string.concat(allAmounts, toString(poolTotalStake));\n\n            allAmounts = string.concat(allAmounts, \"Balance\");\n            allAmounts = string.concat(\n                allAmounts,\n                toString(address(this).balance)\n            );\n\n            allAmounts = string.concat(allAmounts, \"Amount to send:\");\n\n            allAmounts = string.concat(allAmounts, toString(amount));\n            payable(winners[j]).transfer(amount);\n        }\n\n        allAmounts = string.concat(allAmounts, \"Final Market Balance: \");\n        allAmounts = string.concat(allAmounts, toString(address(this).balance));\n    }\n\n    function getEventName() external override returns (string memory) {\n        IWeb3BetsEventV1 marketEvent = IWeb3BetsEventV1(eventAddress);\n        return marketEvent.getName();\n    }\n\n    function getEventAddress() external view override returns (address) {\n        return eventAddress;\n    }\n\n    function getVigShare() external view returns (uint256) {\n        return ((address(this).balance * 10) / 100);\n    }\n\n    function getName() external view override returns (string memory) {\n        return name;\n    }\n\n    function isWinningPoolSet() external view override returns (bool) {\n        if (poolAddresses.length == 0) {\n            return true;\n        }\n\n        return hasSetWinningPool;\n    }\n\n    function getPoolNames() external view returns (string[] memory) {\n        return poolNames;\n    }\n\n    function getPoolAddresses() external view returns (address[] memory) {\n        return poolAddresses;\n    }\n\n    function getBalance() external view returns (uint256) {\n        return address(this).balance;\n    }\n\n    function isWinningPool(address pool) external view returns (bool) {\n        return hasSetWinningPool ? winningPoolAddress == pool : false;\n    }\n\n    function cancelMarket() external {\n        if (isSettled) {\n            return;\n        }\n        if (!hasSetWinningPool) {\n            for (uint256 i = 0; i < poolAddresses.length; i++) {\n                IWeb3BetsPoolsV1 poolsV1 = IWeb3BetsPoolsV1(poolAddresses[i]);\n                address[] memory betAddresses = poolsV1.getBets();\n                for (uint256 j; j < betAddresses.length; j++) {\n                    IWeb3BetsBetsV1 betV1 = IWeb3BetsBetsV1(betAddresses[j]);\n                    payable(betAddresses[j]).transfer(betV1.getBetStake());\n                }\n            }\n\n            isSettled = true;\n        } else {\n            isSettled = true;\n        }\n    }\n\n    // Function to receive Ether. msg.data must be empty\n    receive() external payable {}\n\n    // Fallback function is called when msg.data is not empty\n    fallback() external payable {}\n\n    function getMinimumStake() public returns (uint256) {\n        IWeb3BetsEventV1 event1 = IWeb3BetsEventV1(eventAddress);\n        return event1.getMinimumStake();\n    }\n\n    function toString(uint256 _i) internal pure returns (string memory str) {\n        if (_i == 0) {\n            return \"0\";\n        }\n        uint256 j = _i;\n        uint256 length;\n        while (j != 0) {\n            length++;\n            j /= 10;\n        }\n        bytes memory bstr = new bytes(length);\n        uint256 k = length;\n        j = _i;\n        while (j != 0) {\n            bstr[--k] = bytes1(uint8(48 + (j % 10)));\n            j /= 10;\n        }\n        str = string(bstr);\n    }\n}\n",
  "sourcePath": "/Users/wizardom/projects/crypto/web3bets_smartcontract/contracts/Markets.sol",
  "compiler": {
    "name": "solc",
    "version": "0.8.17+commit.8df45f5f.Emscripten.clang"
  },
  "schemaVersion": "3.4.7",
  "updatedAt": "2022-09-11T14:55:16.752Z",
  "devdoc": {
    "kind": "dev",
    "methods": {},
    "version": 1
  },
  "userdoc": {
    "kind": "user",
    "methods": {},
    "version": 1
  }
}