{
  "contractName": "Market",
  "abi": [
    {
      "inputs": [
        {
          "internalType": "string",
          "name": "_name",
          "type": "string"
        },
        {
          "internalType": "address",
          "name": "_eventAddress",
          "type": "address"
        },
        {
          "internalType": "address",
          "name": "_poolFactoryAddress",
          "type": "address"
        },
        {
          "internalType": "address",
          "name": "_web3betsAddress",
          "type": "address"
        }
      ],
      "stateMutability": "nonpayable",
      "type": "constructor"
    },
    {
      "stateMutability": "payable",
      "type": "fallback"
    },
    {
      "inputs": [],
      "name": "allAmounts",
      "outputs": [
        {
          "internalType": "string",
          "name": "",
          "type": "string"
        }
      ],
      "stateMutability": "view",
      "type": "function"
    },
    {
      "inputs": [],
      "name": "eventAddress",
      "outputs": [
        {
          "internalType": "address",
          "name": "",
          "type": "address"
        }
      ],
      "stateMutability": "view",
      "type": "function"
    },
    {
      "inputs": [],
      "name": "hasSetWinningPool",
      "outputs": [
        {
          "internalType": "bool",
          "name": "",
          "type": "bool"
        }
      ],
      "stateMutability": "view",
      "type": "function"
    },
    {
      "inputs": [],
      "name": "isSettled",
      "outputs": [
        {
          "internalType": "bool",
          "name": "",
          "type": "bool"
        }
      ],
      "stateMutability": "view",
      "type": "function"
    },
    {
      "inputs": [],
      "name": "minimumStake",
      "outputs": [
        {
          "internalType": "uint256",
          "name": "",
          "type": "uint256"
        }
      ],
      "stateMutability": "view",
      "type": "function"
    },
    {
      "inputs": [],
      "name": "name",
      "outputs": [
        {
          "internalType": "string",
          "name": "",
          "type": "string"
        }
      ],
      "stateMutability": "view",
      "type": "function"
    },
    {
      "inputs": [],
      "name": "owner",
      "outputs": [
        {
          "internalType": "address",
          "name": "",
          "type": "address"
        }
      ],
      "stateMutability": "view",
      "type": "function"
    },
    {
      "inputs": [
        {
          "internalType": "uint256",
          "name": "",
          "type": "uint256"
        }
      ],
      "name": "poolAddresses",
      "outputs": [
        {
          "internalType": "address",
          "name": "",
          "type": "address"
        }
      ],
      "stateMutability": "view",
      "type": "function"
    },
    {
      "inputs": [],
      "name": "poolFactoryAddress",
      "outputs": [
        {
          "internalType": "address",
          "name": "",
          "type": "address"
        }
      ],
      "stateMutability": "view",
      "type": "function"
    },
    {
      "inputs": [
        {
          "internalType": "uint256",
          "name": "",
          "type": "uint256"
        }
      ],
      "name": "poolNames",
      "outputs": [
        {
          "internalType": "string",
          "name": "",
          "type": "string"
        }
      ],
      "stateMutability": "view",
      "type": "function"
    },
    {
      "inputs": [],
      "name": "web3BetsAddress",
      "outputs": [
        {
          "internalType": "address",
          "name": "",
          "type": "address"
        }
      ],
      "stateMutability": "view",
      "type": "function"
    },
    {
      "inputs": [],
      "name": "winningPoolAddress",
      "outputs": [
        {
          "internalType": "address",
          "name": "",
          "type": "address"
        }
      ],
      "stateMutability": "view",
      "type": "function"
    },
    {
      "inputs": [
        {
          "internalType": "address",
          "name": "",
          "type": "address"
        }
      ],
      "name": "winningPoolAddresses",
      "outputs": [
        {
          "internalType": "uint256",
          "name": "",
          "type": "uint256"
        }
      ],
      "stateMutability": "view",
      "type": "function"
    },
    {
      "stateMutability": "payable",
      "type": "receive"
    },
    {
      "inputs": [
        {
          "internalType": "string",
          "name": "_name",
          "type": "string"
        }
      ],
      "name": "createPool",
      "outputs": [],
      "stateMutability": "nonpayable",
      "type": "function"
    },
    {
      "inputs": [
        {
          "internalType": "address",
          "name": "_poolAddress",
          "type": "address"
        }
      ],
      "name": "setWinningPool",
      "outputs": [],
      "stateMutability": "nonpayable",
      "type": "function"
    },
    {
      "inputs": [],
      "name": "getEventName",
      "outputs": [
        {
          "internalType": "string",
          "name": "",
          "type": "string"
        }
      ],
      "stateMutability": "nonpayable",
      "type": "function"
    },
    {
      "inputs": [],
      "name": "getEventAddress",
      "outputs": [
        {
          "internalType": "address",
          "name": "",
          "type": "address"
        }
      ],
      "stateMutability": "view",
      "type": "function"
    },
    {
      "inputs": [],
      "name": "getVigShare",
      "outputs": [
        {
          "internalType": "uint256",
          "name": "",
          "type": "uint256"
        }
      ],
      "stateMutability": "view",
      "type": "function"
    },
    {
      "inputs": [],
      "name": "getName",
      "outputs": [
        {
          "internalType": "string",
          "name": "",
          "type": "string"
        }
      ],
      "stateMutability": "view",
      "type": "function"
    },
    {
      "inputs": [],
      "name": "isWinningPoolSet",
      "outputs": [
        {
          "internalType": "bool",
          "name": "",
          "type": "bool"
        }
      ],
      "stateMutability": "view",
      "type": "function"
    },
    {
      "inputs": [],
      "name": "getPoolNames",
      "outputs": [
        {
          "internalType": "string[]",
          "name": "",
          "type": "string[]"
        }
      ],
      "stateMutability": "view",
      "type": "function"
    },
    {
      "inputs": [],
      "name": "getPoolAddresses",
      "outputs": [
        {
          "internalType": "address[]",
          "name": "",
          "type": "address[]"
        }
      ],
      "stateMutability": "view",
      "type": "function"
    },
    {
      "inputs": [],
      "name": "getBalance",
      "outputs": [
        {
          "internalType": "uint256",
          "name": "",
          "type": "uint256"
        }
      ],
      "stateMutability": "view",
      "type": "function"
    },
    {
      "inputs": [
        {
          "internalType": "address",
          "name": "pool",
          "type": "address"
        }
      ],
      "name": "isWinningPool",
      "outputs": [
        {
          "internalType": "bool",
          "name": "",
          "type": "bool"
        }
      ],
      "stateMutability": "view",
      "type": "function"
    },
    {
      "inputs": [],
      "name": "cancelMarket",
      "outputs": [],
      "stateMutability": "nonpayable",
      "type": "function"
    },
    {
      "inputs": [],
      "name": "getMinimumStake",
      "outputs": [
        {
          "internalType": "uint256",
          "name": "",
          "type": "uint256"
        }
      ],
      "stateMutability": "nonpayable",
      "type": "function"
    }
  ],
  "bytecode": "0x60806040526000600860156101000a81548160ff021916908315150217905550604051806020016040528060008152506009908051906020019062000046929190620001a0565b503480156200005457600080fd5b50604051620036ab380380620036ab83398181016040528101906200007a919062000452565b326000806101000a81548173ffffffffffffffffffffffffffffffffffffffff021916908373ffffffffffffffffffffffffffffffffffffffff1602179055508360019080519060200190620000d2929190620001a0565b5082600260006101000a81548173ffffffffffffffffffffffffffffffffffffffff021916908373ffffffffffffffffffffffffffffffffffffffff16021790555081600360006101000a81548173ffffffffffffffffffffffffffffffffffffffff021916908373ffffffffffffffffffffffffffffffffffffffff16021790555080600460006101000a81548173ffffffffffffffffffffffffffffffffffffffff021916908373ffffffffffffffffffffffffffffffffffffffff1602179055505050505062000547565b828054620001ae9062000512565b90600052602060002090601f016020900481019282620001d257600085556200021e565b82601f10620001ed57805160ff19168380011785556200021e565b828001600101855582156200021e579182015b828111156200021d57825182559160200191906001019062000200565b5b5090506200022d919062000231565b5090565b5b808211156200024c57600081600090555060010162000232565b5090565b6000604051905090565b600080fd5b600080fd5b600080fd5b600080fd5b6000601f19601f8301169050919050565b7f4e487b7100000000000000000000000000000000000000000000000000000000600052604160045260246000fd5b620002b9826200026e565b810181811067ffffffffffffffff82111715620002db57620002da6200027f565b5b80604052505050565b6000620002f062000250565b9050620002fe8282620002ae565b919050565b600067ffffffffffffffff8211156200032157620003206200027f565b5b6200032c826200026e565b9050602081019050919050565b60005b83811015620003595780820151818401526020810190506200033c565b8381111562000369576000848401525b50505050565b600062000386620003808462000303565b620002e4565b905082815260208101848484011115620003a557620003a462000269565b5b620003b284828562000339565b509392505050565b600082601f830112620003d257620003d162000264565b5b8151620003e48482602086016200036f565b91505092915050565b600073ffffffffffffffffffffffffffffffffffffffff82169050919050565b60006200041a82620003ed565b9050919050565b6200042c816200040d565b81146200043857600080fd5b50565b6000815190506200044c8162000421565b92915050565b600080600080608085870312156200046f576200046e6200025a565b5b600085015167ffffffffffffffff81111562000490576200048f6200025f565b5b6200049e87828801620003ba565b9450506020620004b1878288016200043b565b9350506040620004c4878288016200043b565b9250506060620004d7878288016200043b565b91505092959194509250565b7f4e487b7100000000000000000000000000000000000000000000000000000000600052602260045260246000fd5b600060028204905060018216806200052b57607f821691505b602082108103620005415762000540620004e3565b5b50919050565b61315480620005576000396000f3fe6080604052600436106101855760003560e01c8063b81e43fc116100d1578063d9bbd2781161008a578063ec5ffac211610064578063ec5ffac21461055e578063f92c162014610589578063fad56779146105b4578063feb21b9c146105df5761018c565b8063d9bbd278146104dd578063e3fad35714610508578063e4b6db4c146105335761018c565b8063b81e43fc146103cb578063c084e325146103f6578063c1aad9d814610433578063d0d130361461045e578063d427ccbf14610487578063d5e298bb146104b25761018c565b80635d155b0c1161013e5780638a007e35116101185780638a007e351461030d5780638da5cb5b14610338578063a32cf53614610363578063aa362b321461038e5761018c565b80635d155b0c1461028e5780636bfefd6b146102b9578063733b05e2146102d05761018c565b806306fdde031461018e57806309dd8f87146101b957806312065fe0146101e457806317d7de7c1461020f5780633270bb5b1461023a578063352ae596146102655761018c565b3661018c57005b005b34801561019a57600080fd5b506101a361061c565b6040516101b09190612162565b60405180910390f35b3480156101c557600080fd5b506101ce6106aa565b6040516101db919061219f565b60405180910390f35b3480156101f057600080fd5b506101f96106d7565b60405161020691906121d3565b60405180910390f35b34801561021b57600080fd5b506102246106df565b6040516102319190612162565b60405180910390f35b34801561024657600080fd5b5061024f610771565b60405161025c919061219f565b60405180910390f35b34801561027157600080fd5b5061028c60048036038101906102879190612260565b610784565b005b34801561029a57600080fd5b506102a3611361565b6040516102b0919061229c565b60405180910390f35b3480156102c557600080fd5b506102ce611387565b005b3480156102dc57600080fd5b506102f760048036038101906102f291906122e3565b6115e2565b6040516103049190612162565b60405180910390f35b34801561031957600080fd5b5061032261168e565b60405161032f919061229c565b60405180910390f35b34801561034457600080fd5b5061034d6116b4565b60405161035a919061229c565b60405180910390f35b34801561036f57600080fd5b506103786116d8565b604051610385919061229c565b60405180910390f35b34801561039a57600080fd5b506103b560048036038101906103b09190612260565b6116fe565b6040516103c291906121d3565b60405180910390f35b3480156103d757600080fd5b506103e0611716565b6040516103ed9190612162565b60405180910390f35b34801561040257600080fd5b5061041d60048036038101906104189190612260565b6117bb565b60405161042a919061219f565b60405180910390f35b34801561043f57600080fd5b50610448611831565b6040516104559190612162565b60405180910390f35b34801561046a57600080fd5b5061048560048036038101906104809190612445565b6118bf565b005b34801561049357600080fd5b5061049c611bf2565b6040516104a9919061229c565b60405180910390f35b3480156104be57600080fd5b506104c7611c1c565b6040516104d4919061259a565b60405180910390f35b3480156104e957600080fd5b506104f2611cf5565b6040516104ff91906121d3565b60405180910390f35b34801561051457600080fd5b5061051d611d94565b60405161052a91906121d3565b60405180910390f35b34801561053f57600080fd5b50610548611db4565b604051610555919061267a565b60405180910390f35b34801561056a57600080fd5b50610573611e42565b60405161058091906121d3565b60405180910390f35b34801561059557600080fd5b5061059e611e48565b6040516105ab919061219f565b60405180910390f35b3480156105c057600080fd5b506105c9611e5b565b6040516105d6919061229c565b60405180910390f35b3480156105eb57600080fd5b50610606600480360381019061060191906122e3565b611e81565b604051610613919061229c565b60405180910390f35b60018054610629906126cb565b80601f0160208091040260200160405190810160405280929190818152602001828054610655906126cb565b80156106a25780601f10610677576101008083540402835291602001916106a2565b820191906000526020600020905b81548152906001019060200180831161068557829003601f168201915b505050505081565b600080600780549050036106c157600190506106d4565b600860009054906101000a900460ff1690505b90565b600047905090565b6060600180546106ee906126cb565b80601f016020809104026020016040519081016040528092919081815260200182805461071a906126cb565b80156107675780601f1061073c57610100808354040283529160200191610767565b820191906000526020600020905b81548152906001019060200180831161074a57829003601f168201915b5050505050905090565b600860159054906101000a900460ff1681565b6000600260009054906101000a900473ffffffffffffffffffffffffffffffffffffffff16905060008173ffffffffffffffffffffffffffffffffffffffff1663179f907d6040518163ffffffff1660e01b81526004016020604051808303816000875af11580156107fa573d6000803e3d6000fd5b505050506040513d601f19601f8201168201806040525081019061081e9190612711565b90508073ffffffffffffffffffffffffffffffffffffffff163373ffffffffffffffffffffffffffffffffffffffff161461088e576040517f08c379a0000000000000000000000000000000000000000000000000000000008152600401610885906127b0565b60405180910390fd5b826000806006805490509050600081116108dd576040517f08c379a00000000000000000000000000000000000000000000000000000000081526004016108d490612842565b60405180910390fd5b6000600780548060200260200160405190810160405280929190818152602001828054801561096157602002820191906000526020600020905b8160009054906101000a900473ffffffffffffffffffffffffffffffffffffffff1673ffffffffffffffffffffffffffffffffffffffff1681526020019060010190808311610917575b5050505050905060005b81518110156109dd578473ffffffffffffffffffffffffffffffffffffffff1682828151811061099e5761099d612862565b5b602002602001015173ffffffffffffffffffffffffffffffffffffffff16036109ca57600193506109dd565b80806109d5906128c0565b91505061096b565b5082610a1e576040517f08c379a0000000000000000000000000000000000000000000000000000000008152600401610a1590612954565b60405180910390fd5b60011515600860009054906101000a900460ff161515148015610a905750600073ffffffffffffffffffffffffffffffffffffffff16600860019054906101000a900473ffffffffffffffffffffffffffffffffffffffff1673ffffffffffffffffffffffffffffffffffffffff1614155b15610ad0576040517f08c379a0000000000000000000000000000000000000000000000000000000008152600401610ac7906129c0565b60405180910390fd5b60006007805480602002602001604051908101604052809291908181526020018280548015610b5457602002820191906000526020600020905b8160009054906101000a900473ffffffffffffffffffffffffffffffffffffffff1673ffffffffffffffffffffffffffffffffffffffff1681526020019060010190808311610b0a575b5050505050905060004703610c865760005b8151811015610c30578873ffffffffffffffffffffffffffffffffffffffff16828281518110610b9957610b98612862565b5b602002602001015173ffffffffffffffffffffffffffffffffffffffff1603610c1d5788600860016101000a81548173ffffffffffffffffffffffffffffffffffffffff021916908373ffffffffffffffffffffffffffffffffffffffff1602179055506001600860006101000a81548160ff021916908315150217905550610c30565b8080610c28906128c0565b915050610b66565b50600860009054906101000a900460ff16610c80576040517f08c379a0000000000000000000000000000000000000000000000000000000008152600401610c7790612a2c565b60405180910390fd5b50611358565b6000600460009054906101000a900473ffffffffffffffffffffffffffffffffffffffff16905060008173ffffffffffffffffffffffffffffffffffffffff16632004b3e56040518163ffffffff1660e01b81526004016020604051808303816000875af1158015610cfc573d6000803e3d6000fd5b505050506040513d601f19601f82011682018060405250810190610d209190612a61565b90506000479050600060648383610d379190612a8e565b610d419190612b17565b905060008c905060008173ffffffffffffffffffffffffffffffffffffffff16637bc742256040518163ffffffff1660e01b81526004016020604051808303816000875af1158015610d97573d6000803e3d6000fd5b505050506040513d601f19601f82011682018060405250810190610dbb9190612a61565b90508284610dc99190612b48565b93508573ffffffffffffffffffffffffffffffffffffffff16631b7e427a8460008054906101000a900473ffffffffffffffffffffffffffffffffffffffff166040518363ffffffff1660e01b8152600401610e25919061229c565b6000604051808303818588803b158015610e3e57600080fd5b505af1158015610e52573d6000803e3d6000fd5b50505050506009604051602001610e699190612c41565b60405160208183030381529060405260099080519060200190610e8d929190612026565b506009610e9984611ec0565b604051602001610eaa929190612c98565b60405160208183030381529060405260099080519060200190610ece929190612026565b508d600860016101000a81548173ffffffffffffffffffffffffffffffffffffffff021916908373ffffffffffffffffffffffffffffffffffffffff1602179055506001600860006101000a81548160ff02191690831515021790555060008273ffffffffffffffffffffffffffffffffffffffff1663a6afd5fd6040518163ffffffff1660e01b81526004016000604051808303816000875af1158015610f7a573d6000803e3d6000fd5b505050506040513d6000823e3d601f19601f82011682018060405250810190610fa39190612d84565b905060005b81518110156112d6576000828281518110610fc657610fc5612862565b5b6020026020010151905060008173ffffffffffffffffffffffffffffffffffffffff16634d2124d46040518163ffffffff1660e01b81526004016020604051808303816000875af115801561101f573d6000803e3d6000fd5b505050506040513d601f19601f820116820180604052508101906110439190612a61565b905060096040516020016110579190612df3565b6040516020818303038152906040526009908051906020019061107b929190612026565b50600961108782611ec0565b604051602001611098929190612c98565b604051602081830303815290604052600990805190602001906110bc929190612026565b506000620f424090506000818a8884866110d69190612a8e565b6110e09190612b17565b6110ea9190612a8e565b6110f49190612b17565b905060096040516020016111089190612e3f565b6040516020818303038152906040526009908051906020019061112c929190612026565b50600961113888611ec0565b604051602001611149929190612c98565b6040516020818303038152906040526009908051906020019061116d929190612026565b5060096040516020016111809190612e8b565b604051602081830303815290604052600990805190602001906111a4929190612026565b5060096111b047611ec0565b6040516020016111c1929190612c98565b604051602081830303815290604052600990805190602001906111e5929190612026565b5060096040516020016111f89190612ed7565b6040516020818303038152906040526009908051906020019061121c929190612026565b50600961122882611ec0565b604051602001611239929190612c98565b6040516020818303038152906040526009908051906020019061125d929190612026565b5085858151811061127157611270612862565b5b602002602001015173ffffffffffffffffffffffffffffffffffffffff166108fc829081150290604051600060405180830381858888f193505050501580156112be573d6000803e3d6000fd5b505050505080806112ce906128c0565b915050610fa8565b5060096040516020016112e99190612f23565b6040516020818303038152906040526009908051906020019061130d929190612026565b50600961131947611ec0565b60405160200161132a929190612c98565b6040516020818303038152906040526009908051906020019061134e929190612026565b5050505050505050505b50505050505050565b600460009054906101000a900473ffffffffffffffffffffffffffffffffffffffff1681565b600860159054906101000a900460ff166115e057600860009054906101000a900460ff166115c35760005b6007805490508110156115a2576000600782815481106113d5576113d4612862565b5b9060005260206000200160009054906101000a900473ffffffffffffffffffffffffffffffffffffffff16905060008173ffffffffffffffffffffffffffffffffffffffff1663a6afd5fd6040518163ffffffff1660e01b81526004016000604051808303816000875af1158015611451573d6000803e3d6000fd5b505050506040513d6000823e3d601f19601f8201168201806040525081019061147a9190612d84565b905060005b815181101561158c57600082828151811061149d5761149c612862565b5b602002602001015190508282815181106114ba576114b9612862565b5b602002602001015173ffffffffffffffffffffffffffffffffffffffff166108fc8273ffffffffffffffffffffffffffffffffffffffff16634d2124d46040518163ffffffff1660e01b81526004016020604051808303816000875af1158015611528573d6000803e3d6000fd5b505050506040513d601f19601f8201168201806040525081019061154c9190612a61565b9081150290604051600060405180830381858888f19350505050158015611577573d6000803e3d6000fd5b50508080611584906128c0565b91505061147f565b505050808061159a906128c0565b9150506113b2565b506001600860156101000a81548160ff0219169083151502179055506115df565b6001600860156101000a81548160ff0219169083151502179055505b5b565b600681815481106115f257600080fd5b90600052602060002001600091509050805461160d906126cb565b80601f0160208091040260200160405190810160405280929190818152602001828054611639906126cb565b80156116865780601f1061165b57610100808354040283529160200191611686565b820191906000526020600020905b81548152906001019060200180831161166957829003601f168201915b505050505081565b600860019054906101000a900473ffffffffffffffffffffffffffffffffffffffff1681565b60008054906101000a900473ffffffffffffffffffffffffffffffffffffffff1681565b600360009054906101000a900473ffffffffffffffffffffffffffffffffffffffff1681565b600a6020528060005260406000206000915090505481565b60606000600260009054906101000a900473ffffffffffffffffffffffffffffffffffffffff1690508073ffffffffffffffffffffffffffffffffffffffff166317d7de7c6040518163ffffffff1660e01b81526004016000604051808303816000875af115801561178c573d6000803e3d6000fd5b505050506040513d6000823e3d601f19601f820116820180604052508101906117b59190612fb9565b91505090565b6000600860009054906101000a900460ff166117d857600061182a565b8173ffffffffffffffffffffffffffffffffffffffff16600860019054906101000a900473ffffffffffffffffffffffffffffffffffffffff1673ffffffffffffffffffffffffffffffffffffffff16145b9050919050565b6009805461183e906126cb565b80601f016020809104026020016040519081016040528092919081815260200182805461186a906126cb565b80156118b75780601f1061188c576101008083540402835291602001916118b7565b820191906000526020600020905b81548152906001019060200180831161189a57829003601f168201915b505050505081565b6000600260009054906101000a900473ffffffffffffffffffffffffffffffffffffffff16905060008173ffffffffffffffffffffffffffffffffffffffff1663179f907d6040518163ffffffff1660e01b81526004016020604051808303816000875af1158015611935573d6000803e3d6000fd5b505050506040513d601f19601f820116820180604052508101906119599190612711565b90508073ffffffffffffffffffffffffffffffffffffffff163373ffffffffffffffffffffffffffffffffffffffff16146119c9576040517f08c379a00000000000000000000000000000000000000000000000000000000081526004016119c0906127b0565b60405180910390fd5b826000600190506000600680549050905060005b81811015611a7157600681815481106119f9576119f8612862565b5b90600052602060002001604051602001611a139190613002565b6040516020818303038152906040528051906020012084604051602001611a3a9190613019565b6040516020818303038152906040528051906020012003611a5e5760009250611a71565b8080611a69906128c0565b9150506119dd565b5081611a7c57600080fd5b6000600360009054906101000a900473ffffffffffffffffffffffffffffffffffffffff16905060008173ffffffffffffffffffffffffffffffffffffffff166356cd61d789600260009054906101000a900473ffffffffffffffffffffffffffffffffffffffff16306040518463ffffffff1660e01b8152600401611b0493929190613030565b6020604051808303816000875af1158015611b23573d6000803e3d6000fd5b505050506040513d601f19601f82011682018060405250810190611b479190612711565b9050600688908060018154018082558091505060019003906000526020600020016000909190919091509080519060200190611b84929190612026565b506007819080600181540180825580915050600190039060005260206000200160009091909190916101000a81548173ffffffffffffffffffffffffffffffffffffffff021916908373ffffffffffffffffffffffffffffffffffffffff1602179055505050505050505050565b6000600260009054906101000a900473ffffffffffffffffffffffffffffffffffffffff16905090565b60606006805480602002602001604051908101604052809291908181526020016000905b82821015611cec578382906000526020600020018054611c5f906126cb565b80601f0160208091040260200160405190810160405280929190818152602001828054611c8b906126cb565b8015611cd85780601f10611cad57610100808354040283529160200191611cd8565b820191906000526020600020905b815481529060010190602001808311611cbb57829003601f168201915b505050505081526020019060010190611c40565b50505050905090565b600080600260009054906101000a900473ffffffffffffffffffffffffffffffffffffffff1690508073ffffffffffffffffffffffffffffffffffffffff1663d9bbd2786040518163ffffffff1660e01b81526004016020604051808303816000875af1158015611d6a573d6000803e3d6000fd5b505050506040513d601f19601f82011682018060405250810190611d8e9190612a61565b91505090565b60006064600a47611da59190612a8e565b611daf9190612b17565b905090565b60606007805480602002602001604051908101604052809291908181526020018280548015611e3857602002820191906000526020600020905b8160009054906101000a900473ffffffffffffffffffffffffffffffffffffffff1673ffffffffffffffffffffffffffffffffffffffff1681526020019060010190808311611dee575b5050505050905090565b60055481565b600860009054906101000a900460ff1681565b600260009054906101000a900473ffffffffffffffffffffffffffffffffffffffff1681565b60078181548110611e9157600080fd5b906000526020600020016000915054906101000a900473ffffffffffffffffffffffffffffffffffffffff1681565b606060008203611f07576040518060400160405280600181526020017f30000000000000000000000000000000000000000000000000000000000000008152509050612021565b600082905060005b60008214611f39578080611f22906128c0565b915050600a82611f329190612b17565b9150611f0f565b60008167ffffffffffffffff811115611f5557611f5461231a565b5b6040519080825280601f01601f191660200182016040528015611f875781602001600182028036833780820191505090505b50905060008290508593505b6000841461201957600a84611fa8919061306e565b6030611fb4919061309f565b60f81b8282611fc2906130f5565b92508281518110611fd657611fd5612862565b5b60200101907effffffffffffffffffffffffffffffffffffffffffffffffffffffffffffff1916908160001a905350600a846120129190612b17565b9350611f93565b819450505050505b919050565b828054612032906126cb565b90600052602060002090601f016020900481019282612054576000855561209b565b82601f1061206d57805160ff191683800117855561209b565b8280016001018555821561209b579182015b8281111561209a57825182559160200191906001019061207f565b5b5090506120a891906120ac565b5090565b5b808211156120c55760008160009055506001016120ad565b5090565b600081519050919050565b600082825260208201905092915050565b60005b838110156121035780820151818401526020810190506120e8565b83811115612112576000848401525b50505050565b6000601f19601f8301169050919050565b6000612134826120c9565b61213e81856120d4565b935061214e8185602086016120e5565b61215781612118565b840191505092915050565b6000602082019050818103600083015261217c8184612129565b905092915050565b60008115159050919050565b61219981612184565b82525050565b60006020820190506121b46000830184612190565b92915050565b6000819050919050565b6121cd816121ba565b82525050565b60006020820190506121e860008301846121c4565b92915050565b6000604051905090565b600080fd5b600080fd5b600073ffffffffffffffffffffffffffffffffffffffff82169050919050565b600061222d82612202565b9050919050565b61223d81612222565b811461224857600080fd5b50565b60008135905061225a81612234565b92915050565b600060208284031215612276576122756121f8565b5b60006122848482850161224b565b91505092915050565b61229681612222565b82525050565b60006020820190506122b1600083018461228d565b92915050565b6122c0816121ba565b81146122cb57600080fd5b50565b6000813590506122dd816122b7565b92915050565b6000602082840312156122f9576122f86121f8565b5b6000612307848285016122ce565b91505092915050565b600080fd5b600080fd5b7f4e487b7100000000000000000000000000000000000000000000000000000000600052604160045260246000fd5b61235282612118565b810181811067ffffffffffffffff821117156123715761237061231a565b5b80604052505050565b60006123846121ee565b90506123908282612349565b919050565b600067ffffffffffffffff8211156123b0576123af61231a565b5b6123b982612118565b9050602081019050919050565b82818337600083830152505050565b60006123e86123e384612395565b61237a565b90508281526020810184848401111561240457612403612315565b5b61240f8482856123c6565b509392505050565b600082601f83011261242c5761242b612310565b5b813561243c8482602086016123d5565b91505092915050565b60006020828403121561245b5761245a6121f8565b5b600082013567ffffffffffffffff811115612479576124786121fd565b5b61248584828501612417565b91505092915050565b600081519050919050565b600082825260208201905092915050565b6000819050602082019050919050565b600082825260208201905092915050565b60006124d6826120c9565b6124e081856124ba565b93506124f08185602086016120e5565b6124f981612118565b840191505092915050565b600061251083836124cb565b905092915050565b6000602082019050919050565b60006125308261248e565b61253a8185612499565b93508360208202850161254c856124aa565b8060005b8581101561258857848403895281516125698582612504565b945061257483612518565b925060208a01995050600181019050612550565b50829750879550505050505092915050565b600060208201905081810360008301526125b48184612525565b905092915050565b600081519050919050565b600082825260208201905092915050565b6000819050602082019050919050565b6125f181612222565b82525050565b600061260383836125e8565b60208301905092915050565b6000602082019050919050565b6000612627826125bc565b61263181856125c7565b935061263c836125d8565b8060005b8381101561266d57815161265488826125f7565b975061265f8361260f565b925050600181019050612640565b5085935050505092915050565b60006020820190508181036000830152612694818461261c565b905092915050565b7f4e487b7100000000000000000000000000000000000000000000000000000000600052602260045260246000fd5b600060028204905060018216806126e357607f821691505b6020821081036126f6576126f561269c565b5b50919050565b60008151905061270b81612234565b92915050565b600060208284031215612727576127266121f8565b5b6000612735848285016126fc565b91505092915050565b7f4f6e6c79206576656e74206f776e657273207365742077696e6e696e6720706f60008201527f6f6c000000000000000000000000000000000000000000000000000000000000602082015250565b600061279a6022836120d4565b91506127a58261273e565b604082019050919050565b600060208201905081810360008301526127c98161278d565b9050919050565b7f43616e6e6f74207365742077696e6e696e6720706f6f6c206f6e206d61726b6560008201527f742077697468206e6f20706f6f6c000000000000000000000000000000000000602082015250565b600061282c602e836120d4565b9150612837826127d0565b604082019050919050565b6000602082019050818103600083015261285b8161281f565b9050919050565b7f4e487b7100000000000000000000000000000000000000000000000000000000600052603260045260246000fd5b7f4e487b7100000000000000000000000000000000000000000000000000000000600052601160045260246000fd5b60006128cb826121ba565b91507fffffffffffffffffffffffffffffffffffffffffffffffffffffffffffffffff82036128fd576128fc612891565b5b600182019050919050565b7f496e76616c696420706f6f6c2061646472657373000000000000000000000000600082015250565b600061293e6014836120d4565b915061294982612908565b602082019050919050565b6000602082019050818103600083015261296d81612931565b9050919050565b7f57696e6e696e6720506f6f6c20616c7265616479207365740000000000000000600082015250565b60006129aa6018836120d4565b91506129b582612974565b602082019050919050565b600060208201905081810360008301526129d98161299d565b9050919050565b7f4e6f20506f6f6c20416464726573732077617320666f756e6400000000000000600082015250565b6000612a166019836120d4565b9150612a21826129e0565b602082019050919050565b60006020820190508181036000830152612a4581612a09565b9050919050565b600081519050612a5b816122b7565b92915050565b600060208284031215612a7757612a766121f8565b5b6000612a8584828501612a4c565b91505092915050565b6000612a99826121ba565b9150612aa4836121ba565b9250817fffffffffffffffffffffffffffffffffffffffffffffffffffffffffffffffff0483118215151615612add57612adc612891565b5b828202905092915050565b7f4e487b7100000000000000000000000000000000000000000000000000000000600052601260045260246000fd5b6000612b22826121ba565b9150612b2d836121ba565b925082612b3d57612b3c612ae8565b5b828204905092915050565b6000612b53826121ba565b9150612b5e836121ba565b925082821015612b7157612b70612891565b5b828203905092915050565b600081905092915050565b60008190508160005260206000209050919050565b60008154612ba9816126cb565b612bb38186612b7c565b94506001821660008114612bce5760018114612bdf57612c12565b60ff19831686528186019350612c12565b612be885612b87565b60005b83811015612c0a57815481890152600182019150602081019050612beb565b838801955050505b50505092915050565b7f5669672073686172650000000000000000000000000000000000000000000000815250565b6000612c4d8284612b9c565b9150612c5882612c1b565b60098201915081905092915050565b6000612c72826120c9565b612c7c8185612b7c565b9350612c8c8185602086016120e5565b80840191505092915050565b6000612ca48285612b9c565b9150612cb08284612c67565b91508190509392505050565b600067ffffffffffffffff821115612cd757612cd661231a565b5b602082029050602081019050919050565b600080fd5b6000612d00612cfb84612cbc565b61237a565b90508083825260208201905060208402830185811115612d2357612d22612ce8565b5b835b81811015612d4c5780612d3888826126fc565b845260208401935050602081019050612d25565b5050509392505050565b600082601f830112612d6b57612d6a612310565b5b8151612d7b848260208601612ced565b91505092915050565b600060208284031215612d9a57612d996121f8565b5b600082015167ffffffffffffffff811115612db857612db76121fd565b5b612dc484828501612d56565b91505092915050565b7f4265747374616b653a0000000000000000000000000000000000000000000000815250565b6000612dff8284612b9c565b9150612e0a82612dcd565b60098201915081905092915050565b7f546f74616c205374616b65000000000000000000000000000000000000000000815250565b6000612e4b8284612b9c565b9150612e5682612e19565b600b8201915081905092915050565b7f42616c616e636500000000000000000000000000000000000000000000000000815250565b6000612e978284612b9c565b9150612ea282612e65565b60078201915081905092915050565b7f416d6f756e7420746f2073656e643a0000000000000000000000000000000000815250565b6000612ee38284612b9c565b9150612eee82612eb1565b600f8201915081905092915050565b7f46696e616c204d61726b65742042616c616e63653a2000000000000000000000815250565b6000612f2f8284612b9c565b9150612f3a82612efd565b60168201915081905092915050565b6000612f5c612f5784612395565b61237a565b905082815260208101848484011115612f7857612f77612315565b5b612f838482856120e5565b509392505050565b600082601f830112612fa057612f9f612310565b5b8151612fb0848260208601612f49565b91505092915050565b600060208284031215612fcf57612fce6121f8565b5b600082015167ffffffffffffffff811115612fed57612fec6121fd565b5b612ff984828501612f8b565b91505092915050565b600061300e8284612b9c565b915081905092915050565b60006130258284612c67565b915081905092915050565b6000606082019050818103600083015261304a8186612129565b9050613059602083018561228d565b613066604083018461228d565b949350505050565b6000613079826121ba565b9150613084836121ba565b92508261309457613093612ae8565b5b828206905092915050565b60006130aa826121ba565b91506130b5836121ba565b9250827fffffffffffffffffffffffffffffffffffffffffffffffffffffffffffffffff038211156130ea576130e9612891565b5b828201905092915050565b6000613100826121ba565b91506000820361311357613112612891565b5b60018203905091905056fea264697066735822122089280e3080cc7cc3e0c5a1591c78da3f0055b7ad09232c6cb15d5f4f64bbfa8a64736f6c634300080d0033",
  "immutableReferences": {},
  "source": "// SPDX-License-Identifier: MIT\n\npragma solidity ^0.8.4;\n\nimport \"./interface/IWeb3BetsMarketV1.sol\";\nimport \"./interface/IWeb3BetsEventsV1.sol\";\nimport \"./interface/IWeb3BetsPoolsV1.sol\";\nimport \"./interface/IWeb3Bets.sol\";\nimport \"./PoolsFactory.sol\";\n\n// import \"@openzeppelin/contracts/utils/Strings.sol\";\n\ncontract Market is IWeb3BetsMarketV1 {\n    address public owner;\n    string public name;\n    address public eventAddress;\n    address public poolFactoryAddress;\n    address public web3BetsAddress;\n    uint256 public minimumStake;\n    string[] public poolNames;\n    address[] public poolAddresses;\n    bool public hasSetWinningPool;\n    address public winningPoolAddress;\n    bool public isSettled = false;\n    string public allAmounts = \"\";\n\n    mapping(address => uint256) public winningPoolAddresses;\n\n    modifier onlyEventOwner() {\n        IWeb3BetsEventV1 poolEvent = IWeb3BetsEventV1(eventAddress);\n        address eventOwner = poolEvent.getEventOwner();\n        require(msg.sender == eventOwner, \"Only event owners set winning pool\");\n        _;\n    }\n\n    modifier uniqueName(string memory value) {\n        bool isNotEqual = true;\n        uint256 poolNamesLength = poolNames.length;\n        for (uint256 i = 0; i < poolNamesLength; i++) {\n            if (\n                keccak256(abi.encodePacked(value)) ==\n                keccak256(abi.encodePacked(poolNames[i]))\n            ) {\n                isNotEqual = false;\n                break;\n            }\n        }\n        require(isNotEqual);\n\n        _;\n    }\n\n    //  verify if winning pool is valid in current market\n    modifier validWinningPool(address _poolAddress) {\n        bool found = false;\n        uint256 poolLength = poolNames.length;\n        require(\n            poolLength > 0,\n            \"Cannot set winning pool on market with no pool\"\n        );\n\n        address[] memory _poolAddresses = poolAddresses;\n        for (uint256 i = 0; i < _poolAddresses.length; i++) {\n            if (_poolAddresses[i] == _poolAddress) {\n                found = true;\n                break;\n            }\n        }\n        require(found, \"Invalid pool address\");\n\n        _;\n    }\n\n    constructor(\n        string memory _name,\n        address _eventAddress,\n        address _poolFactoryAddress,\n        address _web3betsAddress\n    ) {\n        owner = tx.origin;\n        name = _name;\n        eventAddress = _eventAddress;\n        poolFactoryAddress = _poolFactoryAddress;\n        web3BetsAddress = _web3betsAddress;\n    }\n\n    function createPool(string memory _name)\n        external\n        override\n        onlyEventOwner\n        uniqueName(_name)\n    {\n        PoolsFactory poolsFactory = PoolsFactory(poolFactoryAddress);\n        address poolAddress = poolsFactory.createPool(\n            _name,\n            eventAddress,\n            address(this)\n        );\n\n        poolNames.push(_name);\n        poolAddresses.push(poolAddress);\n    }\n\n    function setWinningPool(address _poolAddress)\n        external\n        override\n        onlyEventOwner\n        validWinningPool(_poolAddress)\n    {\n        if (hasSetWinningPool == true && winningPoolAddress != address(0)) {\n            revert(\"Winning Pool already set\");\n        }\n\n        address[] memory _poolAddresses = poolAddresses;\n        if (address(this).balance == 0) {\n            for (uint256 i = 0; i < _poolAddresses.length; i++) {\n                if (_poolAddresses[i] == _poolAddress) {\n                    winningPoolAddress = _poolAddress;\n                    hasSetWinningPool = true;\n                    break;\n                }\n            }\n            if (!hasSetWinningPool) {\n                revert(\"No Pool Address was found\");\n            } else {\n                return;\n            }\n        }\n               // Initialize the Web3Bets address\n        IWeb3Bets web3Bets = IWeb3Bets(web3BetsAddress);\n        uint256 vigPercentage = web3Bets.getVigPercentage();\n        uint marketBalance = address(this).balance;\n        // Get total stake and transfer to market\n        uint256 vigShare = (marketBalance * vigPercentage) / 100;\n\n        IWeb3BetsPoolsV1 pool = IWeb3BetsPoolsV1(_poolAddress);\n        uint256 poolTotalStake = pool.getTotalStake();\n         marketBalance = marketBalance - vigShare;\n\n \n        web3Bets.shareBetEarnings{value: vigShare}(owner);\n\n        allAmounts = string.concat(allAmounts, \"Vig share\");\n\n        allAmounts = string.concat(allAmounts, toString(vigShare));\n\n        // // send money to vig holders\n        // payable(web3BetsAddress).transfer(vigShare);\n        // // web3Bets.shareBetEarnings{value: vigShare}();\n\n        winningPoolAddress = _poolAddress;\n        hasSetWinningPool = true;\n\n        address[] memory winners = pool.getBets();\n\n        for (uint256 j = 0; j < winners.length; j++) {\n            IWeb3BetsBetsV1 betV1 = IWeb3BetsBetsV1(winners[j]);\n            uint256 betStake = betV1.getBetStake();\n            allAmounts = string.concat(allAmounts, \"Betstake:\");\n\n            allAmounts = string.concat(allAmounts, toString(betStake));\n            uint256 multiplier = 1000000;\n\n            uint256 amount = ((((betStake * multiplier) / poolTotalStake) *\n               marketBalance) / multiplier);\n\n            allAmounts = string.concat(allAmounts, \"Total Stake\");\n\n            allAmounts = string.concat(allAmounts, toString(poolTotalStake));\n\n            allAmounts = string.concat(allAmounts, \"Balance\");\n            allAmounts = string.concat(\n                allAmounts,\n                toString(address(this).balance)\n            );\n\n            allAmounts = string.concat(allAmounts, \"Amount to send:\");\n\n            allAmounts = string.concat(allAmounts, toString(amount));\n            payable(winners[j]).transfer(amount);\n        }\n\n        allAmounts = string.concat(allAmounts, \"Final Market Balance: \");\n        allAmounts = string.concat(allAmounts, toString(address(this).balance));\n    }\n\n    function getEventName() external override returns (string memory) {\n        IWeb3BetsEventV1 marketEvent = IWeb3BetsEventV1(eventAddress);\n        return marketEvent.getName();\n    }\n\n    function getEventAddress() external view override returns (address) {\n        return eventAddress;\n    }\n\n    function getVigShare() external view returns (uint256) {\n        return ((address(this).balance * 10) / 100);\n    }\n\n    function getName() external view override returns (string memory) {\n        return name;\n    }\n\n    function isWinningPoolSet() external view override returns (bool) {\n        if (poolAddresses.length == 0) {\n            return true;\n        }\n\n        return hasSetWinningPool;\n    }\n\n    function getPoolNames() external view returns (string[] memory) {\n        return poolNames;\n    }\n\n    function getPoolAddresses() external view returns (address[] memory) {\n        return poolAddresses;\n    }\n\n    function getBalance() external view returns (uint256) {\n        return address(this).balance;\n    }\n\n    function isWinningPool(address pool) external view returns (bool) {\n        return hasSetWinningPool ? winningPoolAddress == pool : false;\n    }\n\n    function cancelMarket() external {\n        if (isSettled) {\n            return;\n        }\n        if (!hasSetWinningPool) {\n            for (uint256 i = 0; i < poolAddresses.length; i++) {\n                IWeb3BetsPoolsV1 poolsV1 = IWeb3BetsPoolsV1(poolAddresses[i]);\n                address[] memory betAddresses = poolsV1.getBets();\n                for (uint256 j; j < betAddresses.length; j++) {\n                    IWeb3BetsBetsV1 betV1 = IWeb3BetsBetsV1(betAddresses[j]);\n                    payable(betAddresses[j]).transfer(betV1.getBetStake());\n                }\n            }\n\n            isSettled = true;\n        } else {\n            isSettled = true;\n        }\n    }\n\n    // Function to receive Ether. msg.data must be empty\n    receive() external payable {}\n\n    // Fallback function is called when msg.data is not empty\n    fallback() external payable {}\n\n    function getMinimumStake() public returns (uint256) {\n        IWeb3BetsEventV1 event1 = IWeb3BetsEventV1(eventAddress);\n        return event1.getMinimumStake();\n    }\n\n    function toString(uint256 _i) internal pure returns (string memory str) {\n        if (_i == 0) {\n            return \"0\";\n        }\n        uint256 j = _i;\n        uint256 length;\n        while (j != 0) {\n            length++;\n            j /= 10;\n        }\n        bytes memory bstr = new bytes(length);\n        uint256 k = length;\n        j = _i;\n        while (j != 0) {\n            bstr[--k] = bytes1(uint8(48 + (j % 10)));\n            j /= 10;\n        }\n        str = string(bstr);\n    }\n}\n",
  "sourcePath": "/Users/wizardom/projects/crypto/web3bets_smartcontract/contracts/Markets.sol",
  "compiler": {
    "name": "solc",
    "version": "0.8.13+commit.abaa5c0e.Emscripten.clang"
  },
  "schemaVersion": "3.4.7",
  "updatedAt": "2022-08-02T05:10:40.932Z",
  "devdoc": {
    "kind": "dev",
    "methods": {},
    "version": 1
  },
  "userdoc": {
    "kind": "user",
    "methods": {},
    "version": 1
  }
}