{
  "contractName": "Market",
  "abi": [
    {
      "inputs": [
        {
          "internalType": "string",
          "name": "_name",
          "type": "string"
        },
        {
          "internalType": "address",
          "name": "_eventAddress",
          "type": "address"
        },
        {
          "internalType": "address",
          "name": "_poolFactoryAddress",
          "type": "address"
        },
        {
          "internalType": "address",
          "name": "_web3betsAddress",
          "type": "address"
        },
        {
          "internalType": "uint256",
          "name": "_minimumStake",
          "type": "uint256"
        }
      ],
      "stateMutability": "nonpayable",
      "type": "constructor"
    },
    {
      "inputs": [],
      "name": "eventAddress",
      "outputs": [
        {
          "internalType": "address",
          "name": "",
          "type": "address"
        }
      ],
      "stateMutability": "view",
      "type": "function",
      "constant": true
    },
    {
      "inputs": [],
      "name": "hasSetWinningPool",
      "outputs": [
        {
          "internalType": "bool",
          "name": "",
          "type": "bool"
        }
      ],
      "stateMutability": "view",
      "type": "function",
      "constant": true
    },
    {
      "inputs": [],
      "name": "minimumStake",
      "outputs": [
        {
          "internalType": "uint256",
          "name": "",
          "type": "uint256"
        }
      ],
      "stateMutability": "view",
      "type": "function",
      "constant": true
    },
    {
      "inputs": [],
      "name": "name",
      "outputs": [
        {
          "internalType": "string",
          "name": "",
          "type": "string"
        }
      ],
      "stateMutability": "view",
      "type": "function",
      "constant": true
    },
    {
      "inputs": [],
      "name": "owner",
      "outputs": [
        {
          "internalType": "address",
          "name": "",
          "type": "address"
        }
      ],
      "stateMutability": "view",
      "type": "function",
      "constant": true
    },
    {
      "inputs": [
        {
          "internalType": "uint256",
          "name": "",
          "type": "uint256"
        }
      ],
      "name": "poolAddresses",
      "outputs": [
        {
          "internalType": "address",
          "name": "",
          "type": "address"
        }
      ],
      "stateMutability": "view",
      "type": "function",
      "constant": true
    },
    {
      "inputs": [],
      "name": "poolFactoryAddress",
      "outputs": [
        {
          "internalType": "address",
          "name": "",
          "type": "address"
        }
      ],
      "stateMutability": "view",
      "type": "function",
      "constant": true
    },
    {
      "inputs": [
        {
          "internalType": "uint256",
          "name": "",
          "type": "uint256"
        }
      ],
      "name": "poolNames",
      "outputs": [
        {
          "internalType": "string",
          "name": "",
          "type": "string"
        }
      ],
      "stateMutability": "view",
      "type": "function",
      "constant": true
    },
    {
      "inputs": [
        {
          "internalType": "string",
          "name": "",
          "type": "string"
        }
      ],
      "name": "pools",
      "outputs": [
        {
          "internalType": "address",
          "name": "",
          "type": "address"
        }
      ],
      "stateMutability": "view",
      "type": "function",
      "constant": true
    },
    {
      "inputs": [],
      "name": "web3BetsAddress",
      "outputs": [
        {
          "internalType": "address",
          "name": "",
          "type": "address"
        }
      ],
      "stateMutability": "view",
      "type": "function",
      "constant": true
    },
    {
      "inputs": [
        {
          "internalType": "address",
          "name": "",
          "type": "address"
        }
      ],
      "name": "winningPoolAddresses",
      "outputs": [
        {
          "internalType": "uint256",
          "name": "",
          "type": "uint256"
        }
      ],
      "stateMutability": "view",
      "type": "function",
      "constant": true
    },
    {
      "inputs": [
        {
          "internalType": "string",
          "name": "_name",
          "type": "string"
        }
      ],
      "name": "createMarketPool",
      "outputs": [],
      "stateMutability": "nonpayable",
      "type": "function"
    },
    {
      "inputs": [
        {
          "internalType": "address",
          "name": "_poolAddress",
          "type": "address"
        }
      ],
      "name": "setWinningPool",
      "outputs": [],
      "stateMutability": "nonpayable",
      "type": "function"
    },
    {
      "inputs": [],
      "name": "getEventName",
      "outputs": [
        {
          "internalType": "string",
          "name": "",
          "type": "string"
        }
      ],
      "stateMutability": "nonpayable",
      "type": "function"
    },
    {
      "inputs": [],
      "name": "getEventAddress",
      "outputs": [
        {
          "internalType": "address",
          "name": "",
          "type": "address"
        }
      ],
      "stateMutability": "view",
      "type": "function",
      "constant": true
    },
    {
      "inputs": [],
      "name": "getName",
      "outputs": [
        {
          "internalType": "string",
          "name": "",
          "type": "string"
        }
      ],
      "stateMutability": "view",
      "type": "function",
      "constant": true
    },
    {
      "inputs": [],
      "name": "getTotalStake",
      "outputs": [
        {
          "internalType": "uint256",
          "name": "",
          "type": "uint256"
        }
      ],
      "stateMutability": "nonpayable",
      "type": "function"
    },
    {
      "inputs": [],
      "name": "isWinningPoolSet",
      "outputs": [
        {
          "internalType": "bool",
          "name": "",
          "type": "bool"
        }
      ],
      "stateMutability": "view",
      "type": "function",
      "constant": true
    },
    {
      "inputs": [],
      "name": "getPoolNames",
      "outputs": [
        {
          "internalType": "string[]",
          "name": "",
          "type": "string[]"
        }
      ],
      "stateMutability": "view",
      "type": "function",
      "constant": true
    },
    {
      "inputs": [],
      "name": "getPoolAddresses",
      "outputs": [
        {
          "internalType": "address[]",
          "name": "",
          "type": "address[]"
        }
      ],
      "stateMutability": "view",
      "type": "function",
      "constant": true
    },
    {
      "inputs": [
        {
          "internalType": "string",
          "name": "_name",
          "type": "string"
        }
      ],
      "name": "getPoolAddressFromName",
      "outputs": [
        {
          "internalType": "address",
          "name": "",
          "type": "address"
        }
      ],
      "stateMutability": "view",
      "type": "function",
      "constant": true
    }
  ],
  "bytecode": "0x60806040523480156200001157600080fd5b506040516200235938038062002359833981810160405281019062000037919062000452565b326000806101000a81548173ffffffffffffffffffffffffffffffffffffffff021916908373ffffffffffffffffffffffffffffffffffffffff16021790555084600190805190602001906200008f92919062000165565b5083600260006101000a81548173ffffffffffffffffffffffffffffffffffffffff021916908373ffffffffffffffffffffffffffffffffffffffff16021790555082600360006101000a81548173ffffffffffffffffffffffffffffffffffffffff021916908373ffffffffffffffffffffffffffffffffffffffff16021790555081600460006101000a81548173ffffffffffffffffffffffffffffffffffffffff021916908373ffffffffffffffffffffffffffffffffffffffff1602179055508060058190555050505050506200055d565b828054620001739062000528565b90600052602060002090601f016020900481019282620001975760008555620001e3565b82601f10620001b257805160ff1916838001178555620001e3565b82800160010185558215620001e3579182015b82811115620001e2578251825591602001919060010190620001c5565b5b509050620001f29190620001f6565b5090565b5b8082111562000211576000816000905550600101620001f7565b5090565b6000604051905090565b600080fd5b600080fd5b600080fd5b600080fd5b6000601f19601f8301169050919050565b7f4e487b7100000000000000000000000000000000000000000000000000000000600052604160045260246000fd5b6200027e8262000233565b810181811067ffffffffffffffff82111715620002a0576200029f62000244565b5b80604052505050565b6000620002b562000215565b9050620002c3828262000273565b919050565b600067ffffffffffffffff821115620002e657620002e562000244565b5b620002f18262000233565b9050602081019050919050565b60005b838110156200031e57808201518184015260208101905062000301565b838111156200032e576000848401525b50505050565b60006200034b6200034584620002c8565b620002a9565b9050828152602081018484840111156200036a57620003696200022e565b5b62000377848285620002fe565b509392505050565b600082601f83011262000397576200039662000229565b5b8151620003a984826020860162000334565b91505092915050565b600073ffffffffffffffffffffffffffffffffffffffff82169050919050565b6000620003df82620003b2565b9050919050565b620003f181620003d2565b8114620003fd57600080fd5b50565b6000815190506200041181620003e6565b92915050565b6000819050919050565b6200042c8162000417565b81146200043857600080fd5b50565b6000815190506200044c8162000421565b92915050565b600080600080600060a086880312156200047157620004706200021f565b5b600086015167ffffffffffffffff81111562000492576200049162000224565b5b620004a0888289016200037f565b9550506020620004b38882890162000400565b9450506040620004c68882890162000400565b9350506060620004d98882890162000400565b9250506080620004ec888289016200043b565b9150509295509295909350565b7f4e487b7100000000000000000000000000000000000000000000000000000000600052602260045260246000fd5b600060028204905060018216806200054157607f821691505b602082108103620005575762000556620004f9565b5b50919050565b611dec806200056d6000396000f3fe608060405234801561001057600080fd5b50600436106101375760003560e01c80639d6f17a8116100b8578063d5e298bb1161007c578063d5e298bb14610342578063e4b6db4c14610360578063ec5ffac21461037e578063f92c16201461039c578063fad56779146103ba578063feb21b9c146103d857610137565b80639d6f17a814610288578063a32cf536146102b8578063aa362b32146102d6578063b81e43fc14610306578063d427ccbf1461032457610137565b80635d155b0c116100ff5780635d155b0c146101e2578063733b05e2146102005780637bc74225146102305780637dbaf26b1461024e5780638da5cb5b1461026a57610137565b806306fdde031461013c57806309dd8f871461015a57806317d7de7c14610178578063352ae596146101965780634599c5ab146101b2575b600080fd5b610144610408565b6040516101519190611309565b60405180910390f35b610162610496565b60405161016f9190611346565b60405180910390f35b6101806104ad565b60405161018d9190611309565b60405180910390f35b6101b060048036038101906101ab91906113d3565b61053f565b005b6101cc60048036038101906101c79190611535565b6108b9565b6040516101d9919061158d565b60405180910390f35b6101ea610901565b6040516101f7919061158d565b60405180910390f35b61021a600480360381019061021591906115de565b610927565b6040516102279190611309565b60405180910390f35b6102386109d3565b604051610245919061161a565b60405180910390f35b61026860048036038101906102639190611535565b610ae0565b005b610272610e6e565b60405161027f919061158d565b60405180910390f35b6102a2600480360381019061029d9190611535565b610e92565b6040516102af919061158d565b60405180910390f35b6102c0610edb565b6040516102cd919061158d565b60405180910390f35b6102f060048036038101906102eb91906113d3565b610f01565b6040516102fd919061161a565b60405180910390f35b61030e610f19565b60405161031b9190611309565b60405180910390f35b61032c610fbe565b604051610339919061158d565b60405180910390f35b61034a610fe8565b6040516103579190611741565b60405180910390f35b6103686110c1565b6040516103759190611821565b60405180910390f35b61038661114f565b604051610393919061161a565b60405180910390f35b6103a4611155565b6040516103b19190611346565b60405180910390f35b6103c2611168565b6040516103cf919061158d565b60405180910390f35b6103f260048036038101906103ed91906115de565b61118e565b6040516103ff919061158d565b60405180910390f35b6001805461041590611872565b80601f016020809104026020016040519081016040528092919081815260200182805461044190611872565b801561048e5780601f106104635761010080835404028352916020019161048e565b820191906000526020600020905b81548152906001019060200180831161047157829003601f168201915b505050505081565b6000600960009054906101000a900460ff16905090565b6060600180546104bc90611872565b80601f01602080910402602001604051908101604052809291908181526020018280546104e890611872565b80156105355780601f1061050a57610100808354040283529160200191610535565b820191906000526020600020905b81548152906001019060200180831161051857829003601f168201915b5050505050905090565b6000600260009054906101000a900473ffffffffffffffffffffffffffffffffffffffff1690508073ffffffffffffffffffffffffffffffffffffffff1663179f907d6040518163ffffffff1660e01b81526004016020604051808303816000875af11580156105b3573d6000803e3d6000fd5b505050506040513d601f19601f820116820180604052508101906105d791906118b8565b73ffffffffffffffffffffffffffffffffffffffff163373ffffffffffffffffffffffffffffffffffffffff1614610644576040517f08c379a000000000000000000000000000000000000000000000000000000000815260040161063b90611957565b60405180910390fd5b81600080600780549050905060008111610693576040517f08c379a000000000000000000000000000000000000000000000000000000000815260040161068a906119e9565b60405180910390fd5b60005b81811015610748578373ffffffffffffffffffffffffffffffffffffffff166006600783815481106106cb576106ca611a09565b5b906000526020600020016040516106e29190611ad7565b908152602001604051809103902060009054906101000a900473ffffffffffffffffffffffffffffffffffffffff1673ffffffffffffffffffffffffffffffffffffffff16036107355760019250610748565b808061074090611b1d565b915050610696565b5081610789576040517f08c379a000000000000000000000000000000000000000000000000000000000815260040161078090611bb1565b60405180910390fd5b6000600460009054906101000a900473ffffffffffffffffffffffffffffffffffffffff16905060008173ffffffffffffffffffffffffffffffffffffffff16632004b3e56040518163ffffffff1660e01b81526004016020604051808303816000875af11580156107ff573d6000803e3d6000fd5b505050506040513d601f19601f820116820180604052508101906108239190611be6565b90506000600780549050905060005b818110156108ae57600060066007838154811061085257610851611a09565b5b906000526020600020016040516108699190611ad7565b908152602001604051809103902060009054906101000a900473ffffffffffffffffffffffffffffffffffffffff1690505080806108a690611b1d565b915050610832565b505050505050505050565b60006006826040516108cb9190611c44565b908152602001604051809103902060009054906101000a900473ffffffffffffffffffffffffffffffffffffffff169050919050565b600460009054906101000a900473ffffffffffffffffffffffffffffffffffffffff1681565b6007818154811061093757600080fd5b90600052602060002001600091509050805461095290611872565b80601f016020809104026020016040519081016040528092919081815260200182805461097e90611872565b80156109cb5780601f106109a0576101008083540402835291602001916109cb565b820191906000526020600020905b8154815290600101906020018083116109ae57829003601f168201915b505050505081565b60008060005b600780549050811015610ad85760006006600783815481106109fe576109fd611a09565b5b90600052602060002001604051610a159190611ad7565b908152602001604051809103902060009054906101000a900473ffffffffffffffffffffffffffffffffffffffff1690508073ffffffffffffffffffffffffffffffffffffffff16637bc742256040518163ffffffff1660e01b81526004016020604051808303816000875af1158015610a93573d6000803e3d6000fd5b505050506040513d601f19601f82011682018060405250810190610ab79190611be6565b83610ac29190611c5b565b9250508080610ad090611b1d565b9150506109d9565b508091505090565b6000600260009054906101000a900473ffffffffffffffffffffffffffffffffffffffff1690508073ffffffffffffffffffffffffffffffffffffffff1663179f907d6040518163ffffffff1660e01b81526004016020604051808303816000875af1158015610b54573d6000803e3d6000fd5b505050506040513d601f19601f82011682018060405250810190610b7891906118b8565b73ffffffffffffffffffffffffffffffffffffffff163373ffffffffffffffffffffffffffffffffffffffff1614610be5576040517f08c379a0000000000000000000000000000000000000000000000000000000008152600401610bdc90611957565b60405180910390fd5b816000600190506000600780549050905060005b81811015610c8d5760078181548110610c1557610c14611a09565b5b90600052602060002001604051602001610c2f9190611ad7565b6040516020818303038152906040528051906020012084604051602001610c569190611c44565b6040516020818303038152906040528051906020012003610c7a5760009250610c8d565b8080610c8590611b1d565b915050610bf9565b5081610c9857600080fd5b6000600360009054906101000a900473ffffffffffffffffffffffffffffffffffffffff16905060008173ffffffffffffffffffffffffffffffffffffffff16632b2b027388600260009054906101000a900473ffffffffffffffffffffffffffffffffffffffff16306005546040518563ffffffff1660e01b8152600401610d249493929190611cb1565b6020604051808303816000875af1158015610d43573d6000803e3d6000fd5b505050506040513d601f19601f82011682018060405250810190610d6791906118b8565b905080600688604051610d7a9190611c44565b908152602001604051809103902060006101000a81548173ffffffffffffffffffffffffffffffffffffffff021916908373ffffffffffffffffffffffffffffffffffffffff160217905550600787908060018154018082558091505060019003906000526020600020016000909190919091509080519060200190610e019291906111cd565b506008819080600181540180825580915050600190039060005260206000200160009091909190916101000a81548173ffffffffffffffffffffffffffffffffffffffff021916908373ffffffffffffffffffffffffffffffffffffffff16021790555050505050505050565b60008054906101000a900473ffffffffffffffffffffffffffffffffffffffff1681565b6006818051602081018201805184825260208301602085012081835280955050505050506000915054906101000a900473ffffffffffffffffffffffffffffffffffffffff1681565b600360009054906101000a900473ffffffffffffffffffffffffffffffffffffffff1681565b600a6020528060005260406000206000915090505481565b60606000600260009054906101000a900473ffffffffffffffffffffffffffffffffffffffff1690508073ffffffffffffffffffffffffffffffffffffffff166317d7de7c6040518163ffffffff1660e01b81526004016000604051808303816000875af1158015610f8f573d6000803e3d6000fd5b505050506040513d6000823e3d601f19601f82011682018060405250810190610fb89190611d6d565b91505090565b6000600260009054906101000a900473ffffffffffffffffffffffffffffffffffffffff16905090565b60606007805480602002602001604051908101604052809291908181526020016000905b828210156110b857838290600052602060002001805461102b90611872565b80601f016020809104026020016040519081016040528092919081815260200182805461105790611872565b80156110a45780601f10611079576101008083540402835291602001916110a4565b820191906000526020600020905b81548152906001019060200180831161108757829003601f168201915b50505050508152602001906001019061100c565b50505050905090565b6060600880548060200260200160405190810160405280929190818152602001828054801561114557602002820191906000526020600020905b8160009054906101000a900473ffffffffffffffffffffffffffffffffffffffff1673ffffffffffffffffffffffffffffffffffffffff16815260200190600101908083116110fb575b5050505050905090565b60055481565b600960009054906101000a900460ff1681565b600260009054906101000a900473ffffffffffffffffffffffffffffffffffffffff1681565b6008818154811061119e57600080fd5b906000526020600020016000915054906101000a900473ffffffffffffffffffffffffffffffffffffffff1681565b8280546111d990611872565b90600052602060002090601f0160209004810192826111fb5760008555611242565b82601f1061121457805160ff1916838001178555611242565b82800160010185558215611242579182015b82811115611241578251825591602001919060010190611226565b5b50905061124f9190611253565b5090565b5b8082111561126c576000816000905550600101611254565b5090565b600081519050919050565b600082825260208201905092915050565b60005b838110156112aa57808201518184015260208101905061128f565b838111156112b9576000848401525b50505050565b6000601f19601f8301169050919050565b60006112db82611270565b6112e5818561127b565b93506112f581856020860161128c565b6112fe816112bf565b840191505092915050565b6000602082019050818103600083015261132381846112d0565b905092915050565b60008115159050919050565b6113408161132b565b82525050565b600060208201905061135b6000830184611337565b92915050565b6000604051905090565b600080fd5b600080fd5b600073ffffffffffffffffffffffffffffffffffffffff82169050919050565b60006113a082611375565b9050919050565b6113b081611395565b81146113bb57600080fd5b50565b6000813590506113cd816113a7565b92915050565b6000602082840312156113e9576113e861136b565b5b60006113f7848285016113be565b91505092915050565b600080fd5b600080fd5b7f4e487b7100000000000000000000000000000000000000000000000000000000600052604160045260246000fd5b611442826112bf565b810181811067ffffffffffffffff821117156114615761146061140a565b5b80604052505050565b6000611474611361565b90506114808282611439565b919050565b600067ffffffffffffffff8211156114a05761149f61140a565b5b6114a9826112bf565b9050602081019050919050565b82818337600083830152505050565b60006114d86114d384611485565b61146a565b9050828152602081018484840111156114f4576114f3611405565b5b6114ff8482856114b6565b509392505050565b600082601f83011261151c5761151b611400565b5b813561152c8482602086016114c5565b91505092915050565b60006020828403121561154b5761154a61136b565b5b600082013567ffffffffffffffff81111561156957611568611370565b5b61157584828501611507565b91505092915050565b61158781611395565b82525050565b60006020820190506115a2600083018461157e565b92915050565b6000819050919050565b6115bb816115a8565b81146115c657600080fd5b50565b6000813590506115d8816115b2565b92915050565b6000602082840312156115f4576115f361136b565b5b6000611602848285016115c9565b91505092915050565b611614816115a8565b82525050565b600060208201905061162f600083018461160b565b92915050565b600081519050919050565b600082825260208201905092915050565b6000819050602082019050919050565b600082825260208201905092915050565b600061167d82611270565b6116878185611661565b935061169781856020860161128c565b6116a0816112bf565b840191505092915050565b60006116b78383611672565b905092915050565b6000602082019050919050565b60006116d782611635565b6116e18185611640565b9350836020820285016116f385611651565b8060005b8581101561172f578484038952815161171085826116ab565b945061171b836116bf565b925060208a019950506001810190506116f7565b50829750879550505050505092915050565b6000602082019050818103600083015261175b81846116cc565b905092915050565b600081519050919050565b600082825260208201905092915050565b6000819050602082019050919050565b61179881611395565b82525050565b60006117aa838361178f565b60208301905092915050565b6000602082019050919050565b60006117ce82611763565b6117d8818561176e565b93506117e38361177f565b8060005b838110156118145781516117fb888261179e565b9750611806836117b6565b9250506001810190506117e7565b5085935050505092915050565b6000602082019050818103600083015261183b81846117c3565b905092915050565b7f4e487b7100000000000000000000000000000000000000000000000000000000600052602260045260246000fd5b6000600282049050600182168061188a57607f821691505b60208210810361189d5761189c611843565b5b50919050565b6000815190506118b2816113a7565b92915050565b6000602082840312156118ce576118cd61136b565b5b60006118dc848285016118a3565b91505092915050565b7f4f6e6c79206576656e74206f776e657273207365742077696e6e696e6720706f60008201527f6f6c000000000000000000000000000000000000000000000000000000000000602082015250565b600061194160228361127b565b915061194c826118e5565b604082019050919050565b6000602082019050818103600083015261197081611934565b9050919050565b7f43616e6e6f74207365742077696e6e696e6720706f6f6c206f6e206d61726b6560008201527f742077697468206e6f20706f6f6c000000000000000000000000000000000000602082015250565b60006119d3602e8361127b565b91506119de82611977565b604082019050919050565b60006020820190508181036000830152611a02816119c6565b9050919050565b7f4e487b7100000000000000000000000000000000000000000000000000000000600052603260045260246000fd5b600081905092915050565b60008190508160005260206000209050919050565b60008154611a6581611872565b611a6f8186611a38565b94506001821660008114611a8a5760018114611a9b57611ace565b60ff19831686528186019350611ace565b611aa485611a43565b60005b83811015611ac657815481890152600182019150602081019050611aa7565b838801955050505b50505092915050565b6000611ae38284611a58565b915081905092915050565b7f4e487b7100000000000000000000000000000000000000000000000000000000600052601160045260246000fd5b6000611b28826115a8565b91507fffffffffffffffffffffffffffffffffffffffffffffffffffffffffffffffff8203611b5a57611b59611aee565b5b600182019050919050565b7f496e76616c696420706f6f6c2061646472657373000000000000000000000000600082015250565b6000611b9b60148361127b565b9150611ba682611b65565b602082019050919050565b60006020820190508181036000830152611bca81611b8e565b9050919050565b600081519050611be0816115b2565b92915050565b600060208284031215611bfc57611bfb61136b565b5b6000611c0a84828501611bd1565b91505092915050565b6000611c1e82611270565b611c288185611a38565b9350611c3881856020860161128c565b80840191505092915050565b6000611c508284611c13565b915081905092915050565b6000611c66826115a8565b9150611c71836115a8565b9250827fffffffffffffffffffffffffffffffffffffffffffffffffffffffffffffffff03821115611ca657611ca5611aee565b5b828201905092915050565b60006080820190508181036000830152611ccb81876112d0565b9050611cda602083018661157e565b611ce7604083018561157e565b611cf4606083018461160b565b95945050505050565b6000611d10611d0b84611485565b61146a565b905082815260208101848484011115611d2c57611d2b611405565b5b611d3784828561128c565b509392505050565b600082601f830112611d5457611d53611400565b5b8151611d64848260208601611cfd565b91505092915050565b600060208284031215611d8357611d8261136b565b5b600082015167ffffffffffffffff811115611da157611da0611370565b5b611dad84828501611d3f565b9150509291505056fea2646970667358221220049bfc877005c55d64196501f5c957e6fe65b341ba454225105c35bc79f7438964736f6c634300080d0033",
  "immutableReferences": {},
  "source": "// SPDX-License-Identifier: MIT\n\npragma solidity ^0.8.4;\n\nimport \"./interface/IWeb3BetsMarketV1.sol\";\nimport \"./interface/IWeb3BetsEventsV1.sol\";\nimport \"./interface/IWeb3BetsPoolsV1.sol\";\nimport \"./interface/IWeb3Bets.sol\";\nimport \"./PoolsFactory.sol\";\n\ncontract Market is IWeb3BetsMarketV1 {\n    address public owner;\n    string public name;\n    address public eventAddress;\n    address public poolFactoryAddress;\n    address public web3BetsAddress;\n    uint public minimumStake;\n    mapping(string => address) public pools;\n    string[] public poolNames;\n    address[] public poolAddresses;\n    bool public hasSetWinningPool;\n    mapping(address => uint) public winningPoolAddresses;\n\n    modifier onlyEventOwner() {\n        IWeb3BetsEventV1 poolEvent = IWeb3BetsEventV1(eventAddress);\n        require(\n            msg.sender == poolEvent.getEventOwner(),\n            \"Only event owners set winning pool\"\n        );\n        _;\n    }\n\n    modifier uniqueName(string memory value) {\n        bool isNotEqual = true;\n        uint poolNamesLength = poolNames.length;\n        for (uint i = 0; i < poolNamesLength; i++) {\n            if (keccak256(abi.encodePacked(value)) == keccak256(abi.encodePacked(poolNames[i]))) {\n                isNotEqual = false;\n                break;\n            }\n        }\n        require(isNotEqual);\n\n        _;\n    }\n\n    //  verify if winning pool is valid in current market\n    modifier validWinningPool(address _poolAddress) {\n        bool found = false;\n        uint256 poolLength = poolNames.length;\n        require(\n            poolLength > 0,\n            \"Cannot set winning pool on market with no pool\"\n        );\n        for (uint256 i = 0; i < poolLength; i++) {\n            if (pools[poolNames[i]] == _poolAddress) {\n                found = true;\n                break;\n            }\n        }\n        require(found, \"Invalid pool address\");\n\n        _;\n    }\n\n    constructor(string memory _name, address _eventAddress,address _poolFactoryAddress, address _web3betsAddress, uint _minimumStake) {\n        owner = tx.origin;\n        name = _name;\n        eventAddress = _eventAddress;\n        poolFactoryAddress = _poolFactoryAddress;\n        web3BetsAddress = _web3betsAddress;\n        minimumStake = _minimumStake;\n    }\n\n    function createMarketPool(string memory _name)\n    override\n        external\n        onlyEventOwner\n        uniqueName(_name)\n    {\n        PoolsFactory poolsFactory = PoolsFactory(poolFactoryAddress);\n        address poolAddress = poolsFactory.createPool(\n            _name,\n            eventAddress,\n            address(this),\n            minimumStake\n        );\n        pools[_name] = poolAddress;\n        poolNames.push(_name);\n        poolAddresses.push(poolAddress);\n    }\n\n    function setWinningPool(address _poolAddress)\n    override\n        external\n        onlyEventOwner\n        validWinningPool(_poolAddress)\n    {\n        // Initialize the Web3Bets address\n        IWeb3Bets web3Bets = IWeb3Bets(web3BetsAddress);\n        uint vigPercentage = web3Bets.getVigPercentage();\n\n        // Get total stake and transfer to market\n        // TODO: discuss with client: formulate pragmatic algorithm for bet winnings\n        uint poolLength = poolNames.length;\n        for (uint i = 0; i < poolLength; i++){\n            IWeb3BetsPoolsV1 pool = IWeb3BetsPoolsV1(pools[poolNames[i]]);\n            \n        }\n    }\n\n    function getEventName() external override returns (string memory) {\n        IWeb3BetsEventV1 marketEvent = IWeb3BetsEventV1(eventAddress);\n        return marketEvent.getName();\n    }\n\n    function getEventAddress() external view override returns (address) {\n        return eventAddress;\n    }\n\n    function getName() external view override returns (string memory) {\n        return name;\n    }\n\n    function getTotalStake() external override returns (uint) {\n\n        uint totalStake;\n\n        for (uint i = 0; i < poolNames.length; i++){\n            IWeb3BetsPoolsV1 betsPool = IWeb3BetsPoolsV1(pools[poolNames[i]]);\n            totalStake += betsPool.getTotalStake();\n        }\n\n        return totalStake;\n    }\n\n    function isWinningPoolSet() override external view returns(bool){\n        return hasSetWinningPool;\n    }\n\n\n    function getPoolNames() external view returns(string[] memory){\n        return poolNames;\n    }\n\n       function getPoolAddresses() external view returns(address[] memory){\n        return poolAddresses;\n    }\n\n    function getPoolAddressFromName(string memory _name) external view returns(address){\n        return pools[_name];\n    }\n \n    // function _toLower(string memory str) internal returns (string memory) {\n    //     bytes memory bStr = bytes(str);\n    //     bytes memory bLower = new bytes(bStr.length);\n    //     for (uint256 i = 0; i < bStr.length; i++) {\n    //         // Uppercase character...\n    //         if ((bStr[i] >= 0x65) && (bStr[i] <= 0x90)) {\n    //             // So we add 32 to make it lowercase\n    //             bLower[i] = bytes1(int256(bStr[i]) + 32);\n    //         } else {\n    //             bLower[i] = bStr[i];\n    //         }\n    //     }\n    //     return string(bLower);\n    // }\n}\n",
  "sourcePath": "/Users/wizardom/projects/crypto/web3bets_smartcontract/contracts/Markets.sol",
  "compiler": {
    "name": "solc",
    "version": "0.8.13+commit.abaa5c0e.Emscripten.clang"
  },
  "schemaVersion": "3.4.7",
  "updatedAt": "2022-07-25T11:22:14.931Z",
  "networkType": "ethereum",
  "devdoc": {
    "kind": "dev",
    "methods": {},
    "version": 1
  },
  "userdoc": {
    "kind": "user",
    "methods": {},
    "version": 1
  }
}