{
  "contractName": "Market",
  "abi": [
    {
      "inputs": [
        {
          "internalType": "string",
          "name": "_name",
          "type": "string"
        },
        {
          "internalType": "address",
          "name": "_eventAddress",
          "type": "address"
        },
        {
          "internalType": "address",
          "name": "_poolFactoryAddress",
          "type": "address"
        },
        {
          "internalType": "address",
          "name": "_web3betsAddress",
          "type": "address"
        },
        {
          "internalType": "uint256",
          "name": "_minimumStake",
          "type": "uint256"
        }
      ],
      "stateMutability": "nonpayable",
      "type": "constructor"
    },
    {
      "stateMutability": "payable",
      "type": "fallback",
      "payable": true
    },
    {
      "inputs": [],
      "name": "eventAddress",
      "outputs": [
        {
          "internalType": "address",
          "name": "",
          "type": "address"
        }
      ],
      "stateMutability": "view",
      "type": "function",
      "constant": true
    },
    {
      "inputs": [],
      "name": "hasSetWinningPool",
      "outputs": [
        {
          "internalType": "bool",
          "name": "",
          "type": "bool"
        }
      ],
      "stateMutability": "view",
      "type": "function",
      "constant": true
    },
    {
      "inputs": [],
      "name": "minimumStake",
      "outputs": [
        {
          "internalType": "uint256",
          "name": "",
          "type": "uint256"
        }
      ],
      "stateMutability": "view",
      "type": "function",
      "constant": true
    },
    {
      "inputs": [],
      "name": "name",
      "outputs": [
        {
          "internalType": "string",
          "name": "",
          "type": "string"
        }
      ],
      "stateMutability": "view",
      "type": "function",
      "constant": true
    },
    {
      "inputs": [],
      "name": "owner",
      "outputs": [
        {
          "internalType": "address",
          "name": "",
          "type": "address"
        }
      ],
      "stateMutability": "view",
      "type": "function",
      "constant": true
    },
    {
      "inputs": [
        {
          "internalType": "uint256",
          "name": "",
          "type": "uint256"
        }
      ],
      "name": "poolAddresses",
      "outputs": [
        {
          "internalType": "address",
          "name": "",
          "type": "address"
        }
      ],
      "stateMutability": "view",
      "type": "function",
      "constant": true
    },
    {
      "inputs": [],
      "name": "poolFactoryAddress",
      "outputs": [
        {
          "internalType": "address",
          "name": "",
          "type": "address"
        }
      ],
      "stateMutability": "view",
      "type": "function",
      "constant": true
    },
    {
      "inputs": [
        {
          "internalType": "uint256",
          "name": "",
          "type": "uint256"
        }
      ],
      "name": "poolNames",
      "outputs": [
        {
          "internalType": "string",
          "name": "",
          "type": "string"
        }
      ],
      "stateMutability": "view",
      "type": "function",
      "constant": true
    },
    {
      "inputs": [
        {
          "internalType": "string",
          "name": "",
          "type": "string"
        }
      ],
      "name": "pools",
      "outputs": [
        {
          "internalType": "address",
          "name": "",
          "type": "address"
        }
      ],
      "stateMutability": "view",
      "type": "function",
      "constant": true
    },
    {
      "inputs": [],
      "name": "web3BetsAddress",
      "outputs": [
        {
          "internalType": "address",
          "name": "",
          "type": "address"
        }
      ],
      "stateMutability": "view",
      "type": "function",
      "constant": true
    },
    {
      "inputs": [
        {
          "internalType": "address",
          "name": "",
          "type": "address"
        }
      ],
      "name": "winningPoolAddresses",
      "outputs": [
        {
          "internalType": "uint256",
          "name": "",
          "type": "uint256"
        }
      ],
      "stateMutability": "view",
      "type": "function",
      "constant": true
    },
    {
      "stateMutability": "payable",
      "type": "receive",
      "payable": true
    },
    {
      "inputs": [
        {
          "internalType": "string",
          "name": "_name",
          "type": "string"
        }
      ],
      "name": "createMarketPool",
      "outputs": [],
      "stateMutability": "nonpayable",
      "type": "function"
    },
    {
      "inputs": [
        {
          "internalType": "address",
          "name": "_poolAddress",
          "type": "address"
        }
      ],
      "name": "setWinningPool",
      "outputs": [],
      "stateMutability": "nonpayable",
      "type": "function"
    },
    {
      "inputs": [],
      "name": "getEventName",
      "outputs": [
        {
          "internalType": "string",
          "name": "",
          "type": "string"
        }
      ],
      "stateMutability": "nonpayable",
      "type": "function"
    },
    {
      "inputs": [],
      "name": "getEventAddress",
      "outputs": [
        {
          "internalType": "address",
          "name": "",
          "type": "address"
        }
      ],
      "stateMutability": "view",
      "type": "function",
      "constant": true
    },
    {
      "inputs": [],
      "name": "getName",
      "outputs": [
        {
          "internalType": "string",
          "name": "",
          "type": "string"
        }
      ],
      "stateMutability": "view",
      "type": "function",
      "constant": true
    },
    {
      "inputs": [],
      "name": "getTotalStake",
      "outputs": [
        {
          "internalType": "uint256",
          "name": "",
          "type": "uint256"
        }
      ],
      "stateMutability": "nonpayable",
      "type": "function"
    },
    {
      "inputs": [],
      "name": "isWinningPoolSet",
      "outputs": [
        {
          "internalType": "bool",
          "name": "",
          "type": "bool"
        }
      ],
      "stateMutability": "view",
      "type": "function",
      "constant": true
    },
    {
      "inputs": [],
      "name": "getPoolNames",
      "outputs": [
        {
          "internalType": "string[]",
          "name": "",
          "type": "string[]"
        }
      ],
      "stateMutability": "view",
      "type": "function",
      "constant": true
    },
    {
      "inputs": [],
      "name": "getPoolAddresses",
      "outputs": [
        {
          "internalType": "address[]",
          "name": "",
          "type": "address[]"
        }
      ],
      "stateMutability": "view",
      "type": "function",
      "constant": true
    },
    {
      "inputs": [
        {
          "internalType": "string",
          "name": "_name",
          "type": "string"
        }
      ],
      "name": "getPoolAddressFromName",
      "outputs": [
        {
          "internalType": "address",
          "name": "",
          "type": "address"
        }
      ],
      "stateMutability": "view",
      "type": "function",
      "constant": true
    },
    {
      "inputs": [],
      "name": "getBalance",
      "outputs": [
        {
          "internalType": "uint256",
          "name": "",
          "type": "uint256"
        }
      ],
      "stateMutability": "view",
      "type": "function",
      "constant": true
    }
  ],
  "bytecode": "0x60806040523480156200001157600080fd5b506040516200297938038062002979833981810160405281019062000037919062000452565b326000806101000a81548173ffffffffffffffffffffffffffffffffffffffff021916908373ffffffffffffffffffffffffffffffffffffffff16021790555084600190805190602001906200008f92919062000165565b5083600260006101000a81548173ffffffffffffffffffffffffffffffffffffffff021916908373ffffffffffffffffffffffffffffffffffffffff16021790555082600360006101000a81548173ffffffffffffffffffffffffffffffffffffffff021916908373ffffffffffffffffffffffffffffffffffffffff16021790555081600460006101000a81548173ffffffffffffffffffffffffffffffffffffffff021916908373ffffffffffffffffffffffffffffffffffffffff1602179055508060058190555050505050506200055d565b828054620001739062000528565b90600052602060002090601f016020900481019282620001975760008555620001e3565b82601f10620001b257805160ff1916838001178555620001e3565b82800160010185558215620001e3579182015b82811115620001e2578251825591602001919060010190620001c5565b5b509050620001f29190620001f6565b5090565b5b8082111562000211576000816000905550600101620001f7565b5090565b6000604051905090565b600080fd5b600080fd5b600080fd5b600080fd5b6000601f19601f8301169050919050565b7f4e487b7100000000000000000000000000000000000000000000000000000000600052604160045260246000fd5b6200027e8262000233565b810181811067ffffffffffffffff82111715620002a0576200029f62000244565b5b80604052505050565b6000620002b562000215565b9050620002c3828262000273565b919050565b600067ffffffffffffffff821115620002e657620002e562000244565b5b620002f18262000233565b9050602081019050919050565b60005b838110156200031e57808201518184015260208101905062000301565b838111156200032e576000848401525b50505050565b60006200034b6200034584620002c8565b620002a9565b9050828152602081018484840111156200036a57620003696200022e565b5b62000377848285620002fe565b509392505050565b600082601f83011262000397576200039662000229565b5b8151620003a984826020860162000334565b91505092915050565b600073ffffffffffffffffffffffffffffffffffffffff82169050919050565b6000620003df82620003b2565b9050919050565b620003f181620003d2565b8114620003fd57600080fd5b50565b6000815190506200041181620003e6565b92915050565b6000819050919050565b6200042c8162000417565b81146200043857600080fd5b50565b6000815190506200044c8162000421565b92915050565b600080600080600060a086880312156200047157620004706200021f565b5b600086015167ffffffffffffffff81111562000492576200049162000224565b5b620004a0888289016200037f565b9550506020620004b38882890162000400565b9450506040620004c68882890162000400565b9350506060620004d98882890162000400565b9250506080620004ec888289016200043b565b9150509295509295909350565b7f4e487b7100000000000000000000000000000000000000000000000000000000600052602260045260246000fd5b600060028204905060018216806200054157607f821691505b602082108103620005575762000556620004f9565b5b50919050565b61240c806200056d6000396000f3fe6080604052600436106101395760003560e01c80639d6f17a8116100ab578063d5e298bb1161006f578063d5e298bb14610436578063e4b6db4c14610461578063ec5ffac21461048c578063f92c1620146104b7578063fad56779146104e2578063feb21b9c1461050d57610140565b80639d6f17a81461033b578063a32cf53614610378578063aa362b32146103a3578063b81e43fc146103e0578063d427ccbf1461040b57610140565b80634599c5ab116100fd5780634599c5ab146102175780635d155b0c14610254578063733b05e21461027f5780637bc74225146102bc5780637dbaf26b146102e75780638da5cb5b1461031057610140565b806306fdde031461014257806309dd8f871461016d57806312065fe01461019857806317d7de7c146101c3578063352ae596146101ee57610140565b3661014057005b005b34801561014e57600080fd5b5061015761054a565b604051610164919061175e565b60405180910390f35b34801561017957600080fd5b506101826105d8565b60405161018f919061179b565b60405180910390f35b3480156101a457600080fd5b506101ad6105ef565b6040516101ba91906117cf565b60405180910390f35b3480156101cf57600080fd5b506101d86105f7565b6040516101e5919061175e565b60405180910390f35b3480156101fa57600080fd5b506102156004803603810190610210919061185c565b610689565b005b34801561022357600080fd5b5061023e600480360381019061023991906119be565b610d0e565b60405161024b9190611a16565b60405180910390f35b34801561026057600080fd5b50610269610d56565b6040516102769190611a16565b60405180910390f35b34801561028b57600080fd5b506102a660048036038101906102a19190611a5d565b610d7c565b6040516102b3919061175e565b60405180910390f35b3480156102c857600080fd5b506102d1610e28565b6040516102de91906117cf565b60405180910390f35b3480156102f357600080fd5b5061030e600480360381019061030991906119be565b610f35565b005b34801561031c57600080fd5b506103256112c3565b6040516103329190611a16565b60405180910390f35b34801561034757600080fd5b50610362600480360381019061035d91906119be565b6112e7565b60405161036f9190611a16565b60405180910390f35b34801561038457600080fd5b5061038d611330565b60405161039a9190611a16565b60405180910390f35b3480156103af57600080fd5b506103ca60048036038101906103c5919061185c565b611356565b6040516103d791906117cf565b60405180910390f35b3480156103ec57600080fd5b506103f561136e565b604051610402919061175e565b60405180910390f35b34801561041757600080fd5b50610420611413565b60405161042d9190611a16565b60405180910390f35b34801561044257600080fd5b5061044b61143d565b6040516104589190611b96565b60405180910390f35b34801561046d57600080fd5b50610476611516565b6040516104839190611c76565b60405180910390f35b34801561049857600080fd5b506104a16115a4565b6040516104ae91906117cf565b60405180910390f35b3480156104c357600080fd5b506104cc6115aa565b6040516104d9919061179b565b60405180910390f35b3480156104ee57600080fd5b506104f76115bd565b6040516105049190611a16565b60405180910390f35b34801561051957600080fd5b50610534600480360381019061052f9190611a5d565b6115e3565b6040516105419190611a16565b60405180910390f35b6001805461055790611cc7565b80601f016020809104026020016040519081016040528092919081815260200182805461058390611cc7565b80156105d05780601f106105a5576101008083540402835291602001916105d0565b820191906000526020600020905b8154815290600101906020018083116105b357829003601f168201915b505050505081565b6000600960009054906101000a900460ff16905090565b600047905090565b60606001805461060690611cc7565b80601f016020809104026020016040519081016040528092919081815260200182805461063290611cc7565b801561067f5780601f106106545761010080835404028352916020019161067f565b820191906000526020600020905b81548152906001019060200180831161066257829003601f168201915b5050505050905090565b6000600260009054906101000a900473ffffffffffffffffffffffffffffffffffffffff1690508073ffffffffffffffffffffffffffffffffffffffff1663179f907d6040518163ffffffff1660e01b81526004016020604051808303816000875af11580156106fd573d6000803e3d6000fd5b505050506040513d601f19601f820116820180604052508101906107219190611d0d565b73ffffffffffffffffffffffffffffffffffffffff163373ffffffffffffffffffffffffffffffffffffffff161461078e576040517f08c379a000000000000000000000000000000000000000000000000000000000815260040161078590611dac565b60405180910390fd5b816000806007805490509050600081116107dd576040517f08c379a00000000000000000000000000000000000000000000000000000000081526004016107d490611e3e565b60405180910390fd5b60005b81811015610892578373ffffffffffffffffffffffffffffffffffffffff1660066007838154811061081557610814611e5e565b5b9060005260206000200160405161082c9190611f2c565b908152602001604051809103902060009054906101000a900473ffffffffffffffffffffffffffffffffffffffff1673ffffffffffffffffffffffffffffffffffffffff160361087f5760019250610892565b808061088a90611f72565b9150506107e0565b50816108d3576040517f08c379a00000000000000000000000000000000000000000000000000000000081526004016108ca90612006565b60405180910390fd5b6000600460009054906101000a900473ffffffffffffffffffffffffffffffffffffffff16905060008173ffffffffffffffffffffffffffffffffffffffff16632004b3e56040518163ffffffff1660e01b81526004016020604051808303816000875af1158015610949573d6000803e3d6000fd5b505050506040513d601f19601f8201168201806040525081019061096d919061203b565b9050600060648261097e9190612097565b4761098991906120c8565b90508273ffffffffffffffffffffffffffffffffffffffff16634d161324826040518263ffffffff1660e01b81526004016000604051808303818588803b1580156109d357600080fd5b505af11580156109e7573d6000803e3d6000fd5b50505050506000600880549050905060005b81811015610d02578973ffffffffffffffffffffffffffffffffffffffff1660088281548110610a2c57610a2b611e5e565b5b9060005260206000200160009054906101000a900473ffffffffffffffffffffffffffffffffffffffff1673ffffffffffffffffffffffffffffffffffffffff1603610cef57600060088281548110610a8857610a87611e5e565b5b9060005260206000200160009054906101000a900473ffffffffffffffffffffffffffffffffffffffff16905060008173ffffffffffffffffffffffffffffffffffffffff1663a6afd5fd6040518163ffffffff1660e01b81526004016000604051808303816000875af1158015610b04573d6000803e3d6000fd5b505050506040513d6000823e3d601f19601f82011682018060405250810190610b2d91906121ea565b905060005b8151811015610ce75760008373ffffffffffffffffffffffffffffffffffffffff1663bbadc93a848481518110610b6c57610b6b611e5e565b5b60200260200101516040518263ffffffff1660e01b8152600401610b909190611a16565b6020604051808303816000875af1158015610baf573d6000803e3d6000fd5b505050506040513d601f19601f82011682018060405250810190610bd3919061203b565b9050828581518110610be857610be7611e5e565b5b602002602001015173ffffffffffffffffffffffffffffffffffffffff166108fc476064808873ffffffffffffffffffffffffffffffffffffffff16637bc742256040518163ffffffff1660e01b81526004016020604051808303816000875af1158015610c5a573d6000803e3d6000fd5b505050506040513d601f19601f82011682018060405250810190610c7e919061203b565b86610c899190612097565b610c9391906120c8565b610c9d9190612097565b610ca791906120c8565b9081150290604051600060405180830381858888f19350505050158015610cd2573d6000803e3d6000fd5b50508080610cdf90611f72565b915050610b32565b505050610d02565b8080610cfa90611f72565b9150506109f9565b50505050505050505050565b6000600682604051610d209190612264565b908152602001604051809103902060009054906101000a900473ffffffffffffffffffffffffffffffffffffffff169050919050565b600460009054906101000a900473ffffffffffffffffffffffffffffffffffffffff1681565b60078181548110610d8c57600080fd5b906000526020600020016000915090508054610da790611cc7565b80601f0160208091040260200160405190810160405280929190818152602001828054610dd390611cc7565b8015610e205780601f10610df557610100808354040283529160200191610e20565b820191906000526020600020905b815481529060010190602001808311610e0357829003601f168201915b505050505081565b60008060005b600780549050811015610f2d576000600660078381548110610e5357610e52611e5e565b5b90600052602060002001604051610e6a9190611f2c565b908152602001604051809103902060009054906101000a900473ffffffffffffffffffffffffffffffffffffffff1690508073ffffffffffffffffffffffffffffffffffffffff16637bc742256040518163ffffffff1660e01b81526004016020604051808303816000875af1158015610ee8573d6000803e3d6000fd5b505050506040513d601f19601f82011682018060405250810190610f0c919061203b565b83610f17919061227b565b9250508080610f2590611f72565b915050610e2e565b508091505090565b6000600260009054906101000a900473ffffffffffffffffffffffffffffffffffffffff1690508073ffffffffffffffffffffffffffffffffffffffff1663179f907d6040518163ffffffff1660e01b81526004016020604051808303816000875af1158015610fa9573d6000803e3d6000fd5b505050506040513d601f19601f82011682018060405250810190610fcd9190611d0d565b73ffffffffffffffffffffffffffffffffffffffff163373ffffffffffffffffffffffffffffffffffffffff161461103a576040517f08c379a000000000000000000000000000000000000000000000000000000000815260040161103190611dac565b60405180910390fd5b816000600190506000600780549050905060005b818110156110e2576007818154811061106a57611069611e5e565b5b906000526020600020016040516020016110849190611f2c565b60405160208183030381529060405280519060200120846040516020016110ab9190612264565b60405160208183030381529060405280519060200120036110cf57600092506110e2565b80806110da90611f72565b91505061104e565b50816110ed57600080fd5b6000600360009054906101000a900473ffffffffffffffffffffffffffffffffffffffff16905060008173ffffffffffffffffffffffffffffffffffffffff16632b2b027388600260009054906101000a900473ffffffffffffffffffffffffffffffffffffffff16306005546040518563ffffffff1660e01b815260040161117994939291906122d1565b6020604051808303816000875af1158015611198573d6000803e3d6000fd5b505050506040513d601f19601f820116820180604052508101906111bc9190611d0d565b9050806006886040516111cf9190612264565b908152602001604051809103902060006101000a81548173ffffffffffffffffffffffffffffffffffffffff021916908373ffffffffffffffffffffffffffffffffffffffff160217905550600787908060018154018082558091505060019003906000526020600020016000909190919091509080519060200190611256929190611622565b506008819080600181540180825580915050600190039060005260206000200160009091909190916101000a81548173ffffffffffffffffffffffffffffffffffffffff021916908373ffffffffffffffffffffffffffffffffffffffff16021790555050505050505050565b60008054906101000a900473ffffffffffffffffffffffffffffffffffffffff1681565b6006818051602081018201805184825260208301602085012081835280955050505050506000915054906101000a900473ffffffffffffffffffffffffffffffffffffffff1681565b600360009054906101000a900473ffffffffffffffffffffffffffffffffffffffff1681565b600a6020528060005260406000206000915090505481565b60606000600260009054906101000a900473ffffffffffffffffffffffffffffffffffffffff1690508073ffffffffffffffffffffffffffffffffffffffff166317d7de7c6040518163ffffffff1660e01b81526004016000604051808303816000875af11580156113e4573d6000803e3d6000fd5b505050506040513d6000823e3d601f19601f8201168201806040525081019061140d919061238d565b91505090565b6000600260009054906101000a900473ffffffffffffffffffffffffffffffffffffffff16905090565b60606007805480602002602001604051908101604052809291908181526020016000905b8282101561150d57838290600052602060002001805461148090611cc7565b80601f01602080910402602001604051908101604052809291908181526020018280546114ac90611cc7565b80156114f95780601f106114ce576101008083540402835291602001916114f9565b820191906000526020600020905b8154815290600101906020018083116114dc57829003601f168201915b505050505081526020019060010190611461565b50505050905090565b6060600880548060200260200160405190810160405280929190818152602001828054801561159a57602002820191906000526020600020905b8160009054906101000a900473ffffffffffffffffffffffffffffffffffffffff1673ffffffffffffffffffffffffffffffffffffffff1681526020019060010190808311611550575b5050505050905090565b60055481565b600960009054906101000a900460ff1681565b600260009054906101000a900473ffffffffffffffffffffffffffffffffffffffff1681565b600881815481106115f357600080fd5b906000526020600020016000915054906101000a900473ffffffffffffffffffffffffffffffffffffffff1681565b82805461162e90611cc7565b90600052602060002090601f0160209004810192826116505760008555611697565b82601f1061166957805160ff1916838001178555611697565b82800160010185558215611697579182015b8281111561169657825182559160200191906001019061167b565b5b5090506116a491906116a8565b5090565b5b808211156116c15760008160009055506001016116a9565b5090565b600081519050919050565b600082825260208201905092915050565b60005b838110156116ff5780820151818401526020810190506116e4565b8381111561170e576000848401525b50505050565b6000601f19601f8301169050919050565b6000611730826116c5565b61173a81856116d0565b935061174a8185602086016116e1565b61175381611714565b840191505092915050565b600060208201905081810360008301526117788184611725565b905092915050565b60008115159050919050565b61179581611780565b82525050565b60006020820190506117b0600083018461178c565b92915050565b6000819050919050565b6117c9816117b6565b82525050565b60006020820190506117e460008301846117c0565b92915050565b6000604051905090565b600080fd5b600080fd5b600073ffffffffffffffffffffffffffffffffffffffff82169050919050565b6000611829826117fe565b9050919050565b6118398161181e565b811461184457600080fd5b50565b60008135905061185681611830565b92915050565b600060208284031215611872576118716117f4565b5b600061188084828501611847565b91505092915050565b600080fd5b600080fd5b7f4e487b7100000000000000000000000000000000000000000000000000000000600052604160045260246000fd5b6118cb82611714565b810181811067ffffffffffffffff821117156118ea576118e9611893565b5b80604052505050565b60006118fd6117ea565b905061190982826118c2565b919050565b600067ffffffffffffffff82111561192957611928611893565b5b61193282611714565b9050602081019050919050565b82818337600083830152505050565b600061196161195c8461190e565b6118f3565b90508281526020810184848401111561197d5761197c61188e565b5b61198884828561193f565b509392505050565b600082601f8301126119a5576119a4611889565b5b81356119b584826020860161194e565b91505092915050565b6000602082840312156119d4576119d36117f4565b5b600082013567ffffffffffffffff8111156119f2576119f16117f9565b5b6119fe84828501611990565b91505092915050565b611a108161181e565b82525050565b6000602082019050611a2b6000830184611a07565b92915050565b611a3a816117b6565b8114611a4557600080fd5b50565b600081359050611a5781611a31565b92915050565b600060208284031215611a7357611a726117f4565b5b6000611a8184828501611a48565b91505092915050565b600081519050919050565b600082825260208201905092915050565b6000819050602082019050919050565b600082825260208201905092915050565b6000611ad2826116c5565b611adc8185611ab6565b9350611aec8185602086016116e1565b611af581611714565b840191505092915050565b6000611b0c8383611ac7565b905092915050565b6000602082019050919050565b6000611b2c82611a8a565b611b368185611a95565b935083602082028501611b4885611aa6565b8060005b85811015611b845784840389528151611b658582611b00565b9450611b7083611b14565b925060208a01995050600181019050611b4c565b50829750879550505050505092915050565b60006020820190508181036000830152611bb08184611b21565b905092915050565b600081519050919050565b600082825260208201905092915050565b6000819050602082019050919050565b611bed8161181e565b82525050565b6000611bff8383611be4565b60208301905092915050565b6000602082019050919050565b6000611c2382611bb8565b611c2d8185611bc3565b9350611c3883611bd4565b8060005b83811015611c69578151611c508882611bf3565b9750611c5b83611c0b565b925050600181019050611c3c565b5085935050505092915050565b60006020820190508181036000830152611c908184611c18565b905092915050565b7f4e487b7100000000000000000000000000000000000000000000000000000000600052602260045260246000fd5b60006002820490506001821680611cdf57607f821691505b602082108103611cf257611cf1611c98565b5b50919050565b600081519050611d0781611830565b92915050565b600060208284031215611d2357611d226117f4565b5b6000611d3184828501611cf8565b91505092915050565b7f4f6e6c79206576656e74206f776e657273207365742077696e6e696e6720706f60008201527f6f6c000000000000000000000000000000000000000000000000000000000000602082015250565b6000611d966022836116d0565b9150611da182611d3a565b604082019050919050565b60006020820190508181036000830152611dc581611d89565b9050919050565b7f43616e6e6f74207365742077696e6e696e6720706f6f6c206f6e206d61726b6560008201527f742077697468206e6f20706f6f6c000000000000000000000000000000000000602082015250565b6000611e28602e836116d0565b9150611e3382611dcc565b604082019050919050565b60006020820190508181036000830152611e5781611e1b565b9050919050565b7f4e487b7100000000000000000000000000000000000000000000000000000000600052603260045260246000fd5b600081905092915050565b60008190508160005260206000209050919050565b60008154611eba81611cc7565b611ec48186611e8d565b94506001821660008114611edf5760018114611ef057611f23565b60ff19831686528186019350611f23565b611ef985611e98565b60005b83811015611f1b57815481890152600182019150602081019050611efc565b838801955050505b50505092915050565b6000611f388284611ead565b915081905092915050565b7f4e487b7100000000000000000000000000000000000000000000000000000000600052601160045260246000fd5b6000611f7d826117b6565b91507fffffffffffffffffffffffffffffffffffffffffffffffffffffffffffffffff8203611faf57611fae611f43565b5b600182019050919050565b7f496e76616c696420706f6f6c2061646472657373000000000000000000000000600082015250565b6000611ff06014836116d0565b9150611ffb82611fba565b602082019050919050565b6000602082019050818103600083015261201f81611fe3565b9050919050565b60008151905061203581611a31565b92915050565b600060208284031215612051576120506117f4565b5b600061205f84828501612026565b91505092915050565b7f4e487b7100000000000000000000000000000000000000000000000000000000600052601260045260246000fd5b60006120a2826117b6565b91506120ad836117b6565b9250826120bd576120bc612068565b5b828204905092915050565b60006120d3826117b6565b91506120de836117b6565b9250817fffffffffffffffffffffffffffffffffffffffffffffffffffffffffffffffff048311821515161561211757612116611f43565b5b828202905092915050565b600067ffffffffffffffff82111561213d5761213c611893565b5b602082029050602081019050919050565b600080fd5b600061216661216184612122565b6118f3565b905080838252602082019050602084028301858111156121895761218861214e565b5b835b818110156121b2578061219e8882611cf8565b84526020840193505060208101905061218b565b5050509392505050565b600082601f8301126121d1576121d0611889565b5b81516121e1848260208601612153565b91505092915050565b600060208284031215612200576121ff6117f4565b5b600082015167ffffffffffffffff81111561221e5761221d6117f9565b5b61222a848285016121bc565b91505092915050565b600061223e826116c5565b6122488185611e8d565b93506122588185602086016116e1565b80840191505092915050565b60006122708284612233565b915081905092915050565b6000612286826117b6565b9150612291836117b6565b9250827fffffffffffffffffffffffffffffffffffffffffffffffffffffffffffffffff038211156122c6576122c5611f43565b5b828201905092915050565b600060808201905081810360008301526122eb8187611725565b90506122fa6020830186611a07565b6123076040830185611a07565b61231460608301846117c0565b95945050505050565b600061233061232b8461190e565b6118f3565b90508281526020810184848401111561234c5761234b61188e565b5b6123578482856116e1565b509392505050565b600082601f83011261237457612373611889565b5b815161238484826020860161231d565b91505092915050565b6000602082840312156123a3576123a26117f4565b5b600082015167ffffffffffffffff8111156123c1576123c06117f9565b5b6123cd8482850161235f565b9150509291505056fea26469706673582212208602eefc63f05f573fe6b74855987df49907459cbdec76418779d42603015eff64736f6c634300080d0033",
  "immutableReferences": {},
  "source": "// SPDX-License-Identifier: MIT\n\npragma solidity ^0.8.4;\n\nimport \"./interface/IWeb3BetsMarketV1.sol\";\nimport \"./interface/IWeb3BetsEventsV1.sol\";\nimport \"./interface/IWeb3BetsPoolsV1.sol\";\nimport \"./interface/IWeb3Bets.sol\";\nimport \"./PoolsFactory.sol\";\n\ncontract Market is IWeb3BetsMarketV1 {\n    address public owner;\n    string public name;\n    address public eventAddress;\n    address public poolFactoryAddress;\n    address public web3BetsAddress;\n    uint256 public minimumStake;\n    mapping(string => address) public pools;\n    string[] public poolNames;\n    address[] public poolAddresses;\n    bool public hasSetWinningPool;\n    mapping(address => uint256) public winningPoolAddresses;\n\n    modifier onlyEventOwner() {\n        IWeb3BetsEventV1 poolEvent = IWeb3BetsEventV1(eventAddress);\n        require(\n            msg.sender == poolEvent.getEventOwner(),\n            \"Only event owners set winning pool\"\n        );\n        _;\n    }\n\n    modifier uniqueName(string memory value) {\n        bool isNotEqual = true;\n        uint256 poolNamesLength = poolNames.length;\n        for (uint256 i = 0; i < poolNamesLength; i++) {\n            if (\n                keccak256(abi.encodePacked(value)) ==\n                keccak256(abi.encodePacked(poolNames[i]))\n            ) {\n                isNotEqual = false;\n                break;\n            }\n        }\n        require(isNotEqual);\n\n        _;\n    }\n\n    //  verify if winning pool is valid in current market\n    modifier validWinningPool(address _poolAddress) {\n        bool found = false;\n        uint256 poolLength = poolNames.length;\n        require(\n            poolLength > 0,\n            \"Cannot set winning pool on market with no pool\"\n        );\n        for (uint256 i = 0; i < poolLength; i++) {\n            if (pools[poolNames[i]] == _poolAddress) {\n                found = true;\n                break;\n            }\n        }\n        require(found, \"Invalid pool address\");\n\n        _;\n    }\n\n    constructor(\n        string memory _name,\n        address _eventAddress,\n        address _poolFactoryAddress,\n        address _web3betsAddress,\n        uint256 _minimumStake\n    ) {\n        owner = tx.origin;\n        name = _name;\n        eventAddress = _eventAddress;\n        poolFactoryAddress = _poolFactoryAddress;\n        web3BetsAddress = _web3betsAddress;\n        minimumStake = _minimumStake;\n    }\n\n    function createMarketPool(string memory _name)\n        external\n        override\n        onlyEventOwner\n        uniqueName(_name)\n    {\n        PoolsFactory poolsFactory = PoolsFactory(poolFactoryAddress);\n        address poolAddress = poolsFactory.createPool(\n            _name,\n            eventAddress,\n            address(this),\n            minimumStake\n        );\n        pools[_name] = poolAddress;\n        poolNames.push(_name);\n        poolAddresses.push(poolAddress);\n    }\n\n    function setWinningPool(address _poolAddress)\n        external\n        override\n        onlyEventOwner\n        validWinningPool(_poolAddress){\n        // Initialize the Web3Bets address\n        IWeb3Bets web3Bets = IWeb3Bets(web3BetsAddress);\n        uint256 vigPercentage = web3Bets.getVigPercentage();\n\n        // Get total stake and transfer to market\n        // TODO: discuss with client: formulate pragmatic algorithm for bet winnings\n\n        uint256 vigShare = address(this).balance * (vigPercentage / 100);\n\n        // send money to vig holders\n        web3Bets.shareBetEarnings{value: vigShare}();\n        uint256 poolLength = poolAddresses.length;\n        for (uint256 i = 0; i < poolLength; i++) {\n            if (poolAddresses[i] == _poolAddress) {\n                IWeb3BetsPoolsV1 pool = IWeb3BetsPoolsV1(poolAddresses[i]);\n                address[] memory winners = pool.getBets();\n                for (uint256 j = 0; j < winners.length; j++) {\n                    uint256 userStake = pool.getUserStake(winners[j]);\n                    payable(winners[i]).transfer(\n                        (((userStake / pool.getTotalStake()) * 100) / 100) *\n                            address(this).balance\n                    );\n                }\n                break;\n            }\n        }\n    }\n\n    function getEventName() external override returns (string memory) {\n        IWeb3BetsEventV1 marketEvent = IWeb3BetsEventV1(eventAddress);\n        return marketEvent.getName();\n    }\n\n    function getEventAddress() external view override returns (address) {\n        return eventAddress;\n    }\n\n    function getName() external view override returns (string memory) {\n        return name;\n    }\n\n    function getTotalStake() external override returns (uint256) {\n        uint256 totalStake;\n\n        for (uint256 i = 0; i < poolNames.length; i++) {\n            IWeb3BetsPoolsV1 betsPool = IWeb3BetsPoolsV1(pools[poolNames[i]]);\n            totalStake += betsPool.getTotalStake();\n        }\n\n        return totalStake;\n    }\n\n    function isWinningPoolSet() external view override returns (bool) {\n        return hasSetWinningPool;\n    }\n\n    function getPoolNames() external view returns (string[] memory) {\n        return poolNames;\n    }\n\n    function getPoolAddresses() external view returns (address[] memory) {\n        return poolAddresses;\n    }\n\n    function getPoolAddressFromName(string memory _name)\n        external\n        view\n        returns (address)\n    {\n        return pools[_name];\n    }\n\n    function getBalance() external view returns(uint) {\n        return address(this).balance;\n    }\n    \n    // Function to receive Ether. msg.data must be empty\n    receive() external payable {}\n\n    // Fallback function is called when msg.data is not empty\n    fallback() external payable {\n\n    }\n\n    // function _toLower(string memory str) internal returns (string memory) {\n    //     bytes memory bStr = bytes(str);\n    //     bytes memory bLower = new bytes(bStr.length);\n    //     for (uint256 i = 0; i < bStr.length; i++) {\n    //         // Uppercase character...\n    //         if ((bStr[i] >= 0x65) && (bStr[i] <= 0x90)) {\n    //             // So we add 32 to make it lowercase\n    //             bLower[i] = bytes1(int256(bStr[i]) + 32);\n    //         } else {\n    //             bLower[i] = bStr[i];\n    //         }\n    //     }\n    //     return string(bLower);\n    // }\n}\n",
  "sourcePath": "/Users/wizardom/projects/crypto/web3bets_smartcontract/contracts/Markets.sol",
  "compiler": {
    "name": "solc",
    "version": "0.8.13+commit.abaa5c0e.Emscripten.clang"
  },
  "schemaVersion": "3.4.7",
  "updatedAt": "2022-07-28T11:45:38.473Z",
  "networkType": "ethereum",
  "devdoc": {
    "kind": "dev",
    "methods": {},
    "version": 1
  },
  "userdoc": {
    "kind": "user",
    "methods": {},
    "version": 1
  }
}