{
  "contractName": "Market",
  "abi": [
    {
      "inputs": [
        {
          "internalType": "string",
          "name": "_name",
          "type": "string"
        },
        {
          "internalType": "address",
          "name": "_eventAddress",
          "type": "address"
        },
        {
          "internalType": "address",
          "name": "_poolFactoryAddress",
          "type": "address"
        },
        {
          "internalType": "address",
          "name": "_web3betsAddress",
          "type": "address"
        },
        {
          "internalType": "uint256",
          "name": "_minimumStake",
          "type": "uint256"
        }
      ],
      "stateMutability": "nonpayable",
      "type": "constructor"
    },
    {
      "stateMutability": "payable",
      "type": "fallback",
      "payable": true
    },
    {
      "inputs": [],
      "name": "eventAddress",
      "outputs": [
        {
          "internalType": "address",
          "name": "",
          "type": "address"
        }
      ],
      "stateMutability": "view",
      "type": "function",
      "constant": true
    },
    {
      "inputs": [],
      "name": "hasSetWinningPool",
      "outputs": [
        {
          "internalType": "bool",
          "name": "",
          "type": "bool"
        }
      ],
      "stateMutability": "view",
      "type": "function",
      "constant": true
    },
    {
      "inputs": [],
      "name": "minimumStake",
      "outputs": [
        {
          "internalType": "uint256",
          "name": "",
          "type": "uint256"
        }
      ],
      "stateMutability": "view",
      "type": "function",
      "constant": true
    },
    {
      "inputs": [],
      "name": "name",
      "outputs": [
        {
          "internalType": "string",
          "name": "",
          "type": "string"
        }
      ],
      "stateMutability": "view",
      "type": "function",
      "constant": true
    },
    {
      "inputs": [],
      "name": "owner",
      "outputs": [
        {
          "internalType": "address",
          "name": "",
          "type": "address"
        }
      ],
      "stateMutability": "view",
      "type": "function",
      "constant": true
    },
    {
      "inputs": [
        {
          "internalType": "uint256",
          "name": "",
          "type": "uint256"
        }
      ],
      "name": "poolAddresses",
      "outputs": [
        {
          "internalType": "address",
          "name": "",
          "type": "address"
        }
      ],
      "stateMutability": "view",
      "type": "function",
      "constant": true
    },
    {
      "inputs": [],
      "name": "poolFactoryAddress",
      "outputs": [
        {
          "internalType": "address",
          "name": "",
          "type": "address"
        }
      ],
      "stateMutability": "view",
      "type": "function",
      "constant": true
    },
    {
      "inputs": [
        {
          "internalType": "uint256",
          "name": "",
          "type": "uint256"
        }
      ],
      "name": "poolNames",
      "outputs": [
        {
          "internalType": "string",
          "name": "",
          "type": "string"
        }
      ],
      "stateMutability": "view",
      "type": "function",
      "constant": true
    },
    {
      "inputs": [
        {
          "internalType": "string",
          "name": "",
          "type": "string"
        }
      ],
      "name": "pools",
      "outputs": [
        {
          "internalType": "address",
          "name": "",
          "type": "address"
        }
      ],
      "stateMutability": "view",
      "type": "function",
      "constant": true
    },
    {
      "inputs": [],
      "name": "web3BetsAddress",
      "outputs": [
        {
          "internalType": "address",
          "name": "",
          "type": "address"
        }
      ],
      "stateMutability": "view",
      "type": "function",
      "constant": true
    },
    {
      "inputs": [],
      "name": "winningPoolAddress",
      "outputs": [
        {
          "internalType": "address",
          "name": "",
          "type": "address"
        }
      ],
      "stateMutability": "view",
      "type": "function",
      "constant": true
    },
    {
      "inputs": [
        {
          "internalType": "address",
          "name": "",
          "type": "address"
        }
      ],
      "name": "winningPoolAddresses",
      "outputs": [
        {
          "internalType": "uint256",
          "name": "",
          "type": "uint256"
        }
      ],
      "stateMutability": "view",
      "type": "function",
      "constant": true
    },
    {
      "stateMutability": "payable",
      "type": "receive",
      "payable": true
    },
    {
      "inputs": [
        {
          "internalType": "string",
          "name": "_name",
          "type": "string"
        }
      ],
      "name": "createMarketPool",
      "outputs": [],
      "stateMutability": "nonpayable",
      "type": "function"
    },
    {
      "inputs": [
        {
          "internalType": "address",
          "name": "_poolAddress",
          "type": "address"
        }
      ],
      "name": "setWinningPool",
      "outputs": [],
      "stateMutability": "nonpayable",
      "type": "function"
    },
    {
      "inputs": [],
      "name": "getEventName",
      "outputs": [
        {
          "internalType": "string",
          "name": "",
          "type": "string"
        }
      ],
      "stateMutability": "nonpayable",
      "type": "function"
    },
    {
      "inputs": [],
      "name": "getEventAddress",
      "outputs": [
        {
          "internalType": "address",
          "name": "",
          "type": "address"
        }
      ],
      "stateMutability": "view",
      "type": "function",
      "constant": true
    },
    {
      "inputs": [],
      "name": "getName",
      "outputs": [
        {
          "internalType": "string",
          "name": "",
          "type": "string"
        }
      ],
      "stateMutability": "view",
      "type": "function",
      "constant": true
    },
    {
      "inputs": [],
      "name": "getTotalStake",
      "outputs": [
        {
          "internalType": "uint256",
          "name": "",
          "type": "uint256"
        }
      ],
      "stateMutability": "nonpayable",
      "type": "function"
    },
    {
      "inputs": [],
      "name": "isWinningPoolSet",
      "outputs": [
        {
          "internalType": "bool",
          "name": "",
          "type": "bool"
        }
      ],
      "stateMutability": "view",
      "type": "function",
      "constant": true
    },
    {
      "inputs": [],
      "name": "getPoolNames",
      "outputs": [
        {
          "internalType": "string[]",
          "name": "",
          "type": "string[]"
        }
      ],
      "stateMutability": "view",
      "type": "function",
      "constant": true
    },
    {
      "inputs": [],
      "name": "getPoolAddresses",
      "outputs": [
        {
          "internalType": "address[]",
          "name": "",
          "type": "address[]"
        }
      ],
      "stateMutability": "view",
      "type": "function",
      "constant": true
    },
    {
      "inputs": [
        {
          "internalType": "string",
          "name": "_name",
          "type": "string"
        }
      ],
      "name": "getPoolAddressFromName",
      "outputs": [
        {
          "internalType": "address",
          "name": "",
          "type": "address"
        }
      ],
      "stateMutability": "view",
      "type": "function",
      "constant": true
    },
    {
      "inputs": [],
      "name": "getBalance",
      "outputs": [
        {
          "internalType": "uint256",
          "name": "",
          "type": "uint256"
        }
      ],
      "stateMutability": "view",
      "type": "function",
      "constant": true
    }
  ],
  "bytecode": "0x60806040523480156200001157600080fd5b5060405162002d4e38038062002d4e833981810160405281019062000037919062000452565b326000806101000a81548173ffffffffffffffffffffffffffffffffffffffff021916908373ffffffffffffffffffffffffffffffffffffffff16021790555084600190805190602001906200008f92919062000165565b5083600260006101000a81548173ffffffffffffffffffffffffffffffffffffffff021916908373ffffffffffffffffffffffffffffffffffffffff16021790555082600360006101000a81548173ffffffffffffffffffffffffffffffffffffffff021916908373ffffffffffffffffffffffffffffffffffffffff16021790555081600460006101000a81548173ffffffffffffffffffffffffffffffffffffffff021916908373ffffffffffffffffffffffffffffffffffffffff1602179055508060058190555050505050506200055d565b828054620001739062000528565b90600052602060002090601f016020900481019282620001975760008555620001e3565b82601f10620001b257805160ff1916838001178555620001e3565b82800160010185558215620001e3579182015b82811115620001e2578251825591602001919060010190620001c5565b5b509050620001f29190620001f6565b5090565b5b8082111562000211576000816000905550600101620001f7565b5090565b6000604051905090565b600080fd5b600080fd5b600080fd5b600080fd5b6000601f19601f8301169050919050565b7f4e487b7100000000000000000000000000000000000000000000000000000000600052604160045260246000fd5b6200027e8262000233565b810181811067ffffffffffffffff82111715620002a0576200029f62000244565b5b80604052505050565b6000620002b562000215565b9050620002c3828262000273565b919050565b600067ffffffffffffffff821115620002e657620002e562000244565b5b620002f18262000233565b9050602081019050919050565b60005b838110156200031e57808201518184015260208101905062000301565b838111156200032e576000848401525b50505050565b60006200034b6200034584620002c8565b620002a9565b9050828152602081018484840111156200036a57620003696200022e565b5b62000377848285620002fe565b509392505050565b600082601f83011262000397576200039662000229565b5b8151620003a984826020860162000334565b91505092915050565b600073ffffffffffffffffffffffffffffffffffffffff82169050919050565b6000620003df82620003b2565b9050919050565b620003f181620003d2565b8114620003fd57600080fd5b50565b6000815190506200041181620003e6565b92915050565b6000819050919050565b6200042c8162000417565b81146200043857600080fd5b50565b6000815190506200044c8162000421565b92915050565b600080600080600060a086880312156200047157620004706200021f565b5b600086015167ffffffffffffffff81111562000492576200049162000224565b5b620004a0888289016200037f565b9550506020620004b38882890162000400565b9450506040620004c68882890162000400565b9350506060620004d98882890162000400565b9250506080620004ec888289016200043b565b9150509295509295909350565b7f4e487b7100000000000000000000000000000000000000000000000000000000600052602260045260246000fd5b600060028204905060018216806200054157607f821691505b602082108103620005575762000556620004f9565b5b50919050565b6127e1806200056d6000396000f3fe6080604052600436106101445760003560e01c80638da5cb5b116100b6578063d5e298bb1161006f578063d5e298bb1461046c578063e4b6db4c14610497578063ec5ffac2146104c2578063f92c1620146104ed578063fad5677914610518578063feb21b9c146105435761014b565b80638da5cb5b146103465780639d6f17a814610371578063a32cf536146103ae578063aa362b32146103d9578063b81e43fc14610416578063d427ccbf146104415761014b565b80634599c5ab116101085780634599c5ab146102225780635d155b0c1461025f578063733b05e21461028a5780637bc74225146102c75780637dbaf26b146102f25780638a007e351461031b5761014b565b806306fdde031461014d57806309dd8f871461017857806312065fe0146101a357806317d7de7c146101ce578063352ae596146101f95761014b565b3661014b57005b005b34801561015957600080fd5b50610162610580565b60405161016f9190611a5b565b60405180910390f35b34801561018457600080fd5b5061018d61060e565b60405161019a9190611a98565b60405180910390f35b3480156101af57600080fd5b506101b8610625565b6040516101c59190611acc565b60405180910390f35b3480156101da57600080fd5b506101e361062d565b6040516101f09190611a5b565b60405180910390f35b34801561020557600080fd5b50610220600480360381019061021b9190611b59565b6106bf565b005b34801561022e57600080fd5b5061024960048036038101906102449190611cbb565b610fdf565b6040516102569190611d13565b60405180910390f35b34801561026b57600080fd5b50610274611027565b6040516102819190611d13565b60405180910390f35b34801561029657600080fd5b506102b160048036038101906102ac9190611d5a565b61104d565b6040516102be9190611a5b565b60405180910390f35b3480156102d357600080fd5b506102dc6110f9565b6040516102e99190611acc565b60405180910390f35b3480156102fe57600080fd5b5061031960048036038101906103149190611cbb565b611206565b005b34801561032757600080fd5b5061033061159a565b60405161033d9190611d13565b60405180910390f35b34801561035257600080fd5b5061035b6115c0565b6040516103689190611d13565b60405180910390f35b34801561037d57600080fd5b5061039860048036038101906103939190611cbb565b6115e4565b6040516103a59190611d13565b60405180910390f35b3480156103ba57600080fd5b506103c361162d565b6040516103d09190611d13565b60405180910390f35b3480156103e557600080fd5b5061040060048036038101906103fb9190611b59565b611653565b60405161040d9190611acc565b60405180910390f35b34801561042257600080fd5b5061042b61166b565b6040516104389190611a5b565b60405180910390f35b34801561044d57600080fd5b50610456611710565b6040516104639190611d13565b60405180910390f35b34801561047857600080fd5b5061048161173a565b60405161048e9190611e93565b60405180910390f35b3480156104a357600080fd5b506104ac611813565b6040516104b99190611f73565b60405180910390f35b3480156104ce57600080fd5b506104d76118a1565b6040516104e49190611acc565b60405180910390f35b3480156104f957600080fd5b506105026118a7565b60405161050f9190611a98565b60405180910390f35b34801561052457600080fd5b5061052d6118ba565b60405161053a9190611d13565b60405180910390f35b34801561054f57600080fd5b5061056a60048036038101906105659190611d5a565b6118e0565b6040516105779190611d13565b60405180910390f35b6001805461058d90611fc4565b80601f01602080910402602001604051908101604052809291908181526020018280546105b990611fc4565b80156106065780601f106105db57610100808354040283529160200191610606565b820191906000526020600020905b8154815290600101906020018083116105e957829003601f168201915b505050505081565b6000600960009054906101000a900460ff16905090565b600047905090565b60606001805461063c90611fc4565b80601f016020809104026020016040519081016040528092919081815260200182805461066890611fc4565b80156106b55780601f1061068a576101008083540402835291602001916106b5565b820191906000526020600020905b81548152906001019060200180831161069857829003601f168201915b5050505050905090565b6000600260009054906101000a900473ffffffffffffffffffffffffffffffffffffffff16905060008173ffffffffffffffffffffffffffffffffffffffff1663179f907d6040518163ffffffff1660e01b81526004016020604051808303816000875af1158015610735573d6000803e3d6000fd5b505050506040513d601f19601f82011682018060405250810190610759919061200a565b90508073ffffffffffffffffffffffffffffffffffffffff163373ffffffffffffffffffffffffffffffffffffffff16146107c9576040517f08c379a00000000000000000000000000000000000000000000000000000000081526004016107c0906120a9565b60405180910390fd5b82600080600780549050905060008111610818576040517f08c379a000000000000000000000000000000000000000000000000000000000815260040161080f9061213b565b60405180910390fd5b60006006905060005b828110156108d2578473ffffffffffffffffffffffffffffffffffffffff1682600783815481106108555761085461215b565b5b9060005260206000200160405161086c9190612229565b908152602001604051809103902060009054906101000a900473ffffffffffffffffffffffffffffffffffffffff1673ffffffffffffffffffffffffffffffffffffffff16036108bf57600193506108d2565b80806108ca9061226f565b915050610821565b5082610913576040517f08c379a000000000000000000000000000000000000000000000000000000000815260040161090a90612303565b60405180910390fd5b60011515600960009054906101000a900460ff1615151480156109855750600073ffffffffffffffffffffffffffffffffffffffff16600960019054906101000a900473ffffffffffffffffffffffffffffffffffffffff1673ffffffffffffffffffffffffffffffffffffffff1614155b156109c5576040517f08c379a00000000000000000000000000000000000000000000000000000000081526004016109bc9061236f565b60405180910390fd5b60006008805480602002602001604051908101604052809291908181526020018280548015610a4957602002820191906000526020600020905b8160009054906101000a900473ffffffffffffffffffffffffffffffffffffffff1673ffffffffffffffffffffffffffffffffffffffff16815260200190600101908083116109ff575b5050505050905060004703610b7b5760005b8151811015610b25578873ffffffffffffffffffffffffffffffffffffffff16828281518110610a8e57610a8d61215b565b5b602002602001015173ffffffffffffffffffffffffffffffffffffffff1603610b125788600960016101000a81548173ffffffffffffffffffffffffffffffffffffffff021916908373ffffffffffffffffffffffffffffffffffffffff1602179055506001600960006101000a81548160ff021916908315150217905550610b25565b8080610b1d9061226f565b915050610a5b565b50600960009054906101000a900460ff16610b75576040517f08c379a0000000000000000000000000000000000000000000000000000000008152600401610b6c906123db565b60405180910390fd5b50610fd6565b6000600460009054906101000a900473ffffffffffffffffffffffffffffffffffffffff16905060008173ffffffffffffffffffffffffffffffffffffffff16632004b3e56040518163ffffffff1660e01b81526004016020604051808303816000875af1158015610bf1573d6000803e3d6000fd5b505050506040513d601f19601f82011682018060405250810190610c159190612410565b90506000606482610c26919061246c565b47610c31919061249d565b90508273ffffffffffffffffffffffffffffffffffffffff16634d161324826040518263ffffffff1660e01b81526004016000604051808303818588803b158015610c7b57600080fd5b505af1158015610c8f573d6000803e3d6000fd5b505050505060008451905060005b81811015610fcf578c73ffffffffffffffffffffffffffffffffffffffff16868281518110610ccf57610cce61215b565b5b602002602001015173ffffffffffffffffffffffffffffffffffffffff1603610fbc57600960009054906101000a900460ff16610d63578c600960016101000a81548173ffffffffffffffffffffffffffffffffffffffff021916908373ffffffffffffffffffffffffffffffffffffffff1602179055506001600960006101000a81548160ff0219169083151502179055505b6000868281518110610d7857610d7761215b565b5b6020026020010151905060008173ffffffffffffffffffffffffffffffffffffffff1663a6afd5fd6040518163ffffffff1660e01b81526004016000604051808303816000875af1158015610dd1573d6000803e3d6000fd5b505050506040513d6000823e3d601f19601f82011682018060405250810190610dfa91906125bf565b905060005b8151811015610fb45760008373ffffffffffffffffffffffffffffffffffffffff1663bbadc93a848481518110610e3957610e3861215b565b5b60200260200101516040518263ffffffff1660e01b8152600401610e5d9190611d13565b6020604051808303816000875af1158015610e7c573d6000803e3d6000fd5b505050506040513d601f19601f82011682018060405250810190610ea09190612410565b9050828581518110610eb557610eb461215b565b5b602002602001015173ffffffffffffffffffffffffffffffffffffffff166108fc476064808873ffffffffffffffffffffffffffffffffffffffff16637bc742256040518163ffffffff1660e01b81526004016020604051808303816000875af1158015610f27573d6000803e3d6000fd5b505050506040513d601f19601f82011682018060405250810190610f4b9190612410565b86610f56919061246c565b610f60919061249d565b610f6a919061246c565b610f74919061249d565b9081150290604051600060405180830381858888f19350505050158015610f9f573d6000803e3d6000fd5b50508080610fac9061226f565b915050610dff565b505050610fcf565b8080610fc79061226f565b915050610c9d565b5050505050505b50505050505050565b6000600682604051610ff19190612639565b908152602001604051809103902060009054906101000a900473ffffffffffffffffffffffffffffffffffffffff169050919050565b600460009054906101000a900473ffffffffffffffffffffffffffffffffffffffff1681565b6007818154811061105d57600080fd5b90600052602060002001600091509050805461107890611fc4565b80601f01602080910402602001604051908101604052809291908181526020018280546110a490611fc4565b80156110f15780601f106110c6576101008083540402835291602001916110f1565b820191906000526020600020905b8154815290600101906020018083116110d457829003601f168201915b505050505081565b60008060005b6007805490508110156111fe5760006006600783815481106111245761112361215b565b5b9060005260206000200160405161113b9190612229565b908152602001604051809103902060009054906101000a900473ffffffffffffffffffffffffffffffffffffffff1690508073ffffffffffffffffffffffffffffffffffffffff16637bc742256040518163ffffffff1660e01b81526004016020604051808303816000875af11580156111b9573d6000803e3d6000fd5b505050506040513d601f19601f820116820180604052508101906111dd9190612410565b836111e89190612650565b92505080806111f69061226f565b9150506110ff565b508091505090565b6000600260009054906101000a900473ffffffffffffffffffffffffffffffffffffffff16905060008173ffffffffffffffffffffffffffffffffffffffff1663179f907d6040518163ffffffff1660e01b81526004016020604051808303816000875af115801561127c573d6000803e3d6000fd5b505050506040513d601f19601f820116820180604052508101906112a0919061200a565b90508073ffffffffffffffffffffffffffffffffffffffff163373ffffffffffffffffffffffffffffffffffffffff1614611310576040517f08c379a0000000000000000000000000000000000000000000000000000000008152600401611307906120a9565b60405180910390fd5b826000600190506000600780549050905060005b818110156113b857600781815481106113405761133f61215b565b5b9060005260206000200160405160200161135a9190612229565b60405160208183030381529060405280519060200120846040516020016113819190612639565b60405160208183030381529060405280519060200120036113a557600092506113b8565b80806113b09061226f565b915050611324565b50816113c357600080fd5b6000600360009054906101000a900473ffffffffffffffffffffffffffffffffffffffff16905060008173ffffffffffffffffffffffffffffffffffffffff16632b2b027389600260009054906101000a900473ffffffffffffffffffffffffffffffffffffffff16306005546040518563ffffffff1660e01b815260040161144f94939291906126a6565b6020604051808303816000875af115801561146e573d6000803e3d6000fd5b505050506040513d601f19601f82011682018060405250810190611492919061200a565b9050806006896040516114a59190612639565b908152602001604051809103902060006101000a81548173ffffffffffffffffffffffffffffffffffffffff021916908373ffffffffffffffffffffffffffffffffffffffff16021790555060078890806001815401808255809150506001900390600052602060002001600090919091909150908051906020019061152c92919061191f565b506008819080600181540180825580915050600190039060005260206000200160009091909190916101000a81548173ffffffffffffffffffffffffffffffffffffffff021916908373ffffffffffffffffffffffffffffffffffffffff1602179055505050505050505050565b600960019054906101000a900473ffffffffffffffffffffffffffffffffffffffff1681565b60008054906101000a900473ffffffffffffffffffffffffffffffffffffffff1681565b6006818051602081018201805184825260208301602085012081835280955050505050506000915054906101000a900473ffffffffffffffffffffffffffffffffffffffff1681565b600360009054906101000a900473ffffffffffffffffffffffffffffffffffffffff1681565b600a6020528060005260406000206000915090505481565b60606000600260009054906101000a900473ffffffffffffffffffffffffffffffffffffffff1690508073ffffffffffffffffffffffffffffffffffffffff166317d7de7c6040518163ffffffff1660e01b81526004016000604051808303816000875af11580156116e1573d6000803e3d6000fd5b505050506040513d6000823e3d601f19601f8201168201806040525081019061170a9190612762565b91505090565b6000600260009054906101000a900473ffffffffffffffffffffffffffffffffffffffff16905090565b60606007805480602002602001604051908101604052809291908181526020016000905b8282101561180a57838290600052602060002001805461177d90611fc4565b80601f01602080910402602001604051908101604052809291908181526020018280546117a990611fc4565b80156117f65780601f106117cb576101008083540402835291602001916117f6565b820191906000526020600020905b8154815290600101906020018083116117d957829003601f168201915b50505050508152602001906001019061175e565b50505050905090565b6060600880548060200260200160405190810160405280929190818152602001828054801561189757602002820191906000526020600020905b8160009054906101000a900473ffffffffffffffffffffffffffffffffffffffff1673ffffffffffffffffffffffffffffffffffffffff168152602001906001019080831161184d575b5050505050905090565b60055481565b600960009054906101000a900460ff1681565b600260009054906101000a900473ffffffffffffffffffffffffffffffffffffffff1681565b600881815481106118f057600080fd5b906000526020600020016000915054906101000a900473ffffffffffffffffffffffffffffffffffffffff1681565b82805461192b90611fc4565b90600052602060002090601f01602090048101928261194d5760008555611994565b82601f1061196657805160ff1916838001178555611994565b82800160010185558215611994579182015b82811115611993578251825591602001919060010190611978565b5b5090506119a191906119a5565b5090565b5b808211156119be5760008160009055506001016119a6565b5090565b600081519050919050565b600082825260208201905092915050565b60005b838110156119fc5780820151818401526020810190506119e1565b83811115611a0b576000848401525b50505050565b6000601f19601f8301169050919050565b6000611a2d826119c2565b611a3781856119cd565b9350611a478185602086016119de565b611a5081611a11565b840191505092915050565b60006020820190508181036000830152611a758184611a22565b905092915050565b60008115159050919050565b611a9281611a7d565b82525050565b6000602082019050611aad6000830184611a89565b92915050565b6000819050919050565b611ac681611ab3565b82525050565b6000602082019050611ae16000830184611abd565b92915050565b6000604051905090565b600080fd5b600080fd5b600073ffffffffffffffffffffffffffffffffffffffff82169050919050565b6000611b2682611afb565b9050919050565b611b3681611b1b565b8114611b4157600080fd5b50565b600081359050611b5381611b2d565b92915050565b600060208284031215611b6f57611b6e611af1565b5b6000611b7d84828501611b44565b91505092915050565b600080fd5b600080fd5b7f4e487b7100000000000000000000000000000000000000000000000000000000600052604160045260246000fd5b611bc882611a11565b810181811067ffffffffffffffff82111715611be757611be6611b90565b5b80604052505050565b6000611bfa611ae7565b9050611c068282611bbf565b919050565b600067ffffffffffffffff821115611c2657611c25611b90565b5b611c2f82611a11565b9050602081019050919050565b82818337600083830152505050565b6000611c5e611c5984611c0b565b611bf0565b905082815260208101848484011115611c7a57611c79611b8b565b5b611c85848285611c3c565b509392505050565b600082601f830112611ca257611ca1611b86565b5b8135611cb2848260208601611c4b565b91505092915050565b600060208284031215611cd157611cd0611af1565b5b600082013567ffffffffffffffff811115611cef57611cee611af6565b5b611cfb84828501611c8d565b91505092915050565b611d0d81611b1b565b82525050565b6000602082019050611d286000830184611d04565b92915050565b611d3781611ab3565b8114611d4257600080fd5b50565b600081359050611d5481611d2e565b92915050565b600060208284031215611d7057611d6f611af1565b5b6000611d7e84828501611d45565b91505092915050565b600081519050919050565b600082825260208201905092915050565b6000819050602082019050919050565b600082825260208201905092915050565b6000611dcf826119c2565b611dd98185611db3565b9350611de98185602086016119de565b611df281611a11565b840191505092915050565b6000611e098383611dc4565b905092915050565b6000602082019050919050565b6000611e2982611d87565b611e338185611d92565b935083602082028501611e4585611da3565b8060005b85811015611e815784840389528151611e628582611dfd565b9450611e6d83611e11565b925060208a01995050600181019050611e49565b50829750879550505050505092915050565b60006020820190508181036000830152611ead8184611e1e565b905092915050565b600081519050919050565b600082825260208201905092915050565b6000819050602082019050919050565b611eea81611b1b565b82525050565b6000611efc8383611ee1565b60208301905092915050565b6000602082019050919050565b6000611f2082611eb5565b611f2a8185611ec0565b9350611f3583611ed1565b8060005b83811015611f66578151611f4d8882611ef0565b9750611f5883611f08565b925050600181019050611f39565b5085935050505092915050565b60006020820190508181036000830152611f8d8184611f15565b905092915050565b7f4e487b7100000000000000000000000000000000000000000000000000000000600052602260045260246000fd5b60006002820490506001821680611fdc57607f821691505b602082108103611fef57611fee611f95565b5b50919050565b60008151905061200481611b2d565b92915050565b6000602082840312156120205761201f611af1565b5b600061202e84828501611ff5565b91505092915050565b7f4f6e6c79206576656e74206f776e657273207365742077696e6e696e6720706f60008201527f6f6c000000000000000000000000000000000000000000000000000000000000602082015250565b60006120936022836119cd565b915061209e82612037565b604082019050919050565b600060208201905081810360008301526120c281612086565b9050919050565b7f43616e6e6f74207365742077696e6e696e6720706f6f6c206f6e206d61726b6560008201527f742077697468206e6f20706f6f6c000000000000000000000000000000000000602082015250565b6000612125602e836119cd565b9150612130826120c9565b604082019050919050565b6000602082019050818103600083015261215481612118565b9050919050565b7f4e487b7100000000000000000000000000000000000000000000000000000000600052603260045260246000fd5b600081905092915050565b60008190508160005260206000209050919050565b600081546121b781611fc4565b6121c1818661218a565b945060018216600081146121dc57600181146121ed57612220565b60ff19831686528186019350612220565b6121f685612195565b60005b83811015612218578154818901526001820191506020810190506121f9565b838801955050505b50505092915050565b600061223582846121aa565b915081905092915050565b7f4e487b7100000000000000000000000000000000000000000000000000000000600052601160045260246000fd5b600061227a82611ab3565b91507fffffffffffffffffffffffffffffffffffffffffffffffffffffffffffffffff82036122ac576122ab612240565b5b600182019050919050565b7f496e76616c696420706f6f6c2061646472657373000000000000000000000000600082015250565b60006122ed6014836119cd565b91506122f8826122b7565b602082019050919050565b6000602082019050818103600083015261231c816122e0565b9050919050565b7f57696e6e696e6720506f6f6c20616c7265616479207365740000000000000000600082015250565b60006123596018836119cd565b915061236482612323565b602082019050919050565b600060208201905081810360008301526123888161234c565b9050919050565b7f4e6f20506f6f6c20416464726573732077617320666f756e6400000000000000600082015250565b60006123c56019836119cd565b91506123d08261238f565b602082019050919050565b600060208201905081810360008301526123f4816123b8565b9050919050565b60008151905061240a81611d2e565b92915050565b60006020828403121561242657612425611af1565b5b6000612434848285016123fb565b91505092915050565b7f4e487b7100000000000000000000000000000000000000000000000000000000600052601260045260246000fd5b600061247782611ab3565b915061248283611ab3565b9250826124925761249161243d565b5b828204905092915050565b60006124a882611ab3565b91506124b383611ab3565b9250817fffffffffffffffffffffffffffffffffffffffffffffffffffffffffffffffff04831182151516156124ec576124eb612240565b5b828202905092915050565b600067ffffffffffffffff82111561251257612511611b90565b5b602082029050602081019050919050565b600080fd5b600061253b612536846124f7565b611bf0565b9050808382526020820190506020840283018581111561255e5761255d612523565b5b835b8181101561258757806125738882611ff5565b845260208401935050602081019050612560565b5050509392505050565b600082601f8301126125a6576125a5611b86565b5b81516125b6848260208601612528565b91505092915050565b6000602082840312156125d5576125d4611af1565b5b600082015167ffffffffffffffff8111156125f3576125f2611af6565b5b6125ff84828501612591565b91505092915050565b6000612613826119c2565b61261d818561218a565b935061262d8185602086016119de565b80840191505092915050565b60006126458284612608565b915081905092915050565b600061265b82611ab3565b915061266683611ab3565b9250827fffffffffffffffffffffffffffffffffffffffffffffffffffffffffffffffff0382111561269b5761269a612240565b5b828201905092915050565b600060808201905081810360008301526126c08187611a22565b90506126cf6020830186611d04565b6126dc6040830185611d04565b6126e96060830184611abd565b95945050505050565b600061270561270084611c0b565b611bf0565b90508281526020810184848401111561272157612720611b8b565b5b61272c8482856119de565b509392505050565b600082601f83011261274957612748611b86565b5b81516127598482602086016126f2565b91505092915050565b60006020828403121561277857612777611af1565b5b600082015167ffffffffffffffff81111561279657612795611af6565b5b6127a284828501612734565b9150509291505056fea2646970667358221220576266caef4d1883eef6199e62e97b6d265a96592c83290fb7e01056633d5c3964736f6c634300080d0033",
  "immutableReferences": {},
  "source": "// SPDX-License-Identifier: MIT\n\npragma solidity ^0.8.4;\n\nimport \"./interface/IWeb3BetsMarketV1.sol\";\nimport \"./interface/IWeb3BetsEventsV1.sol\";\nimport \"./interface/IWeb3BetsPoolsV1.sol\";\nimport \"./interface/IWeb3Bets.sol\";\nimport \"./PoolsFactory.sol\";\n\ncontract Market is IWeb3BetsMarketV1 {\n    address public owner;\n    string public name;\n    address public eventAddress;\n    address public poolFactoryAddress;\n    address public web3BetsAddress;\n    uint256 public minimumStake;\n    mapping(string => address) public pools;\n    string[] public poolNames;\n    address[] public poolAddresses;\n    bool public hasSetWinningPool;\n    address public winningPoolAddress;\n    mapping(address => uint256) public winningPoolAddresses;\n\n    modifier onlyEventOwner() {\n        IWeb3BetsEventV1 poolEvent = IWeb3BetsEventV1(eventAddress);\n        address eventOwner = poolEvent.getEventOwner();\n        require(msg.sender == eventOwner, \"Only event owners set winning pool\");\n        _;\n    }\n\n    modifier uniqueName(string memory value) {\n        bool isNotEqual = true;\n        uint256 poolNamesLength = poolNames.length;\n        for (uint256 i = 0; i < poolNamesLength; i++) {\n            if (\n                keccak256(abi.encodePacked(value)) ==\n                keccak256(abi.encodePacked(poolNames[i]))\n            ) {\n                isNotEqual = false;\n                break;\n            }\n        }\n        require(isNotEqual);\n\n        _;\n    }\n\n    //  verify if winning pool is valid in current market\n    modifier validWinningPool(address _poolAddress) {\n        bool found = false;\n        uint256 poolLength = poolNames.length;\n        require(\n            poolLength > 0,\n            \"Cannot set winning pool on market with no pool\"\n        );\n\n        mapping(string => address) storage _pools = pools;\n\n        for (uint256 i = 0; i < poolLength; i++) {\n            if (_pools[poolNames[i]] == _poolAddress) {\n                found = true;\n                break;\n            }\n        }\n        require(found, \"Invalid pool address\");\n\n        _;\n    }\n\n    constructor(\n        string memory _name,\n        address _eventAddress,\n        address _poolFactoryAddress,\n        address _web3betsAddress,\n        uint256 _minimumStake\n    ) {\n        owner = tx.origin;\n        name = _name;\n        eventAddress = _eventAddress;\n        poolFactoryAddress = _poolFactoryAddress;\n        web3BetsAddress = _web3betsAddress;\n        minimumStake = _minimumStake;\n    }\n\n    function createMarketPool(string memory _name)\n        external\n        override\n        onlyEventOwner\n        uniqueName(_name)\n    {\n        PoolsFactory poolsFactory = PoolsFactory(poolFactoryAddress);\n        address poolAddress = poolsFactory.createPool(\n            _name,\n            eventAddress,\n            address(this),\n            minimumStake\n        );\n        \n        pools[_name] = poolAddress;\n        poolNames.push(_name);\n        poolAddresses.push(poolAddress);\n    }\n\n    function setWinningPool(address _poolAddress)\n        external\n        override\n        onlyEventOwner\n        validWinningPool(_poolAddress)\n    {\n    \n        if (hasSetWinningPool == true && winningPoolAddress != address(0)) {\n            revert(\"Winning Pool already set\");\n        }\n\n        address[] memory _poolAddresses = poolAddresses;\n        if (address(this).balance == 0) {\n            for (uint256 i = 0; i < _poolAddresses.length; i++) {\n                if (_poolAddresses[i] == _poolAddress) {\n                    winningPoolAddress = _poolAddress;\n                    hasSetWinningPool = true;\n                    break;\n                }\n            }\n            if (!hasSetWinningPool) {\n                revert(\"No Pool Address was found\");\n            } else {\n                return;\n            }\n        }\n\n        // Initialize the Web3Bets address\n        IWeb3Bets web3Bets = IWeb3Bets(web3BetsAddress);\n        uint256 vigPercentage = web3Bets.getVigPercentage();\n\n        // Get total stake and transfer to market\n        uint256 vigShare = address(this).balance * (vigPercentage / 100);\n\n        // send money to vig holders\n        web3Bets.shareBetEarnings{value: vigShare}();\n        \n        uint256 poolLength = _poolAddresses.length;\n        for (uint256 i = 0; i < poolLength; i++) {\n            if (_poolAddresses[i] == _poolAddress) {\n                if (!hasSetWinningPool) {\n                    winningPoolAddress = _poolAddress;\n                    hasSetWinningPool = true;\n                }\n                IWeb3BetsPoolsV1 pool = IWeb3BetsPoolsV1(_poolAddresses[i]);\n                address[] memory winners = pool.getBets();\n                for (uint256 j = 0; j < winners.length; j++) {\n                    uint256 userStake = pool.getUserStake(winners[j]);\n                    payable(winners[i]).transfer(\n                        (((userStake / pool.getTotalStake()) * 100) / 100) *\n                            address(this).balance\n                    );\n                }\n                break;\n            }\n        }\n    }\n\n    function getEventName() external override returns (string memory) {\n        IWeb3BetsEventV1 marketEvent = IWeb3BetsEventV1(eventAddress);\n        return marketEvent.getName();\n    }\n\n    function getEventAddress() external view override returns (address) {\n        return eventAddress;\n    }\n\n    function getName() external view override returns (string memory) {\n        return name;\n    }\n\n    function getTotalStake() external override returns (uint256) {\n        uint256 totalStake;\n\n        for (uint256 i = 0; i < poolNames.length; i++) {\n            IWeb3BetsPoolsV1 betsPool = IWeb3BetsPoolsV1(pools[poolNames[i]]);\n            totalStake += betsPool.getTotalStake();\n        }\n\n        return totalStake;\n    }\n\n    function isWinningPoolSet() external view override returns (bool) {\n        return hasSetWinningPool;\n    }\n\n    function getPoolNames() external view returns (string[] memory) {\n        return poolNames;\n    }\n\n    function getPoolAddresses() external view returns (address[] memory) {\n        return poolAddresses;\n    }\n\n    function getPoolAddressFromName(string memory _name)\n        external\n        view\n        returns (address)\n    {\n        return pools[_name];\n    }\n\n    function getBalance() external view returns (uint256) {\n        return address(this).balance;\n    }\n\n    // Function to receive Ether. msg.data must be empty\n    receive() external payable {}\n\n    // Fallback function is called when msg.data is not empty\n    fallback() external payable {}\n\n    // function _toLower(string memory str) internal returns (string memory) {\n    //     bytes memory bStr = bytes(str);\n    //     bytes memory bLower = new bytes(bStr.length);\n    //     for (uint256 i = 0; i < bStr.length; i++) {\n    //         // Uppercase character...\n    //         if ((bStr[i] >= 0x65) && (bStr[i] <= 0x90)) {\n    //             // So we add 32 to make it lowercase\n    //             bLower[i] = bytes1(int256(bStr[i]) + 32);\n    //         } else {\n    //             bLower[i] = bStr[i];\n    //         }\n    //     }\n    //     return string(bLower);\n    // }\n}\n",
  "sourcePath": "/Users/wizardom/projects/crypto/web3bets_smartcontract/contracts/Markets.sol",
  "compiler": {
    "name": "solc",
    "version": "0.8.13+commit.abaa5c0e.Emscripten.clang"
  },
  "schemaVersion": "3.4.7",
  "updatedAt": "2022-07-29T20:35:48.848Z",
  "networkType": "ethereum",
  "devdoc": {
    "kind": "dev",
    "methods": {},
    "version": 1
  },
  "userdoc": {
    "kind": "user",
    "methods": {},
    "version": 1
  }
}