{
  "contractName": "Pool",
  "abi": [
    {
      "inputs": [
        {
          "internalType": "string",
          "name": "_name",
          "type": "string"
        },
        {
          "internalType": "address",
          "name": "_eventAddress",
          "type": "address"
        },
        {
          "internalType": "address",
          "name": "_marketAddress",
          "type": "address"
        },
        {
          "internalType": "address",
          "name": "_betsFactoryAddress",
          "type": "address"
        },
        {
          "internalType": "uint256",
          "name": "_minimumStake",
          "type": "uint256"
        }
      ],
      "stateMutability": "nonpayable",
      "type": "constructor"
    },
    {
      "stateMutability": "payable",
      "type": "fallback"
    },
    {
      "inputs": [
        {
          "internalType": "uint256",
          "name": "",
          "type": "uint256"
        }
      ],
      "name": "betAddresses",
      "outputs": [
        {
          "internalType": "address",
          "name": "",
          "type": "address"
        }
      ],
      "stateMutability": "view",
      "type": "function"
    },
    {
      "inputs": [],
      "name": "betsFactoryAddress",
      "outputs": [
        {
          "internalType": "address",
          "name": "",
          "type": "address"
        }
      ],
      "stateMutability": "view",
      "type": "function"
    },
    {
      "inputs": [],
      "name": "minimumStake",
      "outputs": [
        {
          "internalType": "uint256",
          "name": "",
          "type": "uint256"
        }
      ],
      "stateMutability": "view",
      "type": "function"
    },
    {
      "inputs": [],
      "name": "name",
      "outputs": [
        {
          "internalType": "string",
          "name": "",
          "type": "string"
        }
      ],
      "stateMutability": "view",
      "type": "function"
    },
    {
      "inputs": [],
      "name": "totalStake",
      "outputs": [
        {
          "internalType": "uint256",
          "name": "",
          "type": "uint256"
        }
      ],
      "stateMutability": "view",
      "type": "function"
    },
    {
      "inputs": [
        {
          "internalType": "address",
          "name": "",
          "type": "address"
        }
      ],
      "name": "userStakes",
      "outputs": [
        {
          "internalType": "uint256",
          "name": "",
          "type": "uint256"
        }
      ],
      "stateMutability": "view",
      "type": "function"
    },
    {
      "inputs": [],
      "name": "bet",
      "outputs": [],
      "stateMutability": "payable",
      "type": "function"
    },
    {
      "inputs": [],
      "name": "getName",
      "outputs": [
        {
          "internalType": "string",
          "name": "",
          "type": "string"
        }
      ],
      "stateMutability": "view",
      "type": "function"
    },
    {
      "inputs": [],
      "name": "getBalance",
      "outputs": [
        {
          "internalType": "uint256",
          "name": "",
          "type": "uint256"
        }
      ],
      "stateMutability": "view",
      "type": "function"
    },
    {
      "inputs": [],
      "name": "getTotalStake",
      "outputs": [
        {
          "internalType": "uint256",
          "name": "",
          "type": "uint256"
        }
      ],
      "stateMutability": "view",
      "type": "function"
    },
    {
      "inputs": [],
      "name": "getBets",
      "outputs": [
        {
          "internalType": "address[]",
          "name": "",
          "type": "address[]"
        }
      ],
      "stateMutability": "view",
      "type": "function"
    },
    {
      "inputs": [
        {
          "internalType": "address",
          "name": "user",
          "type": "address"
        }
      ],
      "name": "getUserStake",
      "outputs": [
        {
          "internalType": "uint256",
          "name": "",
          "type": "uint256"
        }
      ],
      "stateMutability": "view",
      "type": "function"
    }
  ],
  "bytecode": "0x60806040523480156200001157600080fd5b506040516200140238038062001402833981810160405281019062000037919062000412565b84600090805190602001906200004f92919062000125565b5083600560006101000a81548173ffffffffffffffffffffffffffffffffffffffff021916908373ffffffffffffffffffffffffffffffffffffffff16021790555082600660006101000a81548173ffffffffffffffffffffffffffffffffffffffff021916908373ffffffffffffffffffffffffffffffffffffffff16021790555081600260006101000a81548173ffffffffffffffffffffffffffffffffffffffff021916908373ffffffffffffffffffffffffffffffffffffffff1602179055508060078190555050505050506200051d565b8280546200013390620004e8565b90600052602060002090601f016020900481019282620001575760008555620001a3565b82601f106200017257805160ff1916838001178555620001a3565b82800160010185558215620001a3579182015b82811115620001a257825182559160200191906001019062000185565b5b509050620001b29190620001b6565b5090565b5b80821115620001d1576000816000905550600101620001b7565b5090565b6000604051905090565b600080fd5b600080fd5b600080fd5b600080fd5b6000601f19601f8301169050919050565b7f4e487b7100000000000000000000000000000000000000000000000000000000600052604160045260246000fd5b6200023e82620001f3565b810181811067ffffffffffffffff8211171562000260576200025f62000204565b5b80604052505050565b600062000275620001d5565b905062000283828262000233565b919050565b600067ffffffffffffffff821115620002a657620002a562000204565b5b620002b182620001f3565b9050602081019050919050565b60005b83811015620002de578082015181840152602081019050620002c1565b83811115620002ee576000848401525b50505050565b60006200030b620003058462000288565b62000269565b9050828152602081018484840111156200032a5762000329620001ee565b5b62000337848285620002be565b509392505050565b600082601f830112620003575762000356620001e9565b5b815162000369848260208601620002f4565b91505092915050565b600073ffffffffffffffffffffffffffffffffffffffff82169050919050565b60006200039f8262000372565b9050919050565b620003b18162000392565b8114620003bd57600080fd5b50565b600081519050620003d181620003a6565b92915050565b6000819050919050565b620003ec81620003d7565b8114620003f857600080fd5b50565b6000815190506200040c81620003e1565b92915050565b600080600080600060a08688031215620004315762000430620001df565b5b600086015167ffffffffffffffff811115620004525762000451620001e4565b5b62000460888289016200033f565b95505060206200047388828901620003c0565b94505060406200048688828901620003c0565b93505060606200049988828901620003c0565b9250506080620004ac88828901620003fb565b9150509295509295909350565b7f4e487b7100000000000000000000000000000000000000000000000000000000600052602260045260246000fd5b600060028204905060018216806200050157607f821691505b602082108103620005175762000516620004b9565b5b50919050565b610ed5806200052d6000396000f3fe6080604052600436106100ab5760003560e01c80637bc74225116100645780637bc742251461020f5780638b0e9f3f1461023a5780638da7ad2314610265578063a6afd5fd146102a2578063bbadc93a146102cd578063ec5ffac21461030a576100ac565b806306fdde031461011c57806311610c251461014757806312065fe01461015157806317d7de7c1461017c578063448e9117146101a75780634df17982146101d2576100ac565b5b34600160008282546100be91906108de565b9250508190555034600360003373ffffffffffffffffffffffffffffffffffffffff1673ffffffffffffffffffffffffffffffffffffffff168152602001908152602001600020600082825461011491906108de565b925050819055005b34801561012857600080fd5b50610131610335565b60405161013e91906109cd565b60405180910390f35b61014f6103c3565b005b34801561015d57600080fd5b506101666106a1565b60405161017391906109fe565b60405180910390f35b34801561018857600080fd5b506101916106a9565b60405161019e91906109cd565b60405180910390f35b3480156101b357600080fd5b506101bc61073b565b6040516101c99190610a5a565b60405180910390f35b3480156101de57600080fd5b506101f960048036038101906101f49190610aa6565b610761565b6040516102069190610a5a565b60405180910390f35b34801561021b57600080fd5b506102246107a0565b60405161023191906109fe565b60405180910390f35b34801561024657600080fd5b5061024f6107aa565b60405161025c91906109fe565b60405180910390f35b34801561027157600080fd5b5061028c60048036038101906102879190610aff565b6107b0565b60405161029991906109fe565b60405180910390f35b3480156102ae57600080fd5b506102b76107c8565b6040516102c49190610bea565b60405180910390f35b3480156102d957600080fd5b506102f460048036038101906102ef9190610aff565b610856565b60405161030191906109fe565b60405180910390f35b34801561031657600080fd5b5061031f61089f565b60405161032c91906109fe565b60405180910390f35b6000805461034290610c3b565b80601f016020809104026020016040519081016040528092919081815260200182805461036e90610c3b565b80156103bb5780601f10610390576101008083540402835291602001916103bb565b820191906000526020600020905b81548152906001019060200180831161039e57829003601f168201915b505050505081565b600754670de0b6b3a76400006103d99190610c6c565b34101561041b576040517f08c379a000000000000000000000000000000000000000000000000000000000815260040161041290610d38565b60405180910390fd5b6000600260009054906101000a900473ffffffffffffffffffffffffffffffffffffffff16905060008173ffffffffffffffffffffffffffffffffffffffff1663934995b4600660009054906101000a900473ffffffffffffffffffffffffffffffffffffffff16600560009054906101000a900473ffffffffffffffffffffffffffffffffffffffff163034336040518663ffffffff1660e01b81526004016104c9959493929190610d58565b6020604051808303816000875af11580156104e8573d6000803e3d6000fd5b505050506040513d601f19601f8201168201806040525081019061050c9190610dc0565b9050346001600082825461052091906108de565b9250508190555034600360003373ffffffffffffffffffffffffffffffffffffffff1673ffffffffffffffffffffffffffffffffffffffff168152602001908152602001600020819055506004819080600181540180825580915050600190039060005260206000200160009091909190916101000a81548173ffffffffffffffffffffffffffffffffffffffff021916908373ffffffffffffffffffffffffffffffffffffffff1602179055506000600660009054906101000a900473ffffffffffffffffffffffffffffffffffffffff1673ffffffffffffffffffffffffffffffffffffffff163460405161061690610e1e565b60006040518083038185875af1925050503d8060008114610653576040519150601f19603f3d011682016040523d82523d6000602084013e610658565b606091505b505090508061069c576040517f08c379a000000000000000000000000000000000000000000000000000000000815260040161069390610e7f565b60405180910390fd5b505050565b600047905090565b6060600080546106b890610c3b565b80601f01602080910402602001604051908101604052809291908181526020018280546106e490610c3b565b80156107315780601f1061070657610100808354040283529160200191610731565b820191906000526020600020905b81548152906001019060200180831161071457829003601f168201915b5050505050905090565b600260009054906101000a900473ffffffffffffffffffffffffffffffffffffffff1681565b6004818154811061077157600080fd5b906000526020600020016000915054906101000a900473ffffffffffffffffffffffffffffffffffffffff1681565b6000600154905090565b60015481565b60036020528060005260406000206000915090505481565b6060600480548060200260200160405190810160405280929190818152602001828054801561084c57602002820191906000526020600020905b8160009054906101000a900473ffffffffffffffffffffffffffffffffffffffff1673ffffffffffffffffffffffffffffffffffffffff1681526020019060010190808311610802575b5050505050905090565b6000600360008373ffffffffffffffffffffffffffffffffffffffff1673ffffffffffffffffffffffffffffffffffffffff168152602001908152602001600020549050919050565b60075481565b6000819050919050565b7f4e487b7100000000000000000000000000000000000000000000000000000000600052601160045260246000fd5b60006108e9826108a5565b91506108f4836108a5565b9250827fffffffffffffffffffffffffffffffffffffffffffffffffffffffffffffffff03821115610929576109286108af565b5b828201905092915050565b600081519050919050565b600082825260208201905092915050565b60005b8381101561096e578082015181840152602081019050610953565b8381111561097d576000848401525b50505050565b6000601f19601f8301169050919050565b600061099f82610934565b6109a9818561093f565b93506109b9818560208601610950565b6109c281610983565b840191505092915050565b600060208201905081810360008301526109e78184610994565b905092915050565b6109f8816108a5565b82525050565b6000602082019050610a1360008301846109ef565b92915050565b600073ffffffffffffffffffffffffffffffffffffffff82169050919050565b6000610a4482610a19565b9050919050565b610a5481610a39565b82525050565b6000602082019050610a6f6000830184610a4b565b92915050565b600080fd5b610a83816108a5565b8114610a8e57600080fd5b50565b600081359050610aa081610a7a565b92915050565b600060208284031215610abc57610abb610a75565b5b6000610aca84828501610a91565b91505092915050565b610adc81610a39565b8114610ae757600080fd5b50565b600081359050610af981610ad3565b92915050565b600060208284031215610b1557610b14610a75565b5b6000610b2384828501610aea565b91505092915050565b600081519050919050565b600082825260208201905092915050565b6000819050602082019050919050565b610b6181610a39565b82525050565b6000610b738383610b58565b60208301905092915050565b6000602082019050919050565b6000610b9782610b2c565b610ba18185610b37565b9350610bac83610b48565b8060005b83811015610bdd578151610bc48882610b67565b9750610bcf83610b7f565b925050600181019050610bb0565b5085935050505092915050565b60006020820190508181036000830152610c048184610b8c565b905092915050565b7f4e487b7100000000000000000000000000000000000000000000000000000000600052602260045260246000fd5b60006002820490506001821680610c5357607f821691505b602082108103610c6657610c65610c0c565b5b50919050565b6000610c77826108a5565b9150610c82836108a5565b9250817fffffffffffffffffffffffffffffffffffffffffffffffffffffffffffffffff0483118215151615610cbb57610cba6108af565b5b828202905092915050565b7f596f752063616e206e6f74206265742062656c6f7720746865206d696e696d7560008201527f6d207374616b65206f66206576656e7400000000000000000000000000000000602082015250565b6000610d2260308361093f565b9150610d2d82610cc6565b604082019050919050565b60006020820190508181036000830152610d5181610d15565b9050919050565b600060a082019050610d6d6000830188610a4b565b610d7a6020830187610a4b565b610d876040830186610a4b565b610d9460608301856109ef565b610da16080830184610a4b565b9695505050505050565b600081519050610dba81610ad3565b92915050565b600060208284031215610dd657610dd5610a75565b5b6000610de484828501610dab565b91505092915050565b600081905092915050565b50565b6000610e08600083610ded565b9150610e1382610df8565b600082019050919050565b6000610e2982610dfb565b9150819050919050565b7f416e204572726f72206f6363757272656420696e207472616e73616374696f6e600082015250565b6000610e6960208361093f565b9150610e7482610e33565b602082019050919050565b60006020820190508181036000830152610e9881610e5c565b905091905056fea26469706673582212203efe3d56ea6be336c6c19484d50b3a14f0bb114147917b6ef89ffc0657ddcadd64736f6c634300080d0033",
  "immutableReferences": {},
  "source": "pragma solidity ^0.8.4;\nimport \"./interface/IWeb3BetsPoolsV1.sol\";\nimport \"./interface/IWeb3BetsEventsV1.sol\";\n// SPDX-License-Identifier: MIT\nimport \"./Bets.sol\";\n\nimport \"./BetsFactory.sol\";\n\n/// @author Ibekason Alexander Onyebuchi\n/// @title Pool Contract\n/// @notice Contain function signatures for creating pools in a\n/// market\n\ncontract Pool is IWeb3BetsPoolsV1 {\n    string public name;\n\n    uint256 public totalStake;\n\n    address public betsFactoryAddress;\n\n    mapping(address => uint256) public userStakes;\n\n    address[] public betAddresses;\n\n    address private eventAddress;\n\n    address private marketAddress;\n\n    uint256 public minimumStake;\n\n    modifier aboveMinimumStake() {\n        require(\n            msg.value >= 1 ether * minimumStake,\n            \"You can not bet below the minimum stake of event\"\n        );\n        _;\n    }\n\n    constructor(\n        string memory _name,\n        address _eventAddress,\n        address _marketAddress,\n        address _betsFactoryAddress,\n        uint256 _minimumStake\n    ) {\n        name = _name;\n        eventAddress = _eventAddress;\n        marketAddress = _marketAddress;\n        betsFactoryAddress = _betsFactoryAddress;\n        minimumStake = _minimumStake;\n    }\n\n    function bet() public payable override aboveMinimumStake {\n        BetsFactory betsFactory = BetsFactory(betsFactoryAddress);\n        address betAddress = betsFactory.createBet(\n            marketAddress,\n            eventAddress,\n            address(this),\n            msg.value,\n            msg.sender\n        );\n        totalStake += msg.value;\n        userStakes[msg.sender] = msg.value;\n        betAddresses.push(betAddress);\n        (bool sentBetFundToMarket, ) = marketAddress.call{value: msg.value}(\"\");\n\n        if (!sentBetFundToMarket) {\n            revert(\"An Error occurred in transaction\");\n        }\n    }\n\n    fallback() external payable {\n        totalStake += msg.value;\n\n        userStakes[msg.sender] += msg.value;\n    }\n\n    function getName() external view override returns (string memory) {\n        return name;\n    }\n\n    function getBalance() external view returns (uint256) {\n        return address(this).balance;\n    }\n\n    function getTotalStake() external view returns (uint256) {\n        return totalStake;\n    }\n\n    function getBets() external view override returns (address[] memory) {\n        return betAddresses;\n    }\n\n    function getUserStake(address user) external view returns (uint256) {\n        return userStakes[user];\n    }\n}\n",
  "sourcePath": "/Users/wizardom/projects/crypto/web3bets_smartcontract/contracts/Pools.sol",
  "compiler": {
    "name": "solc",
    "version": "0.8.13+commit.abaa5c0e.Emscripten.clang"
  },
  "schemaVersion": "3.4.7",
  "updatedAt": "2022-07-28T11:45:07.973Z",
  "devdoc": {
    "author": "Ibekason Alexander Onyebuchi",
    "kind": "dev",
    "methods": {},
    "title": "Pool Contract",
    "version": 1
  },
  "userdoc": {
    "kind": "user",
    "methods": {},
    "notice": "Contain function signatures for creating pools in a market",
    "version": 1
  }
}