{
  "contractName": "PoolsFactory",
  "abi": [
    {
      "anonymous": false,
      "inputs": [
        {
          "indexed": false,
          "internalType": "string",
          "name": "name",
          "type": "string"
        },
        {
          "indexed": false,
          "internalType": "address",
          "name": "marketAddress",
          "type": "address"
        },
        {
          "indexed": false,
          "internalType": "address",
          "name": "eventAddress",
          "type": "address"
        }
      ],
      "name": "PoolCreated",
      "type": "event"
    },
    {
      "inputs": [
        {
          "internalType": "address",
          "name": "",
          "type": "address"
        },
        {
          "internalType": "uint256",
          "name": "",
          "type": "uint256"
        }
      ],
      "name": "marketPools",
      "outputs": [
        {
          "internalType": "address",
          "name": "",
          "type": "address"
        }
      ],
      "stateMutability": "view",
      "type": "function",
      "constant": true
    },
    {
      "inputs": [
        {
          "internalType": "string",
          "name": "_name",
          "type": "string"
        },
        {
          "internalType": "address",
          "name": "_eventAddress",
          "type": "address"
        },
        {
          "internalType": "address",
          "name": "_marketAddress",
          "type": "address"
        }
      ],
      "name": "createPool",
      "outputs": [
        {
          "internalType": "address",
          "name": "",
          "type": "address"
        }
      ],
      "stateMutability": "nonpayable",
      "type": "function"
    },
    {
      "inputs": [
        {
          "internalType": "address",
          "name": "_marketAddress",
          "type": "address"
        }
      ],
      "name": "getPoolsOfMarket",
      "outputs": [
        {
          "internalType": "address[]",
          "name": "",
          "type": "address[]"
        }
      ],
      "stateMutability": "view",
      "type": "function",
      "constant": true
    },
    {
      "inputs": [],
      "name": "getTotalPools",
      "outputs": [
        {
          "internalType": "uint256",
          "name": "",
          "type": "uint256"
        }
      ],
      "stateMutability": "view",
      "type": "function",
      "constant": true
    }
  ],
  "bytecode": "0x608060405234801561001057600080fd5b506117b4806100206000396000f3fe60806040523480156200001157600080fd5b5060043610620000525760003560e01c806356cd61d7146200005757806386bf8056146200008d578063d3ffe67a14620000c3578063e1281e4714620000e5575b600080fd5b6200007560048036038101906200006f9190620005ba565b6200011b565b60405162000084919062000646565b60405180910390f35b620000ab6004803603810190620000a591906200069e565b620002a7565b604051620000ba919062000646565b60405180910390f35b620000cd620002f6565b604051620000dc9190620006f6565b60405180910390f35b620001036004803603810190620000fd919062000713565b62000303565b60405162000112919062000813565b60405180910390f35b6000808484846040516200012f90620003d1565b6200013d93929190620008ca565b604051809103906000f0801580156200015a573d6000803e3d6000fd5b5090506000808473ffffffffffffffffffffffffffffffffffffffff1673ffffffffffffffffffffffffffffffffffffffff168152602001908152602001600020819080600181540180825580915050600190039060005260206000200160009091909190916101000a81548173ffffffffffffffffffffffffffffffffffffffff021916908373ffffffffffffffffffffffffffffffffffffffff1602179055506001819080600181540180825580915050600190039060005260206000200160009091909190916101000a81548173ffffffffffffffffffffffffffffffffffffffff021916908373ffffffffffffffffffffffffffffffffffffffff1602179055507ff1bc21ed97ab3f0ef33f31038b179da31c46944bec01f4410240814d0571adea8584866040516200029493929190620008ca565b60405180910390a1809150509392505050565b60006020528160005260406000208181548110620002c457600080fd5b906000526020600020016000915091509054906101000a900473ffffffffffffffffffffffffffffffffffffffff1681565b6000600180549050905090565b60606000808373ffffffffffffffffffffffffffffffffffffffff1673ffffffffffffffffffffffffffffffffffffffff168152602001908152602001600020805480602002602001604051908101604052809291908181526020018280548015620003c557602002820191906000526020600020905b8160009054906101000a900473ffffffffffffffffffffffffffffffffffffffff1673ffffffffffffffffffffffffffffffffffffffff16815260200190600101908083116200037a575b50505050509050919050565b610e70806200090f83390190565b6000604051905090565b600080fd5b600080fd5b600080fd5b600080fd5b6000601f19601f8301169050919050565b7f4e487b7100000000000000000000000000000000000000000000000000000000600052604160045260246000fd5b6200044882620003fd565b810181811067ffffffffffffffff821117156200046a57620004696200040e565b5b80604052505050565b60006200047f620003df565b90506200048d82826200043d565b919050565b600067ffffffffffffffff821115620004b057620004af6200040e565b5b620004bb82620003fd565b9050602081019050919050565b82818337600083830152505050565b6000620004ee620004e88462000492565b62000473565b9050828152602081018484840111156200050d576200050c620003f8565b5b6200051a848285620004c8565b509392505050565b600082601f8301126200053a5762000539620003f3565b5b81356200054c848260208601620004d7565b91505092915050565b600073ffffffffffffffffffffffffffffffffffffffff82169050919050565b6000620005828262000555565b9050919050565b620005948162000575565b8114620005a057600080fd5b50565b600081359050620005b48162000589565b92915050565b600080600060608486031215620005d657620005d5620003e9565b5b600084013567ffffffffffffffff811115620005f757620005f6620003ee565b5b620006058682870162000522565b93505060206200061886828701620005a3565b92505060406200062b86828701620005a3565b9150509250925092565b620006408162000575565b82525050565b60006020820190506200065d600083018462000635565b92915050565b6000819050919050565b620006788162000663565b81146200068457600080fd5b50565b60008135905062000698816200066d565b92915050565b60008060408385031215620006b857620006b7620003e9565b5b6000620006c885828601620005a3565b9250506020620006db8582860162000687565b9150509250929050565b620006f08162000663565b82525050565b60006020820190506200070d6000830184620006e5565b92915050565b6000602082840312156200072c576200072b620003e9565b5b60006200073c84828501620005a3565b91505092915050565b600081519050919050565b600082825260208201905092915050565b6000819050602082019050919050565b6200077c8162000575565b82525050565b600062000790838362000771565b60208301905092915050565b6000602082019050919050565b6000620007b68262000745565b620007c2818562000750565b9350620007cf8362000761565b8060005b8381101562000806578151620007ea888262000782565b9750620007f7836200079c565b925050600181019050620007d3565b5085935050505092915050565b600060208201905081810360008301526200082f8184620007a9565b905092915050565b600081519050919050565b600082825260208201905092915050565b60005b838110156200087357808201518184015260208101905062000856565b8381111562000883576000848401525b50505050565b6000620008968262000837565b620008a2818562000842565b9350620008b481856020860162000853565b620008bf81620003fd565b840191505092915050565b60006060820190508181036000830152620008e6818662000889565b9050620008f7602083018562000635565b62000906604083018462000635565b94935050505056fe60806040523480156200001157600080fd5b5060405162000e7038038062000e7083398181016040528101906200003791906200038d565b82600090805190602001906200004f929190620000db565b5081600560006101000a81548173ffffffffffffffffffffffffffffffffffffffff021916908373ffffffffffffffffffffffffffffffffffffffff16021790555080600660006101000a81548173ffffffffffffffffffffffffffffffffffffffff021916908373ffffffffffffffffffffffffffffffffffffffff1602179055505050506200046c565b828054620000e99062000437565b90600052602060002090601f0160209004810192826200010d576000855562000159565b82601f106200012857805160ff191683800117855562000159565b8280016001018555821562000159579182015b82811115620001585782518255916020019190600101906200013b565b5b5090506200016891906200016c565b5090565b5b80821115620001875760008160009055506001016200016d565b5090565b6000604051905090565b600080fd5b600080fd5b600080fd5b600080fd5b6000601f19601f8301169050919050565b7f4e487b7100000000000000000000000000000000000000000000000000000000600052604160045260246000fd5b620001f482620001a9565b810181811067ffffffffffffffff82111715620002165762000215620001ba565b5b80604052505050565b60006200022b6200018b565b9050620002398282620001e9565b919050565b600067ffffffffffffffff8211156200025c576200025b620001ba565b5b6200026782620001a9565b9050602081019050919050565b60005b838110156200029457808201518184015260208101905062000277565b83811115620002a4576000848401525b50505050565b6000620002c1620002bb846200023e565b6200021f565b905082815260208101848484011115620002e057620002df620001a4565b5b620002ed84828562000274565b509392505050565b600082601f8301126200030d576200030c6200019f565b5b81516200031f848260208601620002aa565b91505092915050565b600073ffffffffffffffffffffffffffffffffffffffff82169050919050565b6000620003558262000328565b9050919050565b620003678162000348565b81146200037357600080fd5b50565b60008151905062000387816200035c565b92915050565b600080600060608486031215620003a957620003a862000195565b5b600084015167ffffffffffffffff811115620003ca57620003c96200019a565b5b620003d886828701620002f5565b9350506020620003eb8682870162000376565b9250506040620003fe8682870162000376565b9150509250925092565b7f4e487b7100000000000000000000000000000000000000000000000000000000600052602260045260246000fd5b600060028204905060018216806200045057607f821691505b60208210810362000466576200046562000408565b5b50919050565b6109f4806200047c6000396000f3fe6080604052600436106100555760003560e01c806306fdde031461005a57806311610c251461008557806317d7de7c1461008f578063448e9117146100ba5780637bc74225146100e55780638b0e9f3f14610110575b600080fd5b34801561006657600080fd5b5061006f61013b565b60405161007c9190610653565b60405180910390f35b61008d6101c9565b005b34801561009b57600080fd5b506100a46104f2565b6040516100b19190610653565b60405180910390f35b3480156100c657600080fd5b506100cf610584565b6040516100dc91906106b6565b60405180910390f35b3480156100f157600080fd5b506100fa6105aa565b60405161010791906106ea565b60405180910390f35b34801561011c57600080fd5b506101256105b4565b60405161013291906106ea565b60405180910390f35b6000805461014890610734565b80601f016020809104026020016040519081016040528092919081815260200182805461017490610734565b80156101c15780601f10610196576101008083540402835291602001916101c1565b820191906000526020600020905b8154815290600101906020018083116101a457829003601f168201915b505050505081565b6000600560009054906101000a900473ffffffffffffffffffffffffffffffffffffffff1690508073ffffffffffffffffffffffffffffffffffffffff1663d9bbd2786040518163ffffffff1660e01b81526004016020604051808303816000875af115801561023d573d6000803e3d6000fd5b505050506040513d601f19601f820116820180604052508101906102619190610796565b3410156102a3576040517f08c379a000000000000000000000000000000000000000000000000000000000815260040161029a90610835565b60405180910390fd5b6000600260009054906101000a900473ffffffffffffffffffffffffffffffffffffffff16905060008173ffffffffffffffffffffffffffffffffffffffff16637700cb83600660009054906101000a900473ffffffffffffffffffffffffffffffffffffffff16600560009054906101000a900473ffffffffffffffffffffffffffffffffffffffff1630346040518563ffffffff1660e01b815260040161034f9493929190610855565b6020604051808303816000875af115801561036e573d6000803e3d6000fd5b505050506040513d601f19601f8201168201806040525081019061039291906108c6565b905034600160008282546103a69190610922565b9250508190555034600360003373ffffffffffffffffffffffffffffffffffffffff1673ffffffffffffffffffffffffffffffffffffffff168152602001908152602001600020819055506004819080600181540180825580915050600190039060005260206000200160009091909190916101000a81548173ffffffffffffffffffffffffffffffffffffffff021916908373ffffffffffffffffffffffffffffffffffffffff1602179055506000600660009054906101000a900473ffffffffffffffffffffffffffffffffffffffff1673ffffffffffffffffffffffffffffffffffffffff163460405161049c906109a9565b60006040518083038185875af1925050503d80600081146104d9576040519150601f19603f3d011682016040523d82523d6000602084013e6104de565b606091505b50509050806104ec57600080fd5b50505050565b60606000805461050190610734565b80601f016020809104026020016040519081016040528092919081815260200182805461052d90610734565b801561057a5780601f1061054f5761010080835404028352916020019161057a565b820191906000526020600020905b81548152906001019060200180831161055d57829003601f168201915b5050505050905090565b600260009054906101000a900473ffffffffffffffffffffffffffffffffffffffff1681565b6000600154905090565b60015481565b600081519050919050565b600082825260208201905092915050565b60005b838110156105f45780820151818401526020810190506105d9565b83811115610603576000848401525b50505050565b6000601f19601f8301169050919050565b6000610625826105ba565b61062f81856105c5565b935061063f8185602086016105d6565b61064881610609565b840191505092915050565b6000602082019050818103600083015261066d818461061a565b905092915050565b600073ffffffffffffffffffffffffffffffffffffffff82169050919050565b60006106a082610675565b9050919050565b6106b081610695565b82525050565b60006020820190506106cb60008301846106a7565b92915050565b6000819050919050565b6106e4816106d1565b82525050565b60006020820190506106ff60008301846106db565b92915050565b7f4e487b7100000000000000000000000000000000000000000000000000000000600052602260045260246000fd5b6000600282049050600182168061074c57607f821691505b60208210810361075f5761075e610705565b5b50919050565b600080fd5b610773816106d1565b811461077e57600080fd5b50565b6000815190506107908161076a565b92915050565b6000602082840312156107ac576107ab610765565b5b60006107ba84828501610781565b91505092915050565b7f596f752063616e206e6f74206265742062656c6f7720746865206d696e696d7560008201527f6d207374616b65206f66206576656e7400000000000000000000000000000000602082015250565b600061081f6030836105c5565b915061082a826107c3565b604082019050919050565b6000602082019050818103600083015261084e81610812565b9050919050565b600060808201905061086a60008301876106a7565b61087760208301866106a7565b61088460408301856106a7565b61089160608301846106db565b95945050505050565b6108a381610695565b81146108ae57600080fd5b50565b6000815190506108c08161089a565b92915050565b6000602082840312156108dc576108db610765565b5b60006108ea848285016108b1565b91505092915050565b7f4e487b7100000000000000000000000000000000000000000000000000000000600052601160045260246000fd5b600061092d826106d1565b9150610938836106d1565b9250827fffffffffffffffffffffffffffffffffffffffffffffffffffffffffffffffff0382111561096d5761096c6108f3565b5b828201905092915050565b600081905092915050565b50565b6000610993600083610978565b915061099e82610983565b600082019050919050565b60006109b482610986565b915081905091905056fea26469706673582212208d7d78093b90e2eef0aa7280e3953dccb8c723616700570648ab3c1c33d497db64736f6c634300080d0033a264697066735822122037f97e22491bfc9d72533b014e5fe4a9da7d4e72bb44d350b18ed457c09ce75564736f6c634300080d0033",
  "immutableReferences": {},
  "source": "// SPDX-License-Identifier: MIT\npragma solidity ^0.8.4;\n\nimport \"./Pools.sol\";\n\ncontract PoolsFactory {\n    // All market address with their list of pools\n    mapping (address => address[]) public marketPools;\n    address[] _pools;\n\n    event PoolCreated(string name, address marketAddress, address eventAddress);\n    \n    function createPool(string memory _name, address _eventAddress, address _marketAddress) external returns (address) {\n        Pool pool = new Pool(_name, _eventAddress, _marketAddress);\n        marketPools[_marketAddress].push(address(pool));\n        _pools.push(address(pool));\n        emit PoolCreated(_name, _marketAddress, _eventAddress);\n\n        return address(pool);\n    }\n\n    function getPoolsOfMarket(address _marketAddress) external view returns(address[] memory){\n        return marketPools[_marketAddress];\n    }\n\n    function getTotalPools() external view returns (uint){\n        return _pools.length;\n    }\n    \n}",
  "sourcePath": "/Users/wizardom/projects/crypto/web3bets_smartcontract/contracts/PoolsFactory.sol",
  "compiler": {
    "name": "solc",
    "version": "0.8.13+commit.abaa5c0e.Emscripten.clang"
  },
  "schemaVersion": "3.4.7",
  "updatedAt": "2022-07-23T15:41:18.883Z",
  "networkType": "ethereum",
  "devdoc": {
    "kind": "dev",
    "methods": {},
    "version": 1
  },
  "userdoc": {
    "kind": "user",
    "methods": {},
    "version": 1
  }
}