{
  "contractName": "PoolsFactory",
  "abi": [
    {
      "anonymous": false,
      "inputs": [
        {
          "indexed": false,
          "internalType": "string",
          "name": "name",
          "type": "string"
        },
        {
          "indexed": false,
          "internalType": "address",
          "name": "marketAddress",
          "type": "address"
        },
        {
          "indexed": false,
          "internalType": "address",
          "name": "eventAddress",
          "type": "address"
        }
      ],
      "name": "PoolCreated",
      "type": "event"
    },
    {
      "inputs": [
        {
          "internalType": "string",
          "name": "_name",
          "type": "string"
        },
        {
          "internalType": "address",
          "name": "_eventAddress",
          "type": "address"
        },
        {
          "internalType": "address",
          "name": "_marketAddress",
          "type": "address"
        }
      ],
      "name": "createPool",
      "outputs": [
        {
          "internalType": "address",
          "name": "",
          "type": "address"
        }
      ],
      "stateMutability": "nonpayable",
      "type": "function"
    },
    {
      "inputs": [
        {
          "internalType": "address",
          "name": "_marketAddress",
          "type": "address"
        }
      ],
      "name": "getPoolsOfMarket",
      "outputs": [
        {
          "internalType": "address[]",
          "name": "",
          "type": "address[]"
        }
      ],
      "stateMutability": "view",
      "type": "function"
    }
  ],
  "bytecode": "0x608060405234801561001057600080fd5b506115d5806100206000396000f3fe60806040523480156200001157600080fd5b50600436106200003a5760003560e01c806356cd61d7146200003f578063e1281e471462000075575b600080fd5b6200005d60048036038101906200005791906200048b565b620000ab565b6040516200006c919062000517565b60405180910390f35b6200009360048036038101906200008d919062000534565b620001d4565b604051620000a2919062000634565b60405180910390f35b600080848484604051620000bf90620002a2565b620000cd93929190620006eb565b604051809103906000f080158015620000ea573d6000803e3d6000fd5b5090506000808473ffffffffffffffffffffffffffffffffffffffff1673ffffffffffffffffffffffffffffffffffffffff168152602001908152602001600020819080600181540180825580915050600190039060005260206000200160009091909190916101000a81548173ffffffffffffffffffffffffffffffffffffffff021916908373ffffffffffffffffffffffffffffffffffffffff1602179055507ff1bc21ed97ab3f0ef33f31038b179da31c46944bec01f4410240814d0571adea858486604051620001c193929190620006eb565b60405180910390a1809150509392505050565b60606000808373ffffffffffffffffffffffffffffffffffffffff1673ffffffffffffffffffffffffffffffffffffffff1681526020019081526020016000208054806020026020016040519081016040528092919081815260200182805480156200029657602002820191906000526020600020905b8160009054906101000a900473ffffffffffffffffffffffffffffffffffffffff1673ffffffffffffffffffffffffffffffffffffffff16815260200190600101908083116200024b575b50505050509050919050565b610e70806200073083390190565b6000604051905090565b600080fd5b600080fd5b600080fd5b600080fd5b6000601f19601f8301169050919050565b7f4e487b7100000000000000000000000000000000000000000000000000000000600052604160045260246000fd5b6200031982620002ce565b810181811067ffffffffffffffff821117156200033b576200033a620002df565b5b80604052505050565b600062000350620002b0565b90506200035e82826200030e565b919050565b600067ffffffffffffffff821115620003815762000380620002df565b5b6200038c82620002ce565b9050602081019050919050565b82818337600083830152505050565b6000620003bf620003b98462000363565b62000344565b905082815260208101848484011115620003de57620003dd620002c9565b5b620003eb84828562000399565b509392505050565b600082601f8301126200040b576200040a620002c4565b5b81356200041d848260208601620003a8565b91505092915050565b600073ffffffffffffffffffffffffffffffffffffffff82169050919050565b6000620004538262000426565b9050919050565b620004658162000446565b81146200047157600080fd5b50565b60008135905062000485816200045a565b92915050565b600080600060608486031215620004a757620004a6620002ba565b5b600084013567ffffffffffffffff811115620004c857620004c7620002bf565b5b620004d686828701620003f3565b9350506020620004e98682870162000474565b9250506040620004fc8682870162000474565b9150509250925092565b620005118162000446565b82525050565b60006020820190506200052e600083018462000506565b92915050565b6000602082840312156200054d576200054c620002ba565b5b60006200055d8482850162000474565b91505092915050565b600081519050919050565b600082825260208201905092915050565b6000819050602082019050919050565b6200059d8162000446565b82525050565b6000620005b1838362000592565b60208301905092915050565b6000602082019050919050565b6000620005d78262000566565b620005e3818562000571565b9350620005f08362000582565b8060005b83811015620006275781516200060b8882620005a3565b97506200061883620005bd565b925050600181019050620005f4565b5085935050505092915050565b60006020820190508181036000830152620006508184620005ca565b905092915050565b600081519050919050565b600082825260208201905092915050565b60005b838110156200069457808201518184015260208101905062000677565b83811115620006a4576000848401525b50505050565b6000620006b78262000658565b620006c3818562000663565b9350620006d581856020860162000674565b620006e081620002ce565b840191505092915050565b60006060820190508181036000830152620007078186620006aa565b905062000718602083018562000506565b62000727604083018462000506565b94935050505056fe60806040523480156200001157600080fd5b5060405162000e7038038062000e7083398181016040528101906200003791906200038d565b82600090805190602001906200004f929190620000db565b5081600560006101000a81548173ffffffffffffffffffffffffffffffffffffffff021916908373ffffffffffffffffffffffffffffffffffffffff16021790555080600660006101000a81548173ffffffffffffffffffffffffffffffffffffffff021916908373ffffffffffffffffffffffffffffffffffffffff1602179055505050506200046c565b828054620000e99062000437565b90600052602060002090601f0160209004810192826200010d576000855562000159565b82601f106200012857805160ff191683800117855562000159565b8280016001018555821562000159579182015b82811115620001585782518255916020019190600101906200013b565b5b5090506200016891906200016c565b5090565b5b80821115620001875760008160009055506001016200016d565b5090565b6000604051905090565b600080fd5b600080fd5b600080fd5b600080fd5b6000601f19601f8301169050919050565b7f4e487b7100000000000000000000000000000000000000000000000000000000600052604160045260246000fd5b620001f482620001a9565b810181811067ffffffffffffffff82111715620002165762000215620001ba565b5b80604052505050565b60006200022b6200018b565b9050620002398282620001e9565b919050565b600067ffffffffffffffff8211156200025c576200025b620001ba565b5b6200026782620001a9565b9050602081019050919050565b60005b838110156200029457808201518184015260208101905062000277565b83811115620002a4576000848401525b50505050565b6000620002c1620002bb846200023e565b6200021f565b905082815260208101848484011115620002e057620002df620001a4565b5b620002ed84828562000274565b509392505050565b600082601f8301126200030d576200030c6200019f565b5b81516200031f848260208601620002aa565b91505092915050565b600073ffffffffffffffffffffffffffffffffffffffff82169050919050565b6000620003558262000328565b9050919050565b620003678162000348565b81146200037357600080fd5b50565b60008151905062000387816200035c565b92915050565b600080600060608486031215620003a957620003a862000195565b5b600084015167ffffffffffffffff811115620003ca57620003c96200019a565b5b620003d886828701620002f5565b9350506020620003eb8682870162000376565b9250506040620003fe8682870162000376565b9150509250925092565b7f4e487b7100000000000000000000000000000000000000000000000000000000600052602260045260246000fd5b600060028204905060018216806200045057607f821691505b60208210810362000466576200046562000408565b5b50919050565b6109f4806200047c6000396000f3fe6080604052600436106100555760003560e01c806306fdde031461005a57806311610c251461008557806317d7de7c1461008f578063448e9117146100ba5780637bc74225146100e55780638b0e9f3f14610110575b600080fd5b34801561006657600080fd5b5061006f61013b565b60405161007c9190610653565b60405180910390f35b61008d6101c9565b005b34801561009b57600080fd5b506100a46104f2565b6040516100b19190610653565b60405180910390f35b3480156100c657600080fd5b506100cf610584565b6040516100dc91906106b6565b60405180910390f35b3480156100f157600080fd5b506100fa6105aa565b60405161010791906106ea565b60405180910390f35b34801561011c57600080fd5b506101256105b4565b60405161013291906106ea565b60405180910390f35b6000805461014890610734565b80601f016020809104026020016040519081016040528092919081815260200182805461017490610734565b80156101c15780601f10610196576101008083540402835291602001916101c1565b820191906000526020600020905b8154815290600101906020018083116101a457829003601f168201915b505050505081565b6000600560009054906101000a900473ffffffffffffffffffffffffffffffffffffffff1690508073ffffffffffffffffffffffffffffffffffffffff1663d9bbd2786040518163ffffffff1660e01b81526004016020604051808303816000875af115801561023d573d6000803e3d6000fd5b505050506040513d601f19601f820116820180604052508101906102619190610796565b3410156102a3576040517f08c379a000000000000000000000000000000000000000000000000000000000815260040161029a90610835565b60405180910390fd5b6000600260009054906101000a900473ffffffffffffffffffffffffffffffffffffffff16905060008173ffffffffffffffffffffffffffffffffffffffff16637700cb83600660009054906101000a900473ffffffffffffffffffffffffffffffffffffffff16600560009054906101000a900473ffffffffffffffffffffffffffffffffffffffff1630346040518563ffffffff1660e01b815260040161034f9493929190610855565b6020604051808303816000875af115801561036e573d6000803e3d6000fd5b505050506040513d601f19601f8201168201806040525081019061039291906108c6565b905034600160008282546103a69190610922565b9250508190555034600360003373ffffffffffffffffffffffffffffffffffffffff1673ffffffffffffffffffffffffffffffffffffffff168152602001908152602001600020819055506004819080600181540180825580915050600190039060005260206000200160009091909190916101000a81548173ffffffffffffffffffffffffffffffffffffffff021916908373ffffffffffffffffffffffffffffffffffffffff1602179055506000600660009054906101000a900473ffffffffffffffffffffffffffffffffffffffff1673ffffffffffffffffffffffffffffffffffffffff163460405161049c906109a9565b60006040518083038185875af1925050503d80600081146104d9576040519150601f19603f3d011682016040523d82523d6000602084013e6104de565b606091505b50509050806104ec57600080fd5b50505050565b60606000805461050190610734565b80601f016020809104026020016040519081016040528092919081815260200182805461052d90610734565b801561057a5780601f1061054f5761010080835404028352916020019161057a565b820191906000526020600020905b81548152906001019060200180831161055d57829003601f168201915b5050505050905090565b600260009054906101000a900473ffffffffffffffffffffffffffffffffffffffff1681565b6000600154905090565b60015481565b600081519050919050565b600082825260208201905092915050565b60005b838110156105f45780820151818401526020810190506105d9565b83811115610603576000848401525b50505050565b6000601f19601f8301169050919050565b6000610625826105ba565b61062f81856105c5565b935061063f8185602086016105d6565b61064881610609565b840191505092915050565b6000602082019050818103600083015261066d818461061a565b905092915050565b600073ffffffffffffffffffffffffffffffffffffffff82169050919050565b60006106a082610675565b9050919050565b6106b081610695565b82525050565b60006020820190506106cb60008301846106a7565b92915050565b6000819050919050565b6106e4816106d1565b82525050565b60006020820190506106ff60008301846106db565b92915050565b7f4e487b7100000000000000000000000000000000000000000000000000000000600052602260045260246000fd5b6000600282049050600182168061074c57607f821691505b60208210810361075f5761075e610705565b5b50919050565b600080fd5b610773816106d1565b811461077e57600080fd5b50565b6000815190506107908161076a565b92915050565b6000602082840312156107ac576107ab610765565b5b60006107ba84828501610781565b91505092915050565b7f596f752063616e206e6f74206265742062656c6f7720746865206d696e696d7560008201527f6d207374616b65206f66206576656e7400000000000000000000000000000000602082015250565b600061081f6030836105c5565b915061082a826107c3565b604082019050919050565b6000602082019050818103600083015261084e81610812565b9050919050565b600060808201905061086a60008301876106a7565b61087760208301866106a7565b61088460408301856106a7565b61089160608301846106db565b95945050505050565b6108a381610695565b81146108ae57600080fd5b50565b6000815190506108c08161089a565b92915050565b6000602082840312156108dc576108db610765565b5b60006108ea848285016108b1565b91505092915050565b7f4e487b7100000000000000000000000000000000000000000000000000000000600052601160045260246000fd5b600061092d826106d1565b9150610938836106d1565b9250827fffffffffffffffffffffffffffffffffffffffffffffffffffffffffffffffff0382111561096d5761096c6108f3565b5b828201905092915050565b600081905092915050565b50565b6000610993600083610978565b915061099e82610983565b600082019050919050565b60006109b482610986565b915081905091905056fea26469706673582212202343ab54ccf566fa81254ec300c957bb5c2ec48a19dc8d6f46bdf875eb2cc6e564736f6c634300080d0033a2646970667358221220af07bb864ee486a4c644a31497ff14579de27de354f1841b2d1f01eeece54ce064736f6c634300080d0033",
  "immutableReferences": {},
  "source": "// SPDX-License-Identifier: MIT\npragma solidity ^0.8.4;\n\nimport \"./Pools.sol\";\n\ncontract PoolsFactory {\n    // All market address with their list of pools\n    mapping (address => address[]) marketPools;\n\n    event PoolCreated(string name, address marketAddress, address eventAddress);\n    \n    function createPool(string memory _name, address _eventAddress, address _marketAddress) external returns (address) {\n        Pool pool = new Pool(_name, _eventAddress, _marketAddress);\n        marketPools[_marketAddress].push(address(pool));\n\n        emit PoolCreated(_name, _marketAddress, _eventAddress);\n\n        return address(pool);\n    }\n\n    function getPoolsOfMarket(address _marketAddress) external view returns(address[] memory){\n        return marketPools[_marketAddress];\n    }\n    \n}",
  "sourcePath": "/Users/wizardom/projects/crypto/web3bets_smartcontract/contracts/PoolsFactory.sol",
  "compiler": {
    "name": "solc",
    "version": "0.8.13+commit.abaa5c0e.Emscripten.clang"
  },
  "schemaVersion": "3.4.7",
  "updatedAt": "2022-07-23T13:01:44.984Z",
  "devdoc": {
    "kind": "dev",
    "methods": {},
    "version": 1
  },
  "userdoc": {
    "kind": "user",
    "methods": {},
    "version": 1
  }
}