{
  "contractName": "Pool",
  "abi": [
    {
      "inputs": [
        {
          "internalType": "string",
          "name": "_name",
          "type": "string"
        },
        {
          "internalType": "address",
          "name": "_eventAddress",
          "type": "address"
        },
        {
          "internalType": "address",
          "name": "_marketAddress",
          "type": "address"
        },
        {
          "internalType": "address",
          "name": "_betsFactoryAddress",
          "type": "address"
        },
        {
          "internalType": "uint256",
          "name": "_minimumStake",
          "type": "uint256"
        }
      ],
      "stateMutability": "nonpayable",
      "type": "constructor"
    },
    {
      "inputs": [
        {
          "internalType": "uint256",
          "name": "",
          "type": "uint256"
        }
      ],
      "name": "betAddresses",
      "outputs": [
        {
          "internalType": "address",
          "name": "",
          "type": "address"
        }
      ],
      "stateMutability": "view",
      "type": "function",
      "constant": true
    },
    {
      "inputs": [],
      "name": "betsFactoryAddress",
      "outputs": [
        {
          "internalType": "address",
          "name": "",
          "type": "address"
        }
      ],
      "stateMutability": "view",
      "type": "function",
      "constant": true
    },
    {
      "inputs": [],
      "name": "minimumStake",
      "outputs": [
        {
          "internalType": "uint256",
          "name": "",
          "type": "uint256"
        }
      ],
      "stateMutability": "view",
      "type": "function",
      "constant": true
    },
    {
      "inputs": [],
      "name": "name",
      "outputs": [
        {
          "internalType": "string",
          "name": "",
          "type": "string"
        }
      ],
      "stateMutability": "view",
      "type": "function",
      "constant": true
    },
    {
      "inputs": [],
      "name": "totalStake",
      "outputs": [
        {
          "internalType": "uint256",
          "name": "",
          "type": "uint256"
        }
      ],
      "stateMutability": "view",
      "type": "function",
      "constant": true
    },
    {
      "inputs": [],
      "name": "bet",
      "outputs": [],
      "stateMutability": "payable",
      "type": "function",
      "payable": true
    },
    {
      "inputs": [],
      "name": "getName",
      "outputs": [
        {
          "internalType": "string",
          "name": "",
          "type": "string"
        }
      ],
      "stateMutability": "view",
      "type": "function",
      "constant": true
    },
    {
      "inputs": [],
      "name": "getTotalStake",
      "outputs": [
        {
          "internalType": "uint256",
          "name": "",
          "type": "uint256"
        }
      ],
      "stateMutability": "view",
      "type": "function",
      "constant": true
    }
  ],
  "bytecode": "0x60806040523480156200001157600080fd5b5060405162000f5e38038062000f5e833981810160405281019062000037919062000412565b84600090805190602001906200004f92919062000125565b5083600560006101000a81548173ffffffffffffffffffffffffffffffffffffffff021916908373ffffffffffffffffffffffffffffffffffffffff16021790555082600660006101000a81548173ffffffffffffffffffffffffffffffffffffffff021916908373ffffffffffffffffffffffffffffffffffffffff16021790555081600260006101000a81548173ffffffffffffffffffffffffffffffffffffffff021916908373ffffffffffffffffffffffffffffffffffffffff1602179055508060078190555050505050506200051d565b8280546200013390620004e8565b90600052602060002090601f016020900481019282620001575760008555620001a3565b82601f106200017257805160ff1916838001178555620001a3565b82800160010185558215620001a3579182015b82811115620001a257825182559160200191906001019062000185565b5b509050620001b29190620001b6565b5090565b5b80821115620001d1576000816000905550600101620001b7565b5090565b6000604051905090565b600080fd5b600080fd5b600080fd5b600080fd5b6000601f19601f8301169050919050565b7f4e487b7100000000000000000000000000000000000000000000000000000000600052604160045260246000fd5b6200023e82620001f3565b810181811067ffffffffffffffff8211171562000260576200025f62000204565b5b80604052505050565b600062000275620001d5565b905062000283828262000233565b919050565b600067ffffffffffffffff821115620002a657620002a562000204565b5b620002b182620001f3565b9050602081019050919050565b60005b83811015620002de578082015181840152602081019050620002c1565b83811115620002ee576000848401525b50505050565b60006200030b620003058462000288565b62000269565b9050828152602081018484840111156200032a5762000329620001ee565b5b62000337848285620002be565b509392505050565b600082601f830112620003575762000356620001e9565b5b815162000369848260208601620002f4565b91505092915050565b600073ffffffffffffffffffffffffffffffffffffffff82169050919050565b60006200039f8262000372565b9050919050565b620003b18162000392565b8114620003bd57600080fd5b50565b600081519050620003d181620003a6565b92915050565b6000819050919050565b620003ec81620003d7565b8114620003f857600080fd5b50565b6000815190506200040c81620003e1565b92915050565b600080600080600060a08688031215620004315762000430620001df565b5b600086015167ffffffffffffffff811115620004525762000451620001e4565b5b62000460888289016200033f565b95505060206200047388828901620003c0565b94505060406200048688828901620003c0565b93505060606200049988828901620003c0565b9250506080620004ac88828901620003fb565b9150509295509295909350565b7f4e487b7100000000000000000000000000000000000000000000000000000000600052602260045260246000fd5b600060028204905060018216806200050157607f821691505b602082108103620005175762000516620004b9565b5b50919050565b610a31806200052d6000396000f3fe60806040526004361061007b5760003560e01c80634df179821161004e5780634df179821461010b5780637bc74225146101485780638b0e9f3f14610173578063ec5ffac21461019e5761007b565b806306fdde031461008057806311610c25146100ab57806317d7de7c146100b5578063448e9117146100e0575b600080fd5b34801561008c57600080fd5b506100956101c9565b6040516100a29190610690565b60405180910390f35b6100b3610257565b005b3480156100c157600080fd5b506100ca6104ea565b6040516100d79190610690565b60405180910390f35b3480156100ec57600080fd5b506100f561057c565b60405161010291906106f3565b60405180910390f35b34801561011757600080fd5b50610132600480360381019061012d9190610749565b6105a2565b60405161013f91906106f3565b60405180910390f35b34801561015457600080fd5b5061015d6105e1565b60405161016a9190610785565b60405180910390f35b34801561017f57600080fd5b506101886105eb565b6040516101959190610785565b60405180910390f35b3480156101aa57600080fd5b506101b36105f1565b6040516101c09190610785565b60405180910390f35b600080546101d6906107cf565b80601f0160208091040260200160405190810160405280929190818152602001828054610202906107cf565b801561024f5780601f106102245761010080835404028352916020019161024f565b820191906000526020600020905b81548152906001019060200180831161023257829003601f168201915b505050505081565b60075434101561029c576040517f08c379a000000000000000000000000000000000000000000000000000000000815260040161029390610872565b60405180910390fd5b6000600260009054906101000a900473ffffffffffffffffffffffffffffffffffffffff16905060008173ffffffffffffffffffffffffffffffffffffffff16637700cb83600660009054906101000a900473ffffffffffffffffffffffffffffffffffffffff16600560009054906101000a900473ffffffffffffffffffffffffffffffffffffffff1630346040518563ffffffff1660e01b81526004016103489493929190610892565b6020604051808303816000875af1158015610367573d6000803e3d6000fd5b505050506040513d601f19601f8201168201806040525081019061038b9190610903565b9050346001600082825461039f919061095f565b9250508190555034600360003373ffffffffffffffffffffffffffffffffffffffff1673ffffffffffffffffffffffffffffffffffffffff168152602001908152602001600020819055506004819080600181540180825580915050600190039060005260206000200160009091909190916101000a81548173ffffffffffffffffffffffffffffffffffffffff021916908373ffffffffffffffffffffffffffffffffffffffff1602179055506000600660009054906101000a900473ffffffffffffffffffffffffffffffffffffffff1673ffffffffffffffffffffffffffffffffffffffff1634604051610495906109e6565b60006040518083038185875af1925050503d80600081146104d2576040519150601f19603f3d011682016040523d82523d6000602084013e6104d7565b606091505b50509050806104e557600080fd5b505050565b6060600080546104f9906107cf565b80601f0160208091040260200160405190810160405280929190818152602001828054610525906107cf565b80156105725780601f1061054757610100808354040283529160200191610572565b820191906000526020600020905b81548152906001019060200180831161055557829003601f168201915b5050505050905090565b600260009054906101000a900473ffffffffffffffffffffffffffffffffffffffff1681565b600481815481106105b257600080fd5b906000526020600020016000915054906101000a900473ffffffffffffffffffffffffffffffffffffffff1681565b6000600154905090565b60015481565b60075481565b600081519050919050565b600082825260208201905092915050565b60005b83811015610631578082015181840152602081019050610616565b83811115610640576000848401525b50505050565b6000601f19601f8301169050919050565b6000610662826105f7565b61066c8185610602565b935061067c818560208601610613565b61068581610646565b840191505092915050565b600060208201905081810360008301526106aa8184610657565b905092915050565b600073ffffffffffffffffffffffffffffffffffffffff82169050919050565b60006106dd826106b2565b9050919050565b6106ed816106d2565b82525050565b600060208201905061070860008301846106e4565b92915050565b600080fd5b6000819050919050565b61072681610713565b811461073157600080fd5b50565b6000813590506107438161071d565b92915050565b60006020828403121561075f5761075e61070e565b5b600061076d84828501610734565b91505092915050565b61077f81610713565b82525050565b600060208201905061079a6000830184610776565b92915050565b7f4e487b7100000000000000000000000000000000000000000000000000000000600052602260045260246000fd5b600060028204905060018216806107e757607f821691505b6020821081036107fa576107f96107a0565b5b50919050565b7f596f752063616e206e6f74206265742062656c6f7720746865206d696e696d7560008201527f6d207374616b65206f66206576656e7400000000000000000000000000000000602082015250565b600061085c603083610602565b915061086782610800565b604082019050919050565b6000602082019050818103600083015261088b8161084f565b9050919050565b60006080820190506108a760008301876106e4565b6108b460208301866106e4565b6108c160408301856106e4565b6108ce6060830184610776565b95945050505050565b6108e0816106d2565b81146108eb57600080fd5b50565b6000815190506108fd816108d7565b92915050565b6000602082840312156109195761091861070e565b5b6000610927848285016108ee565b91505092915050565b7f4e487b7100000000000000000000000000000000000000000000000000000000600052601160045260246000fd5b600061096a82610713565b915061097583610713565b9250827fffffffffffffffffffffffffffffffffffffffffffffffffffffffffffffffff038211156109aa576109a9610930565b5b828201905092915050565b600081905092915050565b50565b60006109d06000836109b5565b91506109db826109c0565b600082019050919050565b60006109f1826109c3565b915081905091905056fea26469706673582212202ad157335f4c031c5dc49332bf335b7c2b23cd10469d22d30d792598cb317bec64736f6c634300080d0033",
  "immutableReferences": {},
  "source": "pragma solidity ^0.8.4;\nimport \"./interface/IWeb3BetsPoolsV1.sol\";\nimport \"./interface/IWeb3BetsEventsV1.sol\";\n// SPDX-License-Identifier: MIT\nimport \"./Bets.sol\";\n\nimport \"./BetsFactory.sol\";\n\n/// @author Ibekason Alexander Onyebuchi\n/// @title Pool Contract\n/// @notice Contain function signatures for creating pools in a\n/// market\n\ncontract Pool is IWeb3BetsPoolsV1 {\n    string public name;\n\n    uint256 public totalStake;\n\n    address public betsFactoryAddress;\n\n    mapping(address => uint256) userStakes;\n\n    address[] public betAddresses;\n\n    address private eventAddress;\n\n    address private marketAddress;\n\n    uint public minimumStake;\n\n\n    modifier aboveMinimumStake() {\n        require(\n            msg.value >= minimumStake,\n            \"You can not bet below the minimum stake of event\"\n        );\n        _;\n    }\n\n    constructor(\n        string memory _name,\n        address _eventAddress,\n        address _marketAddress,\n        address _betsFactoryAddress,\n        uint _minimumStake\n    ) {\n        name = _name;\n        eventAddress = _eventAddress;\n        marketAddress = _marketAddress;\n        betsFactoryAddress = _betsFactoryAddress;\n        minimumStake = _minimumStake;\n    }\n\n    function bet() public payable override aboveMinimumStake {\n        BetsFactory betsFactory = BetsFactory(betsFactoryAddress);\n        address betAddress = betsFactory.createBet(\n            marketAddress,\n            eventAddress,\n            address(this),\n            msg.value\n        );\n        totalStake += msg.value;\n        userStakes[msg.sender] = msg.value;\n        betAddresses.push(betAddress);\n        (bool sentBetFundToMarket, ) = marketAddress.call{value: msg.value}(\n            \"\"\n        );\n\n        if (!sentBetFundToMarket){\n            revert();\n        }\n    }\n\n    function getName() external view override returns (string memory) {\n        return name;\n    }\n\n    function getTotalStake() external view returns (uint) {\n        return totalStake;\n    }\n}\n",
  "sourcePath": "/Users/wizardom/projects/crypto/web3bets_smartcontract/contracts/Pools.sol",
  "compiler": {
    "name": "solc",
    "version": "0.8.13+commit.abaa5c0e.Emscripten.clang"
  },
  "schemaVersion": "3.4.7",
  "updatedAt": "2022-07-25T11:22:14.938Z",
  "networkType": "ethereum",
  "devdoc": {
    "author": "Ibekason Alexander Onyebuchi",
    "kind": "dev",
    "methods": {},
    "title": "Pool Contract",
    "version": 1
  },
  "userdoc": {
    "kind": "user",
    "methods": {},
    "notice": "Contain function signatures for creating pools in a market",
    "version": 1
  }
}