{
  "contractName": "Pool",
  "abi": [
    {
      "inputs": [
        {
          "internalType": "string",
          "name": "_name",
          "type": "string"
        },
        {
          "internalType": "address",
          "name": "_eventAddress",
          "type": "address"
        },
        {
          "internalType": "address",
          "name": "_marketAddress",
          "type": "address"
        },
        {
          "internalType": "address",
          "name": "_betsFactoryAddress",
          "type": "address"
        }
      ],
      "stateMutability": "nonpayable",
      "type": "constructor"
    },
    {
      "inputs": [],
      "name": "betsFactoryAddress",
      "outputs": [
        {
          "internalType": "address",
          "name": "",
          "type": "address"
        }
      ],
      "stateMutability": "view",
      "type": "function"
    },
    {
      "inputs": [],
      "name": "name",
      "outputs": [
        {
          "internalType": "string",
          "name": "",
          "type": "string"
        }
      ],
      "stateMutability": "view",
      "type": "function"
    },
    {
      "inputs": [],
      "name": "totalStake",
      "outputs": [
        {
          "internalType": "uint256",
          "name": "",
          "type": "uint256"
        }
      ],
      "stateMutability": "view",
      "type": "function"
    },
    {
      "inputs": [],
      "name": "bet",
      "outputs": [],
      "stateMutability": "payable",
      "type": "function"
    },
    {
      "inputs": [],
      "name": "getName",
      "outputs": [
        {
          "internalType": "string",
          "name": "",
          "type": "string"
        }
      ],
      "stateMutability": "view",
      "type": "function"
    },
    {
      "inputs": [],
      "name": "getTotalStake",
      "outputs": [
        {
          "internalType": "uint256",
          "name": "",
          "type": "uint256"
        }
      ],
      "stateMutability": "view",
      "type": "function"
    }
  ],
  "bytecode": "0x60806040523480156200001157600080fd5b5060405162000ec838038062000ec88339818101604052810190620000379190620003cf565b83600090805190602001906200004f9291906200011d565b5082600560006101000a81548173ffffffffffffffffffffffffffffffffffffffff021916908373ffffffffffffffffffffffffffffffffffffffff16021790555081600660006101000a81548173ffffffffffffffffffffffffffffffffffffffff021916908373ffffffffffffffffffffffffffffffffffffffff16021790555080600260006101000a81548173ffffffffffffffffffffffffffffffffffffffff021916908373ffffffffffffffffffffffffffffffffffffffff16021790555050505050620004c4565b8280546200012b906200048f565b90600052602060002090601f0160209004810192826200014f57600085556200019b565b82601f106200016a57805160ff19168380011785556200019b565b828001600101855582156200019b579182015b828111156200019a5782518255916020019190600101906200017d565b5b509050620001aa9190620001ae565b5090565b5b80821115620001c9576000816000905550600101620001af565b5090565b6000604051905090565b600080fd5b600080fd5b600080fd5b600080fd5b6000601f19601f8301169050919050565b7f4e487b7100000000000000000000000000000000000000000000000000000000600052604160045260246000fd5b6200023682620001eb565b810181811067ffffffffffffffff82111715620002585762000257620001fc565b5b80604052505050565b60006200026d620001cd565b90506200027b82826200022b565b919050565b600067ffffffffffffffff8211156200029e576200029d620001fc565b5b620002a982620001eb565b9050602081019050919050565b60005b83811015620002d6578082015181840152602081019050620002b9565b83811115620002e6576000848401525b50505050565b600062000303620002fd8462000280565b62000261565b905082815260208101848484011115620003225762000321620001e6565b5b6200032f848285620002b6565b509392505050565b600082601f8301126200034f576200034e620001e1565b5b815162000361848260208601620002ec565b91505092915050565b600073ffffffffffffffffffffffffffffffffffffffff82169050919050565b600062000397826200036a565b9050919050565b620003a9816200038a565b8114620003b557600080fd5b50565b600081519050620003c9816200039e565b92915050565b60008060008060808587031215620003ec57620003eb620001d7565b5b600085015167ffffffffffffffff8111156200040d576200040c620001dc565b5b6200041b8782880162000337565b94505060206200042e87828801620003b8565b93505060406200044187828801620003b8565b92505060606200045487828801620003b8565b91505092959194509250565b7f4e487b7100000000000000000000000000000000000000000000000000000000600052602260045260246000fd5b60006002820490506001821680620004a857607f821691505b602082108103620004be57620004bd62000460565b5b50919050565b6109f480620004d46000396000f3fe6080604052600436106100555760003560e01c806306fdde031461005a57806311610c251461008557806317d7de7c1461008f578063448e9117146100ba5780637bc74225146100e55780638b0e9f3f14610110575b600080fd5b34801561006657600080fd5b5061006f61013b565b60405161007c9190610653565b60405180910390f35b61008d6101c9565b005b34801561009b57600080fd5b506100a46104f2565b6040516100b19190610653565b60405180910390f35b3480156100c657600080fd5b506100cf610584565b6040516100dc91906106b6565b60405180910390f35b3480156100f157600080fd5b506100fa6105aa565b60405161010791906106ea565b60405180910390f35b34801561011c57600080fd5b506101256105b4565b60405161013291906106ea565b60405180910390f35b6000805461014890610734565b80601f016020809104026020016040519081016040528092919081815260200182805461017490610734565b80156101c15780601f10610196576101008083540402835291602001916101c1565b820191906000526020600020905b8154815290600101906020018083116101a457829003601f168201915b505050505081565b6000600560009054906101000a900473ffffffffffffffffffffffffffffffffffffffff1690508073ffffffffffffffffffffffffffffffffffffffff1663d9bbd2786040518163ffffffff1660e01b81526004016020604051808303816000875af115801561023d573d6000803e3d6000fd5b505050506040513d601f19601f820116820180604052508101906102619190610796565b3410156102a3576040517f08c379a000000000000000000000000000000000000000000000000000000000815260040161029a90610835565b60405180910390fd5b6000600260009054906101000a900473ffffffffffffffffffffffffffffffffffffffff16905060008173ffffffffffffffffffffffffffffffffffffffff16637700cb83600660009054906101000a900473ffffffffffffffffffffffffffffffffffffffff16600560009054906101000a900473ffffffffffffffffffffffffffffffffffffffff1630346040518563ffffffff1660e01b815260040161034f9493929190610855565b6020604051808303816000875af115801561036e573d6000803e3d6000fd5b505050506040513d601f19601f8201168201806040525081019061039291906108c6565b905034600160008282546103a69190610922565b9250508190555034600360003373ffffffffffffffffffffffffffffffffffffffff1673ffffffffffffffffffffffffffffffffffffffff168152602001908152602001600020819055506004819080600181540180825580915050600190039060005260206000200160009091909190916101000a81548173ffffffffffffffffffffffffffffffffffffffff021916908373ffffffffffffffffffffffffffffffffffffffff1602179055506000600660009054906101000a900473ffffffffffffffffffffffffffffffffffffffff1673ffffffffffffffffffffffffffffffffffffffff163460405161049c906109a9565b60006040518083038185875af1925050503d80600081146104d9576040519150601f19603f3d011682016040523d82523d6000602084013e6104de565b606091505b50509050806104ec57600080fd5b50505050565b60606000805461050190610734565b80601f016020809104026020016040519081016040528092919081815260200182805461052d90610734565b801561057a5780601f1061054f5761010080835404028352916020019161057a565b820191906000526020600020905b81548152906001019060200180831161055d57829003601f168201915b5050505050905090565b600260009054906101000a900473ffffffffffffffffffffffffffffffffffffffff1681565b6000600154905090565b60015481565b600081519050919050565b600082825260208201905092915050565b60005b838110156105f45780820151818401526020810190506105d9565b83811115610603576000848401525b50505050565b6000601f19601f8301169050919050565b6000610625826105ba565b61062f81856105c5565b935061063f8185602086016105d6565b61064881610609565b840191505092915050565b6000602082019050818103600083015261066d818461061a565b905092915050565b600073ffffffffffffffffffffffffffffffffffffffff82169050919050565b60006106a082610675565b9050919050565b6106b081610695565b82525050565b60006020820190506106cb60008301846106a7565b92915050565b6000819050919050565b6106e4816106d1565b82525050565b60006020820190506106ff60008301846106db565b92915050565b7f4e487b7100000000000000000000000000000000000000000000000000000000600052602260045260246000fd5b6000600282049050600182168061074c57607f821691505b60208210810361075f5761075e610705565b5b50919050565b600080fd5b610773816106d1565b811461077e57600080fd5b50565b6000815190506107908161076a565b92915050565b6000602082840312156107ac576107ab610765565b5b60006107ba84828501610781565b91505092915050565b7f596f752063616e206e6f74206265742062656c6f7720746865206d696e696d7560008201527f6d207374616b65206f66206576656e7400000000000000000000000000000000602082015250565b600061081f6030836105c5565b915061082a826107c3565b604082019050919050565b6000602082019050818103600083015261084e81610812565b9050919050565b600060808201905061086a60008301876106a7565b61087760208301866106a7565b61088460408301856106a7565b61089160608301846106db565b95945050505050565b6108a381610695565b81146108ae57600080fd5b50565b6000815190506108c08161089a565b92915050565b6000602082840312156108dc576108db610765565b5b60006108ea848285016108b1565b91505092915050565b7f4e487b7100000000000000000000000000000000000000000000000000000000600052601160045260246000fd5b600061092d826106d1565b9150610938836106d1565b9250827fffffffffffffffffffffffffffffffffffffffffffffffffffffffffffffffff0382111561096d5761096c6108f3565b5b828201905092915050565b600081905092915050565b50565b6000610993600083610978565b915061099e82610983565b600082019050919050565b60006109b482610986565b915081905091905056fea2646970667358221220e16f314d3948e28656f07fdbb9e0c515b685a319e400946f960be6f44565cdd164736f6c634300080d0033",
  "immutableReferences": {},
  "source": "pragma solidity ^0.8.4;\nimport \"./interface/IWeb3BetsPoolsV1.sol\";\nimport \"./interface/IWeb3BetsEventsV1.sol\";\n// SPDX-License-Identifier: MIT\nimport \"./Bets.sol\";\n\nimport \"./BetsFactory.sol\";\n\n/// @author Ibekason Alexander Onyebuchi\n/// @title Pool Contract\n/// @notice Contain function signatures for creating pools in a\n/// market\n\ncontract Pool is IWeb3BetsPoolsV1 {\n    string public name;\n\n    uint256 public totalStake;\n\n    address public betsFactoryAddress;\n\n    mapping(address => uint256) userStakes;\n\n    address[] betAddresses;\n\n    address private eventAddress;\n\n    address private marketAddress;\n\n\n    modifier aboveMinimumStake() {\n        IWeb3BetsEventV1 poolEvent = IWeb3BetsEventV1(eventAddress);\n        require(\n            msg.value >= poolEvent.getMinimumStake(),\n            \"You can not bet below the minimum stake of event\"\n        );\n        _;\n    }\n\n    constructor(\n        string memory _name,\n        address _eventAddress,\n        address _marketAddress,\n        address _betsFactoryAddress\n    ) {\n        name = _name;\n        eventAddress = _eventAddress;\n        marketAddress = _marketAddress;\n        betsFactoryAddress = _betsFactoryAddress;\n    }\n\n    function bet() public payable override aboveMinimumStake {\n        BetsFactory betsFactory = BetsFactory(betsFactoryAddress);\n        address betAddress = betsFactory.createBet(\n            marketAddress,\n            eventAddress,\n            address(this),\n            msg.value\n        );\n        totalStake += msg.value;\n        userStakes[msg.sender] = msg.value;\n        betAddresses.push(betAddress);\n        (bool sentBetFundToMarket, ) = marketAddress.call{value: msg.value}(\n            \"\"\n        );\n\n        if (!sentBetFundToMarket){\n            revert();\n        }\n    }\n\n    function getName() external view override returns (string memory) {\n        return name;\n    }\n\n    function getTotalStake() external view returns (uint) {\n        return totalStake;\n    }\n}\n",
  "sourcePath": "/Users/wizardom/projects/crypto/web3bets_smartcontract/contracts/Pools.sol",
  "compiler": {
    "name": "solc",
    "version": "0.8.13+commit.abaa5c0e.Emscripten.clang"
  },
  "schemaVersion": "3.4.7",
  "updatedAt": "2022-07-23T16:02:35.376Z",
  "devdoc": {
    "author": "Ibekason Alexander Onyebuchi",
    "kind": "dev",
    "methods": {},
    "title": "Pool Contract",
    "version": 1
  },
  "userdoc": {
    "kind": "user",
    "methods": {},
    "notice": "Contain function signatures for creating pools in a market",
    "version": 1
  }
}