{
  "contractName": "Pool",
  "abi": [
    {
      "inputs": [
        {
          "internalType": "string",
          "name": "_name",
          "type": "string"
        },
        {
          "internalType": "address",
          "name": "_eventAddress",
          "type": "address"
        },
        {
          "internalType": "address",
          "name": "_marketAddress",
          "type": "address"
        },
        {
          "internalType": "address",
          "name": "_betsFactoryAddress",
          "type": "address"
        },
        {
          "internalType": "uint256",
          "name": "_minimumStake",
          "type": "uint256"
        }
      ],
      "stateMutability": "nonpayable",
      "type": "constructor"
    },
    {
      "stateMutability": "payable",
      "type": "fallback"
    },
    {
      "inputs": [
        {
          "internalType": "uint256",
          "name": "",
          "type": "uint256"
        }
      ],
      "name": "betAddresses",
      "outputs": [
        {
          "internalType": "address",
          "name": "",
          "type": "address"
        }
      ],
      "stateMutability": "view",
      "type": "function"
    },
    {
      "inputs": [],
      "name": "betsFactoryAddress",
      "outputs": [
        {
          "internalType": "address",
          "name": "",
          "type": "address"
        }
      ],
      "stateMutability": "view",
      "type": "function"
    },
    {
      "inputs": [],
      "name": "minimumStake",
      "outputs": [
        {
          "internalType": "uint256",
          "name": "",
          "type": "uint256"
        }
      ],
      "stateMutability": "view",
      "type": "function"
    },
    {
      "inputs": [],
      "name": "name",
      "outputs": [
        {
          "internalType": "string",
          "name": "",
          "type": "string"
        }
      ],
      "stateMutability": "view",
      "type": "function"
    },
    {
      "inputs": [],
      "name": "totalStake",
      "outputs": [
        {
          "internalType": "uint256",
          "name": "",
          "type": "uint256"
        }
      ],
      "stateMutability": "view",
      "type": "function"
    },
    {
      "inputs": [
        {
          "internalType": "address",
          "name": "",
          "type": "address"
        }
      ],
      "name": "userStakes",
      "outputs": [
        {
          "internalType": "uint256",
          "name": "",
          "type": "uint256"
        }
      ],
      "stateMutability": "view",
      "type": "function"
    },
    {
      "inputs": [],
      "name": "bet",
      "outputs": [],
      "stateMutability": "payable",
      "type": "function"
    },
    {
      "inputs": [],
      "name": "getName",
      "outputs": [
        {
          "internalType": "string",
          "name": "",
          "type": "string"
        }
      ],
      "stateMutability": "view",
      "type": "function"
    },
    {
      "inputs": [],
      "name": "getBalance",
      "outputs": [
        {
          "internalType": "uint256",
          "name": "",
          "type": "uint256"
        }
      ],
      "stateMutability": "view",
      "type": "function"
    },
    {
      "inputs": [],
      "name": "getTotalStake",
      "outputs": [
        {
          "internalType": "uint256",
          "name": "",
          "type": "uint256"
        }
      ],
      "stateMutability": "view",
      "type": "function"
    },
    {
      "inputs": [],
      "name": "getBets",
      "outputs": [
        {
          "internalType": "address[]",
          "name": "",
          "type": "address[]"
        }
      ],
      "stateMutability": "view",
      "type": "function"
    },
    {
      "inputs": [
        {
          "internalType": "address",
          "name": "user",
          "type": "address"
        }
      ],
      "name": "getUserStake",
      "outputs": [
        {
          "internalType": "uint256",
          "name": "",
          "type": "uint256"
        }
      ],
      "stateMutability": "view",
      "type": "function"
    },
    {
      "inputs": [
        {
          "internalType": "address",
          "name": "better",
          "type": "address"
        }
      ],
      "name": "getBettersBets",
      "outputs": [
        {
          "internalType": "address[]",
          "name": "",
          "type": "address[]"
        }
      ],
      "stateMutability": "view",
      "type": "function"
    }
  ],
  "bytecode": "0x60806040523480156200001157600080fd5b50604051620017c6380380620017c6833981810160405281019062000037919062000412565b84600090805190602001906200004f92919062000125565b5083600660006101000a81548173ffffffffffffffffffffffffffffffffffffffff021916908373ffffffffffffffffffffffffffffffffffffffff16021790555082600760006101000a81548173ffffffffffffffffffffffffffffffffffffffff021916908373ffffffffffffffffffffffffffffffffffffffff16021790555081600260006101000a81548173ffffffffffffffffffffffffffffffffffffffff021916908373ffffffffffffffffffffffffffffffffffffffff1602179055508060088190555050505050506200051d565b8280546200013390620004e8565b90600052602060002090601f016020900481019282620001575760008555620001a3565b82601f106200017257805160ff1916838001178555620001a3565b82800160010185558215620001a3579182015b82811115620001a257825182559160200191906001019062000185565b5b509050620001b29190620001b6565b5090565b5b80821115620001d1576000816000905550600101620001b7565b5090565b6000604051905090565b600080fd5b600080fd5b600080fd5b600080fd5b6000601f19601f8301169050919050565b7f4e487b7100000000000000000000000000000000000000000000000000000000600052604160045260246000fd5b6200023e82620001f3565b810181811067ffffffffffffffff8211171562000260576200025f62000204565b5b80604052505050565b600062000275620001d5565b905062000283828262000233565b919050565b600067ffffffffffffffff821115620002a657620002a562000204565b5b620002b182620001f3565b9050602081019050919050565b60005b83811015620002de578082015181840152602081019050620002c1565b83811115620002ee576000848401525b50505050565b60006200030b620003058462000288565b62000269565b9050828152602081018484840111156200032a5762000329620001ee565b5b62000337848285620002be565b509392505050565b600082601f830112620003575762000356620001e9565b5b815162000369848260208601620002f4565b91505092915050565b600073ffffffffffffffffffffffffffffffffffffffff82169050919050565b60006200039f8262000372565b9050919050565b620003b18162000392565b8114620003bd57600080fd5b50565b600081519050620003d181620003a6565b92915050565b6000819050919050565b620003ec81620003d7565b8114620003f857600080fd5b50565b6000815190506200040c81620003e1565b92915050565b600080600080600060a08688031215620004315762000430620001df565b5b600086015167ffffffffffffffff811115620004525762000451620001e4565b5b62000460888289016200033f565b95505060206200047388828901620003c0565b94505060406200048688828901620003c0565b93505060606200049988828901620003c0565b9250506080620004ac88828901620003fb565b9150509295509295909350565b7f4e487b7100000000000000000000000000000000000000000000000000000000600052602260045260246000fd5b600060028204905060018216806200050157607f821691505b602082108103620005175762000516620004b9565b5b50919050565b611299806200052d6000396000f3fe6080604052600436106100c65760003560e01c80637bc742251161007f578063a6afd5fd11610059578063a6afd5fd146102bd578063bbadc93a146102e8578063bdc11a8e14610325578063ec5ffac214610362576100c7565b80637bc742251461022a5780638b0e9f3f146102555780638da7ad2314610280576100c7565b806306fdde031461013757806311610c251461016257806312065fe01461016c57806317d7de7c14610197578063448e9117146101c25780634df17982146101ed576100c7565b5b34600160008282546100d99190610bce565b9250508190555034600360003373ffffffffffffffffffffffffffffffffffffffff1673ffffffffffffffffffffffffffffffffffffffff168152602001908152602001600020600082825461012f9190610bce565b925050819055005b34801561014357600080fd5b5061014c61038d565b6040516101599190610cbd565b60405180910390f35b61016a61041b565b005b34801561017857600080fd5b506101816108c4565b60405161018e9190610cee565b60405180910390f35b3480156101a357600080fd5b506101ac6108cc565b6040516101b99190610cbd565b60405180910390f35b3480156101ce57600080fd5b506101d761095e565b6040516101e49190610d4a565b60405180910390f35b3480156101f957600080fd5b50610214600480360381019061020f9190610d96565b610984565b6040516102219190610d4a565b60405180910390f35b34801561023657600080fd5b5061023f6109c3565b60405161024c9190610cee565b60405180910390f35b34801561026157600080fd5b5061026a6109cd565b6040516102779190610cee565b60405180910390f35b34801561028c57600080fd5b506102a760048036038101906102a29190610def565b6109d3565b6040516102b49190610cee565b60405180910390f35b3480156102c957600080fd5b506102d26109eb565b6040516102df9190610eda565b60405180910390f35b3480156102f457600080fd5b5061030f600480360381019061030a9190610def565b610a79565b60405161031c9190610cee565b60405180910390f35b34801561033157600080fd5b5061034c60048036038101906103479190610def565b610ac2565b6040516103599190610eda565b60405180910390f35b34801561036e57600080fd5b50610377610b8f565b6040516103849190610cee565b60405180910390f35b6000805461039a90610f2b565b80601f01602080910402602001604051908101604052809291908181526020018280546103c690610f2b565b80156104135780601f106103e857610100808354040283529160200191610413565b820191906000526020600020905b8154815290600101906020018083116103f657829003601f168201915b505050505081565b600854670de0b6b3a76400006104319190610f5c565b341015610473576040517f08c379a000000000000000000000000000000000000000000000000000000000815260040161046a90611028565b60405180910390fd5b6000600660009054906101000a900473ffffffffffffffffffffffffffffffffffffffff16905060008173ffffffffffffffffffffffffffffffffffffffff1663b75b25ec6040518163ffffffff1660e01b81526004016020604051808303816000875af11580156104e9573d6000803e3d6000fd5b505050506040513d601f19601f8201168201806040525081019061050d919061105d565b905060008114610552576040517f08c379a0000000000000000000000000000000000000000000000000000000008152600401610549906110fc565b60405180910390fd5b6000600260009054906101000a900473ffffffffffffffffffffffffffffffffffffffff16905060008173ffffffffffffffffffffffffffffffffffffffff1663934995b4600760009054906101000a900473ffffffffffffffffffffffffffffffffffffffff16600660009054906101000a900473ffffffffffffffffffffffffffffffffffffffff163034336040518663ffffffff1660e01b815260040161060095949392919061111c565b6020604051808303816000875af115801561061f573d6000803e3d6000fd5b505050506040513d601f19601f820116820180604052508101906106439190611184565b9050600460003373ffffffffffffffffffffffffffffffffffffffff1673ffffffffffffffffffffffffffffffffffffffff168152602001908152602001600020819080600181540180825580915050600190039060005260206000200160009091909190916101000a81548173ffffffffffffffffffffffffffffffffffffffff021916908373ffffffffffffffffffffffffffffffffffffffff16021790555034600160008282546106f79190610bce565b9250508190555034600360003373ffffffffffffffffffffffffffffffffffffffff1673ffffffffffffffffffffffffffffffffffffffff168152602001908152602001600020546107499190610bce565b600360003373ffffffffffffffffffffffffffffffffffffffff1673ffffffffffffffffffffffffffffffffffffffff168152602001908152602001600020819055506005819080600181540180825580915050600190039060005260206000200160009091909190916101000a81548173ffffffffffffffffffffffffffffffffffffffff021916908373ffffffffffffffffffffffffffffffffffffffff1602179055506000600760009054906101000a900473ffffffffffffffffffffffffffffffffffffffff1673ffffffffffffffffffffffffffffffffffffffff1634604051610837906111e2565b60006040518083038185875af1925050503d8060008114610874576040519150601f19603f3d011682016040523d82523d6000602084013e610879565b606091505b50509050806108bd576040517f08c379a00000000000000000000000000000000000000000000000000000000081526004016108b490611243565b60405180910390fd5b5050505050565b600047905090565b6060600080546108db90610f2b565b80601f016020809104026020016040519081016040528092919081815260200182805461090790610f2b565b80156109545780601f1061092957610100808354040283529160200191610954565b820191906000526020600020905b81548152906001019060200180831161093757829003601f168201915b5050505050905090565b600260009054906101000a900473ffffffffffffffffffffffffffffffffffffffff1681565b6005818154811061099457600080fd5b906000526020600020016000915054906101000a900473ffffffffffffffffffffffffffffffffffffffff1681565b6000600154905090565b60015481565b60036020528060005260406000206000915090505481565b60606005805480602002602001604051908101604052809291908181526020018280548015610a6f57602002820191906000526020600020905b8160009054906101000a900473ffffffffffffffffffffffffffffffffffffffff1673ffffffffffffffffffffffffffffffffffffffff1681526020019060010190808311610a25575b5050505050905090565b6000600360008373ffffffffffffffffffffffffffffffffffffffff1673ffffffffffffffffffffffffffffffffffffffff168152602001908152602001600020549050919050565b6060600460008373ffffffffffffffffffffffffffffffffffffffff1673ffffffffffffffffffffffffffffffffffffffff168152602001908152602001600020805480602002602001604051908101604052809291908181526020018280548015610b8357602002820191906000526020600020905b8160009054906101000a900473ffffffffffffffffffffffffffffffffffffffff1673ffffffffffffffffffffffffffffffffffffffff1681526020019060010190808311610b39575b50505050509050919050565b60085481565b6000819050919050565b7f4e487b7100000000000000000000000000000000000000000000000000000000600052601160045260246000fd5b6000610bd982610b95565b9150610be483610b95565b9250827fffffffffffffffffffffffffffffffffffffffffffffffffffffffffffffffff03821115610c1957610c18610b9f565b5b828201905092915050565b600081519050919050565b600082825260208201905092915050565b60005b83811015610c5e578082015181840152602081019050610c43565b83811115610c6d576000848401525b50505050565b6000601f19601f8301169050919050565b6000610c8f82610c24565b610c998185610c2f565b9350610ca9818560208601610c40565b610cb281610c73565b840191505092915050565b60006020820190508181036000830152610cd78184610c84565b905092915050565b610ce881610b95565b82525050565b6000602082019050610d036000830184610cdf565b92915050565b600073ffffffffffffffffffffffffffffffffffffffff82169050919050565b6000610d3482610d09565b9050919050565b610d4481610d29565b82525050565b6000602082019050610d5f6000830184610d3b565b92915050565b600080fd5b610d7381610b95565b8114610d7e57600080fd5b50565b600081359050610d9081610d6a565b92915050565b600060208284031215610dac57610dab610d65565b5b6000610dba84828501610d81565b91505092915050565b610dcc81610d29565b8114610dd757600080fd5b50565b600081359050610de981610dc3565b92915050565b600060208284031215610e0557610e04610d65565b5b6000610e1384828501610dda565b91505092915050565b600081519050919050565b600082825260208201905092915050565b6000819050602082019050919050565b610e5181610d29565b82525050565b6000610e638383610e48565b60208301905092915050565b6000602082019050919050565b6000610e8782610e1c565b610e918185610e27565b9350610e9c83610e38565b8060005b83811015610ecd578151610eb48882610e57565b9750610ebf83610e6f565b925050600181019050610ea0565b5085935050505092915050565b60006020820190508181036000830152610ef48184610e7c565b905092915050565b7f4e487b7100000000000000000000000000000000000000000000000000000000600052602260045260246000fd5b60006002820490506001821680610f4357607f821691505b602082108103610f5657610f55610efc565b5b50919050565b6000610f6782610b95565b9150610f7283610b95565b9250817fffffffffffffffffffffffffffffffffffffffffffffffffffffffffffffffff0483118215151615610fab57610faa610b9f565b5b828202905092915050565b7f596f752063616e206e6f74206265742062656c6f7720746865206d696e696d7560008201527f6d207374616b65206f66206576656e7400000000000000000000000000000000602082015250565b6000611012603083610c2f565b915061101d82610fb6565b604082019050919050565b6000602082019050818103600083015261104181611005565b9050919050565b60008151905061105781610d6a565b92915050565b60006020828403121561107357611072610d65565b5b600061108184828501611048565b91505092915050565b7f596f752063616e206e6f7420626574206f6e20612073746172746564206f722060008201527f636f6e636c75646564206576656e740000000000000000000000000000000000602082015250565b60006110e6602f83610c2f565b91506110f18261108a565b604082019050919050565b60006020820190508181036000830152611115816110d9565b9050919050565b600060a0820190506111316000830188610d3b565b61113e6020830187610d3b565b61114b6040830186610d3b565b6111586060830185610cdf565b6111656080830184610d3b565b9695505050505050565b60008151905061117e81610dc3565b92915050565b60006020828403121561119a57611199610d65565b5b60006111a88482850161116f565b91505092915050565b600081905092915050565b50565b60006111cc6000836111b1565b91506111d7826111bc565b600082019050919050565b60006111ed826111bf565b9150819050919050565b7f416e204572726f72206f6363757272656420696e207472616e73616374696f6e600082015250565b600061122d602083610c2f565b9150611238826111f7565b602082019050919050565b6000602082019050818103600083015261125c81611220565b905091905056fea2646970667358221220859ef9aff18dfba1ae98d0d3bd9c3a35c7440e8ff59bedbf8a554c9c7b621bd664736f6c634300080d0033",
  "immutableReferences": {},
  "source": "pragma solidity ^0.8.4;\nimport \"./interface/IWeb3BetsPoolsV1.sol\";\nimport \"./interface/IWeb3BetsEventsV1.sol\";\n// SPDX-License-Identifier: MIT\nimport \"./Bets.sol\";\n\nimport \"./BetsFactory.sol\";\n\n/// @author Ibekason Alexander Onyebuchi\n/// @title Pool Contract\n/// @notice Contain function signatures for creating pools in a\n/// market\n\ncontract Pool is IWeb3BetsPoolsV1 {\n    string public name;\n\n    uint256 public totalStake;\n\n    address public betsFactoryAddress;\n\n    mapping(address => uint256) public userStakes;\n\n    mapping(address => address[]) bettersBets;\n\n    address[] public betAddresses;\n\n    address private eventAddress;\n\n    address private marketAddress;\n\n    uint256 public minimumStake;\n\n    modifier aboveMinimumStake() {\n        require(\n            msg.value >= 1 ether * minimumStake,\n            \"You can not bet below the minimum stake of event\"\n        );\n        _;\n    }\n\n    constructor(\n        string memory _name,\n        address _eventAddress,\n        address _marketAddress,\n        address _betsFactoryAddress,\n        uint256 _minimumStake\n    ) {\n        name = _name;\n        eventAddress = _eventAddress;\n        marketAddress = _marketAddress;\n        betsFactoryAddress = _betsFactoryAddress;\n        minimumStake = _minimumStake;\n    }\n\n    function bet() public payable override aboveMinimumStake {\n        IWeb3BetsEventV1 eventV1 = IWeb3BetsEventV1(eventAddress);\n        uint256 eventStatus = eventV1.getEventStatus();\n        if (eventStatus != 0) {\n            revert(\"You can not bet on a started or concluded event\");\n        }\n\n        BetsFactory betsFactory = BetsFactory(betsFactoryAddress);\n        address betAddress = betsFactory.createBet(\n            marketAddress,\n            eventAddress,\n            address(this),\n            msg.value,\n            msg.sender\n        );\n        bettersBets[msg.sender].push(betAddress);\n        totalStake += msg.value;\n        userStakes[msg.sender] = userStakes[msg.sender] + msg.value;\n        betAddresses.push(betAddress);\n        (bool sentBetFundToMarket, ) = marketAddress.call{value: msg.value}(\"\");\n\n        if (!sentBetFundToMarket) {\n            revert(\"An Error occurred in transaction\");\n        }\n    }\n\n    fallback() external payable {\n        totalStake += msg.value;\n\n        userStakes[msg.sender] += msg.value;\n    }\n\n    function getName() external view override returns (string memory) {\n        return name;\n    }\n\n    function getBalance() external view returns (uint256) {\n        return address(this).balance;\n    }\n\n    function getTotalStake() external view returns (uint256) {\n        return totalStake;\n    }\n\n    function getBets() external view override returns (address[] memory) {\n        return betAddresses;\n    }\n\n    function getUserStake(address user) external view returns (uint256) {\n        return userStakes[user];\n    }\n\n    function getBettersBets(address better) external view returns (address[] memory) {\n        return bettersBets[better];\n    }\n}\n",
  "sourcePath": "/Users/wizardom/projects/crypto/web3bets_smartcontract/contracts/Pools.sol",
  "compiler": {
    "name": "solc",
    "version": "0.8.13+commit.abaa5c0e.Emscripten.clang"
  },
  "schemaVersion": "3.4.7",
  "updatedAt": "2022-07-29T20:35:26.635Z",
  "devdoc": {
    "author": "Ibekason Alexander Onyebuchi",
    "kind": "dev",
    "methods": {},
    "title": "Pool Contract",
    "version": 1
  },
  "userdoc": {
    "kind": "user",
    "methods": {},
    "notice": "Contain function signatures for creating pools in a market",
    "version": 1
  }
}