{
  "contractName": "Pool",
  "abi": [
    {
      "inputs": [
        {
          "internalType": "string",
          "name": "_name",
          "type": "string"
        },
        {
          "internalType": "address",
          "name": "_eventAddress",
          "type": "address"
        },
        {
          "internalType": "address",
          "name": "_marketAddress",
          "type": "address"
        },
        {
          "internalType": "address",
          "name": "_betsFactoryAddress",
          "type": "address"
        }
      ],
      "stateMutability": "nonpayable",
      "type": "constructor"
    },
    {
      "stateMutability": "payable",
      "type": "fallback",
      "payable": true
    },
    {
      "inputs": [
        {
          "internalType": "uint256",
          "name": "",
          "type": "uint256"
        }
      ],
      "name": "betAddresses",
      "outputs": [
        {
          "internalType": "address",
          "name": "",
          "type": "address"
        }
      ],
      "stateMutability": "view",
      "type": "function",
      "constant": true
    },
    {
      "inputs": [],
      "name": "betsFactoryAddress",
      "outputs": [
        {
          "internalType": "address",
          "name": "",
          "type": "address"
        }
      ],
      "stateMutability": "view",
      "type": "function",
      "constant": true
    },
    {
      "inputs": [],
      "name": "minimumStake",
      "outputs": [
        {
          "internalType": "uint256",
          "name": "",
          "type": "uint256"
        }
      ],
      "stateMutability": "view",
      "type": "function",
      "constant": true
    },
    {
      "inputs": [],
      "name": "name",
      "outputs": [
        {
          "internalType": "string",
          "name": "",
          "type": "string"
        }
      ],
      "stateMutability": "view",
      "type": "function",
      "constant": true
    },
    {
      "inputs": [],
      "name": "totalStake",
      "outputs": [
        {
          "internalType": "uint256",
          "name": "",
          "type": "uint256"
        }
      ],
      "stateMutability": "view",
      "type": "function",
      "constant": true
    },
    {
      "inputs": [
        {
          "internalType": "address",
          "name": "",
          "type": "address"
        }
      ],
      "name": "userStakes",
      "outputs": [
        {
          "internalType": "uint256",
          "name": "",
          "type": "uint256"
        }
      ],
      "stateMutability": "view",
      "type": "function",
      "constant": true
    },
    {
      "stateMutability": "payable",
      "type": "receive",
      "payable": true
    },
    {
      "inputs": [],
      "name": "bet",
      "outputs": [],
      "stateMutability": "payable",
      "type": "function",
      "payable": true
    },
    {
      "inputs": [],
      "name": "getName",
      "outputs": [
        {
          "internalType": "string",
          "name": "",
          "type": "string"
        }
      ],
      "stateMutability": "view",
      "type": "function",
      "constant": true
    },
    {
      "inputs": [],
      "name": "getBalance",
      "outputs": [
        {
          "internalType": "uint256",
          "name": "",
          "type": "uint256"
        }
      ],
      "stateMutability": "view",
      "type": "function",
      "constant": true
    },
    {
      "inputs": [],
      "name": "getTotalStake",
      "outputs": [
        {
          "internalType": "uint256",
          "name": "",
          "type": "uint256"
        }
      ],
      "stateMutability": "view",
      "type": "function",
      "constant": true
    },
    {
      "inputs": [],
      "name": "getBets",
      "outputs": [
        {
          "internalType": "address[]",
          "name": "",
          "type": "address[]"
        }
      ],
      "stateMutability": "view",
      "type": "function",
      "constant": true
    },
    {
      "inputs": [
        {
          "internalType": "address",
          "name": "user",
          "type": "address"
        }
      ],
      "name": "getUserStake",
      "outputs": [
        {
          "internalType": "uint256",
          "name": "",
          "type": "uint256"
        }
      ],
      "stateMutability": "view",
      "type": "function",
      "constant": true
    },
    {
      "inputs": [
        {
          "internalType": "address",
          "name": "better",
          "type": "address"
        }
      ],
      "name": "getBettersBets",
      "outputs": [
        {
          "internalType": "address[]",
          "name": "",
          "type": "address[]"
        }
      ],
      "stateMutability": "view",
      "type": "function",
      "constant": true
    },
    {
      "inputs": [],
      "name": "getMinimumStake",
      "outputs": [
        {
          "internalType": "uint256",
          "name": "",
          "type": "uint256"
        }
      ],
      "stateMutability": "nonpayable",
      "type": "function"
    }
  ],
  "bytecode": "0x60806040523480156200001157600080fd5b50604051620017b8380380620017b88339818101604052810190620000379190620003cf565b83600090805190602001906200004f9291906200011d565b5082600660006101000a81548173ffffffffffffffffffffffffffffffffffffffff021916908373ffffffffffffffffffffffffffffffffffffffff16021790555081600760006101000a81548173ffffffffffffffffffffffffffffffffffffffff021916908373ffffffffffffffffffffffffffffffffffffffff16021790555080600260006101000a81548173ffffffffffffffffffffffffffffffffffffffff021916908373ffffffffffffffffffffffffffffffffffffffff16021790555050505050620004c4565b8280546200012b906200048f565b90600052602060002090601f0160209004810192826200014f57600085556200019b565b82601f106200016a57805160ff19168380011785556200019b565b828001600101855582156200019b579182015b828111156200019a5782518255916020019190600101906200017d565b5b509050620001aa9190620001ae565b5090565b5b80821115620001c9576000816000905550600101620001af565b5090565b6000604051905090565b600080fd5b600080fd5b600080fd5b600080fd5b6000601f19601f8301169050919050565b7f4e487b7100000000000000000000000000000000000000000000000000000000600052604160045260246000fd5b6200023682620001eb565b810181811067ffffffffffffffff82111715620002585762000257620001fc565b5b80604052505050565b60006200026d620001cd565b90506200027b82826200022b565b919050565b600067ffffffffffffffff8211156200029e576200029d620001fc565b5b620002a982620001eb565b9050602081019050919050565b60005b83811015620002d6578082015181840152602081019050620002b9565b83811115620002e6576000848401525b50505050565b600062000303620002fd8462000280565b62000261565b905082815260208101848484011115620003225762000321620001e6565b5b6200032f848285620002b6565b509392505050565b600082601f8301126200034f576200034e620001e1565b5b815162000361848260208601620002ec565b91505092915050565b600073ffffffffffffffffffffffffffffffffffffffff82169050919050565b600062000397826200036a565b9050919050565b620003a9816200038a565b8114620003b557600080fd5b50565b600081519050620003c9816200039e565b92915050565b60008060008060808587031215620003ec57620003eb620001d7565b5b600085015167ffffffffffffffff8111156200040d576200040c620001dc565b5b6200041b8782880162000337565b94505060206200042e87828801620003b8565b93505060406200044187828801620003b8565b92505060606200045487828801620003b8565b91505092959194509250565b7f4e487b7100000000000000000000000000000000000000000000000000000000600052602260045260246000fd5b60006002820490506001821680620004a857607f821691505b602082108103620004be57620004bd62000460565b5b50919050565b6112e480620004d46000396000f3fe6080604052600436106100e15760003560e01c80638b0e9f3f1161007f578063bbadc93a11610059578063bbadc93a14610309578063bdc11a8e14610346578063d9bbd27814610383578063ec5ffac2146103ae576100e8565b80638b0e9f3f146102765780638da7ad23146102a1578063a6afd5fd146102de576100e8565b806317d7de7c116100bb57806317d7de7c146101b8578063448e9117146101e35780634df179821461020e5780637bc742251461024b576100e8565b806306fdde031461015857806311610c251461018357806312065fe01461018d576100e8565b366100e857005b34600160008282546100fa9190610c73565b9250508190555034600360003373ffffffffffffffffffffffffffffffffffffffff1673ffffffffffffffffffffffffffffffffffffffff16815260200190815260200160002060008282546101509190610c73565b925050819055005b34801561016457600080fd5b5061016d6103d9565b60405161017a9190610d62565b60405180910390f35b61018b610467565b005b34801561019957600080fd5b506101a26108ca565b6040516101af9190610d93565b60405180910390f35b3480156101c457600080fd5b506101cd6108d2565b6040516101da9190610d62565b60405180910390f35b3480156101ef57600080fd5b506101f8610964565b6040516102059190610def565b60405180910390f35b34801561021a57600080fd5b5061023560048036038101906102309190610e3b565b61098a565b6040516102429190610def565b60405180910390f35b34801561025757600080fd5b506102606109c9565b60405161026d9190610d93565b60405180910390f35b34801561028257600080fd5b5061028b6109d3565b6040516102989190610d93565b60405180910390f35b3480156102ad57600080fd5b506102c860048036038101906102c39190610e94565b6109d9565b6040516102d59190610d93565b60405180910390f35b3480156102ea57600080fd5b506102f36109f1565b6040516103009190610f7f565b60405180910390f35b34801561031557600080fd5b50610330600480360381019061032b9190610e94565b610a7f565b60405161033d9190610d93565b60405180910390f35b34801561035257600080fd5b5061036d60048036038101906103689190610e94565b610ac8565b60405161037a9190610f7f565b60405180910390f35b34801561038f57600080fd5b50610398610b95565b6040516103a59190610d93565b60405180910390f35b3480156103ba57600080fd5b506103c3610c34565b6040516103d09190610d93565b60405180910390f35b600080546103e690610fd0565b80601f016020809104026020016040519081016040528092919081815260200182805461041290610fd0565b801561045f5780601f106104345761010080835404028352916020019161045f565b820191906000526020600020905b81548152906001019060200180831161044257829003601f168201915b505050505081565b61046f610b95565b3410156104b1576040517f08c379a00000000000000000000000000000000000000000000000000000000081526004016104a890611073565b60405180910390fd5b6000600660009054906101000a900473ffffffffffffffffffffffffffffffffffffffff16905060008173ffffffffffffffffffffffffffffffffffffffff1663b75b25ec6040518163ffffffff1660e01b81526004016020604051808303816000875af1158015610527573d6000803e3d6000fd5b505050506040513d601f19601f8201168201806040525081019061054b91906110a8565b905060008114610590576040517f08c379a000000000000000000000000000000000000000000000000000000000815260040161058790611147565b60405180910390fd5b6000600260009054906101000a900473ffffffffffffffffffffffffffffffffffffffff16905060008173ffffffffffffffffffffffffffffffffffffffff1663934995b4600760009054906101000a900473ffffffffffffffffffffffffffffffffffffffff16600660009054906101000a900473ffffffffffffffffffffffffffffffffffffffff163034336040518663ffffffff1660e01b815260040161063e959493929190611167565b6020604051808303816000875af115801561065d573d6000803e3d6000fd5b505050506040513d601f19601f8201168201806040525081019061068191906111cf565b9050600460003373ffffffffffffffffffffffffffffffffffffffff1673ffffffffffffffffffffffffffffffffffffffff168152602001908152602001600020819080600181540180825580915050600190039060005260206000200160009091909190916101000a81548173ffffffffffffffffffffffffffffffffffffffff021916908373ffffffffffffffffffffffffffffffffffffffff16021790555034600160008282546107359190610c73565b9250508190555034600360003373ffffffffffffffffffffffffffffffffffffffff1673ffffffffffffffffffffffffffffffffffffffff168152602001908152602001600020600082825461078b9190610c73565b925050819055506005819080600181540180825580915050600190039060005260206000200160009091909190916101000a81548173ffffffffffffffffffffffffffffffffffffffff021916908373ffffffffffffffffffffffffffffffffffffffff1602179055506000600760009054906101000a900473ffffffffffffffffffffffffffffffffffffffff1673ffffffffffffffffffffffffffffffffffffffff163460405161083d9061122d565b60006040518083038185875af1925050503d806000811461087a576040519150601f19603f3d011682016040523d82523d6000602084013e61087f565b606091505b50509050806108c3576040517f08c379a00000000000000000000000000000000000000000000000000000000081526004016108ba9061128e565b60405180910390fd5b5050505050565b600047905090565b6060600080546108e190610fd0565b80601f016020809104026020016040519081016040528092919081815260200182805461090d90610fd0565b801561095a5780601f1061092f5761010080835404028352916020019161095a565b820191906000526020600020905b81548152906001019060200180831161093d57829003601f168201915b5050505050905090565b600260009054906101000a900473ffffffffffffffffffffffffffffffffffffffff1681565b6005818154811061099a57600080fd5b906000526020600020016000915054906101000a900473ffffffffffffffffffffffffffffffffffffffff1681565b6000600154905090565b60015481565b60036020528060005260406000206000915090505481565b60606005805480602002602001604051908101604052809291908181526020018280548015610a7557602002820191906000526020600020905b8160009054906101000a900473ffffffffffffffffffffffffffffffffffffffff1673ffffffffffffffffffffffffffffffffffffffff1681526020019060010190808311610a2b575b5050505050905090565b6000600360008373ffffffffffffffffffffffffffffffffffffffff1673ffffffffffffffffffffffffffffffffffffffff168152602001908152602001600020549050919050565b6060600460008373ffffffffffffffffffffffffffffffffffffffff1673ffffffffffffffffffffffffffffffffffffffff168152602001908152602001600020805480602002602001604051908101604052809291908181526020018280548015610b8957602002820191906000526020600020905b8160009054906101000a900473ffffffffffffffffffffffffffffffffffffffff1673ffffffffffffffffffffffffffffffffffffffff1681526020019060010190808311610b3f575b50505050509050919050565b600080600660009054906101000a900473ffffffffffffffffffffffffffffffffffffffff1690508073ffffffffffffffffffffffffffffffffffffffff1663d9bbd2786040518163ffffffff1660e01b81526004016020604051808303816000875af1158015610c0a573d6000803e3d6000fd5b505050506040513d601f19601f82011682018060405250810190610c2e91906110a8565b91505090565b60085481565b6000819050919050565b7f4e487b7100000000000000000000000000000000000000000000000000000000600052601160045260246000fd5b6000610c7e82610c3a565b9150610c8983610c3a565b9250827fffffffffffffffffffffffffffffffffffffffffffffffffffffffffffffffff03821115610cbe57610cbd610c44565b5b828201905092915050565b600081519050919050565b600082825260208201905092915050565b60005b83811015610d03578082015181840152602081019050610ce8565b83811115610d12576000848401525b50505050565b6000601f19601f8301169050919050565b6000610d3482610cc9565b610d3e8185610cd4565b9350610d4e818560208601610ce5565b610d5781610d18565b840191505092915050565b60006020820190508181036000830152610d7c8184610d29565b905092915050565b610d8d81610c3a565b82525050565b6000602082019050610da86000830184610d84565b92915050565b600073ffffffffffffffffffffffffffffffffffffffff82169050919050565b6000610dd982610dae565b9050919050565b610de981610dce565b82525050565b6000602082019050610e046000830184610de0565b92915050565b600080fd5b610e1881610c3a565b8114610e2357600080fd5b50565b600081359050610e3581610e0f565b92915050565b600060208284031215610e5157610e50610e0a565b5b6000610e5f84828501610e26565b91505092915050565b610e7181610dce565b8114610e7c57600080fd5b50565b600081359050610e8e81610e68565b92915050565b600060208284031215610eaa57610ea9610e0a565b5b6000610eb884828501610e7f565b91505092915050565b600081519050919050565b600082825260208201905092915050565b6000819050602082019050919050565b610ef681610dce565b82525050565b6000610f088383610eed565b60208301905092915050565b6000602082019050919050565b6000610f2c82610ec1565b610f368185610ecc565b9350610f4183610edd565b8060005b83811015610f72578151610f598882610efc565b9750610f6483610f14565b925050600181019050610f45565b5085935050505092915050565b60006020820190508181036000830152610f998184610f21565b905092915050565b7f4e487b7100000000000000000000000000000000000000000000000000000000600052602260045260246000fd5b60006002820490506001821680610fe857607f821691505b602082108103610ffb57610ffa610fa1565b5b50919050565b7f596f752063616e206e6f74206265742062656c6f7720746865206d696e696d7560008201527f6d207374616b65206f66206576656e7400000000000000000000000000000000602082015250565b600061105d603083610cd4565b915061106882611001565b604082019050919050565b6000602082019050818103600083015261108c81611050565b9050919050565b6000815190506110a281610e0f565b92915050565b6000602082840312156110be576110bd610e0a565b5b60006110cc84828501611093565b91505092915050565b7f596f752063616e206e6f7420626574206f6e20612073746172746564206f722060008201527f636f6e636c75646564206576656e740000000000000000000000000000000000602082015250565b6000611131602f83610cd4565b915061113c826110d5565b604082019050919050565b6000602082019050818103600083015261116081611124565b9050919050565b600060a08201905061117c6000830188610de0565b6111896020830187610de0565b6111966040830186610de0565b6111a36060830185610d84565b6111b06080830184610de0565b9695505050505050565b6000815190506111c981610e68565b92915050565b6000602082840312156111e5576111e4610e0a565b5b60006111f3848285016111ba565b91505092915050565b600081905092915050565b50565b60006112176000836111fc565b915061122282611207565b600082019050919050565b60006112388261120a565b9150819050919050565b7f416e204572726f72206f6363757272656420696e207472616e73616374696f6e600082015250565b6000611278602083610cd4565b915061128382611242565b602082019050919050565b600060208201905081810360008301526112a78161126b565b905091905056fea26469706673582212208173f640e0cc8379a82ff8ed8d4ca2afcfc59e3df0b8c61a02eebb2f14c07b9564736f6c634300080d0033",
  "immutableReferences": {},
  "source": "pragma solidity ^0.8.4;\nimport \"./interface/IWeb3BetsPoolsV1.sol\";\nimport \"./interface/IWeb3BetsEventsV1.sol\";\n// SPDX-License-Identifier: MIT\nimport \"./Bets.sol\";\n\nimport \"./BetsFactory.sol\";\n\n/// @author Ibekason Alexander Onyebuchi\n/// @title Pool Contract\n/// @notice Contain function signatures for creating pools in a\n/// market\n\ncontract Pool is IWeb3BetsPoolsV1 {\n    string public name;\n\n    uint256 public totalStake;\n\n    address public betsFactoryAddress;\n\n    mapping(address => uint256) public userStakes;\n\n    mapping(address => address[]) bettersBets;\n\n    address[] public betAddresses;\n\n    address private eventAddress;\n\n    address private marketAddress;\n\n    uint256 public minimumStake; \n\n    modifier aboveMinimumStake() {\n        require(\n            msg.value >= getMinimumStake(),\n            \"You can not bet below the minimum stake of event\"\n        );\n        _;\n    }\n\n    constructor(\n        string memory _name,\n        address _eventAddress,\n        address _marketAddress,\n        address _betsFactoryAddress\n    ) {\n        name = _name;\n        eventAddress = _eventAddress;\n        marketAddress = _marketAddress;\n        betsFactoryAddress = _betsFactoryAddress;\n    }\n\n    function bet() public payable override aboveMinimumStake {\n        IWeb3BetsEventV1 eventV1 = IWeb3BetsEventV1(eventAddress);\n        uint256 eventStatus = eventV1.getEventStatus();\n        if (eventStatus != 0) {\n            revert(\"You can not bet on a started or concluded event\");\n        }\n\n        BetsFactory betsFactory = BetsFactory(betsFactoryAddress);\n        address betAddress = betsFactory.createBet(\n            marketAddress,\n            eventAddress,\n            address(this),\n            msg.value,\n            msg.sender\n        );\n        bettersBets[msg.sender].push(betAddress);\n        totalStake += msg.value;\n        userStakes[msg.sender] += msg.value;\n        betAddresses.push(betAddress);\n        (bool sentBetFundToMarket, ) = marketAddress.call{value: msg.value}(\"\");\n\n        if (!sentBetFundToMarket) {\n            revert(\"An Error occurred in transaction\");\n        }\n    }\n\n    fallback() external payable {\n        totalStake += msg.value;\n\n        userStakes[msg.sender] += msg.value;\n    }\n\n    receive() external payable {\n\n    }\n    function getName() external view override returns (string memory) {\n        return name;\n    }\n\n    function getBalance() external view returns (uint256) {\n        return address(this).balance;\n    }\n\n    function getTotalStake() external view returns (uint256) {\n        return totalStake;\n    }\n\n    function getBets() external view override returns (address[] memory) {\n        return betAddresses;\n    }\n\n    function getUserStake(address user) external view returns (uint256) {\n        return userStakes[user];\n    }\n\n    function getBettersBets(address better) external view returns (address[] memory) {\n        return bettersBets[better];\n    }\n\n    function getMinimumStake() public returns (uint){\n        IWeb3BetsEventV1 event1 = IWeb3BetsEventV1(eventAddress);\n        return event1.getMinimumStake();\n    }\n}\n",
  "sourcePath": "/Users/wizardom/projects/crypto/web3bets_smartcontract/contracts/Pools.sol",
  "compiler": {
    "name": "solc",
    "version": "0.8.13+commit.abaa5c0e.Emscripten.clang"
  },
  "schemaVersion": "3.4.7",
  "updatedAt": "2022-08-02T05:11:13.332Z",
  "networkType": "ethereum",
  "devdoc": {
    "author": "Ibekason Alexander Onyebuchi",
    "kind": "dev",
    "methods": {},
    "title": "Pool Contract",
    "version": 1
  },
  "userdoc": {
    "kind": "user",
    "methods": {},
    "notice": "Contain function signatures for creating pools in a market",
    "version": 1
  }
}