{
  "contractName": "PoolsFactory",
  "abi": [
    {
      "inputs": [
        {
          "internalType": "address",
          "name": "_betsFactoryAddress",
          "type": "address"
        }
      ],
      "stateMutability": "nonpayable",
      "type": "constructor"
    },
    {
      "anonymous": false,
      "inputs": [
        {
          "indexed": false,
          "internalType": "string",
          "name": "name",
          "type": "string"
        },
        {
          "indexed": false,
          "internalType": "address",
          "name": "marketAddress",
          "type": "address"
        },
        {
          "indexed": false,
          "internalType": "address",
          "name": "eventAddress",
          "type": "address"
        }
      ],
      "name": "PoolCreated",
      "type": "event"
    },
    {
      "inputs": [],
      "name": "betsFactoryAddress",
      "outputs": [
        {
          "internalType": "address",
          "name": "",
          "type": "address"
        }
      ],
      "stateMutability": "view",
      "type": "function",
      "constant": true
    },
    {
      "inputs": [
        {
          "internalType": "address",
          "name": "",
          "type": "address"
        },
        {
          "internalType": "uint256",
          "name": "",
          "type": "uint256"
        }
      ],
      "name": "marketPools",
      "outputs": [
        {
          "internalType": "address",
          "name": "",
          "type": "address"
        }
      ],
      "stateMutability": "view",
      "type": "function",
      "constant": true
    },
    {
      "inputs": [
        {
          "internalType": "string",
          "name": "_name",
          "type": "string"
        },
        {
          "internalType": "address",
          "name": "_eventAddress",
          "type": "address"
        },
        {
          "internalType": "address",
          "name": "_marketAddress",
          "type": "address"
        }
      ],
      "name": "createPool",
      "outputs": [
        {
          "internalType": "address",
          "name": "",
          "type": "address"
        }
      ],
      "stateMutability": "nonpayable",
      "type": "function"
    },
    {
      "inputs": [
        {
          "internalType": "address",
          "name": "_marketAddress",
          "type": "address"
        }
      ],
      "name": "getPoolsOfMarket",
      "outputs": [
        {
          "internalType": "address[]",
          "name": "",
          "type": "address[]"
        }
      ],
      "stateMutability": "view",
      "type": "function",
      "constant": true
    },
    {
      "inputs": [],
      "name": "getTotalPools",
      "outputs": [
        {
          "internalType": "uint256",
          "name": "",
          "type": "uint256"
        }
      ],
      "stateMutability": "view",
      "type": "function",
      "constant": true
    }
  ],
  "bytecode": "0x608060405234801561001057600080fd5b506040516124b83803806124b8833981810160405281019061003291906100dc565b80600160006101000a81548173ffffffffffffffffffffffffffffffffffffffff021916908373ffffffffffffffffffffffffffffffffffffffff16021790555050610109565b600080fd5b600073ffffffffffffffffffffffffffffffffffffffff82169050919050565b60006100a98261007e565b9050919050565b6100b98161009e565b81146100c457600080fd5b50565b6000815190506100d6816100b0565b92915050565b6000602082840312156100f2576100f1610079565b5b6000610100848285016100c7565b91505092915050565b6123a0806101186000396000f3fe60806040523480156200001157600080fd5b50600436106200005e5760003560e01c8063448e9117146200006357806356cd61d7146200008557806386bf805614620000bb578063d3ffe67a14620000f1578063e1281e471462000113575b600080fd5b6200006d62000149565b6040516200007c91906200049c565b60405180910390f35b620000a360048036038101906200009d919062000660565b6200016f565b604051620000b291906200049c565b60405180910390f35b620000d96004803603810190620000d3919062000716565b6200031f565b604051620000e891906200049c565b60405180910390f35b620000fb6200036e565b6040516200010a91906200076e565b60405180910390f35b6200013160048036038101906200012b91906200078b565b6200037b565b6040516200014091906200088b565b60405180910390f35b600160009054906101000a900473ffffffffffffffffffffffffffffffffffffffff1681565b600080848484600160009054906101000a900473ffffffffffffffffffffffffffffffffffffffff16604051620001a69062000449565b620001b5949392919062000938565b604051809103906000f080158015620001d2573d6000803e3d6000fd5b5090506000808473ffffffffffffffffffffffffffffffffffffffff1673ffffffffffffffffffffffffffffffffffffffff168152602001908152602001600020819080600181540180825580915050600190039060005260206000200160009091909190916101000a81548173ffffffffffffffffffffffffffffffffffffffff021916908373ffffffffffffffffffffffffffffffffffffffff1602179055506002819080600181540180825580915050600190039060005260206000200160009091909190916101000a81548173ffffffffffffffffffffffffffffffffffffffff021916908373ffffffffffffffffffffffffffffffffffffffff1602179055507ff1bc21ed97ab3f0ef33f31038b179da31c46944bec01f4410240814d0571adea8584866040516200030c939291906200098c565b60405180910390a1809150509392505050565b600060205281600052604060002081815481106200033c57600080fd5b906000526020600020016000915091509054906101000a900473ffffffffffffffffffffffffffffffffffffffff1681565b6000600280549050905090565b60606000808373ffffffffffffffffffffffffffffffffffffffff1673ffffffffffffffffffffffffffffffffffffffff1681526020019081526020016000208054806020026020016040519081016040528092919081815260200182805480156200043d57602002820191906000526020600020905b8160009054906101000a900473ffffffffffffffffffffffffffffffffffffffff1673ffffffffffffffffffffffffffffffffffffffff1681526020019060010190808311620003f2575b50505050509050919050565b61199a80620009d183390190565b600073ffffffffffffffffffffffffffffffffffffffff82169050919050565b6000620004848262000457565b9050919050565b620004968162000477565b82525050565b6000602082019050620004b360008301846200048b565b92915050565b6000604051905090565b600080fd5b600080fd5b600080fd5b600080fd5b6000601f19601f8301169050919050565b7f4e487b7100000000000000000000000000000000000000000000000000000000600052604160045260246000fd5b6200052282620004d7565b810181811067ffffffffffffffff82111715620005445762000543620004e8565b5b80604052505050565b600062000559620004b9565b905062000567828262000517565b919050565b600067ffffffffffffffff8211156200058a5762000589620004e8565b5b6200059582620004d7565b9050602081019050919050565b82818337600083830152505050565b6000620005c8620005c2846200056c565b6200054d565b905082815260208101848484011115620005e757620005e6620004d2565b5b620005f4848285620005a2565b509392505050565b600082601f830112620006145762000613620004cd565b5b813562000626848260208601620005b1565b91505092915050565b6200063a8162000477565b81146200064657600080fd5b50565b6000813590506200065a816200062f565b92915050565b6000806000606084860312156200067c576200067b620004c3565b5b600084013567ffffffffffffffff8111156200069d576200069c620004c8565b5b620006ab86828701620005fc565b9350506020620006be8682870162000649565b9250506040620006d18682870162000649565b9150509250925092565b6000819050919050565b620006f081620006db565b8114620006fc57600080fd5b50565b6000813590506200071081620006e5565b92915050565b6000806040838503121562000730576200072f620004c3565b5b6000620007408582860162000649565b92505060206200075385828601620006ff565b9150509250929050565b6200076881620006db565b82525050565b60006020820190506200078560008301846200075d565b92915050565b600060208284031215620007a457620007a3620004c3565b5b6000620007b48482850162000649565b91505092915050565b600081519050919050565b600082825260208201905092915050565b6000819050602082019050919050565b620007f48162000477565b82525050565b6000620008088383620007e9565b60208301905092915050565b6000602082019050919050565b60006200082e82620007bd565b6200083a8185620007c8565b93506200084783620007d9565b8060005b838110156200087e578151620008628882620007fa565b97506200086f8362000814565b9250506001810190506200084b565b5085935050505092915050565b60006020820190508181036000830152620008a7818462000821565b905092915050565b600081519050919050565b600082825260208201905092915050565b60005b83811015620008eb578082015181840152602081019050620008ce565b60008484015250505050565b60006200090482620008af565b620009108185620008ba565b935062000922818560208601620008cb565b6200092d81620004d7565b840191505092915050565b60006080820190508181036000830152620009548187620008f7565b90506200096560208301866200048b565b6200097460408301856200048b565b6200098360608301846200048b565b95945050505050565b60006060820190508181036000830152620009a88186620008f7565b9050620009b960208301856200048b565b620009c860408301846200048b565b94935050505056fe60806040523480156200001157600080fd5b506040516200199a3803806200199a83398181016040528101906200003791906200030e565b8360009081620000489190620005ea565b5082600660006101000a81548173ffffffffffffffffffffffffffffffffffffffff021916908373ffffffffffffffffffffffffffffffffffffffff16021790555081600760006101000a81548173ffffffffffffffffffffffffffffffffffffffff021916908373ffffffffffffffffffffffffffffffffffffffff16021790555080600260006101000a81548173ffffffffffffffffffffffffffffffffffffffff021916908373ffffffffffffffffffffffffffffffffffffffff16021790555050505050620006d1565b6000604051905090565b600080fd5b600080fd5b600080fd5b600080fd5b6000601f19601f8301169050919050565b7f4e487b7100000000000000000000000000000000000000000000000000000000600052604160045260246000fd5b6200017f8262000134565b810181811067ffffffffffffffff82111715620001a157620001a062000145565b5b80604052505050565b6000620001b662000116565b9050620001c4828262000174565b919050565b600067ffffffffffffffff821115620001e757620001e662000145565b5b620001f28262000134565b9050602081019050919050565b60005b838110156200021f57808201518184015260208101905062000202565b60008484015250505050565b6000620002426200023c84620001c9565b620001aa565b9050828152602081018484840111156200026157620002606200012f565b5b6200026e848285620001ff565b509392505050565b600082601f8301126200028e576200028d6200012a565b5b8151620002a08482602086016200022b565b91505092915050565b600073ffffffffffffffffffffffffffffffffffffffff82169050919050565b6000620002d682620002a9565b9050919050565b620002e881620002c9565b8114620002f457600080fd5b50565b6000815190506200030881620002dd565b92915050565b600080600080608085870312156200032b576200032a62000120565b5b600085015167ffffffffffffffff8111156200034c576200034b62000125565b5b6200035a8782880162000276565b94505060206200036d87828801620002f7565b93505060406200038087828801620002f7565b92505060606200039387828801620002f7565b91505092959194509250565b600081519050919050565b7f4e487b7100000000000000000000000000000000000000000000000000000000600052602260045260246000fd5b60006002820490506001821680620003f257607f821691505b602082108103620004085762000407620003aa565b5b50919050565b60008190508160005260206000209050919050565b60006020601f8301049050919050565b600082821b905092915050565b600060088302620004727fffffffffffffffffffffffffffffffffffffffffffffffffffffffffffffffff8262000433565b6200047e868362000433565b95508019841693508086168417925050509392505050565b6000819050919050565b6000819050919050565b6000620004cb620004c5620004bf8462000496565b620004a0565b62000496565b9050919050565b6000819050919050565b620004e783620004aa565b620004ff620004f682620004d2565b84845462000440565b825550505050565b600090565b6200051662000507565b62000523818484620004dc565b505050565b5b818110156200054b576200053f6000826200050c565b60018101905062000529565b5050565b601f8211156200059a5762000564816200040e565b6200056f8462000423565b810160208510156200057f578190505b620005976200058e8562000423565b83018262000528565b50505b505050565b600082821c905092915050565b6000620005bf600019846008026200059f565b1980831691505092915050565b6000620005da8383620005ac565b9150826002028217905092915050565b620005f5826200039f565b67ffffffffffffffff81111562000611576200061062000145565b5b6200061d8254620003d9565b6200062a8282856200054f565b600060209050601f8311600181146200066257600084156200064d578287015190505b620006598582620005cc565b865550620006c9565b601f19841662000672866200040e565b60005b828110156200069c5784890151825560018201915060208501945060208101905062000675565b86831015620006bc5784890151620006b8601f891682620005ac565b8355505b6001600288020188555050505b505050505050565b6112b980620006e16000396000f3fe6080604052600436106100e15760003560e01c80638b0e9f3f1161007f578063bbadc93a11610059578063bbadc93a14610309578063bdc11a8e14610346578063d9bbd27814610383578063ec5ffac2146103ae576100e8565b80638b0e9f3f146102765780638da7ad23146102a1578063a6afd5fd146102de576100e8565b806317d7de7c116100bb57806317d7de7c146101b8578063448e9117146101e35780634df179821461020e5780637bc742251461024b576100e8565b806306fdde031461015857806311610c251461018357806312065fe01461018d576100e8565b366100e857005b34600160008282546100fa9190610c73565b9250508190555034600360003373ffffffffffffffffffffffffffffffffffffffff1673ffffffffffffffffffffffffffffffffffffffff16815260200190815260200160002060008282546101509190610c73565b925050819055005b34801561016457600080fd5b5061016d6103d9565b60405161017a9190610d37565b60405180910390f35b61018b610467565b005b34801561019957600080fd5b506101a26108ca565b6040516101af9190610d68565b60405180910390f35b3480156101c457600080fd5b506101cd6108d2565b6040516101da9190610d37565b60405180910390f35b3480156101ef57600080fd5b506101f8610964565b6040516102059190610dc4565b60405180910390f35b34801561021a57600080fd5b5061023560048036038101906102309190610e10565b61098a565b6040516102429190610dc4565b60405180910390f35b34801561025757600080fd5b506102606109c9565b60405161026d9190610d68565b60405180910390f35b34801561028257600080fd5b5061028b6109d3565b6040516102989190610d68565b60405180910390f35b3480156102ad57600080fd5b506102c860048036038101906102c39190610e69565b6109d9565b6040516102d59190610d68565b60405180910390f35b3480156102ea57600080fd5b506102f36109f1565b6040516103009190610f54565b60405180910390f35b34801561031557600080fd5b50610330600480360381019061032b9190610e69565b610a7f565b60405161033d9190610d68565b60405180910390f35b34801561035257600080fd5b5061036d60048036038101906103689190610e69565b610ac8565b60405161037a9190610f54565b60405180910390f35b34801561038f57600080fd5b50610398610b95565b6040516103a59190610d68565b60405180910390f35b3480156103ba57600080fd5b506103c3610c34565b6040516103d09190610d68565b60405180910390f35b600080546103e690610fa5565b80601f016020809104026020016040519081016040528092919081815260200182805461041290610fa5565b801561045f5780601f106104345761010080835404028352916020019161045f565b820191906000526020600020905b81548152906001019060200180831161044257829003601f168201915b505050505081565b61046f610b95565b3410156104b1576040517f08c379a00000000000000000000000000000000000000000000000000000000081526004016104a890611048565b60405180910390fd5b6000600660009054906101000a900473ffffffffffffffffffffffffffffffffffffffff16905060008173ffffffffffffffffffffffffffffffffffffffff1663b75b25ec6040518163ffffffff1660e01b81526004016020604051808303816000875af1158015610527573d6000803e3d6000fd5b505050506040513d601f19601f8201168201806040525081019061054b919061107d565b905060008114610590576040517f08c379a00000000000000000000000000000000000000000000000000000000081526004016105879061111c565b60405180910390fd5b6000600260009054906101000a900473ffffffffffffffffffffffffffffffffffffffff16905060008173ffffffffffffffffffffffffffffffffffffffff1663934995b4600760009054906101000a900473ffffffffffffffffffffffffffffffffffffffff16600660009054906101000a900473ffffffffffffffffffffffffffffffffffffffff163034336040518663ffffffff1660e01b815260040161063e95949392919061113c565b6020604051808303816000875af115801561065d573d6000803e3d6000fd5b505050506040513d601f19601f8201168201806040525081019061068191906111a4565b9050600460003373ffffffffffffffffffffffffffffffffffffffff1673ffffffffffffffffffffffffffffffffffffffff168152602001908152602001600020819080600181540180825580915050600190039060005260206000200160009091909190916101000a81548173ffffffffffffffffffffffffffffffffffffffff021916908373ffffffffffffffffffffffffffffffffffffffff16021790555034600160008282546107359190610c73565b9250508190555034600360003373ffffffffffffffffffffffffffffffffffffffff1673ffffffffffffffffffffffffffffffffffffffff168152602001908152602001600020600082825461078b9190610c73565b925050819055506005819080600181540180825580915050600190039060005260206000200160009091909190916101000a81548173ffffffffffffffffffffffffffffffffffffffff021916908373ffffffffffffffffffffffffffffffffffffffff1602179055506000600760009054906101000a900473ffffffffffffffffffffffffffffffffffffffff1673ffffffffffffffffffffffffffffffffffffffff163460405161083d90611202565b60006040518083038185875af1925050503d806000811461087a576040519150601f19603f3d011682016040523d82523d6000602084013e61087f565b606091505b50509050806108c3576040517f08c379a00000000000000000000000000000000000000000000000000000000081526004016108ba90611263565b60405180910390fd5b5050505050565b600047905090565b6060600080546108e190610fa5565b80601f016020809104026020016040519081016040528092919081815260200182805461090d90610fa5565b801561095a5780601f1061092f5761010080835404028352916020019161095a565b820191906000526020600020905b81548152906001019060200180831161093d57829003601f168201915b5050505050905090565b600260009054906101000a900473ffffffffffffffffffffffffffffffffffffffff1681565b6005818154811061099a57600080fd5b906000526020600020016000915054906101000a900473ffffffffffffffffffffffffffffffffffffffff1681565b6000600154905090565b60015481565b60036020528060005260406000206000915090505481565b60606005805480602002602001604051908101604052809291908181526020018280548015610a7557602002820191906000526020600020905b8160009054906101000a900473ffffffffffffffffffffffffffffffffffffffff1673ffffffffffffffffffffffffffffffffffffffff1681526020019060010190808311610a2b575b5050505050905090565b6000600360008373ffffffffffffffffffffffffffffffffffffffff1673ffffffffffffffffffffffffffffffffffffffff168152602001908152602001600020549050919050565b6060600460008373ffffffffffffffffffffffffffffffffffffffff1673ffffffffffffffffffffffffffffffffffffffff168152602001908152602001600020805480602002602001604051908101604052809291908181526020018280548015610b8957602002820191906000526020600020905b8160009054906101000a900473ffffffffffffffffffffffffffffffffffffffff1673ffffffffffffffffffffffffffffffffffffffff1681526020019060010190808311610b3f575b50505050509050919050565b600080600660009054906101000a900473ffffffffffffffffffffffffffffffffffffffff1690508073ffffffffffffffffffffffffffffffffffffffff1663d9bbd2786040518163ffffffff1660e01b81526004016020604051808303816000875af1158015610c0a573d6000803e3d6000fd5b505050506040513d601f19601f82011682018060405250810190610c2e919061107d565b91505090565b60085481565b6000819050919050565b7f4e487b7100000000000000000000000000000000000000000000000000000000600052601160045260246000fd5b6000610c7e82610c3a565b9150610c8983610c3a565b9250828201905080821115610ca157610ca0610c44565b5b92915050565b600081519050919050565b600082825260208201905092915050565b60005b83811015610ce1578082015181840152602081019050610cc6565b60008484015250505050565b6000601f19601f8301169050919050565b6000610d0982610ca7565b610d138185610cb2565b9350610d23818560208601610cc3565b610d2c81610ced565b840191505092915050565b60006020820190508181036000830152610d518184610cfe565b905092915050565b610d6281610c3a565b82525050565b6000602082019050610d7d6000830184610d59565b92915050565b600073ffffffffffffffffffffffffffffffffffffffff82169050919050565b6000610dae82610d83565b9050919050565b610dbe81610da3565b82525050565b6000602082019050610dd96000830184610db5565b92915050565b600080fd5b610ded81610c3a565b8114610df857600080fd5b50565b600081359050610e0a81610de4565b92915050565b600060208284031215610e2657610e25610ddf565b5b6000610e3484828501610dfb565b91505092915050565b610e4681610da3565b8114610e5157600080fd5b50565b600081359050610e6381610e3d565b92915050565b600060208284031215610e7f57610e7e610ddf565b5b6000610e8d84828501610e54565b91505092915050565b600081519050919050565b600082825260208201905092915050565b6000819050602082019050919050565b610ecb81610da3565b82525050565b6000610edd8383610ec2565b60208301905092915050565b6000602082019050919050565b6000610f0182610e96565b610f0b8185610ea1565b9350610f1683610eb2565b8060005b83811015610f47578151610f2e8882610ed1565b9750610f3983610ee9565b925050600181019050610f1a565b5085935050505092915050565b60006020820190508181036000830152610f6e8184610ef6565b905092915050565b7f4e487b7100000000000000000000000000000000000000000000000000000000600052602260045260246000fd5b60006002820490506001821680610fbd57607f821691505b602082108103610fd057610fcf610f76565b5b50919050565b7f596f752063616e206e6f74206265742062656c6f7720746865206d696e696d7560008201527f6d207374616b65206f66206576656e7400000000000000000000000000000000602082015250565b6000611032603083610cb2565b915061103d82610fd6565b604082019050919050565b6000602082019050818103600083015261106181611025565b9050919050565b60008151905061107781610de4565b92915050565b60006020828403121561109357611092610ddf565b5b60006110a184828501611068565b91505092915050565b7f596f752063616e206e6f7420626574206f6e20612073746172746564206f722060008201527f636f6e636c75646564206576656e740000000000000000000000000000000000602082015250565b6000611106602f83610cb2565b9150611111826110aa565b604082019050919050565b60006020820190508181036000830152611135816110f9565b9050919050565b600060a0820190506111516000830188610db5565b61115e6020830187610db5565b61116b6040830186610db5565b6111786060830185610d59565b6111856080830184610db5565b9695505050505050565b60008151905061119e81610e3d565b92915050565b6000602082840312156111ba576111b9610ddf565b5b60006111c88482850161118f565b91505092915050565b600081905092915050565b50565b60006111ec6000836111d1565b91506111f7826111dc565b600082019050919050565b600061120d826111df565b9150819050919050565b7f416e204572726f72206f6363757272656420696e207472616e73616374696f6e600082015250565b600061124d602083610cb2565b915061125882611217565b602082019050919050565b6000602082019050818103600083015261127c81611240565b905091905056fea26469706673582212203e2706cef3accf7d9a255d92792a052d435d1f93f54ad3dc70835123afeb66a264736f6c63430008110033a26469706673582212202b95dd963a0b3df08d29e48209a667e893ab26a570d7426d2ee9f0192e7a293064736f6c63430008110033",
  "immutableReferences": {},
  "source": "// SPDX-License-Identifier: MIT\npragma solidity ^0.8.4;\n\nimport \"./Pools.sol\";\n\ncontract PoolsFactory {\n    // All market address with their list of pools\n    mapping (address => address[]) public marketPools;\n\n    address public betsFactoryAddress;\n    address[] _pools;\n\n    event PoolCreated(string name, address marketAddress, address eventAddress);\n    \n    constructor(address _betsFactoryAddress){\n        betsFactoryAddress = _betsFactoryAddress;\n    }\n    function createPool(string memory _name, address _eventAddress, address _marketAddress) external returns (address) {\n        Pool pool = new Pool(_name, _eventAddress, _marketAddress, betsFactoryAddress);\n        marketPools[_marketAddress].push(address(pool));\n        _pools.push(address(pool));\n        emit PoolCreated(_name, _marketAddress, _eventAddress);\n\n        return address(pool);\n    }\n\n    function getPoolsOfMarket(address _marketAddress) external view returns(address[] memory){\n        return marketPools[_marketAddress];\n    }\n\n    function getTotalPools() external view returns (uint){\n        return _pools.length;\n    }\n\n    \n}",
  "sourcePath": "/Users/wizardom/projects/crypto/web3bets_smartcontract/contracts/PoolsFactory.sol",
  "compiler": {
    "name": "solc",
    "version": "0.8.17+commit.8df45f5f.Emscripten.clang"
  },
  "schemaVersion": "3.4.7",
  "updatedAt": "2022-09-11T14:58:02.224Z",
  "networkType": "ethereum",
  "devdoc": {
    "kind": "dev",
    "methods": {},
    "version": 1
  },
  "userdoc": {
    "kind": "user",
    "methods": {},
    "version": 1
  }
}