{
  "contractName": "Web3Bets",
  "abi": [
    {
      "inputs": [],
      "stateMutability": "nonpayable",
      "type": "constructor"
    },
    {
      "inputs": [
        {
          "internalType": "string",
          "name": "message",
          "type": "string"
        }
      ],
      "name": "ExistingEventOwner",
      "type": "error"
    },
    {
      "stateMutability": "payable",
      "type": "fallback",
      "payable": true
    },
    {
      "inputs": [],
      "name": "contractOwner",
      "outputs": [
        {
          "internalType": "address",
          "name": "",
          "type": "address"
        }
      ],
      "stateMutability": "view",
      "type": "function",
      "constant": true
    },
    {
      "inputs": [],
      "name": "ecosystemAddress",
      "outputs": [
        {
          "internalType": "address",
          "name": "",
          "type": "address"
        }
      ],
      "stateMutability": "view",
      "type": "function",
      "constant": true
    },
    {
      "inputs": [],
      "name": "ecosystemVig",
      "outputs": [
        {
          "internalType": "uint256",
          "name": "",
          "type": "uint256"
        }
      ],
      "stateMutability": "view",
      "type": "function",
      "constant": true
    },
    {
      "inputs": [
        {
          "internalType": "uint256",
          "name": "",
          "type": "uint256"
        }
      ],
      "name": "eventOwnerAddresses",
      "outputs": [
        {
          "internalType": "address",
          "name": "",
          "type": "address"
        }
      ],
      "stateMutability": "view",
      "type": "function",
      "constant": true
    },
    {
      "inputs": [
        {
          "internalType": "address",
          "name": "",
          "type": "address"
        }
      ],
      "name": "eventOwnersMapping",
      "outputs": [
        {
          "internalType": "address",
          "name": "",
          "type": "address"
        }
      ],
      "stateMutability": "view",
      "type": "function",
      "constant": true
    },
    {
      "inputs": [],
      "name": "eventOwnersVig",
      "outputs": [
        {
          "internalType": "uint256",
          "name": "",
          "type": "uint256"
        }
      ],
      "stateMutability": "view",
      "type": "function",
      "constant": true
    },
    {
      "inputs": [],
      "name": "holdersAddress",
      "outputs": [
        {
          "internalType": "address",
          "name": "",
          "type": "address"
        }
      ],
      "stateMutability": "view",
      "type": "function",
      "constant": true
    },
    {
      "inputs": [],
      "name": "holdersVig",
      "outputs": [
        {
          "internalType": "uint256",
          "name": "",
          "type": "uint256"
        }
      ],
      "stateMutability": "view",
      "type": "function",
      "constant": true
    },
    {
      "inputs": [],
      "name": "vigPercentage",
      "outputs": [
        {
          "internalType": "uint256",
          "name": "",
          "type": "uint256"
        }
      ],
      "stateMutability": "view",
      "type": "function",
      "constant": true
    },
    {
      "stateMutability": "payable",
      "type": "receive",
      "payable": true
    },
    {
      "inputs": [
        {
          "internalType": "address",
          "name": "holder",
          "type": "address"
        }
      ],
      "name": "setHoldersAddress",
      "outputs": [],
      "stateMutability": "nonpayable",
      "type": "function"
    },
    {
      "inputs": [
        {
          "internalType": "address",
          "name": "holder",
          "type": "address"
        }
      ],
      "name": "setEcosystemAddress",
      "outputs": [],
      "stateMutability": "nonpayable",
      "type": "function"
    },
    {
      "inputs": [
        {
          "internalType": "uint256",
          "name": "percentage",
          "type": "uint256"
        }
      ],
      "name": "setVigPercentage",
      "outputs": [],
      "stateMutability": "nonpayable",
      "type": "function"
    },
    {
      "inputs": [
        {
          "internalType": "uint256",
          "name": "hVig",
          "type": "uint256"
        },
        {
          "internalType": "uint256",
          "name": "eVig",
          "type": "uint256"
        },
        {
          "internalType": "uint256",
          "name": "eoVig",
          "type": "uint256"
        }
      ],
      "name": "setVigPercentageShares",
      "outputs": [],
      "stateMutability": "nonpayable",
      "type": "function"
    },
    {
      "inputs": [
        {
          "internalType": "address",
          "name": "_eventOwner",
          "type": "address"
        }
      ],
      "name": "addEventOwner",
      "outputs": [],
      "stateMutability": "nonpayable",
      "type": "function"
    },
    {
      "inputs": [
        {
          "internalType": "address",
          "name": "_eventOwner",
          "type": "address"
        }
      ],
      "name": "deleteEventOwner",
      "outputs": [],
      "stateMutability": "nonpayable",
      "type": "function"
    },
    {
      "inputs": [
        {
          "internalType": "address",
          "name": "_eventOwner",
          "type": "address"
        }
      ],
      "name": "shareBetEarnings",
      "outputs": [],
      "stateMutability": "payable",
      "type": "function",
      "payable": true
    },
    {
      "inputs": [],
      "name": "getVigPercentage",
      "outputs": [
        {
          "internalType": "uint256",
          "name": "",
          "type": "uint256"
        }
      ],
      "stateMutability": "view",
      "type": "function",
      "constant": true
    },
    {
      "inputs": [
        {
          "internalType": "address",
          "name": "_owner",
          "type": "address"
        }
      ],
      "name": "isEventOwner",
      "outputs": [
        {
          "internalType": "bool",
          "name": "",
          "type": "bool"
        }
      ],
      "stateMutability": "view",
      "type": "function",
      "constant": true
    },
    {
      "inputs": [],
      "name": "getAllEventOwners",
      "outputs": [
        {
          "internalType": "address[]",
          "name": "",
          "type": "address[]"
        }
      ],
      "stateMutability": "view",
      "type": "function",
      "constant": true
    }
  ],
  "bytecode": "0x6080604052601960035560326004556019600555600a60065534801561002457600080fd5b50336000806101000a81548173ffffffffffffffffffffffffffffffffffffffff021916908373ffffffffffffffffffffffffffffffffffffffff160217905550611b6f806100746000396000f3fe6080604052600436106101185760003560e01c8063486d1e50116100a05780639376b94c116100645780639376b94c14610388578063a8e01b28146103b3578063ce606ee0146103dc578063d6c1ca2614610407578063eb803584146104305761011f565b8063486d1e50146102a15780636824a678146102cc57806375459b72146102f55780638761af9a14610332578063932a3ed61461035d5761011f565b80632004b3e5116100e75780632004b3e5146101bc57806327848eae146101e7578063327372e414610210578063387440e61461023957806343dd1c00146102645761011f565b806306a5cb3a146101215780630c0d5cb31461014c5780630da4ee50146101755780631b7e427a146101a05761011f565b3661011f57005b005b34801561012d57600080fd5b5061013661046d565b6040516101439190611273565b60405180910390f35b34801561015857600080fd5b50610173600480360381019061016e91906112bf565b610493565b005b34801561018157600080fd5b5061018a61072f565b6040516101979190611273565b60405180910390f35b6101ba60048036038101906101b591906112bf565b610755565b005b3480156101c857600080fd5b506101d1610983565b6040516101de9190611305565b60405180910390f35b3480156101f357600080fd5b5061020e600480360381019061020991906112bf565b61098d565b005b34801561021c57600080fd5b50610237600480360381019061023291906112bf565b610c80565b005b34801561024557600080fd5b5061024e610d52565b60405161025b9190611305565b60405180910390f35b34801561027057600080fd5b5061028b6004803603810190610286919061134c565b610d58565b6040516102989190611273565b60405180910390f35b3480156102ad57600080fd5b506102b6610d97565b6040516102c39190611305565b60405180910390f35b3480156102d857600080fd5b506102f360048036038101906102ee9190611379565b610d9d565b005b34801561030157600080fd5b5061031c600480360381019061031791906112bf565b610efc565b6040516103299190611273565b60405180910390f35b34801561033e57600080fd5b50610347610f2f565b6040516103549190611305565b60405180910390f35b34801561036957600080fd5b50610372610f35565b60405161037f919061148a565b60405180910390f35b34801561039457600080fd5b5061039d610fc3565b6040516103aa9190611305565b60405180910390f35b3480156103bf57600080fd5b506103da60048036038101906103d591906112bf565b610fc9565b005b3480156103e857600080fd5b506103f161109b565b6040516103fe9190611273565b60405180910390f35b34801561041357600080fd5b5061042e6004803603810190610429919061134c565b6110bf565b005b34801561043c57600080fd5b50610457600480360381019061045291906112bf565b61119a565b60405161046491906114c7565b60405180910390f35b600160009054906101000a900473ffffffffffffffffffffffffffffffffffffffff1681565b60008054906101000a900473ffffffffffffffffffffffffffffffffffffffff1673ffffffffffffffffffffffffffffffffffffffff163373ffffffffffffffffffffffffffffffffffffffff1614610521576040517f08c379a000000000000000000000000000000000000000000000000000000000815260040161051890611565565b60405180910390fd5b600073ffffffffffffffffffffffffffffffffffffffff16600860008373ffffffffffffffffffffffffffffffffffffffff1673ffffffffffffffffffffffffffffffffffffffff16815260200190815260200160002060009054906101000a900473ffffffffffffffffffffffffffffffffffffffff1673ffffffffffffffffffffffffffffffffffffffff16036105ef576040517f08c379a00000000000000000000000000000000000000000000000000000000081526004016105e6906115d1565b60405180910390fd5b600860008273ffffffffffffffffffffffffffffffffffffffff1673ffffffffffffffffffffffffffffffffffffffff16815260200190815260200160002060006101000a81549073ffffffffffffffffffffffffffffffffffffffff021916905560005b60078054905081101561072b578173ffffffffffffffffffffffffffffffffffffffff166007828154811061068c5761068b6115f1565b5b9060005260206000200160009054906101000a900473ffffffffffffffffffffffffffffffffffffffff1673ffffffffffffffffffffffffffffffffffffffff160361071857600781815481106106e6576106e56115f1565b5b9060005260206000200160006101000a81549073ffffffffffffffffffffffffffffffffffffffff021916905561072b565b80806107239061164f565b915050610654565b5050565b600260009054906101000a900473ffffffffffffffffffffffffffffffffffffffff1681565b60003411610798576040517f08c379a000000000000000000000000000000000000000000000000000000000815260040161078f90611709565b60405180910390fd5b60006064600354346107aa9190611729565b6107b491906117b2565b905060006064600454346107c89190611729565b6107d291906117b2565b905060006064600554346107e69190611729565b6107f091906117b2565b905060008473ffffffffffffffffffffffffffffffffffffffff168260405161081890611814565b60006040518083038185875af1925050503d8060008114610855576040519150601f19603f3d011682016040523d82523d6000602084013e61085a565b606091505b505090506000600160009054906101000a900473ffffffffffffffffffffffffffffffffffffffff1673ffffffffffffffffffffffffffffffffffffffff16846040516108a690611814565b60006040518083038185875af1925050503d80600081146108e3576040519150601f19603f3d011682016040523d82523d6000602084013e6108e8565b606091505b505090506000600260009054906101000a900473ffffffffffffffffffffffffffffffffffffffff1673ffffffffffffffffffffffffffffffffffffffff168660405161093490611814565b60006040518083038185875af1925050503d8060008114610971576040519150601f19603f3d011682016040523d82523d6000602084013e610976565b606091505b5050905050505050505050565b6000600654905090565b60008054906101000a900473ffffffffffffffffffffffffffffffffffffffff1673ffffffffffffffffffffffffffffffffffffffff163373ffffffffffffffffffffffffffffffffffffffff1614610a1b576040517f08c379a0000000000000000000000000000000000000000000000000000000008152600401610a1290611565565b60405180910390fd5b80600073ffffffffffffffffffffffffffffffffffffffff16600860008373ffffffffffffffffffffffffffffffffffffffff1673ffffffffffffffffffffffffffffffffffffffff16815260200190815260200160002060009054906101000a900473ffffffffffffffffffffffffffffffffffffffff1673ffffffffffffffffffffffffffffffffffffffff1603610c7c57600073ffffffffffffffffffffffffffffffffffffffff16600260009054906101000a900473ffffffffffffffffffffffffffffffffffffffff1673ffffffffffffffffffffffffffffffffffffffff161480610b5a5750600073ffffffffffffffffffffffffffffffffffffffff16600160009054906101000a900473ffffffffffffffffffffffffffffffffffffffff1673ffffffffffffffffffffffffffffffffffffffff16145b15610b9a576040517f08c379a0000000000000000000000000000000000000000000000000000000008152600401610b91906118c1565b60405180910390fd5b6007829080600181540180825580915050600190039060005260206000200160009091909190916101000a81548173ffffffffffffffffffffffffffffffffffffffff021916908373ffffffffffffffffffffffffffffffffffffffff16021790555081600860008473ffffffffffffffffffffffffffffffffffffffff1673ffffffffffffffffffffffffffffffffffffffff16815260200190815260200160002060006101000a81548173ffffffffffffffffffffffffffffffffffffffff021916908373ffffffffffffffffffffffffffffffffffffffff1602179055505b5050565b60008054906101000a900473ffffffffffffffffffffffffffffffffffffffff1673ffffffffffffffffffffffffffffffffffffffff163373ffffffffffffffffffffffffffffffffffffffff1614610d0e576040517f08c379a0000000000000000000000000000000000000000000000000000000008152600401610d0590611565565b60405180910390fd5b80600260006101000a81548173ffffffffffffffffffffffffffffffffffffffff021916908373ffffffffffffffffffffffffffffffffffffffff16021790555050565b60065481565b60078181548110610d6857600080fd5b906000526020600020016000915054906101000a900473ffffffffffffffffffffffffffffffffffffffff1681565b60035481565b60008054906101000a900473ffffffffffffffffffffffffffffffffffffffff1673ffffffffffffffffffffffffffffffffffffffff163373ffffffffffffffffffffffffffffffffffffffff1614610e2b576040517f08c379a0000000000000000000000000000000000000000000000000000000008152600401610e2290611565565b60405180910390fd5b60648311158015610e3d575060648211155b8015610e4a575060648111155b610e89576040517f08c379a0000000000000000000000000000000000000000000000000000000008152600401610e8090611979565b60405180910390fd5b6064818385610e989190611999565b610ea29190611999565b14610ee2576040517f08c379a0000000000000000000000000000000000000000000000000000000008152600401610ed990611a61565b60405180910390fd5b826003819055508160048190555080600581905550505050565b60086020528060005260406000206000915054906101000a900473ffffffffffffffffffffffffffffffffffffffff1681565b60055481565b60606007805480602002602001604051908101604052809291908181526020018280548015610fb957602002820191906000526020600020905b8160009054906101000a900473ffffffffffffffffffffffffffffffffffffffff1673ffffffffffffffffffffffffffffffffffffffff1681526020019060010190808311610f6f575b5050505050905090565b60045481565b60008054906101000a900473ffffffffffffffffffffffffffffffffffffffff1673ffffffffffffffffffffffffffffffffffffffff163373ffffffffffffffffffffffffffffffffffffffff1614611057576040517f08c379a000000000000000000000000000000000000000000000000000000000815260040161104e90611565565b60405180910390fd5b80600160006101000a81548173ffffffffffffffffffffffffffffffffffffffff021916908373ffffffffffffffffffffffffffffffffffffffff16021790555050565b60008054906101000a900473ffffffffffffffffffffffffffffffffffffffff1681565b60008054906101000a900473ffffffffffffffffffffffffffffffffffffffff1673ffffffffffffffffffffffffffffffffffffffff163373ffffffffffffffffffffffffffffffffffffffff161461114d576040517f08c379a000000000000000000000000000000000000000000000000000000000815260040161114490611565565b60405180910390fd5b60648110611190576040517f08c379a000000000000000000000000000000000000000000000000000000000815260040161118790611b19565b60405180910390fd5b8060068190555050565b60008073ffffffffffffffffffffffffffffffffffffffff16600860008473ffffffffffffffffffffffffffffffffffffffff1673ffffffffffffffffffffffffffffffffffffffff16815260200190815260200160002060009054906101000a900473ffffffffffffffffffffffffffffffffffffffff1673ffffffffffffffffffffffffffffffffffffffff1614159050919050565b600073ffffffffffffffffffffffffffffffffffffffff82169050919050565b600061125d82611232565b9050919050565b61126d81611252565b82525050565b60006020820190506112886000830184611264565b92915050565b600080fd5b61129c81611252565b81146112a757600080fd5b50565b6000813590506112b981611293565b92915050565b6000602082840312156112d5576112d461128e565b5b60006112e3848285016112aa565b91505092915050565b6000819050919050565b6112ff816112ec565b82525050565b600060208201905061131a60008301846112f6565b92915050565b611329816112ec565b811461133457600080fd5b50565b60008135905061134681611320565b92915050565b6000602082840312156113625761136161128e565b5b600061137084828501611337565b91505092915050565b6000806000606084860312156113925761139161128e565b5b60006113a086828701611337565b93505060206113b186828701611337565b92505060406113c286828701611337565b9150509250925092565b600081519050919050565b600082825260208201905092915050565b6000819050602082019050919050565b61140181611252565b82525050565b600061141383836113f8565b60208301905092915050565b6000602082019050919050565b6000611437826113cc565b61144181856113d7565b935061144c836113e8565b8060005b8381101561147d5781516114648882611407565b975061146f8361141f565b925050600181019050611450565b5085935050505092915050565b600060208201905081810360008301526114a4818461142c565b905092915050565b60008115159050919050565b6114c1816114ac565b82525050565b60006020820190506114dc60008301846114b8565b92915050565b600082825260208201905092915050565b7f596f752068617665206e6f2070726976696c65676520746f2072756e2074686960008201527f732066756e6374696f6e00000000000000000000000000000000000000000000602082015250565b600061154f602a836114e2565b915061155a826114f3565b604082019050919050565b6000602082019050818103600083015261157e81611542565b9050919050565b7f496e76616c6964206576656e74206f776e657200000000000000000000000000600082015250565b60006115bb6013836114e2565b91506115c682611585565b602082019050919050565b600060208201905081810360008301526115ea816115ae565b9050919050565b7f4e487b7100000000000000000000000000000000000000000000000000000000600052603260045260246000fd5b7f4e487b7100000000000000000000000000000000000000000000000000000000600052601160045260246000fd5b600061165a826112ec565b91507fffffffffffffffffffffffffffffffffffffffffffffffffffffffffffffffff820361168c5761168b611620565b5b600182019050919050565b7f626574206561726e696e6773206d75737420626520677265617465722074686160008201527f6e20300000000000000000000000000000000000000000000000000000000000602082015250565b60006116f36023836114e2565b91506116fe82611697565b604082019050919050565b60006020820190508181036000830152611722816116e6565b9050919050565b6000611734826112ec565b915061173f836112ec565b9250817fffffffffffffffffffffffffffffffffffffffffffffffffffffffffffffffff048311821515161561177857611777611620565b5b828202905092915050565b7f4e487b7100000000000000000000000000000000000000000000000000000000600052601260045260246000fd5b60006117bd826112ec565b91506117c8836112ec565b9250826117d8576117d7611783565b5b828204905092915050565b600081905092915050565b50565b60006117fe6000836117e3565b9150611809826117ee565b600082019050919050565b600061181f826117f1565b9150819050919050565b7f796f75206d7573742073657420686f6c6465727320616e642065636f7379737460008201527f6d654164647265737320616464726573736573206265666f726520616464696e60208201527f67206576656e74206f776e657273000000000000000000000000000000000000604082015250565b60006118ab604e836114e2565b91506118b682611829565b606082019050919050565b600060208201905081810360008301526118da8161189e565b9050919050565b7f5669672070657263656e746167657320736861726573206d757374206265206560008201527f787072657373656420696e206120203020746f2031303020726174696f2e204560208201527f78616d706c653a20333000000000000000000000000000000000000000000000604082015250565b6000611963604a836114e2565b915061196e826118e1565b606082019050919050565b6000602082019050818103600083015261199281611956565b9050919050565b60006119a4826112ec565b91506119af836112ec565b9250827fffffffffffffffffffffffffffffffffffffffffffffffffffffffffffffffff038211156119e4576119e3611620565b5b828201905092915050565b7f5468652073756d206f6620616c6c205669672070657263656e7461676520736860008201527f61726573206d75737420626520657175616c20746f2031303000000000000000602082015250565b6000611a4b6039836114e2565b9150611a56826119ef565b604082019050919050565b60006020820190508181036000830152611a7a81611a3e565b9050919050565b7f5669672070657263656e74616765206d7573742062652065787072657373656460008201527f20696e203020746f203130302070657263656e746167652e204578616d706c6560208201527f3a20313000000000000000000000000000000000000000000000000000000000604082015250565b6000611b036044836114e2565b9150611b0e82611a81565b606082019050919050565b60006020820190508181036000830152611b3281611af6565b905091905056fea264697066735822122088485eb3d543c3f343a49ea6161b768644f22d04d2aab98cd9a3604da9b177c164736f6c634300080d0033",
  "immutableReferences": {},
  "source": "// SPDX-License-Identifier: MIT\n\npragma solidity ^0.8.4;\n\nimport \"./interface/IWeb3Bets.sol\";\n\ncontract Web3Bets is IWeb3Bets {\n    address public contractOwner;\n    address public ecosystemAddress;\n    address public holdersAddress;\n    uint256 public holdersVig = 25;\n    uint256 public ecosystemVig = 50;\n    uint256 public eventOwnersVig = 25;\n    uint256 public vigPercentage = 10;\n    address[] public eventOwnerAddresses;\n    mapping(address => address) public eventOwnersMapping;\n\n    error ExistingEventOwner(string message);\n\n    constructor() {\n        contractOwner = msg.sender;\n    }\n\n    modifier onlyUser() {\n        require(\n            msg.sender == contractOwner,\n            \"You have no privilege to run this function\"\n        );\n        _;\n    }\n\n    modifier uniqueEventOwner(address _eventOwner) {\n        if (eventOwnersMapping[_eventOwner] != address(0)) {\n            return;\n        }\n        _;\n    }\n\n    function setHoldersAddress(address holder) public onlyUser {\n        holdersAddress = holder;\n    }\n\n    function setEcosystemAddress(address holder) public onlyUser {\n        ecosystemAddress = holder;\n    }\n\n    function setVigPercentage(uint256 percentage) public onlyUser {\n        require(\n            percentage < 100,\n            \"Vig percentage must be expressed in 0 to 100 percentage. Example: 10\"\n        );\n        vigPercentage = percentage;\n    }\n\n    function setVigPercentageShares(\n        uint256 hVig,\n        uint256 eVig,\n        uint256 eoVig\n    ) public onlyUser {\n        require(\n            hVig <= 100 && eVig <= 100 && eoVig <= 100,\n            \"Vig percentages shares must be expressed in a  0 to 100 ratio. Example: 30\"\n        );\n        require(\n            hVig + eVig + eoVig == 100,\n            \"The sum of all Vig percentage shares must be equal to 100\"\n        );\n\n        holdersVig = hVig;\n        ecosystemVig = eVig;\n        eventOwnersVig = eoVig;\n    }\n\n    function addEventOwner(address _eventOwner)\n        public\n        onlyUser\n        uniqueEventOwner(_eventOwner)\n    {\n        if (holdersAddress == address(0) || ecosystemAddress == address(0)) {\n            revert(\n                \"you must set holders and ecosystmeAddress addresses before adding event owners\"\n            );\n        }\n\n        eventOwnerAddresses.push(_eventOwner);\n        eventOwnersMapping[_eventOwner] = _eventOwner;\n    }\n\n    function deleteEventOwner(address _eventOwner) public onlyUser {\n        if (eventOwnersMapping[_eventOwner] == address(0)) {\n            revert(\"Invalid event owner\");\n        } else {\n            delete eventOwnersMapping[_eventOwner];\n\n            for (uint256 i = 0; i < eventOwnerAddresses.length; i++) {\n                if (eventOwnerAddresses[i] == _eventOwner) {\n                    delete eventOwnerAddresses[i];\n                    break;\n                }\n            }\n        }\n    }\n\n    function shareBetEarnings(address _eventOwner) external payable override {\n        require(msg.value > 0, \"bet earnings must be greater than 0\");\n        uint256 holdersShare = (msg.value * holdersVig )/ 100;\n        uint256 ecosystemShare = (msg.value * ecosystemVig) / 100;\n        uint256 eventOwnersShare = (msg.value * eventOwnersVig) / 100;\n\n        (bool isSentEventOwner, ) = _eventOwner.call{value: eventOwnersShare}(\n            \"\"\n        );\n\n        (bool isSentEcosystem, ) = ecosystemAddress.call{value: ecosystemShare}(\n            \"\"\n        );\n\n        (bool isSentHoldersAddress, ) = holdersAddress.call{\n            value: holdersShare\n        }(\"\");\n    }\n\n    function getVigPercentage() external view override returns (uint256) {\n        return vigPercentage;\n    }\n\n    function isEventOwner(address _owner) external view returns (bool) {\n        return eventOwnersMapping[_owner] != address(0);\n    }\n\n    function getAllEventOwners() external view returns (address[] memory) {\n        return eventOwnerAddresses;\n    }\n\n    // Function to receive Ether. msg.data must be empty\n    receive() external payable {}\n\n    // Fallback function is called when msg.data is not empty\n    fallback() external payable {}\n}\n",
  "sourcePath": "/Users/wizardom/projects/crypto/web3bets_smartcontract/contracts/Web3Bets.sol",
  "compiler": {
    "name": "solc",
    "version": "0.8.13+commit.abaa5c0e.Emscripten.clang"
  },
  "schemaVersion": "3.4.7",
  "updatedAt": "2022-08-02T05:11:13.270Z",
  "networkType": "ethereum",
  "devdoc": {
    "kind": "dev",
    "methods": {},
    "version": 1
  },
  "userdoc": {
    "kind": "user",
    "methods": {},
    "version": 1
  }
}