{
  "contractName": "Web3Bets",
  "abi": [
    {
      "inputs": [],
      "stateMutability": "nonpayable",
      "type": "constructor"
    },
    {
      "inputs": [
        {
          "internalType": "string",
          "name": "message",
          "type": "string"
        }
      ],
      "name": "ExistingEventOwner",
      "type": "error"
    },
    {
      "inputs": [],
      "name": "contractOwner",
      "outputs": [
        {
          "internalType": "address",
          "name": "",
          "type": "address"
        }
      ],
      "stateMutability": "view",
      "type": "function",
      "constant": true
    },
    {
      "inputs": [],
      "name": "ecosystemAddress",
      "outputs": [
        {
          "internalType": "address",
          "name": "",
          "type": "address"
        }
      ],
      "stateMutability": "view",
      "type": "function",
      "constant": true
    },
    {
      "inputs": [],
      "name": "ecosystemVig",
      "outputs": [
        {
          "internalType": "uint256",
          "name": "",
          "type": "uint256"
        }
      ],
      "stateMutability": "view",
      "type": "function",
      "constant": true
    },
    {
      "inputs": [
        {
          "internalType": "uint256",
          "name": "",
          "type": "uint256"
        }
      ],
      "name": "eventOwnerAddresses",
      "outputs": [
        {
          "internalType": "address",
          "name": "",
          "type": "address"
        }
      ],
      "stateMutability": "view",
      "type": "function",
      "constant": true
    },
    {
      "inputs": [
        {
          "internalType": "address",
          "name": "",
          "type": "address"
        }
      ],
      "name": "eventOwnersMapping",
      "outputs": [
        {
          "internalType": "uint256",
          "name": "",
          "type": "uint256"
        }
      ],
      "stateMutability": "view",
      "type": "function",
      "constant": true
    },
    {
      "inputs": [],
      "name": "eventOwnersVig",
      "outputs": [
        {
          "internalType": "uint256",
          "name": "",
          "type": "uint256"
        }
      ],
      "stateMutability": "view",
      "type": "function",
      "constant": true
    },
    {
      "inputs": [],
      "name": "holdersAddress",
      "outputs": [
        {
          "internalType": "address",
          "name": "",
          "type": "address"
        }
      ],
      "stateMutability": "view",
      "type": "function",
      "constant": true
    },
    {
      "inputs": [],
      "name": "holdersVig",
      "outputs": [
        {
          "internalType": "uint256",
          "name": "",
          "type": "uint256"
        }
      ],
      "stateMutability": "view",
      "type": "function",
      "constant": true
    },
    {
      "inputs": [],
      "name": "vigPercentage",
      "outputs": [
        {
          "internalType": "uint256",
          "name": "",
          "type": "uint256"
        }
      ],
      "stateMutability": "view",
      "type": "function",
      "constant": true
    },
    {
      "inputs": [
        {
          "internalType": "address",
          "name": "holder",
          "type": "address"
        }
      ],
      "name": "setHoldersAddress",
      "outputs": [],
      "stateMutability": "nonpayable",
      "type": "function"
    },
    {
      "inputs": [
        {
          "internalType": "address",
          "name": "holder",
          "type": "address"
        }
      ],
      "name": "setEcosystemAddress",
      "outputs": [],
      "stateMutability": "nonpayable",
      "type": "function"
    },
    {
      "inputs": [
        {
          "internalType": "uint256",
          "name": "percentage",
          "type": "uint256"
        }
      ],
      "name": "setVigPercentage",
      "outputs": [],
      "stateMutability": "nonpayable",
      "type": "function"
    },
    {
      "inputs": [
        {
          "internalType": "uint256",
          "name": "hVig",
          "type": "uint256"
        },
        {
          "internalType": "uint256",
          "name": "eVig",
          "type": "uint256"
        },
        {
          "internalType": "uint256",
          "name": "eoVig",
          "type": "uint256"
        }
      ],
      "name": "setVigPercentageShares",
      "outputs": [],
      "stateMutability": "nonpayable",
      "type": "function"
    },
    {
      "inputs": [
        {
          "internalType": "address",
          "name": "eventOwner",
          "type": "address"
        }
      ],
      "name": "addEventOwner",
      "outputs": [],
      "stateMutability": "nonpayable",
      "type": "function"
    },
    {
      "inputs": [
        {
          "internalType": "address",
          "name": "_eventOwner",
          "type": "address"
        }
      ],
      "name": "deleteEventOwner",
      "outputs": [],
      "stateMutability": "nonpayable",
      "type": "function"
    },
    {
      "inputs": [],
      "name": "shareBetEarnings",
      "outputs": [],
      "stateMutability": "payable",
      "type": "function",
      "payable": true
    },
    {
      "inputs": [],
      "name": "getVigPercentage",
      "outputs": [
        {
          "internalType": "uint256",
          "name": "",
          "type": "uint256"
        }
      ],
      "stateMutability": "view",
      "type": "function",
      "constant": true
    },
    {
      "inputs": [],
      "name": "getAllEventOwners",
      "outputs": [
        {
          "internalType": "address[]",
          "name": "",
          "type": "address[]"
        }
      ],
      "stateMutability": "view",
      "type": "function",
      "constant": true
    }
  ],
  "bytecode": "0x6080604052601960035560326004556019600555600a60065534801561002457600080fd5b50336000806101000a81548173ffffffffffffffffffffffffffffffffffffffff021916908373ffffffffffffffffffffffffffffffffffffffff160217905550611866806100746000396000f3fe6080604052600436106101095760003560e01c80634d16132411610095578063932a3ed611610064578063932a3ed6146103385780639376b94c14610363578063a8e01b281461038e578063ce606ee0146103b7578063d6c1ca26146103e257610109565b80634d1613241461029d5780636824a678146102a757806375459b72146102d05780638761af9a1461030d57610109565b806327848eae116100dc57806327848eae146101b8578063327372e4146101e1578063387440e61461020a57806343dd1c0014610235578063486d1e501461027257610109565b806306a5cb3a1461010e5780630c0d5cb3146101395780630da4ee50146101625780632004b3e51461018d575b600080fd5b34801561011a57600080fd5b5061012361040b565b6040516101309190610fc6565b60405180910390f35b34801561014557600080fd5b50610160600480360381019061015b9190611012565b610431565b005b34801561016e57600080fd5b50610177610662565b6040516101849190610fc6565b60405180910390f35b34801561019957600080fd5b506101a2610688565b6040516101af9190611058565b60405180910390f35b3480156101c457600080fd5b506101df60048036038101906101da9190611012565b610692565b005b3480156101ed57600080fd5b5061020860048036038101906102039190611012565b610853565b005b34801561021657600080fd5b5061021f610925565b60405161022c9190611058565b60405180910390f35b34801561024157600080fd5b5061025c6004803603810190610257919061109f565b61092b565b6040516102699190610fc6565b60405180910390f35b34801561027e57600080fd5b5061028761096a565b6040516102949190611058565b60405180910390f35b6102a5610970565b005b3480156102b357600080fd5b506102ce60048036038101906102c991906110cc565b610ba3565b005b3480156102dc57600080fd5b506102f760048036038101906102f29190611012565b610d02565b6040516103049190611058565b60405180910390f35b34801561031957600080fd5b50610322610d1a565b60405161032f9190611058565b60405180910390f35b34801561034457600080fd5b5061034d610d20565b60405161035a91906111dd565b60405180910390f35b34801561036f57600080fd5b50610378610dae565b6040516103859190611058565b60405180910390f35b34801561039a57600080fd5b506103b560048036038101906103b09190611012565b610db4565b005b3480156103c357600080fd5b506103cc610e86565b6040516103d99190610fc6565b60405180910390f35b3480156103ee57600080fd5b506104096004803603810190610404919061109f565b610eaa565b005b600160009054906101000a900473ffffffffffffffffffffffffffffffffffffffff1681565b60008054906101000a900473ffffffffffffffffffffffffffffffffffffffff1673ffffffffffffffffffffffffffffffffffffffff163373ffffffffffffffffffffffffffffffffffffffff16146104bf576040517f08c379a00000000000000000000000000000000000000000000000000000000081526004016104b690611282565b60405180910390fd5b6000600860008373ffffffffffffffffffffffffffffffffffffffff1673ffffffffffffffffffffffffffffffffffffffff1681526020019081526020016000205403610541576040517f08c379a0000000000000000000000000000000000000000000000000000000008152600401610538906112ee565b60405180910390fd5b600860008273ffffffffffffffffffffffffffffffffffffffff1673ffffffffffffffffffffffffffffffffffffffff1681526020019081526020016000206000905560005b60078054905081101561065e578173ffffffffffffffffffffffffffffffffffffffff16600782815481106105bf576105be61130e565b5b9060005260206000200160009054906101000a900473ffffffffffffffffffffffffffffffffffffffff1673ffffffffffffffffffffffffffffffffffffffff160361064b57600781815481106106195761061861130e565b5b9060005260206000200160006101000a81549073ffffffffffffffffffffffffffffffffffffffff021916905561065e565b80806106569061136c565b915050610587565b5050565b600260009054906101000a900473ffffffffffffffffffffffffffffffffffffffff1681565b6000600654905090565b60008054906101000a900473ffffffffffffffffffffffffffffffffffffffff1673ffffffffffffffffffffffffffffffffffffffff163373ffffffffffffffffffffffffffffffffffffffff1614610720576040517f08c379a000000000000000000000000000000000000000000000000000000000815260040161071790611282565b60405180910390fd5b806000600860008373ffffffffffffffffffffffffffffffffffffffff1673ffffffffffffffffffffffffffffffffffffffff16815260200190815260200160002054146107a3576040517f08c379a000000000000000000000000000000000000000000000000000000000815260040161079a90611426565b60405180910390fd5b6007829080600181540180825580915050600190039060005260206000200160009091909190916101000a81548173ffffffffffffffffffffffffffffffffffffffff021916908373ffffffffffffffffffffffffffffffffffffffff160217905550600780549050600860008473ffffffffffffffffffffffffffffffffffffffff1673ffffffffffffffffffffffffffffffffffffffff168152602001908152602001600020819055505050565b60008054906101000a900473ffffffffffffffffffffffffffffffffffffffff1673ffffffffffffffffffffffffffffffffffffffff163373ffffffffffffffffffffffffffffffffffffffff16146108e1576040517f08c379a00000000000000000000000000000000000000000000000000000000081526004016108d890611282565b60405180910390fd5b80600260006101000a81548173ffffffffffffffffffffffffffffffffffffffff021916908373ffffffffffffffffffffffffffffffffffffffff16021790555050565b60065481565b6007818154811061093b57600080fd5b906000526020600020016000915054906101000a900473ffffffffffffffffffffffffffffffffffffffff1681565b60035481565b600034116109b3576040517f08c379a00000000000000000000000000000000000000000000000000000000081526004016109aa906114b8565b60405180910390fd5b600060646003546109c49190611507565b346109cf9190611538565b9050600060646004546109e29190611507565b346109ed9190611538565b905060006064600554610a009190611507565b34610a0b9190611538565b9050600033905060008173ffffffffffffffffffffffffffffffffffffffff1683604051610a38906115c3565b60006040518083038185875af1925050503d8060008114610a75576040519150601f19603f3d011682016040523d82523d6000602084013e610a7a565b606091505b505090506000600160009054906101000a900473ffffffffffffffffffffffffffffffffffffffff1673ffffffffffffffffffffffffffffffffffffffff1685604051610ac6906115c3565b60006040518083038185875af1925050503d8060008114610b03576040519150601f19603f3d011682016040523d82523d6000602084013e610b08565b606091505b505090506000600260009054906101000a900473ffffffffffffffffffffffffffffffffffffffff1673ffffffffffffffffffffffffffffffffffffffff1687604051610b54906115c3565b60006040518083038185875af1925050503d8060008114610b91576040519150601f19603f3d011682016040523d82523d6000602084013e610b96565b606091505b5050905050505050505050565b60008054906101000a900473ffffffffffffffffffffffffffffffffffffffff1673ffffffffffffffffffffffffffffffffffffffff163373ffffffffffffffffffffffffffffffffffffffff1614610c31576040517f08c379a0000000000000000000000000000000000000000000000000000000008152600401610c2890611282565b60405180910390fd5b60648311158015610c43575060648211155b8015610c50575060648111155b610c8f576040517f08c379a0000000000000000000000000000000000000000000000000000000008152600401610c8690611670565b60405180910390fd5b6064818385610c9e9190611690565b610ca89190611690565b14610ce8576040517f08c379a0000000000000000000000000000000000000000000000000000000008152600401610cdf90611758565b60405180910390fd5b826003819055508160048190555080600581905550505050565b60086020528060005260406000206000915090505481565b60055481565b60606007805480602002602001604051908101604052809291908181526020018280548015610da457602002820191906000526020600020905b8160009054906101000a900473ffffffffffffffffffffffffffffffffffffffff1673ffffffffffffffffffffffffffffffffffffffff1681526020019060010190808311610d5a575b5050505050905090565b60045481565b60008054906101000a900473ffffffffffffffffffffffffffffffffffffffff1673ffffffffffffffffffffffffffffffffffffffff163373ffffffffffffffffffffffffffffffffffffffff1614610e42576040517f08c379a0000000000000000000000000000000000000000000000000000000008152600401610e3990611282565b60405180910390fd5b80600160006101000a81548173ffffffffffffffffffffffffffffffffffffffff021916908373ffffffffffffffffffffffffffffffffffffffff16021790555050565b60008054906101000a900473ffffffffffffffffffffffffffffffffffffffff1681565b60008054906101000a900473ffffffffffffffffffffffffffffffffffffffff1673ffffffffffffffffffffffffffffffffffffffff163373ffffffffffffffffffffffffffffffffffffffff1614610f38576040517f08c379a0000000000000000000000000000000000000000000000000000000008152600401610f2f90611282565b60405180910390fd5b60648110610f7b576040517f08c379a0000000000000000000000000000000000000000000000000000000008152600401610f7290611810565b60405180910390fd5b8060068190555050565b600073ffffffffffffffffffffffffffffffffffffffff82169050919050565b6000610fb082610f85565b9050919050565b610fc081610fa5565b82525050565b6000602082019050610fdb6000830184610fb7565b92915050565b600080fd5b610fef81610fa5565b8114610ffa57600080fd5b50565b60008135905061100c81610fe6565b92915050565b60006020828403121561102857611027610fe1565b5b600061103684828501610ffd565b91505092915050565b6000819050919050565b6110528161103f565b82525050565b600060208201905061106d6000830184611049565b92915050565b61107c8161103f565b811461108757600080fd5b50565b60008135905061109981611073565b92915050565b6000602082840312156110b5576110b4610fe1565b5b60006110c38482850161108a565b91505092915050565b6000806000606084860312156110e5576110e4610fe1565b5b60006110f38682870161108a565b93505060206111048682870161108a565b92505060406111158682870161108a565b9150509250925092565b600081519050919050565b600082825260208201905092915050565b6000819050602082019050919050565b61115481610fa5565b82525050565b6000611166838361114b565b60208301905092915050565b6000602082019050919050565b600061118a8261111f565b611194818561112a565b935061119f8361113b565b8060005b838110156111d05781516111b7888261115a565b97506111c283611172565b9250506001810190506111a3565b5085935050505092915050565b600060208201905081810360008301526111f7818461117f565b905092915050565b600082825260208201905092915050565b7f596f752068617665206e6f2070726976696c65676520746f2072756e2074686960008201527f732066756e6374696f6e00000000000000000000000000000000000000000000602082015250565b600061126c602a836111ff565b915061127782611210565b604082019050919050565b6000602082019050818103600083015261129b8161125f565b9050919050565b7f496e76616c6964206576656e74206f776e657200000000000000000000000000600082015250565b60006112d86013836111ff565b91506112e3826112a2565b602082019050919050565b60006020820190508181036000830152611307816112cb565b9050919050565b7f4e487b7100000000000000000000000000000000000000000000000000000000600052603260045260246000fd5b7f4e487b7100000000000000000000000000000000000000000000000000000000600052601160045260246000fd5b60006113778261103f565b91507fffffffffffffffffffffffffffffffffffffffffffffffffffffffffffffffff82036113a9576113a861133d565b5b600182019050919050565b7f54686973206164647265737320697320616c726561647920616e206576656e7460008201527f206f776e65720000000000000000000000000000000000000000000000000000602082015250565b60006114106026836111ff565b915061141b826113b4565b604082019050919050565b6000602082019050818103600083015261143f81611403565b9050919050565b7f626574206561726e696e6773206d75737420626520677265617465722074686160008201527f6e20300000000000000000000000000000000000000000000000000000000000602082015250565b60006114a26023836111ff565b91506114ad82611446565b604082019050919050565b600060208201905081810360008301526114d181611495565b9050919050565b7f4e487b7100000000000000000000000000000000000000000000000000000000600052601260045260246000fd5b60006115128261103f565b915061151d8361103f565b92508261152d5761152c6114d8565b5b828204905092915050565b60006115438261103f565b915061154e8361103f565b9250817fffffffffffffffffffffffffffffffffffffffffffffffffffffffffffffffff04831182151516156115875761158661133d565b5b828202905092915050565b600081905092915050565b50565b60006115ad600083611592565b91506115b88261159d565b600082019050919050565b60006115ce826115a0565b9150819050919050565b7f5669672070657263656e746167657320736861726573206d757374206265206560008201527f787072657373656420696e206120203020746f2031303020726174696f2e204560208201527f78616d706c653a20333000000000000000000000000000000000000000000000604082015250565b600061165a604a836111ff565b9150611665826115d8565b606082019050919050565b600060208201905081810360008301526116898161164d565b9050919050565b600061169b8261103f565b91506116a68361103f565b9250827fffffffffffffffffffffffffffffffffffffffffffffffffffffffffffffffff038211156116db576116da61133d565b5b828201905092915050565b7f5468652073756d206f6620616c6c205669672070657263656e7461676520736860008201527f61726573206d75737420626520657175616c20746f2031303000000000000000602082015250565b60006117426039836111ff565b915061174d826116e6565b604082019050919050565b6000602082019050818103600083015261177181611735565b9050919050565b7f5669672070657263656e74616765206d7573742062652065787072657373656460008201527f20696e203020746f203130302070657263656e746167652e204578616d706c6560208201527f3a20313000000000000000000000000000000000000000000000000000000000604082015250565b60006117fa6044836111ff565b915061180582611778565b606082019050919050565b60006020820190508181036000830152611829816117ed565b905091905056fea264697066735822122099ad07514f8581de6ff093da3b0d3b7b06d0099d66552683fa12e8ce9f7a6e0864736f6c634300080d0033",
  "immutableReferences": {},
  "source": "// SPDX-License-Identifier: MIT\n\npragma solidity ^0.8.4;\n\nimport \"./interface/IWeb3Bets.sol\";\n\ncontract Web3Bets is IWeb3Bets {\n    address public contractOwner;\n    address public ecosystemAddress;\n    address public holdersAddress;\n    uint256 public holdersVig = 25;\n    uint256 public ecosystemVig = 50;\n    uint256 public eventOwnersVig = 25;\n    uint256 public vigPercentage = 10;\n    address[] public eventOwnerAddresses;\n    mapping(address => uint256) public eventOwnersMapping;\n\n    error ExistingEventOwner(string message);\n\n    constructor() {\n        contractOwner = msg.sender;\n    }\n\n    modifier onlyUser() {\n        require(\n            msg.sender == contractOwner,\n            \"You have no privilege to run this function\"\n        );\n        _;\n    }\n\n    modifier uniqueEventOwner(address eventOwner) {\n        if (eventOwnersMapping[eventOwner] != 0) {\n            revert(\"This address is already an event owner\");\n        }\n        _;\n    }\n\n    function setHoldersAddress(address holder) public onlyUser {\n        holdersAddress = holder;\n    }\n\n    function setEcosystemAddress(address holder) public onlyUser {\n        ecosystemAddress = holder;\n    }\n\n    function setVigPercentage(uint256 percentage) public onlyUser {\n        require(\n            percentage < 100,\n            \"Vig percentage must be expressed in 0 to 100 percentage. Example: 10\"\n        );\n        vigPercentage = percentage;\n    }\n\n    function setVigPercentageShares(\n        uint256 hVig,\n        uint256 eVig,\n        uint256 eoVig\n    ) public onlyUser {\n        require(\n            hVig <= 100 && eVig <= 100 && eoVig <= 100,\n            \"Vig percentages shares must be expressed in a  0 to 100 ratio. Example: 30\"\n        );\n        require(\n            hVig + eVig + eoVig == 100,\n            \"The sum of all Vig percentage shares must be equal to 100\"\n        );\n\n        holdersVig = hVig;\n        ecosystemVig = eVig;\n        eventOwnersVig = eoVig;\n    }\n\n    function addEventOwner(address eventOwner)\n        public\n        onlyUser\n        uniqueEventOwner(eventOwner)\n    {\n        eventOwnerAddresses.push(eventOwner);\n        eventOwnersMapping[eventOwner] = eventOwnerAddresses.length;\n\n    }\n\n    function deleteEventOwner(address _eventOwner)\n    public \n    onlyUser{\n        if (eventOwnersMapping[_eventOwner] == 0){\n            revert(\"Invalid event owner\");\n        }\n\n        else {\n            delete eventOwnersMapping[_eventOwner];\n        \n        for (uint i = 0; i< eventOwnerAddresses.length; i++){\n            if (eventOwnerAddresses[i] == _eventOwner){\n                delete eventOwnerAddresses[i];\n                break;\n            }\n        }\n        }\n    }\n\n    function shareBetEarnings() external payable override {\n        require(msg.value > 0, \"bet earnings must be greater than 0\");\n        uint256 holdersShare = msg.value * (holdersVig / 100);\n        uint256 ecosystemShare = msg.value * (ecosystemVig / 100);\n        uint256 eventOwnersShare = msg.value * (eventOwnersVig / 100);\n        address payable eventOwner = payable(msg.sender);\n\n        (bool isSentEventOwner, ) = eventOwner.call{value: eventOwnersShare}(\n            \"\"\n        );\n\n        (bool isSentEcosystem, ) = ecosystemAddress.call{value: ecosystemShare}(\n            \"\"\n        );\n\n        (bool isSentHoldersAddress, ) = holdersAddress.call{\n            value: holdersShare\n        }(\"\");\n    }\n\n    function getVigPercentage() external view override returns (uint256) {\n        return vigPercentage;\n    }\n\n    function getAllEventOwners() external view returns (address[] memory)\n{\n    return eventOwnerAddresses;\n}\n}\n",
  "sourcePath": "/Users/wizardom/projects/crypto/web3bets_smartcontract/contracts/Web3Bets.sol",
  "compiler": {
    "name": "solc",
    "version": "0.8.13+commit.abaa5c0e.Emscripten.clang"
  },
  "schemaVersion": "3.4.7",
  "updatedAt": "2022-07-25T11:22:14.912Z",
  "networkType": "ethereum",
  "devdoc": {
    "kind": "dev",
    "methods": {},
    "version": 1
  },
  "userdoc": {
    "kind": "user",
    "methods": {},
    "version": 1
  }
}