{
  "contractName": "Web3Bets",
  "abi": [
    {
      "inputs": [],
      "stateMutability": "nonpayable",
      "type": "constructor"
    },
    {
      "inputs": [
        {
          "internalType": "string",
          "name": "message",
          "type": "string"
        }
      ],
      "name": "ExistingEventOwner",
      "type": "error"
    },
    {
      "inputs": [],
      "name": "contractOwner",
      "outputs": [
        {
          "internalType": "address",
          "name": "",
          "type": "address"
        }
      ],
      "stateMutability": "view",
      "type": "function",
      "constant": true
    },
    {
      "inputs": [],
      "name": "ecosystemAddress",
      "outputs": [
        {
          "internalType": "address",
          "name": "",
          "type": "address"
        }
      ],
      "stateMutability": "view",
      "type": "function",
      "constant": true
    },
    {
      "inputs": [],
      "name": "ecosystemVig",
      "outputs": [
        {
          "internalType": "uint256",
          "name": "",
          "type": "uint256"
        }
      ],
      "stateMutability": "view",
      "type": "function",
      "constant": true
    },
    {
      "inputs": [
        {
          "internalType": "uint256",
          "name": "",
          "type": "uint256"
        }
      ],
      "name": "eventOwnerAddresses",
      "outputs": [
        {
          "internalType": "address",
          "name": "",
          "type": "address"
        }
      ],
      "stateMutability": "view",
      "type": "function",
      "constant": true
    },
    {
      "inputs": [
        {
          "internalType": "address",
          "name": "",
          "type": "address"
        }
      ],
      "name": "eventOwnersMapping",
      "outputs": [
        {
          "internalType": "uint256",
          "name": "",
          "type": "uint256"
        }
      ],
      "stateMutability": "view",
      "type": "function",
      "constant": true
    },
    {
      "inputs": [],
      "name": "eventOwnersVig",
      "outputs": [
        {
          "internalType": "uint256",
          "name": "",
          "type": "uint256"
        }
      ],
      "stateMutability": "view",
      "type": "function",
      "constant": true
    },
    {
      "inputs": [],
      "name": "holdersAddress",
      "outputs": [
        {
          "internalType": "address",
          "name": "",
          "type": "address"
        }
      ],
      "stateMutability": "view",
      "type": "function",
      "constant": true
    },
    {
      "inputs": [],
      "name": "holdersVig",
      "outputs": [
        {
          "internalType": "uint256",
          "name": "",
          "type": "uint256"
        }
      ],
      "stateMutability": "view",
      "type": "function",
      "constant": true
    },
    {
      "inputs": [],
      "name": "vigPercentage",
      "outputs": [
        {
          "internalType": "uint256",
          "name": "",
          "type": "uint256"
        }
      ],
      "stateMutability": "view",
      "type": "function",
      "constant": true
    },
    {
      "inputs": [
        {
          "internalType": "address",
          "name": "holder",
          "type": "address"
        }
      ],
      "name": "setHoldersAddress",
      "outputs": [],
      "stateMutability": "nonpayable",
      "type": "function"
    },
    {
      "inputs": [
        {
          "internalType": "address",
          "name": "holder",
          "type": "address"
        }
      ],
      "name": "setEcosystemAddress",
      "outputs": [],
      "stateMutability": "nonpayable",
      "type": "function"
    },
    {
      "inputs": [
        {
          "internalType": "uint256",
          "name": "percentage",
          "type": "uint256"
        }
      ],
      "name": "setVigPercentage",
      "outputs": [],
      "stateMutability": "nonpayable",
      "type": "function"
    },
    {
      "inputs": [
        {
          "internalType": "uint256",
          "name": "hVig",
          "type": "uint256"
        },
        {
          "internalType": "uint256",
          "name": "eVig",
          "type": "uint256"
        },
        {
          "internalType": "uint256",
          "name": "eoVig",
          "type": "uint256"
        }
      ],
      "name": "setVigPercentageShares",
      "outputs": [],
      "stateMutability": "nonpayable",
      "type": "function"
    },
    {
      "inputs": [
        {
          "internalType": "address",
          "name": "eventOwner",
          "type": "address"
        }
      ],
      "name": "addEventOwner",
      "outputs": [],
      "stateMutability": "nonpayable",
      "type": "function"
    },
    {
      "inputs": [],
      "name": "shareBetEarnings",
      "outputs": [],
      "stateMutability": "payable",
      "type": "function",
      "payable": true
    },
    {
      "inputs": [],
      "name": "getVigPercentage",
      "outputs": [
        {
          "internalType": "uint256",
          "name": "",
          "type": "uint256"
        }
      ],
      "stateMutability": "view",
      "type": "function",
      "constant": true
    }
  ],
  "bytecode": "0x6080604052601960035560326004556019600555600a60065534801561002457600080fd5b50336000806101000a81548173ffffffffffffffffffffffffffffffffffffffff021916908373ffffffffffffffffffffffffffffffffffffffff16021790555061137a806100746000396000f3fe6080604052600436106100f35760003560e01c80634d1613241161008a5780639376b94c116100595780639376b94c146102f9578063a8e01b2814610324578063ce606ee01461034d578063d6c1ca2614610378576100f3565b80634d1613241461025e5780636824a6781461026857806375459b72146102915780638761af9a146102ce576100f3565b8063327372e4116100c6578063327372e4146101a2578063387440e6146101cb57806343dd1c00146101f6578063486d1e5014610233576100f3565b806306a5cb3a146100f85780630da4ee50146101235780632004b3e51461014e57806327848eae14610179575b600080fd5b34801561010457600080fd5b5061010d6103a1565b60405161011a9190610c9d565b60405180910390f35b34801561012f57600080fd5b506101386103c7565b6040516101459190610c9d565b60405180910390f35b34801561015a57600080fd5b506101636103ed565b6040516101709190610cd1565b60405180910390f35b34801561018557600080fd5b506101a0600480360381019061019b9190610d1d565b6103f7565b005b3480156101ae57600080fd5b506101c960048036038101906101c49190610d1d565b6105b8565b005b3480156101d757600080fd5b506101e061068a565b6040516101ed9190610cd1565b60405180910390f35b34801561020257600080fd5b5061021d60048036038101906102189190610d76565b610690565b60405161022a9190610c9d565b60405180910390f35b34801561023f57600080fd5b506102486106cf565b6040516102559190610cd1565b60405180910390f35b6102666106d5565b005b34801561027457600080fd5b5061028f600480360381019061028a9190610da3565b610908565b005b34801561029d57600080fd5b506102b860048036038101906102b39190610d1d565b610a67565b6040516102c59190610cd1565b60405180910390f35b3480156102da57600080fd5b506102e3610a7f565b6040516102f09190610cd1565b60405180910390f35b34801561030557600080fd5b5061030e610a85565b60405161031b9190610cd1565b60405180910390f35b34801561033057600080fd5b5061034b60048036038101906103469190610d1d565b610a8b565b005b34801561035957600080fd5b50610362610b5d565b60405161036f9190610c9d565b60405180910390f35b34801561038457600080fd5b5061039f600480360381019061039a9190610d76565b610b81565b005b600160009054906101000a900473ffffffffffffffffffffffffffffffffffffffff1681565b600260009054906101000a900473ffffffffffffffffffffffffffffffffffffffff1681565b6000600654905090565b60008054906101000a900473ffffffffffffffffffffffffffffffffffffffff1673ffffffffffffffffffffffffffffffffffffffff163373ffffffffffffffffffffffffffffffffffffffff1614610485576040517f08c379a000000000000000000000000000000000000000000000000000000000815260040161047c90610e79565b60405180910390fd5b806000600860008373ffffffffffffffffffffffffffffffffffffffff1673ffffffffffffffffffffffffffffffffffffffff1681526020019081526020016000205414610508576040517f2a1e78fb0000000000000000000000000000000000000000000000000000000081526004016104ff90610f0b565b60405180910390fd5b6007829080600181540180825580915050600190039060005260206000200160009091909190916101000a81548173ffffffffffffffffffffffffffffffffffffffff021916908373ffffffffffffffffffffffffffffffffffffffff160217905550600780549050600860008473ffffffffffffffffffffffffffffffffffffffff1673ffffffffffffffffffffffffffffffffffffffff168152602001908152602001600020819055505050565b60008054906101000a900473ffffffffffffffffffffffffffffffffffffffff1673ffffffffffffffffffffffffffffffffffffffff163373ffffffffffffffffffffffffffffffffffffffff1614610646576040517f08c379a000000000000000000000000000000000000000000000000000000000815260040161063d90610e79565b60405180910390fd5b80600260006101000a81548173ffffffffffffffffffffffffffffffffffffffff021916908373ffffffffffffffffffffffffffffffffffffffff16021790555050565b60065481565b600781815481106106a057600080fd5b906000526020600020016000915054906101000a900473ffffffffffffffffffffffffffffffffffffffff1681565b60035481565b60003411610718576040517f08c379a000000000000000000000000000000000000000000000000000000000815260040161070f90610f9d565b60405180910390fd5b60006064600354610729919061101b565b34610734919061104c565b905060006064600454610747919061101b565b34610752919061104c565b905060006064600554610765919061101b565b34610770919061104c565b9050600033905060008173ffffffffffffffffffffffffffffffffffffffff168360405161079d906110d7565b60006040518083038185875af1925050503d80600081146107da576040519150601f19603f3d011682016040523d82523d6000602084013e6107df565b606091505b505090506000600160009054906101000a900473ffffffffffffffffffffffffffffffffffffffff1673ffffffffffffffffffffffffffffffffffffffff168560405161082b906110d7565b60006040518083038185875af1925050503d8060008114610868576040519150601f19603f3d011682016040523d82523d6000602084013e61086d565b606091505b505090506000600260009054906101000a900473ffffffffffffffffffffffffffffffffffffffff1673ffffffffffffffffffffffffffffffffffffffff16876040516108b9906110d7565b60006040518083038185875af1925050503d80600081146108f6576040519150601f19603f3d011682016040523d82523d6000602084013e6108fb565b606091505b5050905050505050505050565b60008054906101000a900473ffffffffffffffffffffffffffffffffffffffff1673ffffffffffffffffffffffffffffffffffffffff163373ffffffffffffffffffffffffffffffffffffffff1614610996576040517f08c379a000000000000000000000000000000000000000000000000000000000815260040161098d90610e79565b60405180910390fd5b606483111580156109a8575060648211155b80156109b5575060648111155b6109f4576040517f08c379a00000000000000000000000000000000000000000000000000000000081526004016109eb90611184565b60405180910390fd5b6064818385610a0391906111a4565b610a0d91906111a4565b14610a4d576040517f08c379a0000000000000000000000000000000000000000000000000000000008152600401610a449061126c565b60405180910390fd5b826003819055508160048190555080600581905550505050565b60086020528060005260406000206000915090505481565b60055481565b60045481565b60008054906101000a900473ffffffffffffffffffffffffffffffffffffffff1673ffffffffffffffffffffffffffffffffffffffff163373ffffffffffffffffffffffffffffffffffffffff1614610b19576040517f08c379a0000000000000000000000000000000000000000000000000000000008152600401610b1090610e79565b60405180910390fd5b80600160006101000a81548173ffffffffffffffffffffffffffffffffffffffff021916908373ffffffffffffffffffffffffffffffffffffffff16021790555050565b60008054906101000a900473ffffffffffffffffffffffffffffffffffffffff1681565b60008054906101000a900473ffffffffffffffffffffffffffffffffffffffff1673ffffffffffffffffffffffffffffffffffffffff163373ffffffffffffffffffffffffffffffffffffffff1614610c0f576040517f08c379a0000000000000000000000000000000000000000000000000000000008152600401610c0690610e79565b60405180910390fd5b60648110610c52576040517f08c379a0000000000000000000000000000000000000000000000000000000008152600401610c4990611324565b60405180910390fd5b8060068190555050565b600073ffffffffffffffffffffffffffffffffffffffff82169050919050565b6000610c8782610c5c565b9050919050565b610c9781610c7c565b82525050565b6000602082019050610cb26000830184610c8e565b92915050565b6000819050919050565b610ccb81610cb8565b82525050565b6000602082019050610ce66000830184610cc2565b92915050565b600080fd5b610cfa81610c7c565b8114610d0557600080fd5b50565b600081359050610d1781610cf1565b92915050565b600060208284031215610d3357610d32610cec565b5b6000610d4184828501610d08565b91505092915050565b610d5381610cb8565b8114610d5e57600080fd5b50565b600081359050610d7081610d4a565b92915050565b600060208284031215610d8c57610d8b610cec565b5b6000610d9a84828501610d61565b91505092915050565b600080600060608486031215610dbc57610dbb610cec565b5b6000610dca86828701610d61565b9350506020610ddb86828701610d61565b9250506040610dec86828701610d61565b9150509250925092565b600082825260208201905092915050565b7f596f752068617665206e6f2070726976696c65676520746f2072756e2074686960008201527f732066756e6374696f6e00000000000000000000000000000000000000000000602082015250565b6000610e63602a83610df6565b9150610e6e82610e07565b604082019050919050565b60006020820190508181036000830152610e9281610e56565b9050919050565b7f54686973206164647265737320697320616c726561647920616e206576656e7460008201527f206f776e65720000000000000000000000000000000000000000000000000000602082015250565b6000610ef5602683610df6565b9150610f0082610e99565b604082019050919050565b60006020820190508181036000830152610f2481610ee8565b9050919050565b7f626574206561726e696e6773206d75737420626520677265617465722074686160008201527f6e20300000000000000000000000000000000000000000000000000000000000602082015250565b6000610f87602383610df6565b9150610f9282610f2b565b604082019050919050565b60006020820190508181036000830152610fb681610f7a565b9050919050565b7f4e487b7100000000000000000000000000000000000000000000000000000000600052601260045260246000fd5b7f4e487b7100000000000000000000000000000000000000000000000000000000600052601160045260246000fd5b600061102682610cb8565b915061103183610cb8565b92508261104157611040610fbd565b5b828204905092915050565b600061105782610cb8565b915061106283610cb8565b9250817fffffffffffffffffffffffffffffffffffffffffffffffffffffffffffffffff048311821515161561109b5761109a610fec565b5b828202905092915050565b600081905092915050565b50565b60006110c16000836110a6565b91506110cc826110b1565b600082019050919050565b60006110e2826110b4565b9150819050919050565b7f5669672070657263656e746167657320736861726573206d757374206265206560008201527f787072657373656420696e206120203020746f2031303020726174696f2e204560208201527f78616d706c653a20333000000000000000000000000000000000000000000000604082015250565b600061116e604a83610df6565b9150611179826110ec565b606082019050919050565b6000602082019050818103600083015261119d81611161565b9050919050565b60006111af82610cb8565b91506111ba83610cb8565b9250827fffffffffffffffffffffffffffffffffffffffffffffffffffffffffffffffff038211156111ef576111ee610fec565b5b828201905092915050565b7f5468652073756d206f6620616c6c205669672070657263656e7461676520736860008201527f61726573206d75737420626520657175616c20746f2031303000000000000000602082015250565b6000611256603983610df6565b9150611261826111fa565b604082019050919050565b6000602082019050818103600083015261128581611249565b9050919050565b7f5669672070657263656e74616765206d7573742062652065787072657373656460008201527f20696e203020746f203130302070657263656e746167652e204578616d706c6560208201527f3a20313000000000000000000000000000000000000000000000000000000000604082015250565b600061130e604483610df6565b91506113198261128c565b606082019050919050565b6000602082019050818103600083015261133d81611301565b905091905056fea26469706673582212202b98f88ab2e50c17b3c3900c2586bab175e9de29c2e43f188d4b02259700cd2464736f6c634300080d0033",
  "immutableReferences": {},
  "source": "// SPDX-License-Identifier: MIT\n\npragma solidity ^0.8.4;\n\nimport \"./interface/IWeb3Bets.sol\";\n\ncontract Web3Bets is IWeb3Bets {\n    address public contractOwner;\n    address public ecosystemAddress;\n    address public holdersAddress;\n    uint256 public holdersVig = 25;\n    uint256 public ecosystemVig = 50;\n    uint256 public eventOwnersVig = 25;\n    uint256 public vigPercentage = 10;\n    address[] public eventOwnerAddresses;\n    mapping(address => uint256) public eventOwnersMapping;\n\n    error ExistingEventOwner(string message);\n\n    constructor() {\n        contractOwner = msg.sender;\n    }\n\n    modifier onlyUser() {\n        require(\n            msg.sender == contractOwner,\n            \"You have no privilege to run this function\"\n        );\n        _;\n    }\n\n    modifier uniqueEventOwner(address eventOwner) {\n        if (eventOwnersMapping[eventOwner] != 0) {\n            revert ExistingEventOwner({\n                message: \"This address is already an event owner\"\n            });\n        }\n        _;\n    }\n\n    function setHoldersAddress(address holder) public onlyUser {\n        holdersAddress = holder;\n    }\n\n    function setEcosystemAddress(address holder) public onlyUser {\n        ecosystemAddress = holder;\n    }\n\n    function setVigPercentage(uint256 percentage) public onlyUser {\n        require(\n            percentage < 100,\n            \"Vig percentage must be expressed in 0 to 100 percentage. Example: 10\"\n        );\n        vigPercentage = percentage;\n    }\n\n    function setVigPercentageShares(\n        uint256 hVig,\n        uint256 eVig,\n        uint256 eoVig\n    ) public onlyUser {\n        require(\n            hVig <= 100 && eVig <= 100 && eoVig <= 100,\n            \"Vig percentages shares must be expressed in a  0 to 100 ratio. Example: 30\"\n        );\n        require(\n            hVig + eVig + eoVig == 100,\n            \"The sum of all Vig percentage shares must be equal to 100\"\n        );\n\n        holdersVig = hVig;\n        ecosystemVig = eVig;\n        eventOwnersVig = eoVig;\n    }\n\n    function addEventOwner(address eventOwner)\n        public\n        onlyUser\n        uniqueEventOwner(eventOwner)\n    {\n        eventOwnerAddresses.push(eventOwner);\n        eventOwnersMapping[eventOwner] = eventOwnerAddresses.length;\n\n    }\n\n    function shareBetEarnings() external payable override {\n        require(msg.value > 0, \"bet earnings must be greater than 0\");\n        uint256 holdersShare = msg.value * (holdersVig / 100);\n        uint256 ecosystemShare = msg.value * (ecosystemVig / 100);\n        uint256 eventOwnersShare = msg.value * (eventOwnersVig / 100);\n        address payable eventOwner = payable(msg.sender);\n\n        (bool isSentEventOwner, ) = eventOwner.call{value: eventOwnersShare}(\n            \"\"\n        );\n\n        (bool isSentEcosystem, ) = ecosystemAddress.call{value: ecosystemShare}(\n            \"\"\n        );\n\n        (bool isSentHoldersAddress, ) = holdersAddress.call{\n            value: holdersShare\n        }(\"\");\n    }\n\n    function getVigPercentage() external view override returns (uint256) {\n        return vigPercentage;\n    }\n}\n",
  "sourcePath": "/Users/wizardom/projects/crypto/web3bets_smartcontract/contracts/Web3Bets.sol",
  "compiler": {
    "name": "solc",
    "version": "0.8.13+commit.abaa5c0e.Emscripten.clang"
  },
  "schemaVersion": "3.4.7",
  "updatedAt": "2022-07-23T15:03:20.952Z",
  "networkType": "ethereum",
  "devdoc": {
    "kind": "dev",
    "methods": {},
    "version": 1
  },
  "userdoc": {
    "kind": "user",
    "methods": {},
    "version": 1
  }
}