{
  "contractName": "Web3Bets",
  "abi": [
    {
      "inputs": [],
      "stateMutability": "nonpayable",
      "type": "constructor"
    },
    {
      "inputs": [
        {
          "internalType": "string",
          "name": "message",
          "type": "string"
        }
      ],
      "name": "ExistingEventOwner",
      "type": "error"
    },
    {
      "inputs": [],
      "name": "contractOwner",
      "outputs": [
        {
          "internalType": "address",
          "name": "",
          "type": "address"
        }
      ],
      "stateMutability": "view",
      "type": "function",
      "constant": true
    },
    {
      "inputs": [],
      "name": "ecosystemAddress",
      "outputs": [
        {
          "internalType": "address",
          "name": "",
          "type": "address"
        }
      ],
      "stateMutability": "view",
      "type": "function",
      "constant": true
    },
    {
      "inputs": [],
      "name": "ecosystemVig",
      "outputs": [
        {
          "internalType": "uint256",
          "name": "",
          "type": "uint256"
        }
      ],
      "stateMutability": "view",
      "type": "function",
      "constant": true
    },
    {
      "inputs": [],
      "name": "eventOwnersVig",
      "outputs": [
        {
          "internalType": "uint256",
          "name": "",
          "type": "uint256"
        }
      ],
      "stateMutability": "view",
      "type": "function",
      "constant": true
    },
    {
      "inputs": [],
      "name": "holdersAddress",
      "outputs": [
        {
          "internalType": "address",
          "name": "",
          "type": "address"
        }
      ],
      "stateMutability": "view",
      "type": "function",
      "constant": true
    },
    {
      "inputs": [],
      "name": "holdersVig",
      "outputs": [
        {
          "internalType": "uint256",
          "name": "",
          "type": "uint256"
        }
      ],
      "stateMutability": "view",
      "type": "function",
      "constant": true
    },
    {
      "inputs": [],
      "name": "vigPercentage",
      "outputs": [
        {
          "internalType": "uint256",
          "name": "",
          "type": "uint256"
        }
      ],
      "stateMutability": "view",
      "type": "function",
      "constant": true
    },
    {
      "inputs": [
        {
          "internalType": "address",
          "name": "holder",
          "type": "address"
        }
      ],
      "name": "setHoldersAddress",
      "outputs": [],
      "stateMutability": "nonpayable",
      "type": "function"
    },
    {
      "inputs": [
        {
          "internalType": "address",
          "name": "holder",
          "type": "address"
        }
      ],
      "name": "setEcosystemAddress",
      "outputs": [],
      "stateMutability": "nonpayable",
      "type": "function"
    },
    {
      "inputs": [
        {
          "internalType": "uint256",
          "name": "percentage",
          "type": "uint256"
        }
      ],
      "name": "setVigPercentage",
      "outputs": [],
      "stateMutability": "nonpayable",
      "type": "function"
    },
    {
      "inputs": [
        {
          "internalType": "uint256",
          "name": "hVig",
          "type": "uint256"
        },
        {
          "internalType": "uint256",
          "name": "eVig",
          "type": "uint256"
        },
        {
          "internalType": "uint256",
          "name": "eoVig",
          "type": "uint256"
        }
      ],
      "name": "setVigPercentageShares",
      "outputs": [],
      "stateMutability": "nonpayable",
      "type": "function"
    },
    {
      "inputs": [
        {
          "internalType": "address",
          "name": "eventOwner",
          "type": "address"
        }
      ],
      "name": "addEventOwner",
      "outputs": [],
      "stateMutability": "nonpayable",
      "type": "function"
    },
    {
      "inputs": [],
      "name": "shareBetEarnings",
      "outputs": [],
      "stateMutability": "payable",
      "type": "function",
      "payable": true
    },
    {
      "inputs": [],
      "name": "getVigPercentage",
      "outputs": [
        {
          "internalType": "uint256",
          "name": "",
          "type": "uint256"
        }
      ],
      "stateMutability": "view",
      "type": "function",
      "constant": true
    }
  ],
  "bytecode": "0x6080604052601960035560326004556019600555600a60065534801561002457600080fd5b50336000806101000a81548173ffffffffffffffffffffffffffffffffffffffff021916908373ffffffffffffffffffffffffffffffffffffffff160217905550611205806100746000396000f3fe6080604052600436106100dd5760003560e01c80634d1613241161007f5780639376b94c116100595780639376b94c14610269578063a8e01b2814610294578063ce606ee0146102bd578063d6c1ca26146102e8576100dd565b80634d1613241461020b5780636824a678146102155780638761af9a1461023e576100dd565b806327848eae116100bb57806327848eae14610163578063327372e41461018c578063387440e6146101b5578063486d1e50146101e0576100dd565b806306a5cb3a146100e25780630da4ee501461010d5780632004b3e514610138575b600080fd5b3480156100ee57600080fd5b506100f7610311565b6040516101049190610b28565b60405180910390f35b34801561011957600080fd5b50610122610337565b60405161012f9190610b28565b60405180910390f35b34801561014457600080fd5b5061014d61035d565b60405161015a9190610b5c565b60405180910390f35b34801561016f57600080fd5b5061018a60048036038101906101859190610ba8565b610367565b005b34801561019857600080fd5b506101b360048036038101906101ae9190610ba8565b610528565b005b3480156101c157600080fd5b506101ca6105fa565b6040516101d79190610b5c565b60405180910390f35b3480156101ec57600080fd5b506101f5610600565b6040516102029190610b5c565b60405180910390f35b610213610606565b005b34801561022157600080fd5b5061023c60048036038101906102379190610c01565b610839565b005b34801561024a57600080fd5b5061025361090a565b6040516102609190610b5c565b60405180910390f35b34801561027557600080fd5b5061027e610910565b60405161028b9190610b5c565b60405180910390f35b3480156102a057600080fd5b506102bb60048036038101906102b69190610ba8565b610916565b005b3480156102c957600080fd5b506102d26109e8565b6040516102df9190610b28565b60405180910390f35b3480156102f457600080fd5b5061030f600480360381019061030a9190610c54565b610a0c565b005b600160009054906101000a900473ffffffffffffffffffffffffffffffffffffffff1681565b600260009054906101000a900473ffffffffffffffffffffffffffffffffffffffff1681565b6000600654905090565b60008054906101000a900473ffffffffffffffffffffffffffffffffffffffff1673ffffffffffffffffffffffffffffffffffffffff163373ffffffffffffffffffffffffffffffffffffffff16146103f5576040517f08c379a00000000000000000000000000000000000000000000000000000000081526004016103ec90610d04565b60405180910390fd5b806000600860008373ffffffffffffffffffffffffffffffffffffffff1673ffffffffffffffffffffffffffffffffffffffff1681526020019081526020016000205403610478576040517f2a1e78fb00000000000000000000000000000000000000000000000000000000815260040161046f90610d96565b60405180910390fd5b600780549050600860008473ffffffffffffffffffffffffffffffffffffffff1673ffffffffffffffffffffffffffffffffffffffff168152602001908152602001600020819055506007829080600181540180825580915050600190039060005260206000200160009091909190916101000a81548173ffffffffffffffffffffffffffffffffffffffff021916908373ffffffffffffffffffffffffffffffffffffffff1602179055505050565b60008054906101000a900473ffffffffffffffffffffffffffffffffffffffff1673ffffffffffffffffffffffffffffffffffffffff163373ffffffffffffffffffffffffffffffffffffffff16146105b6576040517f08c379a00000000000000000000000000000000000000000000000000000000081526004016105ad90610d04565b60405180910390fd5b80600260006101000a81548173ffffffffffffffffffffffffffffffffffffffff021916908373ffffffffffffffffffffffffffffffffffffffff16021790555050565b60065481565b60035481565b60003411610649576040517f08c379a000000000000000000000000000000000000000000000000000000000815260040161064090610e28565b60405180910390fd5b6000606460035461065a9190610ea6565b346106659190610ed7565b9050600060646004546106789190610ea6565b346106839190610ed7565b9050600060646005546106969190610ea6565b346106a19190610ed7565b9050600033905060008173ffffffffffffffffffffffffffffffffffffffff16836040516106ce90610f62565b60006040518083038185875af1925050503d806000811461070b576040519150601f19603f3d011682016040523d82523d6000602084013e610710565b606091505b505090506000600160009054906101000a900473ffffffffffffffffffffffffffffffffffffffff1673ffffffffffffffffffffffffffffffffffffffff168560405161075c90610f62565b60006040518083038185875af1925050503d8060008114610799576040519150601f19603f3d011682016040523d82523d6000602084013e61079e565b606091505b505090506000600260009054906101000a900473ffffffffffffffffffffffffffffffffffffffff1673ffffffffffffffffffffffffffffffffffffffff16876040516107ea90610f62565b60006040518083038185875af1925050503d8060008114610827576040519150601f19603f3d011682016040523d82523d6000602084013e61082c565b606091505b5050905050505050505050565b6064831115801561084b575060648211155b8015610858575060648111155b610897576040517f08c379a000000000000000000000000000000000000000000000000000000000815260040161088e9061100f565b60405180910390fd5b60648183856108a6919061102f565b6108b0919061102f565b146108f0576040517f08c379a00000000000000000000000000000000000000000000000000000000081526004016108e7906110f7565b60405180910390fd5b826003819055508160048190555080600581905550505050565b60055481565b60045481565b60008054906101000a900473ffffffffffffffffffffffffffffffffffffffff1673ffffffffffffffffffffffffffffffffffffffff163373ffffffffffffffffffffffffffffffffffffffff16146109a4576040517f08c379a000000000000000000000000000000000000000000000000000000000815260040161099b90610d04565b60405180910390fd5b80600160006101000a81548173ffffffffffffffffffffffffffffffffffffffff021916908373ffffffffffffffffffffffffffffffffffffffff16021790555050565b60008054906101000a900473ffffffffffffffffffffffffffffffffffffffff1681565b60008054906101000a900473ffffffffffffffffffffffffffffffffffffffff1673ffffffffffffffffffffffffffffffffffffffff163373ffffffffffffffffffffffffffffffffffffffff1614610a9a576040517f08c379a0000000000000000000000000000000000000000000000000000000008152600401610a9190610d04565b60405180910390fd5b60648110610add576040517f08c379a0000000000000000000000000000000000000000000000000000000008152600401610ad4906111af565b60405180910390fd5b8060068190555050565b600073ffffffffffffffffffffffffffffffffffffffff82169050919050565b6000610b1282610ae7565b9050919050565b610b2281610b07565b82525050565b6000602082019050610b3d6000830184610b19565b92915050565b6000819050919050565b610b5681610b43565b82525050565b6000602082019050610b716000830184610b4d565b92915050565b600080fd5b610b8581610b07565b8114610b9057600080fd5b50565b600081359050610ba281610b7c565b92915050565b600060208284031215610bbe57610bbd610b77565b5b6000610bcc84828501610b93565b91505092915050565b610bde81610b43565b8114610be957600080fd5b50565b600081359050610bfb81610bd5565b92915050565b600080600060608486031215610c1a57610c19610b77565b5b6000610c2886828701610bec565b9350506020610c3986828701610bec565b9250506040610c4a86828701610bec565b9150509250925092565b600060208284031215610c6a57610c69610b77565b5b6000610c7884828501610bec565b91505092915050565b600082825260208201905092915050565b7f596f752068617665206e6f2070726976696c65676520746f2072756e2074686960008201527f732066756e6374696f6e00000000000000000000000000000000000000000000602082015250565b6000610cee602a83610c81565b9150610cf982610c92565b604082019050919050565b60006020820190508181036000830152610d1d81610ce1565b9050919050565b7f54686973206164647265737320697320616c726561647920616e206576656e7460008201527f206f776e65720000000000000000000000000000000000000000000000000000602082015250565b6000610d80602683610c81565b9150610d8b82610d24565b604082019050919050565b60006020820190508181036000830152610daf81610d73565b9050919050565b7f626574206561726e696e6773206d75737420626520677265617465722074686160008201527f6e20300000000000000000000000000000000000000000000000000000000000602082015250565b6000610e12602383610c81565b9150610e1d82610db6565b604082019050919050565b60006020820190508181036000830152610e4181610e05565b9050919050565b7f4e487b7100000000000000000000000000000000000000000000000000000000600052601260045260246000fd5b7f4e487b7100000000000000000000000000000000000000000000000000000000600052601160045260246000fd5b6000610eb182610b43565b9150610ebc83610b43565b925082610ecc57610ecb610e48565b5b828204905092915050565b6000610ee282610b43565b9150610eed83610b43565b9250817fffffffffffffffffffffffffffffffffffffffffffffffffffffffffffffffff0483118215151615610f2657610f25610e77565b5b828202905092915050565b600081905092915050565b50565b6000610f4c600083610f31565b9150610f5782610f3c565b600082019050919050565b6000610f6d82610f3f565b9150819050919050565b7f5669672070657263656e746167657320736861726573206d757374206265206560008201527f787072657373656420696e206120203020746f2031303020726174696f2e204560208201527f78616d706c653a20333000000000000000000000000000000000000000000000604082015250565b6000610ff9604a83610c81565b915061100482610f77565b606082019050919050565b6000602082019050818103600083015261102881610fec565b9050919050565b600061103a82610b43565b915061104583610b43565b9250827fffffffffffffffffffffffffffffffffffffffffffffffffffffffffffffffff0382111561107a57611079610e77565b5b828201905092915050565b7f5468652073756d206f6620616c6c205669672070657263656e7461676520736860008201527f61726573206d75737420626520657175616c20746f2031303000000000000000602082015250565b60006110e1603983610c81565b91506110ec82611085565b604082019050919050565b60006020820190508181036000830152611110816110d4565b9050919050565b7f5669672070657263656e74616765206d7573742062652065787072657373656460008201527f20696e203020746f203130302070657263656e746167652e204578616d706c6560208201527f3a20313000000000000000000000000000000000000000000000000000000000604082015250565b6000611199604483610c81565b91506111a482611117565b606082019050919050565b600060208201905081810360008301526111c88161118c565b905091905056fea2646970667358221220915b6db126ee8b1ef996dfcedea93e51619bee90694cd4426143114f6546fa4a64736f6c634300080d0033",
  "immutableReferences": {},
  "source": "// SPDX-License-Identifier: MIT\n\npragma solidity ^0.8.4;\n\nimport \"./interface/IWeb3Bets.sol\";\n\ncontract Web3Bets is IWeb3Bets {\n    address public contractOwner;\n    address public ecosystemAddress;\n    address public holdersAddress;\n    uint256 public holdersVig = 25;\n    uint256 public ecosystemVig = 50;\n    uint256 public eventOwnersVig = 25;\n    uint256 public vigPercentage = 10;\n    address[] eventOwnerAddresses;\n    mapping(address => uint256) eventOwnersMapping;\n\n    error ExistingEventOwner(string message);\n\n    constructor() {\n        contractOwner = msg.sender;\n    }\n\n    modifier onlyUser() {\n        require(\n            msg.sender == contractOwner,\n            \"You have no privilege to run this function\"\n        );\n        _;\n    }\n\n    modifier uniqueEventOwner(address _eventOwner) {\n        if (eventOwnersMapping[_eventOwner] == 0) {\n            revert ExistingEventOwner({\n                message: \"This address is already an event owner\"\n            });\n        }\n        _;\n    }\n\n    function setHoldersAddress(address holder) public onlyUser {\n        holdersAddress = holder;\n    }\n\n    function setEcosystemAddress(address holder) public onlyUser {\n        ecosystemAddress = holder;\n    }\n\n    function setVigPercentage(uint256 percentage) public onlyUser {\n        require(\n            percentage < 100,\n            \"Vig percentage must be expressed in 0 to 100 percentage. Example: 10\"\n        );\n        vigPercentage = percentage;\n    }\n\n    function setVigPercentageShares(\n        uint256 hVig,\n        uint256 eVig,\n        uint256 eoVig\n    ) public {\n        require(\n            hVig <= 100 && eVig <= 100 && eoVig <= 100,\n            \"Vig percentages shares must be expressed in a  0 to 100 ratio. Example: 30\"\n        );\n        require(\n            hVig + eVig + eoVig == 100,\n            \"The sum of all Vig percentage shares must be equal to 100\"\n        );\n\n        holdersVig = hVig;\n        ecosystemVig = eVig;\n        eventOwnersVig = eoVig;\n    }\n\n    function addEventOwner(address eventOwner)\n        public\n        onlyUser\n        uniqueEventOwner(eventOwner)\n    {\n        eventOwnersMapping[eventOwner] = eventOwnerAddresses.length;\n        eventOwnerAddresses.push(eventOwner);\n    }\n\n    function shareBetEarnings() external payable override {\n        require(msg.value > 0, \"bet earnings must be greater than 0\");\n        uint256 holdersShare = msg.value * (holdersVig / 100);\n        uint256 ecosystemShare = msg.value * (ecosystemVig / 100);\n        uint256 eventOwnersShare = msg.value * (eventOwnersVig / 100);\n        address payable eventOwner = payable(msg.sender);\n\n        (bool isSentEventOwner, ) = eventOwner.call{value: eventOwnersShare}(\n            \"\"\n        );\n\n        (bool isSentEcosystem, ) = ecosystemAddress.call{value: ecosystemShare}(\n            \"\"\n        );\n\n        (bool isSentHoldersAddress, ) = holdersAddress.call{\n            value: holdersShare\n        }(\"\");\n    }\n\n    function getVigPercentage() external view override returns (uint256) {\n        return vigPercentage;\n    }\n}\n",
  "sourcePath": "/Users/wizardom/projects/crypto/web3bets_smartcontract/contracts/Web3Bets.sol",
  "compiler": {
    "name": "solc",
    "version": "0.8.13+commit.abaa5c0e.Emscripten.clang"
  },
  "schemaVersion": "3.4.7",
  "updatedAt": "2022-07-23T13:55:04.114Z",
  "networkType": "ethereum",
  "devdoc": {
    "kind": "dev",
    "methods": {},
    "version": 1
  },
  "userdoc": {
    "kind": "user",
    "methods": {},
    "version": 1
  }
}