{
  "contractName": "Web3Bets",
  "abi": [
    {
      "inputs": [],
      "stateMutability": "nonpayable",
      "type": "constructor"
    },
    {
      "inputs": [
        {
          "internalType": "string",
          "name": "message",
          "type": "string"
        }
      ],
      "name": "ExistingEventOwner",
      "type": "error"
    },
    {
      "inputs": [],
      "name": "contractOwner",
      "outputs": [
        {
          "internalType": "address",
          "name": "",
          "type": "address"
        }
      ],
      "stateMutability": "view",
      "type": "function",
      "constant": true
    },
    {
      "inputs": [],
      "name": "ecosystemAddress",
      "outputs": [
        {
          "internalType": "address",
          "name": "",
          "type": "address"
        }
      ],
      "stateMutability": "view",
      "type": "function",
      "constant": true
    },
    {
      "inputs": [],
      "name": "ecosystemVig",
      "outputs": [
        {
          "internalType": "uint256",
          "name": "",
          "type": "uint256"
        }
      ],
      "stateMutability": "view",
      "type": "function",
      "constant": true
    },
    {
      "inputs": [
        {
          "internalType": "uint256",
          "name": "",
          "type": "uint256"
        }
      ],
      "name": "eventOwnerAddresses",
      "outputs": [
        {
          "internalType": "address",
          "name": "",
          "type": "address"
        }
      ],
      "stateMutability": "view",
      "type": "function",
      "constant": true
    },
    {
      "inputs": [
        {
          "internalType": "address",
          "name": "",
          "type": "address"
        }
      ],
      "name": "eventOwnersMapping",
      "outputs": [
        {
          "internalType": "uint256",
          "name": "",
          "type": "uint256"
        }
      ],
      "stateMutability": "view",
      "type": "function",
      "constant": true
    },
    {
      "inputs": [],
      "name": "eventOwnersVig",
      "outputs": [
        {
          "internalType": "uint256",
          "name": "",
          "type": "uint256"
        }
      ],
      "stateMutability": "view",
      "type": "function",
      "constant": true
    },
    {
      "inputs": [],
      "name": "holdersAddress",
      "outputs": [
        {
          "internalType": "address",
          "name": "",
          "type": "address"
        }
      ],
      "stateMutability": "view",
      "type": "function",
      "constant": true
    },
    {
      "inputs": [],
      "name": "holdersVig",
      "outputs": [
        {
          "internalType": "uint256",
          "name": "",
          "type": "uint256"
        }
      ],
      "stateMutability": "view",
      "type": "function",
      "constant": true
    },
    {
      "inputs": [],
      "name": "vigPercentage",
      "outputs": [
        {
          "internalType": "uint256",
          "name": "",
          "type": "uint256"
        }
      ],
      "stateMutability": "view",
      "type": "function",
      "constant": true
    },
    {
      "inputs": [
        {
          "internalType": "address",
          "name": "holder",
          "type": "address"
        }
      ],
      "name": "setHoldersAddress",
      "outputs": [],
      "stateMutability": "nonpayable",
      "type": "function"
    },
    {
      "inputs": [
        {
          "internalType": "address",
          "name": "holder",
          "type": "address"
        }
      ],
      "name": "setEcosystemAddress",
      "outputs": [],
      "stateMutability": "nonpayable",
      "type": "function"
    },
    {
      "inputs": [
        {
          "internalType": "uint256",
          "name": "percentage",
          "type": "uint256"
        }
      ],
      "name": "setVigPercentage",
      "outputs": [],
      "stateMutability": "nonpayable",
      "type": "function"
    },
    {
      "inputs": [
        {
          "internalType": "uint256",
          "name": "hVig",
          "type": "uint256"
        },
        {
          "internalType": "uint256",
          "name": "eVig",
          "type": "uint256"
        },
        {
          "internalType": "uint256",
          "name": "eoVig",
          "type": "uint256"
        }
      ],
      "name": "setVigPercentageShares",
      "outputs": [],
      "stateMutability": "nonpayable",
      "type": "function"
    },
    {
      "inputs": [
        {
          "internalType": "address",
          "name": "eventOwner",
          "type": "address"
        }
      ],
      "name": "addEventOwner",
      "outputs": [],
      "stateMutability": "nonpayable",
      "type": "function"
    },
    {
      "inputs": [],
      "name": "shareBetEarnings",
      "outputs": [],
      "stateMutability": "payable",
      "type": "function",
      "payable": true
    },
    {
      "inputs": [],
      "name": "getVigPercentage",
      "outputs": [
        {
          "internalType": "uint256",
          "name": "",
          "type": "uint256"
        }
      ],
      "stateMutability": "view",
      "type": "function",
      "constant": true
    },
    {
      "inputs": [],
      "name": "getAllEventOwners",
      "outputs": [
        {
          "internalType": "address[]",
          "name": "",
          "type": "address[]"
        }
      ],
      "stateMutability": "view",
      "type": "function",
      "constant": true
    }
  ],
  "bytecode": "0x6080604052601960035560326004556019600555600a60065534801561002457600080fd5b50336000806101000a81548173ffffffffffffffffffffffffffffffffffffffff021916908373ffffffffffffffffffffffffffffffffffffffff16021790555061151e806100746000396000f3fe6080604052600436106100fe5760003560e01c80634d16132411610095578063932a3ed611610064578063932a3ed6146103045780639376b94c1461032f578063a8e01b281461035a578063ce606ee014610383578063d6c1ca26146103ae576100fe565b80634d161324146102695780636824a6781461027357806375459b721461029c5780638761af9a146102d9576100fe565b8063327372e4116100d1578063327372e4146101ad578063387440e6146101d657806343dd1c0014610201578063486d1e501461023e576100fe565b806306a5cb3a146101035780630da4ee501461012e5780632004b3e51461015957806327848eae14610184575b600080fd5b34801561010f57600080fd5b506101186103d7565b6040516101259190610d61565b60405180910390f35b34801561013a57600080fd5b506101436103fd565b6040516101509190610d61565b60405180910390f35b34801561016557600080fd5b5061016e610423565b60405161017b9190610d95565b60405180910390f35b34801561019057600080fd5b506101ab60048036038101906101a69190610de1565b61042d565b005b3480156101b957600080fd5b506101d460048036038101906101cf9190610de1565b6105ee565b005b3480156101e257600080fd5b506101eb6106c0565b6040516101f89190610d95565b60405180910390f35b34801561020d57600080fd5b5061022860048036038101906102239190610e3a565b6106c6565b6040516102359190610d61565b60405180910390f35b34801561024a57600080fd5b50610253610705565b6040516102609190610d95565b60405180910390f35b61027161070b565b005b34801561027f57600080fd5b5061029a60048036038101906102959190610e67565b61093e565b005b3480156102a857600080fd5b506102c360048036038101906102be9190610de1565b610a9d565b6040516102d09190610d95565b60405180910390f35b3480156102e557600080fd5b506102ee610ab5565b6040516102fb9190610d95565b60405180910390f35b34801561031057600080fd5b50610319610abb565b6040516103269190610f78565b60405180910390f35b34801561033b57600080fd5b50610344610b49565b6040516103519190610d95565b60405180910390f35b34801561036657600080fd5b50610381600480360381019061037c9190610de1565b610b4f565b005b34801561038f57600080fd5b50610398610c21565b6040516103a59190610d61565b60405180910390f35b3480156103ba57600080fd5b506103d560048036038101906103d09190610e3a565b610c45565b005b600160009054906101000a900473ffffffffffffffffffffffffffffffffffffffff1681565b600260009054906101000a900473ffffffffffffffffffffffffffffffffffffffff1681565b6000600654905090565b60008054906101000a900473ffffffffffffffffffffffffffffffffffffffff1673ffffffffffffffffffffffffffffffffffffffff163373ffffffffffffffffffffffffffffffffffffffff16146104bb576040517f08c379a00000000000000000000000000000000000000000000000000000000081526004016104b29061101d565b60405180910390fd5b806000600860008373ffffffffffffffffffffffffffffffffffffffff1673ffffffffffffffffffffffffffffffffffffffff168152602001908152602001600020541461053e576040517f2a1e78fb000000000000000000000000000000000000000000000000000000008152600401610535906110af565b60405180910390fd5b6007829080600181540180825580915050600190039060005260206000200160009091909190916101000a81548173ffffffffffffffffffffffffffffffffffffffff021916908373ffffffffffffffffffffffffffffffffffffffff160217905550600780549050600860008473ffffffffffffffffffffffffffffffffffffffff1673ffffffffffffffffffffffffffffffffffffffff168152602001908152602001600020819055505050565b60008054906101000a900473ffffffffffffffffffffffffffffffffffffffff1673ffffffffffffffffffffffffffffffffffffffff163373ffffffffffffffffffffffffffffffffffffffff161461067c576040517f08c379a00000000000000000000000000000000000000000000000000000000081526004016106739061101d565b60405180910390fd5b80600260006101000a81548173ffffffffffffffffffffffffffffffffffffffff021916908373ffffffffffffffffffffffffffffffffffffffff16021790555050565b60065481565b600781815481106106d657600080fd5b906000526020600020016000915054906101000a900473ffffffffffffffffffffffffffffffffffffffff1681565b60035481565b6000341161074e576040517f08c379a000000000000000000000000000000000000000000000000000000000815260040161074590611141565b60405180910390fd5b6000606460035461075f91906111bf565b3461076a91906111f0565b90506000606460045461077d91906111bf565b3461078891906111f0565b90506000606460055461079b91906111bf565b346107a691906111f0565b9050600033905060008173ffffffffffffffffffffffffffffffffffffffff16836040516107d39061127b565b60006040518083038185875af1925050503d8060008114610810576040519150601f19603f3d011682016040523d82523d6000602084013e610815565b606091505b505090506000600160009054906101000a900473ffffffffffffffffffffffffffffffffffffffff1673ffffffffffffffffffffffffffffffffffffffff16856040516108619061127b565b60006040518083038185875af1925050503d806000811461089e576040519150601f19603f3d011682016040523d82523d6000602084013e6108a3565b606091505b505090506000600260009054906101000a900473ffffffffffffffffffffffffffffffffffffffff1673ffffffffffffffffffffffffffffffffffffffff16876040516108ef9061127b565b60006040518083038185875af1925050503d806000811461092c576040519150601f19603f3d011682016040523d82523d6000602084013e610931565b606091505b5050905050505050505050565b60008054906101000a900473ffffffffffffffffffffffffffffffffffffffff1673ffffffffffffffffffffffffffffffffffffffff163373ffffffffffffffffffffffffffffffffffffffff16146109cc576040517f08c379a00000000000000000000000000000000000000000000000000000000081526004016109c39061101d565b60405180910390fd5b606483111580156109de575060648211155b80156109eb575060648111155b610a2a576040517f08c379a0000000000000000000000000000000000000000000000000000000008152600401610a2190611328565b60405180910390fd5b6064818385610a399190611348565b610a439190611348565b14610a83576040517f08c379a0000000000000000000000000000000000000000000000000000000008152600401610a7a90611410565b60405180910390fd5b826003819055508160048190555080600581905550505050565b60086020528060005260406000206000915090505481565b60055481565b60606007805480602002602001604051908101604052809291908181526020018280548015610b3f57602002820191906000526020600020905b8160009054906101000a900473ffffffffffffffffffffffffffffffffffffffff1673ffffffffffffffffffffffffffffffffffffffff1681526020019060010190808311610af5575b5050505050905090565b60045481565b60008054906101000a900473ffffffffffffffffffffffffffffffffffffffff1673ffffffffffffffffffffffffffffffffffffffff163373ffffffffffffffffffffffffffffffffffffffff1614610bdd576040517f08c379a0000000000000000000000000000000000000000000000000000000008152600401610bd49061101d565b60405180910390fd5b80600160006101000a81548173ffffffffffffffffffffffffffffffffffffffff021916908373ffffffffffffffffffffffffffffffffffffffff16021790555050565b60008054906101000a900473ffffffffffffffffffffffffffffffffffffffff1681565b60008054906101000a900473ffffffffffffffffffffffffffffffffffffffff1673ffffffffffffffffffffffffffffffffffffffff163373ffffffffffffffffffffffffffffffffffffffff1614610cd3576040517f08c379a0000000000000000000000000000000000000000000000000000000008152600401610cca9061101d565b60405180910390fd5b60648110610d16576040517f08c379a0000000000000000000000000000000000000000000000000000000008152600401610d0d906114c8565b60405180910390fd5b8060068190555050565b600073ffffffffffffffffffffffffffffffffffffffff82169050919050565b6000610d4b82610d20565b9050919050565b610d5b81610d40565b82525050565b6000602082019050610d766000830184610d52565b92915050565b6000819050919050565b610d8f81610d7c565b82525050565b6000602082019050610daa6000830184610d86565b92915050565b600080fd5b610dbe81610d40565b8114610dc957600080fd5b50565b600081359050610ddb81610db5565b92915050565b600060208284031215610df757610df6610db0565b5b6000610e0584828501610dcc565b91505092915050565b610e1781610d7c565b8114610e2257600080fd5b50565b600081359050610e3481610e0e565b92915050565b600060208284031215610e5057610e4f610db0565b5b6000610e5e84828501610e25565b91505092915050565b600080600060608486031215610e8057610e7f610db0565b5b6000610e8e86828701610e25565b9350506020610e9f86828701610e25565b9250506040610eb086828701610e25565b9150509250925092565b600081519050919050565b600082825260208201905092915050565b6000819050602082019050919050565b610eef81610d40565b82525050565b6000610f018383610ee6565b60208301905092915050565b6000602082019050919050565b6000610f2582610eba565b610f2f8185610ec5565b9350610f3a83610ed6565b8060005b83811015610f6b578151610f528882610ef5565b9750610f5d83610f0d565b925050600181019050610f3e565b5085935050505092915050565b60006020820190508181036000830152610f928184610f1a565b905092915050565b600082825260208201905092915050565b7f596f752068617665206e6f2070726976696c65676520746f2072756e2074686960008201527f732066756e6374696f6e00000000000000000000000000000000000000000000602082015250565b6000611007602a83610f9a565b915061101282610fab565b604082019050919050565b6000602082019050818103600083015261103681610ffa565b9050919050565b7f54686973206164647265737320697320616c726561647920616e206576656e7460008201527f206f776e65720000000000000000000000000000000000000000000000000000602082015250565b6000611099602683610f9a565b91506110a48261103d565b604082019050919050565b600060208201905081810360008301526110c88161108c565b9050919050565b7f626574206561726e696e6773206d75737420626520677265617465722074686160008201527f6e20300000000000000000000000000000000000000000000000000000000000602082015250565b600061112b602383610f9a565b9150611136826110cf565b604082019050919050565b6000602082019050818103600083015261115a8161111e565b9050919050565b7f4e487b7100000000000000000000000000000000000000000000000000000000600052601260045260246000fd5b7f4e487b7100000000000000000000000000000000000000000000000000000000600052601160045260246000fd5b60006111ca82610d7c565b91506111d583610d7c565b9250826111e5576111e4611161565b5b828204905092915050565b60006111fb82610d7c565b915061120683610d7c565b9250817fffffffffffffffffffffffffffffffffffffffffffffffffffffffffffffffff048311821515161561123f5761123e611190565b5b828202905092915050565b600081905092915050565b50565b600061126560008361124a565b915061127082611255565b600082019050919050565b600061128682611258565b9150819050919050565b7f5669672070657263656e746167657320736861726573206d757374206265206560008201527f787072657373656420696e206120203020746f2031303020726174696f2e204560208201527f78616d706c653a20333000000000000000000000000000000000000000000000604082015250565b6000611312604a83610f9a565b915061131d82611290565b606082019050919050565b6000602082019050818103600083015261134181611305565b9050919050565b600061135382610d7c565b915061135e83610d7c565b9250827fffffffffffffffffffffffffffffffffffffffffffffffffffffffffffffffff0382111561139357611392611190565b5b828201905092915050565b7f5468652073756d206f6620616c6c205669672070657263656e7461676520736860008201527f61726573206d75737420626520657175616c20746f2031303000000000000000602082015250565b60006113fa603983610f9a565b91506114058261139e565b604082019050919050565b60006020820190508181036000830152611429816113ed565b9050919050565b7f5669672070657263656e74616765206d7573742062652065787072657373656460008201527f20696e203020746f203130302070657263656e746167652e204578616d706c6560208201527f3a20313000000000000000000000000000000000000000000000000000000000604082015250565b60006114b2604483610f9a565b91506114bd82611430565b606082019050919050565b600060208201905081810360008301526114e1816114a5565b905091905056fea2646970667358221220e22653820b357e797cadf5739fcb394f5becfdbce05525b01f80535eb706a41364736f6c634300080d0033",
  "immutableReferences": {},
  "source": "// SPDX-License-Identifier: MIT\n\npragma solidity ^0.8.4;\n\nimport \"./interface/IWeb3Bets.sol\";\n\ncontract Web3Bets is IWeb3Bets {\n    address public contractOwner;\n    address public ecosystemAddress;\n    address public holdersAddress;\n    uint256 public holdersVig = 25;\n    uint256 public ecosystemVig = 50;\n    uint256 public eventOwnersVig = 25;\n    uint256 public vigPercentage = 10;\n    address[] public eventOwnerAddresses;\n    mapping(address => uint256) public eventOwnersMapping;\n\n    error ExistingEventOwner(string message);\n\n    constructor() {\n        contractOwner = msg.sender;\n    }\n\n    modifier onlyUser() {\n        require(\n            msg.sender == contractOwner,\n            \"You have no privilege to run this function\"\n        );\n        _;\n    }\n\n    modifier uniqueEventOwner(address eventOwner) {\n        if (eventOwnersMapping[eventOwner] != 0) {\n            revert ExistingEventOwner({\n                message: \"This address is already an event owner\"\n            });\n        }\n        _;\n    }\n\n    function setHoldersAddress(address holder) public onlyUser {\n        holdersAddress = holder;\n    }\n\n    function setEcosystemAddress(address holder) public onlyUser {\n        ecosystemAddress = holder;\n    }\n\n    function setVigPercentage(uint256 percentage) public onlyUser {\n        require(\n            percentage < 100,\n            \"Vig percentage must be expressed in 0 to 100 percentage. Example: 10\"\n        );\n        vigPercentage = percentage;\n    }\n\n    function setVigPercentageShares(\n        uint256 hVig,\n        uint256 eVig,\n        uint256 eoVig\n    ) public onlyUser {\n        require(\n            hVig <= 100 && eVig <= 100 && eoVig <= 100,\n            \"Vig percentages shares must be expressed in a  0 to 100 ratio. Example: 30\"\n        );\n        require(\n            hVig + eVig + eoVig == 100,\n            \"The sum of all Vig percentage shares must be equal to 100\"\n        );\n\n        holdersVig = hVig;\n        ecosystemVig = eVig;\n        eventOwnersVig = eoVig;\n    }\n\n    function addEventOwner(address eventOwner)\n        public\n        onlyUser\n        uniqueEventOwner(eventOwner)\n    {\n        eventOwnerAddresses.push(eventOwner);\n        eventOwnersMapping[eventOwner] = eventOwnerAddresses.length;\n\n    }\n\n    function shareBetEarnings() external payable override {\n        require(msg.value > 0, \"bet earnings must be greater than 0\");\n        uint256 holdersShare = msg.value * (holdersVig / 100);\n        uint256 ecosystemShare = msg.value * (ecosystemVig / 100);\n        uint256 eventOwnersShare = msg.value * (eventOwnersVig / 100);\n        address payable eventOwner = payable(msg.sender);\n\n        (bool isSentEventOwner, ) = eventOwner.call{value: eventOwnersShare}(\n            \"\"\n        );\n\n        (bool isSentEcosystem, ) = ecosystemAddress.call{value: ecosystemShare}(\n            \"\"\n        );\n\n        (bool isSentHoldersAddress, ) = holdersAddress.call{\n            value: holdersShare\n        }(\"\");\n    }\n\n    function getVigPercentage() external view override returns (uint256) {\n        return vigPercentage;\n    }\n\n    function getAllEventOwners() external view returns (address[] memory)\n{\n    return eventOwnerAddresses;\n}\n}\n",
  "sourcePath": "/Users/wizardom/projects/crypto/web3bets_smartcontract/contracts/Web3Bets.sol",
  "compiler": {
    "name": "solc",
    "version": "0.8.13+commit.abaa5c0e.Emscripten.clang"
  },
  "schemaVersion": "3.4.7",
  "updatedAt": "2022-07-23T15:41:18.874Z",
  "networkType": "ethereum",
  "devdoc": {
    "kind": "dev",
    "methods": {},
    "version": 1
  },
  "userdoc": {
    "kind": "user",
    "methods": {},
    "version": 1
  }
}