{
  "contractName": "Web3Bets",
  "abi": [
    {
      "inputs": [],
      "stateMutability": "nonpayable",
      "type": "constructor"
    },
    {
      "inputs": [
        {
          "internalType": "string",
          "name": "message",
          "type": "string"
        }
      ],
      "name": "ExistingEventOwner",
      "type": "error"
    },
    {
      "inputs": [],
      "name": "contractOwner",
      "outputs": [
        {
          "internalType": "address",
          "name": "",
          "type": "address"
        }
      ],
      "stateMutability": "view",
      "type": "function",
      "constant": true
    },
    {
      "inputs": [],
      "name": "ecosystemAddress",
      "outputs": [
        {
          "internalType": "address",
          "name": "",
          "type": "address"
        }
      ],
      "stateMutability": "view",
      "type": "function",
      "constant": true
    },
    {
      "inputs": [],
      "name": "ecosystemVig",
      "outputs": [
        {
          "internalType": "uint256",
          "name": "",
          "type": "uint256"
        }
      ],
      "stateMutability": "view",
      "type": "function",
      "constant": true
    },
    {
      "inputs": [
        {
          "internalType": "uint256",
          "name": "",
          "type": "uint256"
        }
      ],
      "name": "eventOwnerAddresses",
      "outputs": [
        {
          "internalType": "address",
          "name": "",
          "type": "address"
        }
      ],
      "stateMutability": "view",
      "type": "function",
      "constant": true
    },
    {
      "inputs": [
        {
          "internalType": "address",
          "name": "",
          "type": "address"
        }
      ],
      "name": "eventOwnersMapping",
      "outputs": [
        {
          "internalType": "uint256",
          "name": "",
          "type": "uint256"
        }
      ],
      "stateMutability": "view",
      "type": "function",
      "constant": true
    },
    {
      "inputs": [],
      "name": "eventOwnersVig",
      "outputs": [
        {
          "internalType": "uint256",
          "name": "",
          "type": "uint256"
        }
      ],
      "stateMutability": "view",
      "type": "function",
      "constant": true
    },
    {
      "inputs": [],
      "name": "holdersAddress",
      "outputs": [
        {
          "internalType": "address",
          "name": "",
          "type": "address"
        }
      ],
      "stateMutability": "view",
      "type": "function",
      "constant": true
    },
    {
      "inputs": [],
      "name": "holdersVig",
      "outputs": [
        {
          "internalType": "uint256",
          "name": "",
          "type": "uint256"
        }
      ],
      "stateMutability": "view",
      "type": "function",
      "constant": true
    },
    {
      "inputs": [],
      "name": "vigPercentage",
      "outputs": [
        {
          "internalType": "uint256",
          "name": "",
          "type": "uint256"
        }
      ],
      "stateMutability": "view",
      "type": "function",
      "constant": true
    },
    {
      "inputs": [
        {
          "internalType": "address",
          "name": "holder",
          "type": "address"
        }
      ],
      "name": "setHoldersAddress",
      "outputs": [],
      "stateMutability": "nonpayable",
      "type": "function"
    },
    {
      "inputs": [
        {
          "internalType": "address",
          "name": "holder",
          "type": "address"
        }
      ],
      "name": "setEcosystemAddress",
      "outputs": [],
      "stateMutability": "nonpayable",
      "type": "function"
    },
    {
      "inputs": [
        {
          "internalType": "uint256",
          "name": "percentage",
          "type": "uint256"
        }
      ],
      "name": "setVigPercentage",
      "outputs": [],
      "stateMutability": "nonpayable",
      "type": "function"
    },
    {
      "inputs": [
        {
          "internalType": "uint256",
          "name": "hVig",
          "type": "uint256"
        },
        {
          "internalType": "uint256",
          "name": "eVig",
          "type": "uint256"
        },
        {
          "internalType": "uint256",
          "name": "eoVig",
          "type": "uint256"
        }
      ],
      "name": "setVigPercentageShares",
      "outputs": [],
      "stateMutability": "nonpayable",
      "type": "function"
    },
    {
      "inputs": [
        {
          "internalType": "address",
          "name": "eventOwner",
          "type": "address"
        }
      ],
      "name": "addEventOwner",
      "outputs": [],
      "stateMutability": "nonpayable",
      "type": "function"
    },
    {
      "inputs": [],
      "name": "shareBetEarnings",
      "outputs": [],
      "stateMutability": "payable",
      "type": "function",
      "payable": true
    },
    {
      "inputs": [],
      "name": "getVigPercentage",
      "outputs": [
        {
          "internalType": "uint256",
          "name": "",
          "type": "uint256"
        }
      ],
      "stateMutability": "view",
      "type": "function",
      "constant": true
    }
  ],
  "bytecode": "0x6080604052601960035560326004556019600555600a60065534801561002457600080fd5b50336000806101000a81548173ffffffffffffffffffffffffffffffffffffffff021916908373ffffffffffffffffffffffffffffffffffffffff1602179055506113fc806100746000396000f3fe6080604052600436106100f35760003560e01c80634d1613241161008a5780639376b94c116100595780639376b94c146102f9578063a8e01b2814610324578063ce606ee01461034d578063d6c1ca2614610378576100f3565b80634d1613241461025e5780636824a6781461026857806375459b72146102915780638761af9a146102ce576100f3565b8063327372e4116100c6578063327372e4146101a2578063387440e6146101cb57806343dd1c00146101f6578063486d1e5014610233576100f3565b806306a5cb3a146100f85780630da4ee50146101235780632004b3e51461014e57806327848eae14610179575b600080fd5b34801561010457600080fd5b5061010d6103a1565b60405161011a9190610d1f565b60405180910390f35b34801561012f57600080fd5b506101386103c7565b6040516101459190610d1f565b60405180910390f35b34801561015a57600080fd5b506101636103ed565b6040516101709190610d53565b60405180910390f35b34801561018557600080fd5b506101a0600480360381019061019b9190610d9f565b6103f7565b005b3480156101ae57600080fd5b506101c960048036038101906101c49190610d9f565b61063a565b005b3480156101d757600080fd5b506101e061070c565b6040516101ed9190610d53565b60405180910390f35b34801561020257600080fd5b5061021d60048036038101906102189190610df8565b610712565b60405161022a9190610d1f565b60405180910390f35b34801561023f57600080fd5b50610248610751565b6040516102559190610d53565b60405180910390f35b610266610757565b005b34801561027457600080fd5b5061028f600480360381019061028a9190610e25565b61098a565b005b34801561029d57600080fd5b506102b860048036038101906102b39190610d9f565b610ae9565b6040516102c59190610d53565b60405180910390f35b3480156102da57600080fd5b506102e3610b01565b6040516102f09190610d53565b60405180910390f35b34801561030557600080fd5b5061030e610b07565b60405161031b9190610d53565b60405180910390f35b34801561033057600080fd5b5061034b60048036038101906103469190610d9f565b610b0d565b005b34801561035957600080fd5b50610362610bdf565b60405161036f9190610d1f565b60405180910390f35b34801561038457600080fd5b5061039f600480360381019061039a9190610df8565b610c03565b005b600160009054906101000a900473ffffffffffffffffffffffffffffffffffffffff1681565b600260009054906101000a900473ffffffffffffffffffffffffffffffffffffffff1681565b6000600654905090565b60008054906101000a900473ffffffffffffffffffffffffffffffffffffffff1673ffffffffffffffffffffffffffffffffffffffff163373ffffffffffffffffffffffffffffffffffffffff1614610485576040517f08c379a000000000000000000000000000000000000000000000000000000000815260040161047c90610efb565b60405180910390fd5b806000600860008373ffffffffffffffffffffffffffffffffffffffff1673ffffffffffffffffffffffffffffffffffffffff1681526020019081526020016000205403610508576040517f2a1e78fb0000000000000000000000000000000000000000000000000000000081526004016104ff90610f8d565b60405180910390fd5b6000600860008473ffffffffffffffffffffffffffffffffffffffff1673ffffffffffffffffffffffffffffffffffffffff168152602001908152602001600020540361058a576040517f2a1e78fb00000000000000000000000000000000000000000000000000000000815260040161058190610f8d565b60405180910390fd5b6007829080600181540180825580915050600190039060005260206000200160009091909190916101000a81548173ffffffffffffffffffffffffffffffffffffffff021916908373ffffffffffffffffffffffffffffffffffffffff160217905550600780549050600860008473ffffffffffffffffffffffffffffffffffffffff1673ffffffffffffffffffffffffffffffffffffffff168152602001908152602001600020819055505050565b60008054906101000a900473ffffffffffffffffffffffffffffffffffffffff1673ffffffffffffffffffffffffffffffffffffffff163373ffffffffffffffffffffffffffffffffffffffff16146106c8576040517f08c379a00000000000000000000000000000000000000000000000000000000081526004016106bf90610efb565b60405180910390fd5b80600260006101000a81548173ffffffffffffffffffffffffffffffffffffffff021916908373ffffffffffffffffffffffffffffffffffffffff16021790555050565b60065481565b6007818154811061072257600080fd5b906000526020600020016000915054906101000a900473ffffffffffffffffffffffffffffffffffffffff1681565b60035481565b6000341161079a576040517f08c379a00000000000000000000000000000000000000000000000000000000081526004016107919061101f565b60405180910390fd5b600060646003546107ab919061109d565b346107b691906110ce565b9050600060646004546107c9919061109d565b346107d491906110ce565b9050600060646005546107e7919061109d565b346107f291906110ce565b9050600033905060008173ffffffffffffffffffffffffffffffffffffffff168360405161081f90611159565b60006040518083038185875af1925050503d806000811461085c576040519150601f19603f3d011682016040523d82523d6000602084013e610861565b606091505b505090506000600160009054906101000a900473ffffffffffffffffffffffffffffffffffffffff1673ffffffffffffffffffffffffffffffffffffffff16856040516108ad90611159565b60006040518083038185875af1925050503d80600081146108ea576040519150601f19603f3d011682016040523d82523d6000602084013e6108ef565b606091505b505090506000600260009054906101000a900473ffffffffffffffffffffffffffffffffffffffff1673ffffffffffffffffffffffffffffffffffffffff168760405161093b90611159565b60006040518083038185875af1925050503d8060008114610978576040519150601f19603f3d011682016040523d82523d6000602084013e61097d565b606091505b5050905050505050505050565b60008054906101000a900473ffffffffffffffffffffffffffffffffffffffff1673ffffffffffffffffffffffffffffffffffffffff163373ffffffffffffffffffffffffffffffffffffffff1614610a18576040517f08c379a0000000000000000000000000000000000000000000000000000000008152600401610a0f90610efb565b60405180910390fd5b60648311158015610a2a575060648211155b8015610a37575060648111155b610a76576040517f08c379a0000000000000000000000000000000000000000000000000000000008152600401610a6d90611206565b60405180910390fd5b6064818385610a859190611226565b610a8f9190611226565b14610acf576040517f08c379a0000000000000000000000000000000000000000000000000000000008152600401610ac6906112ee565b60405180910390fd5b826003819055508160048190555080600581905550505050565b60086020528060005260406000206000915090505481565b60055481565b60045481565b60008054906101000a900473ffffffffffffffffffffffffffffffffffffffff1673ffffffffffffffffffffffffffffffffffffffff163373ffffffffffffffffffffffffffffffffffffffff1614610b9b576040517f08c379a0000000000000000000000000000000000000000000000000000000008152600401610b9290610efb565b60405180910390fd5b80600160006101000a81548173ffffffffffffffffffffffffffffffffffffffff021916908373ffffffffffffffffffffffffffffffffffffffff16021790555050565b60008054906101000a900473ffffffffffffffffffffffffffffffffffffffff1681565b60008054906101000a900473ffffffffffffffffffffffffffffffffffffffff1673ffffffffffffffffffffffffffffffffffffffff163373ffffffffffffffffffffffffffffffffffffffff1614610c91576040517f08c379a0000000000000000000000000000000000000000000000000000000008152600401610c8890610efb565b60405180910390fd5b60648110610cd4576040517f08c379a0000000000000000000000000000000000000000000000000000000008152600401610ccb906113a6565b60405180910390fd5b8060068190555050565b600073ffffffffffffffffffffffffffffffffffffffff82169050919050565b6000610d0982610cde565b9050919050565b610d1981610cfe565b82525050565b6000602082019050610d346000830184610d10565b92915050565b6000819050919050565b610d4d81610d3a565b82525050565b6000602082019050610d686000830184610d44565b92915050565b600080fd5b610d7c81610cfe565b8114610d8757600080fd5b50565b600081359050610d9981610d73565b92915050565b600060208284031215610db557610db4610d6e565b5b6000610dc384828501610d8a565b91505092915050565b610dd581610d3a565b8114610de057600080fd5b50565b600081359050610df281610dcc565b92915050565b600060208284031215610e0e57610e0d610d6e565b5b6000610e1c84828501610de3565b91505092915050565b600080600060608486031215610e3e57610e3d610d6e565b5b6000610e4c86828701610de3565b9350506020610e5d86828701610de3565b9250506040610e6e86828701610de3565b9150509250925092565b600082825260208201905092915050565b7f596f752068617665206e6f2070726976696c65676520746f2072756e2074686960008201527f732066756e6374696f6e00000000000000000000000000000000000000000000602082015250565b6000610ee5602a83610e78565b9150610ef082610e89565b604082019050919050565b60006020820190508181036000830152610f1481610ed8565b9050919050565b7f54686973206164647265737320697320616c726561647920616e206576656e7460008201527f206f776e65720000000000000000000000000000000000000000000000000000602082015250565b6000610f77602683610e78565b9150610f8282610f1b565b604082019050919050565b60006020820190508181036000830152610fa681610f6a565b9050919050565b7f626574206561726e696e6773206d75737420626520677265617465722074686160008201527f6e20300000000000000000000000000000000000000000000000000000000000602082015250565b6000611009602383610e78565b915061101482610fad565b604082019050919050565b6000602082019050818103600083015261103881610ffc565b9050919050565b7f4e487b7100000000000000000000000000000000000000000000000000000000600052601260045260246000fd5b7f4e487b7100000000000000000000000000000000000000000000000000000000600052601160045260246000fd5b60006110a882610d3a565b91506110b383610d3a565b9250826110c3576110c261103f565b5b828204905092915050565b60006110d982610d3a565b91506110e483610d3a565b9250817fffffffffffffffffffffffffffffffffffffffffffffffffffffffffffffffff048311821515161561111d5761111c61106e565b5b828202905092915050565b600081905092915050565b50565b6000611143600083611128565b915061114e82611133565b600082019050919050565b600061116482611136565b9150819050919050565b7f5669672070657263656e746167657320736861726573206d757374206265206560008201527f787072657373656420696e206120203020746f2031303020726174696f2e204560208201527f78616d706c653a20333000000000000000000000000000000000000000000000604082015250565b60006111f0604a83610e78565b91506111fb8261116e565b606082019050919050565b6000602082019050818103600083015261121f816111e3565b9050919050565b600061123182610d3a565b915061123c83610d3a565b9250827fffffffffffffffffffffffffffffffffffffffffffffffffffffffffffffffff038211156112715761127061106e565b5b828201905092915050565b7f5468652073756d206f6620616c6c205669672070657263656e7461676520736860008201527f61726573206d75737420626520657175616c20746f2031303000000000000000602082015250565b60006112d8603983610e78565b91506112e38261127c565b604082019050919050565b60006020820190508181036000830152611307816112cb565b9050919050565b7f5669672070657263656e74616765206d7573742062652065787072657373656460008201527f20696e203020746f203130302070657263656e746167652e204578616d706c6560208201527f3a20313000000000000000000000000000000000000000000000000000000000604082015250565b6000611390604483610e78565b915061139b8261130e565b606082019050919050565b600060208201905081810360008301526113bf81611383565b905091905056fea2646970667358221220bcf1ef72f29953c51422f46d8ceba6cae09dd353656c090b383bac27ef25a9e464736f6c634300080d0033",
  "immutableReferences": {},
  "source": "// SPDX-License-Identifier: MIT\n\npragma solidity ^0.8.4;\n\nimport \"./interface/IWeb3Bets.sol\";\n\ncontract Web3Bets is IWeb3Bets {\n    address public contractOwner;\n    address public ecosystemAddress;\n    address public holdersAddress;\n    uint256 public holdersVig = 25;\n    uint256 public ecosystemVig = 50;\n    uint256 public eventOwnersVig = 25;\n    uint256 public vigPercentage = 10;\n    address[] public eventOwnerAddresses;\n    mapping(address => uint256) public eventOwnersMapping;\n\n    error ExistingEventOwner(string message);\n\n    constructor() {\n        contractOwner = msg.sender;\n    }\n\n    modifier onlyUser() {\n        require(\n            msg.sender == contractOwner,\n            \"You have no privilege to run this function\"\n        );\n        _;\n    }\n\n    modifier uniqueEventOwner(address eventOwner) {\n        if (eventOwnersMapping[eventOwner] == 0) {\n            revert ExistingEventOwner({\n                message: \"This address is already an event owner\"\n            });\n        }\n        _;\n    }\n\n    function setHoldersAddress(address holder) public onlyUser {\n        holdersAddress = holder;\n    }\n\n    function setEcosystemAddress(address holder) public onlyUser {\n        ecosystemAddress = holder;\n    }\n\n    function setVigPercentage(uint256 percentage) public onlyUser {\n        require(\n            percentage < 100,\n            \"Vig percentage must be expressed in 0 to 100 percentage. Example: 10\"\n        );\n        vigPercentage = percentage;\n    }\n\n    function setVigPercentageShares(\n        uint256 hVig,\n        uint256 eVig,\n        uint256 eoVig\n    ) public onlyUser {\n        require(\n            hVig <= 100 && eVig <= 100 && eoVig <= 100,\n            \"Vig percentages shares must be expressed in a  0 to 100 ratio. Example: 30\"\n        );\n        require(\n            hVig + eVig + eoVig == 100,\n            \"The sum of all Vig percentage shares must be equal to 100\"\n        );\n\n        holdersVig = hVig;\n        ecosystemVig = eVig;\n        eventOwnersVig = eoVig;\n    }\n\n    function addEventOwner(address eventOwner)\n        public\n        onlyUser\n        uniqueEventOwner(eventOwner)\n    {\n        if (eventOwnersMapping[eventOwner] == 0) {\n            revert ExistingEventOwner({\n                message: \"This address is already an event owner\"\n            });\n        }\n        eventOwnerAddresses.push(eventOwner);\n        eventOwnersMapping[eventOwner] = eventOwnerAddresses.length;\n\n    }\n\n    function shareBetEarnings() external payable override {\n        require(msg.value > 0, \"bet earnings must be greater than 0\");\n        uint256 holdersShare = msg.value * (holdersVig / 100);\n        uint256 ecosystemShare = msg.value * (ecosystemVig / 100);\n        uint256 eventOwnersShare = msg.value * (eventOwnersVig / 100);\n        address payable eventOwner = payable(msg.sender);\n\n        (bool isSentEventOwner, ) = eventOwner.call{value: eventOwnersShare}(\n            \"\"\n        );\n\n        (bool isSentEcosystem, ) = ecosystemAddress.call{value: ecosystemShare}(\n            \"\"\n        );\n\n        (bool isSentHoldersAddress, ) = holdersAddress.call{\n            value: holdersShare\n        }(\"\");\n    }\n\n    function getVigPercentage() external view override returns (uint256) {\n        return vigPercentage;\n    }\n}\n",
  "sourcePath": "/Users/wizardom/projects/crypto/web3bets_smartcontract/contracts/Web3Bets.sol",
  "compiler": {
    "name": "solc",
    "version": "0.8.13+commit.abaa5c0e.Emscripten.clang"
  },
  "schemaVersion": "3.4.7",
  "updatedAt": "2022-07-23T14:56:38.865Z",
  "networkType": "ethereum",
  "devdoc": {
    "kind": "dev",
    "methods": {},
    "version": 1
  },
  "userdoc": {
    "kind": "user",
    "methods": {},
    "version": 1
  }
}