{
  "contractName": "Web3Bets",
  "abi": [
    {
      "inputs": [],
      "stateMutability": "nonpayable",
      "type": "constructor"
    },
    {
      "inputs": [
        {
          "internalType": "string",
          "name": "message",
          "type": "string"
        }
      ],
      "name": "ExistingEventOwner",
      "type": "error"
    },
    {
      "stateMutability": "payable",
      "type": "fallback",
      "payable": true
    },
    {
      "inputs": [],
      "name": "contractOwner",
      "outputs": [
        {
          "internalType": "address",
          "name": "",
          "type": "address"
        }
      ],
      "stateMutability": "view",
      "type": "function",
      "constant": true
    },
    {
      "inputs": [],
      "name": "ecosystemAddress",
      "outputs": [
        {
          "internalType": "address",
          "name": "",
          "type": "address"
        }
      ],
      "stateMutability": "view",
      "type": "function",
      "constant": true
    },
    {
      "inputs": [],
      "name": "ecosystemVig",
      "outputs": [
        {
          "internalType": "uint256",
          "name": "",
          "type": "uint256"
        }
      ],
      "stateMutability": "view",
      "type": "function",
      "constant": true
    },
    {
      "inputs": [
        {
          "internalType": "uint256",
          "name": "",
          "type": "uint256"
        }
      ],
      "name": "eventOwnerAddresses",
      "outputs": [
        {
          "internalType": "address",
          "name": "",
          "type": "address"
        }
      ],
      "stateMutability": "view",
      "type": "function",
      "constant": true
    },
    {
      "inputs": [
        {
          "internalType": "address",
          "name": "",
          "type": "address"
        }
      ],
      "name": "eventOwnersMapping",
      "outputs": [
        {
          "internalType": "address",
          "name": "",
          "type": "address"
        }
      ],
      "stateMutability": "view",
      "type": "function",
      "constant": true
    },
    {
      "inputs": [],
      "name": "eventOwnersVig",
      "outputs": [
        {
          "internalType": "uint256",
          "name": "",
          "type": "uint256"
        }
      ],
      "stateMutability": "view",
      "type": "function",
      "constant": true
    },
    {
      "inputs": [],
      "name": "holdersAddress",
      "outputs": [
        {
          "internalType": "address",
          "name": "",
          "type": "address"
        }
      ],
      "stateMutability": "view",
      "type": "function",
      "constant": true
    },
    {
      "inputs": [],
      "name": "holdersVig",
      "outputs": [
        {
          "internalType": "uint256",
          "name": "",
          "type": "uint256"
        }
      ],
      "stateMutability": "view",
      "type": "function",
      "constant": true
    },
    {
      "inputs": [],
      "name": "vigPercentage",
      "outputs": [
        {
          "internalType": "uint256",
          "name": "",
          "type": "uint256"
        }
      ],
      "stateMutability": "view",
      "type": "function",
      "constant": true
    },
    {
      "stateMutability": "payable",
      "type": "receive",
      "payable": true
    },
    {
      "inputs": [
        {
          "internalType": "address",
          "name": "holder",
          "type": "address"
        }
      ],
      "name": "setHoldersAddress",
      "outputs": [],
      "stateMutability": "nonpayable",
      "type": "function"
    },
    {
      "inputs": [
        {
          "internalType": "address",
          "name": "holder",
          "type": "address"
        }
      ],
      "name": "setEcosystemAddress",
      "outputs": [],
      "stateMutability": "nonpayable",
      "type": "function"
    },
    {
      "inputs": [
        {
          "internalType": "uint256",
          "name": "percentage",
          "type": "uint256"
        }
      ],
      "name": "setVigPercentage",
      "outputs": [],
      "stateMutability": "nonpayable",
      "type": "function"
    },
    {
      "inputs": [
        {
          "internalType": "uint256",
          "name": "hVig",
          "type": "uint256"
        },
        {
          "internalType": "uint256",
          "name": "eVig",
          "type": "uint256"
        },
        {
          "internalType": "uint256",
          "name": "eoVig",
          "type": "uint256"
        }
      ],
      "name": "setVigPercentageShares",
      "outputs": [],
      "stateMutability": "nonpayable",
      "type": "function"
    },
    {
      "inputs": [
        {
          "internalType": "address",
          "name": "_eventOwner",
          "type": "address"
        }
      ],
      "name": "addEventOwner",
      "outputs": [],
      "stateMutability": "nonpayable",
      "type": "function"
    },
    {
      "inputs": [
        {
          "internalType": "address",
          "name": "_eventOwner",
          "type": "address"
        }
      ],
      "name": "deleteEventOwner",
      "outputs": [],
      "stateMutability": "nonpayable",
      "type": "function"
    },
    {
      "inputs": [],
      "name": "shareBetEarnings",
      "outputs": [],
      "stateMutability": "payable",
      "type": "function",
      "payable": true
    },
    {
      "inputs": [],
      "name": "getVigPercentage",
      "outputs": [
        {
          "internalType": "uint256",
          "name": "",
          "type": "uint256"
        }
      ],
      "stateMutability": "view",
      "type": "function",
      "constant": true
    },
    {
      "inputs": [
        {
          "internalType": "address",
          "name": "_owner",
          "type": "address"
        }
      ],
      "name": "isEventOwner",
      "outputs": [
        {
          "internalType": "bool",
          "name": "",
          "type": "bool"
        }
      ],
      "stateMutability": "view",
      "type": "function",
      "constant": true
    },
    {
      "inputs": [],
      "name": "getAllEventOwners",
      "outputs": [
        {
          "internalType": "address[]",
          "name": "",
          "type": "address[]"
        }
      ],
      "stateMutability": "view",
      "type": "function",
      "constant": true
    }
  ],
  "bytecode": "0x6080604052601960035560326004556019600555600a60065534801561002457600080fd5b50336000806101000a81548173ffffffffffffffffffffffffffffffffffffffff021916908373ffffffffffffffffffffffffffffffffffffffff1602179055506119bf806100746000396000f3fe6080604052600436106101185760003560e01c80634d161324116100a05780639376b94c116100645780639376b94c14610376578063a8e01b28146103a1578063ce606ee0146103ca578063d6c1ca26146103f5578063eb8035841461041e5761011f565b80634d161324146102b05780636824a678146102ba57806375459b72146102e35780638761af9a14610320578063932a3ed61461034b5761011f565b806327848eae116100e757806327848eae146101cb578063327372e4146101f4578063387440e61461021d57806343dd1c0014610248578063486d1e50146102855761011f565b806306a5cb3a146101215780630c0d5cb31461014c5780630da4ee50146101755780632004b3e5146101a05761011f565b3661011f57005b005b34801561012d57600080fd5b5061013661045b565b604051610143919061117b565b60405180910390f35b34801561015857600080fd5b50610173600480360381019061016e91906111c7565b610481565b005b34801561018157600080fd5b5061018a61071d565b604051610197919061117b565b60405180910390f35b3480156101ac57600080fd5b506101b5610743565b6040516101c2919061120d565b60405180910390f35b3480156101d757600080fd5b506101f260048036038101906101ed91906111c7565b61074d565b005b34801561020057600080fd5b5061021b600480360381019061021691906111c7565b610955565b005b34801561022957600080fd5b50610232610a27565b60405161023f919061120d565b60405180910390f35b34801561025457600080fd5b5061026f600480360381019061026a9190611254565b610a2d565b60405161027c919061117b565b60405180910390f35b34801561029157600080fd5b5061029a610a6c565b6040516102a7919061120d565b60405180910390f35b6102b8610a72565b005b3480156102c657600080fd5b506102e160048036038101906102dc9190611281565b610ca5565b005b3480156102ef57600080fd5b5061030a600480360381019061030591906111c7565b610e04565b604051610317919061117b565b60405180910390f35b34801561032c57600080fd5b50610335610e37565b604051610342919061120d565b60405180910390f35b34801561035757600080fd5b50610360610e3d565b60405161036d9190611392565b60405180910390f35b34801561038257600080fd5b5061038b610ecb565b604051610398919061120d565b60405180910390f35b3480156103ad57600080fd5b506103c860048036038101906103c391906111c7565b610ed1565b005b3480156103d657600080fd5b506103df610fa3565b6040516103ec919061117b565b60405180910390f35b34801561040157600080fd5b5061041c60048036038101906104179190611254565b610fc7565b005b34801561042a57600080fd5b50610445600480360381019061044091906111c7565b6110a2565b60405161045291906113cf565b60405180910390f35b600160009054906101000a900473ffffffffffffffffffffffffffffffffffffffff1681565b60008054906101000a900473ffffffffffffffffffffffffffffffffffffffff1673ffffffffffffffffffffffffffffffffffffffff163373ffffffffffffffffffffffffffffffffffffffff161461050f576040517f08c379a00000000000000000000000000000000000000000000000000000000081526004016105069061146d565b60405180910390fd5b600073ffffffffffffffffffffffffffffffffffffffff16600860008373ffffffffffffffffffffffffffffffffffffffff1673ffffffffffffffffffffffffffffffffffffffff16815260200190815260200160002060009054906101000a900473ffffffffffffffffffffffffffffffffffffffff1673ffffffffffffffffffffffffffffffffffffffff16036105dd576040517f08c379a00000000000000000000000000000000000000000000000000000000081526004016105d4906114d9565b60405180910390fd5b600860008273ffffffffffffffffffffffffffffffffffffffff1673ffffffffffffffffffffffffffffffffffffffff16815260200190815260200160002060006101000a81549073ffffffffffffffffffffffffffffffffffffffff021916905560005b600780549050811015610719578173ffffffffffffffffffffffffffffffffffffffff166007828154811061067a576106796114f9565b5b9060005260206000200160009054906101000a900473ffffffffffffffffffffffffffffffffffffffff1673ffffffffffffffffffffffffffffffffffffffff160361070657600781815481106106d4576106d36114f9565b5b9060005260206000200160006101000a81549073ffffffffffffffffffffffffffffffffffffffff0219169055610719565b808061071190611557565b915050610642565b5050565b600260009054906101000a900473ffffffffffffffffffffffffffffffffffffffff1681565b6000600654905090565b60008054906101000a900473ffffffffffffffffffffffffffffffffffffffff1673ffffffffffffffffffffffffffffffffffffffff163373ffffffffffffffffffffffffffffffffffffffff16146107db576040517f08c379a00000000000000000000000000000000000000000000000000000000081526004016107d29061146d565b60405180910390fd5b80600073ffffffffffffffffffffffffffffffffffffffff16600860008373ffffffffffffffffffffffffffffffffffffffff1673ffffffffffffffffffffffffffffffffffffffff16815260200190815260200160002060009054906101000a900473ffffffffffffffffffffffffffffffffffffffff1673ffffffffffffffffffffffffffffffffffffffff1603610951576007829080600181540180825580915050600190039060005260206000200160009091909190916101000a81548173ffffffffffffffffffffffffffffffffffffffff021916908373ffffffffffffffffffffffffffffffffffffffff16021790555081600860008473ffffffffffffffffffffffffffffffffffffffff1673ffffffffffffffffffffffffffffffffffffffff16815260200190815260200160002060006101000a81548173ffffffffffffffffffffffffffffffffffffffff021916908373ffffffffffffffffffffffffffffffffffffffff1602179055505b5050565b60008054906101000a900473ffffffffffffffffffffffffffffffffffffffff1673ffffffffffffffffffffffffffffffffffffffff163373ffffffffffffffffffffffffffffffffffffffff16146109e3576040517f08c379a00000000000000000000000000000000000000000000000000000000081526004016109da9061146d565b60405180910390fd5b80600260006101000a81548173ffffffffffffffffffffffffffffffffffffffff021916908373ffffffffffffffffffffffffffffffffffffffff16021790555050565b60065481565b60078181548110610a3d57600080fd5b906000526020600020016000915054906101000a900473ffffffffffffffffffffffffffffffffffffffff1681565b60035481565b60003411610ab5576040517f08c379a0000000000000000000000000000000000000000000000000000000008152600401610aac90611611565b60405180910390fd5b60006064600354610ac69190611660565b34610ad19190611691565b905060006064600454610ae49190611660565b34610aef9190611691565b905060006064600554610b029190611660565b34610b0d9190611691565b9050600033905060008173ffffffffffffffffffffffffffffffffffffffff1683604051610b3a9061171c565b60006040518083038185875af1925050503d8060008114610b77576040519150601f19603f3d011682016040523d82523d6000602084013e610b7c565b606091505b505090506000600160009054906101000a900473ffffffffffffffffffffffffffffffffffffffff1673ffffffffffffffffffffffffffffffffffffffff1685604051610bc89061171c565b60006040518083038185875af1925050503d8060008114610c05576040519150601f19603f3d011682016040523d82523d6000602084013e610c0a565b606091505b505090506000600260009054906101000a900473ffffffffffffffffffffffffffffffffffffffff1673ffffffffffffffffffffffffffffffffffffffff1687604051610c569061171c565b60006040518083038185875af1925050503d8060008114610c93576040519150601f19603f3d011682016040523d82523d6000602084013e610c98565b606091505b5050905050505050505050565b60008054906101000a900473ffffffffffffffffffffffffffffffffffffffff1673ffffffffffffffffffffffffffffffffffffffff163373ffffffffffffffffffffffffffffffffffffffff1614610d33576040517f08c379a0000000000000000000000000000000000000000000000000000000008152600401610d2a9061146d565b60405180910390fd5b60648311158015610d45575060648211155b8015610d52575060648111155b610d91576040517f08c379a0000000000000000000000000000000000000000000000000000000008152600401610d88906117c9565b60405180910390fd5b6064818385610da091906117e9565b610daa91906117e9565b14610dea576040517f08c379a0000000000000000000000000000000000000000000000000000000008152600401610de1906118b1565b60405180910390fd5b826003819055508160048190555080600581905550505050565b60086020528060005260406000206000915054906101000a900473ffffffffffffffffffffffffffffffffffffffff1681565b60055481565b60606007805480602002602001604051908101604052809291908181526020018280548015610ec157602002820191906000526020600020905b8160009054906101000a900473ffffffffffffffffffffffffffffffffffffffff1673ffffffffffffffffffffffffffffffffffffffff1681526020019060010190808311610e77575b5050505050905090565b60045481565b60008054906101000a900473ffffffffffffffffffffffffffffffffffffffff1673ffffffffffffffffffffffffffffffffffffffff163373ffffffffffffffffffffffffffffffffffffffff1614610f5f576040517f08c379a0000000000000000000000000000000000000000000000000000000008152600401610f569061146d565b60405180910390fd5b80600160006101000a81548173ffffffffffffffffffffffffffffffffffffffff021916908373ffffffffffffffffffffffffffffffffffffffff16021790555050565b60008054906101000a900473ffffffffffffffffffffffffffffffffffffffff1681565b60008054906101000a900473ffffffffffffffffffffffffffffffffffffffff1673ffffffffffffffffffffffffffffffffffffffff163373ffffffffffffffffffffffffffffffffffffffff1614611055576040517f08c379a000000000000000000000000000000000000000000000000000000000815260040161104c9061146d565b60405180910390fd5b60648110611098576040517f08c379a000000000000000000000000000000000000000000000000000000000815260040161108f90611969565b60405180910390fd5b8060068190555050565b60008073ffffffffffffffffffffffffffffffffffffffff16600860008473ffffffffffffffffffffffffffffffffffffffff1673ffffffffffffffffffffffffffffffffffffffff16815260200190815260200160002060009054906101000a900473ffffffffffffffffffffffffffffffffffffffff1673ffffffffffffffffffffffffffffffffffffffff1614159050919050565b600073ffffffffffffffffffffffffffffffffffffffff82169050919050565b60006111658261113a565b9050919050565b6111758161115a565b82525050565b6000602082019050611190600083018461116c565b92915050565b600080fd5b6111a48161115a565b81146111af57600080fd5b50565b6000813590506111c18161119b565b92915050565b6000602082840312156111dd576111dc611196565b5b60006111eb848285016111b2565b91505092915050565b6000819050919050565b611207816111f4565b82525050565b600060208201905061122260008301846111fe565b92915050565b611231816111f4565b811461123c57600080fd5b50565b60008135905061124e81611228565b92915050565b60006020828403121561126a57611269611196565b5b60006112788482850161123f565b91505092915050565b60008060006060848603121561129a57611299611196565b5b60006112a88682870161123f565b93505060206112b98682870161123f565b92505060406112ca8682870161123f565b9150509250925092565b600081519050919050565b600082825260208201905092915050565b6000819050602082019050919050565b6113098161115a565b82525050565b600061131b8383611300565b60208301905092915050565b6000602082019050919050565b600061133f826112d4565b61134981856112df565b9350611354836112f0565b8060005b8381101561138557815161136c888261130f565b975061137783611327565b925050600181019050611358565b5085935050505092915050565b600060208201905081810360008301526113ac8184611334565b905092915050565b60008115159050919050565b6113c9816113b4565b82525050565b60006020820190506113e460008301846113c0565b92915050565b600082825260208201905092915050565b7f596f752068617665206e6f2070726976696c65676520746f2072756e2074686960008201527f732066756e6374696f6e00000000000000000000000000000000000000000000602082015250565b6000611457602a836113ea565b9150611462826113fb565b604082019050919050565b600060208201905081810360008301526114868161144a565b9050919050565b7f496e76616c6964206576656e74206f776e657200000000000000000000000000600082015250565b60006114c36013836113ea565b91506114ce8261148d565b602082019050919050565b600060208201905081810360008301526114f2816114b6565b9050919050565b7f4e487b7100000000000000000000000000000000000000000000000000000000600052603260045260246000fd5b7f4e487b7100000000000000000000000000000000000000000000000000000000600052601160045260246000fd5b6000611562826111f4565b91507fffffffffffffffffffffffffffffffffffffffffffffffffffffffffffffffff820361159457611593611528565b5b600182019050919050565b7f626574206561726e696e6773206d75737420626520677265617465722074686160008201527f6e20300000000000000000000000000000000000000000000000000000000000602082015250565b60006115fb6023836113ea565b91506116068261159f565b604082019050919050565b6000602082019050818103600083015261162a816115ee565b9050919050565b7f4e487b7100000000000000000000000000000000000000000000000000000000600052601260045260246000fd5b600061166b826111f4565b9150611676836111f4565b92508261168657611685611631565b5b828204905092915050565b600061169c826111f4565b91506116a7836111f4565b9250817fffffffffffffffffffffffffffffffffffffffffffffffffffffffffffffffff04831182151516156116e0576116df611528565b5b828202905092915050565b600081905092915050565b50565b60006117066000836116eb565b9150611711826116f6565b600082019050919050565b6000611727826116f9565b9150819050919050565b7f5669672070657263656e746167657320736861726573206d757374206265206560008201527f787072657373656420696e206120203020746f2031303020726174696f2e204560208201527f78616d706c653a20333000000000000000000000000000000000000000000000604082015250565b60006117b3604a836113ea565b91506117be82611731565b606082019050919050565b600060208201905081810360008301526117e2816117a6565b9050919050565b60006117f4826111f4565b91506117ff836111f4565b9250827fffffffffffffffffffffffffffffffffffffffffffffffffffffffffffffffff0382111561183457611833611528565b5b828201905092915050565b7f5468652073756d206f6620616c6c205669672070657263656e7461676520736860008201527f61726573206d75737420626520657175616c20746f2031303000000000000000602082015250565b600061189b6039836113ea565b91506118a68261183f565b604082019050919050565b600060208201905081810360008301526118ca8161188e565b9050919050565b7f5669672070657263656e74616765206d7573742062652065787072657373656460008201527f20696e203020746f203130302070657263656e746167652e204578616d706c6560208201527f3a20313000000000000000000000000000000000000000000000000000000000604082015250565b60006119536044836113ea565b915061195e826118d1565b606082019050919050565b6000602082019050818103600083015261198281611946565b905091905056fea264697066735822122021ccf33797168333fd4adcf3dd264fb41943d10fdb359b17239bb8dbb466059564736f6c634300080d0033",
  "immutableReferences": {},
  "source": "// SPDX-License-Identifier: MIT\n\npragma solidity ^0.8.4;\n\nimport \"./interface/IWeb3Bets.sol\";\n\ncontract Web3Bets is IWeb3Bets {\n    address public contractOwner;\n    address public ecosystemAddress;\n    address public holdersAddress;\n    uint256 public holdersVig = 25;\n    uint256 public ecosystemVig = 50;\n    uint256 public eventOwnersVig = 25;\n    uint256 public vigPercentage = 10;\n    address[] public eventOwnerAddresses;\n    mapping(address => address) public eventOwnersMapping;\n\n    error ExistingEventOwner(string message);\n\n    constructor() {\n        contractOwner = msg.sender;\n    }\n\n    modifier onlyUser() {\n        require(\n            msg.sender == contractOwner,\n            \"You have no privilege to run this function\"\n        );\n        _;\n    }\n\n    modifier uniqueEventOwner(address _eventOwner) {\n        if (eventOwnersMapping[_eventOwner] != address(0)) {\n            return;\n        }\n        _;\n    }\n\n    function setHoldersAddress(address holder) public onlyUser {\n        holdersAddress = holder;\n    }\n\n    function setEcosystemAddress(address holder) public onlyUser {\n        ecosystemAddress = holder;\n    }\n\n    function setVigPercentage(uint256 percentage) public onlyUser {\n        require(\n            percentage < 100,\n            \"Vig percentage must be expressed in 0 to 100 percentage. Example: 10\"\n        );\n        vigPercentage = percentage;\n    }\n\n    function setVigPercentageShares(\n        uint256 hVig,\n        uint256 eVig,\n        uint256 eoVig\n    ) public onlyUser {\n        require(\n            hVig <= 100 && eVig <= 100 && eoVig <= 100,\n            \"Vig percentages shares must be expressed in a  0 to 100 ratio. Example: 30\"\n        );\n        require(\n            hVig + eVig + eoVig == 100,\n            \"The sum of all Vig percentage shares must be equal to 100\"\n        );\n\n        holdersVig = hVig;\n        ecosystemVig = eVig;\n        eventOwnersVig = eoVig;\n    }\n\n    function addEventOwner(address _eventOwner)\n        public\n        onlyUser\n        uniqueEventOwner(_eventOwner)\n    {\n        eventOwnerAddresses.push(_eventOwner);\n        eventOwnersMapping[_eventOwner] = _eventOwner;\n    }\n\n    function deleteEventOwner(address _eventOwner) public onlyUser {\n        if (eventOwnersMapping[_eventOwner] == address(0)) {\n            revert(\"Invalid event owner\");\n        } else {\n            delete eventOwnersMapping[_eventOwner];\n\n            for (uint256 i = 0; i < eventOwnerAddresses.length; i++) {\n                if (eventOwnerAddresses[i] == _eventOwner) {\n                    delete eventOwnerAddresses[i];\n                    break;\n                }\n            }\n        }\n    }\n\n    function shareBetEarnings() external payable override {\n        require(msg.value > 0, \"bet earnings must be greater than 0\");\n        uint256 holdersShare = msg.value * (holdersVig / 100);\n        uint256 ecosystemShare = msg.value * (ecosystemVig / 100);\n        uint256 eventOwnersShare = msg.value * (eventOwnersVig / 100);\n        address payable eventOwner = payable(msg.sender);\n\n        (bool isSentEventOwner, ) = eventOwner.call{value: eventOwnersShare}(\n            \"\"\n        );\n\n        (bool isSentEcosystem, ) = ecosystemAddress.call{value: ecosystemShare}(\n            \"\"\n        );\n\n        (bool isSentHoldersAddress, ) = holdersAddress.call{\n            value: holdersShare\n        }(\"\");\n    }\n\n    function getVigPercentage() external view override returns (uint256) {\n        return vigPercentage;\n    }\n\n    function isEventOwner(address _owner) external view returns (bool) {\n        return eventOwnersMapping[_owner] != address(0);\n    }\n\n    function getAllEventOwners() external view returns (address[] memory) {\n        return eventOwnerAddresses;\n    }\n\n    // Function to receive Ether. msg.data must be empty\n    receive() external payable {}\n\n    // Fallback function is called when msg.data is not empty\n    fallback() external payable {\n    }\n}\n",
  "sourcePath": "/Users/wizardom/projects/crypto/web3bets_smartcontract/contracts/Web3Bets.sol",
  "compiler": {
    "name": "solc",
    "version": "0.8.13+commit.abaa5c0e.Emscripten.clang"
  },
  "schemaVersion": "3.4.7",
  "updatedAt": "2022-08-02T04:22:07.835Z",
  "networkType": "ethereum",
  "devdoc": {
    "kind": "dev",
    "methods": {},
    "version": 1
  },
  "userdoc": {
    "kind": "user",
    "methods": {},
    "version": 1
  }
}